{
  "contractName": "APMRegistry",
  "abi": [
    {
      "constant": true,
      "inputs": [],
      "name": "hasInitialized",
      "outputs": [
        {
          "name": "",
          "type": "bool"
        }
      ],
      "payable": false,
      "stateMutability": "view",
      "type": "function"
    },
    {
      "constant": true,
      "inputs": [
        {
          "name": "_script",
          "type": "bytes"
        }
      ],
      "name": "getEVMScriptExecutor",
      "outputs": [
        {
          "name": "",
          "type": "address"
        }
      ],
      "payable": false,
      "stateMutability": "view",
      "type": "function"
    },
    {
      "constant": true,
      "inputs": [],
      "name": "registrar",
      "outputs": [
        {
          "name": "",
          "type": "address"
        }
      ],
      "payable": false,
      "stateMutability": "view",
      "type": "function"
    },
    {
      "constant": true,
      "inputs": [],
      "name": "getRecoveryVault",
      "outputs": [
        {
          "name": "",
          "type": "address"
        }
      ],
      "payable": false,
      "stateMutability": "view",
      "type": "function"
    },
    {
      "constant": true,
      "inputs": [],
      "name": "ens",
      "outputs": [
        {
          "name": "",
          "type": "address"
        }
      ],
      "payable": false,
      "stateMutability": "view",
      "type": "function"
    },
    {
      "constant": true,
      "inputs": [],
      "name": "CREATE_REPO_ROLE",
      "outputs": [
        {
          "name": "",
          "type": "bytes32"
        }
      ],
      "payable": false,
      "stateMutability": "view",
      "type": "function"
    },
    {
      "constant": true,
      "inputs": [
        {
          "name": "token",
          "type": "address"
        }
      ],
      "name": "allowRecoverability",
      "outputs": [
        {
          "name": "",
          "type": "bool"
        }
      ],
      "payable": false,
      "stateMutability": "view",
      "type": "function"
    },
    {
      "constant": true,
      "inputs": [],
      "name": "appId",
      "outputs": [
        {
          "name": "",
          "type": "bytes32"
        }
      ],
      "payable": false,
      "stateMutability": "view",
      "type": "function"
    },
    {
      "constant": true,
      "inputs": [],
      "name": "getInitializationBlock",
      "outputs": [
        {
          "name": "",
          "type": "uint256"
        }
      ],
      "payable": false,
      "stateMutability": "view",
      "type": "function"
    },
    {
      "constant": false,
      "inputs": [
        {
          "name": "_token",
          "type": "address"
        }
      ],
      "name": "transferToVault",
      "outputs": [],
      "payable": false,
      "stateMutability": "nonpayable",
      "type": "function"
    },
    {
      "constant": true,
      "inputs": [
        {
          "name": "_sender",
          "type": "address"
        },
        {
          "name": "_role",
          "type": "bytes32"
        },
        {
          "name": "_params",
          "type": "uint256[]"
        }
      ],
      "name": "canPerform",
      "outputs": [
        {
          "name": "",
          "type": "bool"
        }
      ],
      "payable": false,
      "stateMutability": "view",
      "type": "function"
    },
    {
      "constant": true,
      "inputs": [],
      "name": "getEVMScriptRegistry",
      "outputs": [
        {
          "name": "",
          "type": "address"
        }
      ],
      "payable": false,
      "stateMutability": "view",
      "type": "function"
    },
    {
      "constant": false,
      "inputs": [
        {
          "name": "_kernel",
          "type": "address"
        },
        {
          "name": "_appId",
          "type": "bytes32"
        },
        {
          "name": "_initializePayload",
          "type": "bytes"
        }
      ],
      "name": "newAppProxyPinned",
      "outputs": [
        {
          "name": "",
          "type": "address"
        }
      ],
      "payable": false,
      "stateMutability": "nonpayable",
      "type": "function"
    },
    {
      "constant": true,
      "inputs": [],
      "name": "kernel",
      "outputs": [
        {
          "name": "",
          "type": "address"
        }
      ],
      "payable": false,
      "stateMutability": "view",
      "type": "function"
    },
    {
      "constant": true,
      "inputs": [],
      "name": "isPetrified",
      "outputs": [
        {
          "name": "",
          "type": "bool"
        }
      ],
      "payable": false,
      "stateMutability": "view",
      "type": "function"
    },
    {
      "constant": false,
      "inputs": [
        {
          "name": "_kernel",
          "type": "address"
        },
        {
          "name": "_appId",
          "type": "bytes32"
        }
      ],
      "name": "newAppProxy",
      "outputs": [
        {
          "name": "",
          "type": "address"
        }
      ],
      "payable": false,
      "stateMutability": "nonpayable",
      "type": "function"
    },
    {
      "constant": false,
      "inputs": [
        {
          "name": "_kernel",
          "type": "address"
        },
        {
          "name": "_appId",
          "type": "bytes32"
        },
        {
          "name": "_initializePayload",
          "type": "bytes"
        }
      ],
      "name": "newAppProxy",
      "outputs": [
        {
          "name": "",
          "type": "address"
        }
      ],
      "payable": false,
      "stateMutability": "nonpayable",
      "type": "function"
    },
    {
      "constant": false,
      "inputs": [
        {
          "name": "_kernel",
          "type": "address"
        },
        {
          "name": "_appId",
          "type": "bytes32"
        }
      ],
      "name": "newAppProxyPinned",
      "outputs": [
        {
          "name": "",
          "type": "address"
        }
      ],
      "payable": false,
      "stateMutability": "nonpayable",
      "type": "function"
    },
    {
      "anonymous": false,
      "inputs": [
        {
          "indexed": false,
          "name": "id",
          "type": "bytes32"
        },
        {
          "indexed": false,
          "name": "name",
          "type": "string"
        },
        {
          "indexed": false,
          "name": "repo",
          "type": "address"
        }
      ],
      "name": "NewRepo",
      "type": "event"
    },
    {
      "anonymous": false,
      "inputs": [
        {
          "indexed": false,
          "name": "proxy",
          "type": "address"
        },
        {
          "indexed": false,
          "name": "isUpgradeable",
          "type": "bool"
        },
        {
          "indexed": false,
          "name": "appId",
          "type": "bytes32"
        }
      ],
      "name": "NewAppProxy",
      "type": "event"
    },
    {
      "anonymous": false,
      "inputs": [
        {
          "indexed": true,
          "name": "executor",
          "type": "address"
        },
        {
          "indexed": false,
          "name": "script",
          "type": "bytes"
        },
        {
          "indexed": false,
          "name": "input",
          "type": "bytes"
        },
        {
          "indexed": false,
          "name": "returnData",
          "type": "bytes"
        }
      ],
      "name": "ScriptResult",
      "type": "event"
    },
    {
      "anonymous": false,
      "inputs": [
        {
          "indexed": true,
          "name": "vault",
          "type": "address"
        },
        {
          "indexed": true,
          "name": "token",
          "type": "address"
        },
        {
          "indexed": false,
          "name": "amount",
          "type": "uint256"
        }
      ],
      "name": "RecoverToVault",
      "type": "event"
    },
    {
      "constant": false,
      "inputs": [
        {
          "name": "_registrar",
          "type": "address"
        }
      ],
      "name": "initialize",
      "outputs": [],
      "payable": false,
      "stateMutability": "nonpayable",
      "type": "function"
    },
    {
      "constant": false,
      "inputs": [
        {
          "name": "_name",
          "type": "string"
        },
        {
          "name": "_dev",
          "type": "address"
        }
      ],
      "name": "newRepo",
      "outputs": [
        {
          "name": "",
          "type": "address"
        }
      ],
      "payable": false,
      "stateMutability": "nonpayable",
      "type": "function"
    },
    {
      "constant": false,
      "inputs": [
        {
          "name": "_name",
          "type": "string"
        },
        {
          "name": "_dev",
          "type": "address"
        },
        {
          "name": "_initialSemanticVersion",
          "type": "uint16[3]"
        },
        {
          "name": "_contractAddress",
          "type": "address"
        },
        {
          "name": "_contentURI",
          "type": "bytes"
        }
      ],
      "name": "newRepoWithVersion",
      "outputs": [
        {
          "name": "",
          "type": "address"
        }
      ],
      "payable": false,
      "stateMutability": "nonpayable",
      "type": "function"
    }
  ],
  "bytecode": "0x60806040526200001d62000023640100000000026401000000009004565b62000309565b60006200003e6200015e640100000000026401000000009004565b146040805190810160405280601881526020017f494e49545f414c52454144595f494e495449414c495a4544000000000000000081525090151562000121576040517f08c379a00000000000000000000000000000000000000000000000000000000081526004018080602001828103825283818151815260200191508051906020019080838360005b83811015620000e5578082015181840152602081019050620000c8565b50505050905090810190601f168015620001135780820380516001836020036101000a031916815260200191505b509250505060405180910390fd5b506200015c7fffffffffffffffffffffffffffffffffffffffffffffffffffffffffffffffff620001ab640100000000026401000000009004565b565b6000620001a67febb05b386a8d34882b8711d156f463690983dc47815980fb82aeeff1aa43579e60010260001916620002f764010000000002620032b5176401000000009004565b905090565b6000620001c66200015e640100000000026401000000009004565b146040805190810160405280601881526020017f494e49545f414c52454144595f494e495449414c495a45440000000000000000815250901515620002a9576040517f08c379a00000000000000000000000000000000000000000000000000000000081526004018080602001828103825283818151815260200191508051906020019080838360005b838110156200026d57808201518184015260208101905062000250565b50505050905090810190601f1680156200029b5780820380516001836020036101000a031916815260200191505b509250505060405180910390fd5b50620002f4817febb05b386a8d34882b8711d156f463690983dc47815980fb82aeeff1aa43579e6001026000191662000302640100000000026200385f179091906401000000009004565b50565b600081549050919050565b8082555050565b614d6380620003196000396000f30060806040526004361062000133576000357c0100000000000000000000000000000000000000000000000000000000900463ffffffff1680630803fac014620001385780632914b9bd146200016a5780632b20e397146200021657806332ab6af0146200027057806332f0a3b514620003d15780633f15457f146200042b5780635e1f3fa814620004855780637e7db6e114620004bb57806380afdea814620005195780638b3dd749146200054f5780639d4941d8146200057d578063a1658fad14620005c3578063a479e5081462000672578063b0927de714620006cc578063c4d66de81462000798578063d162f8b014620007de578063d4aae0c414620008b8578063de4796ed1462000912578063e156a8f31462000944578063ede658b014620009d8578063ff289fc51462000ab2575b600080fd5b3480156200014557600080fd5b506200015062000b46565b604051808215151515815260200191505060405180910390f35b3480156200017757600080fd5b50620001d4600480360381019080803590602001908201803590602001908080601f016020809104026020016040519081016040528093929190818152602001838380828437820191505050505050919291929050505062000b76565b604051808273ffffffffffffffffffffffffffffffffffffffff1673ffffffffffffffffffffffffffffffffffffffff16815260200191505060405180910390f35b3480156200022357600080fd5b506200022e62000c9d565b604051808273ffffffffffffffffffffffffffffffffffffffff1673ffffffffffffffffffffffffffffffffffffffff16815260200191505060405180910390f35b3480156200027d57600080fd5b506200038f600480360381019080803590602001908201803590602001908080601f0160208091040260200160405190810160405280939291908181526020018383808284378201915050505050509192919290803573ffffffffffffffffffffffffffffffffffffffff1690602001909291908060600190600380602002604051908101604052809291908260036020028082843782019150505050509192919290803573ffffffffffffffffffffffffffffffffffffffff169060200190929190803590602001908201803590602001908080601f016020809104026020016040519081016040528093929190818152602001838380828437820191505050505050919291929050505062000cc3565b604051808273ffffffffffffffffffffffffffffffffffffffff1673ffffffffffffffffffffffffffffffffffffffff16815260200191505060405180910390f35b348015620003de57600080fd5b50620003e9620014fc565b604051808273ffffffffffffffffffffffffffffffffffffffff1673ffffffffffffffffffffffffffffffffffffffff16815260200191505060405180910390f35b3480156200043857600080fd5b5062000443620015ae565b604051808273ffffffffffffffffffffffffffffffffffffffff1673ffffffffffffffffffffffffffffffffffffffff16815260200191505060405180910390f35b3480156200049257600080fd5b506200049d620015d3565b60405180826000191660001916815260200191505060405180910390f35b348015620004c857600080fd5b50620004ff600480360381019080803573ffffffffffffffffffffffffffffffffffffffff169060200190929190505050620015fa565b604051808215151515815260200191505060405180910390f35b3480156200052657600080fd5b506200053162001605565b60405180826000191660001916815260200191505060405180910390f35b3480156200055c57600080fd5b50620005676200163e565b6040518082815260200191505060405180910390f35b3480156200058a57600080fd5b50620005c1600480360381019080803573ffffffffffffffffffffffffffffffffffffffff16906020019092919050505062001677565b005b348015620005d057600080fd5b5062000658600480360381019080803573ffffffffffffffffffffffffffffffffffffffff16906020019092919080356000191690602001909291908035906020019082018035906020019080806020026020016040519081016040528093929190818152602001838360200280828437820191505050505050919291929050505062001aae565b604051808215151515815260200191505060405180910390f35b3480156200067f57600080fd5b506200068a62001cba565b604051808273ffffffffffffffffffffffffffffffffffffffff1673ffffffffffffffffffffffffffffffffffffffff16815260200191505060405180910390f35b348015620006d957600080fd5b5062000756600480360381019080803590602001908201803590602001908080601f0160208091040260200160405190810160405280939291908181526020018383808284378201915050505050509192919290803573ffffffffffffffffffffffffffffffffffffffff16906020019092919050505062001dda565b604051808273ffffffffffffffffffffffffffffffffffffffff1673ffffffffffffffffffffffffffffffffffffffff16815260200191505060405180910390f35b348015620007a557600080fd5b50620007dc600480360381019080803573ffffffffffffffffffffffffffffffffffffffff16906020019092919050505062001f36565b005b348015620007eb57600080fd5b5062000876600480360381019080803573ffffffffffffffffffffffffffffffffffffffff1690602001909291908035600019169060200190929190803590602001908201803590602001908080601f016020809104026020016040519081016040528093929190818152602001838380828437820191505050505050919291929050505062002883565b604051808273ffffffffffffffffffffffffffffffffffffffff1673ffffffffffffffffffffffffffffffffffffffff16815260200191505060405180910390f35b348015620008c557600080fd5b50620008d0620029f2565b604051808273ffffffffffffffffffffffffffffffffffffffff1673ffffffffffffffffffffffffffffffffffffffff16815260200191505060405180910390f35b3480156200091f57600080fd5b506200092a62002a2b565b604051808215151515815260200191505060405180910390f35b3480156200095157600080fd5b5062000996600480360381019080803573ffffffffffffffffffffffffffffffffffffffff169060200190929190803560001916906020019092919050505062002a5e565b604051808273ffffffffffffffffffffffffffffffffffffffff1673ffffffffffffffffffffffffffffffffffffffff16815260200191505060405180910390f35b348015620009e557600080fd5b5062000a70600480360381019080803573ffffffffffffffffffffffffffffffffffffffff1690602001909291908035600019169060200190929190803590602001908201803590602001908080601f016020809104026020016040519081016040528093929190818152602001838380828437820191505050505050919291929050505062002aaa565b604051808273ffffffffffffffffffffffffffffffffffffffff1673ffffffffffffffffffffffffffffffffffffffff16815260200191505060405180910390f35b34801562000abf57600080fd5b5062000b04600480360381019080803573ffffffffffffffffffffffffffffffffffffffff169060200190929190803560001916906020019092919050505062002c19565b604051808273ffffffffffffffffffffffffffffffffffffffff1673ffffffffffffffffffffffffffffffffffffffff16815260200191505060405180910390f35b60008062000b536200163e565b90506000811415801562000b7057508062000b6d62002c65565b10155b91505090565b600062000b8262001cba565b73ffffffffffffffffffffffffffffffffffffffff166304bf2a7f836040518263ffffffff167c01000000000000000000000000000000000000000000000000000000000281526004018080602001828103825283818151815260200191508051906020019080838360005b8381101562000c0b57808201518184015260208101905062000bee565b50505050905090810190601f16801562000c395780820380516001836020036101000a031916815260200191505b5092505050602060405180830381600087803b15801562000c5957600080fd5b505af115801562000c6e573d6000803e3d6000fd5b505050506040513d602081101562000c8557600080fd5b81019080805190602001909291905050509050919050565b600160009054906101000a900473ffffffffffffffffffffffffffffffffffffffff1681565b60008060007f2a9494d64846c9fdbf0158785aa330d8bc9caf45af27fa0e8898eb4d55adcea660010262000d2a3382600060405190808252806020026020018201604052801562000d235781602001602082028038833980820191505090505b5062001aae565b6040805190810160405280600f81526020017f4150505f415554485f4641494c4544000000000000000000000000000000000081525090151562000e0c576040517f08c379a00000000000000000000000000000000000000000000000000000000081526004018080602001828103825283818151815260200191508051906020019080838360005b8381101562000dd057808201518184015260208101905062000db3565b50505050905090810190601f16801562000dfe5780820380516001836020036101000a031916815260200191505b509250505060405180910390fd5b5062000e19893062002c6d565b92508273ffffffffffffffffffffffffffffffffffffffff1663730534108888886040518463ffffffff167c01000000000000000000000000000000000000000000000000000000000281526004018084600360200280838360005b8381101562000e9257808201518184015260208101905062000e75565b505050509050018373ffffffffffffffffffffffffffffffffffffffff1673ffffffffffffffffffffffffffffffffffffffff16815260200180602001828103825283818151815260200191508051906020019080838360005b8381101562000f0957808201518184015260208101905062000eec565b50505050905090810190601f16801562000f375780820380516001836020036101000a031916815260200191505b50945050505050600060405180830381600087803b15801562000f5957600080fd5b505af115801562000f6e573d6000803e3d6000fd5b5050505062000f7c620029f2565b73ffffffffffffffffffffffffffffffffffffffff1663de2873596040518163ffffffff167c0100000000000000000000000000000000000000000000000000000000028152600401602060405180830381600087803b15801562000fe057600080fd5b505af115801562000ff5573d6000803e3d6000fd5b505050506040513d60208110156200100c57600080fd5b810190808051906020019092919050505091508173ffffffffffffffffffffffffffffffffffffffff16639d0effdb30858673ffffffffffffffffffffffffffffffffffffffff1663aa61924a6040518163ffffffff167c0100000000000000000000000000000000000000000000000000000000028152600401602060405180830381600087803b158015620010a257600080fd5b505af1158015620010b7573d6000803e3d6000fd5b505050506040513d6020811015620010ce57600080fd5b81019080805190602001909291905050506040518463ffffffff167c0100000000000000000000000000000000000000000000000000000000028152600401808473ffffffffffffffffffffffffffffffffffffffff1673ffffffffffffffffffffffffffffffffffffffff1681526020018373ffffffffffffffffffffffffffffffffffffffff1673ffffffffffffffffffffffffffffffffffffffff16815260200182600019166000191681526020019350505050600060405180830381600087803b158015620011a057600080fd5b505af1158015620011b5573d6000803e3d6000fd5b505050508173ffffffffffffffffffffffffffffffffffffffff16630a8ed3db89858673ffffffffffffffffffffffffffffffffffffffff1663aa61924a6040518163ffffffff167c0100000000000000000000000000000000000000000000000000000000028152600401602060405180830381600087803b1580156200123c57600080fd5b505af115801562001251573d6000803e3d6000fd5b505050506040513d60208110156200126857600080fd5b81019080805190602001909291905050506040518463ffffffff167c0100000000000000000000000000000000000000000000000000000000028152600401808473ffffffffffffffffffffffffffffffffffffffff1673ffffffffffffffffffffffffffffffffffffffff1681526020018373ffffffffffffffffffffffffffffffffffffffff1673ffffffffffffffffffffffffffffffffffffffff16815260200182600019166000191681526020019350505050600060405180830381600087803b1580156200133a57600080fd5b505af11580156200134f573d6000803e3d6000fd5b505050508173ffffffffffffffffffffffffffffffffffffffff1663afd925df89858673ffffffffffffffffffffffffffffffffffffffff1663aa61924a6040518163ffffffff167c0100000000000000000000000000000000000000000000000000000000028152600401602060405180830381600087803b158015620013d657600080fd5b505af1158015620013eb573d6000803e3d6000fd5b505050506040513d60208110156200140257600080fd5b81019080805190602001909291905050506040518463ffffffff167c0100000000000000000000000000000000000000000000000000000000028152600401808473ffffffffffffffffffffffffffffffffffffffff1673ffffffffffffffffffffffffffffffffffffffff1681526020018373ffffffffffffffffffffffffffffffffffffffff1673ffffffffffffffffffffffffffffffffffffffff16815260200182600019166000191681526020019350505050600060405180830381600087803b158015620014d457600080fd5b505af1158015620014e9573d6000803e3d6000fd5b5050505082935050505095945050505050565b600062001508620029f2565b73ffffffffffffffffffffffffffffffffffffffff166332f0a3b56040518163ffffffff167c0100000000000000000000000000000000000000000000000000000000028152600401602060405180830381600087803b1580156200156c57600080fd5b505af115801562001581573d6000803e3d6000fd5b505050506040513d60208110156200159857600080fd5b8101908080519060200190929190505050905090565b6000809054906101000a900473ffffffffffffffffffffffffffffffffffffffff1681565b7f2a9494d64846c9fdbf0158785aa330d8bc9caf45af27fa0e8898eb4d55adcea660010281565b600060019050919050565b6000620016397fd625496217aa6a3453eecb9c3489dc5a53e6c67b444329ea2b2cbc9ff547639b60010260001916620032aa565b905090565b6000620016727febb05b386a8d34882b8711d156f463690983dc47815980fb82aeeff1aa43579e60010260001916620032b5565b905090565b60008060006200168784620015fa565b6040805190810160405280601281526020017f5245434f5645525f444953414c4c4f574544000000000000000000000000000081525090151562001769576040517f08c379a00000000000000000000000000000000000000000000000000000000081526004018080602001828103825283818151815260200191508051906020019080838360005b838110156200172d57808201518184015260208101905062001710565b50505050905090810190601f1680156200175b5780820380516001836020036101000a031916815260200191505b509250505060405180910390fd5b5062001774620014fc565b92506200178183620032c0565b6040805190810160405280601a81526020017f5245434f5645525f5641554c545f4e4f545f434f4e545241435400000000000081525090151562001863576040517f08c379a00000000000000000000000000000000000000000000000000000000081526004018080602001828103825283818151815260200191508051906020019080838360005b83811015620018275780820151818401526020810190506200180a565b50505050905090810190601f168015620018555780820380516001836020036101000a031916815260200191505b509250505060405180910390fd5b50600073ffffffffffffffffffffffffffffffffffffffff168473ffffffffffffffffffffffffffffffffffffffff16141562001902573073ffffffffffffffffffffffffffffffffffffffff163191508273ffffffffffffffffffffffffffffffffffffffff166108fc839081150290604051600060405180830381858888f19350505050158015620018fb573d6000803e3d6000fd5b5062001a43565b83905062001930308273ffffffffffffffffffffffffffffffffffffffff166200331490919063ffffffff16565b91506200195f83838373ffffffffffffffffffffffffffffffffffffffff16620034f49092919063ffffffff16565b6040805190810160405280601d81526020017f5245434f5645525f544f4b454e5f5452414e534645525f4641494c454400000081525090151562001a41576040517f08c379a00000000000000000000000000000000000000000000000000000000081526004018080602001828103825283818151815260200191508051906020019080838360005b8381101562001a05578082015181840152602081019050620019e8565b50505050905090810190601f16801562001a335780820380516001836020036101000a031916815260200191505b509250505060405180910390fd5b505b8373ffffffffffffffffffffffffffffffffffffffff168373ffffffffffffffffffffffffffffffffffffffff167f596caf56044b55fb8c4ca640089bbc2b63cae3e978b851f5745cbb7c5b288e02846040518082815260200191505060405180910390a350505050565b60008062001abb62000b46565b151562001acc576000915062001cb2565b62001ad6620029f2565b9050600073ffffffffffffffffffffffffffffffffffffffff168173ffffffffffffffffffffffffffffffffffffffff16141562001b18576000915062001cb2565b8073ffffffffffffffffffffffffffffffffffffffff1663fdef910686308762001b4288620035d6565b6040518563ffffffff167c0100000000000000000000000000000000000000000000000000000000028152600401808573ffffffffffffffffffffffffffffffffffffffff1673ffffffffffffffffffffffffffffffffffffffff1681526020018473ffffffffffffffffffffffffffffffffffffffff1673ffffffffffffffffffffffffffffffffffffffff168152602001836000191660001916815260200180602001828103825283818151815260200191508051906020019080838360005b8381101562001c2157808201518184015260208101905062001c04565b50505050905090810190601f16801562001c4f5780820380516001836020036101000a031916815260200191505b5095505050505050602060405180830381600087803b15801562001c7257600080fd5b505af115801562001c87573d6000803e3d6000fd5b505050506040513d602081101562001c9e57600080fd5b810190808051906020019092919050505091505b509392505050565b60008062001cc7620029f2565b73ffffffffffffffffffffffffffffffffffffffff1663be00bbd87fd6f028ca0e8edb4a8c9757ca4fdccab25fa1e0317da1188108f7d2dee14902fb6001027fddbcfd564f642ab5627cf68b9b7d374fb4f8a36e941a75d89c87998cef03bd616001026040518363ffffffff167c0100000000000000000000000000000000000000000000000000000000028152600401808360001916600019168152602001826000191660001916815260200192505050602060405180830381600087803b15801562001d9457600080fd5b505af115801562001da9573d6000803e3d6000fd5b505050506040513d602081101562001dc057600080fd5b810190808051906020019092919050505090508091505090565b60007f2a9494d64846c9fdbf0158785aa330d8bc9caf45af27fa0e8898eb4d55adcea660010262001e3e3382600060405190808252806020026020018201604052801562001e375781602001602082028038833980820191505090505b5062001aae565b6040805190810160405280600f81526020017f4150505f415554485f4641494c4544000000000000000000000000000000000081525090151562001f20576040517f08c379a00000000000000000000000000000000000000000000000000000000081526004018080602001828103825283818151815260200191508051906020019080838360005b8381101562001ee457808201518184015260208101905062001ec7565b50505050905090810190601f16801562001f125780820380516001836020036101000a031916815260200191505b509250505060405180910390fd5b5062001f2d848462002c6d565b91505092915050565b60008062001f436200163e565b146040805190810160405280601881526020017f494e49545f414c52454144595f494e495449414c495a4544000000000000000081525090151562002026576040517f08c379a00000000000000000000000000000000000000000000000000000000081526004018080602001828103825283818151815260200191508051906020019080838360005b8381101562001fea57808201518184015260208101905062001fcd565b50505050905090810190601f168015620020185780820380516001836020036101000a031916815260200191505b509250505060405180910390fd5b5062002031620035ed565b81600160006101000a81548173ffffffffffffffffffffffffffffffffffffffff021916908373ffffffffffffffffffffffffffffffffffffffff160217905550600160009054906101000a900473ffffffffffffffffffffffffffffffffffffffff1673ffffffffffffffffffffffffffffffffffffffff16633f15457f6040518163ffffffff167c0100000000000000000000000000000000000000000000000000000000028152600401602060405180830381600087803b158015620020f957600080fd5b505af11580156200210e573d6000803e3d6000fd5b505050506040513d60208110156200212557600080fd5b81019080805190602001909291905050506000806101000a81548173ffffffffffffffffffffffffffffffffffffffff021916908373ffffffffffffffffffffffffffffffffffffffff160217905550600160009054906101000a900473ffffffffffffffffffffffffffffffffffffffff1673ffffffffffffffffffffffffffffffffffffffff1663db606931306040518263ffffffff167c0100000000000000000000000000000000000000000000000000000000028152600401808273ffffffffffffffffffffffffffffffffffffffff1673ffffffffffffffffffffffffffffffffffffffff168152602001915050600060405180830381600087803b1580156200223357600080fd5b505af115801562002248573d6000803e3d6000fd5b5050505062002256620029f2565b73ffffffffffffffffffffffffffffffffffffffff1663de2873596040518163ffffffff167c0100000000000000000000000000000000000000000000000000000000028152600401602060405180830381600087803b158015620022ba57600080fd5b505af1158015620022cf573d6000803e3d6000fd5b505050506040513d6020811015620022e657600080fd5b810190808051906020019092919050505090508073ffffffffffffffffffffffffffffffffffffffff16636d6712d830600160009054906101000a900473ffffffffffffffffffffffffffffffffffffffff16600160009054906101000a900473ffffffffffffffffffffffffffffffffffffffff1673ffffffffffffffffffffffffffffffffffffffff1663fef47e386040518163ffffffff167c0100000000000000000000000000000000000000000000000000000000028152600401602060405180830381600087803b158015620023c057600080fd5b505af1158015620023d5573d6000803e3d6000fd5b505050506040513d6020811015620023ec57600080fd5b81019080805190602001909291905050506040518463ffffffff167c0100000000000000000000000000000000000000000000000000000000028152600401808473ffffffffffffffffffffffffffffffffffffffff1673ffffffffffffffffffffffffffffffffffffffff1681526020018373ffffffffffffffffffffffffffffffffffffffff1673ffffffffffffffffffffffffffffffffffffffff16815260200182600019166000191681526020019350505050602060405180830381600087803b158015620024be57600080fd5b505af1158015620024d3573d6000803e3d6000fd5b505050506040513d6020811015620024ea57600080fd5b81019080805190602001909291905050506040805190810160405280601781526020017f41504d5245475f494e49545f5045524d495353494f4e53000000000000000000815250901515620025dd576040517f08c379a00000000000000000000000000000000000000000000000000000000081526004018080602001828103825283818151815260200191508051906020019080838360005b83811015620025a157808201518184015260208101905062002584565b50505050905090810190601f168015620025cf5780820380516001836020036101000a031916815260200191505b509250505060405180910390fd5b508073ffffffffffffffffffffffffffffffffffffffff16636d6712d830838473ffffffffffffffffffffffffffffffffffffffff16633d6ab68f6040518163ffffffff167c0100000000000000000000000000000000000000000000000000000000028152600401602060405180830381600087803b1580156200266157600080fd5b505af115801562002676573d6000803e3d6000fd5b505050506040513d60208110156200268d57600080fd5b81019080805190602001909291905050506040518463ffffffff167c0100000000000000000000000000000000000000000000000000000000028152600401808473ffffffffffffffffffffffffffffffffffffffff1673ffffffffffffffffffffffffffffffffffffffff1681526020018373ffffffffffffffffffffffffffffffffffffffff1673ffffffffffffffffffffffffffffffffffffffff16815260200182600019166000191681526020019350505050602060405180830381600087803b1580156200275f57600080fd5b505af115801562002774573d6000803e3d6000fd5b505050506040513d60208110156200278b57600080fd5b81019080805190602001909291905050506040805190810160405280601781526020017f41504d5245475f494e49545f5045524d495353494f4e530000000000000000008152509015156200287e576040517f08c379a00000000000000000000000000000000000000000000000000000000081526004018080602001828103825283818151815260200191508051906020019080838360005b838110156200284257808201518184015260208101905062002825565b50505050905090810190601f168015620028705780820380516001836020036101000a031916815260200191505b509250505060405180910390fd5b505050565b6000808484846200289362003ad3565b808473ffffffffffffffffffffffffffffffffffffffff1673ffffffffffffffffffffffffffffffffffffffff168152602001836000191660001916815260200180602001828103825283818151815260200191508051906020019080838360005b8381101562002912578082015181840152602081019050620028f5565b50505050905090810190601f168015620029405780820380516001836020036101000a031916815260200191505b50945050505050604051809103906000f08015801562002964573d6000803e3d6000fd5b5090507fd880e726dced8808d727f02dd0e6fdd3a945b24bfee77e13367bcbe61ddbaf4781600086604051808473ffffffffffffffffffffffffffffffffffffffff1673ffffffffffffffffffffffffffffffffffffffff168152602001831515151581526020018260001916600019168152602001935050505060405180910390a1809150509392505050565b600062002a267f4172f0f7d2289153072b0a6ca36959e0cbe2efc3afe50fc81636caa96338137b6001026000191662003724565b905090565b60007fffffffffffffffffffffffffffffffffffffffffffffffffffffffffffffffff62002a586200163e565b14905090565b600062002aa2838360006040519080825280601f01601f19166020018201604052801562002a9b5781602001602082028038833980820191505090505b5062002aaa565b905092915050565b60008084848462002aba62003ae4565b808473ffffffffffffffffffffffffffffffffffffffff1673ffffffffffffffffffffffffffffffffffffffff168152602001836000191660001916815260200180602001828103825283818151815260200191508051906020019080838360005b8381101562002b3957808201518184015260208101905062002b1c565b50505050905090810190601f16801562002b675780820380516001836020036101000a031916815260200191505b50945050505050604051809103906000f08015801562002b8b573d6000803e3d6000fd5b5090507fd880e726dced8808d727f02dd0e6fdd3a945b24bfee77e13367bcbe61ddbaf4781600186604051808473ffffffffffffffffffffffffffffffffffffffff1673ffffffffffffffffffffffffffffffffffffffff168152602001831515151581526020018260001916600019168152602001935050505060405180910390a1809150509392505050565b600062002c5d838360006040519080825280601f01601f19166020018201604052801562002c565781602001602082028038833980820191505090505b5062002883565b905092915050565b600043905090565b6000806000808551116040805190810160405280601181526020017f41504d5245475f454d5054595f4e414d4500000000000000000000000000000081525090151562002d58576040517f08c379a00000000000000000000000000000000000000000000000000000000081526004018080602001828103825283818151815260200191508051906020019080838360005b8381101562002d1c57808201518184015260208101905062002cff565b50505050905090810190601f16801562002d4a5780820380516001836020036101000a031916815260200191505b509250505060405180910390fd5b5062002d636200372f565b915062002d6f620029f2565b73ffffffffffffffffffffffffffffffffffffffff1663de2873596040518163ffffffff167c0100000000000000000000000000000000000000000000000000000000028152600401602060405180830381600087803b15801562002dd357600080fd5b505af115801562002de8573d6000803e3d6000fd5b505050506040513d602081101562002dff57600080fd5b810190808051906020019092919050505073ffffffffffffffffffffffffffffffffffffffff1663be03847885848573ffffffffffffffffffffffffffffffffffffffff1663aa61924a6040518163ffffffff167c0100000000000000000000000000000000000000000000000000000000028152600401602060405180830381600087803b15801562002e9257600080fd5b505af115801562002ea7573d6000803e3d6000fd5b505050506040513d602081101562002ebe57600080fd5b8101908080519060200190929190505050886040518563ffffffff167c0100000000000000000000000000000000000000000000000000000000028152600401808573ffffffffffffffffffffffffffffffffffffffff1673ffffffffffffffffffffffffffffffffffffffff1681526020018473ffffffffffffffffffffffffffffffffffffffff1673ffffffffffffffffffffffffffffffffffffffff16815260200183600019166000191681526020018273ffffffffffffffffffffffffffffffffffffffff1673ffffffffffffffffffffffffffffffffffffffff168152602001945050505050600060405180830381600087803b15801562002fc457600080fd5b505af115801562002fd9573d6000803e3d6000fd5b50505050600160009054906101000a900473ffffffffffffffffffffffffffffffffffffffff1673ffffffffffffffffffffffffffffffffffffffff166365b0bc85866040516020018082805190602001908083835b6020831015156200305657805182526020820191506020810190506020830392506200302f565b6001836020036101000a0380198251168184511680821785525050505050509050019150506040516020818303038152906040526040518082805190602001908083835b602083101515620030c157805182526020820191506020810190506020830392506200309a565b6001836020036101000a0380198251168184511680821785525050505050509050019150506040518091039020846040518363ffffffff167c01000000000000000000000000000000000000000000000000000000000281526004018083600019166000191681526020018273ffffffffffffffffffffffffffffffffffffffff1673ffffffffffffffffffffffffffffffffffffffff16815260200192505050602060405180830381600087803b1580156200317d57600080fd5b505af115801562003192573d6000803e3d6000fd5b505050506040513d6020811015620031a957600080fd5b810190808051906020019092919050505090507f526d4ccf8c3d7b6f0b6d4cc0de526d515c87d1ea3bd264ace0b5c2e70d1b2208818684604051808460001916600019168152602001806020018373ffffffffffffffffffffffffffffffffffffffff1673ffffffffffffffffffffffffffffffffffffffff168152602001828103825284818151815260200191508051906020019080838360005b838110156200326257808201518184015260208101905062003245565b50505050905090810190601f168015620032905780820380516001836020036101000a031916815260200191505b5094505050505060405180910390a1819250505092915050565b600081549050919050565b600081549050919050565b600080600073ffffffffffffffffffffffffffffffffffffffff168373ffffffffffffffffffffffffffffffffffffffff1614156200330357600091506200330e565b823b90506000811191505b50919050565b600060606000808573ffffffffffffffffffffffffffffffffffffffff166370a0823190507c01000000000000000000000000000000000000000000000000000000000285604051602401808273ffffffffffffffffffffffffffffffffffffffff1673ffffffffffffffffffffffffffffffffffffffff168152602001915050604051602081830303815290604052907bffffffffffffffffffffffffffffffffffffffffffffffffffffffff19166020820180517bffffffffffffffffffffffffffffffffffffffffffffffffffffffff83818316178352505050509250620034008684620037d2565b91509150816040805190810160405280601c81526020017f534146455f4552435f32305f42414c414e43455f524556455254454400000000815250901515620034e7576040517f08c379a00000000000000000000000000000000000000000000000000000000081526004018080602001828103825283818151815260200191508051906020019080838360005b83811015620034ab5780820151818401526020810190506200348e565b50505050905090810190601f168015620034d95780820380516001836020036101000a031916815260200191505b509250505060405180910390fd5b5080935050505092915050565b6000606063a9059cbb7c0100000000000000000000000000000000000000000000000000000000028484604051602401808373ffffffffffffffffffffffffffffffffffffffff1673ffffffffffffffffffffffffffffffffffffffff16815260200182815260200192505050604051602081830303815290604052907bffffffffffffffffffffffffffffffffffffffffffffffffffffffff19166020820180517bffffffffffffffffffffffffffffffffffffffffffffffffffffffff83818316178352505050509050620035cc858262003808565b9150509392505050565b606060006020835102905082915080825250919050565b6000620035f96200163e565b146040805190810160405280601881526020017f494e49545f414c52454144595f494e495449414c495a45440000000000000000815250901515620036dc576040517f08c379a00000000000000000000000000000000000000000000000000000000081526004018080602001828103825283818151815260200191508051906020019080838360005b83811015620036a057808201518184015260208101905062003683565b50505050905090810190601f168015620036ce5780820380516001836020036101000a031916815260200191505b509250505060405180910390fd5b5062003722620036eb62002c65565b7febb05b386a8d34882b8711d156f463690983dc47815980fb82aeeff1aa43579e600102600019166200385f90919063ffffffff16565b565b600081549050919050565b60006200374f6200373f620029f2565b6200374962003866565b62002a5e565b90508073ffffffffffffffffffffffffffffffffffffffff16638129fc1c6040518163ffffffff167c0100000000000000000000000000000000000000000000000000000000028152600401600060405180830381600087803b158015620037b657600080fd5b505af1158015620037cb573d6000803e3d6000fd5b5050505090565b6000806000806040516020818751602089018a5afa92506000831115620037f857805191505b5081819350935050509250929050565b6000806040516020818551602087016000895af1600081111562003853573d600081146200383f5760208114620038495762003851565b6001935062003851565b600183511493505b505b50508091505092915050565b8082555050565b6000600160009054906101000a900473ffffffffffffffffffffffffffffffffffffffff1673ffffffffffffffffffffffffffffffffffffffff1663faff50a86040518163ffffffff167c0100000000000000000000000000000000000000000000000000000000028152600401602060405180830381600087803b158015620038ef57600080fd5b505af115801562003904573d6000803e3d6000fd5b505050506040513d60208110156200391b57600080fd5b81019080805190602001909291905050506040805190810160405280600881526020017f61706d2d7265706f0000000000000000000000000000000000000000000000008152506040516020018082805190602001908083835b6020831015156200399c578051825260208201915060208101905060208303925062003975565b6001836020036101000a0380198251168184511680821785525050505050509050019150506040516020818303038152906040526040518082805190602001908083835b60208310151562003a075780518252602082019150602081019050602083039250620039e0565b6001836020036101000a03801982511681845116808217855250505050505090500191505060405180910390206040516020018083600019166000191681526020018260001916600019168152602001925050506040516020818303038152906040526040518082805190602001908083835b60208310151562003aa1578051825260208201915060208101905060208303925062003a7a565b6001836020036101000a0380198251168184511680821785525050505050509050019150506040518091039020905090565b60405161093c8062003af683390190565b6040516109068062004432833901905600608060405234801561001057600080fd5b5060405161093c38038061093c8339810180604052810190808051906020019092919080519060200190929190805182019291905050508282826000610064846101c8640100000000026401000000009004565b61007c83610212640100000000026401000000009004565b6100948361025c640100000000026401000000009004565b9050600082511115610154576100b881610360640100000000026401000000009004565b15156100c357600080fd5b8073ffffffffffffffffffffffffffffffffffffffff168260405180828051906020019080838360005b838110156101085780820151818401526020810190506100ed565b50505050905090810190601f1680156101355780820380516001836020036101000a031916815260200191505b50915050600060405180830381855af4915050151561015357600080fd5b5b505050506101876101738361025c640100000000026401000000009004565b6103b2640100000000026401000000009004565b6101b56101a16103fc640100000000026401000000009004565b610360640100000000026401000000009004565b15156101c057600080fd5b5050506104a9565b61020f817f4172f0f7d2289153072b0a6ca36959e0cbe2efc3afe50fc81636caa96338137b600102600019166104466401000000000261044a179091906401000000009004565b50565b610259817fd625496217aa6a3453eecb9c3489dc5a53e6c67b444329ea2b2cbc9ff547639b6001026000191661044d64010000000002610451179091906401000000009004565b50565b6000610275610454640100000000026401000000009004565b73ffffffffffffffffffffffffffffffffffffffff1663be00bbd87ff1f3eb40f5bc1ad1344716ced8b8a0431d840b5783aea1fd01786bc26f35ac0f600102846040518363ffffffff167c0100000000000000000000000000000000000000000000000000000000028152600401808360001916600019168152602001826000191660001916815260200192505050602060405180830381600087803b15801561031e57600080fd5b505af1158015610332573d6000803e3d6000fd5b505050506040513d602081101561034857600080fd5b81019080805190602001909291905050509050919050565b600080600073ffffffffffffffffffffffffffffffffffffffff168373ffffffffffffffffffffffffffffffffffffffff1614156103a157600091506103ac565b823b90506000811191505b50919050565b6103f9817fdee64df20d65e53d7f51cb6ab6d921a0a6a638a91e942e1d8d02df28e31c038e600102600019166104466401000000000261044a179091906401000000009004565b50565b60006104417fdee64df20d65e53d7f51cb6ab6d921a0a6a638a91e942e1d8d02df28e31c038e6001026000191661049e6401000000000261043f176401000000009004565b905090565b8082555050565b8082555050565b60006104997f4172f0f7d2289153072b0a6ca36959e0cbe2efc3afe50fc81636caa96338137b6001026000191661049e6401000000000261043f176401000000009004565b905090565b600081549050919050565b610484806104b86000396000f30060806040526004361061006d576000357c0100000000000000000000000000000000000000000000000000000000900463ffffffff1680634555d5c91461016557806348a0c8dd146101905780635c60da1b146101bf57806380afdea814610216578063d4aae0c414610249575b60006127105a101561011a5760003411801561008c5750600080369050145b151561009757600080fd5b61009f6102a0565b15156100aa57600080fd5b7f15eeaa57c7bd188c1388020bcadc2c436ec60d647d36ef5b9eb3c742217ddee13334604051808373ffffffffffffffffffffffffffffffffffffffff1673ffffffffffffffffffffffffffffffffffffffff1681526020018281526020019250505060405180910390a1610162565b6101226102d7565b9050610161816000368080601f0160208091040260200160405190810160405280939291908181526020018383808284378201915050505050506102e6565b5b50005b34801561017157600080fd5b5061017a610329565b6040518082815260200191505060405180910390f35b34801561019c57600080fd5b506101a56102a0565b604051808215151515815260200191505060405180910390f35b3480156101cb57600080fd5b506101d46102d7565b604051808273ffffffffffffffffffffffffffffffffffffffff1673ffffffffffffffffffffffffffffffffffffffff16815260200191505060405180910390f35b34801561022257600080fd5b5061022b610332565b60405180826000191660001916815260200191505060405180910390f35b34801561025557600080fd5b5061025e610369565b604051808273ffffffffffffffffffffffffffffffffffffffff1673ffffffffffffffffffffffffffffffffffffffff16815260200191505060405180910390f35b60006102d27f665fd576fbbe6f247aff98f5c94a561e3f71ec2d3c988d56f12d342396c50cea600102600019166103a0565b905090565b60006102e16103ab565b905090565b60006102f1836103e2565b15156102fc57600080fd5b612710905060008083516020850186855a03f43d604051816000823e8260008114610325578282f35b8282fd5b60006001905090565b60006103647fd625496217aa6a3453eecb9c3489dc5a53e6c67b444329ea2b2cbc9ff547639b60010260001916610434565b905090565b600061039b7f4172f0f7d2289153072b0a6ca36959e0cbe2efc3afe50fc81636caa96338137b6001026000191661043f565b905090565b600081549050919050565b60006103dd7fdee64df20d65e53d7f51cb6ab6d921a0a6a638a91e942e1d8d02df28e31c038e6001026000191661043f565b905090565b600080600073ffffffffffffffffffffffffffffffffffffffff168373ffffffffffffffffffffffffffffffffffffffff161415610423576000915061042e565b823b90506000811191505b50919050565b600081549050919050565b600081549050919050565b8082555050565b80825550505600a165627a7a72305820f1b3b7acd16a234ffa2fed899b6d3718086e0e20012dc34d8ea387361115f7310029608060405234801561001057600080fd5b50604051610906380380610906833981018060405281019080805190602001909291908051906020019092919080518201929190505050828282600061006484610160640100000000026401000000009004565b61007c836101aa640100000000026401000000009004565b610094836101f4640100000000026401000000009004565b9050600082511115610154576100b8816102f8640100000000026401000000009004565b15156100c357600080fd5b8073ffffffffffffffffffffffffffffffffffffffff168260405180828051906020019080838360005b838110156101085780820151818401526020810190506100ed565b50505050905090810190601f1680156101355780820380516001836020036101000a031916815260200191505b50915050600060405180830381855af4915050151561015357600080fd5b5b505050505050506103ad565b6101a7817f4172f0f7d2289153072b0a6ca36959e0cbe2efc3afe50fc81636caa96338137b6001026000191661034a64010000000002610510179091906401000000009004565b50565b6101f1817fd625496217aa6a3453eecb9c3489dc5a53e6c67b444329ea2b2cbc9ff547639b6001026000191661035164010000000002610517179091906401000000009004565b50565b600061020d610358640100000000026401000000009004565b73ffffffffffffffffffffffffffffffffffffffff1663be00bbd87ff1f3eb40f5bc1ad1344716ced8b8a0431d840b5783aea1fd01786bc26f35ac0f600102846040518363ffffffff167c0100000000000000000000000000000000000000000000000000000000028152600401808360001916600019168152602001826000191660001916815260200192505050602060405180830381600087803b1580156102b657600080fd5b505af11580156102ca573d6000803e3d6000fd5b505050506040513d60208110156102e057600080fd5b81019080805190602001909291905050509050919050565b600080600073ffffffffffffffffffffffffffffffffffffffff168373ffffffffffffffffffffffffffffffffffffffff1614156103395760009150610344565b823b90506000811191505b50919050565b8082555050565b8082555050565b600061039d7f4172f0f7d2289153072b0a6ca36959e0cbe2efc3afe50fc81636caa96338137b600102600019166103a264010000000002610505176401000000009004565b905090565b600081549050919050565b61054a806103bc6000396000f30060806040526004361061006d576000357c0100000000000000000000000000000000000000000000000000000000900463ffffffff1680634555d5c91461016557806348a0c8dd146101905780635c60da1b146101bf57806380afdea814610216578063d4aae0c414610249575b60006127105a101561011a5760003411801561008c5750600080369050145b151561009757600080fd5b61009f6102a0565b15156100aa57600080fd5b7f15eeaa57c7bd188c1388020bcadc2c436ec60d647d36ef5b9eb3c742217ddee13334604051808373ffffffffffffffffffffffffffffffffffffffff1673ffffffffffffffffffffffffffffffffffffffff1681526020018281526020019250505060405180910390a1610162565b6101226102d7565b9050610161816000368080601f0160208091040260200160405190810160405280939291908181526020018383808284378201915050505050506102ee565b5b50005b34801561017157600080fd5b5061017a610331565b6040518082815260200191505060405180910390f35b34801561019c57600080fd5b506101a56102a0565b604051808215151515815260200191505060405180910390f35b3480156101cb57600080fd5b506101d46102d7565b604051808273ffffffffffffffffffffffffffffffffffffffff1673ffffffffffffffffffffffffffffffffffffffff16815260200191505060405180910390f35b34801561022257600080fd5b5061022b61033a565b60405180826000191660001916815260200191505060405180910390f35b34801561025557600080fd5b5061025e610371565b604051808273ffffffffffffffffffffffffffffffffffffffff1673ffffffffffffffffffffffffffffffffffffffff16815260200191505060405180910390f35b60006102d27f665fd576fbbe6f247aff98f5c94a561e3f71ec2d3c988d56f12d342396c50cea600102600019166103a8565b905090565b60006102e96102e461033a565b6103b3565b905090565b60006102f9836104a8565b151561030457600080fd5b612710905060008083516020850186855a03f43d604051816000823e826000811461032d578282f35b8282fd5b60006002905090565b600061036c7fd625496217aa6a3453eecb9c3489dc5a53e6c67b444329ea2b2cbc9ff547639b600102600019166104fa565b905090565b60006103a37f4172f0f7d2289153072b0a6ca36959e0cbe2efc3afe50fc81636caa96338137b60010260001916610505565b905090565b600081549050919050565b60006103bd610371565b73ffffffffffffffffffffffffffffffffffffffff1663be00bbd87ff1f3eb40f5bc1ad1344716ced8b8a0431d840b5783aea1fd01786bc26f35ac0f600102846040518363ffffffff167c0100000000000000000000000000000000000000000000000000000000028152600401808360001916600019168152602001826000191660001916815260200192505050602060405180830381600087803b15801561046657600080fd5b505af115801561047a573d6000803e3d6000fd5b505050506040513d602081101561049057600080fd5b81019080805190602001909291905050509050919050565b600080600073ffffffffffffffffffffffffffffffffffffffff168373ffffffffffffffffffffffffffffffffffffffff1614156104e957600091506104f4565b823b90506000811191505b50919050565b600081549050919050565b600081549050919050565b8082555050565b80825550505600a165627a7a72305820434464dba6eb004f73c804d3120d1068d626e951192e7d0526b9937bb5737f190029a165627a7a72305820152a50ae09ef91d45a9887b060b2244a8f47afce115c502ea1e94cc300d0a9630029",
  "source": "pragma solidity 0.4.24;\n\nimport \"../lib/ens/AbstractENS.sol\";\nimport \"../ens/ENSSubdomainRegistrar.sol\";\nimport \"../factory/AppProxyFactory.sol\";\nimport \"../apps/AragonApp.sol\";\nimport \"../acl/ACL.sol\";\nimport \"./Repo.sol\";\n\n\ncontract APMInternalAppNames {\n    string internal constant APM_APP_NAME = \"apm-registry\";\n    string internal constant REPO_APP_NAME = \"apm-repo\";\n    string internal constant ENS_SUB_APP_NAME = \"apm-enssub\";\n}\n\n\ncontract APMRegistry is AragonApp, AppProxyFactory, APMInternalAppNames {\n    /* Hardcoded constants to save gas\n    bytes32 public constant CREATE_REPO_ROLE = keccak256(\"CREATE_REPO_ROLE\");\n    */\n    bytes32 public constant CREATE_REPO_ROLE = 0x2a9494d64846c9fdbf0158785aa330d8bc9caf45af27fa0e8898eb4d55adcea6;\n\n    string private constant ERROR_INIT_PERMISSIONS = \"APMREG_INIT_PERMISSIONS\";\n    string private constant ERROR_EMPTY_NAME = \"APMREG_EMPTY_NAME\";\n\n    AbstractENS public ens;\n    ENSSubdomainRegistrar public registrar;\n\n    event NewRepo(bytes32 id, string name, address repo);\n\n    /**\n    * NEEDS CREATE_NAME_ROLE and POINT_ROOTNODE_ROLE permissions on registrar\n    * @dev Initialize can only be called once. It saves the block number in which it was initialized\n    * @notice Initialize this APMRegistry instance and set `_registrar` as the ENS subdomain registrar\n    * @param _registrar ENSSubdomainRegistrar instance that holds registry root node ownership\n    */\n    function initialize(ENSSubdomainRegistrar _registrar) public onlyInit {\n        initialized();\n\n        registrar = _registrar;\n        ens = registrar.ens();\n\n        registrar.pointRootNode(this);\n\n        // Check APM has all permissions it needss\n        ACL acl = ACL(kernel().acl());\n        require(acl.hasPermission(this, registrar, registrar.CREATE_NAME_ROLE()), ERROR_INIT_PERMISSIONS);\n        require(acl.hasPermission(this, acl, acl.CREATE_PERMISSIONS_ROLE()), ERROR_INIT_PERMISSIONS);\n    }\n\n    /**\n    * @notice Create new repo in registry with `_name`\n    * @param _name Repo name, must be ununsed\n    * @param _dev Address that will be given permission to create versions\n    */\n    function newRepo(string _name, address _dev) public auth(CREATE_REPO_ROLE) returns (Repo) {\n        return _newRepo(_name, _dev);\n    }\n\n    /**\n    * @notice Create new repo in registry with `_name` and publish a first version with contract `_contractAddress` and content `@fromHex(_contentURI)`\n    * @param _name Repo name\n    * @param _dev Address that will be given permission to create versions\n    * @param _initialSemanticVersion Semantic version for new repo version\n    * @param _contractAddress address for smart contract logic for version (if set to 0, it uses last versions' contractAddress)\n    * @param _contentURI External URI for fetching new version's content\n    */\n    function newRepoWithVersion(\n        string _name,\n        address _dev,\n        uint16[3] _initialSemanticVersion,\n        address _contractAddress,\n        bytes _contentURI\n    ) public auth(CREATE_REPO_ROLE) returns (Repo)\n    {\n        Repo repo = _newRepo(_name, this); // need to have permissions to create version\n        repo.newVersion(_initialSemanticVersion, _contractAddress, _contentURI);\n\n        // Give permissions to _dev\n        ACL acl = ACL(kernel().acl());\n        acl.revokePermission(this, repo, repo.CREATE_VERSION_ROLE());\n        acl.grantPermission(_dev, repo, repo.CREATE_VERSION_ROLE());\n        acl.setPermissionManager(_dev, repo, repo.CREATE_VERSION_ROLE());\n        return repo;\n    }\n\n    function _newRepo(string _name, address _dev) internal returns (Repo) {\n        require(bytes(_name).length > 0, ERROR_EMPTY_NAME);\n\n        Repo repo = newClonedRepo();\n\n        ACL(kernel().acl()).createPermission(_dev, repo, repo.CREATE_VERSION_ROLE(), _dev);\n\n        // Creates [name] subdomain in the rootNode and sets registry as resolver\n        // This will fail if repo name already exists\n        bytes32 node = registrar.createNameAndPoint(keccak256(abi.encodePacked(_name)), repo);\n\n        emit NewRepo(node, _name, repo);\n\n        return repo;\n    }\n\n    function newClonedRepo() internal returns (Repo repo) {\n        repo = Repo(newAppProxy(kernel(), repoAppId()));\n        repo.initialize();\n    }\n\n    function repoAppId() internal view returns (bytes32) {\n        return keccak256(abi.encodePacked(registrar.rootNode(), keccak256(abi.encodePacked(REPO_APP_NAME))));\n    }\n}\n",
  "sourcePath": "@aragon/os/contracts/apm/APMRegistry.sol",
  "compiler": {
    "name": "solc",
    "version": "0.4.24+commit.e67f0147.Emscripten.clang"
  },
  "schemaVersion": "3.0.10",
  "updatedAt": "2019-07-01T12:48:23.471Z",
  "devdoc": {
    "methods": {
      "allowRecoverability(address)": {
        "details": "By default deriving from AragonApp makes it recoverable",
        "params": {
          "token": "Token address that would be recovered"
        },
        "return": "bool whether the app allows the recovery"
      },
      "canPerform(address,bytes32,uint256[])": {
        "details": "Check whether an action can be performed by a sender for a particular role on this app",
        "params": {
          "_params": "Permission params for the role",
          "_role": "Role on this app",
          "_sender": "Sender of the call"
        },
        "return": "Boolean indicating whether the sender has the permissions to perform the action.        Always returns false if the app hasn't been initialized yet."
      },
      "getInitializationBlock()": {
        "return": "Block number in which the contract was initialized"
      },
      "getRecoveryVault()": {
        "details": "Get the recovery vault for the app",
        "return": "Recovery vault address for the app"
      },
      "hasInitialized()": {
        "return": "Whether the contract has been initialized by the time of the current block"
      },
      "initialize(address)": {
        "details": "Initialize can only be called once. It saves the block number in which it was initialized",
        "params": {
          "_registrar": "ENSSubdomainRegistrar instance that holds registry root node ownership"
        }
      },
      "newAppProxy(address,bytes32)": {
        "params": {
          "_appId": "Identifier for app",
          "_kernel": "App's Kernel reference"
        },
        "return": "AppProxyUpgradeable"
      },
      "newAppProxy(address,bytes32,bytes)": {
        "params": {
          "_appId": "Identifier for app",
          "_kernel": "App's Kernel reference"
        },
        "return": "AppProxyUpgradeable"
      },
      "newAppProxyPinned(address,bytes32)": {
        "params": {
          "_appId": "Identifier for app",
          "_kernel": "App's Kernel reference"
        },
        "return": "AppProxyPinned"
      },
      "newAppProxyPinned(address,bytes32,bytes)": {
        "params": {
          "_appId": "Identifier for app",
          "_initializePayload": "Proxy initialization payload",
          "_kernel": "App's Kernel reference"
        },
        "return": "AppProxyPinned"
      },
      "newRepo(string,address)": {
        "params": {
          "_dev": "Address that will be given permission to create versions",
          "_name": "Repo name, must be ununsed"
        }
      },
      "newRepoWithVersion(string,address,uint16[3],address,bytes)": {
        "params": {
          "_contentURI": "External URI for fetching new version's content",
          "_contractAddress": "address for smart contract logic for version (if set to 0, it uses last versions' contractAddress)",
          "_dev": "Address that will be given permission to create versions",
          "_initialSemanticVersion": "Semantic version for new repo version",
          "_name": "Repo name"
        }
      },
      "transferToVault(address)": {
        "params": {
          "_token": "Token balance to be sent to recovery vault."
        }
      }
    }
  },
  "userdoc": {
    "methods": {
      "initialize(address)": {
        "notice": "NEEDS CREATE_NAME_ROLE and POINT_ROOTNODE_ROLE permissions on registrarInitialize this APMRegistry instance and set `_registrar` as the ENS subdomain registrar"
      },
      "newAppProxy(address,bytes32)": {
        "notice": "Create a new upgradeable app instance on `_kernel` with identifier `_appId`"
      },
      "newAppProxy(address,bytes32,bytes)": {
        "notice": "Create a new upgradeable app instance on `_kernel` with identifier `_appId` and initialization payload `_initializePayload`"
      },
      "newAppProxyPinned(address,bytes32)": {
        "notice": "Create a new pinned app instance on `_kernel` with identifier `_appId`"
      },
      "newAppProxyPinned(address,bytes32,bytes)": {
        "notice": "Create a new pinned app instance on `_kernel` with identifier `_appId` and initialization payload `_initializePayload`"
      },
      "newRepo(string,address)": {
        "notice": "Create new repo in registry with `_name`"
      },
      "newRepoWithVersion(string,address,uint16[3],address,bytes)": {
        "notice": "Create new repo in registry with `_name` and publish a first version with contract `_contractAddress` and content `@fromHex(_contentURI)`"
      },
      "transferToVault(address)": {
        "notice": "Send funds to recovery Vault. This contract should never receive funds,        but in case it does, this function allows one to recover them."
      }
    }
  }
}