{
  "contractName": "APMRegistryFactory",
  "abi": [
    {
      "constant": true,
      "inputs": [],
      "name": "registryBase",
      "outputs": [
        {
          "name": "",
          "type": "address"
        }
      ],
      "payable": false,
      "stateMutability": "view",
      "type": "function"
    },
    {
      "constant": true,
      "inputs": [],
      "name": "ensSubdomainRegistrarBase",
      "outputs": [
        {
          "name": "",
          "type": "address"
        }
      ],
      "payable": false,
      "stateMutability": "view",
      "type": "function"
    },
    {
      "constant": true,
      "inputs": [],
      "name": "ens",
      "outputs": [
        {
          "name": "",
          "type": "address"
        }
      ],
      "payable": false,
      "stateMutability": "view",
      "type": "function"
    },
    {
      "constant": true,
      "inputs": [],
      "name": "daoFactory",
      "outputs": [
        {
          "name": "",
          "type": "address"
        }
      ],
      "payable": false,
      "stateMutability": "view",
      "type": "function"
    },
    {
      "constant": true,
      "inputs": [],
      "name": "repoBase",
      "outputs": [
        {
          "name": "",
          "type": "address"
        }
      ],
      "payable": false,
      "stateMutability": "view",
      "type": "function"
    },
    {
      "inputs": [
        {
          "name": "_daoFactory",
          "type": "address"
        },
        {
          "name": "_registryBase",
          "type": "address"
        },
        {
          "name": "_repoBase",
          "type": "address"
        },
        {
          "name": "_ensSubBase",
          "type": "address"
        },
        {
          "name": "_ens",
          "type": "address"
        },
        {
          "name": "_ensFactory",
          "type": "address"
        }
      ],
      "payable": false,
      "stateMutability": "nonpayable",
      "type": "constructor"
    },
    {
      "anonymous": false,
      "inputs": [
        {
          "indexed": true,
          "name": "node",
          "type": "bytes32"
        },
        {
          "indexed": false,
          "name": "apm",
          "type": "address"
        }
      ],
      "name": "DeployAPM",
      "type": "event"
    },
    {
      "constant": false,
      "inputs": [
        {
          "name": "_tld",
          "type": "bytes32"
        },
        {
          "name": "_label",
          "type": "bytes32"
        },
        {
          "name": "_root",
          "type": "address"
        }
      ],
      "name": "newAPM",
      "outputs": [
        {
          "name": "",
          "type": "address"
        }
      ],
      "payable": false,
      "stateMutability": "nonpayable",
      "type": "function"
    }
  ],
  "bytecode": "0x60806040523480156200001157600080fd5b5060405160c08062003143833981018060405281019080805190602001909291908051906020019092919080519060200190929190805190602001909291908051906020019092919080519060200190929190505050856000806101000a81548173ffffffffffffffffffffffffffffffffffffffff021916908373ffffffffffffffffffffffffffffffffffffffff16021790555084600160006101000a81548173ffffffffffffffffffffffffffffffffffffffff021916908373ffffffffffffffffffffffffffffffffffffffff16021790555083600260006101000a81548173ffffffffffffffffffffffffffffffffffffffff021916908373ffffffffffffffffffffffffffffffffffffffff16021790555082600360006101000a81548173ffffffffffffffffffffffffffffffffffffffff021916908373ffffffffffffffffffffffffffffffffffffffff160217905550600073ffffffffffffffffffffffffffffffffffffffff168273ffffffffffffffffffffffffffffffffffffffff1614156200027f578073ffffffffffffffffffffffffffffffffffffffff1663e9358b01306040518263ffffffff167c0100000000000000000000000000000000000000000000000000000000028152600401808273ffffffffffffffffffffffffffffffffffffffff1673ffffffffffffffffffffffffffffffffffffffff168152602001915050602060405180830381600087803b1580156200023c57600080fd5b505af115801562000251573d6000803e3d6000fd5b505050506040513d60208110156200026857600080fd5b810190808051906020019092919050505062000281565b815b600460006101000a81548173ffffffffffffffffffffffffffffffffffffffff021916908373ffffffffffffffffffffffffffffffffffffffff160217905550505050505050612e6c80620002d76000396000f300608060405260043610610078576000357c0100000000000000000000000000000000000000000000000000000000900463ffffffff16806339ca6e861461007d5780633cfb35aa146100d45780633f15457f1461012b57806348f7f2a314610182578063aac57b3a146101d9578063caf1bb7c14610278575b600080fd5b34801561008957600080fd5b506100926102cf565b604051808273ffffffffffffffffffffffffffffffffffffffff1673ffffffffffffffffffffffffffffffffffffffff16815260200191505060405180910390f35b3480156100e057600080fd5b506100e96102f5565b604051808273ffffffffffffffffffffffffffffffffffffffff1673ffffffffffffffffffffffffffffffffffffffff16815260200191505060405180910390f35b34801561013757600080fd5b5061014061031b565b604051808273ffffffffffffffffffffffffffffffffffffffff1673ffffffffffffffffffffffffffffffffffffffff16815260200191505060405180910390f35b34801561018e57600080fd5b50610197610341565b604051808273ffffffffffffffffffffffffffffffffffffffff1673ffffffffffffffffffffffffffffffffffffffff16815260200191505060405180910390f35b3480156101e557600080fd5b5061023660048036038101908080356000191690602001909291908035600019169060200190929190803573ffffffffffffffffffffffffffffffffffffffff169060200190929190505050610366565b604051808273ffffffffffffffffffffffffffffffffffffffff1673ffffffffffffffffffffffffffffffffffffffff16815260200191505060405180910390f35b34801561028457600080fd5b5061028d612abe565b604051808273ffffffffffffffffffffffffffffffffffffffff1673ffffffffffffffffffffffffffffffffffffffff16815260200191505060405180910390f35b600160009054906101000a900473ffffffffffffffffffffffffffffffffffffffff1681565b600360009054906101000a900473ffffffffffffffffffffffffffffffffffffffff1681565b600460009054906101000a900473ffffffffffffffffffffffffffffffffffffffff1681565b6000809054906101000a900473ffffffffffffffffffffffffffffffffffffffff1681565b600080600080606060008060008061037c612e1d565b8c8c6040516020018083600019166000191681526020018260001916600019168152602001925050506040516020818303038152906040526040518082805190602001908083835b6020831015156103e957805182526020820191506020810190506020830392506103c4565b6001836020036101000a038019825116818451168082178552505050505050905001915050604051809103902098503073ffffffffffffffffffffffffffffffffffffffff16600460009054906101000a900473ffffffffffffffffffffffffffffffffffffffff1673ffffffffffffffffffffffffffffffffffffffff166302571be38b6040518263ffffffff167c0100000000000000000000000000000000000000000000000000000000028152600401808260001916600019168152602001915050602060405180830381600087803b1580156104c857600080fd5b505af11580156104dc573d6000803e3d6000fd5b505050506040513d60208110156104f257600080fd5b810190808051906020019092919050505073ffffffffffffffffffffffffffffffffffffffff16141515610723573073ffffffffffffffffffffffffffffffffffffffff16600460009054906101000a900473ffffffffffffffffffffffffffffffffffffffff1673ffffffffffffffffffffffffffffffffffffffff166302571be38f6040518263ffffffff167c0100000000000000000000000000000000000000000000000000000000028152600401808260001916600019168152602001915050602060405180830381600087803b1580156105d057600080fd5b505af11580156105e4573d6000803e3d6000fd5b505050506040513d60208110156105fa57600080fd5b810190808051906020019092919050505073ffffffffffffffffffffffffffffffffffffffff1614151561062d57600080fd5b600460009054906101000a900473ffffffffffffffffffffffffffffffffffffffff1673ffffffffffffffffffffffffffffffffffffffff166306ab59238e8e306040518463ffffffff167c010000000000000000000000000000000000000000000000000000000002815260040180846000191660001916815260200183600019166000191681526020018273ffffffffffffffffffffffffffffffffffffffff1673ffffffffffffffffffffffffffffffffffffffff1681526020019350505050600060405180830381600087803b15801561070a57600080fd5b505af115801561071e573d6000803e3d6000fd5b505050505b6000809054906101000a900473ffffffffffffffffffffffffffffffffffffffff1673ffffffffffffffffffffffffffffffffffffffff166321687444306040518263ffffffff167c0100000000000000000000000000000000000000000000000000000000028152600401808273ffffffffffffffffffffffffffffffffffffffff1673ffffffffffffffffffffffffffffffffffffffff168152602001915050602060405180830381600087803b1580156107df57600080fd5b505af11580156107f3573d6000803e3d6000fd5b505050506040513d602081101561080957600080fd5b810190808051906020019092919050505097508773ffffffffffffffffffffffffffffffffffffffff1663de2873596040518163ffffffff167c0100000000000000000000000000000000000000000000000000000000028152600401602060405180830381600087803b15801561088057600080fd5b505af1158015610894573d6000803e3d6000fd5b505050506040513d60208110156108aa57600080fd5b810190808051906020019092919050505096508673ffffffffffffffffffffffffffffffffffffffff1663be038478308a8b73ffffffffffffffffffffffffffffffffffffffff16638ea8dc9d6040518163ffffffff167c0100000000000000000000000000000000000000000000000000000000028152600401602060405180830381600087803b15801561093f57600080fd5b505af1158015610953573d6000803e3d6000fd5b505050506040513d602081101561096957600080fd5b8101908080519060200190929190505050306040518563ffffffff167c0100000000000000000000000000000000000000000000000000000000028152600401808573ffffffffffffffffffffffffffffffffffffffff1673ffffffffffffffffffffffffffffffffffffffff1681526020018473ffffffffffffffffffffffffffffffffffffffff1673ffffffffffffffffffffffffffffffffffffffff16815260200183600019166000191681526020018273ffffffffffffffffffffffffffffffffffffffff1673ffffffffffffffffffffffffffffffffffffffff168152602001945050505050600060405180830381600087803b158015610a6e57600080fd5b505af1158015610a82573d6000803e3d6000fd5b5050505060006040519080825280601f01601f191660200182016040528015610aba5781602001602082028038833980820191505090505b5095508773ffffffffffffffffffffffffffffffffffffffff1663397edd418a6040805190810160405280600a81526020017f61706d2d656e73737562000000000000000000000000000000000000000000008152506040516020018082805190602001908083835b602083101515610b485780518252602082019150602081019050602083039250610b23565b6001836020036101000a0380198251168184511680821785525050505050509050019150506040516020818303038152906040526040518082805190602001908083835b602083101515610bb15780518252602082019150602081019050602083039250610b8c565b6001836020036101000a03801982511681845116808217855250505050505090500191505060405180910390206040516020018083600019166000191681526020018260001916600019168152602001925050506040516020818303038152906040526040518082805190602001908083835b602083101515610c495780518252602082019150602081019050602083039250610c24565b6001836020036101000a0380198251168184511680821785525050505050509050019150506040518091039020600360009054906101000a900473ffffffffffffffffffffffffffffffffffffffff168960006040518563ffffffff167c01000000000000000000000000000000000000000000000000000000000281526004018085600019166000191681526020018473ffffffffffffffffffffffffffffffffffffffff1673ffffffffffffffffffffffffffffffffffffffff1681526020018060200183151515158152602001828103825284818151815260200191508051906020019080838360005b83811015610d51578082015181840152602081019050610d36565b50505050905090810190601f168015610d7e5780820380516001836020036101000a031916815260200191505b5095505050505050602060405180830381600087803b158015610da057600080fd5b505af1158015610db4573d6000803e3d6000fd5b505050506040513d6020811015610dca57600080fd5b810190808051906020019092919050505094508773ffffffffffffffffffffffffffffffffffffffff1663397edd418a6040805190810160405280600c81526020017f61706d2d726567697374727900000000000000000000000000000000000000008152506040516020018082805190602001908083835b602083101515610e685780518252602082019150602081019050602083039250610e43565b6001836020036101000a0380198251168184511680821785525050505050509050019150506040516020818303038152906040526040518082805190602001908083835b602083101515610ed15780518252602082019150602081019050602083039250610eac565b6001836020036101000a03801982511681845116808217855250505050505090500191505060405180910390206040516020018083600019166000191681526020018260001916600019168152602001925050506040516020818303038152906040526040518082805190602001908083835b602083101515610f695780518252602082019150602081019050602083039250610f44565b6001836020036101000a0380198251168184511680821785525050505050509050019150506040518091039020600160009054906101000a900473ffffffffffffffffffffffffffffffffffffffff168960006040518563ffffffff167c01000000000000000000000000000000000000000000000000000000000281526004018085600019166000191681526020018473ffffffffffffffffffffffffffffffffffffffff1673ffffffffffffffffffffffffffffffffffffffff1681526020018060200183151515158152602001828103825284818151815260200191508051906020019080838360005b83811015611071578082015181840152602081019050611056565b50505050905090810190601f16801561109e5780820380516001836020036101000a031916815260200191505b5095505050505050602060405180830381600087803b1580156110c057600080fd5b505af11580156110d4573d6000803e3d6000fd5b505050506040513d60208110156110ea57600080fd5b81019080805190602001909291905050509350886040805190810160405280600881526020017f61706d2d7265706f0000000000000000000000000000000000000000000000008152506040516020018082805190602001908083835b60208310151561116c5780518252602082019150602081019050602083039250611147565b6001836020036101000a0380198251168184511680821785525050505050509050019150506040516020818303038152906040526040518082805190602001908083835b6020831015156111d557805182526020820191506020810190506020830392506111b0565b6001836020036101000a03801982511681845116808217855250505050505090500191505060405180910390206040516020018083600019166000191681526020018260001916600019168152602001925050506040516020818303038152906040526040518082805190602001908083835b60208310151561126d5780518252602082019150602081019050602083039250611248565b6001836020036101000a038019825116818451168082178552505050505050905001915050604051809103902092508773ffffffffffffffffffffffffffffffffffffffff1663ae5b25408973ffffffffffffffffffffffffffffffffffffffff1663db8a61d46040518163ffffffff167c0100000000000000000000000000000000000000000000000000000000028152600401602060405180830381600087803b15801561131c57600080fd5b505af1158015611330573d6000803e3d6000fd5b505050506040513d602081101561134657600080fd5b810190808051906020019092919050505085600260009054906101000a900473ffffffffffffffffffffffffffffffffffffffff166040518463ffffffff167c010000000000000000000000000000000000000000000000000000000002815260040180846000191660001916815260200183600019166000191681526020018273ffffffffffffffffffffffffffffffffffffffff1673ffffffffffffffffffffffffffffffffffffffff1681526020019350505050600060405180830381600087803b15801561141757600080fd5b505af115801561142b573d6000803e3d6000fd5b5050505088600019167f5dd941cb8701bb50205e5aef88c8532b8d6e75b7b65e2c458e9acdf261f0f29285604051808273ffffffffffffffffffffffffffffffffffffffff1673ffffffffffffffffffffffffffffffffffffffff16815260200191505060405180910390a28673ffffffffffffffffffffffffffffffffffffffff1663be03847885878873ffffffffffffffffffffffffffffffffffffffff1663fef47e386040518163ffffffff167c0100000000000000000000000000000000000000000000000000000000028152600401602060405180830381600087803b15801561151957600080fd5b505af115801561152d573d6000803e3d6000fd5b505050506040513d602081101561154357600080fd5b81019080805190602001909291905050508f6040518563ffffffff167c0100000000000000000000000000000000000000000000000000000000028152600401808573ffffffffffffffffffffffffffffffffffffffff1673ffffffffffffffffffffffffffffffffffffffff1681526020018473ffffffffffffffffffffffffffffffffffffffff1673ffffffffffffffffffffffffffffffffffffffff16815260200183600019166000191681526020018273ffffffffffffffffffffffffffffffffffffffff1673ffffffffffffffffffffffffffffffffffffffff168152602001945050505050600060405180830381600087803b15801561164857600080fd5b505af115801561165c573d6000803e3d6000fd5b505050508673ffffffffffffffffffffffffffffffffffffffff1663be03847885878873ffffffffffffffffffffffffffffffffffffffff1663307482cf6040518163ffffffff167c0100000000000000000000000000000000000000000000000000000000028152600401602060405180830381600087803b1580156116e257600080fd5b505af11580156116f6573d6000803e3d6000fd5b505050506040513d602081101561170c57600080fd5b81019080805190602001909291905050508f6040518563ffffffff167c0100000000000000000000000000000000000000000000000000000000028152600401808573ffffffffffffffffffffffffffffffffffffffff1673ffffffffffffffffffffffffffffffffffffffff1681526020018473ffffffffffffffffffffffffffffffffffffffff1673ffffffffffffffffffffffffffffffffffffffff16815260200183600019166000191681526020018273ffffffffffffffffffffffffffffffffffffffff1673ffffffffffffffffffffffffffffffffffffffff168152602001945050505050600060405180830381600087803b15801561181157600080fd5b505af1158015611825573d6000803e3d6000fd5b505050508673ffffffffffffffffffffffffffffffffffffffff16633d6ab68f6040518163ffffffff167c0100000000000000000000000000000000000000000000000000000000028152600401602060405180830381600087803b15801561188d57600080fd5b505af11580156118a1573d6000803e3d6000fd5b505050506040513d60208110156118b757600080fd5b810190808051906020019092919050505091508673ffffffffffffffffffffffffffffffffffffffff16630a8ed3db8589856040518463ffffffff167c0100000000000000000000000000000000000000000000000000000000028152600401808473ffffffffffffffffffffffffffffffffffffffff1673ffffffffffffffffffffffffffffffffffffffff1681526020018373ffffffffffffffffffffffffffffffffffffffff1673ffffffffffffffffffffffffffffffffffffffff16815260200182600019166000191681526020019350505050600060405180830381600087803b1580156119a957600080fd5b505af11580156119bd573d6000803e3d6000fd5b50505050600460009054906101000a900473ffffffffffffffffffffffffffffffffffffffff1673ffffffffffffffffffffffffffffffffffffffff16635b0fc9c38a876040518363ffffffff167c01000000000000000000000000000000000000000000000000000000000281526004018083600019166000191681526020018273ffffffffffffffffffffffffffffffffffffffff1673ffffffffffffffffffffffffffffffffffffffff16815260200192505050600060405180830381600087803b158015611a8e57600080fd5b505af1158015611aa2573d6000803e3d6000fd5b505050508473ffffffffffffffffffffffffffffffffffffffff1663be13f47c600460009054906101000a900473ffffffffffffffffffffffffffffffffffffffff168b6040518363ffffffff167c0100000000000000000000000000000000000000000000000000000000028152600401808373ffffffffffffffffffffffffffffffffffffffff1673ffffffffffffffffffffffffffffffffffffffff168152602001826000191660001916815260200192505050600060405180830381600087803b158015611b7357600080fd5b505af1158015611b87573d6000803e3d6000fd5b505050508373ffffffffffffffffffffffffffffffffffffffff1663c4d66de8866040518263ffffffff167c0100000000000000000000000000000000000000000000000000000000028152600401808273ffffffffffffffffffffffffffffffffffffffff1673ffffffffffffffffffffffffffffffffffffffff168152602001915050600060405180830381600087803b158015611c2657600080fd5b505af1158015611c3a573d6000803e3d6000fd5b505050506001816000600381101515611c4f57fe5b602002019061ffff16908161ffff16815250508673ffffffffffffffffffffffffffffffffffffffff1663be03847830868773ffffffffffffffffffffffffffffffffffffffff16635e1f3fa86040518163ffffffff167c0100000000000000000000000000000000000000000000000000000000028152600401602060405180830381600087803b158015611ce457600080fd5b505af1158015611cf8573d6000803e3d6000fd5b505050506040513d6020811015611d0e57600080fd5b8101908080519060200190929190505050306040518563ffffffff167c0100000000000000000000000000000000000000000000000000000000028152600401808573ffffffffffffffffffffffffffffffffffffffff1673ffffffffffffffffffffffffffffffffffffffff1681526020018473ffffffffffffffffffffffffffffffffffffffff1673ffffffffffffffffffffffffffffffffffffffff16815260200183600019166000191681526020018273ffffffffffffffffffffffffffffffffffffffff1673ffffffffffffffffffffffffffffffffffffffff168152602001945050505050600060405180830381600087803b158015611e1357600080fd5b505af1158015611e27573d6000803e3d6000fd5b505050508373ffffffffffffffffffffffffffffffffffffffff166332ab6af06040805190810160405280600c81526020017f61706d2d726567697374727900000000000000000000000000000000000000008152508d84600160009054906101000a900473ffffffffffffffffffffffffffffffffffffffff16611ee06040805190810160405280600881526020017f697066733a61706d000000000000000000000000000000000000000000000000815250612ae4565b6040518663ffffffff167c010000000000000000000000000000000000000000000000000000000002815260040180806020018673ffffffffffffffffffffffffffffffffffffffff1673ffffffffffffffffffffffffffffffffffffffff16815260200185600360200280838360005b83811015611f6c578082015181840152602081019050611f51565b505050509050018473ffffffffffffffffffffffffffffffffffffffff1673ffffffffffffffffffffffffffffffffffffffff16815260200180602001838103835288818151815260200191508051906020019080838360005b83811015611fe1578082015181840152602081019050611fc6565b50505050905090810190601f16801561200e5780820380516001836020036101000a031916815260200191505b50838103825284818151815260200191508051906020019080838360005b8381101561204757808201518184015260208101905061202c565b50505050905090810190601f1680156120745780820380516001836020036101000a031916815260200191505b50975050505050505050602060405180830381600087803b15801561209857600080fd5b505af11580156120ac573d6000803e3d6000fd5b505050506040513d60208110156120c257600080fd5b8101908080519060200190929190505050508373ffffffffffffffffffffffffffffffffffffffff166332ab6af06040805190810160405280600a81526020017f61706d2d656e73737562000000000000000000000000000000000000000000008152508d84600360009054906101000a900473ffffffffffffffffffffffffffffffffffffffff166121896040805190810160405280600b81526020017f697066733a656e73737562000000000000000000000000000000000000000000815250612ae4565b6040518663ffffffff167c010000000000000000000000000000000000000000000000000000000002815260040180806020018673ffffffffffffffffffffffffffffffffffffffff1673ffffffffffffffffffffffffffffffffffffffff16815260200185600360200280838360005b838110156122155780820151818401526020810190506121fa565b505050509050018473ffffffffffffffffffffffffffffffffffffffff1673ffffffffffffffffffffffffffffffffffffffff16815260200180602001838103835288818151815260200191508051906020019080838360005b8381101561228a57808201518184015260208101905061226f565b50505050905090810190601f1680156122b75780820380516001836020036101000a031916815260200191505b50838103825284818151815260200191508051906020019080838360005b838110156122f05780820151818401526020810190506122d5565b50505050905090810190601f16801561231d5780820380516001836020036101000a031916815260200191505b50975050505050505050602060405180830381600087803b15801561234157600080fd5b505af1158015612355573d6000803e3d6000fd5b505050506040513d602081101561236b57600080fd5b8101908080519060200190929190505050508373ffffffffffffffffffffffffffffffffffffffff166332ab6af06040805190810160405280600881526020017f61706d2d7265706f0000000000000000000000000000000000000000000000008152508d84600260009054906101000a900473ffffffffffffffffffffffffffffffffffffffff166124326040805190810160405280600981526020017f697066733a7265706f0000000000000000000000000000000000000000000000815250612ae4565b6040518663ffffffff167c010000000000000000000000000000000000000000000000000000000002815260040180806020018673ffffffffffffffffffffffffffffffffffffffff1673ffffffffffffffffffffffffffffffffffffffff16815260200185600360200280838360005b838110156124be5780820151818401526020810190506124a3565b505050509050018473ffffffffffffffffffffffffffffffffffffffff1673ffffffffffffffffffffffffffffffffffffffff16815260200180602001838103835288818151815260200191508051906020019080838360005b83811015612533578082015181840152602081019050612518565b50505050905090810190601f1680156125605780820380516001836020036101000a031916815260200191505b50838103825284818151815260200191508051906020019080838360005b8381101561259957808201518184015260208101905061257e565b50505050905090810190601f1680156125c65780820380516001836020036101000a031916815260200191505b50975050505050505050602060405180830381600087803b1580156125ea57600080fd5b505af11580156125fe573d6000803e3d6000fd5b505050506040513d602081101561261457600080fd5b81019080805190602001909291905050505061263187858d612aee565b8673ffffffffffffffffffffffffffffffffffffffff1663afd925df8c8a8b73ffffffffffffffffffffffffffffffffffffffff16638ea8dc9d6040518163ffffffff167c0100000000000000000000000000000000000000000000000000000000028152600401602060405180830381600087803b1580156126b357600080fd5b505af11580156126c7573d6000803e3d6000fd5b505050506040513d60208110156126dd57600080fd5b81019080805190602001909291905050506040518463ffffffff167c0100000000000000000000000000000000000000000000000000000000028152600401808473ffffffffffffffffffffffffffffffffffffffff1673ffffffffffffffffffffffffffffffffffffffff1681526020018373ffffffffffffffffffffffffffffffffffffffff1673ffffffffffffffffffffffffffffffffffffffff16815260200182600019166000191681526020019350505050600060405180830381600087803b1580156127ae57600080fd5b505af11580156127c2573d6000803e3d6000fd5b505050508673ffffffffffffffffffffffffffffffffffffffff16639d0effdb3089856040518463ffffffff167c0100000000000000000000000000000000000000000000000000000000028152600401808473ffffffffffffffffffffffffffffffffffffffff1673ffffffffffffffffffffffffffffffffffffffff1681526020018373ffffffffffffffffffffffffffffffffffffffff1673ffffffffffffffffffffffffffffffffffffffff16815260200182600019166000191681526020019350505050600060405180830381600087803b1580156128a557600080fd5b505af11580156128b9573d6000803e3d6000fd5b505050508673ffffffffffffffffffffffffffffffffffffffff16630a8ed3db8c89856040518463ffffffff167c0100000000000000000000000000000000000000000000000000000000028152600401808473ffffffffffffffffffffffffffffffffffffffff1673ffffffffffffffffffffffffffffffffffffffff1681526020018373ffffffffffffffffffffffffffffffffffffffff1673ffffffffffffffffffffffffffffffffffffffff16815260200182600019166000191681526020019350505050600060405180830381600087803b15801561299c57600080fd5b505af11580156129b0573d6000803e3d6000fd5b505050508673ffffffffffffffffffffffffffffffffffffffff1663afd925df8c89856040518463ffffffff167c0100000000000000000000000000000000000000000000000000000000028152600401808473ffffffffffffffffffffffffffffffffffffffff1673ffffffffffffffffffffffffffffffffffffffff1681526020018373ffffffffffffffffffffffffffffffffffffffff1673ffffffffffffffffffffffffffffffffffffffff16815260200182600019166000191681526020019350505050600060405180830381600087803b158015612a9357600080fd5b505af1158015612aa7573d6000803e3d6000fd5b505050508399505050505050505050509392505050565b600260009054906101000a900473ffffffffffffffffffffffffffffffffffffffff1681565b6060819050919050565b8273ffffffffffffffffffffffffffffffffffffffff16630a8ed3db82848573ffffffffffffffffffffffffffffffffffffffff16635e1f3fa86040518163ffffffff167c0100000000000000000000000000000000000000000000000000000000028152600401602060405180830381600087803b158015612b7057600080fd5b505af1158015612b84573d6000803e3d6000fd5b505050506040513d6020811015612b9a57600080fd5b81019080805190602001909291905050506040518463ffffffff167c0100000000000000000000000000000000000000000000000000000000028152600401808473ffffffffffffffffffffffffffffffffffffffff1673ffffffffffffffffffffffffffffffffffffffff1681526020018373ffffffffffffffffffffffffffffffffffffffff1673ffffffffffffffffffffffffffffffffffffffff16815260200182600019166000191681526020019350505050600060405180830381600087803b158015612c6b57600080fd5b505af1158015612c7f573d6000803e3d6000fd5b505050508273ffffffffffffffffffffffffffffffffffffffff1663afd925df82848573ffffffffffffffffffffffffffffffffffffffff16635e1f3fa86040518163ffffffff167c0100000000000000000000000000000000000000000000000000000000028152600401602060405180830381600087803b158015612d0557600080fd5b505af1158015612d19573d6000803e3d6000fd5b505050506040513d6020811015612d2f57600080fd5b81019080805190602001909291905050506040518463ffffffff167c0100000000000000000000000000000000000000000000000000000000028152600401808473ffffffffffffffffffffffffffffffffffffffff1673ffffffffffffffffffffffffffffffffffffffff1681526020018373ffffffffffffffffffffffffffffffffffffffff1673ffffffffffffffffffffffffffffffffffffffff16815260200182600019166000191681526020019350505050600060405180830381600087803b158015612e0057600080fd5b505af1158015612e14573d6000803e3d6000fd5b50505050505050565b6060604051908101604052806003906020820280388339808201915050905050905600a165627a7a723058206d8da3c67b3a29e6e7ef14c894992fc3bbb96a6c58ffedeae3a122a25589f3080029",
  "source": "pragma solidity 0.4.24;\n\n\nimport \"../apm/APMRegistry.sol\";\nimport \"../apm/Repo.sol\";\nimport \"../ens/ENSSubdomainRegistrar.sol\";\n\nimport \"./DAOFactory.sol\";\nimport \"./ENSFactory.sol\";\nimport \"./AppProxyFactory.sol\";\n\n\ncontract APMRegistryFactory is APMInternalAppNames {\n    DAOFactory public daoFactory;\n    APMRegistry public registryBase;\n    Repo public repoBase;\n    ENSSubdomainRegistrar public ensSubdomainRegistrarBase;\n    ENS public ens;\n\n    event DeployAPM(bytes32 indexed node, address apm);\n\n    /**\n    * @notice Create a new factory for deploying Aragon Package Managers (aragonPM)\n    * @dev Requires either a given ENS registrar or ENSFactory (used for generating a new ENS in test environments).\n    * @param _daoFactory Base factory for deploying DAOs\n    * @param _registryBase APMRegistry base contract location\n    * @param _repoBase Repo base contract location\n    * @param _ensSubBase ENSSubdomainRegistrar base contract location\n    * @param _ens ENS instance\n    * @param _ensFactory ENSFactory (used to generated a new ENS if no ENS is given)\n    */\n    constructor(\n        DAOFactory _daoFactory,\n        APMRegistry _registryBase,\n        Repo _repoBase,\n        ENSSubdomainRegistrar _ensSubBase,\n        ENS _ens,\n        ENSFactory _ensFactory\n    ) public // DAO initialized without evmscript run support\n    {\n        daoFactory = _daoFactory;\n        registryBase = _registryBase;\n        repoBase = _repoBase;\n        ensSubdomainRegistrarBase = _ensSubBase;\n\n        // Either the ENS address provided is used, if any.\n        // Or we use the ENSFactory to generate a test instance of ENS\n        // If not the ENS address nor factory address are provided, this will revert\n        ens = _ens != address(0) ? _ens : _ensFactory.newENS(this);\n    }\n\n    /**\n    * @notice Create a new Aragon Package Manager (aragonPM) DAO, holding the `_label` subdomain from parent `_tld` and controlled by `_root`\n    * @param _tld The parent node of the controlled subdomain\n    * @param _label The subdomain label\n    * @param _root Manager for the new aragonPM DAO\n    * @return The new aragonPM's APMRegistry app\n    */\n    function newAPM(bytes32 _tld, bytes32 _label, address _root) public returns (APMRegistry) {\n        bytes32 node = keccak256(abi.encodePacked(_tld, _label));\n\n        // Assume it is the test ENS\n        if (ens.owner(node) != address(this)) {\n            // If we weren't in test ens and factory doesn't have ownership, will fail\n            require(ens.owner(_tld) == address(this));\n            ens.setSubnodeOwner(_tld, _label, this);\n        }\n\n        Kernel dao = daoFactory.newDAO(this);\n        ACL acl = ACL(dao.acl());\n\n        acl.createPermission(this, dao, dao.APP_MANAGER_ROLE(), this);\n\n        // Deploy app proxies\n        bytes memory noInit = new bytes(0);\n        ENSSubdomainRegistrar ensSub = ENSSubdomainRegistrar(\n            dao.newAppInstance(\n                keccak256(abi.encodePacked(node, keccak256(abi.encodePacked(ENS_SUB_APP_NAME)))),\n                ensSubdomainRegistrarBase,\n                noInit,\n                false\n            )\n        );\n\n        APMRegistry apm = APMRegistry(\n            dao.newAppInstance(\n                keccak256(abi.encodePacked(node, keccak256(abi.encodePacked(APM_APP_NAME)))),\n                registryBase,\n                noInit,\n                false\n            )\n        );\n\n        // APMRegistry controls Repos\n        bytes32 repoAppId = keccak256(abi.encodePacked(node, keccak256(abi.encodePacked(REPO_APP_NAME))));\n        dao.setApp(dao.APP_BASES_NAMESPACE(), repoAppId, repoBase);\n\n        emit DeployAPM(node, apm);\n\n        // Grant permissions needed for APM on ENSSubdomainRegistrar\n        acl.createPermission(apm, ensSub, ensSub.CREATE_NAME_ROLE(), _root);\n        acl.createPermission(apm, ensSub, ensSub.POINT_ROOTNODE_ROLE(), _root);\n\n        // allow apm to create permissions for Repos in Kernel\n        bytes32 permRole = acl.CREATE_PERMISSIONS_ROLE();\n\n        acl.grantPermission(apm, acl, permRole);\n\n        // Initialize\n        ens.setOwner(node, ensSub);\n        ensSub.initialize(ens, node);\n        apm.initialize(ensSub);\n\n        uint16[3] memory firstVersion;\n        firstVersion[0] = 1;\n\n        acl.createPermission(this, apm, apm.CREATE_REPO_ROLE(), this);\n\n        apm.newRepoWithVersion(APM_APP_NAME, _root, firstVersion, registryBase, b(\"ipfs:apm\"));\n        apm.newRepoWithVersion(ENS_SUB_APP_NAME, _root, firstVersion, ensSubdomainRegistrarBase, b(\"ipfs:enssub\"));\n        apm.newRepoWithVersion(REPO_APP_NAME, _root, firstVersion, repoBase, b(\"ipfs:repo\"));\n\n        configureAPMPermissions(acl, apm, _root);\n\n        // Permission transition to _root\n        acl.setPermissionManager(_root, dao, dao.APP_MANAGER_ROLE());\n        acl.revokePermission(this, acl, permRole);\n        acl.grantPermission(_root, acl, permRole);\n        acl.setPermissionManager(_root, acl, permRole);\n\n        return apm;\n    }\n\n    function b(string memory x) internal pure returns (bytes memory y) {\n        y = bytes(x);\n    }\n\n    // Factory can be subclassed and permissions changed\n    function configureAPMPermissions(ACL _acl, APMRegistry _apm, address _root) internal {\n        _acl.grantPermission(_root, _apm, _apm.CREATE_REPO_ROLE());\n        _acl.setPermissionManager(_root, _apm, _apm.CREATE_REPO_ROLE());\n    }\n}\n",
  "sourcePath": "@aragon/os/contracts/factory/APMRegistryFactory.sol",
  "compiler": {
    "name": "solc",
    "version": "0.4.24+commit.e67f0147.Emscripten.clang"
  },
  "schemaVersion": "3.0.10",
  "updatedAt": "2019-07-01T12:48:23.480Z",
  "devdoc": {
    "methods": {
      "newAPM(bytes32,bytes32,address)": {
        "params": {
          "_label": "The subdomain label",
          "_root": "Manager for the new aragonPM DAO",
          "_tld": "The parent node of the controlled subdomain"
        },
        "return": "The new aragonPM's APMRegistry app"
      }
    }
  },
  "userdoc": {
    "methods": {
      "newAPM(bytes32,bytes32,address)": {
        "notice": "Create a new Aragon Package Manager (aragonPM) DAO, holding the `_label` subdomain from parent `_tld` and controlled by `_root`"
      }
    }
  }
}