{
  "contractName": "Challenge",
  "abi": [
    {
      "constant": true,
      "inputs": [],
      "name": "creationBlock",
      "outputs": [
        {
          "name": "",
          "type": "uint256"
        }
      ],
      "payable": false,
      "stateMutability": "view",
      "type": "function"
    },
    {
      "constant": true,
      "inputs": [],
      "name": "votesExclude",
      "outputs": [
        {
          "name": "",
          "type": "uint256"
        }
      ],
      "payable": false,
      "stateMutability": "view",
      "type": "function"
    },
    {
      "constant": true,
      "inputs": [],
      "name": "commitPeriodEnd",
      "outputs": [
        {
          "name": "",
          "type": "uint256"
        }
      ],
      "payable": false,
      "stateMutability": "view",
      "type": "function"
    },
    {
      "constant": true,
      "inputs": [],
      "name": "registryEntry",
      "outputs": [
        {
          "name": "",
          "type": "address"
        }
      ],
      "payable": false,
      "stateMutability": "view",
      "type": "function"
    },
    {
      "constant": true,
      "inputs": [],
      "name": "challengerRewardClaimedOn",
      "outputs": [
        {
          "name": "",
          "type": "uint256"
        }
      ],
      "payable": false,
      "stateMutability": "view",
      "type": "function"
    },
    {
      "constant": true,
      "inputs": [],
      "name": "voteQuorum",
      "outputs": [
        {
          "name": "",
          "type": "uint256"
        }
      ],
      "payable": false,
      "stateMutability": "view",
      "type": "function"
    },
    {
      "constant": true,
      "inputs": [],
      "name": "challenger",
      "outputs": [
        {
          "name": "",
          "type": "address"
        }
      ],
      "payable": false,
      "stateMutability": "view",
      "type": "function"
    },
    {
      "constant": true,
      "inputs": [],
      "name": "rewardPool",
      "outputs": [
        {
          "name": "",
          "type": "uint256"
        }
      ],
      "payable": false,
      "stateMutability": "view",
      "type": "function"
    },
    {
      "constant": true,
      "inputs": [],
      "name": "challengePeriodEnd",
      "outputs": [
        {
          "name": "",
          "type": "uint256"
        }
      ],
      "payable": false,
      "stateMutability": "view",
      "type": "function"
    },
    {
      "constant": false,
      "inputs": [],
      "name": "renounceOwnership",
      "outputs": [],
      "payable": false,
      "stateMutability": "nonpayable",
      "type": "function"
    },
    {
      "constant": true,
      "inputs": [],
      "name": "registryToken",
      "outputs": [
        {
          "name": "",
          "type": "address"
        }
      ],
      "payable": false,
      "stateMutability": "view",
      "type": "function"
    },
    {
      "constant": true,
      "inputs": [],
      "name": "metaHash",
      "outputs": [
        {
          "name": "",
          "type": "bytes"
        }
      ],
      "payable": false,
      "stateMutability": "view",
      "type": "function"
    },
    {
      "constant": true,
      "inputs": [],
      "name": "revealPeriodEnd",
      "outputs": [
        {
          "name": "",
          "type": "uint256"
        }
      ],
      "payable": false,
      "stateMutability": "view",
      "type": "function"
    },
    {
      "constant": true,
      "inputs": [],
      "name": "owner",
      "outputs": [
        {
          "name": "",
          "type": "address"
        }
      ],
      "payable": false,
      "stateMutability": "view",
      "type": "function"
    },
    {
      "constant": true,
      "inputs": [],
      "name": "votesInclude",
      "outputs": [
        {
          "name": "",
          "type": "uint256"
        }
      ],
      "payable": false,
      "stateMutability": "view",
      "type": "function"
    },
    {
      "constant": true,
      "inputs": [],
      "name": "creatorRewardClaimedOn",
      "outputs": [
        {
          "name": "",
          "type": "uint256"
        }
      ],
      "payable": false,
      "stateMutability": "view",
      "type": "function"
    },
    {
      "constant": true,
      "inputs": [
        {
          "name": "",
          "type": "address"
        }
      ],
      "name": "votes",
      "outputs": [
        {
          "name": "secretHash",
          "type": "bytes32"
        },
        {
          "name": "option",
          "type": "uint8"
        },
        {
          "name": "amount",
          "type": "uint256"
        },
        {
          "name": "revealedOn",
          "type": "uint256"
        },
        {
          "name": "claimedRewardOn",
          "type": "uint256"
        },
        {
          "name": "reclaimedVotesOn",
          "type": "uint256"
        }
      ],
      "payable": false,
      "stateMutability": "view",
      "type": "function"
    },
    {
      "constant": false,
      "inputs": [
        {
          "name": "_newOwner",
          "type": "address"
        }
      ],
      "name": "transferOwnership",
      "outputs": [],
      "payable": false,
      "stateMutability": "nonpayable",
      "type": "function"
    },
    {
      "anonymous": false,
      "inputs": [
        {
          "indexed": true,
          "name": "previousOwner",
          "type": "address"
        }
      ],
      "name": "OwnershipRenounced",
      "type": "event"
    },
    {
      "anonymous": false,
      "inputs": [
        {
          "indexed": true,
          "name": "previousOwner",
          "type": "address"
        },
        {
          "indexed": true,
          "name": "newOwner",
          "type": "address"
        }
      ],
      "name": "OwnershipTransferred",
      "type": "event"
    },
    {
      "constant": false,
      "inputs": [
        {
          "name": "_registryEntry",
          "type": "address"
        },
        {
          "name": "_challenger",
          "type": "address"
        },
        {
          "name": "_metaHash",
          "type": "bytes"
        },
        {
          "name": "_challengePeriodEnd",
          "type": "uint256"
        },
        {
          "name": "_commitPeriodEnd",
          "type": "uint256"
        },
        {
          "name": "_revealPeriodEnd",
          "type": "uint256"
        },
        {
          "name": "_rewardPool",
          "type": "uint256"
        },
        {
          "name": "_voteQuorum",
          "type": "uint256"
        }
      ],
      "name": "construct",
      "outputs": [],
      "payable": false,
      "stateMutability": "nonpayable",
      "type": "function"
    },
    {
      "constant": true,
      "inputs": [],
      "name": "isVoteRevealPeriodActive",
      "outputs": [
        {
          "name": "",
          "type": "bool"
        }
      ],
      "payable": false,
      "stateMutability": "view",
      "type": "function"
    },
    {
      "constant": true,
      "inputs": [
        {
          "name": "_voter",
          "type": "address"
        }
      ],
      "name": "isVoteRevealed",
      "outputs": [
        {
          "name": "",
          "type": "bool"
        }
      ],
      "payable": false,
      "stateMutability": "view",
      "type": "function"
    },
    {
      "constant": true,
      "inputs": [
        {
          "name": "_voter",
          "type": "address"
        }
      ],
      "name": "isVoteRewardClaimed",
      "outputs": [
        {
          "name": "",
          "type": "bool"
        }
      ],
      "payable": false,
      "stateMutability": "view",
      "type": "function"
    },
    {
      "constant": true,
      "inputs": [
        {
          "name": "_voter",
          "type": "address"
        }
      ],
      "name": "areVotesReclaimed",
      "outputs": [
        {
          "name": "",
          "type": "bool"
        }
      ],
      "payable": false,
      "stateMutability": "view",
      "type": "function"
    },
    {
      "constant": true,
      "inputs": [],
      "name": "isChallengeRewardClaimed",
      "outputs": [
        {
          "name": "",
          "type": "bool"
        }
      ],
      "payable": false,
      "stateMutability": "view",
      "type": "function"
    },
    {
      "constant": true,
      "inputs": [],
      "name": "isCreatorRewardClaimed",
      "outputs": [
        {
          "name": "",
          "type": "bool"
        }
      ],
      "payable": false,
      "stateMutability": "view",
      "type": "function"
    },
    {
      "constant": true,
      "inputs": [],
      "name": "isChallengePeriodActive",
      "outputs": [
        {
          "name": "",
          "type": "bool"
        }
      ],
      "payable": false,
      "stateMutability": "view",
      "type": "function"
    },
    {
      "constant": true,
      "inputs": [],
      "name": "isWhitelisted",
      "outputs": [
        {
          "name": "",
          "type": "bool"
        }
      ],
      "payable": false,
      "stateMutability": "view",
      "type": "function"
    },
    {
      "constant": true,
      "inputs": [],
      "name": "isVoteCommitPeriodActive",
      "outputs": [
        {
          "name": "",
          "type": "bool"
        }
      ],
      "payable": false,
      "stateMutability": "view",
      "type": "function"
    },
    {
      "constant": true,
      "inputs": [],
      "name": "isVoteRevealPeriodOver",
      "outputs": [
        {
          "name": "",
          "type": "bool"
        }
      ],
      "payable": false,
      "stateMutability": "view",
      "type": "function"
    },
    {
      "constant": true,
      "inputs": [],
      "name": "isWinningOptionInclude",
      "outputs": [
        {
          "name": "",
          "type": "bool"
        }
      ],
      "payable": false,
      "stateMutability": "view",
      "type": "function"
    },
    {
      "constant": true,
      "inputs": [
        {
          "name": "_voter",
          "type": "address"
        }
      ],
      "name": "hasVoted",
      "outputs": [
        {
          "name": "",
          "type": "bool"
        }
      ],
      "payable": false,
      "stateMutability": "view",
      "type": "function"
    },
    {
      "constant": true,
      "inputs": [],
      "name": "wasChallenged",
      "outputs": [
        {
          "name": "",
          "type": "bool"
        }
      ],
      "payable": false,
      "stateMutability": "view",
      "type": "function"
    },
    {
      "constant": true,
      "inputs": [
        {
          "name": "_voter",
          "type": "address"
        }
      ],
      "name": "votedWinningVoteOption",
      "outputs": [
        {
          "name": "",
          "type": "bool"
        }
      ],
      "payable": false,
      "stateMutability": "view",
      "type": "function"
    },
    {
      "constant": true,
      "inputs": [],
      "name": "status",
      "outputs": [
        {
          "name": "",
          "type": "uint8"
        }
      ],
      "payable": false,
      "stateMutability": "view",
      "type": "function"
    },
    {
      "constant": true,
      "inputs": [],
      "name": "challengerReward",
      "outputs": [
        {
          "name": "",
          "type": "uint256"
        }
      ],
      "payable": false,
      "stateMutability": "view",
      "type": "function"
    },
    {
      "constant": true,
      "inputs": [],
      "name": "creatorReward",
      "outputs": [
        {
          "name": "",
          "type": "uint256"
        }
      ],
      "payable": false,
      "stateMutability": "view",
      "type": "function"
    },
    {
      "constant": true,
      "inputs": [
        {
          "name": "_voter",
          "type": "address"
        }
      ],
      "name": "voteOptionIncludeVoterAmount",
      "outputs": [
        {
          "name": "",
          "type": "uint256"
        }
      ],
      "payable": false,
      "stateMutability": "view",
      "type": "function"
    },
    {
      "constant": true,
      "inputs": [
        {
          "name": "_voter",
          "type": "address"
        }
      ],
      "name": "voteOptionExcludeVoterAmount",
      "outputs": [
        {
          "name": "",
          "type": "uint256"
        }
      ],
      "payable": false,
      "stateMutability": "view",
      "type": "function"
    },
    {
      "constant": true,
      "inputs": [
        {
          "name": "_voter",
          "type": "address"
        }
      ],
      "name": "voteReward",
      "outputs": [
        {
          "name": "",
          "type": "uint256"
        }
      ],
      "payable": false,
      "stateMutability": "view",
      "type": "function"
    },
    {
      "constant": true,
      "inputs": [],
      "name": "isBlacklisted",
      "outputs": [
        {
          "name": "",
          "type": "bool"
        }
      ],
      "payable": false,
      "stateMutability": "view",
      "type": "function"
    },
    {
      "constant": true,
      "inputs": [],
      "name": "voteOptionIncludeAmount",
      "outputs": [
        {
          "name": "",
          "type": "uint256"
        }
      ],
      "payable": false,
      "stateMutability": "view",
      "type": "function"
    },
    {
      "constant": true,
      "inputs": [],
      "name": "voteOptionExcludeAmount",
      "outputs": [
        {
          "name": "",
          "type": "uint256"
        }
      ],
      "payable": false,
      "stateMutability": "view",
      "type": "function"
    },
    {
      "constant": true,
      "inputs": [],
      "name": "winningVoteOption",
      "outputs": [
        {
          "name": "",
          "type": "uint8"
        }
      ],
      "payable": false,
      "stateMutability": "view",
      "type": "function"
    },
    {
      "constant": true,
      "inputs": [],
      "name": "winningVoteOptionAmount",
      "outputs": [
        {
          "name": "",
          "type": "uint256"
        }
      ],
      "payable": false,
      "stateMutability": "view",
      "type": "function"
    },
    {
      "constant": false,
      "inputs": [
        {
          "name": "_voter",
          "type": "address"
        },
        {
          "name": "_amount",
          "type": "uint256"
        },
        {
          "name": "_secretHash",
          "type": "bytes32"
        }
      ],
      "name": "commitVote",
      "outputs": [],
      "payable": false,
      "stateMutability": "nonpayable",
      "type": "function"
    },
    {
      "constant": false,
      "inputs": [
        {
          "name": "_voter",
          "type": "address"
        },
        {
          "name": "_voteOption",
          "type": "uint8"
        },
        {
          "name": "_salt",
          "type": "string"
        }
      ],
      "name": "revealVote",
      "outputs": [
        {
          "name": "",
          "type": "uint256"
        }
      ],
      "payable": false,
      "stateMutability": "nonpayable",
      "type": "function"
    },
    {
      "constant": false,
      "inputs": [
        {
          "name": "_voter",
          "type": "address"
        }
      ],
      "name": "safeReclaimVotes",
      "outputs": [
        {
          "name": "",
          "type": "uint256"
        }
      ],
      "payable": false,
      "stateMutability": "nonpayable",
      "type": "function"
    },
    {
      "constant": false,
      "inputs": [
        {
          "name": "_voter",
          "type": "address"
        }
      ],
      "name": "safeClaimVoteReward",
      "outputs": [
        {
          "name": "",
          "type": "uint256"
        }
      ],
      "payable": false,
      "stateMutability": "nonpayable",
      "type": "function"
    },
    {
      "constant": false,
      "inputs": [
        {
          "name": "_user",
          "type": "address"
        }
      ],
      "name": "safeClaimChallengerReward",
      "outputs": [
        {
          "name": "",
          "type": "uint256"
        }
      ],
      "payable": false,
      "stateMutability": "nonpayable",
      "type": "function"
    },
    {
      "constant": false,
      "inputs": [
        {
          "name": "_user",
          "type": "address"
        }
      ],
      "name": "safeClaimCreatorReward",
      "outputs": [
        {
          "name": "",
          "type": "uint256"
        }
      ],
      "payable": false,
      "stateMutability": "nonpayable",
      "type": "function"
    }
  ],
  "bytecode": "0x6080604052336000806101000a81548173ffffffffffffffffffffffffffffffffffffffff021916908373ffffffffffffffffffffffffffffffffffffffff160217905550612b63806100536000396000f30060806040526004361061025c576000357c0100000000000000000000000000000000000000000000000000000000900463ffffffff16806302fd8d4d1461026157806309eef43e14610290578063122109bb146102eb578063159c701214610342578063176345141461039957806318cac24c146103c45780631a0a3aaa146103ef5780631d1884161461041a5780631dd6371314610471578063200d2ed21461049c57806320aa54f4146104d557806327f429d8146105045780632836a1ba1461055f5780632ba8d6eb146105ba57806331f0ef7514610611578063384e5206146106405780633c7e3c7a1461066f5780634c73ed141461069a5780634d421401146106c95780634d9c392f146106f457806351cbffd31461074f578063534db0e2146107a657806360f8eeeb146107fd578063611b40951461083657806366666aa914610865578063671f08e3146108905780636afdc33a146108bb578063715018a6146109165780637792957d1461092d578063803f5b7f14610984578063810ff7bd14610a00578063827c62fb14610a2b57806387eb297314610abb57806387f4ab3114610ae65780638da5cb5b14610b3d5780638db79b6514610b9457806398bb9a6b14610bc3578063a94d881114610c9e578063af5f47bf14610ccd578063b39c760014610cf8578063b66bd25114610d4f578063b72b4eca14610d7a578063c45da4fc14610da5578063c7153b9114610e00578063c7ac52ec14610e2b578063d8bff5a514610e5a578063d8fd1ed914610eea578063e8c934fe14610f15578063f2fde38b14610f44578063f688426114610f87575b600080fd5b34801561026d57600080fd5b50610276610fde565b604051808215151515815260200191505060405180910390f35b34801561029c57600080fd5b506102d1600480360381019080803573ffffffffffffffffffffffffffffffffffffffff169060200190929190505050611021565b604051808215151515815260200191505060405180910390f35b3480156102f757600080fd5b5061032c600480360381019080803573ffffffffffffffffffffffffffffffffffffffff169060200190929190505050611070565b6040518082815260200191505060405180910390f35b34801561034e57600080fd5b50610383600480360381019080803573ffffffffffffffffffffffffffffffffffffffff169060200190929190505050611133565b6040518082815260200191505060405180910390f35b3480156103a557600080fd5b506103ae6111c6565b6040518082815260200191505060405180910390f35b3480156103d057600080fd5b506103d96111cc565b6040518082815260200191505060405180910390f35b3480156103fb57600080fd5b506104046111d2565b6040518082815260200191505060405180910390f35b34801561042657600080fd5b5061045b600480360381019080803573ffffffffffffffffffffffffffffffffffffffff1690602001909291905050506111d8565b6040518082815260200191505060405180910390f35b34801561047d57600080fd5b50610486611312565b6040518082815260200191505060405180910390f35b3480156104a857600080fd5b506104b161131c565b604051808260048111156104c157fe5b60ff16815260200191505060405180910390f35b3480156104e157600080fd5b506104ea6113a5565b604051808215151515815260200191505060405180910390f35b34801561051057600080fd5b5061055d600480360381019080803573ffffffffffffffffffffffffffffffffffffffff1690602001909291908035906020019092919080356000191690602001909291905050506113cd565b005b34801561056b57600080fd5b506105a0600480360381019080803573ffffffffffffffffffffffffffffffffffffffff1690602001909291905050506114f6565b604051808215151515815260200191505060405180910390f35b3480156105c657600080fd5b506105cf611544565b604051808273ffffffffffffffffffffffffffffffffffffffff1673ffffffffffffffffffffffffffffffffffffffff16815260200191505060405180910390f35b34801561061d57600080fd5b5061062661156a565b604051808215151515815260200191505060405180910390f35b34801561064c57600080fd5b50610655611577565b604051808215151515815260200191505060405180910390f35b34801561067b57600080fd5b50610684611583565b6040518082815260200191505060405180910390f35b3480156106a657600080fd5b506106af611589565b604051808215151515815260200191505060405180910390f35b3480156106d557600080fd5b506106de6115a7565b6040518082815260200191505060405180910390f35b34801561070057600080fd5b50610735600480360381019080803573ffffffffffffffffffffffffffffffffffffffff1690602001909291905050506115ad565b604051808215151515815260200191505060405180910390f35b34801561075b57600080fd5b50610790600480360381019080803573ffffffffffffffffffffffffffffffffffffffff169060200190929190505050611625565b6040518082815260200191505060405180910390f35b3480156107b257600080fd5b506107bb6116e9565b604051808273ffffffffffffffffffffffffffffffffffffffff1673ffffffffffffffffffffffffffffffffffffffff16815260200191505060405180910390f35b34801561080957600080fd5b5061081261170f565b6040518082600281111561082257fe5b60ff16815260200191505060405180910390f35b34801561084257600080fd5b5061084b611788565b604051808215151515815260200191505060405180910390f35b34801561087157600080fd5b5061087a6117af565b6040518082815260200191505060405180910390f35b34801561089c57600080fd5b506108a56117b5565b6040518082815260200191505060405180910390f35b3480156108c757600080fd5b506108fc600480360381019080803573ffffffffffffffffffffffffffffffffffffffff1690602001909291905050506117bb565b604051808215151515815260200191505060405180910390f35b34801561092257600080fd5b5061092b611809565b005b34801561093957600080fd5b5061094261190b565b604051808273ffffffffffffffffffffffffffffffffffffffff1673ffffffffffffffffffffffffffffffffffffffff16815260200191505060405180910390f35b34801561099057600080fd5b506109ea600480360381019080803573ffffffffffffffffffffffffffffffffffffffff169060200190929190803560ff169060200190929190803590602001908201803590602001919091929391929390505050611923565b6040518082815260200191505060405180910390f35b348015610a0c57600080fd5b50610a15611c1a565b6040518082815260200191505060405180910390f35b348015610a3757600080fd5b50610a40611d0d565b6040518080602001828103825283818151815260200191508051906020019080838360005b83811015610a80578082015181840152602081019050610a65565b50505050905090810190601f168015610aad5780820380516001836020036101000a031916815260200191505b509250505060405180910390f35b348015610ac757600080fd5b50610ad0611dab565b6040518082815260200191505060405180910390f35b348015610af257600080fd5b50610b27600480360381019080803573ffffffffffffffffffffffffffffffffffffffff169060200190929190505050611db1565b6040518082815260200191505060405180910390f35b348015610b4957600080fd5b50610b52611f53565b604051808273ffffffffffffffffffffffffffffffffffffffff1673ffffffffffffffffffffffffffffffffffffffff16815260200191505060405180910390f35b348015610ba057600080fd5b50610ba9611f78565b604051808215151515815260200191505060405180910390f35b348015610bcf57600080fd5b50610c9c600480360381019080803573ffffffffffffffffffffffffffffffffffffffff169060200190929190803573ffffffffffffffffffffffffffffffffffffffff169060200190929190803590602001908201803590602001908080601f01602080910402602001604051908101604052809392919081815260200183838082843782019150505050505091929192908035906020019092919080359060200190929190803590602001909291908035906020019092919080359060200190929190505050611f91565b005b348015610caa57600080fd5b50610cb36120fa565b604051808215151515815260200191505060405180910390f35b348015610cd957600080fd5b50610ce2612122565b6040518082815260200191505060405180910390f35b348015610d0457600080fd5b50610d39600480360381019080803573ffffffffffffffffffffffffffffffffffffffff169060200190929190505050612128565b6040518082815260200191505060405180910390f35b348015610d5b57600080fd5b50610d6461222d565b6040518082815260200191505060405180910390f35b348015610d8657600080fd5b50610d8f61229e565b6040518082815260200191505060405180910390f35b348015610db157600080fd5b50610de6600480360381019080803573ffffffffffffffffffffffffffffffffffffffff1690602001909291905050506122a8565b604051808215151515815260200191505060405180910390f35b348015610e0c57600080fd5b50610e156122f6565b6040518082815260200191505060405180910390f35b348015610e3757600080fd5b50610e406122fc565b604051808215151515815260200191505060405180910390f35b348015610e6657600080fd5b50610e9b600480360381019080803573ffffffffffffffffffffffffffffffffffffffff169060200190929190505050612308565b604051808760001916600019168152602001866002811115610eb957fe5b60ff168152602001858152602001848152602001838152602001828152602001965050505050505060405180910390f35b348015610ef657600080fd5b50610eff612351565b6040518082815260200191505060405180910390f35b348015610f2157600080fd5b50610f2a612432565b604051808215151515815260200191505060405180910390f35b348015610f5057600080fd5b50610f85600480360381019080803573ffffffffffffffffffffffffffffffffffffffff16906020019092919050505061243f565b005b348015610f9357600080fd5b50610fc8600480360381019080803573ffffffffffffffffffffffffffffffffffffffff1690602001909291905050506124a6565b6040518082815260200191505060405180910390f35b600080600260009054906101000a900473ffffffffffffffffffffffffffffffffffffffff1673ffffffffffffffffffffffffffffffffffffffff161415905090565b600080600e60008473ffffffffffffffffffffffffffffffffffffffff1673ffffffffffffffffffffffffffffffffffffffff1681526020019081526020016000206002015414159050919050565b6000806000905060028081111561108357fe5b600e60008573ffffffffffffffffffffffffffffffffffffffff1673ffffffffffffffffffffffffffffffffffffffff16815260200190815260200160002060010160009054906101000a900460ff1660028111156110de57fe5b141561112a57600e60008473ffffffffffffffffffffffffffffffffffffffff1673ffffffffffffffffffffffffffffffffffffffff1681526020019081526020016000206002015490505b80915050919050565b600080600061114061222d565b915061114b846115ad565b151561115a57600092506111bf565b6111626113a5565b156111775761117084611625565b9050611183565b61118084611070565b90505b60008111156111ba576111b3826111a56008548461259e90919063ffffffff16565b6126b090919063ffffffff16565b92506111bf565b600092505b5050919050565b60065481565b600b5481565b60055481565b6000806000809054906101000a900473ffffffffffffffffffffffffffffffffffffffff1673ffffffffffffffffffffffffffffffffffffffff163373ffffffffffffffffffffffffffffffffffffffff1614151561123657600080fd5b60009050611242611f78565b80156112545750611252836122a8565b155b80156112665750611264836114f6565b155b8015611277575061127683611021565b5b156113095742600e60008573ffffffffffffffffffffffffffffffffffffffff1673ffffffffffffffffffffffffffffffffffffffff16815260200190815260200160002060050181905550600e60008473ffffffffffffffffffffffffffffffffffffffff1673ffffffffffffffffffffffffffffffffffffffff1681526020019081526020016000206002015490505b80915050919050565b6000600a54905090565b600061132661156a565b80156113375750611335610fde565b155b1561134557600090506113a2565b61134d612432565b1561135b57600190506113a2565b611363611589565b1561137157600290506113a2565b611379611f78565b1561139d576113866113a5565b1561139457600490506113a2565b600390506113a2565b600490505b90565b6000600160028111156113b457fe5b6113bc61170f565b60028111156113c757fe5b14905090565b6000809054906101000a900473ffffffffffffffffffffffffffffffffffffffff1673ffffffffffffffffffffffffffffffffffffffff163373ffffffffffffffffffffffffffffffffffffffff1614151561142857600080fd5b611430612432565b151561143b57600080fd5b60008211151561144a57600080fd5b61145383611021565b15151561145f57600080fd5b80600e60008573ffffffffffffffffffffffffffffffffffffffff1673ffffffffffffffffffffffffffffffffffffffff168152602001908152602001600020600001816000191690555081600e60008573ffffffffffffffffffffffffffffffffffffffff1673ffffffffffffffffffffffffffffffffffffffff16815260200190815260200160002060020181905550505050565b600080600e60008473ffffffffffffffffffffffffffffffffffffffff1673ffffffffffffffffffffffffffffffffffffffff16815260200190815260200160002060050154119050919050565b600160009054906101000a900473ffffffffffffffffffffffffffffffffffffffff1681565b6000600454421115905090565b600080600c5411905090565b600c5481565b6000611593612432565b1580156115a257506007544211155b905090565b60095481565b60006115b761170f565b60028111156115c257fe5b600e60008473ffffffffffffffffffffffffffffffffffffffff1673ffffffffffffffffffffffffffffffffffffffff16815260200190815260200160002060010160009054906101000a900460ff16600281111561161d57fe5b149050919050565b600080600090506001600281111561163957fe5b600e60008573ffffffffffffffffffffffffffffffffffffffff1673ffffffffffffffffffffffffffffffffffffffff16815260200190815260200160002060010160009054906101000a900460ff16600281111561169457fe5b14156116e057600e60008473ffffffffffffffffffffffffffffffffffffffff1673ffffffffffffffffffffffffffffffffffffffff1681526020019081526020016000206002015490505b80915050919050565b600260009054906101000a900473ffffffffffffffffffffffffffffffffffffffff1681565b60008061171a611f78565b15156117295760009150611784565b611731611312565b905061175c61174b600b54836127ae90919063ffffffff16565b60095461259e90919063ffffffff16565b61177060648361259e90919063ffffffff16565b111561177f5760019150611784565b600291505b5090565b600060048081111561179657fe5b61179e61131c565b60048111156117a957fe5b14905090565b60085481565b60045481565b600080600e60008473ffffffffffffffffffffffffffffffffffffffff1673ffffffffffffffffffffffffffffffffffffffff16815260200190815260200160002060040154119050919050565b6000809054906101000a900473ffffffffffffffffffffffffffffffffffffffff1673ffffffffffffffffffffffffffffffffffffffff163373ffffffffffffffffffffffffffffffffffffffff1614151561186457600080fd5b6000809054906101000a900473ffffffffffffffffffffffffffffffffffffffff1673ffffffffffffffffffffffffffffffffffffffff167ff8df31144d9c2f0f6b59d69b8b98abd5459d07f2742c4df920b25aae33c6482060405160405180910390a260008060006101000a81548173ffffffffffffffffffffffffffffffffffffffff021916908373ffffffffffffffffffffffffffffffffffffffff160217905550565b73deaddeaddeaddeaddeaddeaddeaddeaddeaddead81565b6000806000809054906101000a900473ffffffffffffffffffffffffffffffffffffffff1673ffffffffffffffffffffffffffffffffffffffff163373ffffffffffffffffffffffffffffffffffffffff1614151561198157600080fd5b611989611589565b151561199457600080fd5b600e60008773ffffffffffffffffffffffffffffffffffffffff1673ffffffffffffffffffffffffffffffffffffffff16815260200190815260200160002060000154600019168560028111156119e757fe5b858560405160200180848152602001838380828437820191505093505050506040516020818303038152906040526040518082805190602001908083835b602083101515611a4a5780518252602082019150602081019050602083039250611a25565b6001836020036101000a038019825116818451168082178552505050505050905001915050604051809103902060001916141515611a8757600080fd5b611a90866122a8565b151515611a9c57600080fd5b42600e60008873ffffffffffffffffffffffffffffffffffffffff1673ffffffffffffffffffffffffffffffffffffffff16815260200190815260200160002060030181905550600e60008773ffffffffffffffffffffffffffffffffffffffff1673ffffffffffffffffffffffffffffffffffffffff16815260200190815260200160002060020154905084600e60008873ffffffffffffffffffffffffffffffffffffffff1673ffffffffffffffffffffffffffffffffffffffff16815260200190815260200160002060010160006101000a81548160ff02191690836002811115611b8657fe5b021790555060016002811115611b9857fe5b856002811115611ba457fe5b1415611bca57611bbf81600a546127ae90919063ffffffff16565b600a81905550611c0e565b600280811115611bd657fe5b856002811115611be257fe5b1415611c0857611bfd81600b546127ae90919063ffffffff16565b600b81905550611c0d565b600080fd5b5b80915050949350505050565b600080600160009054906101000a900473ffffffffffffffffffffffffffffffffffffffff1673ffffffffffffffffffffffffffffffffffffffff1663d0e30db06040518163ffffffff167c0100000000000000000000000000000000000000000000000000000000028152600401602060405180830381600087803b158015611ca357600080fd5b505af1158015611cb7573d6000803e3d6000fd5b505050506040513d6020811015611ccd57600080fd5b81019080805190602001909291905050509050611d07611cf8600854836128a390919063ffffffff16565b826127ae90919063ffffffff16565b91505090565b60038054600181600116156101000203166002900480601f016020809104026020016040519081016040528092919081815260200182805460018160011615610100020316600290048015611da35780601f10611d7857610100808354040283529160200191611da3565b820191906000526020600020905b815481529060010190602001808311611d8657829003601f168201915b505050505081565b60075481565b6000806000809054906101000a900473ffffffffffffffffffffffffffffffffffffffff1673ffffffffffffffffffffffffffffffffffffffff163373ffffffffffffffffffffffffffffffffffffffff16141515611e0f57600080fd5b60009050611e1b611f78565b8015611e2c5750611e2a6122fc565b155b8015611e3c5750611e3b6113a5565b5b8015611f3357508273ffffffffffffffffffffffffffffffffffffffff16600160009054906101000a900473ffffffffffffffffffffffffffffffffffffffff1673ffffffffffffffffffffffffffffffffffffffff166302d05d3f6040518163ffffffff167c0100000000000000000000000000000000000000000000000000000000028152600401602060405180830381600087803b158015611ee057600080fd5b505af1158015611ef4573d6000803e3d6000fd5b505050506040513d6020811015611f0a57600080fd5b810190808051906020019092919050505073ffffffffffffffffffffffffffffffffffffffff16145b15611f4a5742600d81905550611f47612351565b90505b80915050919050565b6000809054906101000a900473ffffffffffffffffffffffffffffffffffffffff1681565b600080600754118015611f8c575060075442115b905090565b600073ffffffffffffffffffffffffffffffffffffffff166000809054906101000a900473ffffffffffffffffffffffffffffffffffffffff1673ffffffffffffffffffffffffffffffffffffffff16141515611fed57600080fd5b87600160006101000a81548173ffffffffffffffffffffffffffffffffffffffff021916908373ffffffffffffffffffffffffffffffffffffffff160217905550336000806101000a81548173ffffffffffffffffffffffffffffffffffffffff021916908373ffffffffffffffffffffffffffffffffffffffff16021790555086600260006101000a81548173ffffffffffffffffffffffffffffffffffffffff021916908373ffffffffffffffffffffffffffffffffffffffff16021790555085600390805190602001906120c5929190612a92565b508460048190555083600581905550436006819055508260078190555081600881905550806009819055505050505050505050565b60006003600481111561210957fe5b61211161131c565b600481111561211c57fe5b14905090565b600a5481565b6000806000809054906101000a900473ffffffffffffffffffffffffffffffffffffffff1673ffffffffffffffffffffffffffffffffffffffff163373ffffffffffffffffffffffffffffffffffffffff1614151561218657600080fd5b60009050612192611f78565b80156121a357506121a1611577565b155b80156121b457506121b26113a5565b155b801561220d57508273ffffffffffffffffffffffffffffffffffffffff16600260009054906101000a900473ffffffffffffffffffffffffffffffffffffffff1673ffffffffffffffffffffffffffffffffffffffff16145b156122245742600c81905550612221611c1a565b90505b80915050919050565b60008061223861170f565b90506001600281111561224757fe5b81600281111561225357fe5b141561226857612261611312565b915061229a565b60028081111561227457fe5b81600281111561228057fe5b14156122955761228e61229e565b915061229a565b600091505b5090565b6000600b54905090565b600080600e60008473ffffffffffffffffffffffffffffffffffffffff1673ffffffffffffffffffffffffffffffffffffffff16815260200190815260200160002060030154119050919050565b600d5481565b600080600d5411905090565b600e6020528060005260406000206000915090508060000154908060010160009054906101000a900460ff16908060020154908060030154908060040154908060050154905086565b600080600160009054906101000a900473ffffffffffffffffffffffffffffffffffffffff1673ffffffffffffffffffffffffffffffffffffffff1663d0e30db06040518163ffffffff167c0100000000000000000000000000000000000000000000000000000000028152600401602060405180830381600087803b1580156123da57600080fd5b505af11580156123ee573d6000803e3d6000fd5b505050506040513d602081101561240457600080fd5b8101908080519060200190929190505050905061242c600854826128a390919063ffffffff16565b91505090565b6000600554421115905090565b6000809054906101000a900473ffffffffffffffffffffffffffffffffffffffff1673ffffffffffffffffffffffffffffffffffffffff163373ffffffffffffffffffffffffffffffffffffffff1614151561249a57600080fd5b6124a381612998565b50565b6000806000809054906101000a900473ffffffffffffffffffffffffffffffffffffffff1673ffffffffffffffffffffffffffffffffffffffff163373ffffffffffffffffffffffffffffffffffffffff1614151561250457600080fd5b60009050612510611f78565b80156125225750612520836117bb565b155b80156125335750612532836115ad565b5b156125955761254183611133565b905060008111156125945742600e60008573ffffffffffffffffffffffffffffffffffffffff1673ffffffffffffffffffffffffffffffffffffffff168152602001908152602001600020600401819055505b5b80915050919050565b60008060008414156125b357600091506126a9565b82840290508284828115156125c457fe5b04146040805190810160405280601181526020017f4d4154485f4d554c5f4f564552464c4f570000000000000000000000000000008152509015156126a4576040517f08c379a00000000000000000000000000000000000000000000000000000000081526004018080602001828103825283818151815260200191508051906020019080838360005b8381101561266957808201518184015260208101905061264e565b50505050905090810190601f1680156126965780820380516001836020036101000a031916815260200191505b509250505060405180910390fd5b508091505b5092915050565b600080600083116040805190810160405280600d81526020017f4d4154485f4449565f5a45524f00000000000000000000000000000000000000815250901515612795576040517f08c379a00000000000000000000000000000000000000000000000000000000081526004018080602001828103825283818151815260200191508051906020019080838360005b8381101561275a57808201518184015260208101905061273f565b50505050905090810190601f1680156127875780820380516001836020036101000a031916815260200191505b509250505060405180910390fd5b5082848115156127a157fe5b0490508091505092915050565b6000808284019050838110156040805190810160405280601181526020017f4d4154485f4144445f4f564552464c4f57000000000000000000000000000000815250901515612898576040517f08c379a00000000000000000000000000000000000000000000000000000000081526004018080602001828103825283818151815260200191508051906020019080838360005b8381101561285d578082015181840152602081019050612842565b50505050905090810190601f16801561288a5780820380516001836020036101000a031916815260200191505b509250505060405180910390fd5b508091505092915050565b600080838311156040805190810160405280601281526020017f4d4154485f5355425f554e444552464c4f570000000000000000000000000000815250901515612988576040517f08c379a00000000000000000000000000000000000000000000000000000000081526004018080602001828103825283818151815260200191508051906020019080838360005b8381101561294d578082015181840152602081019050612932565b50505050905090810190601f16801561297a5780820380516001836020036101000a031916815260200191505b509250505060405180910390fd5b5082840390508091505092915050565b600073ffffffffffffffffffffffffffffffffffffffff168173ffffffffffffffffffffffffffffffffffffffff16141515156129d457600080fd5b8073ffffffffffffffffffffffffffffffffffffffff166000809054906101000a900473ffffffffffffffffffffffffffffffffffffffff1673ffffffffffffffffffffffffffffffffffffffff167f8be0079c531659141344cd1fd0a4f28419497f9722a3daafe3b4186f6b6457e060405160405180910390a3806000806101000a81548173ffffffffffffffffffffffffffffffffffffffff021916908373ffffffffffffffffffffffffffffffffffffffff16021790555050565b828054600181600116156101000203166002900490600052602060002090601f016020900481019282601f10612ad357805160ff1916838001178555612b01565b82800160010185558215612b01579182015b82811115612b00578251825591602001919060010190612ae5565b5b509050612b0e9190612b12565b5090565b612b3491905b80821115612b30576000816000905550600101612b18565b5090565b905600a165627a7a723058205182e857f7fa3c12c67303bd58c9a26ecf8686d6e0771d2f189d9bbf67e5e5770029",
  "source": "pragma solidity ^0.4.24;\n\nimport \"./Registry.sol\";\nimport \"@aragon/os/contracts/lib/math/SafeMath.sol\";\nimport \"@aragon/apps-shared-minime/contracts/MiniMeToken.sol\";\nimport \"./ownership/Ownable.sol\";\nimport \"./StakeBank.sol\";\nimport \"./RegistryEntry.sol\";\n\ncontract Challenge is Ownable {\n\n  using SafeMath for uint;\n\n  MiniMeToken public constant registryToken = MiniMeToken(0xdeaDDeADDEaDdeaDdEAddEADDEAdDeadDEADDEaD);\n\n  enum VoteOption {Neither, Include, Exclude}\n\n  enum Status {ChallengePeriod, CommitPeriod, RevealPeriod, Blacklisted, Whitelisted}\n\n  struct Vote {\n    bytes32 secretHash;\n    VoteOption option;\n    uint amount;\n    uint revealedOn;\n    uint claimedRewardOn;\n    uint reclaimedVotesOn;\n  }\n\n  RegistryEntry public registryEntry;\n  address public challenger;\n  bytes public metaHash;\n  uint public challengePeriodEnd;\n  uint public commitPeriodEnd;\n  uint public creationBlock;\n  uint public revealPeriodEnd;\n  uint public rewardPool;\n  uint public voteQuorum;\n\n  uint public votesInclude;\n  uint public votesExclude;\n  uint public challengerRewardClaimedOn;\n  uint public creatorRewardClaimedOn;\n  mapping(address => Vote) public votes;\n\n\n  function construct(\n    RegistryEntry _registryEntry,\n    address _challenger,\n    bytes _metaHash,\n    uint _challengePeriodEnd,\n    uint _commitPeriodEnd,\n    uint _revealPeriodEnd,\n    uint _rewardPool,\n    uint _voteQuorum\n  )\n    public {\n    require(owner == address(0));\n    registryEntry = _registryEntry;\n    owner = msg.sender;\n    challenger = _challenger;\n    metaHash = _metaHash;\n    challengePeriodEnd = _challengePeriodEnd;\n    commitPeriodEnd = _commitPeriodEnd;\n    creationBlock = block.number;\n    revealPeriodEnd = _revealPeriodEnd;\n    rewardPool = _rewardPool;\n    voteQuorum = _voteQuorum;\n  }\n\n  function isVoteRevealPeriodActive()\n    public\n    view\n    returns (bool) {\n    return !isVoteCommitPeriodActive() && now <= revealPeriodEnd;\n  }\n\n  function isVoteRevealed(address _voter)\n    public\n    view\n    returns (bool) {\n    return votes[_voter].revealedOn > 0;\n  }\n\n  function isVoteRewardClaimed(address _voter)\n    public\n    view\n    returns (bool) {\n    return votes[_voter].claimedRewardOn > 0;\n  }\n\n  function areVotesReclaimed(address _voter)\n    public\n    view\n    returns (bool) {\n    return votes[_voter].reclaimedVotesOn > 0;\n  }\n\n  function isChallengeRewardClaimed()\n    public\n    view\n    returns (bool) {\n    return challengerRewardClaimedOn > 0;\n  }\n\n  function isCreatorRewardClaimed()\n    public\n    view\n    returns (bool) {\n    return creatorRewardClaimedOn > 0;\n  }\n\n  function isChallengePeriodActive()\n    public\n    view\n    returns (bool) {\n    return now <= challengePeriodEnd;\n  }\n\n  function isWhitelisted()\n    public\n    view\n    returns (bool) {\n    return status() == Status.Whitelisted;\n  }\n\n  function isVoteCommitPeriodActive()\n    public\n    view\n    returns (bool) {\n    return now <= commitPeriodEnd;\n  }\n\n  function isVoteRevealPeriodOver()\n    public\n    view\n    returns (bool) {\n    return revealPeriodEnd > 0 && now > revealPeriodEnd;\n  }\n\n  /**\n   * @dev Returns whether Include is winning vote option\n   *\n   * @return True if Include is winning option\n   */\n  function isWinningOptionInclude()\n    public\n    view\n    returns (bool) {\n    return winningVoteOption() == VoteOption.Include;\n  }\n\n  function hasVoted(address _voter)\n    public\n    view\n    returns (bool) {\n    return votes[_voter].amount != 0;\n  }\n\n  function wasChallenged()\n    public\n    view\n    returns (bool) {\n    return challenger != 0x0;\n  }\n\n  /**\n   * @dev Returns whether voter voted for winning vote option\n   * @param _voter Address of a voter\n   *\n   * @return True if voter voted for a winning vote option\n   */\n  function votedWinningVoteOption(address _voter)\n    public\n    view\n    returns (bool) {\n    return votes[_voter].option == winningVoteOption();\n  }\n\n  /**\n   * @dev Returns current status of a registry entry\n\n   * @return Status\n   */\n  function status()\n    public\n    view\n    returns (Status) {\n    if (isChallengePeriodActive() && !wasChallenged()) {\n      return Status.ChallengePeriod;\n    } else if (isVoteCommitPeriodActive()) {\n      return Status.CommitPeriod;\n    } else if (isVoteRevealPeriodActive()) {\n      return Status.RevealPeriod;\n    } else if (isVoteRevealPeriodOver()) {\n      if (isWinningOptionInclude()) {\n        return Status.Whitelisted;\n      } else {\n        return Status.Blacklisted;\n      }\n    } else {\n      return Status.Whitelisted;\n    }\n  }\n\n  /**\n   * @dev Returns token reward amount belonging to a challenger\n   *\n   * @return Amount of token\n   */\n  function challengerReward()\n    public\n    view\n    returns (uint) {\n    uint deposit = registryEntry.deposit();\n    return deposit.add(deposit.sub(rewardPool));\n  }\n\n  function creatorReward()\n    public\n    view\n    returns (uint) {\n    uint deposit = registryEntry.deposit();\n    return deposit.sub(rewardPool);\n  }\n\n  function voteOptionIncludeVoterAmount(address _voter)\n    public\n    view\n    returns (uint)\n  {\n    uint amount = 0;\n    if (votes[_voter].option == VoteOption.Include) {\n      amount = votes[_voter].amount;\n    }\n    return amount;\n  }\n\n  function voteOptionExcludeVoterAmount(address _voter)\n    public\n    view\n    returns (uint)\n  {\n    uint amount = 0;\n    if (votes[_voter].option == VoteOption.Exclude) {\n      amount = votes[_voter].amount;\n    }\n    return amount;\n  }\n\n  /**\n   * @dev Returns token reward amount belonging to a voter for voting for a winning option\n   * @param _voter Address of a voter\n   *\n   * @return Amount of tokens\n   */\n  function voteReward(address _voter)\n    public\n    view\n    returns (uint) {\n    uint winningAmount = winningVoteOptionAmount();\n    if (!votedWinningVoteOption(_voter)) {\n      return 0;\n    }\n    uint voterAmount;\n    if (isWinningOptionInclude()) {\n      voterAmount = voteOptionIncludeVoterAmount(_voter);\n    } else {\n      voterAmount = voteOptionExcludeVoterAmount(_voter);\n    }\n\n    if (voterAmount > 0) {\n      return (voterAmount.mul(rewardPool)).div(winningAmount);\n    } else {\n      return 0;\n    }\n  }\n\n  function isBlacklisted()\n    public\n    view\n    returns (bool) {\n    return status() == Status.Blacklisted;\n  }\n\n  function voteOptionIncludeAmount()\n    public\n    view\n    returns (uint) {\n    return votesInclude;\n  }\n\n  function voteOptionExcludeAmount()\n    public\n    view\n    returns (uint) {\n    return votesExclude;\n  }\n\n  /**\n   * @dev Returns winning vote option in held voting according to vote quorum\n   * If voteQuorum is 50, any majority of votes will win\n   * If voteQuorum is 24, only 25 votes out of 100 is enough for Include to be winning option\n   *\n   * @return Winning vote option\n   */\n  function winningVoteOption()\n    public\n    view\n    returns (VoteOption) {\n    if (!isVoteRevealPeriodOver()) {\n      return VoteOption.Neither;\n    }\n    uint _voteOptionIncludeAmount = voteOptionIncludeAmount();\n    if (_voteOptionIncludeAmount.mul(100) > voteQuorum.mul(_voteOptionIncludeAmount.add(votesExclude))) {\n      return VoteOption.Include;\n    } else {\n      return VoteOption.Exclude;\n    }\n  }\n\n  /**\n   * @dev Returns amount of votes for winning vote option\n   *\n   * @return Amount of votes\n   */\n  function winningVoteOptionAmount()\n    public\n    view\n    returns (uint) {\n    VoteOption voteOption = winningVoteOption();\n    if (voteOption == VoteOption.Include) {\n      return voteOptionIncludeAmount();\n    } else if (voteOption == VoteOption.Exclude) {\n      return voteOptionExcludeAmount();\n    } else {\n      return 0;\n    }\n  }\n\n  function commitVote(\n    address _voter,\n    uint _amount,\n    bytes32 _secretHash\n  )\n    external\n    onlyOwner\n  {\n    require(isVoteCommitPeriodActive());\n    require(_amount > 0);\n    require(!hasVoted(_voter));\n    votes[_voter].secretHash = _secretHash;\n    votes[_voter].amount = _amount;\n  }\n\n  function revealVote(\n    address _voter,\n    VoteOption _voteOption,\n    string _salt\n  )\n    external\n    onlyOwner\n    returns (uint)\n  {\n    require(isVoteRevealPeriodActive());\n    require(keccak256(abi.encodePacked(uint(_voteOption), _salt)) == votes[_voter].secretHash);\n    require(!isVoteRevealed(_voter));\n    votes[_voter].revealedOn = now;\n    uint amount = votes[_voter].amount;\n    votes[_voter].option = _voteOption;\n    if (_voteOption == VoteOption.Include) {\n      votesInclude = votesInclude.add(amount);\n    } else if (_voteOption == VoteOption.Exclude) {\n      votesExclude = votesExclude.add(amount);\n    } else {\n      revert();\n    }\n    return amount;\n  }\n\n  function safeReclaimVotes(address _voter)\n    external\n    onlyOwner\n    returns (uint)\n  {\n    uint amount = 0;\n    if (isVoteRevealPeriodOver() &&\n        !isVoteRevealed(_voter) &&\n        !areVotesReclaimed(_voter) &&\n        hasVoted(_voter)\n    ) {\n      votes[_voter].reclaimedVotesOn = now;\n      amount = votes[_voter].amount;\n    }\n    return amount;\n  }\n\n  function safeClaimVoteReward(address _voter)\n    external\n    onlyOwner\n    returns (uint)\n  {\n    uint reward = 0;\n    if (isVoteRevealPeriodOver() &&\n      !isVoteRewardClaimed(_voter) &&\n      votedWinningVoteOption(_voter)\n    ) {\n      reward = voteReward(_voter);\n      if (reward > 0) {\n        votes[_voter].claimedRewardOn = now;\n      }\n    }\n    return reward;\n  }\n\n  function safeClaimChallengerReward(address _user)\n    external\n    onlyOwner\n    returns (uint)\n  {\n    uint reward = 0;\n    if (isVoteRevealPeriodOver() &&\n      !isChallengeRewardClaimed() &&\n      !isWinningOptionInclude() &&\n      challenger == _user\n    ) {\n      challengerRewardClaimedOn = now;\n      reward = challengerReward();\n    }\n    return reward;\n  }\n\n  function safeClaimCreatorReward(address _user)\n    external\n    onlyOwner\n    returns (uint)\n  {\n    uint reward = 0;\n    if (isVoteRevealPeriodOver() &&\n      !isCreatorRewardClaimed() &&\n      isWinningOptionInclude() &&\n      registryEntry.creator() == _user\n    ) {\n      creatorRewardClaimedOn = now;\n      reward = creatorReward();\n    }\n    return reward;\n  }\n}\n\n\n",
  "sourcePath": "/Users/matus/www/district0x/district-registry/contracts/Challenge.sol",
  "compiler": {
    "name": "solc",
    "version": "0.4.24+commit.e67f0147.Emscripten.clang"
  },
  "schemaVersion": "3.0.11",
  "updatedAt": "2019-07-23T10:27:14.480Z",
  "devdoc": {
    "methods": {
      "challengerReward()": {
        "details": "Returns token reward amount belonging to a challenger",
        "return": "Amount of token"
      },
      "isWinningOptionInclude()": {
        "details": "Returns whether Include is winning vote option",
        "return": "True if Include is winning option"
      },
      "renounceOwnership()": {
        "details": "Allows the current owner to relinquish control of the contract."
      },
      "status()": {
        "details": "Returns current status of a registry entry",
        "return": "Status"
      },
      "transferOwnership(address)": {
        "details": "Allows the current owner to transfer control of the contract to a newOwner.",
        "params": {
          "_newOwner": "The address to transfer ownership to."
        }
      },
      "voteReward(address)": {
        "details": "Returns token reward amount belonging to a voter for voting for a winning option",
        "params": {
          "_voter": "Address of a voter"
        },
        "return": "Amount of tokens"
      },
      "votedWinningVoteOption(address)": {
        "details": "Returns whether voter voted for winning vote option",
        "params": {
          "_voter": "Address of a voter"
        },
        "return": "True if voter voted for a winning vote option"
      },
      "winningVoteOption()": {
        "details": "Returns winning vote option in held voting according to vote quorum If voteQuorum is 50, any majority of votes will win If voteQuorum is 24, only 25 votes out of 100 is enough for Include to be winning option",
        "return": "Winning vote option"
      },
      "winningVoteOptionAmount()": {
        "details": "Returns amount of votes for winning vote option",
        "return": "Amount of votes"
      }
    }
  },
  "userdoc": {
    "methods": {
      "renounceOwnership()": {
        "notice": "Renouncing to ownership will leave the contract without an owner. It will not be possible to call the functions with the `onlyOwner` modifier anymore."
      }
    }
  }
}