{
  "contractName": "DistrictRegistryDb",
  "abi": [
    {
      "constant": false,
      "inputs": [
        {
          "name": "owner_",
          "type": "address"
        }
      ],
      "name": "setOwner",
      "outputs": [],
      "payable": false,
      "stateMutability": "nonpayable",
      "type": "function"
    },
    {
      "constant": false,
      "inputs": [
        {
          "name": "authority_",
          "type": "address"
        }
      ],
      "name": "setAuthority",
      "outputs": [],
      "payable": false,
      "stateMutability": "nonpayable",
      "type": "function"
    },
    {
      "constant": true,
      "inputs": [],
      "name": "owner",
      "outputs": [
        {
          "name": "",
          "type": "address"
        }
      ],
      "payable": false,
      "stateMutability": "view",
      "type": "function"
    },
    {
      "constant": true,
      "inputs": [],
      "name": "authority",
      "outputs": [
        {
          "name": "",
          "type": "address"
        }
      ],
      "payable": false,
      "stateMutability": "view",
      "type": "function"
    },
    {
      "anonymous": false,
      "inputs": [
        {
          "indexed": false,
          "name": "records",
          "type": "bytes32[]"
        },
        {
          "indexed": false,
          "name": "values",
          "type": "uint256[]"
        },
        {
          "indexed": false,
          "name": "timestamp",
          "type": "uint256"
        }
      ],
      "name": "EternalDbEvent",
      "type": "event"
    },
    {
      "anonymous": false,
      "inputs": [
        {
          "indexed": true,
          "name": "authority",
          "type": "address"
        }
      ],
      "name": "LogSetAuthority",
      "type": "event"
    },
    {
      "anonymous": false,
      "inputs": [
        {
          "indexed": true,
          "name": "owner",
          "type": "address"
        }
      ],
      "name": "LogSetOwner",
      "type": "event"
    },
    {
      "constant": true,
      "inputs": [
        {
          "name": "record",
          "type": "bytes32"
        }
      ],
      "name": "getUIntValue",
      "outputs": [
        {
          "name": "",
          "type": "uint256"
        }
      ],
      "payable": false,
      "stateMutability": "view",
      "type": "function"
    },
    {
      "constant": true,
      "inputs": [
        {
          "name": "records",
          "type": "bytes32[]"
        }
      ],
      "name": "getUIntValues",
      "outputs": [
        {
          "name": "results",
          "type": "uint256[]"
        }
      ],
      "payable": false,
      "stateMutability": "view",
      "type": "function"
    },
    {
      "constant": false,
      "inputs": [
        {
          "name": "record",
          "type": "bytes32"
        },
        {
          "name": "value",
          "type": "uint256"
        }
      ],
      "name": "setUIntValue",
      "outputs": [],
      "payable": false,
      "stateMutability": "nonpayable",
      "type": "function"
    },
    {
      "constant": false,
      "inputs": [
        {
          "name": "records",
          "type": "bytes32[]"
        },
        {
          "name": "values",
          "type": "uint256[]"
        }
      ],
      "name": "setUIntValues",
      "outputs": [],
      "payable": false,
      "stateMutability": "nonpayable",
      "type": "function"
    },
    {
      "constant": false,
      "inputs": [
        {
          "name": "record",
          "type": "bytes32"
        }
      ],
      "name": "deleteUIntValue",
      "outputs": [],
      "payable": false,
      "stateMutability": "nonpayable",
      "type": "function"
    },
    {
      "constant": true,
      "inputs": [
        {
          "name": "record",
          "type": "bytes32"
        }
      ],
      "name": "getStringValue",
      "outputs": [
        {
          "name": "",
          "type": "string"
        }
      ],
      "payable": false,
      "stateMutability": "view",
      "type": "function"
    },
    {
      "constant": false,
      "inputs": [
        {
          "name": "record",
          "type": "bytes32"
        },
        {
          "name": "value",
          "type": "string"
        }
      ],
      "name": "setStringValue",
      "outputs": [],
      "payable": false,
      "stateMutability": "nonpayable",
      "type": "function"
    },
    {
      "constant": false,
      "inputs": [
        {
          "name": "record",
          "type": "bytes32"
        }
      ],
      "name": "deleteStringValue",
      "outputs": [],
      "payable": false,
      "stateMutability": "nonpayable",
      "type": "function"
    },
    {
      "constant": true,
      "inputs": [
        {
          "name": "record",
          "type": "bytes32"
        }
      ],
      "name": "getAddressValue",
      "outputs": [
        {
          "name": "",
          "type": "address"
        }
      ],
      "payable": false,
      "stateMutability": "view",
      "type": "function"
    },
    {
      "constant": false,
      "inputs": [
        {
          "name": "records",
          "type": "bytes32[]"
        },
        {
          "name": "values",
          "type": "address[]"
        }
      ],
      "name": "setAddressValues",
      "outputs": [],
      "payable": false,
      "stateMutability": "nonpayable",
      "type": "function"
    },
    {
      "constant": false,
      "inputs": [
        {
          "name": "record",
          "type": "bytes32"
        },
        {
          "name": "value",
          "type": "address"
        }
      ],
      "name": "setAddressValue",
      "outputs": [],
      "payable": false,
      "stateMutability": "nonpayable",
      "type": "function"
    },
    {
      "constant": false,
      "inputs": [
        {
          "name": "record",
          "type": "bytes32"
        }
      ],
      "name": "deleteAddressValue",
      "outputs": [],
      "payable": false,
      "stateMutability": "nonpayable",
      "type": "function"
    },
    {
      "constant": true,
      "inputs": [
        {
          "name": "record",
          "type": "bytes32"
        }
      ],
      "name": "getBytesValue",
      "outputs": [
        {
          "name": "",
          "type": "bytes"
        }
      ],
      "payable": false,
      "stateMutability": "view",
      "type": "function"
    },
    {
      "constant": false,
      "inputs": [
        {
          "name": "record",
          "type": "bytes32"
        },
        {
          "name": "value",
          "type": "bytes"
        }
      ],
      "name": "setBytesValue",
      "outputs": [],
      "payable": false,
      "stateMutability": "nonpayable",
      "type": "function"
    },
    {
      "constant": false,
      "inputs": [
        {
          "name": "record",
          "type": "bytes32"
        }
      ],
      "name": "deleteBytesValue",
      "outputs": [],
      "payable": false,
      "stateMutability": "nonpayable",
      "type": "function"
    },
    {
      "constant": true,
      "inputs": [
        {
          "name": "record",
          "type": "bytes32"
        }
      ],
      "name": "getBytes32Value",
      "outputs": [
        {
          "name": "",
          "type": "bytes32"
        }
      ],
      "payable": false,
      "stateMutability": "view",
      "type": "function"
    },
    {
      "constant": true,
      "inputs": [
        {
          "name": "records",
          "type": "bytes32[]"
        }
      ],
      "name": "getBytes32Values",
      "outputs": [
        {
          "name": "results",
          "type": "bytes32[]"
        }
      ],
      "payable": false,
      "stateMutability": "view",
      "type": "function"
    },
    {
      "constant": false,
      "inputs": [
        {
          "name": "record",
          "type": "bytes32"
        },
        {
          "name": "value",
          "type": "bytes32"
        }
      ],
      "name": "setBytes32Value",
      "outputs": [],
      "payable": false,
      "stateMutability": "nonpayable",
      "type": "function"
    },
    {
      "constant": false,
      "inputs": [
        {
          "name": "records",
          "type": "bytes32[]"
        },
        {
          "name": "values",
          "type": "bytes32[]"
        }
      ],
      "name": "setBytes32Values",
      "outputs": [],
      "payable": false,
      "stateMutability": "nonpayable",
      "type": "function"
    },
    {
      "constant": false,
      "inputs": [
        {
          "name": "record",
          "type": "bytes32"
        }
      ],
      "name": "deleteBytes32Value",
      "outputs": [],
      "payable": false,
      "stateMutability": "nonpayable",
      "type": "function"
    },
    {
      "constant": true,
      "inputs": [
        {
          "name": "record",
          "type": "bytes32"
        }
      ],
      "name": "getBooleanValue",
      "outputs": [
        {
          "name": "",
          "type": "bool"
        }
      ],
      "payable": false,
      "stateMutability": "view",
      "type": "function"
    },
    {
      "constant": true,
      "inputs": [
        {
          "name": "records",
          "type": "bytes32[]"
        }
      ],
      "name": "getBooleanValues",
      "outputs": [
        {
          "name": "results",
          "type": "bool[]"
        }
      ],
      "payable": false,
      "stateMutability": "view",
      "type": "function"
    },
    {
      "constant": false,
      "inputs": [
        {
          "name": "record",
          "type": "bytes32"
        },
        {
          "name": "value",
          "type": "bool"
        }
      ],
      "name": "setBooleanValue",
      "outputs": [],
      "payable": false,
      "stateMutability": "nonpayable",
      "type": "function"
    },
    {
      "constant": false,
      "inputs": [
        {
          "name": "records",
          "type": "bytes32[]"
        },
        {
          "name": "values",
          "type": "bool[]"
        }
      ],
      "name": "setBooleanValues",
      "outputs": [],
      "payable": false,
      "stateMutability": "nonpayable",
      "type": "function"
    },
    {
      "constant": false,
      "inputs": [
        {
          "name": "record",
          "type": "bytes32"
        }
      ],
      "name": "deleteBooleanValue",
      "outputs": [],
      "payable": false,
      "stateMutability": "nonpayable",
      "type": "function"
    },
    {
      "constant": true,
      "inputs": [
        {
          "name": "record",
          "type": "bytes32"
        }
      ],
      "name": "getIntValue",
      "outputs": [
        {
          "name": "",
          "type": "int256"
        }
      ],
      "payable": false,
      "stateMutability": "view",
      "type": "function"
    },
    {
      "constant": true,
      "inputs": [
        {
          "name": "records",
          "type": "bytes32[]"
        }
      ],
      "name": "getIntValues",
      "outputs": [
        {
          "name": "results",
          "type": "int256[]"
        }
      ],
      "payable": false,
      "stateMutability": "view",
      "type": "function"
    },
    {
      "constant": false,
      "inputs": [
        {
          "name": "record",
          "type": "bytes32"
        },
        {
          "name": "value",
          "type": "int256"
        }
      ],
      "name": "setIntValue",
      "outputs": [],
      "payable": false,
      "stateMutability": "nonpayable",
      "type": "function"
    },
    {
      "constant": false,
      "inputs": [
        {
          "name": "records",
          "type": "bytes32[]"
        },
        {
          "name": "values",
          "type": "int256[]"
        }
      ],
      "name": "setIntValues",
      "outputs": [],
      "payable": false,
      "stateMutability": "nonpayable",
      "type": "function"
    },
    {
      "constant": false,
      "inputs": [
        {
          "name": "record",
          "type": "bytes32"
        }
      ],
      "name": "deleteIntValue",
      "outputs": [],
      "payable": false,
      "stateMutability": "nonpayable",
      "type": "function"
    }
  ],
  "bytecode": "0x608060405233600160006101000a81548173ffffffffffffffffffffffffffffffffffffffff021916908373ffffffffffffffffffffffffffffffffffffffff1602179055503373ffffffffffffffffffffffffffffffffffffffff167fce241d7ca1f669fee44b6fc00b8eba2df3bb514eed0f6f668f8f89096e81ed9460405160405180910390a261269e806100976000396000f3006080604052600436106101ac576000357c0100000000000000000000000000000000000000000000000000000000900463ffffffff168063025ec81a146101b1578063043106c0146101fe5780630c55d9251461022f578063124f24181461026057806313af403514610291578063165a92a4146102d457806317e7dd221461038f5780631b662b90146103d857806325cf512d146104815780632d17d9c7146104c05780633562fd201461056957806338268bb5146105a45780633cc1635c1461064d5780633eba9ed21461067e57806344bfa56e146106bb57806346bb98c5146107655780634c77e5ba1461080e5780635a2bf25a1461087f5780635bf78df1146108d057806365806d281461098b5780637a9e5e4b14610a465780638267a9ee14610a895780638da5cb5b14610aba5780639007127b14610b1157806393fe424814610b56578063a209a29c14610b87578063a77aa49e14610c31578063ab401ab614610c6c578063ba69fcaa14610d15578063bdc963d814610d46578063bf7e214f14610d8b578063c9a52d2c14610de2578063cde4992f14610e59578063f586606614610f14575b600080fd5b3480156101bd57600080fd5b506101e06004803603810190808035600019169060200190929190505050610f8b565b60405180826000191660001916815260200191505060405180910390f35b34801561020a57600080fd5b5061022d6004803603810190808035600019169060200190929190505050610fb0565b005b34801561023b57600080fd5b5061025e600480360381019080803560001916906020019092919050505061102a565b005b34801561026c57600080fd5b5061028f600480360381019080803560001916906020019092919050505061108d565b005b34801561029d57600080fd5b506102d2600480360381019080803573ffffffffffffffffffffffffffffffffffffffff1690602001909291905050506110e8565b005b3480156102e057600080fd5b50610338600480360381019080803590602001908201803590602001908080602002602001604051908101604052809392919081815260200183836020028082843782019150505050505091929192905050506111ca565b6040518080602001828103825283818151815260200191508051906020019060200280838360005b8381101561037b578082015181840152602081019050610360565b505050509050019250505060405180910390f35b34801561039b57600080fd5b506103be6004803603810190808035600019169060200190929190505050611271565b604051808215151515815260200191505060405180910390f35b3480156103e457600080fd5b5061047f60048036038101908080359060200190820180359060200190808060200260200160405190810160405280939291908181526020018383602002808284378201915050505050509192919290803590602001908201803590602001908080602002602001604051908101604052809392919081815260200183836020028082843782019150505050505091929192905050506112a3565b005b34801561048d57600080fd5b506104be6004803603810190808035600019169060200190929190803560001916906020019092919050505061134c565b005b3480156104cc57600080fd5b5061056760048036038101908080359060200190820180359060200190808060200260200160405190810160405280939291908181526020018383602002808284378201915050505050509192919290803590602001908201803590602001908080602002602001604051908101604052809392919081815260200183836020028082843782019150505050505091929192905050506113ad565b005b34801561057557600080fd5b506105a260048036038101908080356000191690602001909291908035906020019092919050505061151f565b005b3480156105b057600080fd5b5061064b60048036038101908080359060200190820180359060200190808060200260200160405190810160405280939291908181526020018383602002808284378201915050505050509192919290803590602001908201803590602001908080602002602001604051908101604052809392919081815260200183836020028082843782019150505050505091929192905050506116f6565b005b34801561065957600080fd5b5061067c60048036038101908080356000191690602001909291905050506117d9565b005b34801561068a57600080fd5b506106b96004803603810190808035600019169060200190929190803515159060200190929190505050611840565b005b3480156106c757600080fd5b506106ea60048036038101908080356000191690602001909291905050506118b0565b6040518080602001828103825283818151815260200191508051906020019080838360005b8381101561072a57808201518184015260208101905061070f565b50505050905090810190601f1680156107575780820380516001836020036101000a031916815260200191505b509250505060405180910390f35b34801561077157600080fd5b5061080c600480360381019080803590602001908201803590602001908080602002602001604051908101604052809392919081815260200183836020028082843782019150505050505091929192908035906020019082018035906020019080806020026020016040519081016040528093929190818152602001838360200280828437820191505050505050919291929050505061196d565b005b34801561081a57600080fd5b5061083d6004803603810190808035600019169060200190929190505050611a1a565b604051808273ffffffffffffffffffffffffffffffffffffffff1673ffffffffffffffffffffffffffffffffffffffff16815260200191505060405180910390f35b34801561088b57600080fd5b506108ce6004803603810190808035600019169060200190929190803573ffffffffffffffffffffffffffffffffffffffff169060200190929190505050611a5f565b005b3480156108dc57600080fd5b5061093460048036038101908080359060200190820180359060200190808060200260200160405190810160405280939291908181526020018383602002808284378201915050505050509192919290505050611af6565b6040518080602001828103825283818151815260200191508051906020019060200280838360005b8381101561097757808201518184015260208101905061095c565b505050509050019250505060405180910390f35b34801561099757600080fd5b506109ef60048036038101908080359060200190820180359060200190808060200260200160405190810160405280939291908181526020018383602002808284378201915050505050509192919290505050611ba7565b6040518080602001828103825283818151815260200191508051906020019060200280838360005b83811015610a32578082015181840152602081019050610a17565b505050509050019250505060405180910390f35b348015610a5257600080fd5b50610a87600480360381019080803573ffffffffffffffffffffffffffffffffffffffff169060200190929190505050611c4e565b005b348015610a9557600080fd5b50610ab86004803603810190808035600019169060200190929190505050611d2e565b005b348015610ac657600080fd5b50610acf611d89565b604051808273ffffffffffffffffffffffffffffffffffffffff1673ffffffffffffffffffffffffffffffffffffffff16815260200191505060405180910390f35b348015610b1d57600080fd5b50610b406004803603810190808035600019169060200190929190505050611daf565b6040518082815260200191505060405180910390f35b348015610b6257600080fd5b50610b856004803603810190808035600019169060200190929190505050611dd4565b005b348015610b9357600080fd5b50610bb66004803603810190808035600019169060200190929190505050611e2f565b6040518080602001828103825283818151815260200191508051906020019080838360005b83811015610bf6578082015181840152602081019050610bdb565b50505050905090810190601f168015610c235780820380516001836020036101000a031916815260200191505b509250505060405180910390f35b348015610c3d57600080fd5b50610c6a600480360381019080803560001916906020019092919080359060200190929190505050611eec565b005b348015610c7857600080fd5b50610d136004803603810190808035906020019082018035906020019080806020026020016040519081016040528093929190818152602001838360200280828437820191505050505050919291929080359060200190820180359060200190808060200260200160405190810160405280939291908181526020018383602002808284378201915050505050509192919290505050611f49565b005b348015610d2157600080fd5b50610d446004803603810190808035600019169060200190929190505050612005565b005b348015610d5257600080fd5b50610d756004803603810190808035600019169060200190929190505050612068565b6040518082815260200191505060405180910390f35b348015610d9757600080fd5b50610da061208d565b604051808273ffffffffffffffffffffffffffffffffffffffff1673ffffffffffffffffffffffffffffffffffffffff16815260200191505060405180910390f35b348015610dee57600080fd5b50610e576004803603810190808035600019169060200190929190803590602001908201803590602001908080601f01602080910402602001604051908101604052809392919081815260200183838082843782019150505050505091929192905050506120b2565b005b348015610e6557600080fd5b50610ebd6004803603810190808035906020019082018035906020019080806020026020016040519081016040528093929190818152602001838360200280828437820191505050505050919291929050505061211f565b6040518080602001828103825283818151815260200191508051906020019060200280838360005b83811015610f00578082015181840152602081019050610ee5565b505050509050019250505060405180910390f35b348015610f2057600080fd5b50610f896004803603810190808035600019169060200190929190803590602001908201803590602001908080601f01602080910402602001604051908101604052809392919081815260200183838082843782019150505050505091929192905050506121d9565b005b6000600660008360001916600019168152602001908152602001600020549050919050565b610fde336000357fffffffff0000000000000000000000000000000000000000000000000000000016612246565b1515610fe957600080fd5b60046000826000191660001916815260200190815260200160002060006101000a81549073ffffffffffffffffffffffffffffffffffffffff021916905550565b611058336000357fffffffff0000000000000000000000000000000000000000000000000000000016612246565b151561106357600080fd5b600560008260001916600019168152602001908152602001600020600061108a91906124bd565b50565b6110bb336000357fffffffff0000000000000000000000000000000000000000000000000000000016612246565b15156110c657600080fd5b6006600082600019166000191681526020019081526020016000206000905550565b611116336000357fffffffff0000000000000000000000000000000000000000000000000000000016612246565b151561112157600080fd5b80600160006101000a81548173ffffffffffffffffffffffffffffffffffffffff021916908373ffffffffffffffffffffffffffffffffffffffff160217905550600160009054906101000a900473ffffffffffffffffffffffffffffffffffffffff1673ffffffffffffffffffffffffffffffffffffffff167fce241d7ca1f669fee44b6fc00b8eba2df3bb514eed0f6f668f8f89096e81ed9460405160405180910390a250565b6060600082516040519080825280602002602001820160405280156111fe5781602001602082028038833980820191505090505b509150600090505b825181101561126b5760086000848381518110151561122157fe5b906020019060200201516000191660001916815260200190815260200160002054828281518110151561125057fe5b90602001906020020181815250508080600101915050611206565b50919050565b600060076000836000191660001916815260200190815260200160002060009054906101000a900460ff169050919050565b60006112d3336000357fffffffff0000000000000000000000000000000000000000000000000000000016612246565b15156112de57600080fd5b600090505b82518110156113475781818151811015156112fa57fe5b9060200190602002015160086000858481518110151561131657fe5b90602001906020020151600019166000191681526020019081526020016000208190555080806001019150506112e3565b505050565b61137a336000357fffffffff0000000000000000000000000000000000000000000000000000000016612246565b151561138557600080fd5b8060066000846000191660001916815260200190815260200160002081600019169055505050565b60006113dd336000357fffffffff0000000000000000000000000000000000000000000000000000000016612246565b15156113e857600080fd5b600090505b825181101561145157818181518110151561140457fe5b9060200190602002015160026000858481518110151561142057fe5b90602001906020020151600019166000191681526020019081526020016000208190555080806001019150506113ed565b7fb358e38e8dfe231460323dad5e35a1197ac831195b662c4da03a02713b9e3688838342604051808060200180602001848152602001838103835286818151815260200191508051906020019060200280838360005b838110156114c25780820151818401526020810190506114a7565b50505050905001838103825285818151815260200191508051906020019060200280838360005b838110156115045780820151818401526020810190506114e9565b505050509050019550505050505060405180910390a1505050565b606080611550336000357fffffffff0000000000000000000000000000000000000000000000000000000016612246565b151561155b57600080fd5b826002600086600019166000191681526020019081526020016000208190555060016040519080825280602002602001820160405280156115ab5781602001602082028038833980820191505090505b509150838260008151811015156115be57fe5b90602001906020020190600019169081600019168152505060016040519080825280602002602001820160405280156116065781602001602082028038833980820191505090505b5090508281600081518110151561161957fe5b90602001906020020181815250507fb358e38e8dfe231460323dad5e35a1197ac831195b662c4da03a02713b9e3688828242604051808060200180602001848152602001838103835286818151815260200191508051906020019060200280838360005b8381101561169857808201518184015260208101905061167d565b50505050905001838103825285818151815260200191508051906020019060200280838360005b838110156116da5780820151818401526020810190506116bf565b505050509050019550505050505060405180910390a150505050565b6000611726336000357fffffffff0000000000000000000000000000000000000000000000000000000016612246565b151561173157600080fd5b600090505b82518110156117d457818181518110151561174d57fe5b9060200190602002015160046000858481518110151561176957fe5b906020019060200201516000191660001916815260200190815260200160002060006101000a81548173ffffffffffffffffffffffffffffffffffffffff021916908373ffffffffffffffffffffffffffffffffffffffff1602179055508080600101915050611736565b505050565b611807336000357fffffffff0000000000000000000000000000000000000000000000000000000016612246565b151561181257600080fd5b60076000826000191660001916815260200190815260200160002060006101000a81549060ff021916905550565b61186e336000357fffffffff0000000000000000000000000000000000000000000000000000000016612246565b151561187957600080fd5b8060076000846000191660001916815260200190815260200160002060006101000a81548160ff0219169083151502179055505050565b60606005600083600019166000191681526020019081526020016000208054600181600116156101000203166002900480601f0160208091040260200160405190810160405280929190818152602001828054600181600116156101000203166002900480156119615780601f1061193657610100808354040283529160200191611961565b820191906000526020600020905b81548152906001019060200180831161194457829003601f168201915b50505050509050919050565b600061199d336000357fffffffff0000000000000000000000000000000000000000000000000000000016612246565b15156119a857600080fd5b600090505b8251811015611a155781818151811015156119c457fe5b906020019060200201516006600085848151811015156119e057fe5b9060200190602002015160001916600019168152602001908152602001600020816000191690555080806001019150506119ad565b505050565b600060046000836000191660001916815260200190815260200160002060009054906101000a900473ffffffffffffffffffffffffffffffffffffffff169050919050565b611a8d336000357fffffffff0000000000000000000000000000000000000000000000000000000016612246565b1515611a9857600080fd5b8060046000846000191660001916815260200190815260200160002060006101000a81548173ffffffffffffffffffffffffffffffffffffffff021916908373ffffffffffffffffffffffffffffffffffffffff1602179055505050565b606060008251604051908082528060200260200182016040528015611b2a5781602001602082028038833980820191505090505b509150600090505b8251811015611ba157600660008483815181101515611b4d57fe5b9060200190602002015160001916600019168152602001908152602001600020548282815181101515611b7c57fe5b9060200190602002019060001916908160001916815250508080600101915050611b32565b50919050565b606060008251604051908082528060200260200182016040528015611bdb5781602001602082028038833980820191505090505b509150600090505b8251811015611c4857600260008483815181101515611bfe57fe5b9060200190602002015160001916600019168152602001908152602001600020548282815181101515611c2d57fe5b90602001906020020181815250508080600101915050611be3565b50919050565b611c7c336000357fffffffff0000000000000000000000000000000000000000000000000000000016612246565b1515611c8757600080fd5b806000806101000a81548173ffffffffffffffffffffffffffffffffffffffff021916908373ffffffffffffffffffffffffffffffffffffffff1602179055506000809054906101000a900473ffffffffffffffffffffffffffffffffffffffff1673ffffffffffffffffffffffffffffffffffffffff167f1abebea81bfa2637f28358c371278fb15ede7ea8dd28d2e03b112ff6d936ada460405160405180910390a250565b611d5c336000357fffffffff0000000000000000000000000000000000000000000000000000000016612246565b1515611d6757600080fd5b6008600082600019166000191681526020019081526020016000206000905550565b600160009054906101000a900473ffffffffffffffffffffffffffffffffffffffff1681565b6000600860008360001916600019168152602001908152602001600020549050919050565b611e02336000357fffffffff0000000000000000000000000000000000000000000000000000000016612246565b1515611e0d57600080fd5b6002600082600019166000191681526020019081526020016000206000905550565b60606003600083600019166000191681526020019081526020016000208054600181600116156101000203166002900480601f016020809104026020016040519081016040528092919081815260200182805460018160011615610100020316600290048015611ee05780601f10611eb557610100808354040283529160200191611ee0565b820191906000526020600020905b815481529060010190602001808311611ec357829003601f168201915b50505050509050919050565b611f1a336000357fffffffff0000000000000000000000000000000000000000000000000000000016612246565b1515611f2557600080fd5b80600860008460001916600019168152602001908152602001600020819055505050565b6000611f79336000357fffffffff0000000000000000000000000000000000000000000000000000000016612246565b1515611f8457600080fd5b600090505b8251811015612000578181815181101515611fa057fe5b90602001906020020151600760008584815181101515611fbc57fe5b906020019060200201516000191660001916815260200190815260200160002060006101000a81548160ff0219169083151502179055508080600101915050611f89565b505050565b612033336000357fffffffff0000000000000000000000000000000000000000000000000000000016612246565b151561203e57600080fd5b60036000826000191660001916815260200190815260200160002060006120659190612505565b50565b6000600260008360001916600019168152602001908152602001600020549050919050565b6000809054906101000a900473ffffffffffffffffffffffffffffffffffffffff1681565b6120e0336000357fffffffff0000000000000000000000000000000000000000000000000000000016612246565b15156120eb57600080fd5b80600560008460001916600019168152602001908152602001600020908051906020019061211a92919061254d565b505050565b6060600082516040519080825280602002602001820160405280156121535781602001602082028038833980820191505090505b509150600090505b82518110156121d35760076000848381518110151561217657fe5b906020019060200201516000191660001916815260200190815260200160002060009054906101000a900460ff1682828151811015156121b257fe5b9060200190602002019015159081151581525050808060010191505061215b565b50919050565b612207336000357fffffffff0000000000000000000000000000000000000000000000000000000016612246565b151561221257600080fd5b8060036000846000191660001916815260200190815260200160002090805190602001906122419291906125cd565b505050565b60003073ffffffffffffffffffffffffffffffffffffffff168373ffffffffffffffffffffffffffffffffffffffff16141561228557600190506124b7565b600160009054906101000a900473ffffffffffffffffffffffffffffffffffffffff1673ffffffffffffffffffffffffffffffffffffffff168373ffffffffffffffffffffffffffffffffffffffff1614156122e457600190506124b7565b600073ffffffffffffffffffffffffffffffffffffffff166000809054906101000a900473ffffffffffffffffffffffffffffffffffffffff1673ffffffffffffffffffffffffffffffffffffffff16141561234357600090506124b7565b6000809054906101000a900473ffffffffffffffffffffffffffffffffffffffff1673ffffffffffffffffffffffffffffffffffffffff1663b70096138430856040518463ffffffff167c0100000000000000000000000000000000000000000000000000000000028152600401808473ffffffffffffffffffffffffffffffffffffffff1673ffffffffffffffffffffffffffffffffffffffff1681526020018373ffffffffffffffffffffffffffffffffffffffff1673ffffffffffffffffffffffffffffffffffffffff168152602001827bffffffffffffffffffffffffffffffffffffffffffffffffffffffff19167bffffffffffffffffffffffffffffffffffffffffffffffffffffffff191681526020019350505050602060405180830381600087803b15801561247957600080fd5b505af115801561248d573d6000803e3d6000fd5b505050506040513d60208110156124a357600080fd5b810190808051906020019092919050505090505b92915050565b50805460018160011615610100020316600290046000825580601f106124e35750612502565b601f016020900490600052602060002090810190612501919061264d565b5b50565b50805460018160011615610100020316600290046000825580601f1061252b575061254a565b601f016020900490600052602060002090810190612549919061264d565b5b50565b828054600181600116156101000203166002900490600052602060002090601f016020900481019282601f1061258e57805160ff19168380011785556125bc565b828001600101855582156125bc579182015b828111156125bb5782518255916020019190600101906125a0565b5b5090506125c9919061264d565b5090565b828054600181600116156101000203166002900490600052602060002090601f016020900481019282601f1061260e57805160ff191683800117855561263c565b8280016001018555821561263c579182015b8281111561263b578251825591602001919060010190612620565b5b509050612649919061264d565b5090565b61266f91905b8082111561266b576000816000905550600101612653565b5090565b905600a165627a7a723058200f1a23ff02e71afb8ca29af119ca94cb472ee93ebf82535ade853ce1d7e0f71f0029",
  "source": "pragma solidity ^0.4.18;\n\nimport \"../auth/DSAuth.sol\";\n\n/**\n * @title Contract to store arbitrary state data, decoupled from any logic related to it\n *\n * @dev Original implementation: https://blog.colony.io/writing-upgradeable-contracts-in-solidity-6743f0eecc88\n * In addition to original implementation, this contract uses DSAuth for more advanced authentication options\n * It also provides way set/get multiple values in single transaction\n */\n\ncontract EternalDb is DSAuth {\n\n  enum Types {UInt, String, Address, Bytes, Bytes32, Boolean, Int}\n\n  event EternalDbEvent(bytes32[] records, uint[] values, uint timestamp);\n\n  ////////////\n  //UInt\n  ////////////\n\n  mapping(bytes32 => uint) UIntStorage;\n\n  function getUIntValue(bytes32 record) public view returns (uint){\n    return UIntStorage[record];\n  }\n\n  function getUIntValues(bytes32[] records) public view returns (uint[] results){\n    results = new uint[](records.length);\n    for (uint i = 0; i < records.length; i++) {\n      results[i] = UIntStorage[records[i]];\n    }\n  }\n\n  function setUIntValue(bytes32 record, uint value)\n  public\n  auth\n  {\n    UIntStorage[record] = value;\n    bytes32[] memory records = new bytes32[](1);\n    records[0] = record;\n    uint[] memory values = new uint[](1);\n    values[0] = value;\n    emit EternalDbEvent(records, values, now);\n  }\n\n  function setUIntValues(bytes32[] records, uint[] values)\n  public\n  auth\n  {\n    for (uint i = 0; i < records.length; i++) {\n      UIntStorage[records[i]] = values[i];\n    }\n    emit EternalDbEvent(records, values, now);\n  }\n\n  function deleteUIntValue(bytes32 record)\n  public\n  auth\n  {\n    delete UIntStorage[record];\n  }\n\n  ////////////\n  //Strings\n  ////////////\n\n  mapping(bytes32 => string) StringStorage;\n\n  function getStringValue(bytes32 record) public view returns (string){\n    return StringStorage[record];\n  }\n\n  function setStringValue(bytes32 record, string value)\n  public\n  auth\n  {\n    StringStorage[record] = value;\n  }\n\n  function deleteStringValue(bytes32 record)\n  public\n  auth\n  {\n    delete StringStorage[record];\n  }\n\n  ////////////\n  //Address\n  ////////////\n\n  mapping(bytes32 => address) AddressStorage;\n\n  function getAddressValue(bytes32 record) public view returns (address){\n    return AddressStorage[record];\n  }\n\n  function setAddressValues(bytes32[] records, address[] values)\n  public\n  auth\n  {\n    for (uint i = 0; i < records.length; i++) {\n      AddressStorage[records[i]] = values[i];\n    }\n  }\n\n  function setAddressValue(bytes32 record, address value)\n  public\n  auth\n  {\n    AddressStorage[record] = value;\n  }\n\n  function deleteAddressValue(bytes32 record)\n  public\n  auth\n  {\n    delete AddressStorage[record];\n  }\n\n  ////////////\n  //Bytes\n  ////////////\n\n  mapping(bytes32 => bytes) BytesStorage;\n\n  function getBytesValue(bytes32 record) public view returns (bytes){\n    return BytesStorage[record];\n  }\n\n  function setBytesValue(bytes32 record, bytes value)\n  public\n  auth\n  {\n    BytesStorage[record] = value;\n  }\n\n  function deleteBytesValue(bytes32 record)\n  public\n  auth\n  {\n    delete BytesStorage[record];\n  }\n\n  ////////////\n  //Bytes32\n  ////////////\n\n  mapping(bytes32 => bytes32) Bytes32Storage;\n\n  function getBytes32Value(bytes32 record) public view returns (bytes32){\n    return Bytes32Storage[record];\n  }\n\n  function getBytes32Values(bytes32[] records) public view returns (bytes32[] results){\n    results = new bytes32[](records.length);\n    for (uint i = 0; i < records.length; i++) {\n      results[i] = Bytes32Storage[records[i]];\n    }\n  }\n\n  function setBytes32Value(bytes32 record, bytes32 value)\n  public\n  auth\n  {\n    Bytes32Storage[record] = value;\n  }\n\n  function setBytes32Values(bytes32[] records, bytes32[] values)\n  public\n  auth\n  {\n    for (uint i = 0; i < records.length; i++) {\n      Bytes32Storage[records[i]] = values[i];\n    }\n  }\n\n  function deleteBytes32Value(bytes32 record)\n  public\n  auth\n  {\n    delete Bytes32Storage[record];\n  }\n\n  ////////////\n  //Boolean\n  ////////////\n\n  mapping(bytes32 => bool) BooleanStorage;\n\n  function getBooleanValue(bytes32 record) public view returns (bool){\n    return BooleanStorage[record];\n  }\n\n  function getBooleanValues(bytes32[] records) public view returns (bool[] results){\n    results = new bool[](records.length);\n    for (uint i = 0; i < records.length; i++) {\n      results[i] = BooleanStorage[records[i]];\n    }\n  }\n\n  function setBooleanValue(bytes32 record, bool value)\n  public\n  auth\n  {\n    BooleanStorage[record] = value;\n  }\n\n  function setBooleanValues(bytes32[] records, bool[] values)\n  public\n  auth\n  {\n    for (uint i = 0; i < records.length; i++) {\n      BooleanStorage[records[i]] = values[i];\n    }\n  }\n\n  function deleteBooleanValue(bytes32 record)\n  public\n  auth\n  {\n    delete BooleanStorage[record];\n  }\n\n  ////////////\n  //Int\n  ////////////\n  mapping(bytes32 => int) IntStorage;\n\n  function getIntValue(bytes32 record) public view returns (int){\n    return IntStorage[record];\n  }\n\n  function getIntValues(bytes32[] records) public view returns (int[] results){\n    results = new int[](records.length);\n    for (uint i = 0; i < records.length; i++) {\n      results[i] = IntStorage[records[i]];\n    }\n  }\n\n  function setIntValue(bytes32 record, int value)\n  public\n  auth\n  {\n    IntStorage[record] = value;\n  }\n\n  function setIntValues(bytes32[] records, int[] values)\n  public\n  auth\n  {\n    for (uint i = 0; i < records.length; i++) {\n      IntStorage[records[i]] = values[i];\n    }\n  }\n\n  function deleteIntValue(bytes32 record)\n  public\n  auth\n  {\n    delete IntStorage[record];\n  }\n\n}\n",
  "sourcePath": "/Users/matus/www/district0x/district-registry/contracts/db/EternalDb.sol",
  "compiler": {
    "name": "solc",
    "version": "0.4.24+commit.e67f0147.Emscripten.clang"
  },
  "schemaVersion": "3.0.10",
  "updatedAt": "2019-07-01T12:48:23.338Z",
  "devdoc": {
    "methods": {},
    "title": "Contract to store arbitrary state data, decoupled from any logic related to it"
  },
  "userdoc": {
    "methods": {}
  }
}