{
  "contractName": "DistrictFactory",
  "abi": [
    {
      "constant": true,
      "inputs": [],
      "name": "depositKey",
      "outputs": [
        {
          "name": "",
          "type": "bytes32"
        }
      ],
      "payable": false,
      "stateMutability": "view",
      "type": "function"
    },
    {
      "constant": true,
      "inputs": [],
      "name": "version",
      "outputs": [
        {
          "name": "",
          "type": "uint256"
        }
      ],
      "payable": false,
      "stateMutability": "view",
      "type": "function"
    },
    {
      "constant": true,
      "inputs": [],
      "name": "registryToken",
      "outputs": [
        {
          "name": "",
          "type": "address"
        }
      ],
      "payable": false,
      "stateMutability": "view",
      "type": "function"
    },
    {
      "constant": true,
      "inputs": [],
      "name": "registry",
      "outputs": [
        {
          "name": "",
          "type": "address"
        }
      ],
      "payable": false,
      "stateMutability": "view",
      "type": "function"
    },
    {
      "constant": false,
      "inputs": [
        {
          "name": "_from",
          "type": "address"
        },
        {
          "name": "_amount",
          "type": "uint256"
        },
        {
          "name": "_token",
          "type": "address"
        },
        {
          "name": "_data",
          "type": "bytes"
        }
      ],
      "name": "receiveApproval",
      "outputs": [],
      "payable": false,
      "stateMutability": "nonpayable",
      "type": "function"
    },
    {
      "inputs": [
        {
          "name": "_registry",
          "type": "address"
        },
        {
          "name": "_registryToken",
          "type": "address"
        }
      ],
      "payable": false,
      "stateMutability": "nonpayable",
      "type": "constructor"
    },
    {
      "constant": false,
      "inputs": [
        {
          "name": "_creator",
          "type": "address"
        },
        {
          "name": "_metaHash",
          "type": "bytes"
        },
        {
          "name": "_dntWeight",
          "type": "uint32"
        },
        {
          "name": "_aragonId",
          "type": "string"
        }
      ],
      "name": "createDistrict",
      "outputs": [],
      "payable": false,
      "stateMutability": "nonpayable",
      "type": "function"
    }
  ],
  "bytecode": "0x608060405234801561001057600080fd5b50604051604080610da583398101806040528101908080519060200190929190805190602001909291905050508181816000806101000a81548173ffffffffffffffffffffffffffffffffffffffff021916908373ffffffffffffffffffffffffffffffffffffffff16021790555080600160006101000a81548173ffffffffffffffffffffffffffffffffffffffff021916908373ffffffffffffffffffffffffffffffffffffffff16021790555050505050610cd2806100d36000396000f300608060405260043610610078576000357c0100000000000000000000000000000000000000000000000000000000900463ffffffff1680630c380fdb1461007d57806354fd4d50146100b05780637602dc77146100db5780637792957d146101ba5780637b103999146102115780638f4ffcb114610268575b600080fd5b34801561008957600080fd5b5061009261031b565b60405180826000191660001916815260200191505060405180910390f35b3480156100bc57600080fd5b506100c5610354565b6040518082815260200191505060405180910390f35b3480156100e757600080fd5b506101b8600480360381019080803573ffffffffffffffffffffffffffffffffffffffff169060200190929190803590602001908201803590602001908080601f0160208091040260200160405190810160405280939291908181526020018383808284378201915050505050509192919290803563ffffffff169060200190929190803590602001908201803590602001908080601f0160208091040260200160405190810160405280939291908181526020018383808284378201915050505050509192919290505050610359565b005b3480156101c657600080fd5b506101cf610517565b604051808273ffffffffffffffffffffffffffffffffffffffff1673ffffffffffffffffffffffffffffffffffffffff16815260200191505060405180910390f35b34801561021d57600080fd5b5061022661053d565b604051808273ffffffffffffffffffffffffffffffffffffffff1673ffffffffffffffffffffffffffffffffffffffff16815260200191505060405180910390f35b34801561027457600080fd5b50610319600480360381019080803573ffffffffffffffffffffffffffffffffffffffff16906020019092919080359060200190929190803573ffffffffffffffffffffffffffffffffffffffff169060200190929190803590602001908201803590602001908080601f0160208091040260200160405190810160405280939291908181526020018383808284378201915050505050509192919290505050610562565b005b60405180807f6465706f736974000000000000000000000000000000000000000000000000008152506007019050604051809103902081565b600181565b6000610364856105fa565b90508073ffffffffffffffffffffffffffffffffffffffff1663429d42528660018787876040518663ffffffff167c0100000000000000000000000000000000000000000000000000000000028152600401808673ffffffffffffffffffffffffffffffffffffffff1673ffffffffffffffffffffffffffffffffffffffff168152602001858152602001806020018463ffffffff1663ffffffff16815260200180602001838103835286818151815260200191508051906020019080838360005b83811015610441578082015181840152602081019050610426565b50505050905090810190601f16801561046e5780820380516001836020036101000a031916815260200191505b50838103825284818151815260200191508051906020019080838360005b838110156104a757808201518184015260208101905061048c565b50505050905090810190601f1680156104d45780820380516001836020036101000a031916815260200191505b50975050505050505050600060405180830381600087803b1580156104f857600080fd5b505af115801561050c573d6000803e3d6000fd5b505050505050505050565b600160009054906101000a900473ffffffffffffffffffffffffffffffffffffffff1681565b6000809054906101000a900473ffffffffffffffffffffffffffffffffffffffff1681565b3073ffffffffffffffffffffffffffffffffffffffff168160405180828051906020019080838360005b838110156105a757808201518184015260208101905061058c565b50505050905090810190601f1680156105d45780820380516001836020036101000a031916815260200191505b509150506000604051808303816000865af191505015156105f457600080fd5b50505050565b60008060008060009054906101000a900473ffffffffffffffffffffffffffffffffffffffff1673ffffffffffffffffffffffffffffffffffffffff16634d655aff6040518163ffffffff167c0100000000000000000000000000000000000000000000000000000000028152600401602060405180830381600087803b15801561068457600080fd5b505af1158015610698573d6000803e3d6000fd5b505050506040513d60208110156106ae57600080fd5b810190808051906020019092919050505073ffffffffffffffffffffffffffffffffffffffff1663bdc963d860405180807f6465706f73697400000000000000000000000000000000000000000000000000815250600701905060405180910390206040518263ffffffff167c0100000000000000000000000000000000000000000000000000000000028152600401808260001916600019168152602001915050602060405180830381600087803b15801561076a57600080fd5b505af115801561077e573d6000803e3d6000fd5b505050506040513d602081101561079457600080fd5b810190808051906020019092919050505091506107af610af6565b604051809103906000f0801580156107cb573d6000803e3d6000fd5b509050600160009054906101000a900473ffffffffffffffffffffffffffffffffffffffff1673ffffffffffffffffffffffffffffffffffffffff166323b872dd8530856040518463ffffffff167c0100000000000000000000000000000000000000000000000000000000028152600401808473ffffffffffffffffffffffffffffffffffffffff1673ffffffffffffffffffffffffffffffffffffffff1681526020018373ffffffffffffffffffffffffffffffffffffffff1673ffffffffffffffffffffffffffffffffffffffff1681526020018281526020019350505050602060405180830381600087803b1580156108c757600080fd5b505af11580156108db573d6000803e3d6000fd5b505050506040513d60208110156108f157600080fd5b8101908080519060200190929190505050151561090d57600080fd5b600160009054906101000a900473ffffffffffffffffffffffffffffffffffffffff1673ffffffffffffffffffffffffffffffffffffffff1663095ea7b382846040518363ffffffff167c0100000000000000000000000000000000000000000000000000000000028152600401808373ffffffffffffffffffffffffffffffffffffffff1673ffffffffffffffffffffffffffffffffffffffff16815260200182815260200192505050602060405180830381600087803b1580156109d257600080fd5b505af11580156109e6573d6000803e3d6000fd5b505050506040513d60208110156109fc57600080fd5b81019080805190602001909291905050501515610a1857600080fd5b6000809054906101000a900473ffffffffffffffffffffffffffffffffffffffff1673ffffffffffffffffffffffffffffffffffffffff166372a5f32c826040518263ffffffff167c0100000000000000000000000000000000000000000000000000000000028152600401808273ffffffffffffffffffffffffffffffffffffffff1673ffffffffffffffffffffffffffffffffffffffff168152602001915050600060405180830381600087803b158015610ad457600080fd5b505af1158015610ae8573d6000803e3d6000fd5b505050508092505050919050565b6040516101a080610b07833901905600608060405234801561001057600080fd5b50610180806100206000396000f300608060405260043610610041576000357c0100000000000000000000000000000000000000000000000000000000900463ffffffff168063d4b8399214610094575b61009273beefbeefbeefbeefbeefbeefbeefbeefbeefbeef6000368080601f0160208091040260200160405190810160405280939291908181526020018383808284378201915050505050506100eb565b005b3480156100a057600080fd5b506100a9610129565b604051808273ffffffffffffffffffffffffffffffffffffffff1673ffffffffffffffffffffffffffffffffffffffff16815260200191505060405180910390f35b6100f482610141565b15156100ff57600080fd5b600080825160208401856127105a03f43d604051816000823e8260008114610125578282f35b8282fd5b73beefbeefbeefbeefbeefbeefbeefbeefbeefbeef81565b600080823b9050600081119150509190505600a165627a7a72305820144734fcc804b3f034561533e7ca0d5369ac068ed4a8b28637ca6be1140288870029a165627a7a7230582081e80d95b2939cc0dd9e871179f34ede41050ed512ca82f3073210e7c5c39a260029",
  "source": "pragma solidity ^0.4.18;\n\nimport \"./RegistryEntryFactory.sol\";\nimport \"./District.sol\";\n\n/**\n * @title Factory contract for creating District contracts\n *\n * @dev Users submit new districts into this contract.\n */\n\ncontract DistrictFactory is RegistryEntryFactory {\n  uint public constant version = 1;\n\n  constructor(Registry _registry, MiniMeToken _registryToken)\n    public\n    RegistryEntryFactory(_registry, _registryToken)\n  {\n  }\n\n  /**\n   * @dev Creates new District forwarder contract and add it into the registry\n   * It initializes forwarder contract with initial state. For comments on each param, see District::construct\n   */\n  function createDistrict(\n    address _creator,\n    bytes _metaHash,\n    uint32 _dntWeight,\n    string _aragonId\n  )\n    public\n  {\n    District district = District(createRegistryEntry(_creator));\n    district.construct(\n      _creator,\n      version,\n      _metaHash,\n      _dntWeight,\n      _aragonId\n    );\n  }\n}\n\n",
  "sourcePath": "/Users/matus/www/district0x/district-registry/contracts/DistrictFactory.sol",
  "compiler": {
    "name": "solc",
    "version": "0.4.24+commit.e67f0147.Emscripten.clang"
  },
  "schemaVersion": "3.0.10",
  "updatedAt": "2019-07-01T15:53:02.363Z",
  "devdoc": {
    "methods": {
      "createDistrict(address,bytes,uint32,string)": {
        "details": "Creates new District forwarder contract and add it into the registry It initializes forwarder contract with initial state. For comments on each param, see District::construct"
      },
      "receiveApproval(address,uint256,address,bytes)": {
        "details": "Function called by MiniMeToken when somebody calls approveAndCall on it. This way token can be transferred to a recipient in a single transaction together with execution of additional logic",
        "params": {
          "_amount": "Amount of approved tokens to transfer",
          "_data": "Bytecode of a function and passed parameters, that should be called after token approval",
          "_from": "Sender of transaction approval",
          "_token": "Token that received the approval"
        }
      }
    },
    "title": "Factory contract for creating District contracts"
  },
  "userdoc": {
    "methods": {}
  }
}