{
  "contractName": "District_copy",
  "abi": [
    {
      "constant": true,
      "inputs": [],
      "name": "creator",
      "outputs": [
        {
          "name": "",
          "type": "address"
        }
      ],
      "payable": false,
      "stateMutability": "view",
      "type": "function"
    },
    {
      "constant": false,
      "inputs": [
        {
          "name": "_voter",
          "type": "address"
        },
        {
          "name": "_amount",
          "type": "uint256"
        },
        {
          "name": "_secretHash",
          "type": "bytes32"
        }
      ],
      "name": "commitVote",
      "outputs": [],
      "payable": false,
      "stateMutability": "nonpayable",
      "type": "function"
    },
    {
      "constant": true,
      "inputs": [],
      "name": "version",
      "outputs": [
        {
          "name": "",
          "type": "uint256"
        }
      ],
      "payable": false,
      "stateMutability": "view",
      "type": "function"
    },
    {
      "constant": true,
      "inputs": [],
      "name": "challengePeriodEnd",
      "outputs": [
        {
          "name": "",
          "type": "uint256"
        }
      ],
      "payable": false,
      "stateMutability": "view",
      "type": "function"
    },
    {
      "constant": true,
      "inputs": [],
      "name": "registryToken",
      "outputs": [
        {
          "name": "",
          "type": "address"
        }
      ],
      "payable": false,
      "stateMutability": "view",
      "type": "function"
    },
    {
      "constant": true,
      "inputs": [],
      "name": "registry",
      "outputs": [
        {
          "name": "",
          "type": "address"
        }
      ],
      "payable": false,
      "stateMutability": "view",
      "type": "function"
    },
    {
      "constant": false,
      "inputs": [
        {
          "name": "_challengeIndex",
          "type": "uint256"
        },
        {
          "name": "_user",
          "type": "address"
        }
      ],
      "name": "claimRewardForChallenge",
      "outputs": [],
      "payable": false,
      "stateMutability": "nonpayable",
      "type": "function"
    },
    {
      "constant": true,
      "inputs": [],
      "name": "metaHash",
      "outputs": [
        {
          "name": "",
          "type": "bytes"
        }
      ],
      "payable": false,
      "stateMutability": "view",
      "type": "function"
    },
    {
      "constant": true,
      "inputs": [
        {
          "name": "",
          "type": "uint256"
        }
      ],
      "name": "challenges",
      "outputs": [
        {
          "name": "",
          "type": "address"
        }
      ],
      "payable": false,
      "stateMutability": "view",
      "type": "function"
    },
    {
      "constant": false,
      "inputs": [
        {
          "name": "_from",
          "type": "address"
        },
        {
          "name": "_amount",
          "type": "uint256"
        },
        {
          "name": "_token",
          "type": "address"
        },
        {
          "name": "_data",
          "type": "bytes"
        }
      ],
      "name": "receiveApproval",
      "outputs": [],
      "payable": false,
      "stateMutability": "nonpayable",
      "type": "function"
    },
    {
      "constant": false,
      "inputs": [
        {
          "name": "_challengeIndex",
          "type": "uint256"
        },
        {
          "name": "_voter",
          "type": "address"
        },
        {
          "name": "_amount",
          "type": "uint256"
        },
        {
          "name": "_secretHash",
          "type": "bytes32"
        }
      ],
      "name": "commitVoteForChallenge",
      "outputs": [],
      "payable": false,
      "stateMutability": "nonpayable",
      "type": "function"
    },
    {
      "constant": true,
      "inputs": [],
      "name": "kitDistrict",
      "outputs": [
        {
          "name": "",
          "type": "address"
        }
      ],
      "payable": false,
      "stateMutability": "view",
      "type": "function"
    },
    {
      "constant": false,
      "inputs": [
        {
          "name": "_voteOption",
          "type": "uint8"
        },
        {
          "name": "_salt",
          "type": "string"
        }
      ],
      "name": "revealVote",
      "outputs": [],
      "payable": false,
      "stateMutability": "nonpayable",
      "type": "function"
    },
    {
      "constant": true,
      "inputs": [],
      "name": "deposit",
      "outputs": [
        {
          "name": "",
          "type": "uint256"
        }
      ],
      "payable": false,
      "stateMutability": "view",
      "type": "function"
    },
    {
      "constant": false,
      "inputs": [
        {
          "name": "_user",
          "type": "address"
        }
      ],
      "name": "claimReward",
      "outputs": [],
      "payable": false,
      "stateMutability": "nonpayable",
      "type": "function"
    },
    {
      "constant": true,
      "inputs": [],
      "name": "stakeBank",
      "outputs": [
        {
          "name": "",
          "type": "address"
        }
      ],
      "payable": false,
      "stateMutability": "view",
      "type": "function"
    },
    {
      "constant": false,
      "inputs": [
        {
          "name": "_challengeIndex",
          "type": "uint256"
        },
        {
          "name": "_voteOption",
          "type": "uint8"
        },
        {
          "name": "_salt",
          "type": "string"
        }
      ],
      "name": "revealVoteForChallenge",
      "outputs": [],
      "payable": false,
      "stateMutability": "nonpayable",
      "type": "function"
    },
    {
      "constant": false,
      "inputs": [
        {
          "name": "_creator",
          "type": "address"
        },
        {
          "name": "_version",
          "type": "uint256"
        },
        {
          "name": "_metaHash",
          "type": "bytes"
        },
        {
          "name": "_dntWeight",
          "type": "uint32"
        },
        {
          "name": "_aragonId",
          "type": "string"
        }
      ],
      "name": "construct",
      "outputs": [],
      "payable": false,
      "stateMutability": "nonpayable",
      "type": "function"
    },
    {
      "constant": false,
      "inputs": [
        {
          "name": "_creator",
          "type": "address"
        },
        {
          "name": "_version",
          "type": "uint256"
        }
      ],
      "name": "construct",
      "outputs": [],
      "payable": false,
      "stateMutability": "nonpayable",
      "type": "function"
    },
    {
      "constant": false,
      "inputs": [
        {
          "name": "_metaHash",
          "type": "bytes"
        }
      ],
      "name": "setMetaHash",
      "outputs": [],
      "payable": false,
      "stateMutability": "nonpayable",
      "type": "function"
    },
    {
      "constant": false,
      "inputs": [
        {
          "name": "_challenger",
          "type": "address"
        },
        {
          "name": "_challengeMetaHash",
          "type": "bytes"
        }
      ],
      "name": "createChallenge",
      "outputs": [],
      "payable": false,
      "stateMutability": "nonpayable",
      "type": "function"
    },
    {
      "constant": true,
      "inputs": [
        {
          "name": "_owner",
          "type": "address"
        }
      ],
      "name": "balanceOf",
      "outputs": [
        {
          "name": "balance",
          "type": "uint256"
        }
      ],
      "payable": false,
      "stateMutability": "view",
      "type": "function"
    },
    {
      "constant": false,
      "inputs": [
        {
          "name": "_user",
          "type": "address"
        },
        {
          "name": "_amount",
          "type": "uint256"
        }
      ],
      "name": "stakeFor",
      "outputs": [],
      "payable": false,
      "stateMutability": "nonpayable",
      "type": "function"
    },
    {
      "constant": false,
      "inputs": [
        {
          "name": "_amount",
          "type": "uint256"
        }
      ],
      "name": "unstake",
      "outputs": [],
      "payable": false,
      "stateMutability": "nonpayable",
      "type": "function"
    }
  ],
  "bytecode": "0x608060405234801561001057600080fd5b5061579e80620000216000396000f30060806040526004361061013e576000357c0100000000000000000000000000000000000000000000000000000000900463ffffffff16806302d05d3f1461014357806327f429d81461019a5780632e17de78146101f55780632ee4090814610222578063429d42521461026f57806354fd4d5014610358578063671f08e31461038357806370a08231146103ae5780637792957d146104055780637b1039991461045c5780637faa6e8c146104b3578063827c62fb1461050057806387dfc3eb146105905780638f1d3776146106195780638f4ffcb114610686578063a9624b6f14610739578063ab5310311461079e578063af2dfdb7146107eb578063c8cfe15314610842578063d0e30db01461088a578063d279c191146108b5578063d6edcd81146108f8578063e71ae0f11461094f578063ef0ca9b5146109a1575b600080fd5b34801561014f57600080fd5b50610158610a0a565b604051808273ffffffffffffffffffffffffffffffffffffffff1673ffffffffffffffffffffffffffffffffffffffff16815260200191505060405180910390f35b3480156101a657600080fd5b506101f3600480360381019080803573ffffffffffffffffffffffffffffffffffffffff169060200190929190803590602001909291908035600019169060200190929190505050610a2f565b005b34801561020157600080fd5b5061022060048036038101908080359060200190929190505050610a47565b005b34801561022e57600080fd5b5061026d600480360381019080803573ffffffffffffffffffffffffffffffffffffffff169060200190929190803590602001909291905050506110e8565b005b34801561027b57600080fd5b50610356600480360381019080803573ffffffffffffffffffffffffffffffffffffffff16906020019092919080359060200190929190803590602001908201803590602001908080601f0160208091040260200160405190810160405280939291908181526020018383808284378201915050505050509192919290803563ffffffff169060200190929190803590602001908201803590602001908080601f016020809104026020016040519081016040528093929190818152602001838380828437820191505050505050919291929050505061179c565b005b34801561036457600080fd5b5061036d611cdf565b6040518082815260200191505060405180910390f35b34801561038f57600080fd5b50610398611ce5565b6040518082815260200191505060405180910390f35b3480156103ba57600080fd5b506103ef600480360381019080803573ffffffffffffffffffffffffffffffffffffffff169060200190929190505050611ceb565b6040518082815260200191505060405180910390f35b34801561041157600080fd5b5061041a611dec565b604051808273ffffffffffffffffffffffffffffffffffffffff1673ffffffffffffffffffffffffffffffffffffffff16815260200191505060405180910390f35b34801561046857600080fd5b50610471611e04565b604051808273ffffffffffffffffffffffffffffffffffffffff1673ffffffffffffffffffffffffffffffffffffffff16815260200191505060405180910390f35b3480156104bf57600080fd5b506104fe60048036038101908080359060200190929190803573ffffffffffffffffffffffffffffffffffffffff169060200190929190505050611e1c565b005b34801561050c57600080fd5b50610515611e2a565b6040518080602001828103825283818151815260200191508051906020019080838360005b8381101561055557808201518184015260208101905061053a565b50505050905090810190601f1680156105825780820380516001836020036101000a031916815260200191505b509250505060405180910390f35b34801561059c57600080fd5b50610617600480360381019080803573ffffffffffffffffffffffffffffffffffffffff169060200190929190803590602001908201803590602001908080601f0160208091040260200160405190810160405280939291908181526020018383808284378201915050505050509192919290505050611ec8565b005b34801561062557600080fd5b5061064460048036038101908080359060200190929190505050612071565b604051808273ffffffffffffffffffffffffffffffffffffffff1673ffffffffffffffffffffffffffffffffffffffff16815260200191505060405180910390f35b34801561069257600080fd5b50610737600480360381019080803573ffffffffffffffffffffffffffffffffffffffff16906020019092919080359060200190929190803573ffffffffffffffffffffffffffffffffffffffff169060200190929190803590602001908201803590602001908080601f01602080910402602001604051908101604052809392919081815260200183838082843782019150505050505091929192905050506120af565b005b34801561074557600080fd5b5061079c60048036038101908080359060200190929190803573ffffffffffffffffffffffffffffffffffffffff169060200190929190803590602001909291908035600019169060200190929190505050612147565b005b3480156107aa57600080fd5b506107e9600480360381019080803573ffffffffffffffffffffffffffffffffffffffff16906020019092919080359060200190929190505050612159565b005b3480156107f757600080fd5b50610800612732565b604051808273ffffffffffffffffffffffffffffffffffffffff1673ffffffffffffffffffffffffffffffffffffffff16815260200191505060405180910390f35b34801561084e57600080fd5b50610888600480360381019080803560ff16906020019092919080359060200190820180359060200191909192939192939050505061274a565b005b34801561089657600080fd5b5061089f612793565b6040518082815260200191505060405180910390f35b3480156108c157600080fd5b506108f6600480360381019080803573ffffffffffffffffffffffffffffffffffffffff169060200190929190505050612799565b005b34801561090457600080fd5b5061090d6127ad565b604051808273ffffffffffffffffffffffffffffffffffffffff1673ffffffffffffffffffffffffffffffffffffffff16815260200191505060405180910390f35b34801561095b57600080fd5b5061099f60048036038101908080359060200190929190803560ff1690602001909291908035906020019082018035906020019190919293919293905050506127d3565b005b3480156109ad57600080fd5b50610a08600480360381019080803590602001908201803590602001908080601f0160208091040260200160405190810160405280939291908181526020018383808284378201915050505050509192919290505050612816565b005b6000809054906101000a900473ffffffffffffffffffffffffffffffffffffffff1681565b610a42610a3a6129a8565b8484846129b8565b505050565b739182b0f5017BC15fB37437eEC1b9cD74B89E3A0073ffffffffffffffffffffffffffffffffffffffff1663a9059cbb33836040518363ffffffff167c0100000000000000000000000000000000000000000000000000000000028152600401808373ffffffffffffffffffffffffffffffffffffffff1673ffffffffffffffffffffffffffffffffffffffff16815260200182815260200192505050602060405180830381600087803b158015610afe57600080fd5b505af1158015610b12573d6000803e3d6000fd5b505050506040513d6020811015610b2857600080fd5b81019080805190602001909291905050501515610b4457600080fd5b600560009054906101000a900473ffffffffffffffffffffffffffffffffffffffff1673ffffffffffffffffffffffffffffffffffffffff1663c2a672e033836040518363ffffffff167c0100000000000000000000000000000000000000000000000000000000028152600401808373ffffffffffffffffffffffffffffffffffffffff1673ffffffffffffffffffffffffffffffffffffffff16815260200182815260200192505050602060405180830381600087803b158015610c0957600080fd5b505af1158015610c1d573d6000803e3d6000fd5b505050506040513d6020811015610c3357600080fd5b810190808051906020019092919050505050610c71337fffffffffffffffffffffffffffffffffffffffffffffffffffffffffffffffff8302612e0e565b738FC97fdFe942c96b6f121E7CD7010a306AbF94B073ffffffffffffffffffffffffffffffffffffffff1663129704f6600154600560009054906101000a900473ffffffffffffffffffffffffffffffffffffffff1673ffffffffffffffffffffffffffffffffffffffff1663817b1cd26040518163ffffffff167c0100000000000000000000000000000000000000000000000000000000028152600401602060405180830381600087803b158015610d2a57600080fd5b505af1158015610d3e573d6000803e3d6000fd5b505050506040513d6020811015610d5457600080fd5b8101908080519060200190929190505050600560009054906101000a900473ffffffffffffffffffffffffffffffffffffffff1673ffffffffffffffffffffffffffffffffffffffff166318160ddd6040518163ffffffff167c0100000000000000000000000000000000000000000000000000000000028152600401602060405180830381600087803b158015610deb57600080fd5b505af1158015610dff573d6000803e3d6000fd5b505050506040513d6020811015610e1557600080fd5b810190808051906020019092919050505033600560009054906101000a900473ffffffffffffffffffffffffffffffffffffffff1673ffffffffffffffffffffffffffffffffffffffff16634b341aed336040518263ffffffff167c0100000000000000000000000000000000000000000000000000000000028152600401808273ffffffffffffffffffffffffffffffffffffffff1673ffffffffffffffffffffffffffffffffffffffff168152602001915050602060405180830381600087803b158015610ee457600080fd5b505af1158015610ef8573d6000803e3d6000fd5b505050506040513d6020811015610f0e57600080fd5b8101908080519060200190929190505050600560009054906101000a900473ffffffffffffffffffffffffffffffffffffffff1673ffffffffffffffffffffffffffffffffffffffff166370a08231336040518263ffffffff167c0100000000000000000000000000000000000000000000000000000000028152600401808273ffffffffffffffffffffffffffffffffffffffff1673ffffffffffffffffffffffffffffffffffffffff168152602001915050602060405180830381600087803b158015610fdc57600080fd5b505af1158015610ff0573d6000803e3d6000fd5b505050506040513d602081101561100657600080fd5b81019080805190602001909291905050508860016040518963ffffffff167c0100000000000000000000000000000000000000000000000000000000028152600401808981526020018881526020018781526020018673ffffffffffffffffffffffffffffffffffffffff1673ffffffffffffffffffffffffffffffffffffffff1681526020018581526020018481526020018381526020018215151515815260200198505050505050505050600060405180830381600087803b1580156110cd57600080fd5b505af11580156110e1573d6000803e3d6000fd5b5050505050565b739182b0f5017BC15fB37437eEC1b9cD74B89E3A0073ffffffffffffffffffffffffffffffffffffffff166323b872dd8330846040518463ffffffff167c0100000000000000000000000000000000000000000000000000000000028152600401808473ffffffffffffffffffffffffffffffffffffffff1673ffffffffffffffffffffffffffffffffffffffff1681526020018373ffffffffffffffffffffffffffffffffffffffff1673ffffffffffffffffffffffffffffffffffffffff1681526020018281526020019350505050602060405180830381600087803b1580156111d357600080fd5b505af11580156111e7573d6000803e3d6000fd5b505050506040513d60208110156111fd57600080fd5b8101908080519060200190929190505050151561121957600080fd5b600560009054906101000a900473ffffffffffffffffffffffffffffffffffffffff1673ffffffffffffffffffffffffffffffffffffffff16632ee4090883836040518363ffffffff167c0100000000000000000000000000000000000000000000000000000000028152600401808373ffffffffffffffffffffffffffffffffffffffff1673ffffffffffffffffffffffffffffffffffffffff16815260200182815260200192505050602060405180830381600087803b1580156112de57600080fd5b505af11580156112f2573d6000803e3d6000fd5b505050506040513d602081101561130857600080fd5b8101908080519060200190929190505050506113248282612e0e565b738FC97fdFe942c96b6f121E7CD7010a306AbF94B073ffffffffffffffffffffffffffffffffffffffff1663129704f6600154600560009054906101000a900473ffffffffffffffffffffffffffffffffffffffff1673ffffffffffffffffffffffffffffffffffffffff1663817b1cd26040518163ffffffff167c0100000000000000000000000000000000000000000000000000000000028152600401602060405180830381600087803b1580156113dd57600080fd5b505af11580156113f1573d6000803e3d6000fd5b505050506040513d602081101561140757600080fd5b8101908080519060200190929190505050600560009054906101000a900473ffffffffffffffffffffffffffffffffffffffff1673ffffffffffffffffffffffffffffffffffffffff166318160ddd6040518163ffffffff167c0100000000000000000000000000000000000000000000000000000000028152600401602060405180830381600087803b15801561149e57600080fd5b505af11580156114b2573d6000803e3d6000fd5b505050506040513d60208110156114c857600080fd5b810190808051906020019092919050505086600560009054906101000a900473ffffffffffffffffffffffffffffffffffffffff1673ffffffffffffffffffffffffffffffffffffffff16634b341aed896040518263ffffffff167c0100000000000000000000000000000000000000000000000000000000028152600401808273ffffffffffffffffffffffffffffffffffffffff1673ffffffffffffffffffffffffffffffffffffffff168152602001915050602060405180830381600087803b15801561159757600080fd5b505af11580156115ab573d6000803e3d6000fd5b505050506040513d60208110156115c157600080fd5b8101908080519060200190929190505050600560009054906101000a900473ffffffffffffffffffffffffffffffffffffffff1673ffffffffffffffffffffffffffffffffffffffff166370a082318a6040518263ffffffff167c0100000000000000000000000000000000000000000000000000000000028152600401808273ffffffffffffffffffffffffffffffffffffffff1673ffffffffffffffffffffffffffffffffffffffff168152602001915050602060405180830381600087803b15801561168f57600080fd5b505af11580156116a3573d6000803e3d6000fd5b505050506040513d60208110156116b957600080fd5b81019080805190602001909291905050508860006040518963ffffffff167c0100000000000000000000000000000000000000000000000000000000028152600401808981526020018881526020018781526020018673ffffffffffffffffffffffffffffffffffffffff1673ffffffffffffffffffffffffffffffffffffffff1681526020018581526020018481526020018381526020018215151515815260200198505050505050505050600060405180830381600087803b15801561178057600080fd5b505af1158015611794573d6000803e3d6000fd5b505050505050565b60006117a88686612159565b6117b061536d565b604051809103906000f0801580156117cc573d6000803e3d6000fd5b50600560006101000a81548173ffffffffffffffffffffffffffffffffffffffff021916908373ffffffffffffffffffffffffffffffffffffffff160217905550600560009054906101000a900473ffffffffffffffffffffffffffffffffffffffff1673ffffffffffffffffffffffffffffffffffffffff16633d1d878a846040518263ffffffff167c0100000000000000000000000000000000000000000000000000000000028152600401808263ffffffff1663ffffffff168152602001915050600060405180830381600087803b1580156118aa57600080fd5b505af11580156118be573d6000803e3d6000fd5b5050505060001960038190555083600690805190602001906118e192919061537d565b50737E53b13e4Bf2aD30cbcD01352CD57292EC8c668273ffffffffffffffffffffffffffffffffffffffff166362fd8efc83600560009054906101000a900473ffffffffffffffffffffffffffffffffffffffff16896040518463ffffffff167c010000000000000000000000000000000000000000000000000000000002815260040180806020018473ffffffffffffffffffffffffffffffffffffffff1673ffffffffffffffffffffffffffffffffffffffff1681526020018373ffffffffffffffffffffffffffffffffffffffff1673ffffffffffffffffffffffffffffffffffffffff168152602001828103825285818151815260200191508051906020019080838360005b83811015611a065780820151818401526020810190506119eb565b50505050905090810190601f168015611a335780820380516001836020036101000a031916815260200191505b50945050505050602060405180830381600087803b158015611a5457600080fd5b505af1158015611a68573d6000803e3d6000fd5b505050506040513d6020811015611a7e57600080fd5b81019080805190602001909291905050509050738FC97fdFe942c96b6f121E7CD7010a306AbF94B073ffffffffffffffffffffffffffffffffffffffff16639f8bfcba6001546000809054906101000a900473ffffffffffffffffffffffffffffffffffffffff16600660025460035489888a6040518963ffffffff167c0100000000000000000000000000000000000000000000000000000000028152600401808981526020018873ffffffffffffffffffffffffffffffffffffffff1673ffffffffffffffffffffffffffffffffffffffff168152602001806020018781526020018681526020018563ffffffff1663ffffffff1681526020018473ffffffffffffffffffffffffffffffffffffffff1673ffffffffffffffffffffffffffffffffffffffff16815260200180602001838103835289818154600181600116156101000203166002900481526020019150805460018160011615610100020316600290048015611c315780601f10611c0657610100808354040283529160200191611c31565b820191906000526020600020905b815481529060010190602001808311611c1457829003601f168201915b5050838103825284818151815260200191508051906020019080838360005b83811015611c6b578082015181840152602081019050611c50565b50505050905090810190601f168015611c985780820380516001836020036101000a031916815260200191505b509a5050505050505050505050600060405180830381600087803b158015611cbf57600080fd5b505af1158015611cd3573d6000803e3d6000fd5b50505050505050505050565b60015481565b60035481565b6000600560009054906101000a900473ffffffffffffffffffffffffffffffffffffffff1673ffffffffffffffffffffffffffffffffffffffff166370a08231836040518263ffffffff167c0100000000000000000000000000000000000000000000000000000000028152600401808273ffffffffffffffffffffffffffffffffffffffff1673ffffffffffffffffffffffffffffffffffffffff168152602001915050602060405180830381600087803b158015611daa57600080fd5b505af1158015611dbe573d6000803e3d6000fd5b505050506040513d6020811015611dd457600080fd5b81019080805190602001909291905050509050919050565b739182b0f5017BC15fB37437eEC1b9cD74B89E3A0081565b738FC97fdFe942c96b6f121E7CD7010a306AbF94B081565b611e268282612f92565b5050565b60068054600181600116156101000203166002900480601f016020809104026020016040519081016040528092919081815260200182805460018160011615610100020316600290048015611ec05780601f10611e9557610100808354040283529160200191611ec0565b820191906000526020600020905b815481529060010190602001808311611ea357829003601f168201915b505050505081565b738FC97fdFe942c96b6f121E7CD7010a306AbF94B073ffffffffffffffffffffffffffffffffffffffff16635f9e8f826040518163ffffffff167c0100000000000000000000000000000000000000000000000000000000028152600401602060405180830381600087803b158015611f4057600080fd5b505af1158015611f54573d6000803e3d6000fd5b505050506040513d6020811015611f6a57600080fd5b8101908080519060200190929190505050151515611f8757600080fd5b611f918282613cf0565b611f99614b4e565b73ffffffffffffffffffffffffffffffffffffffff1663a3e69cd3600560009054906101000a900473ffffffffffffffffffffffffffffffffffffffff166040518263ffffffff167c0100000000000000000000000000000000000000000000000000000000028152600401808273ffffffffffffffffffffffffffffffffffffffff1673ffffffffffffffffffffffffffffffffffffffff168152602001915050600060405180830381600087803b15801561205557600080fd5b505af1158015612069573d6000803e3d6000fd5b505050505050565b60048181548110151561208057fe5b906000526020600020016000915054906101000a900473ffffffffffffffffffffffffffffffffffffffff1681565b3073ffffffffffffffffffffffffffffffffffffffff168160405180828051906020019080838360005b838110156120f45780820151818401526020810190506120d9565b50505050905090810190601f1680156121215780820380516001836020036101000a031916815260200191505b509150506000604051808303816000865af1915050151561214157600080fd5b50505050565b612153848484846129b8565b50505050565b600060035414151561216a57600080fd5b738FC97fdFe942c96b6f121E7CD7010a306AbF94B073ffffffffffffffffffffffffffffffffffffffff16634d655aff6040518163ffffffff167c0100000000000000000000000000000000000000000000000000000000028152600401602060405180830381600087803b1580156121e257600080fd5b505af11580156121f6573d6000803e3d6000fd5b505050506040513d602081101561220c57600080fd5b810190808051906020019092919050505073ffffffffffffffffffffffffffffffffffffffff1663bdc963d8738FC97fdFe942c96b6f121E7CD7010a306AbF94B073ffffffffffffffffffffffffffffffffffffffff16630c380fdb6040518163ffffffff167c0100000000000000000000000000000000000000000000000000000000028152600401602060405180830381600087803b1580156122b057600080fd5b505af11580156122c4573d6000803e3d6000fd5b505050506040513d60208110156122da57600080fd5b81019080805190602001909291905050506040518263ffffffff167c0100000000000000000000000000000000000000000000000000000000028152600401808260001916600019168152602001915050602060405180830381600087803b15801561234557600080fd5b505af1158015612359573d6000803e3d6000fd5b505050506040513d602081101561236f57600080fd5b8101908080519060200190929190505050600281905550739182b0f5017BC15fB37437eEC1b9cD74B89E3A0073ffffffffffffffffffffffffffffffffffffffff166323b872dd33306002546040518463ffffffff167c0100000000000000000000000000000000000000000000000000000000028152600401808473ffffffffffffffffffffffffffffffffffffffff1673ffffffffffffffffffffffffffffffffffffffff1681526020018373ffffffffffffffffffffffffffffffffffffffff1673ffffffffffffffffffffffffffffffffffffffff1681526020018281526020019350505050602060405180830381600087803b15801561247357600080fd5b505af1158015612487573d6000803e3d6000fd5b505050506040513d602081101561249d57600080fd5b810190808051906020019092919050505015156124b957600080fd5b6126e1738FC97fdFe942c96b6f121E7CD7010a306AbF94B073ffffffffffffffffffffffffffffffffffffffff16634d655aff6040518163ffffffff167c0100000000000000000000000000000000000000000000000000000000028152600401602060405180830381600087803b15801561253457600080fd5b505af1158015612548573d6000803e3d6000fd5b505050506040513d602081101561255e57600080fd5b810190808051906020019092919050505073ffffffffffffffffffffffffffffffffffffffff1663bdc963d8738FC97fdFe942c96b6f121E7CD7010a306AbF94B073ffffffffffffffffffffffffffffffffffffffff16636dc50caa6040518163ffffffff167c0100000000000000000000000000000000000000000000000000000000028152600401602060405180830381600087803b15801561260257600080fd5b505af1158015612616573d6000803e3d6000fd5b505050506040513d602081101561262c57600080fd5b81019080805190602001909291905050506040518263ffffffff167c0100000000000000000000000000000000000000000000000000000000028152600401808260001916600019168152602001915050602060405180830381600087803b15801561269757600080fd5b505af11580156126ab573d6000803e3d6000fd5b505050506040513d60208110156126c157600080fd5b810190808051906020019092919050505042614b6590919063ffffffff16565b600381905550816000806101000a81548173ffffffffffffffffffffffffffffffffffffffff021916908373ffffffffffffffffffffffffffffffffffffffff160217905550806001819055505050565b737E53b13e4Bf2aD30cbcD01352CD57292EC8c668281565b61278e6127556129a8565b8484848080601f016020809104026020016040519081016040528093929190818152602001838380828437820191505050505050614c5a565b505050565b60025481565b6127aa6127a46129a8565b82612f92565b50565b600560009054906101000a900473ffffffffffffffffffffffffffffffffffffffff1681565b612810848484848080601f016020809104026020016040519081016040528093929190818152602001838380828437820191505050505050614c5a565b50505050565b6000809054906101000a900473ffffffffffffffffffffffffffffffffffffffff1673ffffffffffffffffffffffffffffffffffffffff163373ffffffffffffffffffffffffffffffffffffffff1614151561287157600080fd5b612879615126565b151561288457600080fd5b806006908051906020019061289a92919061537d565b50738FC97fdFe942c96b6f121E7CD7010a306AbF94B073ffffffffffffffffffffffffffffffffffffffff1663a3b6c1b5600154836040518363ffffffff167c01000000000000000000000000000000000000000000000000000000000281526004018083815260200180602001828103825283818151815260200191508051906020019080838360005b83811015612940578082015181840152602081019050612925565b50505050905090810190601f16801561296d5780820380516001836020036101000a031916815260200191505b509350505050600060405180830381600087803b15801561298d57600080fd5b505af11580156129a1573d6000803e3d6000fd5b5050505050565b6000600160048054905003905090565b6000738FC97fdFe942c96b6f121E7CD7010a306AbF94B073ffffffffffffffffffffffffffffffffffffffff16635f9e8f826040518163ffffffff167c0100000000000000000000000000000000000000000000000000000000028152600401602060405180830381600087803b158015612a3257600080fd5b505af1158015612a46573d6000803e3d6000fd5b505050506040513d6020811015612a5c57600080fd5b8101908080519060200190929190505050151515612a7957600080fd5b739182b0f5017BC15fB37437eEC1b9cD74B89E3A0073ffffffffffffffffffffffffffffffffffffffff166323b872dd8530866040518463ffffffff167c0100000000000000000000000000000000000000000000000000000000028152600401808473ffffffffffffffffffffffffffffffffffffffff1673ffffffffffffffffffffffffffffffffffffffff1681526020018373ffffffffffffffffffffffffffffffffffffffff1673ffffffffffffffffffffffffffffffffffffffff1681526020018281526020019350505050602060405180830381600087803b158015612b6457600080fd5b505af1158015612b78573d6000803e3d6000fd5b505050506040513d6020811015612b8e57600080fd5b81019080805190602001909291905050501515612baa57600080fd5b612bb38561520b565b90508073ffffffffffffffffffffffffffffffffffffffff166327f429d88585856040518463ffffffff167c0100000000000000000000000000000000000000000000000000000000028152600401808473ffffffffffffffffffffffffffffffffffffffff1673ffffffffffffffffffffffffffffffffffffffff16815260200183815260200182600019166000191681526020019350505050600060405180830381600087803b158015612c6857600080fd5b505af1158015612c7c573d6000803e3d6000fd5b50505050738FC97fdFe942c96b6f121E7CD7010a306AbF94B073ffffffffffffffffffffffffffffffffffffffff166357ffc7db6001548787878673ffffffffffffffffffffffffffffffffffffffff16631a0a3aaa6040518163ffffffff167c0100000000000000000000000000000000000000000000000000000000028152600401602060405180830381600087803b158015612d1a57600080fd5b505af1158015612d2e573d6000803e3d6000fd5b505050506040513d6020811015612d4457600080fd5b81019080805190602001909291905050506040518663ffffffff167c0100000000000000000000000000000000000000000000000000000000028152600401808681526020018581526020018473ffffffffffffffffffffffffffffffffffffffff1673ffffffffffffffffffffffffffffffffffffffff16815260200183815260200182815260200195505050505050600060405180830381600087803b158015612def57600080fd5b505af1158015612e03573d6000803e3d6000fd5b505050505050505050565b600060048054905014158015612ec65750612e27614b4e565b73ffffffffffffffffffffffffffffffffffffffff1663e8c934fe6040518163ffffffff167c0100000000000000000000000000000000000000000000000000000000028152600401602060405180830381600087803b158015612e8a57600080fd5b505af1158015612e9e573d6000803e3d6000fd5b505050506040513d6020811015612eb457600080fd5b81019080805190602001909291905050505b15612f8e57612ed3614b4e565b73ffffffffffffffffffffffffffffffffffffffff166348b4cd4b83836040518363ffffffff167c0100000000000000000000000000000000000000000000000000000000028152600401808373ffffffffffffffffffffffffffffffffffffffff1673ffffffffffffffffffffffffffffffffffffffff16815260200182815260200192505050600060405180830381600087803b158015612f7557600080fd5b505af1158015612f89573d6000803e3d6000fd5b505050505b5050565b6000806000806000738FC97fdFe942c96b6f121E7CD7010a306AbF94B073ffffffffffffffffffffffffffffffffffffffff16635f9e8f826040518163ffffffff167c0100000000000000000000000000000000000000000000000000000000028152600401602060405180830381600087803b15801561301257600080fd5b505af1158015613026573d6000803e3d6000fd5b505050506040513d602081101561303c57600080fd5b810190808051906020019092919050505015151561305957600080fd5b6130628761520b565b94508473ffffffffffffffffffffffffffffffffffffffff1663b39c7600876040518263ffffffff167c0100000000000000000000000000000000000000000000000000000000028152600401808273ffffffffffffffffffffffffffffffffffffffff1673ffffffffffffffffffffffffffffffffffffffff168152602001915050602060405180830381600087803b1580156130ff57600080fd5b505af1158015613113573d6000803e3d6000fd5b505050506040513d602081101561312957600080fd5b81019080805190602001909291905050509350600084111561346057739182b0f5017BC15fB37437eEC1b9cD74B89E3A0073ffffffffffffffffffffffffffffffffffffffff1663a9059cbb8673ffffffffffffffffffffffffffffffffffffffff1663534db0e26040518163ffffffff167c0100000000000000000000000000000000000000000000000000000000028152600401602060405180830381600087803b1580156131d957600080fd5b505af11580156131ed573d6000803e3d6000fd5b505050506040513d602081101561320357600080fd5b8101908080519060200190929190505050866040518363ffffffff167c0100000000000000000000000000000000000000000000000000000000028152600401808373ffffffffffffffffffffffffffffffffffffffff1673ffffffffffffffffffffffffffffffffffffffff16815260200182815260200192505050602060405180830381600087803b15801561329a57600080fd5b505af11580156132ae573d6000803e3d6000fd5b505050506040513d60208110156132c457600080fd5b810190808051906020019092919050505015156132e057600080fd5b738FC97fdFe942c96b6f121E7CD7010a306AbF94B073ffffffffffffffffffffffffffffffffffffffff1663ccce5a43600154898873ffffffffffffffffffffffffffffffffffffffff1663534db0e26040518163ffffffff167c0100000000000000000000000000000000000000000000000000000000028152600401602060405180830381600087803b15801561337857600080fd5b505af115801561338c573d6000803e3d6000fd5b505050506040513d60208110156133a257600080fd5b8101908080519060200190929190505050886040518563ffffffff167c0100000000000000000000000000000000000000000000000000000000028152600401808581526020018481526020018373ffffffffffffffffffffffffffffffffffffffff1673ffffffffffffffffffffffffffffffffffffffff168152602001828152602001945050505050600060405180830381600087803b15801561344757600080fd5b505af115801561345b573d6000803e3d6000fd5b505050505b8473ffffffffffffffffffffffffffffffffffffffff166387f4ab31876040518263ffffffff167c0100000000000000000000000000000000000000000000000000000000028152600401808273ffffffffffffffffffffffffffffffffffffffff1673ffffffffffffffffffffffffffffffffffffffff168152602001915050602060405180830381600087803b1580156134fb57600080fd5b505af115801561350f573d6000803e3d6000fd5b505050506040513d602081101561352557600080fd5b81019080805190602001909291905050509250600083111561376257739182b0f5017BC15fB37437eEC1b9cD74B89E3A0073ffffffffffffffffffffffffffffffffffffffff1663a9059cbb6000809054906101000a900473ffffffffffffffffffffffffffffffffffffffff16856040518363ffffffff167c0100000000000000000000000000000000000000000000000000000000028152600401808373ffffffffffffffffffffffffffffffffffffffff1673ffffffffffffffffffffffffffffffffffffffff16815260200182815260200192505050602060405180830381600087803b15801561361957600080fd5b505af115801561362d573d6000803e3d6000fd5b505050506040513d602081101561364357600080fd5b8101908080519060200190929190505050151561365f57600080fd5b738FC97fdFe942c96b6f121E7CD7010a306AbF94B073ffffffffffffffffffffffffffffffffffffffff166359247c26600154896000809054906101000a900473ffffffffffffffffffffffffffffffffffffffff16876040518563ffffffff167c0100000000000000000000000000000000000000000000000000000000028152600401808581526020018481526020018373ffffffffffffffffffffffffffffffffffffffff1673ffffffffffffffffffffffffffffffffffffffff168152602001828152602001945050505050600060405180830381600087803b15801561374957600080fd5b505af115801561375d573d6000803e3d6000fd5b505050505b8473ffffffffffffffffffffffffffffffffffffffff1663f6884261876040518263ffffffff167c0100000000000000000000000000000000000000000000000000000000028152600401808273ffffffffffffffffffffffffffffffffffffffff1673ffffffffffffffffffffffffffffffffffffffff168152602001915050602060405180830381600087803b1580156137fd57600080fd5b505af1158015613811573d6000803e3d6000fd5b505050506040513d602081101561382757600080fd5b810190808051906020019092919050505091506000821115613a2657739182b0f5017BC15fB37437eEC1b9cD74B89E3A0073ffffffffffffffffffffffffffffffffffffffff1663a9059cbb87846040518363ffffffff167c0100000000000000000000000000000000000000000000000000000000028152600401808373ffffffffffffffffffffffffffffffffffffffff1673ffffffffffffffffffffffffffffffffffffffff16815260200182815260200192505050602060405180830381600087803b1580156138fa57600080fd5b505af115801561390e573d6000803e3d6000fd5b505050506040513d602081101561392457600080fd5b8101908080519060200190929190505050151561394057600080fd5b738FC97fdFe942c96b6f121E7CD7010a306AbF94B073ffffffffffffffffffffffffffffffffffffffff16632ae0099f6001548989866040518563ffffffff167c0100000000000000000000000000000000000000000000000000000000028152600401808581526020018481526020018373ffffffffffffffffffffffffffffffffffffffff1673ffffffffffffffffffffffffffffffffffffffff168152602001828152602001945050505050600060405180830381600087803b158015613a0957600080fd5b505af1158015613a1d573d6000803e3d6000fd5b50505050613ce7565b8473ffffffffffffffffffffffffffffffffffffffff16631d188416876040518263ffffffff167c0100000000000000000000000000000000000000000000000000000000028152600401808273ffffffffffffffffffffffffffffffffffffffff1673ffffffffffffffffffffffffffffffffffffffff168152602001915050602060405180830381600087803b158015613ac157600080fd5b505af1158015613ad5573d6000803e3d6000fd5b505050506040513d6020811015613aeb57600080fd5b810190808051906020019092919050505090506000811115613ce657739182b0f5017BC15fB37437eEC1b9cD74B89E3A0073ffffffffffffffffffffffffffffffffffffffff1663a9059cbb87836040518363ffffffff167c0100000000000000000000000000000000000000000000000000000000028152600401808373ffffffffffffffffffffffffffffffffffffffff1673ffffffffffffffffffffffffffffffffffffffff16815260200182815260200192505050602060405180830381600087803b158015613bbe57600080fd5b505af1158015613bd2573d6000803e3d6000fd5b505050506040513d6020811015613be857600080fd5b81019080805190602001909291905050501515613c0457600080fd5b738FC97fdFe942c96b6f121E7CD7010a306AbF94B073ffffffffffffffffffffffffffffffffffffffff1663e65ebf0a6001548989856040518563ffffffff167c0100000000000000000000000000000000000000000000000000000000028152600401808581526020018481526020018373ffffffffffffffffffffffffffffffffffffffff1673ffffffffffffffffffffffffffffffffffffffff168152602001828152602001945050505050600060405180830381600087803b158015613ccd57600080fd5b505af1158015613ce1573d6000803e3d6000fd5b505050505b5b50505050505050565b6000806000806000806000738FC97fdFe942c96b6f121E7CD7010a306AbF94B073ffffffffffffffffffffffffffffffffffffffff16635f9e8f826040518163ffffffff167c0100000000000000000000000000000000000000000000000000000000028152600401602060405180830381600087803b158015613d7357600080fd5b505af1158015613d87573d6000803e3d6000fd5b505050506040513d6020811015613d9d57600080fd5b8101908080519060200190929190505050151515613dba57600080fd5b60008973ffffffffffffffffffffffffffffffffffffffff1614151515613de057600080fd5b613de8615126565b1515613df357600080fd5b739182b0f5017BC15fB37437eEC1b9cD74B89E3A0073ffffffffffffffffffffffffffffffffffffffff166323b872dd8a306002546040518463ffffffff167c0100000000000000000000000000000000000000000000000000000000028152600401808473ffffffffffffffffffffffffffffffffffffffff1673ffffffffffffffffffffffffffffffffffffffff1681526020018373ffffffffffffffffffffffffffffffffffffffff1673ffffffffffffffffffffffffffffffffffffffff1681526020018281526020019350505050602060405180830381600087803b158015613ee057600080fd5b505af1158015613ef4573d6000803e3d6000fd5b505050506040513d6020811015613f0a57600080fd5b81019080805190602001909291905050501515613f2657600080fd5b738FC97fdFe942c96b6f121E7CD7010a306AbF94B073ffffffffffffffffffffffffffffffffffffffff16634d655aff6040518163ffffffff167c0100000000000000000000000000000000000000000000000000000000028152600401602060405180830381600087803b158015613f9e57600080fd5b505af1158015613fb2573d6000803e3d6000fd5b505050506040513d6020811015613fc857600080fd5b810190808051906020019092919050505073ffffffffffffffffffffffffffffffffffffffff1663bdc963d8738FC97fdFe942c96b6f121E7CD7010a306AbF94B073ffffffffffffffffffffffffffffffffffffffff1663799fcaae6040518163ffffffff167c0100000000000000000000000000000000000000000000000000000000028152600401602060405180830381600087803b15801561406c57600080fd5b505af1158015614080573d6000803e3d6000fd5b505050506040513d602081101561409657600080fd5b81019080805190602001909291905050506040518263ffffffff167c0100000000000000000000000000000000000000000000000000000000028152600401808260001916600019168152602001915050602060405180830381600087803b15801561410157600080fd5b505af1158015614115573d6000803e3d6000fd5b505050506040513d602081101561412b57600080fd5b81019080805190602001909291905050509650738FC97fdFe942c96b6f121E7CD7010a306AbF94B073ffffffffffffffffffffffffffffffffffffffff16634d655aff6040518163ffffffff167c0100000000000000000000000000000000000000000000000000000000028152600401602060405180830381600087803b1580156141b657600080fd5b505af11580156141ca573d6000803e3d6000fd5b505050506040513d60208110156141e057600080fd5b810190808051906020019092919050505073ffffffffffffffffffffffffffffffffffffffff1663bdc963d8738FC97fdFe942c96b6f121E7CD7010a306AbF94B073ffffffffffffffffffffffffffffffffffffffff16636009e5626040518163ffffffff167c0100000000000000000000000000000000000000000000000000000000028152600401602060405180830381600087803b15801561428457600080fd5b505af1158015614298573d6000803e3d6000fd5b505050506040513d60208110156142ae57600080fd5b81019080805190602001909291905050506040518263ffffffff167c0100000000000000000000000000000000000000000000000000000000028152600401808260001916600019168152602001915050602060405180830381600087803b15801561431957600080fd5b505af115801561432d573d6000803e3d6000fd5b505050506040513d602081101561434357600080fd5b810190808051906020019092919050505095506143698742614b6590919063ffffffff16565b945061437e8686614b6590919063ffffffff16565b935060646145af600254738FC97fdFe942c96b6f121E7CD7010a306AbF94B073ffffffffffffffffffffffffffffffffffffffff16634d655aff6040518163ffffffff167c0100000000000000000000000000000000000000000000000000000000028152600401602060405180830381600087803b15801561440057600080fd5b505af1158015614414573d6000803e3d6000fd5b505050506040513d602081101561442a57600080fd5b810190808051906020019092919050505073ffffffffffffffffffffffffffffffffffffffff1663bdc963d8738FC97fdFe942c96b6f121E7CD7010a306AbF94B073ffffffffffffffffffffffffffffffffffffffff1663018714f56040518163ffffffff167c0100000000000000000000000000000000000000000000000000000000028152600401602060405180830381600087803b1580156144ce57600080fd5b505af11580156144e2573d6000803e3d6000fd5b505050506040513d60208110156144f857600080fd5b81019080805190602001909291905050506040518263ffffffff167c0100000000000000000000000000000000000000000000000000000000028152600401808260001916600019168152602001915050602060405180830381600087803b15801561456357600080fd5b505af1158015614577573d6000803e3d6000fd5b505050506040513d602081101561458d57600080fd5b810190808051906020019092919050505060640361524e90919063ffffffff16565b8115156145b857fe5b049250738FC97fdFe942c96b6f121E7CD7010a306AbF94B073ffffffffffffffffffffffffffffffffffffffff16634d655aff6040518163ffffffff167c0100000000000000000000000000000000000000000000000000000000028152600401602060405180830381600087803b15801561463357600080fd5b505af1158015614647573d6000803e3d6000fd5b505050506040513d602081101561465d57600080fd5b810190808051906020019092919050505073ffffffffffffffffffffffffffffffffffffffff1663bdc963d8738FC97fdFe942c96b6f121E7CD7010a306AbF94B073ffffffffffffffffffffffffffffffffffffffff1663ee31e7b06040518163ffffffff167c0100000000000000000000000000000000000000000000000000000000028152600401602060405180830381600087803b15801561470157600080fd5b505af1158015614715573d6000803e3d6000fd5b505050506040513d602081101561472b57600080fd5b81019080805190602001909291905050506040518263ffffffff167c0100000000000000000000000000000000000000000000000000000000028152600401808260001916600019168152602001915050602060405180830381600087803b15801561479657600080fd5b505af11580156147aa573d6000803e3d6000fd5b505050506040513d60208110156147c057600080fd5b810190808051906020019092919050505091506147db6153fd565b604051809103906000f0801580156147f7573d6000803e3d6000fd5b5090508073ffffffffffffffffffffffffffffffffffffffff166398bb9a6b308b8b6003548a8a8a8a6040518963ffffffff167c0100000000000000000000000000000000000000000000000000000000028152600401808973ffffffffffffffffffffffffffffffffffffffff1673ffffffffffffffffffffffffffffffffffffffff1681526020018873ffffffffffffffffffffffffffffffffffffffff1673ffffffffffffffffffffffffffffffffffffffff16815260200180602001878152602001868152602001858152602001848152602001838152602001828103825288818151815260200191508051906020019080838360005b8381101561490d5780820151818401526020810190506148f2565b50505050905090810190601f16801561493a5780820380516001836020036101000a031916815260200191505b509950505050505050505050600060405180830381600087803b15801561496057600080fd5b505af1158015614974573d6000803e3d6000fd5b5050505060048190806001815401808255809150509060018203906000526020600020016000909192909190916101000a81548173ffffffffffffffffffffffffffffffffffffffff021916908373ffffffffffffffffffffffffffffffffffffffff16021790555050738FC97fdFe942c96b6f121E7CD7010a306AbF94B073ffffffffffffffffffffffffffffffffffffffff16637fe37893600154614a196129a8565b8c8989898f6040518863ffffffff167c0100000000000000000000000000000000000000000000000000000000028152600401808881526020018781526020018673ffffffffffffffffffffffffffffffffffffffff1673ffffffffffffffffffffffffffffffffffffffff16815260200185815260200184815260200183815260200180602001828103825283818151815260200191508051906020019080838360005b83811015614ad9578082015181840152602081019050614abe565b50505050905090810190601f168015614b065780820380516001836020036101000a031916815260200191505b5098505050505050505050600060405180830381600087803b158015614b2b57600080fd5b505af1158015614b3f573d6000803e3d6000fd5b50505050505050505050505050565b6000614b60614b5b6129a8565b61520b565b905090565b6000808284019050838110156040805190810160405280601181526020017f4d4154485f4144445f4f564552464c4f57000000000000000000000000000000815250901515614c4f576040517f08c379a00000000000000000000000000000000000000000000000000000000081526004018080602001828103825283818151815260200191508051906020019080838360005b83811015614c14578082015181840152602081019050614bf9565b50505050905090810190601f168015614c415780820380516001836020036101000a031916815260200191505b509250505060405180910390fd5b508091505092915050565b6000806000738FC97fdFe942c96b6f121E7CD7010a306AbF94B073ffffffffffffffffffffffffffffffffffffffff16635f9e8f826040518163ffffffff167c0100000000000000000000000000000000000000000000000000000000028152600401602060405180830381600087803b158015614cd757600080fd5b505af1158015614ceb573d6000803e3d6000fd5b505050506040513d6020811015614d0157600080fd5b8101908080519060200190929190505050151515614d1e57600080fd5b339250614d2a8661520b565b91508173ffffffffffffffffffffffffffffffffffffffff1663803f5b7f8487876040518463ffffffff167c0100000000000000000000000000000000000000000000000000000000028152600401808473ffffffffffffffffffffffffffffffffffffffff1673ffffffffffffffffffffffffffffffffffffffff168152602001836002811115614db857fe5b60ff16815260200180602001828103825283818151815260200191508051906020019080838360005b83811015614dfc578082015181840152602081019050614de1565b50505050905090810190601f168015614e295780820380516001836020036101000a031916815260200191505b50945050505050602060405180830381600087803b158015614e4a57600080fd5b505af1158015614e5e573d6000803e3d6000fd5b505050506040513d6020811015614e7457600080fd5b81019080805190602001909291905050509050739182b0f5017BC15fB37437eEC1b9cD74B89E3A0073ffffffffffffffffffffffffffffffffffffffff1663a9059cbb84836040518363ffffffff167c0100000000000000000000000000000000000000000000000000000000028152600401808373ffffffffffffffffffffffffffffffffffffffff1673ffffffffffffffffffffffffffffffffffffffff16815260200182815260200192505050602060405180830381600087803b158015614f3e57600080fd5b505af1158015614f52573d6000803e3d6000fd5b505050506040513d6020811015614f6857600080fd5b81019080805190602001909291905050501515614f8457600080fd5b738FC97fdFe942c96b6f121E7CD7010a306AbF94B073ffffffffffffffffffffffffffffffffffffffff166306289a876001548886896002811115614fc557fe5b868873ffffffffffffffffffffffffffffffffffffffff166387eb29736040518163ffffffff167c0100000000000000000000000000000000000000000000000000000000028152600401602060405180830381600087803b15801561502a57600080fd5b505af115801561503e573d6000803e3d6000fd5b505050506040513d602081101561505457600080fd5b81019080805190602001909291905050506040518763ffffffff167c0100000000000000000000000000000000000000000000000000000000028152600401808781526020018681526020018573ffffffffffffffffffffffffffffffffffffffff1673ffffffffffffffffffffffffffffffffffffffff1681526020018481526020018381526020018281526020019650505050505050600060405180830381600087803b15801561510657600080fd5b505af115801561511a573d6000803e3d6000fd5b50505050505050505050565b6000615130615360565b8015615206575060006004805490501480615205575060048081111561515257fe5b61515a614b4e565b73ffffffffffffffffffffffffffffffffffffffff1663200d2ed26040518163ffffffff167c0100000000000000000000000000000000000000000000000000000000028152600401602060405180830381600087803b1580156151bd57600080fd5b505af11580156151d1573d6000803e3d6000fd5b505050506040513d60208110156151e757600080fd5b8101908080519060200190929190505050600481111561520357fe5b145b5b905090565b600060048281548110151561521c57fe5b9060005260206000200160009054906101000a900473ffffffffffffffffffffffffffffffffffffffff169050919050565b60008060008414156152635760009150615359565b828402905082848281151561527457fe5b04146040805190810160405280601181526020017f4d4154485f4d554c5f4f564552464c4f57000000000000000000000000000000815250901515615354576040517f08c379a00000000000000000000000000000000000000000000000000000000081526004018080602001828103825283818151815260200191508051906020019080838360005b838110156153195780820151818401526020810190506152fe565b50505050905090810190601f1680156153465780820380516001836020036101000a031916815260200191505b509250505060405180910390fd5b508091505b5092915050565b6000600354421115905090565b6040516101a08061543383390190565b828054600181600116156101000203166002900490600052602060002090601f016020900481019282601f106153be57805160ff19168380011785556153ec565b828001600101855582156153ec579182015b828111156153eb5782518255916020019190600101906153d0565b5b5090506153f9919061540d565b5090565b6040516101a0806155d383390190565b61542f91905b8082111561542b576000816000905550600101615413565b5090565b905600608060405234801561001057600080fd5b50610180806100206000396000f300608060405260043610610041576000357c0100000000000000000000000000000000000000000000000000000000900463ffffffff168063d4b8399214610094575b6100927381Ff983210518558c9a2dAA20AD5ea4Fab99EE386000368080601f0160208091040260200160405190810160405280939291908181526020018383808284378201915050505050506100eb565b005b3480156100a057600080fd5b506100a9610129565b604051808273ffffffffffffffffffffffffffffffffffffffff1673ffffffffffffffffffffffffffffffffffffffff16815260200191505060405180910390f35b6100f482610141565b15156100ff57600080fd5b600080825160208401856127105a03f43d604051816000823e8260008114610125578282f35b8282fd5b7381Ff983210518558c9a2dAA20AD5ea4Fab99EE3881565b600080823b9050600081119150509190505600a165627a7a72305820798f0fef82b2e3556befb5c6b15ee14a05fc9e6de19e45f8d4dbad1b6a4d7a7f0029608060405234801561001057600080fd5b50610180806100206000396000f300608060405260043610610041576000357c0100000000000000000000000000000000000000000000000000000000900463ffffffff168063d4b8399214610094575b610092731A94115028e438e17285347319226F2C752e210d6000368080601f0160208091040260200160405190810160405280939291908181526020018383808284378201915050505050506100eb565b005b3480156100a057600080fd5b506100a9610129565b604051808273ffffffffffffffffffffffffffffffffffffffff1673ffffffffffffffffffffffffffffffffffffffff16815260200191505060405180910390f35b6100f482610141565b15156100ff57600080fd5b600080825160208401856127105a03f43d604051816000823e8260008114610125578282f35b8282fd5b731A94115028e438e17285347319226F2C752e210d81565b600080823b9050600081119150509190505600a165627a7a72305820144734fcc804b3f034561533e7ca0d5369ac068ed4a8b28637ca6be1140288870029a165627a7a7230582073b675ffd65505aa632a0a0c7a881bd9269bcb6b758558feb06151bb79d5ecb30029",
  "deployedBytecode": "0x60806040526004361061013e576000357c0100000000000000000000000000000000000000000000000000000000900463ffffffff16806302d05d3f1461014357806327f429d81461019a5780632e17de78146101f55780632ee4090814610222578063429d42521461026f57806354fd4d5014610358578063671f08e31461038357806370a08231146103ae5780637792957d146104055780637b1039991461045c5780637faa6e8c146104b3578063827c62fb1461050057806387dfc3eb146105905780638f1d3776146106195780638f4ffcb114610686578063a9624b6f14610739578063ab5310311461079e578063af2dfdb7146107eb578063c8cfe15314610842578063d0e30db01461088a578063d279c191146108b5578063d6edcd81146108f8578063e71ae0f11461094f578063ef0ca9b5146109a1575b600080fd5b34801561014f57600080fd5b50610158610a0a565b604051808273ffffffffffffffffffffffffffffffffffffffff1673ffffffffffffffffffffffffffffffffffffffff16815260200191505060405180910390f35b3480156101a657600080fd5b506101f3600480360381019080803573ffffffffffffffffffffffffffffffffffffffff169060200190929190803590602001909291908035600019169060200190929190505050610a2f565b005b34801561020157600080fd5b5061022060048036038101908080359060200190929190505050610a47565b005b34801561022e57600080fd5b5061026d600480360381019080803573ffffffffffffffffffffffffffffffffffffffff169060200190929190803590602001909291905050506110e8565b005b34801561027b57600080fd5b50610356600480360381019080803573ffffffffffffffffffffffffffffffffffffffff16906020019092919080359060200190929190803590602001908201803590602001908080601f0160208091040260200160405190810160405280939291908181526020018383808284378201915050505050509192919290803563ffffffff169060200190929190803590602001908201803590602001908080601f016020809104026020016040519081016040528093929190818152602001838380828437820191505050505050919291929050505061179c565b005b34801561036457600080fd5b5061036d611cdf565b6040518082815260200191505060405180910390f35b34801561038f57600080fd5b50610398611ce5565b6040518082815260200191505060405180910390f35b3480156103ba57600080fd5b506103ef600480360381019080803573ffffffffffffffffffffffffffffffffffffffff169060200190929190505050611ceb565b6040518082815260200191505060405180910390f35b34801561041157600080fd5b5061041a611dec565b604051808273ffffffffffffffffffffffffffffffffffffffff1673ffffffffffffffffffffffffffffffffffffffff16815260200191505060405180910390f35b34801561046857600080fd5b50610471611e04565b604051808273ffffffffffffffffffffffffffffffffffffffff1673ffffffffffffffffffffffffffffffffffffffff16815260200191505060405180910390f35b3480156104bf57600080fd5b506104fe60048036038101908080359060200190929190803573ffffffffffffffffffffffffffffffffffffffff169060200190929190505050611e1c565b005b34801561050c57600080fd5b50610515611e2a565b6040518080602001828103825283818151815260200191508051906020019080838360005b8381101561055557808201518184015260208101905061053a565b50505050905090810190601f1680156105825780820380516001836020036101000a031916815260200191505b509250505060405180910390f35b34801561059c57600080fd5b50610617600480360381019080803573ffffffffffffffffffffffffffffffffffffffff169060200190929190803590602001908201803590602001908080601f0160208091040260200160405190810160405280939291908181526020018383808284378201915050505050509192919290505050611ec8565b005b34801561062557600080fd5b5061064460048036038101908080359060200190929190505050612071565b604051808273ffffffffffffffffffffffffffffffffffffffff1673ffffffffffffffffffffffffffffffffffffffff16815260200191505060405180910390f35b34801561069257600080fd5b50610737600480360381019080803573ffffffffffffffffffffffffffffffffffffffff16906020019092919080359060200190929190803573ffffffffffffffffffffffffffffffffffffffff169060200190929190803590602001908201803590602001908080601f01602080910402602001604051908101604052809392919081815260200183838082843782019150505050505091929192905050506120af565b005b34801561074557600080fd5b5061079c60048036038101908080359060200190929190803573ffffffffffffffffffffffffffffffffffffffff169060200190929190803590602001909291908035600019169060200190929190505050612147565b005b3480156107aa57600080fd5b506107e9600480360381019080803573ffffffffffffffffffffffffffffffffffffffff16906020019092919080359060200190929190505050612159565b005b3480156107f757600080fd5b50610800612732565b604051808273ffffffffffffffffffffffffffffffffffffffff1673ffffffffffffffffffffffffffffffffffffffff16815260200191505060405180910390f35b34801561084e57600080fd5b50610888600480360381019080803560ff16906020019092919080359060200190820180359060200191909192939192939050505061274a565b005b34801561089657600080fd5b5061089f612793565b6040518082815260200191505060405180910390f35b3480156108c157600080fd5b506108f6600480360381019080803573ffffffffffffffffffffffffffffffffffffffff169060200190929190505050612799565b005b34801561090457600080fd5b5061090d6127ad565b604051808273ffffffffffffffffffffffffffffffffffffffff1673ffffffffffffffffffffffffffffffffffffffff16815260200191505060405180910390f35b34801561095b57600080fd5b5061099f60048036038101908080359060200190929190803560ff1690602001909291908035906020019082018035906020019190919293919293905050506127d3565b005b3480156109ad57600080fd5b50610a08600480360381019080803590602001908201803590602001908080601f0160208091040260200160405190810160405280939291908181526020018383808284378201915050505050509192919290505050612816565b005b6000809054906101000a900473ffffffffffffffffffffffffffffffffffffffff1681565b610a42610a3a6129a8565b8484846129b8565b505050565b73deaddeaddeaddeaddeaddeaddeaddeaddeaddead73ffffffffffffffffffffffffffffffffffffffff1663a9059cbb33836040518363ffffffff167c0100000000000000000000000000000000000000000000000000000000028152600401808373ffffffffffffffffffffffffffffffffffffffff1673ffffffffffffffffffffffffffffffffffffffff16815260200182815260200192505050602060405180830381600087803b158015610afe57600080fd5b505af1158015610b12573d6000803e3d6000fd5b505050506040513d6020811015610b2857600080fd5b81019080805190602001909291905050501515610b4457600080fd5b600560009054906101000a900473ffffffffffffffffffffffffffffffffffffffff1673ffffffffffffffffffffffffffffffffffffffff1663c2a672e033836040518363ffffffff167c0100000000000000000000000000000000000000000000000000000000028152600401808373ffffffffffffffffffffffffffffffffffffffff1673ffffffffffffffffffffffffffffffffffffffff16815260200182815260200192505050602060405180830381600087803b158015610c0957600080fd5b505af1158015610c1d573d6000803e3d6000fd5b505050506040513d6020811015610c3357600080fd5b810190808051906020019092919050505050610c71337fffffffffffffffffffffffffffffffffffffffffffffffffffffffffffffffff8302612e0e565b73feedfeedfeedfeedfeedfeedfeedfeedfeedfeed73ffffffffffffffffffffffffffffffffffffffff1663129704f6600154600560009054906101000a900473ffffffffffffffffffffffffffffffffffffffff1673ffffffffffffffffffffffffffffffffffffffff1663817b1cd26040518163ffffffff167c0100000000000000000000000000000000000000000000000000000000028152600401602060405180830381600087803b158015610d2a57600080fd5b505af1158015610d3e573d6000803e3d6000fd5b505050506040513d6020811015610d5457600080fd5b8101908080519060200190929190505050600560009054906101000a900473ffffffffffffffffffffffffffffffffffffffff1673ffffffffffffffffffffffffffffffffffffffff166318160ddd6040518163ffffffff167c0100000000000000000000000000000000000000000000000000000000028152600401602060405180830381600087803b158015610deb57600080fd5b505af1158015610dff573d6000803e3d6000fd5b505050506040513d6020811015610e1557600080fd5b810190808051906020019092919050505033600560009054906101000a900473ffffffffffffffffffffffffffffffffffffffff1673ffffffffffffffffffffffffffffffffffffffff16634b341aed336040518263ffffffff167c0100000000000000000000000000000000000000000000000000000000028152600401808273ffffffffffffffffffffffffffffffffffffffff1673ffffffffffffffffffffffffffffffffffffffff168152602001915050602060405180830381600087803b158015610ee457600080fd5b505af1158015610ef8573d6000803e3d6000fd5b505050506040513d6020811015610f0e57600080fd5b8101908080519060200190929190505050600560009054906101000a900473ffffffffffffffffffffffffffffffffffffffff1673ffffffffffffffffffffffffffffffffffffffff166370a08231336040518263ffffffff167c0100000000000000000000000000000000000000000000000000000000028152600401808273ffffffffffffffffffffffffffffffffffffffff1673ffffffffffffffffffffffffffffffffffffffff168152602001915050602060405180830381600087803b158015610fdc57600080fd5b505af1158015610ff0573d6000803e3d6000fd5b505050506040513d602081101561100657600080fd5b81019080805190602001909291905050508860016040518963ffffffff167c0100000000000000000000000000000000000000000000000000000000028152600401808981526020018881526020018781526020018673ffffffffffffffffffffffffffffffffffffffff1673ffffffffffffffffffffffffffffffffffffffff1681526020018581526020018481526020018381526020018215151515815260200198505050505050505050600060405180830381600087803b1580156110cd57600080fd5b505af11580156110e1573d6000803e3d6000fd5b5050505050565b73deaddeaddeaddeaddeaddeaddeaddeaddeaddead73ffffffffffffffffffffffffffffffffffffffff166323b872dd8330846040518463ffffffff167c0100000000000000000000000000000000000000000000000000000000028152600401808473ffffffffffffffffffffffffffffffffffffffff1673ffffffffffffffffffffffffffffffffffffffff1681526020018373ffffffffffffffffffffffffffffffffffffffff1673ffffffffffffffffffffffffffffffffffffffff1681526020018281526020019350505050602060405180830381600087803b1580156111d357600080fd5b505af11580156111e7573d6000803e3d6000fd5b505050506040513d60208110156111fd57600080fd5b8101908080519060200190929190505050151561121957600080fd5b600560009054906101000a900473ffffffffffffffffffffffffffffffffffffffff1673ffffffffffffffffffffffffffffffffffffffff16632ee4090883836040518363ffffffff167c0100000000000000000000000000000000000000000000000000000000028152600401808373ffffffffffffffffffffffffffffffffffffffff1673ffffffffffffffffffffffffffffffffffffffff16815260200182815260200192505050602060405180830381600087803b1580156112de57600080fd5b505af11580156112f2573d6000803e3d6000fd5b505050506040513d602081101561130857600080fd5b8101908080519060200190929190505050506113248282612e0e565b73feedfeedfeedfeedfeedfeedfeedfeedfeedfeed73ffffffffffffffffffffffffffffffffffffffff1663129704f6600154600560009054906101000a900473ffffffffffffffffffffffffffffffffffffffff1673ffffffffffffffffffffffffffffffffffffffff1663817b1cd26040518163ffffffff167c0100000000000000000000000000000000000000000000000000000000028152600401602060405180830381600087803b1580156113dd57600080fd5b505af11580156113f1573d6000803e3d6000fd5b505050506040513d602081101561140757600080fd5b8101908080519060200190929190505050600560009054906101000a900473ffffffffffffffffffffffffffffffffffffffff1673ffffffffffffffffffffffffffffffffffffffff166318160ddd6040518163ffffffff167c0100000000000000000000000000000000000000000000000000000000028152600401602060405180830381600087803b15801561149e57600080fd5b505af11580156114b2573d6000803e3d6000fd5b505050506040513d60208110156114c857600080fd5b810190808051906020019092919050505086600560009054906101000a900473ffffffffffffffffffffffffffffffffffffffff1673ffffffffffffffffffffffffffffffffffffffff16634b341aed896040518263ffffffff167c0100000000000000000000000000000000000000000000000000000000028152600401808273ffffffffffffffffffffffffffffffffffffffff1673ffffffffffffffffffffffffffffffffffffffff168152602001915050602060405180830381600087803b15801561159757600080fd5b505af11580156115ab573d6000803e3d6000fd5b505050506040513d60208110156115c157600080fd5b8101908080519060200190929190505050600560009054906101000a900473ffffffffffffffffffffffffffffffffffffffff1673ffffffffffffffffffffffffffffffffffffffff166370a082318a6040518263ffffffff167c0100000000000000000000000000000000000000000000000000000000028152600401808273ffffffffffffffffffffffffffffffffffffffff1673ffffffffffffffffffffffffffffffffffffffff168152602001915050602060405180830381600087803b15801561168f57600080fd5b505af11580156116a3573d6000803e3d6000fd5b505050506040513d60208110156116b957600080fd5b81019080805190602001909291905050508860006040518963ffffffff167c0100000000000000000000000000000000000000000000000000000000028152600401808981526020018881526020018781526020018673ffffffffffffffffffffffffffffffffffffffff1673ffffffffffffffffffffffffffffffffffffffff1681526020018581526020018481526020018381526020018215151515815260200198505050505050505050600060405180830381600087803b15801561178057600080fd5b505af1158015611794573d6000803e3d6000fd5b505050505050565b60006117a88686612159565b6117b061536d565b604051809103906000f0801580156117cc573d6000803e3d6000fd5b50600560006101000a81548173ffffffffffffffffffffffffffffffffffffffff021916908373ffffffffffffffffffffffffffffffffffffffff160217905550600560009054906101000a900473ffffffffffffffffffffffffffffffffffffffff1673ffffffffffffffffffffffffffffffffffffffff16633d1d878a846040518263ffffffff167c0100000000000000000000000000000000000000000000000000000000028152600401808263ffffffff1663ffffffff168152602001915050600060405180830381600087803b1580156118aa57600080fd5b505af11580156118be573d6000803e3d6000fd5b5050505060001960038190555083600690805190602001906118e192919061537d565b5073aaaaaaaaaaaaaaaaaaaaaaaaaaaaaaaaaaaaaaaa73ffffffffffffffffffffffffffffffffffffffff166362fd8efc83600560009054906101000a900473ffffffffffffffffffffffffffffffffffffffff16896040518463ffffffff167c010000000000000000000000000000000000000000000000000000000002815260040180806020018473ffffffffffffffffffffffffffffffffffffffff1673ffffffffffffffffffffffffffffffffffffffff1681526020018373ffffffffffffffffffffffffffffffffffffffff1673ffffffffffffffffffffffffffffffffffffffff168152602001828103825285818151815260200191508051906020019080838360005b83811015611a065780820151818401526020810190506119eb565b50505050905090810190601f168015611a335780820380516001836020036101000a031916815260200191505b50945050505050602060405180830381600087803b158015611a5457600080fd5b505af1158015611a68573d6000803e3d6000fd5b505050506040513d6020811015611a7e57600080fd5b8101908080519060200190929190505050905073feedfeedfeedfeedfeedfeedfeedfeedfeedfeed73ffffffffffffffffffffffffffffffffffffffff16639f8bfcba6001546000809054906101000a900473ffffffffffffffffffffffffffffffffffffffff16600660025460035489888a6040518963ffffffff167c0100000000000000000000000000000000000000000000000000000000028152600401808981526020018873ffffffffffffffffffffffffffffffffffffffff1673ffffffffffffffffffffffffffffffffffffffff168152602001806020018781526020018681526020018563ffffffff1663ffffffff1681526020018473ffffffffffffffffffffffffffffffffffffffff1673ffffffffffffffffffffffffffffffffffffffff16815260200180602001838103835289818154600181600116156101000203166002900481526020019150805460018160011615610100020316600290048015611c315780601f10611c0657610100808354040283529160200191611c31565b820191906000526020600020905b815481529060010190602001808311611c1457829003601f168201915b5050838103825284818151815260200191508051906020019080838360005b83811015611c6b578082015181840152602081019050611c50565b50505050905090810190601f168015611c985780820380516001836020036101000a031916815260200191505b509a5050505050505050505050600060405180830381600087803b158015611cbf57600080fd5b505af1158015611cd3573d6000803e3d6000fd5b50505050505050505050565b60015481565b60035481565b6000600560009054906101000a900473ffffffffffffffffffffffffffffffffffffffff1673ffffffffffffffffffffffffffffffffffffffff166370a08231836040518263ffffffff167c0100000000000000000000000000000000000000000000000000000000028152600401808273ffffffffffffffffffffffffffffffffffffffff1673ffffffffffffffffffffffffffffffffffffffff168152602001915050602060405180830381600087803b158015611daa57600080fd5b505af1158015611dbe573d6000803e3d6000fd5b505050506040513d6020811015611dd457600080fd5b81019080805190602001909291905050509050919050565b73deaddeaddeaddeaddeaddeaddeaddeaddeaddead81565b73feedfeedfeedfeedfeedfeedfeedfeedfeedfeed81565b611e268282612f92565b5050565b60068054600181600116156101000203166002900480601f016020809104026020016040519081016040528092919081815260200182805460018160011615610100020316600290048015611ec05780601f10611e9557610100808354040283529160200191611ec0565b820191906000526020600020905b815481529060010190602001808311611ea357829003601f168201915b505050505081565b73feedfeedfeedfeedfeedfeedfeedfeedfeedfeed73ffffffffffffffffffffffffffffffffffffffff16635f9e8f826040518163ffffffff167c0100000000000000000000000000000000000000000000000000000000028152600401602060405180830381600087803b158015611f4057600080fd5b505af1158015611f54573d6000803e3d6000fd5b505050506040513d6020811015611f6a57600080fd5b8101908080519060200190929190505050151515611f8757600080fd5b611f918282613cf0565b611f99614b4e565b73ffffffffffffffffffffffffffffffffffffffff1663a3e69cd3600560009054906101000a900473ffffffffffffffffffffffffffffffffffffffff166040518263ffffffff167c0100000000000000000000000000000000000000000000000000000000028152600401808273ffffffffffffffffffffffffffffffffffffffff1673ffffffffffffffffffffffffffffffffffffffff168152602001915050600060405180830381600087803b15801561205557600080fd5b505af1158015612069573d6000803e3d6000fd5b505050505050565b60048181548110151561208057fe5b906000526020600020016000915054906101000a900473ffffffffffffffffffffffffffffffffffffffff1681565b3073ffffffffffffffffffffffffffffffffffffffff168160405180828051906020019080838360005b838110156120f45780820151818401526020810190506120d9565b50505050905090810190601f1680156121215780820380516001836020036101000a031916815260200191505b509150506000604051808303816000865af1915050151561214157600080fd5b50505050565b612153848484846129b8565b50505050565b600060035414151561216a57600080fd5b73feedfeedfeedfeedfeedfeedfeedfeedfeedfeed73ffffffffffffffffffffffffffffffffffffffff16634d655aff6040518163ffffffff167c0100000000000000000000000000000000000000000000000000000000028152600401602060405180830381600087803b1580156121e257600080fd5b505af11580156121f6573d6000803e3d6000fd5b505050506040513d602081101561220c57600080fd5b810190808051906020019092919050505073ffffffffffffffffffffffffffffffffffffffff1663bdc963d873feedfeedfeedfeedfeedfeedfeedfeedfeedfeed73ffffffffffffffffffffffffffffffffffffffff16630c380fdb6040518163ffffffff167c0100000000000000000000000000000000000000000000000000000000028152600401602060405180830381600087803b1580156122b057600080fd5b505af11580156122c4573d6000803e3d6000fd5b505050506040513d60208110156122da57600080fd5b81019080805190602001909291905050506040518263ffffffff167c0100000000000000000000000000000000000000000000000000000000028152600401808260001916600019168152602001915050602060405180830381600087803b15801561234557600080fd5b505af1158015612359573d6000803e3d6000fd5b505050506040513d602081101561236f57600080fd5b810190808051906020019092919050505060028190555073deaddeaddeaddeaddeaddeaddeaddeaddeaddead73ffffffffffffffffffffffffffffffffffffffff166323b872dd33306002546040518463ffffffff167c0100000000000000000000000000000000000000000000000000000000028152600401808473ffffffffffffffffffffffffffffffffffffffff1673ffffffffffffffffffffffffffffffffffffffff1681526020018373ffffffffffffffffffffffffffffffffffffffff1673ffffffffffffffffffffffffffffffffffffffff1681526020018281526020019350505050602060405180830381600087803b15801561247357600080fd5b505af1158015612487573d6000803e3d6000fd5b505050506040513d602081101561249d57600080fd5b810190808051906020019092919050505015156124b957600080fd5b6126e173feedfeedfeedfeedfeedfeedfeedfeedfeedfeed73ffffffffffffffffffffffffffffffffffffffff16634d655aff6040518163ffffffff167c0100000000000000000000000000000000000000000000000000000000028152600401602060405180830381600087803b15801561253457600080fd5b505af1158015612548573d6000803e3d6000fd5b505050506040513d602081101561255e57600080fd5b810190808051906020019092919050505073ffffffffffffffffffffffffffffffffffffffff1663bdc963d873feedfeedfeedfeedfeedfeedfeedfeedfeedfeed73ffffffffffffffffffffffffffffffffffffffff16636dc50caa6040518163ffffffff167c0100000000000000000000000000000000000000000000000000000000028152600401602060405180830381600087803b15801561260257600080fd5b505af1158015612616573d6000803e3d6000fd5b505050506040513d602081101561262c57600080fd5b81019080805190602001909291905050506040518263ffffffff167c0100000000000000000000000000000000000000000000000000000000028152600401808260001916600019168152602001915050602060405180830381600087803b15801561269757600080fd5b505af11580156126ab573d6000803e3d6000fd5b505050506040513d60208110156126c157600080fd5b810190808051906020019092919050505042614b6590919063ffffffff16565b600381905550816000806101000a81548173ffffffffffffffffffffffffffffffffffffffff021916908373ffffffffffffffffffffffffffffffffffffffff160217905550806001819055505050565b73aaaaaaaaaaaaaaaaaaaaaaaaaaaaaaaaaaaaaaaa81565b61278e6127556129a8565b8484848080601f016020809104026020016040519081016040528093929190818152602001838380828437820191505050505050614c5a565b505050565b60025481565b6127aa6127a46129a8565b82612f92565b50565b600560009054906101000a900473ffffffffffffffffffffffffffffffffffffffff1681565b612810848484848080601f016020809104026020016040519081016040528093929190818152602001838380828437820191505050505050614c5a565b50505050565b6000809054906101000a900473ffffffffffffffffffffffffffffffffffffffff1673ffffffffffffffffffffffffffffffffffffffff163373ffffffffffffffffffffffffffffffffffffffff1614151561287157600080fd5b612879615126565b151561288457600080fd5b806006908051906020019061289a92919061537d565b5073feedfeedfeedfeedfeedfeedfeedfeedfeedfeed73ffffffffffffffffffffffffffffffffffffffff1663a3b6c1b5600154836040518363ffffffff167c01000000000000000000000000000000000000000000000000000000000281526004018083815260200180602001828103825283818151815260200191508051906020019080838360005b83811015612940578082015181840152602081019050612925565b50505050905090810190601f16801561296d5780820380516001836020036101000a031916815260200191505b509350505050600060405180830381600087803b15801561298d57600080fd5b505af11580156129a1573d6000803e3d6000fd5b5050505050565b6000600160048054905003905090565b600073feedfeedfeedfeedfeedfeedfeedfeedfeedfeed73ffffffffffffffffffffffffffffffffffffffff16635f9e8f826040518163ffffffff167c0100000000000000000000000000000000000000000000000000000000028152600401602060405180830381600087803b158015612a3257600080fd5b505af1158015612a46573d6000803e3d6000fd5b505050506040513d6020811015612a5c57600080fd5b8101908080519060200190929190505050151515612a7957600080fd5b73deaddeaddeaddeaddeaddeaddeaddeaddeaddead73ffffffffffffffffffffffffffffffffffffffff166323b872dd8530866040518463ffffffff167c0100000000000000000000000000000000000000000000000000000000028152600401808473ffffffffffffffffffffffffffffffffffffffff1673ffffffffffffffffffffffffffffffffffffffff1681526020018373ffffffffffffffffffffffffffffffffffffffff1673ffffffffffffffffffffffffffffffffffffffff1681526020018281526020019350505050602060405180830381600087803b158015612b6457600080fd5b505af1158015612b78573d6000803e3d6000fd5b505050506040513d6020811015612b8e57600080fd5b81019080805190602001909291905050501515612baa57600080fd5b612bb38561520b565b90508073ffffffffffffffffffffffffffffffffffffffff166327f429d88585856040518463ffffffff167c0100000000000000000000000000000000000000000000000000000000028152600401808473ffffffffffffffffffffffffffffffffffffffff1673ffffffffffffffffffffffffffffffffffffffff16815260200183815260200182600019166000191681526020019350505050600060405180830381600087803b158015612c6857600080fd5b505af1158015612c7c573d6000803e3d6000fd5b5050505073feedfeedfeedfeedfeedfeedfeedfeedfeedfeed73ffffffffffffffffffffffffffffffffffffffff166357ffc7db6001548787878673ffffffffffffffffffffffffffffffffffffffff16631a0a3aaa6040518163ffffffff167c0100000000000000000000000000000000000000000000000000000000028152600401602060405180830381600087803b158015612d1a57600080fd5b505af1158015612d2e573d6000803e3d6000fd5b505050506040513d6020811015612d4457600080fd5b81019080805190602001909291905050506040518663ffffffff167c0100000000000000000000000000000000000000000000000000000000028152600401808681526020018581526020018473ffffffffffffffffffffffffffffffffffffffff1673ffffffffffffffffffffffffffffffffffffffff16815260200183815260200182815260200195505050505050600060405180830381600087803b158015612def57600080fd5b505af1158015612e03573d6000803e3d6000fd5b505050505050505050565b600060048054905014158015612ec65750612e27614b4e565b73ffffffffffffffffffffffffffffffffffffffff1663e8c934fe6040518163ffffffff167c0100000000000000000000000000000000000000000000000000000000028152600401602060405180830381600087803b158015612e8a57600080fd5b505af1158015612e9e573d6000803e3d6000fd5b505050506040513d6020811015612eb457600080fd5b81019080805190602001909291905050505b15612f8e57612ed3614b4e565b73ffffffffffffffffffffffffffffffffffffffff166348b4cd4b83836040518363ffffffff167c0100000000000000000000000000000000000000000000000000000000028152600401808373ffffffffffffffffffffffffffffffffffffffff1673ffffffffffffffffffffffffffffffffffffffff16815260200182815260200192505050600060405180830381600087803b158015612f7557600080fd5b505af1158015612f89573d6000803e3d6000fd5b505050505b5050565b600080600080600073feedfeedfeedfeedfeedfeedfeedfeedfeedfeed73ffffffffffffffffffffffffffffffffffffffff16635f9e8f826040518163ffffffff167c0100000000000000000000000000000000000000000000000000000000028152600401602060405180830381600087803b15801561301257600080fd5b505af1158015613026573d6000803e3d6000fd5b505050506040513d602081101561303c57600080fd5b810190808051906020019092919050505015151561305957600080fd5b6130628761520b565b94508473ffffffffffffffffffffffffffffffffffffffff1663b39c7600876040518263ffffffff167c0100000000000000000000000000000000000000000000000000000000028152600401808273ffffffffffffffffffffffffffffffffffffffff1673ffffffffffffffffffffffffffffffffffffffff168152602001915050602060405180830381600087803b1580156130ff57600080fd5b505af1158015613113573d6000803e3d6000fd5b505050506040513d602081101561312957600080fd5b8101908080519060200190929190505050935060008411156134605773deaddeaddeaddeaddeaddeaddeaddeaddeaddead73ffffffffffffffffffffffffffffffffffffffff1663a9059cbb8673ffffffffffffffffffffffffffffffffffffffff1663534db0e26040518163ffffffff167c0100000000000000000000000000000000000000000000000000000000028152600401602060405180830381600087803b1580156131d957600080fd5b505af11580156131ed573d6000803e3d6000fd5b505050506040513d602081101561320357600080fd5b8101908080519060200190929190505050866040518363ffffffff167c0100000000000000000000000000000000000000000000000000000000028152600401808373ffffffffffffffffffffffffffffffffffffffff1673ffffffffffffffffffffffffffffffffffffffff16815260200182815260200192505050602060405180830381600087803b15801561329a57600080fd5b505af11580156132ae573d6000803e3d6000fd5b505050506040513d60208110156132c457600080fd5b810190808051906020019092919050505015156132e057600080fd5b73feedfeedfeedfeedfeedfeedfeedfeedfeedfeed73ffffffffffffffffffffffffffffffffffffffff1663ccce5a43600154898873ffffffffffffffffffffffffffffffffffffffff1663534db0e26040518163ffffffff167c0100000000000000000000000000000000000000000000000000000000028152600401602060405180830381600087803b15801561337857600080fd5b505af115801561338c573d6000803e3d6000fd5b505050506040513d60208110156133a257600080fd5b8101908080519060200190929190505050886040518563ffffffff167c0100000000000000000000000000000000000000000000000000000000028152600401808581526020018481526020018373ffffffffffffffffffffffffffffffffffffffff1673ffffffffffffffffffffffffffffffffffffffff168152602001828152602001945050505050600060405180830381600087803b15801561344757600080fd5b505af115801561345b573d6000803e3d6000fd5b505050505b8473ffffffffffffffffffffffffffffffffffffffff166387f4ab31876040518263ffffffff167c0100000000000000000000000000000000000000000000000000000000028152600401808273ffffffffffffffffffffffffffffffffffffffff1673ffffffffffffffffffffffffffffffffffffffff168152602001915050602060405180830381600087803b1580156134fb57600080fd5b505af115801561350f573d6000803e3d6000fd5b505050506040513d602081101561352557600080fd5b8101908080519060200190929190505050925060008311156137625773deaddeaddeaddeaddeaddeaddeaddeaddeaddead73ffffffffffffffffffffffffffffffffffffffff1663a9059cbb6000809054906101000a900473ffffffffffffffffffffffffffffffffffffffff16856040518363ffffffff167c0100000000000000000000000000000000000000000000000000000000028152600401808373ffffffffffffffffffffffffffffffffffffffff1673ffffffffffffffffffffffffffffffffffffffff16815260200182815260200192505050602060405180830381600087803b15801561361957600080fd5b505af115801561362d573d6000803e3d6000fd5b505050506040513d602081101561364357600080fd5b8101908080519060200190929190505050151561365f57600080fd5b73feedfeedfeedfeedfeedfeedfeedfeedfeedfeed73ffffffffffffffffffffffffffffffffffffffff166359247c26600154896000809054906101000a900473ffffffffffffffffffffffffffffffffffffffff16876040518563ffffffff167c0100000000000000000000000000000000000000000000000000000000028152600401808581526020018481526020018373ffffffffffffffffffffffffffffffffffffffff1673ffffffffffffffffffffffffffffffffffffffff168152602001828152602001945050505050600060405180830381600087803b15801561374957600080fd5b505af115801561375d573d6000803e3d6000fd5b505050505b8473ffffffffffffffffffffffffffffffffffffffff1663f6884261876040518263ffffffff167c0100000000000000000000000000000000000000000000000000000000028152600401808273ffffffffffffffffffffffffffffffffffffffff1673ffffffffffffffffffffffffffffffffffffffff168152602001915050602060405180830381600087803b1580156137fd57600080fd5b505af1158015613811573d6000803e3d6000fd5b505050506040513d602081101561382757600080fd5b810190808051906020019092919050505091506000821115613a265773deaddeaddeaddeaddeaddeaddeaddeaddeaddead73ffffffffffffffffffffffffffffffffffffffff1663a9059cbb87846040518363ffffffff167c0100000000000000000000000000000000000000000000000000000000028152600401808373ffffffffffffffffffffffffffffffffffffffff1673ffffffffffffffffffffffffffffffffffffffff16815260200182815260200192505050602060405180830381600087803b1580156138fa57600080fd5b505af115801561390e573d6000803e3d6000fd5b505050506040513d602081101561392457600080fd5b8101908080519060200190929190505050151561394057600080fd5b73feedfeedfeedfeedfeedfeedfeedfeedfeedfeed73ffffffffffffffffffffffffffffffffffffffff16632ae0099f6001548989866040518563ffffffff167c0100000000000000000000000000000000000000000000000000000000028152600401808581526020018481526020018373ffffffffffffffffffffffffffffffffffffffff1673ffffffffffffffffffffffffffffffffffffffff168152602001828152602001945050505050600060405180830381600087803b158015613a0957600080fd5b505af1158015613a1d573d6000803e3d6000fd5b50505050613ce7565b8473ffffffffffffffffffffffffffffffffffffffff16631d188416876040518263ffffffff167c0100000000000000000000000000000000000000000000000000000000028152600401808273ffffffffffffffffffffffffffffffffffffffff1673ffffffffffffffffffffffffffffffffffffffff168152602001915050602060405180830381600087803b158015613ac157600080fd5b505af1158015613ad5573d6000803e3d6000fd5b505050506040513d6020811015613aeb57600080fd5b810190808051906020019092919050505090506000811115613ce65773deaddeaddeaddeaddeaddeaddeaddeaddeaddead73ffffffffffffffffffffffffffffffffffffffff1663a9059cbb87836040518363ffffffff167c0100000000000000000000000000000000000000000000000000000000028152600401808373ffffffffffffffffffffffffffffffffffffffff1673ffffffffffffffffffffffffffffffffffffffff16815260200182815260200192505050602060405180830381600087803b158015613bbe57600080fd5b505af1158015613bd2573d6000803e3d6000fd5b505050506040513d6020811015613be857600080fd5b81019080805190602001909291905050501515613c0457600080fd5b73feedfeedfeedfeedfeedfeedfeedfeedfeedfeed73ffffffffffffffffffffffffffffffffffffffff1663e65ebf0a6001548989856040518563ffffffff167c0100000000000000000000000000000000000000000000000000000000028152600401808581526020018481526020018373ffffffffffffffffffffffffffffffffffffffff1673ffffffffffffffffffffffffffffffffffffffff168152602001828152602001945050505050600060405180830381600087803b158015613ccd57600080fd5b505af1158015613ce1573d6000803e3d6000fd5b505050505b5b50505050505050565b600080600080600080600073feedfeedfeedfeedfeedfeedfeedfeedfeedfeed73ffffffffffffffffffffffffffffffffffffffff16635f9e8f826040518163ffffffff167c0100000000000000000000000000000000000000000000000000000000028152600401602060405180830381600087803b158015613d7357600080fd5b505af1158015613d87573d6000803e3d6000fd5b505050506040513d6020811015613d9d57600080fd5b8101908080519060200190929190505050151515613dba57600080fd5b60008973ffffffffffffffffffffffffffffffffffffffff1614151515613de057600080fd5b613de8615126565b1515613df357600080fd5b73deaddeaddeaddeaddeaddeaddeaddeaddeaddead73ffffffffffffffffffffffffffffffffffffffff166323b872dd8a306002546040518463ffffffff167c0100000000000000000000000000000000000000000000000000000000028152600401808473ffffffffffffffffffffffffffffffffffffffff1673ffffffffffffffffffffffffffffffffffffffff1681526020018373ffffffffffffffffffffffffffffffffffffffff1673ffffffffffffffffffffffffffffffffffffffff1681526020018281526020019350505050602060405180830381600087803b158015613ee057600080fd5b505af1158015613ef4573d6000803e3d6000fd5b505050506040513d6020811015613f0a57600080fd5b81019080805190602001909291905050501515613f2657600080fd5b73feedfeedfeedfeedfeedfeedfeedfeedfeedfeed73ffffffffffffffffffffffffffffffffffffffff16634d655aff6040518163ffffffff167c0100000000000000000000000000000000000000000000000000000000028152600401602060405180830381600087803b158015613f9e57600080fd5b505af1158015613fb2573d6000803e3d6000fd5b505050506040513d6020811015613fc857600080fd5b810190808051906020019092919050505073ffffffffffffffffffffffffffffffffffffffff1663bdc963d873feedfeedfeedfeedfeedfeedfeedfeedfeedfeed73ffffffffffffffffffffffffffffffffffffffff1663799fcaae6040518163ffffffff167c0100000000000000000000000000000000000000000000000000000000028152600401602060405180830381600087803b15801561406c57600080fd5b505af1158015614080573d6000803e3d6000fd5b505050506040513d602081101561409657600080fd5b81019080805190602001909291905050506040518263ffffffff167c0100000000000000000000000000000000000000000000000000000000028152600401808260001916600019168152602001915050602060405180830381600087803b15801561410157600080fd5b505af1158015614115573d6000803e3d6000fd5b505050506040513d602081101561412b57600080fd5b8101908080519060200190929190505050965073feedfeedfeedfeedfeedfeedfeedfeedfeedfeed73ffffffffffffffffffffffffffffffffffffffff16634d655aff6040518163ffffffff167c0100000000000000000000000000000000000000000000000000000000028152600401602060405180830381600087803b1580156141b657600080fd5b505af11580156141ca573d6000803e3d6000fd5b505050506040513d60208110156141e057600080fd5b810190808051906020019092919050505073ffffffffffffffffffffffffffffffffffffffff1663bdc963d873feedfeedfeedfeedfeedfeedfeedfeedfeedfeed73ffffffffffffffffffffffffffffffffffffffff16636009e5626040518163ffffffff167c0100000000000000000000000000000000000000000000000000000000028152600401602060405180830381600087803b15801561428457600080fd5b505af1158015614298573d6000803e3d6000fd5b505050506040513d60208110156142ae57600080fd5b81019080805190602001909291905050506040518263ffffffff167c0100000000000000000000000000000000000000000000000000000000028152600401808260001916600019168152602001915050602060405180830381600087803b15801561431957600080fd5b505af115801561432d573d6000803e3d6000fd5b505050506040513d602081101561434357600080fd5b810190808051906020019092919050505095506143698742614b6590919063ffffffff16565b945061437e8686614b6590919063ffffffff16565b935060646145af60025473feedfeedfeedfeedfeedfeedfeedfeedfeedfeed73ffffffffffffffffffffffffffffffffffffffff16634d655aff6040518163ffffffff167c0100000000000000000000000000000000000000000000000000000000028152600401602060405180830381600087803b15801561440057600080fd5b505af1158015614414573d6000803e3d6000fd5b505050506040513d602081101561442a57600080fd5b810190808051906020019092919050505073ffffffffffffffffffffffffffffffffffffffff1663bdc963d873feedfeedfeedfeedfeedfeedfeedfeedfeedfeed73ffffffffffffffffffffffffffffffffffffffff1663018714f56040518163ffffffff167c0100000000000000000000000000000000000000000000000000000000028152600401602060405180830381600087803b1580156144ce57600080fd5b505af11580156144e2573d6000803e3d6000fd5b505050506040513d60208110156144f857600080fd5b81019080805190602001909291905050506040518263ffffffff167c0100000000000000000000000000000000000000000000000000000000028152600401808260001916600019168152602001915050602060405180830381600087803b15801561456357600080fd5b505af1158015614577573d6000803e3d6000fd5b505050506040513d602081101561458d57600080fd5b810190808051906020019092919050505060640361524e90919063ffffffff16565b8115156145b857fe5b04925073feedfeedfeedfeedfeedfeedfeedfeedfeedfeed73ffffffffffffffffffffffffffffffffffffffff16634d655aff6040518163ffffffff167c0100000000000000000000000000000000000000000000000000000000028152600401602060405180830381600087803b15801561463357600080fd5b505af1158015614647573d6000803e3d6000fd5b505050506040513d602081101561465d57600080fd5b810190808051906020019092919050505073ffffffffffffffffffffffffffffffffffffffff1663bdc963d873feedfeedfeedfeedfeedfeedfeedfeedfeedfeed73ffffffffffffffffffffffffffffffffffffffff1663ee31e7b06040518163ffffffff167c0100000000000000000000000000000000000000000000000000000000028152600401602060405180830381600087803b15801561470157600080fd5b505af1158015614715573d6000803e3d6000fd5b505050506040513d602081101561472b57600080fd5b81019080805190602001909291905050506040518263ffffffff167c0100000000000000000000000000000000000000000000000000000000028152600401808260001916600019168152602001915050602060405180830381600087803b15801561479657600080fd5b505af11580156147aa573d6000803e3d6000fd5b505050506040513d60208110156147c057600080fd5b810190808051906020019092919050505091506147db6153fd565b604051809103906000f0801580156147f7573d6000803e3d6000fd5b5090508073ffffffffffffffffffffffffffffffffffffffff166398bb9a6b308b8b6003548a8a8a8a6040518963ffffffff167c0100000000000000000000000000000000000000000000000000000000028152600401808973ffffffffffffffffffffffffffffffffffffffff1673ffffffffffffffffffffffffffffffffffffffff1681526020018873ffffffffffffffffffffffffffffffffffffffff1673ffffffffffffffffffffffffffffffffffffffff16815260200180602001878152602001868152602001858152602001848152602001838152602001828103825288818151815260200191508051906020019080838360005b8381101561490d5780820151818401526020810190506148f2565b50505050905090810190601f16801561493a5780820380516001836020036101000a031916815260200191505b509950505050505050505050600060405180830381600087803b15801561496057600080fd5b505af1158015614974573d6000803e3d6000fd5b5050505060048190806001815401808255809150509060018203906000526020600020016000909192909190916101000a81548173ffffffffffffffffffffffffffffffffffffffff021916908373ffffffffffffffffffffffffffffffffffffffff1602179055505073feedfeedfeedfeedfeedfeedfeedfeedfeedfeed73ffffffffffffffffffffffffffffffffffffffff16637fe37893600154614a196129a8565b8c8989898f6040518863ffffffff167c0100000000000000000000000000000000000000000000000000000000028152600401808881526020018781526020018673ffffffffffffffffffffffffffffffffffffffff1673ffffffffffffffffffffffffffffffffffffffff16815260200185815260200184815260200183815260200180602001828103825283818151815260200191508051906020019080838360005b83811015614ad9578082015181840152602081019050614abe565b50505050905090810190601f168015614b065780820380516001836020036101000a031916815260200191505b5098505050505050505050600060405180830381600087803b158015614b2b57600080fd5b505af1158015614b3f573d6000803e3d6000fd5b50505050505050505050505050565b6000614b60614b5b6129a8565b61520b565b905090565b6000808284019050838110156040805190810160405280601181526020017f4d4154485f4144445f4f564552464c4f57000000000000000000000000000000815250901515614c4f576040517f08c379a00000000000000000000000000000000000000000000000000000000081526004018080602001828103825283818151815260200191508051906020019080838360005b83811015614c14578082015181840152602081019050614bf9565b50505050905090810190601f168015614c415780820380516001836020036101000a031916815260200191505b509250505060405180910390fd5b508091505092915050565b600080600073feedfeedfeedfeedfeedfeedfeedfeedfeedfeed73ffffffffffffffffffffffffffffffffffffffff16635f9e8f826040518163ffffffff167c0100000000000000000000000000000000000000000000000000000000028152600401602060405180830381600087803b158015614cd757600080fd5b505af1158015614ceb573d6000803e3d6000fd5b505050506040513d6020811015614d0157600080fd5b8101908080519060200190929190505050151515614d1e57600080fd5b339250614d2a8661520b565b91508173ffffffffffffffffffffffffffffffffffffffff1663803f5b7f8487876040518463ffffffff167c0100000000000000000000000000000000000000000000000000000000028152600401808473ffffffffffffffffffffffffffffffffffffffff1673ffffffffffffffffffffffffffffffffffffffff168152602001836002811115614db857fe5b60ff16815260200180602001828103825283818151815260200191508051906020019080838360005b83811015614dfc578082015181840152602081019050614de1565b50505050905090810190601f168015614e295780820380516001836020036101000a031916815260200191505b50945050505050602060405180830381600087803b158015614e4a57600080fd5b505af1158015614e5e573d6000803e3d6000fd5b505050506040513d6020811015614e7457600080fd5b8101908080519060200190929190505050905073deaddeaddeaddeaddeaddeaddeaddeaddeaddead73ffffffffffffffffffffffffffffffffffffffff1663a9059cbb84836040518363ffffffff167c0100000000000000000000000000000000000000000000000000000000028152600401808373ffffffffffffffffffffffffffffffffffffffff1673ffffffffffffffffffffffffffffffffffffffff16815260200182815260200192505050602060405180830381600087803b158015614f3e57600080fd5b505af1158015614f52573d6000803e3d6000fd5b505050506040513d6020811015614f6857600080fd5b81019080805190602001909291905050501515614f8457600080fd5b73feedfeedfeedfeedfeedfeedfeedfeedfeedfeed73ffffffffffffffffffffffffffffffffffffffff166306289a876001548886896002811115614fc557fe5b868873ffffffffffffffffffffffffffffffffffffffff166387eb29736040518163ffffffff167c0100000000000000000000000000000000000000000000000000000000028152600401602060405180830381600087803b15801561502a57600080fd5b505af115801561503e573d6000803e3d6000fd5b505050506040513d602081101561505457600080fd5b81019080805190602001909291905050506040518763ffffffff167c0100000000000000000000000000000000000000000000000000000000028152600401808781526020018681526020018573ffffffffffffffffffffffffffffffffffffffff1673ffffffffffffffffffffffffffffffffffffffff1681526020018481526020018381526020018281526020019650505050505050600060405180830381600087803b15801561510657600080fd5b505af115801561511a573d6000803e3d6000fd5b50505050505050505050565b6000615130615360565b8015615206575060006004805490501480615205575060048081111561515257fe5b61515a614b4e565b73ffffffffffffffffffffffffffffffffffffffff1663200d2ed26040518163ffffffff167c0100000000000000000000000000000000000000000000000000000000028152600401602060405180830381600087803b1580156151bd57600080fd5b505af11580156151d1573d6000803e3d6000fd5b505050506040513d60208110156151e757600080fd5b8101908080519060200190929190505050600481111561520357fe5b145b5b905090565b600060048281548110151561521c57fe5b9060005260206000200160009054906101000a900473ffffffffffffffffffffffffffffffffffffffff169050919050565b60008060008414156152635760009150615359565b828402905082848281151561527457fe5b04146040805190810160405280601181526020017f4d4154485f4d554c5f4f564552464c4f57000000000000000000000000000000815250901515615354576040517f08c379a00000000000000000000000000000000000000000000000000000000081526004018080602001828103825283818151815260200191508051906020019080838360005b838110156153195780820151818401526020810190506152fe565b50505050905090810190601f1680156153465780820380516001836020036101000a031916815260200191505b509250505060405180910390fd5b508091505b5092915050565b6000600354421115905090565b6040516101a08061543383390190565b828054600181600116156101000203166002900490600052602060002090601f016020900481019282601f106153be57805160ff19168380011785556153ec565b828001600101855582156153ec579182015b828111156153eb5782518255916020019190600101906153d0565b5b5090506153f9919061540d565b5090565b6040516101a0806155d383390190565b61542f91905b8082111561542b576000816000905550600101615413565b5090565b905600608060405234801561001057600080fd5b50610180806100206000396000f300608060405260043610610041576000357c0100000000000000000000000000000000000000000000000000000000900463ffffffff168063d4b8399214610094575b61009273feebfeebfeebfeebfeebfeebfeebfeebfeebfeeb6000368080601f0160208091040260200160405190810160405280939291908181526020018383808284378201915050505050506100eb565b005b3480156100a057600080fd5b506100a9610129565b604051808273ffffffffffffffffffffffffffffffffffffffff1673ffffffffffffffffffffffffffffffffffffffff16815260200191505060405180910390f35b6100f482610141565b15156100ff57600080fd5b600080825160208401856127105a03f43d604051816000823e8260008114610125578282f35b8282fd5b73feebfeebfeebfeebfeebfeebfeebfeebfeebfeeb81565b600080823b9050600081119150509190505600a165627a7a72305820798f0fef82b2e3556befb5c6b15ee14a05fc9e6de19e45f8d4dbad1b6a4d7a7f0029608060405234801561001057600080fd5b50610180806100206000396000f300608060405260043610610041576000357c0100000000000000000000000000000000000000000000000000000000900463ffffffff168063d4b8399214610094575b61009273beefbeefbeefbeefbeefbeefbeefbeefbeefbeef6000368080601f0160208091040260200160405190810160405280939291908181526020018383808284378201915050505050506100eb565b005b3480156100a057600080fd5b506100a9610129565b604051808273ffffffffffffffffffffffffffffffffffffffff1673ffffffffffffffffffffffffffffffffffffffff16815260200191505060405180910390f35b6100f482610141565b15156100ff57600080fd5b600080825160208401856127105a03f43d604051816000823e8260008114610125578282f35b8282fd5b73beefbeefbeefbeefbeefbeefbeefbeefbeefbeef81565b600080823b9050600081119150509190505600a165627a7a72305820144734fcc804b3f034561533e7ca0d5369ac068ed4a8b28637ca6be1140288870029a165627a7a7230582073b675ffd65505aa632a0a0c7a881bd9269bcb6b758558feb06151bb79d5ecb30029",
  "source": "pragma solidity ^0.4.24;\n\nimport \"./RegistryEntry.sol\";\nimport \"./StakeBank.sol\";\nimport \"./proxy/Forwarder2.sol\";\nimport \"./DistrictChallenge.sol\";\nimport \"./KitDistrict.sol\";\n\n\n/**\n * @title Contract created for each submitted District into the DistrictFactory TCR.\n *\n * @dev It extends base RegistryEntry with additional state for storing IPFS hashes for a district data.\n * Full copy of this contract is NOT deployed with each submission in order to save gas. Only forwarder contracts\n * pointing into single intance of it.\n */\n\ncontract District is RegistryEntry {\n\n  StakeBank public stakeBank;\n  KitDistrict public constant kitDistrict = KitDistrict(0xaAaAaAaaAaAaAaaAaAAAAAAAAaaaAaAaAaaAaaAa);\n\n  /**\n   * @dev IPFS hash of file that contains all data from form fields\n   */\n  bytes public metaHash;\n\n  /**\n   * @dev Constructor for this contract.\n   * Native constructor is not used, because users create only forwarders pointing into single instance of this contract,\n   * therefore constructor must be called explicitly.\n\n   * @param _creator Creator of a district\n   * @param _version Version of District contract\n   * @param _metaHash IPFS hash of data related to a district\n   */\n  function construct(\n    address _creator,\n    uint _version,\n    bytes _metaHash,\n    uint32 _dntWeight,\n    string _aragonId\n  )\n    public\n  {\n    super.construct(_creator, _version);\n    stakeBank = StakeBank(new Forwarder2());\n    stakeBank.construct(_dntWeight);\n    challengePeriodEnd = ~uint(0);\n    metaHash = _metaHash;\n    Kernel aragonDao = kitDistrict.createDAO(_aragonId, MiniMeToken(stakeBank), _creator);\n    registry.fireDistrictConstructedEvent(version, creator, metaHash, deposit, challengePeriodEnd, _dntWeight, address(aragonDao), _aragonId);\n  }\n\n  function setMetaHash(bytes _metaHash)\n    public\n  {\n    require(msg.sender == creator);\n    require(isChallengeable());\n    metaHash = _metaHash;\n    registry.fireDistrictMetaHashChangedEvent(version, _metaHash);\n  }\n\n\n  function createChallenge(\n    address _challenger,\n    bytes _challengeMetaHash\n  )\n  public\n  notEmergency\n  {\n    super.createChallenge(_challenger, _challengeMetaHash);\n    DistrictChallenge(currentChallenge()).setStakeBank(stakeBank);\n  }\n\n\n  /// @param _owner The address that's balance is being requested\n  /// @return The balance of `_owner` at the current block\n  function balanceOf(address _owner)\n    public constant returns (uint256 balance)\n  {\n    return stakeBank.balanceOf(_owner);\n  }\n\n  /// @notice Stakes a certain amount of tokens for another user.\n  /// @param _user Address of the user to stake for.\n  /// @param _amount Amount of tokens to stake.\n  function stakeFor(address _user, uint _amount)\n    public\n  {\n    require(registryToken.transferFrom(_user, address(this), _amount));\n    stakeBank.stakeFor(_user, _amount);\n    maybeAdjustStakeDelta(_user, int(_amount));\n    registry.fireDistrictStakeChangedEvent(\n      version,\n      stakeBank.totalStaked(),\n      stakeBank.totalSupply(),\n      _user,\n      stakeBank.totalStakedFor(_user),\n      stakeBank.balanceOf(_user),\n      _amount,\n      false\n    );\n  }\n\n  /// @notice Unstakes a certain amount of tokens.\n  /// @param _amount Amount of tokens to unstake.\n  function unstake(uint _amount)\n    public\n  {\n    require(registryToken.transfer(msg.sender, _amount));\n    stakeBank.unstake(msg.sender, _amount);\n    maybeAdjustStakeDelta(msg.sender, int(_amount) * -1);\n    registry.fireDistrictStakeChangedEvent(\n      version,\n      stakeBank.totalStaked(),\n      stakeBank.totalSupply(),\n      msg.sender,\n      stakeBank.totalStakedFor(msg.sender),\n      stakeBank.balanceOf(msg.sender),\n      _amount,\n      true\n    );\n  }\n\n  function maybeAdjustStakeDelta(\n    address _voter,\n    int _amount\n  )\n    private\n  {\n    if (challenges.length != 0 && currentChallenge().isVoteCommitPeriodActive()) {\n      DistrictChallenge(currentChallenge()).adjustStakeDelta(_voter, _amount);\n    }\n  }\n\n  function isChallengeable()\n    internal view returns (bool) {\n    return isChallengePeriodActive() &&\n      (challenges.length == 0 ||\n       currentChallenge().status() == Challenge.Status.Whitelisted);\n  }\n\n}\n",
  "sourcePath": "/Users/matus/www/district0x/district-registry/contracts/District.sol",
  "compiler": {
    "name": "solc",
    "version": "0.4.24+commit.e67f0147.Emscripten.clang"
  },
  "schemaVersion": "3.0.11",
  "updatedAt": "2019-07-23T10:27:47.123Z",
  "devdoc": {
    "methods": {
      "balanceOf(address)": {
        "params": {
          "_owner": "The address that's balance is being requested"
        },
        "return": "The balance of `_owner` at the current block"
      },
      "construct(address,uint256)": {
        "details": "Constructor for this contract. Native constructor is not used, because users create only forwarders into single instance of this contract, therefore constructor must be called explicitly. Must NOT be callable multiple times Transfers TCR entry token deposit from sender into this contract",
        "params": {
          "_creator": "Creator of a district",
          "_version": "Version of District contract"
        }
      },
      "construct(address,uint256,bytes,uint32,string)": {
        "details": "Constructor for this contract. Native constructor is not used, because users create only forwarders pointing into single instance of this contract, therefore constructor must be called explicitly.",
        "params": {
          "_creator": "Creator of a district",
          "_metaHash": "IPFS hash of data related to a district",
          "_version": "Version of District contract"
        }
      },
      "receiveApproval(address,uint256,address,bytes)": {
        "details": "Function called by MiniMeToken when somebody calls approveAndCall on it. This way token can be transferred to a recipient in a single transaction together with execution of additional logic",
        "params": {
          "_amount": "Amount of approved tokens to transfer",
          "_data": "Bytecode of a function and passed parameters, that should be called after token approval",
          "_from": "Sender of transaction approval",
          "_token": "Token that received the approval"
        }
      },
      "stakeFor(address,uint256)": {
        "params": {
          "_amount": "Amount of tokens to stake.",
          "_user": "Address of the user to stake for."
        }
      },
      "unstake(uint256)": {
        "params": {
          "_amount": "Amount of tokens to unstake."
        }
      }
    },
    "title": "Contract created for each submitted District into the DistrictFactory TCR."
  },
  "userdoc": {
    "methods": {
      "stakeFor(address,uint256)": {
        "notice": "Stakes a certain amount of tokens for another user."
      },
      "unstake(uint256)": {
        "notice": "Unstakes a certain amount of tokens."
      }
    }
  }
}