{
  "contractName": "District0xEmails",
  "abi": [
    {
      "constant": true,
      "inputs": [
        {
          "name": "",
          "type": "address"
        }
      ],
      "name": "emails",
      "outputs": [
        {
          "name": "",
          "type": "string"
        }
      ],
      "payable": false,
      "stateMutability": "view",
      "type": "function"
    },
    {
      "constant": false,
      "inputs": [
        {
          "name": "_encryptedEmail",
          "type": "string"
        }
      ],
      "name": "setEmail",
      "outputs": [],
      "payable": false,
      "stateMutability": "nonpayable",
      "type": "function"
    },
    {
      "constant": true,
      "inputs": [
        {
          "name": "_address",
          "type": "address"
        }
      ],
      "name": "getEmail",
      "outputs": [
        {
          "name": "",
          "type": "string"
        }
      ],
      "payable": false,
      "stateMutability": "view",
      "type": "function"
    }
  ],
  "bytecode": "0x608060405234801561001057600080fd5b506104f4806100206000396000f300608060405260043610610057576000357c0100000000000000000000000000000000000000000000000000000000900463ffffffff168063282b065a1461005c5780634fa7353c146100c5578063cb2da07c14610181575b600080fd5b34801561006857600080fd5b506100c3600480360381019080803590602001908201803590602001908080601f016020809104026020016040519081016040528093929190818152602001838380828437820191505050505050919291929050505061023d565b005b3480156100d157600080fd5b50610106600480360381019080803573ffffffffffffffffffffffffffffffffffffffff169060200190929190505050610293565b6040518080602001828103825283818151815260200191508051906020019080838360005b8381101561014657808201518184015260208101905061012b565b50505050905090810190601f1680156101735780820380516001836020036101000a031916815260200191505b509250505060405180910390f35b34801561018d57600080fd5b506101c2600480360381019080803573ffffffffffffffffffffffffffffffffffffffff169060200190929190505050610373565b6040518080602001828103825283818151815260200191508051906020019080838360005b838110156102025780820151818401526020810190506101e7565b50505050905090810190601f16801561022f5780820380516001836020036101000a031916815260200191505b509250505060405180910390f35b806000803373ffffffffffffffffffffffffffffffffffffffff1673ffffffffffffffffffffffffffffffffffffffff168152602001908152602001600020908051906020019061028f929190610423565b5050565b60606000808373ffffffffffffffffffffffffffffffffffffffff1673ffffffffffffffffffffffffffffffffffffffff1681526020019081526020016000208054600181600116156101000203166002900480601f0160208091040260200160405190810160405280929190818152602001828054600181600116156101000203166002900480156103675780601f1061033c57610100808354040283529160200191610367565b820191906000526020600020905b81548152906001019060200180831161034a57829003601f168201915b50505050509050919050565b60006020528060005260406000206000915090508054600181600116156101000203166002900480601f01602080910402602001604051908101604052809291908181526020018280546001816001161561010002031660029004801561041b5780601f106103f05761010080835404028352916020019161041b565b820191906000526020600020905b8154815290600101906020018083116103fe57829003601f168201915b505050505081565b828054600181600116156101000203166002900490600052602060002090601f016020900481019282601f1061046457805160ff1916838001178555610492565b82800160010185558215610492579182015b82811115610491578251825591602001919060010190610476565b5b50905061049f91906104a3565b5090565b6104c591905b808211156104c15760008160009055506001016104a9565b5090565b905600a165627a7a7230582074ecaa5566ec4ed3af308f1e50c81d1c18d09fafad971532e58643061f4814610029",
  "source": "pragma solidity ^0.4.18;\n\n/**\n * @title District0xEmails\n * @dev Contract meant to be shared among all districts. Users can associate encypted email address\n * with their ethereum address. The purpose is to send email notifications to users.\n * It's encrypted by district0x public key and can be decrypted only by district0x servers\n */\n\ncontract District0xEmails {\n\n    mapping(address => string) public emails;\n\n    function setEmail(string _encryptedEmail) {\n        emails[msg.sender] = _encryptedEmail;\n    }\n\n    function getEmail(address _address) constant public returns(string) {\n       return emails[_address];\n    }\n\n}\n",
  "sourcePath": "/Users/matus/www/district0x/district-registry/contracts/District0xEmails.sol",
  "compiler": {
    "name": "solc",
    "version": "0.4.24+commit.e67f0147.Emscripten.clang"
  },
  "schemaVersion": "3.0.11",
  "updatedAt": "2019-07-22T09:03:11.706Z",
  "devdoc": {
    "methods": {},
    "title": "District0xEmails"
  },
  "userdoc": {
    "methods": {}
  }
}