{
  "contractName": "District_copy",
  "abi": [
    {
      "constant": true,
      "inputs": [],
      "name": "creator",
      "outputs": [
        {
          "name": "",
          "type": "address"
        }
      ],
      "payable": false,
      "stateMutability": "view",
      "type": "function"
    },
    {
      "constant": false,
      "inputs": [
        {
          "name": "_voter",
          "type": "address"
        },
        {
          "name": "_amount",
          "type": "uint256"
        },
        {
          "name": "_secretHash",
          "type": "bytes32"
        }
      ],
      "name": "commitVote",
      "outputs": [],
      "payable": false,
      "stateMutability": "nonpayable",
      "type": "function"
    },
    {
      "constant": true,
      "inputs": [],
      "name": "version",
      "outputs": [
        {
          "name": "",
          "type": "uint256"
        }
      ],
      "payable": false,
      "stateMutability": "view",
      "type": "function"
    },
    {
      "constant": true,
      "inputs": [],
      "name": "challengePeriodEnd",
      "outputs": [
        {
          "name": "",
          "type": "uint256"
        }
      ],
      "payable": false,
      "stateMutability": "view",
      "type": "function"
    },
    {
      "constant": true,
      "inputs": [],
      "name": "registryToken",
      "outputs": [
        {
          "name": "",
          "type": "address"
        }
      ],
      "payable": false,
      "stateMutability": "view",
      "type": "function"
    },
    {
      "constant": true,
      "inputs": [],
      "name": "registry",
      "outputs": [
        {
          "name": "",
          "type": "address"
        }
      ],
      "payable": false,
      "stateMutability": "view",
      "type": "function"
    },
    {
      "constant": false,
      "inputs": [
        {
          "name": "_challengeIndex",
          "type": "uint256"
        },
        {
          "name": "_user",
          "type": "address"
        }
      ],
      "name": "claimRewardForChallenge",
      "outputs": [],
      "payable": false,
      "stateMutability": "nonpayable",
      "type": "function"
    },
    {
      "constant": true,
      "inputs": [],
      "name": "metaHash",
      "outputs": [
        {
          "name": "",
          "type": "bytes"
        }
      ],
      "payable": false,
      "stateMutability": "view",
      "type": "function"
    },
    {
      "constant": true,
      "inputs": [
        {
          "name": "",
          "type": "uint256"
        }
      ],
      "name": "challenges",
      "outputs": [
        {
          "name": "",
          "type": "address"
        }
      ],
      "payable": false,
      "stateMutability": "view",
      "type": "function"
    },
    {
      "constant": false,
      "inputs": [
        {
          "name": "_from",
          "type": "address"
        },
        {
          "name": "_amount",
          "type": "uint256"
        },
        {
          "name": "_token",
          "type": "address"
        },
        {
          "name": "_data",
          "type": "bytes"
        }
      ],
      "name": "receiveApproval",
      "outputs": [],
      "payable": false,
      "stateMutability": "nonpayable",
      "type": "function"
    },
    {
      "constant": false,
      "inputs": [
        {
          "name": "_challengeIndex",
          "type": "uint256"
        },
        {
          "name": "_voter",
          "type": "address"
        },
        {
          "name": "_amount",
          "type": "uint256"
        },
        {
          "name": "_secretHash",
          "type": "bytes32"
        }
      ],
      "name": "commitVoteForChallenge",
      "outputs": [],
      "payable": false,
      "stateMutability": "nonpayable",
      "type": "function"
    },
    {
      "constant": true,
      "inputs": [],
      "name": "kitDistrict",
      "outputs": [
        {
          "name": "",
          "type": "address"
        }
      ],
      "payable": false,
      "stateMutability": "view",
      "type": "function"
    },
    {
      "constant": false,
      "inputs": [
        {
          "name": "_voteOption",
          "type": "uint8"
        },
        {
          "name": "_salt",
          "type": "string"
        }
      ],
      "name": "revealVote",
      "outputs": [],
      "payable": false,
      "stateMutability": "nonpayable",
      "type": "function"
    },
    {
      "constant": true,
      "inputs": [],
      "name": "deposit",
      "outputs": [
        {
          "name": "",
          "type": "uint256"
        }
      ],
      "payable": false,
      "stateMutability": "view",
      "type": "function"
    },
    {
      "constant": false,
      "inputs": [
        {
          "name": "_user",
          "type": "address"
        }
      ],
      "name": "claimReward",
      "outputs": [],
      "payable": false,
      "stateMutability": "nonpayable",
      "type": "function"
    },
    {
      "constant": true,
      "inputs": [],
      "name": "stakeBank",
      "outputs": [
        {
          "name": "",
          "type": "address"
        }
      ],
      "payable": false,
      "stateMutability": "view",
      "type": "function"
    },
    {
      "constant": false,
      "inputs": [
        {
          "name": "_challengeIndex",
          "type": "uint256"
        },
        {
          "name": "_voteOption",
          "type": "uint8"
        },
        {
          "name": "_salt",
          "type": "string"
        }
      ],
      "name": "revealVoteForChallenge",
      "outputs": [],
      "payable": false,
      "stateMutability": "nonpayable",
      "type": "function"
    },
    {
      "constant": false,
      "inputs": [
        {
          "name": "_creator",
          "type": "address"
        },
        {
          "name": "_version",
          "type": "uint256"
        },
        {
          "name": "_metaHash",
          "type": "bytes"
        },
        {
          "name": "_dntWeight",
          "type": "uint32"
        },
        {
          "name": "_aragonId",
          "type": "string"
        }
      ],
      "name": "construct",
      "outputs": [],
      "payable": false,
      "stateMutability": "nonpayable",
      "type": "function"
    },
    {
      "constant": false,
      "inputs": [
        {
          "name": "_creator",
          "type": "address"
        },
        {
          "name": "_version",
          "type": "uint256"
        }
      ],
      "name": "construct",
      "outputs": [],
      "payable": false,
      "stateMutability": "nonpayable",
      "type": "function"
    },
    {
      "constant": false,
      "inputs": [
        {
          "name": "_metaHash",
          "type": "bytes"
        }
      ],
      "name": "setMetaHash",
      "outputs": [],
      "payable": false,
      "stateMutability": "nonpayable",
      "type": "function"
    },
    {
      "constant": false,
      "inputs": [
        {
          "name": "_challenger",
          "type": "address"
        },
        {
          "name": "_challengeMetaHash",
          "type": "bytes"
        }
      ],
      "name": "createChallenge",
      "outputs": [],
      "payable": false,
      "stateMutability": "nonpayable",
      "type": "function"
    },
    {
      "constant": true,
      "inputs": [
        {
          "name": "_owner",
          "type": "address"
        }
      ],
      "name": "balanceOf",
      "outputs": [
        {
          "name": "balance",
          "type": "uint256"
        }
      ],
      "payable": false,
      "stateMutability": "view",
      "type": "function"
    },
    {
      "constant": false,
      "inputs": [
        {
          "name": "_user",
          "type": "address"
        },
        {
          "name": "_amount",
          "type": "uint256"
        }
      ],
      "name": "stakeFor",
      "outputs": [],
      "payable": false,
      "stateMutability": "nonpayable",
      "type": "function"
    },
    {
      "constant": false,
      "inputs": [
        {
          "name": "_amount",
          "type": "uint256"
        }
      ],
      "name": "unstake",
      "outputs": [],
      "payable": false,
      "stateMutability": "nonpayable",
      "type": "function"
    }
  ],
  "bytecode": "0x608060405234801561001057600080fd5b50615555806100206000396000f30060806040526004361061013e576000357c0100000000000000000000000000000000000000000000000000000000900463ffffffff16806302d05d3f1461014357806327f429d81461019a5780632e17de78146101f55780632ee4090814610222578063429d42521461026f57806354fd4d5014610358578063671f08e31461038357806370a08231146103ae5780637792957d146104055780637b1039991461045c5780637faa6e8c146104b3578063827c62fb1461050057806387dfc3eb146105905780638f1d3776146106195780638f4ffcb114610686578063a9624b6f14610739578063ab5310311461079e578063af2dfdb7146107eb578063c8cfe15314610842578063d0e30db01461088a578063d279c191146108b5578063d6edcd81146108f8578063e71ae0f11461094f578063ef0ca9b5146109a1575b600080fd5b34801561014f57600080fd5b50610158610a0a565b604051808273ffffffffffffffffffffffffffffffffffffffff1673ffffffffffffffffffffffffffffffffffffffff16815260200191505060405180910390f35b3480156101a657600080fd5b506101f3600480360381019080803573ffffffffffffffffffffffffffffffffffffffff169060200190929190803590602001909291908035600019169060200190929190505050610a2f565b005b34801561020157600080fd5b5061022060048036038101908080359060200190929190505050610a47565b005b34801561022e57600080fd5b5061026d600480360381019080803573ffffffffffffffffffffffffffffffffffffffff16906020019092919080359060200190929190505050610feb565b005b34801561027b57600080fd5b50610356600480360381019080803573ffffffffffffffffffffffffffffffffffffffff16906020019092919080359060200190929190803590602001908201803590602001908080601f0160208091040260200160405190810160405280939291908181526020018383808284378201915050505050509192919290803563ffffffff169060200190929190803590602001908201803590602001908080601f016020809104026020016040519081016040528093929190818152602001838380828437820191505050505050919291929050505061169f565b005b34801561036457600080fd5b5061036d611be2565b6040518082815260200191505060405180910390f35b34801561038f57600080fd5b50610398611be8565b6040518082815260200191505060405180910390f35b3480156103ba57600080fd5b506103ef600480360381019080803573ffffffffffffffffffffffffffffffffffffffff169060200190929190505050611bee565b6040518082815260200191505060405180910390f35b34801561041157600080fd5b5061041a611cef565b604051808273ffffffffffffffffffffffffffffffffffffffff1673ffffffffffffffffffffffffffffffffffffffff16815260200191505060405180910390f35b34801561046857600080fd5b50610471611d07565b604051808273ffffffffffffffffffffffffffffffffffffffff1673ffffffffffffffffffffffffffffffffffffffff16815260200191505060405180910390f35b3480156104bf57600080fd5b506104fe60048036038101908080359060200190929190803573ffffffffffffffffffffffffffffffffffffffff169060200190929190505050611d1f565b005b34801561050c57600080fd5b50610515611d2d565b6040518080602001828103825283818151815260200191508051906020019080838360005b8381101561055557808201518184015260208101905061053a565b50505050905090810190601f1680156105825780820380516001836020036101000a031916815260200191505b509250505060405180910390f35b34801561059c57600080fd5b50610617600480360381019080803573ffffffffffffffffffffffffffffffffffffffff169060200190929190803590602001908201803590602001908080601f0160208091040260200160405190810160405280939291908181526020018383808284378201915050505050509192919290505050611dcb565b005b34801561062557600080fd5b5061064460048036038101908080359060200190929190505050611f74565b604051808273ffffffffffffffffffffffffffffffffffffffff1673ffffffffffffffffffffffffffffffffffffffff16815260200191505060405180910390f35b34801561069257600080fd5b50610737600480360381019080803573ffffffffffffffffffffffffffffffffffffffff16906020019092919080359060200190929190803573ffffffffffffffffffffffffffffffffffffffff169060200190929190803590602001908201803590602001908080601f0160208091040260200160405190810160405280939291908181526020018383808284378201915050505050509192919290505050611fb2565b005b34801561074557600080fd5b5061079c60048036038101908080359060200190929190803573ffffffffffffffffffffffffffffffffffffffff16906020019092919080359060200190929190803560001916906020019092919050505061204a565b005b3480156107aa57600080fd5b506107e9600480360381019080803573ffffffffffffffffffffffffffffffffffffffff1690602001909291908035906020019092919050505061205c565b005b3480156107f757600080fd5b50610800612635565b604051808273ffffffffffffffffffffffffffffffffffffffff1673ffffffffffffffffffffffffffffffffffffffff16815260200191505060405180910390f35b34801561084e57600080fd5b50610888600480360381019080803560ff16906020019092919080359060200190820180359060200191909192939192939050505061264d565b005b34801561089657600080fd5b5061089f612696565b6040518082815260200191505060405180910390f35b3480156108c157600080fd5b506108f6600480360381019080803573ffffffffffffffffffffffffffffffffffffffff16906020019092919050505061269c565b005b34801561090457600080fd5b5061090d6126b0565b604051808273ffffffffffffffffffffffffffffffffffffffff1673ffffffffffffffffffffffffffffffffffffffff16815260200191505060405180910390f35b34801561095b57600080fd5b5061099f60048036038101908080359060200190929190803560ff1690602001909291908035906020019082018035906020019190919293919293905050506126d6565b005b3480156109ad57600080fd5b50610a08600480360381019080803590602001908201803590602001908080601f0160208091040260200160405190810160405280939291908181526020018383808284378201915050505050509192919290505050612719565b005b6000809054906101000a900473ffffffffffffffffffffffffffffffffffffffff1681565b610a42610a3a6128ab565b8484846128bb565b505050565b600560009054906101000a900473ffffffffffffffffffffffffffffffffffffffff1673ffffffffffffffffffffffffffffffffffffffff1663c2a672e033836040518363ffffffff167c0100000000000000000000000000000000000000000000000000000000028152600401808373ffffffffffffffffffffffffffffffffffffffff1673ffffffffffffffffffffffffffffffffffffffff16815260200182815260200192505050602060405180830381600087803b158015610b0c57600080fd5b505af1158015610b20573d6000803e3d6000fd5b505050506040513d6020811015610b3657600080fd5b810190808051906020019092919050505050610b74337fffffffffffffffffffffffffffffffffffffffffffffffffffffffffffffffff8302612c6b565b73C4D431F9962F70B7fFAc5BB4Fa057b012B6A4FDf73ffffffffffffffffffffffffffffffffffffffff1663129704f6600154600560009054906101000a900473ffffffffffffffffffffffffffffffffffffffff1673ffffffffffffffffffffffffffffffffffffffff1663817b1cd26040518163ffffffff167c0100000000000000000000000000000000000000000000000000000000028152600401602060405180830381600087803b158015610c2d57600080fd5b505af1158015610c41573d6000803e3d6000fd5b505050506040513d6020811015610c5757600080fd5b8101908080519060200190929190505050600560009054906101000a900473ffffffffffffffffffffffffffffffffffffffff1673ffffffffffffffffffffffffffffffffffffffff166318160ddd6040518163ffffffff167c0100000000000000000000000000000000000000000000000000000000028152600401602060405180830381600087803b158015610cee57600080fd5b505af1158015610d02573d6000803e3d6000fd5b505050506040513d6020811015610d1857600080fd5b810190808051906020019092919050505033600560009054906101000a900473ffffffffffffffffffffffffffffffffffffffff1673ffffffffffffffffffffffffffffffffffffffff16634b341aed336040518263ffffffff167c0100000000000000000000000000000000000000000000000000000000028152600401808273ffffffffffffffffffffffffffffffffffffffff1673ffffffffffffffffffffffffffffffffffffffff168152602001915050602060405180830381600087803b158015610de757600080fd5b505af1158015610dfb573d6000803e3d6000fd5b505050506040513d6020811015610e1157600080fd5b8101908080519060200190929190505050600560009054906101000a900473ffffffffffffffffffffffffffffffffffffffff1673ffffffffffffffffffffffffffffffffffffffff166370a08231336040518263ffffffff167c0100000000000000000000000000000000000000000000000000000000028152600401808273ffffffffffffffffffffffffffffffffffffffff1673ffffffffffffffffffffffffffffffffffffffff168152602001915050602060405180830381600087803b158015610edf57600080fd5b505af1158015610ef3573d6000803e3d6000fd5b505050506040513d6020811015610f0957600080fd5b81019080805190602001909291905050508860016040518963ffffffff167c0100000000000000000000000000000000000000000000000000000000028152600401808981526020018881526020018781526020018673ffffffffffffffffffffffffffffffffffffffff1673ffffffffffffffffffffffffffffffffffffffff1681526020018581526020018481526020018381526020018215151515815260200198505050505050505050600060405180830381600087803b158015610fd057600080fd5b505af1158015610fe4573d6000803e3d6000fd5b5050505050565b73E450dcDe6C059339A35EEC0FaCbe62751ccA6e8a73ffffffffffffffffffffffffffffffffffffffff166323b872dd8330846040518463ffffffff167c0100000000000000000000000000000000000000000000000000000000028152600401808473ffffffffffffffffffffffffffffffffffffffff1673ffffffffffffffffffffffffffffffffffffffff1681526020018373ffffffffffffffffffffffffffffffffffffffff1673ffffffffffffffffffffffffffffffffffffffff1681526020018281526020019350505050602060405180830381600087803b1580156110d657600080fd5b505af11580156110ea573d6000803e3d6000fd5b505050506040513d602081101561110057600080fd5b8101908080519060200190929190505050151561111c57600080fd5b600560009054906101000a900473ffffffffffffffffffffffffffffffffffffffff1673ffffffffffffffffffffffffffffffffffffffff16632ee4090883836040518363ffffffff167c0100000000000000000000000000000000000000000000000000000000028152600401808373ffffffffffffffffffffffffffffffffffffffff1673ffffffffffffffffffffffffffffffffffffffff16815260200182815260200192505050602060405180830381600087803b1580156111e157600080fd5b505af11580156111f5573d6000803e3d6000fd5b505050506040513d602081101561120b57600080fd5b8101908080519060200190929190505050506112278282612c6b565b73C4D431F9962F70B7fFAc5BB4Fa057b012B6A4FDf73ffffffffffffffffffffffffffffffffffffffff1663129704f6600154600560009054906101000a900473ffffffffffffffffffffffffffffffffffffffff1673ffffffffffffffffffffffffffffffffffffffff1663817b1cd26040518163ffffffff167c0100000000000000000000000000000000000000000000000000000000028152600401602060405180830381600087803b1580156112e057600080fd5b505af11580156112f4573d6000803e3d6000fd5b505050506040513d602081101561130a57600080fd5b8101908080519060200190929190505050600560009054906101000a900473ffffffffffffffffffffffffffffffffffffffff1673ffffffffffffffffffffffffffffffffffffffff166318160ddd6040518163ffffffff167c0100000000000000000000000000000000000000000000000000000000028152600401602060405180830381600087803b1580156113a157600080fd5b505af11580156113b5573d6000803e3d6000fd5b505050506040513d60208110156113cb57600080fd5b810190808051906020019092919050505086600560009054906101000a900473ffffffffffffffffffffffffffffffffffffffff1673ffffffffffffffffffffffffffffffffffffffff16634b341aed896040518263ffffffff167c0100000000000000000000000000000000000000000000000000000000028152600401808273ffffffffffffffffffffffffffffffffffffffff1673ffffffffffffffffffffffffffffffffffffffff168152602001915050602060405180830381600087803b15801561149a57600080fd5b505af11580156114ae573d6000803e3d6000fd5b505050506040513d60208110156114c457600080fd5b8101908080519060200190929190505050600560009054906101000a900473ffffffffffffffffffffffffffffffffffffffff1673ffffffffffffffffffffffffffffffffffffffff166370a082318a6040518263ffffffff167c0100000000000000000000000000000000000000000000000000000000028152600401808273ffffffffffffffffffffffffffffffffffffffff1673ffffffffffffffffffffffffffffffffffffffff168152602001915050602060405180830381600087803b15801561159257600080fd5b505af11580156115a6573d6000803e3d6000fd5b505050506040513d60208110156115bc57600080fd5b81019080805190602001909291905050508860006040518963ffffffff167c0100000000000000000000000000000000000000000000000000000000028152600401808981526020018881526020018781526020018673ffffffffffffffffffffffffffffffffffffffff1673ffffffffffffffffffffffffffffffffffffffff1681526020018581526020018481526020018381526020018215151515815260200198505050505050505050600060405180830381600087803b15801561168357600080fd5b505af1158015611697573d6000803e3d6000fd5b505050505050565b60006116ab868661205c565b6116b3615124565b604051809103906000f0801580156116cf573d6000803e3d6000fd5b50600560006101000a81548173ffffffffffffffffffffffffffffffffffffffff021916908373ffffffffffffffffffffffffffffffffffffffff160217905550600560009054906101000a900473ffffffffffffffffffffffffffffffffffffffff1673ffffffffffffffffffffffffffffffffffffffff16633d1d878a846040518263ffffffff167c0100000000000000000000000000000000000000000000000000000000028152600401808263ffffffff1663ffffffff168152602001915050600060405180830381600087803b1580156117ad57600080fd5b505af11580156117c1573d6000803e3d6000fd5b5050505060001960038190555083600690805190602001906117e4929190615134565b507380c8995Be6fb1C9e38ddba62394751c0f7F5986B73ffffffffffffffffffffffffffffffffffffffff166362fd8efc83600560009054906101000a900473ffffffffffffffffffffffffffffffffffffffff16896040518463ffffffff167c010000000000000000000000000000000000000000000000000000000002815260040180806020018473ffffffffffffffffffffffffffffffffffffffff1673ffffffffffffffffffffffffffffffffffffffff1681526020018373ffffffffffffffffffffffffffffffffffffffff1673ffffffffffffffffffffffffffffffffffffffff168152602001828103825285818151815260200191508051906020019080838360005b838110156119095780820151818401526020810190506118ee565b50505050905090810190601f1680156119365780820380516001836020036101000a031916815260200191505b50945050505050602060405180830381600087803b15801561195757600080fd5b505af115801561196b573d6000803e3d6000fd5b505050506040513d602081101561198157600080fd5b8101908080519060200190929190505050905073C4D431F9962F70B7fFAc5BB4Fa057b012B6A4FDf73ffffffffffffffffffffffffffffffffffffffff16639f8bfcba6001546000809054906101000a900473ffffffffffffffffffffffffffffffffffffffff16600660025460035489888a6040518963ffffffff167c0100000000000000000000000000000000000000000000000000000000028152600401808981526020018873ffffffffffffffffffffffffffffffffffffffff1673ffffffffffffffffffffffffffffffffffffffff168152602001806020018781526020018681526020018563ffffffff1663ffffffff1681526020018473ffffffffffffffffffffffffffffffffffffffff1673ffffffffffffffffffffffffffffffffffffffff16815260200180602001838103835289818154600181600116156101000203166002900481526020019150805460018160011615610100020316600290048015611b345780601f10611b0957610100808354040283529160200191611b34565b820191906000526020600020905b815481529060010190602001808311611b1757829003601f168201915b5050838103825284818151815260200191508051906020019080838360005b83811015611b6e578082015181840152602081019050611b53565b50505050905090810190601f168015611b9b5780820380516001836020036101000a031916815260200191505b509a5050505050505050505050600060405180830381600087803b158015611bc257600080fd5b505af1158015611bd6573d6000803e3d6000fd5b50505050505050505050565b60015481565b60035481565b6000600560009054906101000a900473ffffffffffffffffffffffffffffffffffffffff1673ffffffffffffffffffffffffffffffffffffffff166370a08231836040518263ffffffff167c0100000000000000000000000000000000000000000000000000000000028152600401808273ffffffffffffffffffffffffffffffffffffffff1673ffffffffffffffffffffffffffffffffffffffff168152602001915050602060405180830381600087803b158015611cad57600080fd5b505af1158015611cc1573d6000803e3d6000fd5b505050506040513d6020811015611cd757600080fd5b81019080805190602001909291905050509050919050565b73E450dcDe6C059339A35EEC0FaCbe62751ccA6e8a81565b73C4D431F9962F70B7fFAc5BB4Fa057b012B6A4FDf81565b611d298282612def565b5050565b60068054600181600116156101000203166002900480601f016020809104026020016040519081016040528092919081815260200182805460018160011615610100020316600290048015611dc35780601f10611d9857610100808354040283529160200191611dc3565b820191906000526020600020905b815481529060010190602001808311611da657829003601f168201915b505050505081565b73C4D431F9962F70B7fFAc5BB4Fa057b012B6A4FDf73ffffffffffffffffffffffffffffffffffffffff16635f9e8f826040518163ffffffff167c0100000000000000000000000000000000000000000000000000000000028152600401602060405180830381600087803b158015611e4357600080fd5b505af1158015611e57573d6000803e3d6000fd5b505050506040513d6020811015611e6d57600080fd5b8101908080519060200190929190505050151515611e8a57600080fd5b611e948282613b4d565b611e9c6149ab565b73ffffffffffffffffffffffffffffffffffffffff1663a3e69cd3600560009054906101000a900473ffffffffffffffffffffffffffffffffffffffff166040518263ffffffff167c0100000000000000000000000000000000000000000000000000000000028152600401808273ffffffffffffffffffffffffffffffffffffffff1673ffffffffffffffffffffffffffffffffffffffff168152602001915050600060405180830381600087803b158015611f5857600080fd5b505af1158015611f6c573d6000803e3d6000fd5b505050505050565b600481815481101515611f8357fe5b906000526020600020016000915054906101000a900473ffffffffffffffffffffffffffffffffffffffff1681565b3073ffffffffffffffffffffffffffffffffffffffff168160405180828051906020019080838360005b83811015611ff7578082015181840152602081019050611fdc565b50505050905090810190601f1680156120245780820380516001836020036101000a031916815260200191505b509150506000604051808303816000865af1915050151561204457600080fd5b50505050565b612056848484846128bb565b50505050565b600060035414151561206d57600080fd5b73C4D431F9962F70B7fFAc5BB4Fa057b012B6A4FDf73ffffffffffffffffffffffffffffffffffffffff16634d655aff6040518163ffffffff167c0100000000000000000000000000000000000000000000000000000000028152600401602060405180830381600087803b1580156120e557600080fd5b505af11580156120f9573d6000803e3d6000fd5b505050506040513d602081101561210f57600080fd5b810190808051906020019092919050505073ffffffffffffffffffffffffffffffffffffffff1663bdc963d873C4D431F9962F70B7fFAc5BB4Fa057b012B6A4FDf73ffffffffffffffffffffffffffffffffffffffff16630c380fdb6040518163ffffffff167c0100000000000000000000000000000000000000000000000000000000028152600401602060405180830381600087803b1580156121b357600080fd5b505af11580156121c7573d6000803e3d6000fd5b505050506040513d60208110156121dd57600080fd5b81019080805190602001909291905050506040518263ffffffff167c0100000000000000000000000000000000000000000000000000000000028152600401808260001916600019168152602001915050602060405180830381600087803b15801561224857600080fd5b505af115801561225c573d6000803e3d6000fd5b505050506040513d602081101561227257600080fd5b810190808051906020019092919050505060028190555073E450dcDe6C059339A35EEC0FaCbe62751ccA6e8a73ffffffffffffffffffffffffffffffffffffffff166323b872dd33306002546040518463ffffffff167c0100000000000000000000000000000000000000000000000000000000028152600401808473ffffffffffffffffffffffffffffffffffffffff1673ffffffffffffffffffffffffffffffffffffffff1681526020018373ffffffffffffffffffffffffffffffffffffffff1673ffffffffffffffffffffffffffffffffffffffff1681526020018281526020019350505050602060405180830381600087803b15801561237657600080fd5b505af115801561238a573d6000803e3d6000fd5b505050506040513d60208110156123a057600080fd5b810190808051906020019092919050505015156123bc57600080fd5b6125e473C4D431F9962F70B7fFAc5BB4Fa057b012B6A4FDf73ffffffffffffffffffffffffffffffffffffffff16634d655aff6040518163ffffffff167c0100000000000000000000000000000000000000000000000000000000028152600401602060405180830381600087803b15801561243757600080fd5b505af115801561244b573d6000803e3d6000fd5b505050506040513d602081101561246157600080fd5b810190808051906020019092919050505073ffffffffffffffffffffffffffffffffffffffff1663bdc963d873C4D431F9962F70B7fFAc5BB4Fa057b012B6A4FDf73ffffffffffffffffffffffffffffffffffffffff16636dc50caa6040518163ffffffff167c0100000000000000000000000000000000000000000000000000000000028152600401602060405180830381600087803b15801561250557600080fd5b505af1158015612519573d6000803e3d6000fd5b505050506040513d602081101561252f57600080fd5b81019080805190602001909291905050506040518263ffffffff167c0100000000000000000000000000000000000000000000000000000000028152600401808260001916600019168152602001915050602060405180830381600087803b15801561259a57600080fd5b505af11580156125ae573d6000803e3d6000fd5b505050506040513d60208110156125c457600080fd5b8101908080519060200190929190505050426149c290919063ffffffff16565b600381905550816000806101000a81548173ffffffffffffffffffffffffffffffffffffffff021916908373ffffffffffffffffffffffffffffffffffffffff160217905550806001819055505050565b7380c8995Be6fb1C9e38ddba62394751c0f7F5986B81565b6126916126586128ab565b8484848080601f016020809104026020016040519081016040528093929190818152602001838380828437820191505050505050614ab7565b505050565b60025481565b6126ad6126a76128ab565b82612def565b50565b600560009054906101000a900473ffffffffffffffffffffffffffffffffffffffff1681565b612713848484848080601f016020809104026020016040519081016040528093929190818152602001838380828437820191505050505050614ab7565b50505050565b6000809054906101000a900473ffffffffffffffffffffffffffffffffffffffff1673ffffffffffffffffffffffffffffffffffffffff163373ffffffffffffffffffffffffffffffffffffffff1614151561277457600080fd5b61277c614edd565b151561278757600080fd5b806006908051906020019061279d929190615134565b5073C4D431F9962F70B7fFAc5BB4Fa057b012B6A4FDf73ffffffffffffffffffffffffffffffffffffffff1663a3b6c1b5600154836040518363ffffffff167c01000000000000000000000000000000000000000000000000000000000281526004018083815260200180602001828103825283818151815260200191508051906020019080838360005b83811015612843578082015181840152602081019050612828565b50505050905090810190601f1680156128705780820380516001836020036101000a031916815260200191505b509350505050600060405180830381600087803b15801561289057600080fd5b505af11580156128a4573d6000803e3d6000fd5b5050505050565b6000600160048054905003905090565b600073C4D431F9962F70B7fFAc5BB4Fa057b012B6A4FDf73ffffffffffffffffffffffffffffffffffffffff16635f9e8f826040518163ffffffff167c0100000000000000000000000000000000000000000000000000000000028152600401602060405180830381600087803b15801561293557600080fd5b505af1158015612949573d6000803e3d6000fd5b505050506040513d602081101561295f57600080fd5b810190808051906020019092919050505015151561297c57600080fd5b73E450dcDe6C059339A35EEC0FaCbe62751ccA6e8a73ffffffffffffffffffffffffffffffffffffffff166323b872dd8530866040518463ffffffff167c0100000000000000000000000000000000000000000000000000000000028152600401808473ffffffffffffffffffffffffffffffffffffffff1673ffffffffffffffffffffffffffffffffffffffff1681526020018373ffffffffffffffffffffffffffffffffffffffff1673ffffffffffffffffffffffffffffffffffffffff1681526020018281526020019350505050602060405180830381600087803b158015612a6757600080fd5b505af1158015612a7b573d6000803e3d6000fd5b505050506040513d6020811015612a9157600080fd5b81019080805190602001909291905050501515612aad57600080fd5b612ab685614fc2565b90508073ffffffffffffffffffffffffffffffffffffffff166327f429d88585856040518463ffffffff167c0100000000000000000000000000000000000000000000000000000000028152600401808473ffffffffffffffffffffffffffffffffffffffff1673ffffffffffffffffffffffffffffffffffffffff16815260200183815260200182600019166000191681526020019350505050600060405180830381600087803b158015612b6b57600080fd5b505af1158015612b7f573d6000803e3d6000fd5b5050505073C4D431F9962F70B7fFAc5BB4Fa057b012B6A4FDf73ffffffffffffffffffffffffffffffffffffffff1663543b8dd46001548787876040518563ffffffff167c0100000000000000000000000000000000000000000000000000000000028152600401808581526020018481526020018373ffffffffffffffffffffffffffffffffffffffff1673ffffffffffffffffffffffffffffffffffffffff168152602001828152602001945050505050600060405180830381600087803b158015612c4c57600080fd5b505af1158015612c60573d6000803e3d6000fd5b505050505050505050565b600060048054905014158015612d235750612c846149ab565b73ffffffffffffffffffffffffffffffffffffffff1663e8c934fe6040518163ffffffff167c0100000000000000000000000000000000000000000000000000000000028152600401602060405180830381600087803b158015612ce757600080fd5b505af1158015612cfb573d6000803e3d6000fd5b505050506040513d6020811015612d1157600080fd5b81019080805190602001909291905050505b15612deb57612d306149ab565b73ffffffffffffffffffffffffffffffffffffffff166348b4cd4b83836040518363ffffffff167c0100000000000000000000000000000000000000000000000000000000028152600401808373ffffffffffffffffffffffffffffffffffffffff1673ffffffffffffffffffffffffffffffffffffffff16815260200182815260200192505050600060405180830381600087803b158015612dd257600080fd5b505af1158015612de6573d6000803e3d6000fd5b505050505b5050565b600080600080600073C4D431F9962F70B7fFAc5BB4Fa057b012B6A4FDf73ffffffffffffffffffffffffffffffffffffffff16635f9e8f826040518163ffffffff167c0100000000000000000000000000000000000000000000000000000000028152600401602060405180830381600087803b158015612e6f57600080fd5b505af1158015612e83573d6000803e3d6000fd5b505050506040513d6020811015612e9957600080fd5b8101908080519060200190929190505050151515612eb657600080fd5b612ebf87614fc2565b94508473ffffffffffffffffffffffffffffffffffffffff1663b39c7600876040518263ffffffff167c0100000000000000000000000000000000000000000000000000000000028152600401808273ffffffffffffffffffffffffffffffffffffffff1673ffffffffffffffffffffffffffffffffffffffff168152602001915050602060405180830381600087803b158015612f5c57600080fd5b505af1158015612f70573d6000803e3d6000fd5b505050506040513d6020811015612f8657600080fd5b8101908080519060200190929190505050935060008411156132bd5773E450dcDe6C059339A35EEC0FaCbe62751ccA6e8a73ffffffffffffffffffffffffffffffffffffffff1663a9059cbb8673ffffffffffffffffffffffffffffffffffffffff1663534db0e26040518163ffffffff167c0100000000000000000000000000000000000000000000000000000000028152600401602060405180830381600087803b15801561303657600080fd5b505af115801561304a573d6000803e3d6000fd5b505050506040513d602081101561306057600080fd5b8101908080519060200190929190505050866040518363ffffffff167c0100000000000000000000000000000000000000000000000000000000028152600401808373ffffffffffffffffffffffffffffffffffffffff1673ffffffffffffffffffffffffffffffffffffffff16815260200182815260200192505050602060405180830381600087803b1580156130f757600080fd5b505af115801561310b573d6000803e3d6000fd5b505050506040513d602081101561312157600080fd5b8101908080519060200190929190505050151561313d57600080fd5b73C4D431F9962F70B7fFAc5BB4Fa057b012B6A4FDf73ffffffffffffffffffffffffffffffffffffffff1663ccce5a43600154898873ffffffffffffffffffffffffffffffffffffffff1663534db0e26040518163ffffffff167c0100000000000000000000000000000000000000000000000000000000028152600401602060405180830381600087803b1580156131d557600080fd5b505af11580156131e9573d6000803e3d6000fd5b505050506040513d60208110156131ff57600080fd5b8101908080519060200190929190505050876040518563ffffffff167c0100000000000000000000000000000000000000000000000000000000028152600401808581526020018481526020018373ffffffffffffffffffffffffffffffffffffffff1673ffffffffffffffffffffffffffffffffffffffff168152602001828152602001945050505050600060405180830381600087803b1580156132a457600080fd5b505af11580156132b8573d6000803e3d6000fd5b505050505b8473ffffffffffffffffffffffffffffffffffffffff166387f4ab31876040518263ffffffff167c0100000000000000000000000000000000000000000000000000000000028152600401808273ffffffffffffffffffffffffffffffffffffffff1673ffffffffffffffffffffffffffffffffffffffff168152602001915050602060405180830381600087803b15801561335857600080fd5b505af115801561336c573d6000803e3d6000fd5b505050506040513d602081101561338257600080fd5b8101908080519060200190929190505050925060008311156135bf5773E450dcDe6C059339A35EEC0FaCbe62751ccA6e8a73ffffffffffffffffffffffffffffffffffffffff1663a9059cbb6000809054906101000a900473ffffffffffffffffffffffffffffffffffffffff16856040518363ffffffff167c0100000000000000000000000000000000000000000000000000000000028152600401808373ffffffffffffffffffffffffffffffffffffffff1673ffffffffffffffffffffffffffffffffffffffff16815260200182815260200192505050602060405180830381600087803b15801561347657600080fd5b505af115801561348a573d6000803e3d6000fd5b505050506040513d60208110156134a057600080fd5b810190808051906020019092919050505015156134bc57600080fd5b73C4D431F9962F70B7fFAc5BB4Fa057b012B6A4FDf73ffffffffffffffffffffffffffffffffffffffff166359247c26600154896000809054906101000a900473ffffffffffffffffffffffffffffffffffffffff16876040518563ffffffff167c0100000000000000000000000000000000000000000000000000000000028152600401808581526020018481526020018373ffffffffffffffffffffffffffffffffffffffff1673ffffffffffffffffffffffffffffffffffffffff168152602001828152602001945050505050600060405180830381600087803b1580156135a657600080fd5b505af11580156135ba573d6000803e3d6000fd5b505050505b8473ffffffffffffffffffffffffffffffffffffffff1663f6884261876040518263ffffffff167c0100000000000000000000000000000000000000000000000000000000028152600401808273ffffffffffffffffffffffffffffffffffffffff1673ffffffffffffffffffffffffffffffffffffffff168152602001915050602060405180830381600087803b15801561365a57600080fd5b505af115801561366e573d6000803e3d6000fd5b505050506040513d602081101561368457600080fd5b8101908080519060200190929190505050915060008211156138835773E450dcDe6C059339A35EEC0FaCbe62751ccA6e8a73ffffffffffffffffffffffffffffffffffffffff1663a9059cbb87846040518363ffffffff167c0100000000000000000000000000000000000000000000000000000000028152600401808373ffffffffffffffffffffffffffffffffffffffff1673ffffffffffffffffffffffffffffffffffffffff16815260200182815260200192505050602060405180830381600087803b15801561375757600080fd5b505af115801561376b573d6000803e3d6000fd5b505050506040513d602081101561378157600080fd5b8101908080519060200190929190505050151561379d57600080fd5b73C4D431F9962F70B7fFAc5BB4Fa057b012B6A4FDf73ffffffffffffffffffffffffffffffffffffffff16632ae0099f6001548989866040518563ffffffff167c0100000000000000000000000000000000000000000000000000000000028152600401808581526020018481526020018373ffffffffffffffffffffffffffffffffffffffff1673ffffffffffffffffffffffffffffffffffffffff168152602001828152602001945050505050600060405180830381600087803b15801561386657600080fd5b505af115801561387a573d6000803e3d6000fd5b50505050613b44565b8473ffffffffffffffffffffffffffffffffffffffff16631d188416876040518263ffffffff167c0100000000000000000000000000000000000000000000000000000000028152600401808273ffffffffffffffffffffffffffffffffffffffff1673ffffffffffffffffffffffffffffffffffffffff168152602001915050602060405180830381600087803b15801561391e57600080fd5b505af1158015613932573d6000803e3d6000fd5b505050506040513d602081101561394857600080fd5b810190808051906020019092919050505090506000811115613b435773E450dcDe6C059339A35EEC0FaCbe62751ccA6e8a73ffffffffffffffffffffffffffffffffffffffff1663a9059cbb87836040518363ffffffff167c0100000000000000000000000000000000000000000000000000000000028152600401808373ffffffffffffffffffffffffffffffffffffffff1673ffffffffffffffffffffffffffffffffffffffff16815260200182815260200192505050602060405180830381600087803b158015613a1b57600080fd5b505af1158015613a2f573d6000803e3d6000fd5b505050506040513d6020811015613a4557600080fd5b81019080805190602001909291905050501515613a6157600080fd5b73C4D431F9962F70B7fFAc5BB4Fa057b012B6A4FDf73ffffffffffffffffffffffffffffffffffffffff1663e65ebf0a6001548989856040518563ffffffff167c0100000000000000000000000000000000000000000000000000000000028152600401808581526020018481526020018373ffffffffffffffffffffffffffffffffffffffff1673ffffffffffffffffffffffffffffffffffffffff168152602001828152602001945050505050600060405180830381600087803b158015613b2a57600080fd5b505af1158015613b3e573d6000803e3d6000fd5b505050505b5b50505050505050565b600080600080600080600073C4D431F9962F70B7fFAc5BB4Fa057b012B6A4FDf73ffffffffffffffffffffffffffffffffffffffff16635f9e8f826040518163ffffffff167c0100000000000000000000000000000000000000000000000000000000028152600401602060405180830381600087803b158015613bd057600080fd5b505af1158015613be4573d6000803e3d6000fd5b505050506040513d6020811015613bfa57600080fd5b8101908080519060200190929190505050151515613c1757600080fd5b60008973ffffffffffffffffffffffffffffffffffffffff1614151515613c3d57600080fd5b613c45614edd565b1515613c5057600080fd5b73E450dcDe6C059339A35EEC0FaCbe62751ccA6e8a73ffffffffffffffffffffffffffffffffffffffff166323b872dd8a306002546040518463ffffffff167c0100000000000000000000000000000000000000000000000000000000028152600401808473ffffffffffffffffffffffffffffffffffffffff1673ffffffffffffffffffffffffffffffffffffffff1681526020018373ffffffffffffffffffffffffffffffffffffffff1673ffffffffffffffffffffffffffffffffffffffff1681526020018281526020019350505050602060405180830381600087803b158015613d3d57600080fd5b505af1158015613d51573d6000803e3d6000fd5b505050506040513d6020811015613d6757600080fd5b81019080805190602001909291905050501515613d8357600080fd5b73C4D431F9962F70B7fFAc5BB4Fa057b012B6A4FDf73ffffffffffffffffffffffffffffffffffffffff16634d655aff6040518163ffffffff167c0100000000000000000000000000000000000000000000000000000000028152600401602060405180830381600087803b158015613dfb57600080fd5b505af1158015613e0f573d6000803e3d6000fd5b505050506040513d6020811015613e2557600080fd5b810190808051906020019092919050505073ffffffffffffffffffffffffffffffffffffffff1663bdc963d873C4D431F9962F70B7fFAc5BB4Fa057b012B6A4FDf73ffffffffffffffffffffffffffffffffffffffff1663799fcaae6040518163ffffffff167c0100000000000000000000000000000000000000000000000000000000028152600401602060405180830381600087803b158015613ec957600080fd5b505af1158015613edd573d6000803e3d6000fd5b505050506040513d6020811015613ef357600080fd5b81019080805190602001909291905050506040518263ffffffff167c0100000000000000000000000000000000000000000000000000000000028152600401808260001916600019168152602001915050602060405180830381600087803b158015613f5e57600080fd5b505af1158015613f72573d6000803e3d6000fd5b505050506040513d6020811015613f8857600080fd5b8101908080519060200190929190505050965073C4D431F9962F70B7fFAc5BB4Fa057b012B6A4FDf73ffffffffffffffffffffffffffffffffffffffff16634d655aff6040518163ffffffff167c0100000000000000000000000000000000000000000000000000000000028152600401602060405180830381600087803b15801561401357600080fd5b505af1158015614027573d6000803e3d6000fd5b505050506040513d602081101561403d57600080fd5b810190808051906020019092919050505073ffffffffffffffffffffffffffffffffffffffff1663bdc963d873C4D431F9962F70B7fFAc5BB4Fa057b012B6A4FDf73ffffffffffffffffffffffffffffffffffffffff16636009e5626040518163ffffffff167c0100000000000000000000000000000000000000000000000000000000028152600401602060405180830381600087803b1580156140e157600080fd5b505af11580156140f5573d6000803e3d6000fd5b505050506040513d602081101561410b57600080fd5b81019080805190602001909291905050506040518263ffffffff167c0100000000000000000000000000000000000000000000000000000000028152600401808260001916600019168152602001915050602060405180830381600087803b15801561417657600080fd5b505af115801561418a573d6000803e3d6000fd5b505050506040513d60208110156141a057600080fd5b810190808051906020019092919050505095506141c687426149c290919063ffffffff16565b94506141db86866149c290919063ffffffff16565b9350606461440c60025473C4D431F9962F70B7fFAc5BB4Fa057b012B6A4FDf73ffffffffffffffffffffffffffffffffffffffff16634d655aff6040518163ffffffff167c0100000000000000000000000000000000000000000000000000000000028152600401602060405180830381600087803b15801561425d57600080fd5b505af1158015614271573d6000803e3d6000fd5b505050506040513d602081101561428757600080fd5b810190808051906020019092919050505073ffffffffffffffffffffffffffffffffffffffff1663bdc963d873C4D431F9962F70B7fFAc5BB4Fa057b012B6A4FDf73ffffffffffffffffffffffffffffffffffffffff1663018714f56040518163ffffffff167c0100000000000000000000000000000000000000000000000000000000028152600401602060405180830381600087803b15801561432b57600080fd5b505af115801561433f573d6000803e3d6000fd5b505050506040513d602081101561435557600080fd5b81019080805190602001909291905050506040518263ffffffff167c0100000000000000000000000000000000000000000000000000000000028152600401808260001916600019168152602001915050602060405180830381600087803b1580156143c057600080fd5b505af11580156143d4573d6000803e3d6000fd5b505050506040513d60208110156143ea57600080fd5b810190808051906020019092919050505060640361500590919063ffffffff16565b81151561441557fe5b04925073C4D431F9962F70B7fFAc5BB4Fa057b012B6A4FDf73ffffffffffffffffffffffffffffffffffffffff16634d655aff6040518163ffffffff167c0100000000000000000000000000000000000000000000000000000000028152600401602060405180830381600087803b15801561449057600080fd5b505af11580156144a4573d6000803e3d6000fd5b505050506040513d60208110156144ba57600080fd5b810190808051906020019092919050505073ffffffffffffffffffffffffffffffffffffffff1663bdc963d873C4D431F9962F70B7fFAc5BB4Fa057b012B6A4FDf73ffffffffffffffffffffffffffffffffffffffff1663ee31e7b06040518163ffffffff167c0100000000000000000000000000000000000000000000000000000000028152600401602060405180830381600087803b15801561455e57600080fd5b505af1158015614572573d6000803e3d6000fd5b505050506040513d602081101561458857600080fd5b81019080805190602001909291905050506040518263ffffffff167c0100000000000000000000000000000000000000000000000000000000028152600401808260001916600019168152602001915050602060405180830381600087803b1580156145f357600080fd5b505af1158015614607573d6000803e3d6000fd5b505050506040513d602081101561461d57600080fd5b810190808051906020019092919050505091506146386151b4565b604051809103906000f080158015614654573d6000803e3d6000fd5b5090508073ffffffffffffffffffffffffffffffffffffffff166398bb9a6b308b8b6003548a8a8a8a6040518963ffffffff167c0100000000000000000000000000000000000000000000000000000000028152600401808973ffffffffffffffffffffffffffffffffffffffff1673ffffffffffffffffffffffffffffffffffffffff1681526020018873ffffffffffffffffffffffffffffffffffffffff1673ffffffffffffffffffffffffffffffffffffffff16815260200180602001878152602001868152602001858152602001848152602001838152602001828103825288818151815260200191508051906020019080838360005b8381101561476a57808201518184015260208101905061474f565b50505050905090810190601f1680156147975780820380516001836020036101000a031916815260200191505b509950505050505050505050600060405180830381600087803b1580156147bd57600080fd5b505af11580156147d1573d6000803e3d6000fd5b5050505060048190806001815401808255809150509060018203906000526020600020016000909192909190916101000a81548173ffffffffffffffffffffffffffffffffffffffff021916908373ffffffffffffffffffffffffffffffffffffffff1602179055505073C4D431F9962F70B7fFAc5BB4Fa057b012B6A4FDf73ffffffffffffffffffffffffffffffffffffffff16637fe378936001546148766128ab565b8c8989898f6040518863ffffffff167c0100000000000000000000000000000000000000000000000000000000028152600401808881526020018781526020018673ffffffffffffffffffffffffffffffffffffffff1673ffffffffffffffffffffffffffffffffffffffff16815260200185815260200184815260200183815260200180602001828103825283818151815260200191508051906020019080838360005b8381101561493657808201518184015260208101905061491b565b50505050905090810190601f1680156149635780820380516001836020036101000a031916815260200191505b5098505050505050505050600060405180830381600087803b15801561498857600080fd5b505af115801561499c573d6000803e3d6000fd5b50505050505050505050505050565b60006149bd6149b86128ab565b614fc2565b905090565b6000808284019050838110156040805190810160405280601181526020017f4d4154485f4144445f4f564552464c4f57000000000000000000000000000000815250901515614aac576040517f08c379a00000000000000000000000000000000000000000000000000000000081526004018080602001828103825283818151815260200191508051906020019080838360005b83811015614a71578082015181840152602081019050614a56565b50505050905090810190601f168015614a9e5780820380516001836020036101000a031916815260200191505b509250505060405180910390fd5b508091505092915050565b600080600073C4D431F9962F70B7fFAc5BB4Fa057b012B6A4FDf73ffffffffffffffffffffffffffffffffffffffff16635f9e8f826040518163ffffffff167c0100000000000000000000000000000000000000000000000000000000028152600401602060405180830381600087803b158015614b3457600080fd5b505af1158015614b48573d6000803e3d6000fd5b505050506040513d6020811015614b5e57600080fd5b8101908080519060200190929190505050151515614b7b57600080fd5b339250614b8786614fc2565b91508173ffffffffffffffffffffffffffffffffffffffff1663803f5b7f8487876040518463ffffffff167c0100000000000000000000000000000000000000000000000000000000028152600401808473ffffffffffffffffffffffffffffffffffffffff1673ffffffffffffffffffffffffffffffffffffffff168152602001836002811115614c1557fe5b60ff16815260200180602001828103825283818151815260200191508051906020019080838360005b83811015614c59578082015181840152602081019050614c3e565b50505050905090810190601f168015614c865780820380516001836020036101000a031916815260200191505b50945050505050602060405180830381600087803b158015614ca757600080fd5b505af1158015614cbb573d6000803e3d6000fd5b505050506040513d6020811015614cd157600080fd5b8101908080519060200190929190505050905073E450dcDe6C059339A35EEC0FaCbe62751ccA6e8a73ffffffffffffffffffffffffffffffffffffffff1663a9059cbb84836040518363ffffffff167c0100000000000000000000000000000000000000000000000000000000028152600401808373ffffffffffffffffffffffffffffffffffffffff1673ffffffffffffffffffffffffffffffffffffffff16815260200182815260200192505050602060405180830381600087803b158015614d9b57600080fd5b505af1158015614daf573d6000803e3d6000fd5b505050506040513d6020811015614dc557600080fd5b81019080805190602001909291905050501515614de157600080fd5b73C4D431F9962F70B7fFAc5BB4Fa057b012B6A4FDf73ffffffffffffffffffffffffffffffffffffffff1663570e39236001548886896002811115614e2257fe5b866040518663ffffffff167c0100000000000000000000000000000000000000000000000000000000028152600401808681526020018581526020018473ffffffffffffffffffffffffffffffffffffffff1673ffffffffffffffffffffffffffffffffffffffff16815260200183815260200182815260200195505050505050600060405180830381600087803b158015614ebd57600080fd5b505af1158015614ed1573d6000803e3d6000fd5b50505050505050505050565b6000614ee7615117565b8015614fbd575060006004805490501480614fbc5750600480811115614f0957fe5b614f116149ab565b73ffffffffffffffffffffffffffffffffffffffff1663200d2ed26040518163ffffffff167c0100000000000000000000000000000000000000000000000000000000028152600401602060405180830381600087803b158015614f7457600080fd5b505af1158015614f88573d6000803e3d6000fd5b505050506040513d6020811015614f9e57600080fd5b81019080805190602001909291905050506004811115614fba57fe5b145b5b905090565b6000600482815481101515614fd357fe5b9060005260206000200160009054906101000a900473ffffffffffffffffffffffffffffffffffffffff169050919050565b600080600084141561501a5760009150615110565b828402905082848281151561502b57fe5b04146040805190810160405280601181526020017f4d4154485f4d554c5f4f564552464c4f5700000000000000000000000000000081525090151561510b576040517f08c379a00000000000000000000000000000000000000000000000000000000081526004018080602001828103825283818151815260200191508051906020019080838360005b838110156150d05780820151818401526020810190506150b5565b50505050905090810190601f1680156150fd5780820380516001836020036101000a031916815260200191505b509250505060405180910390fd5b508091505b5092915050565b6000600354421115905090565b6040516101a0806151ea83390190565b828054600181600116156101000203166002900490600052602060002090601f016020900481019282601f1061517557805160ff19168380011785556151a3565b828001600101855582156151a3579182015b828111156151a2578251825591602001919060010190615187565b5b5090506151b091906151c4565b5090565b6040516101a08061538a83390190565b6151e691905b808211156151e25760008160009055506001016151ca565b5090565b905600608060405234801561001057600080fd5b50610180806100206000396000f300608060405260043610610041576000357c0100000000000000000000000000000000000000000000000000000000900463ffffffff168063d4b8399214610094575b61009273b5f52A8C471eC0901730f827F7D391dCdB5E8F6D6000368080601f0160208091040260200160405190810160405280939291908181526020018383808284378201915050505050506100eb565b005b3480156100a057600080fd5b506100a9610129565b604051808273ffffffffffffffffffffffffffffffffffffffff1673ffffffffffffffffffffffffffffffffffffffff16815260200191505060405180910390f35b6100f482610141565b15156100ff57600080fd5b600080825160208401856127105a03f43d604051816000823e8260008114610125578282f35b8282fd5b73b5f52A8C471eC0901730f827F7D391dCdB5E8F6D81565b600080823b9050600081119150509190505600a165627a7a72305820798f0fef82b2e3556befb5c6b15ee14a05fc9e6de19e45f8d4dbad1b6a4d7a7f0029608060405234801561001057600080fd5b50610180806100206000396000f300608060405260043610610041576000357c0100000000000000000000000000000000000000000000000000000000900463ffffffff168063d4b8399214610094575b61009273D00071aAb34c9Adc5E9B9802FaC0422a8A8bc7146000368080601f0160208091040260200160405190810160405280939291908181526020018383808284378201915050505050506100eb565b005b3480156100a057600080fd5b506100a9610129565b604051808273ffffffffffffffffffffffffffffffffffffffff1673ffffffffffffffffffffffffffffffffffffffff16815260200191505060405180910390f35b6100f482610141565b15156100ff57600080fd5b600080825160208401856127105a03f43d604051816000823e8260008114610125578282f35b8282fd5b73D00071aAb34c9Adc5E9B9802FaC0422a8A8bc71481565b600080823b9050600081119150509190505600a165627a7a72305820144734fcc804b3f034561533e7ca0d5369ac068ed4a8b28637ca6be1140288870029a165627a7a7230582046aa3f72a1aeb0bcb7641b267892dd4ced732a731ed15028fe8321ab7ec5f48a0029",
  "deployedBytecode": "0x60806040526004361061013e576000357c0100000000000000000000000000000000000000000000000000000000900463ffffffff16806302d05d3f1461014357806327f429d81461019a5780632e17de78146101f55780632ee4090814610222578063429d42521461026f57806354fd4d5014610358578063671f08e31461038357806370a08231146103ae5780637792957d146104055780637b1039991461045c5780637faa6e8c146104b3578063827c62fb1461050057806387dfc3eb146105905780638f1d3776146106195780638f4ffcb114610686578063a9624b6f14610739578063ab5310311461079e578063af2dfdb7146107eb578063c8cfe15314610842578063d0e30db01461088a578063d279c191146108b5578063d6edcd81146108f8578063e71ae0f11461094f578063ef0ca9b5146109a1575b600080fd5b34801561014f57600080fd5b50610158610a0a565b604051808273ffffffffffffffffffffffffffffffffffffffff1673ffffffffffffffffffffffffffffffffffffffff16815260200191505060405180910390f35b3480156101a657600080fd5b506101f3600480360381019080803573ffffffffffffffffffffffffffffffffffffffff169060200190929190803590602001909291908035600019169060200190929190505050610a2f565b005b34801561020157600080fd5b5061022060048036038101908080359060200190929190505050610a47565b005b34801561022e57600080fd5b5061026d600480360381019080803573ffffffffffffffffffffffffffffffffffffffff16906020019092919080359060200190929190505050610feb565b005b34801561027b57600080fd5b50610356600480360381019080803573ffffffffffffffffffffffffffffffffffffffff16906020019092919080359060200190929190803590602001908201803590602001908080601f0160208091040260200160405190810160405280939291908181526020018383808284378201915050505050509192919290803563ffffffff169060200190929190803590602001908201803590602001908080601f016020809104026020016040519081016040528093929190818152602001838380828437820191505050505050919291929050505061169f565b005b34801561036457600080fd5b5061036d611be2565b6040518082815260200191505060405180910390f35b34801561038f57600080fd5b50610398611be8565b6040518082815260200191505060405180910390f35b3480156103ba57600080fd5b506103ef600480360381019080803573ffffffffffffffffffffffffffffffffffffffff169060200190929190505050611bee565b6040518082815260200191505060405180910390f35b34801561041157600080fd5b5061041a611cef565b604051808273ffffffffffffffffffffffffffffffffffffffff1673ffffffffffffffffffffffffffffffffffffffff16815260200191505060405180910390f35b34801561046857600080fd5b50610471611d07565b604051808273ffffffffffffffffffffffffffffffffffffffff1673ffffffffffffffffffffffffffffffffffffffff16815260200191505060405180910390f35b3480156104bf57600080fd5b506104fe60048036038101908080359060200190929190803573ffffffffffffffffffffffffffffffffffffffff169060200190929190505050611d1f565b005b34801561050c57600080fd5b50610515611d2d565b6040518080602001828103825283818151815260200191508051906020019080838360005b8381101561055557808201518184015260208101905061053a565b50505050905090810190601f1680156105825780820380516001836020036101000a031916815260200191505b509250505060405180910390f35b34801561059c57600080fd5b50610617600480360381019080803573ffffffffffffffffffffffffffffffffffffffff169060200190929190803590602001908201803590602001908080601f0160208091040260200160405190810160405280939291908181526020018383808284378201915050505050509192919290505050611dcb565b005b34801561062557600080fd5b5061064460048036038101908080359060200190929190505050611f74565b604051808273ffffffffffffffffffffffffffffffffffffffff1673ffffffffffffffffffffffffffffffffffffffff16815260200191505060405180910390f35b34801561069257600080fd5b50610737600480360381019080803573ffffffffffffffffffffffffffffffffffffffff16906020019092919080359060200190929190803573ffffffffffffffffffffffffffffffffffffffff169060200190929190803590602001908201803590602001908080601f0160208091040260200160405190810160405280939291908181526020018383808284378201915050505050509192919290505050611fb2565b005b34801561074557600080fd5b5061079c60048036038101908080359060200190929190803573ffffffffffffffffffffffffffffffffffffffff16906020019092919080359060200190929190803560001916906020019092919050505061204a565b005b3480156107aa57600080fd5b506107e9600480360381019080803573ffffffffffffffffffffffffffffffffffffffff1690602001909291908035906020019092919050505061205c565b005b3480156107f757600080fd5b50610800612635565b604051808273ffffffffffffffffffffffffffffffffffffffff1673ffffffffffffffffffffffffffffffffffffffff16815260200191505060405180910390f35b34801561084e57600080fd5b50610888600480360381019080803560ff16906020019092919080359060200190820180359060200191909192939192939050505061264d565b005b34801561089657600080fd5b5061089f612696565b6040518082815260200191505060405180910390f35b3480156108c157600080fd5b506108f6600480360381019080803573ffffffffffffffffffffffffffffffffffffffff16906020019092919050505061269c565b005b34801561090457600080fd5b5061090d6126b0565b604051808273ffffffffffffffffffffffffffffffffffffffff1673ffffffffffffffffffffffffffffffffffffffff16815260200191505060405180910390f35b34801561095b57600080fd5b5061099f60048036038101908080359060200190929190803560ff1690602001909291908035906020019082018035906020019190919293919293905050506126d6565b005b3480156109ad57600080fd5b50610a08600480360381019080803590602001908201803590602001908080601f0160208091040260200160405190810160405280939291908181526020018383808284378201915050505050509192919290505050612719565b005b6000809054906101000a900473ffffffffffffffffffffffffffffffffffffffff1681565b610a42610a3a6128ab565b8484846128bb565b505050565b600560009054906101000a900473ffffffffffffffffffffffffffffffffffffffff1673ffffffffffffffffffffffffffffffffffffffff1663c2a672e033836040518363ffffffff167c0100000000000000000000000000000000000000000000000000000000028152600401808373ffffffffffffffffffffffffffffffffffffffff1673ffffffffffffffffffffffffffffffffffffffff16815260200182815260200192505050602060405180830381600087803b158015610b0c57600080fd5b505af1158015610b20573d6000803e3d6000fd5b505050506040513d6020811015610b3657600080fd5b810190808051906020019092919050505050610b74337fffffffffffffffffffffffffffffffffffffffffffffffffffffffffffffffff8302612c6b565b73feedfeedfeedfeedfeedfeedfeedfeedfeedfeed73ffffffffffffffffffffffffffffffffffffffff1663129704f6600154600560009054906101000a900473ffffffffffffffffffffffffffffffffffffffff1673ffffffffffffffffffffffffffffffffffffffff1663817b1cd26040518163ffffffff167c0100000000000000000000000000000000000000000000000000000000028152600401602060405180830381600087803b158015610c2d57600080fd5b505af1158015610c41573d6000803e3d6000fd5b505050506040513d6020811015610c5757600080fd5b8101908080519060200190929190505050600560009054906101000a900473ffffffffffffffffffffffffffffffffffffffff1673ffffffffffffffffffffffffffffffffffffffff166318160ddd6040518163ffffffff167c0100000000000000000000000000000000000000000000000000000000028152600401602060405180830381600087803b158015610cee57600080fd5b505af1158015610d02573d6000803e3d6000fd5b505050506040513d6020811015610d1857600080fd5b810190808051906020019092919050505033600560009054906101000a900473ffffffffffffffffffffffffffffffffffffffff1673ffffffffffffffffffffffffffffffffffffffff16634b341aed336040518263ffffffff167c0100000000000000000000000000000000000000000000000000000000028152600401808273ffffffffffffffffffffffffffffffffffffffff1673ffffffffffffffffffffffffffffffffffffffff168152602001915050602060405180830381600087803b158015610de757600080fd5b505af1158015610dfb573d6000803e3d6000fd5b505050506040513d6020811015610e1157600080fd5b8101908080519060200190929190505050600560009054906101000a900473ffffffffffffffffffffffffffffffffffffffff1673ffffffffffffffffffffffffffffffffffffffff166370a08231336040518263ffffffff167c0100000000000000000000000000000000000000000000000000000000028152600401808273ffffffffffffffffffffffffffffffffffffffff1673ffffffffffffffffffffffffffffffffffffffff168152602001915050602060405180830381600087803b158015610edf57600080fd5b505af1158015610ef3573d6000803e3d6000fd5b505050506040513d6020811015610f0957600080fd5b81019080805190602001909291905050508860016040518963ffffffff167c0100000000000000000000000000000000000000000000000000000000028152600401808981526020018881526020018781526020018673ffffffffffffffffffffffffffffffffffffffff1673ffffffffffffffffffffffffffffffffffffffff1681526020018581526020018481526020018381526020018215151515815260200198505050505050505050600060405180830381600087803b158015610fd057600080fd5b505af1158015610fe4573d6000803e3d6000fd5b5050505050565b73deaddeaddeaddeaddeaddeaddeaddeaddeaddead73ffffffffffffffffffffffffffffffffffffffff166323b872dd8330846040518463ffffffff167c0100000000000000000000000000000000000000000000000000000000028152600401808473ffffffffffffffffffffffffffffffffffffffff1673ffffffffffffffffffffffffffffffffffffffff1681526020018373ffffffffffffffffffffffffffffffffffffffff1673ffffffffffffffffffffffffffffffffffffffff1681526020018281526020019350505050602060405180830381600087803b1580156110d657600080fd5b505af11580156110ea573d6000803e3d6000fd5b505050506040513d602081101561110057600080fd5b8101908080519060200190929190505050151561111c57600080fd5b600560009054906101000a900473ffffffffffffffffffffffffffffffffffffffff1673ffffffffffffffffffffffffffffffffffffffff16632ee4090883836040518363ffffffff167c0100000000000000000000000000000000000000000000000000000000028152600401808373ffffffffffffffffffffffffffffffffffffffff1673ffffffffffffffffffffffffffffffffffffffff16815260200182815260200192505050602060405180830381600087803b1580156111e157600080fd5b505af11580156111f5573d6000803e3d6000fd5b505050506040513d602081101561120b57600080fd5b8101908080519060200190929190505050506112278282612c6b565b73feedfeedfeedfeedfeedfeedfeedfeedfeedfeed73ffffffffffffffffffffffffffffffffffffffff1663129704f6600154600560009054906101000a900473ffffffffffffffffffffffffffffffffffffffff1673ffffffffffffffffffffffffffffffffffffffff1663817b1cd26040518163ffffffff167c0100000000000000000000000000000000000000000000000000000000028152600401602060405180830381600087803b1580156112e057600080fd5b505af11580156112f4573d6000803e3d6000fd5b505050506040513d602081101561130a57600080fd5b8101908080519060200190929190505050600560009054906101000a900473ffffffffffffffffffffffffffffffffffffffff1673ffffffffffffffffffffffffffffffffffffffff166318160ddd6040518163ffffffff167c0100000000000000000000000000000000000000000000000000000000028152600401602060405180830381600087803b1580156113a157600080fd5b505af11580156113b5573d6000803e3d6000fd5b505050506040513d60208110156113cb57600080fd5b810190808051906020019092919050505086600560009054906101000a900473ffffffffffffffffffffffffffffffffffffffff1673ffffffffffffffffffffffffffffffffffffffff16634b341aed896040518263ffffffff167c0100000000000000000000000000000000000000000000000000000000028152600401808273ffffffffffffffffffffffffffffffffffffffff1673ffffffffffffffffffffffffffffffffffffffff168152602001915050602060405180830381600087803b15801561149a57600080fd5b505af11580156114ae573d6000803e3d6000fd5b505050506040513d60208110156114c457600080fd5b8101908080519060200190929190505050600560009054906101000a900473ffffffffffffffffffffffffffffffffffffffff1673ffffffffffffffffffffffffffffffffffffffff166370a082318a6040518263ffffffff167c0100000000000000000000000000000000000000000000000000000000028152600401808273ffffffffffffffffffffffffffffffffffffffff1673ffffffffffffffffffffffffffffffffffffffff168152602001915050602060405180830381600087803b15801561159257600080fd5b505af11580156115a6573d6000803e3d6000fd5b505050506040513d60208110156115bc57600080fd5b81019080805190602001909291905050508860006040518963ffffffff167c0100000000000000000000000000000000000000000000000000000000028152600401808981526020018881526020018781526020018673ffffffffffffffffffffffffffffffffffffffff1673ffffffffffffffffffffffffffffffffffffffff1681526020018581526020018481526020018381526020018215151515815260200198505050505050505050600060405180830381600087803b15801561168357600080fd5b505af1158015611697573d6000803e3d6000fd5b505050505050565b60006116ab868661205c565b6116b3615124565b604051809103906000f0801580156116cf573d6000803e3d6000fd5b50600560006101000a81548173ffffffffffffffffffffffffffffffffffffffff021916908373ffffffffffffffffffffffffffffffffffffffff160217905550600560009054906101000a900473ffffffffffffffffffffffffffffffffffffffff1673ffffffffffffffffffffffffffffffffffffffff16633d1d878a846040518263ffffffff167c0100000000000000000000000000000000000000000000000000000000028152600401808263ffffffff1663ffffffff168152602001915050600060405180830381600087803b1580156117ad57600080fd5b505af11580156117c1573d6000803e3d6000fd5b5050505060001960038190555083600690805190602001906117e4929190615134565b5073aaaaaaaaaaaaaaaaaaaaaaaaaaaaaaaaaaaaaaaa73ffffffffffffffffffffffffffffffffffffffff166362fd8efc83600560009054906101000a900473ffffffffffffffffffffffffffffffffffffffff16896040518463ffffffff167c010000000000000000000000000000000000000000000000000000000002815260040180806020018473ffffffffffffffffffffffffffffffffffffffff1673ffffffffffffffffffffffffffffffffffffffff1681526020018373ffffffffffffffffffffffffffffffffffffffff1673ffffffffffffffffffffffffffffffffffffffff168152602001828103825285818151815260200191508051906020019080838360005b838110156119095780820151818401526020810190506118ee565b50505050905090810190601f1680156119365780820380516001836020036101000a031916815260200191505b50945050505050602060405180830381600087803b15801561195757600080fd5b505af115801561196b573d6000803e3d6000fd5b505050506040513d602081101561198157600080fd5b8101908080519060200190929190505050905073feedfeedfeedfeedfeedfeedfeedfeedfeedfeed73ffffffffffffffffffffffffffffffffffffffff16639f8bfcba6001546000809054906101000a900473ffffffffffffffffffffffffffffffffffffffff16600660025460035489888a6040518963ffffffff167c0100000000000000000000000000000000000000000000000000000000028152600401808981526020018873ffffffffffffffffffffffffffffffffffffffff1673ffffffffffffffffffffffffffffffffffffffff168152602001806020018781526020018681526020018563ffffffff1663ffffffff1681526020018473ffffffffffffffffffffffffffffffffffffffff1673ffffffffffffffffffffffffffffffffffffffff16815260200180602001838103835289818154600181600116156101000203166002900481526020019150805460018160011615610100020316600290048015611b345780601f10611b0957610100808354040283529160200191611b34565b820191906000526020600020905b815481529060010190602001808311611b1757829003601f168201915b5050838103825284818151815260200191508051906020019080838360005b83811015611b6e578082015181840152602081019050611b53565b50505050905090810190601f168015611b9b5780820380516001836020036101000a031916815260200191505b509a5050505050505050505050600060405180830381600087803b158015611bc257600080fd5b505af1158015611bd6573d6000803e3d6000fd5b50505050505050505050565b60015481565b60035481565b6000600560009054906101000a900473ffffffffffffffffffffffffffffffffffffffff1673ffffffffffffffffffffffffffffffffffffffff166370a08231836040518263ffffffff167c0100000000000000000000000000000000000000000000000000000000028152600401808273ffffffffffffffffffffffffffffffffffffffff1673ffffffffffffffffffffffffffffffffffffffff168152602001915050602060405180830381600087803b158015611cad57600080fd5b505af1158015611cc1573d6000803e3d6000fd5b505050506040513d6020811015611cd757600080fd5b81019080805190602001909291905050509050919050565b73deaddeaddeaddeaddeaddeaddeaddeaddeaddead81565b73feedfeedfeedfeedfeedfeedfeedfeedfeedfeed81565b611d298282612def565b5050565b60068054600181600116156101000203166002900480601f016020809104026020016040519081016040528092919081815260200182805460018160011615610100020316600290048015611dc35780601f10611d9857610100808354040283529160200191611dc3565b820191906000526020600020905b815481529060010190602001808311611da657829003601f168201915b505050505081565b73feedfeedfeedfeedfeedfeedfeedfeedfeedfeed73ffffffffffffffffffffffffffffffffffffffff16635f9e8f826040518163ffffffff167c0100000000000000000000000000000000000000000000000000000000028152600401602060405180830381600087803b158015611e4357600080fd5b505af1158015611e57573d6000803e3d6000fd5b505050506040513d6020811015611e6d57600080fd5b8101908080519060200190929190505050151515611e8a57600080fd5b611e948282613b4d565b611e9c6149ab565b73ffffffffffffffffffffffffffffffffffffffff1663a3e69cd3600560009054906101000a900473ffffffffffffffffffffffffffffffffffffffff166040518263ffffffff167c0100000000000000000000000000000000000000000000000000000000028152600401808273ffffffffffffffffffffffffffffffffffffffff1673ffffffffffffffffffffffffffffffffffffffff168152602001915050600060405180830381600087803b158015611f5857600080fd5b505af1158015611f6c573d6000803e3d6000fd5b505050505050565b600481815481101515611f8357fe5b906000526020600020016000915054906101000a900473ffffffffffffffffffffffffffffffffffffffff1681565b3073ffffffffffffffffffffffffffffffffffffffff168160405180828051906020019080838360005b83811015611ff7578082015181840152602081019050611fdc565b50505050905090810190601f1680156120245780820380516001836020036101000a031916815260200191505b509150506000604051808303816000865af1915050151561204457600080fd5b50505050565b612056848484846128bb565b50505050565b600060035414151561206d57600080fd5b73feedfeedfeedfeedfeedfeedfeedfeedfeedfeed73ffffffffffffffffffffffffffffffffffffffff16634d655aff6040518163ffffffff167c0100000000000000000000000000000000000000000000000000000000028152600401602060405180830381600087803b1580156120e557600080fd5b505af11580156120f9573d6000803e3d6000fd5b505050506040513d602081101561210f57600080fd5b810190808051906020019092919050505073ffffffffffffffffffffffffffffffffffffffff1663bdc963d873feedfeedfeedfeedfeedfeedfeedfeedfeedfeed73ffffffffffffffffffffffffffffffffffffffff16630c380fdb6040518163ffffffff167c0100000000000000000000000000000000000000000000000000000000028152600401602060405180830381600087803b1580156121b357600080fd5b505af11580156121c7573d6000803e3d6000fd5b505050506040513d60208110156121dd57600080fd5b81019080805190602001909291905050506040518263ffffffff167c0100000000000000000000000000000000000000000000000000000000028152600401808260001916600019168152602001915050602060405180830381600087803b15801561224857600080fd5b505af115801561225c573d6000803e3d6000fd5b505050506040513d602081101561227257600080fd5b810190808051906020019092919050505060028190555073deaddeaddeaddeaddeaddeaddeaddeaddeaddead73ffffffffffffffffffffffffffffffffffffffff166323b872dd33306002546040518463ffffffff167c0100000000000000000000000000000000000000000000000000000000028152600401808473ffffffffffffffffffffffffffffffffffffffff1673ffffffffffffffffffffffffffffffffffffffff1681526020018373ffffffffffffffffffffffffffffffffffffffff1673ffffffffffffffffffffffffffffffffffffffff1681526020018281526020019350505050602060405180830381600087803b15801561237657600080fd5b505af115801561238a573d6000803e3d6000fd5b505050506040513d60208110156123a057600080fd5b810190808051906020019092919050505015156123bc57600080fd5b6125e473feedfeedfeedfeedfeedfeedfeedfeedfeedfeed73ffffffffffffffffffffffffffffffffffffffff16634d655aff6040518163ffffffff167c0100000000000000000000000000000000000000000000000000000000028152600401602060405180830381600087803b15801561243757600080fd5b505af115801561244b573d6000803e3d6000fd5b505050506040513d602081101561246157600080fd5b810190808051906020019092919050505073ffffffffffffffffffffffffffffffffffffffff1663bdc963d873feedfeedfeedfeedfeedfeedfeedfeedfeedfeed73ffffffffffffffffffffffffffffffffffffffff16636dc50caa6040518163ffffffff167c0100000000000000000000000000000000000000000000000000000000028152600401602060405180830381600087803b15801561250557600080fd5b505af1158015612519573d6000803e3d6000fd5b505050506040513d602081101561252f57600080fd5b81019080805190602001909291905050506040518263ffffffff167c0100000000000000000000000000000000000000000000000000000000028152600401808260001916600019168152602001915050602060405180830381600087803b15801561259a57600080fd5b505af11580156125ae573d6000803e3d6000fd5b505050506040513d60208110156125c457600080fd5b8101908080519060200190929190505050426149c290919063ffffffff16565b600381905550816000806101000a81548173ffffffffffffffffffffffffffffffffffffffff021916908373ffffffffffffffffffffffffffffffffffffffff160217905550806001819055505050565b73aaaaaaaaaaaaaaaaaaaaaaaaaaaaaaaaaaaaaaaa81565b6126916126586128ab565b8484848080601f016020809104026020016040519081016040528093929190818152602001838380828437820191505050505050614ab7565b505050565b60025481565b6126ad6126a76128ab565b82612def565b50565b600560009054906101000a900473ffffffffffffffffffffffffffffffffffffffff1681565b612713848484848080601f016020809104026020016040519081016040528093929190818152602001838380828437820191505050505050614ab7565b50505050565b6000809054906101000a900473ffffffffffffffffffffffffffffffffffffffff1673ffffffffffffffffffffffffffffffffffffffff163373ffffffffffffffffffffffffffffffffffffffff1614151561277457600080fd5b61277c614edd565b151561278757600080fd5b806006908051906020019061279d929190615134565b5073feedfeedfeedfeedfeedfeedfeedfeedfeedfeed73ffffffffffffffffffffffffffffffffffffffff1663a3b6c1b5600154836040518363ffffffff167c01000000000000000000000000000000000000000000000000000000000281526004018083815260200180602001828103825283818151815260200191508051906020019080838360005b83811015612843578082015181840152602081019050612828565b50505050905090810190601f1680156128705780820380516001836020036101000a031916815260200191505b509350505050600060405180830381600087803b15801561289057600080fd5b505af11580156128a4573d6000803e3d6000fd5b5050505050565b6000600160048054905003905090565b600073feedfeedfeedfeedfeedfeedfeedfeedfeedfeed73ffffffffffffffffffffffffffffffffffffffff16635f9e8f826040518163ffffffff167c0100000000000000000000000000000000000000000000000000000000028152600401602060405180830381600087803b15801561293557600080fd5b505af1158015612949573d6000803e3d6000fd5b505050506040513d602081101561295f57600080fd5b810190808051906020019092919050505015151561297c57600080fd5b73deaddeaddeaddeaddeaddeaddeaddeaddeaddead73ffffffffffffffffffffffffffffffffffffffff166323b872dd8530866040518463ffffffff167c0100000000000000000000000000000000000000000000000000000000028152600401808473ffffffffffffffffffffffffffffffffffffffff1673ffffffffffffffffffffffffffffffffffffffff1681526020018373ffffffffffffffffffffffffffffffffffffffff1673ffffffffffffffffffffffffffffffffffffffff1681526020018281526020019350505050602060405180830381600087803b158015612a6757600080fd5b505af1158015612a7b573d6000803e3d6000fd5b505050506040513d6020811015612a9157600080fd5b81019080805190602001909291905050501515612aad57600080fd5b612ab685614fc2565b90508073ffffffffffffffffffffffffffffffffffffffff166327f429d88585856040518463ffffffff167c0100000000000000000000000000000000000000000000000000000000028152600401808473ffffffffffffffffffffffffffffffffffffffff1673ffffffffffffffffffffffffffffffffffffffff16815260200183815260200182600019166000191681526020019350505050600060405180830381600087803b158015612b6b57600080fd5b505af1158015612b7f573d6000803e3d6000fd5b5050505073feedfeedfeedfeedfeedfeedfeedfeedfeedfeed73ffffffffffffffffffffffffffffffffffffffff1663543b8dd46001548787876040518563ffffffff167c0100000000000000000000000000000000000000000000000000000000028152600401808581526020018481526020018373ffffffffffffffffffffffffffffffffffffffff1673ffffffffffffffffffffffffffffffffffffffff168152602001828152602001945050505050600060405180830381600087803b158015612c4c57600080fd5b505af1158015612c60573d6000803e3d6000fd5b505050505050505050565b600060048054905014158015612d235750612c846149ab565b73ffffffffffffffffffffffffffffffffffffffff1663e8c934fe6040518163ffffffff167c0100000000000000000000000000000000000000000000000000000000028152600401602060405180830381600087803b158015612ce757600080fd5b505af1158015612cfb573d6000803e3d6000fd5b505050506040513d6020811015612d1157600080fd5b81019080805190602001909291905050505b15612deb57612d306149ab565b73ffffffffffffffffffffffffffffffffffffffff166348b4cd4b83836040518363ffffffff167c0100000000000000000000000000000000000000000000000000000000028152600401808373ffffffffffffffffffffffffffffffffffffffff1673ffffffffffffffffffffffffffffffffffffffff16815260200182815260200192505050600060405180830381600087803b158015612dd257600080fd5b505af1158015612de6573d6000803e3d6000fd5b505050505b5050565b600080600080600073feedfeedfeedfeedfeedfeedfeedfeedfeedfeed73ffffffffffffffffffffffffffffffffffffffff16635f9e8f826040518163ffffffff167c0100000000000000000000000000000000000000000000000000000000028152600401602060405180830381600087803b158015612e6f57600080fd5b505af1158015612e83573d6000803e3d6000fd5b505050506040513d6020811015612e9957600080fd5b8101908080519060200190929190505050151515612eb657600080fd5b612ebf87614fc2565b94508473ffffffffffffffffffffffffffffffffffffffff1663b39c7600876040518263ffffffff167c0100000000000000000000000000000000000000000000000000000000028152600401808273ffffffffffffffffffffffffffffffffffffffff1673ffffffffffffffffffffffffffffffffffffffff168152602001915050602060405180830381600087803b158015612f5c57600080fd5b505af1158015612f70573d6000803e3d6000fd5b505050506040513d6020811015612f8657600080fd5b8101908080519060200190929190505050935060008411156132bd5773deaddeaddeaddeaddeaddeaddeaddeaddeaddead73ffffffffffffffffffffffffffffffffffffffff1663a9059cbb8673ffffffffffffffffffffffffffffffffffffffff1663534db0e26040518163ffffffff167c0100000000000000000000000000000000000000000000000000000000028152600401602060405180830381600087803b15801561303657600080fd5b505af115801561304a573d6000803e3d6000fd5b505050506040513d602081101561306057600080fd5b8101908080519060200190929190505050866040518363ffffffff167c0100000000000000000000000000000000000000000000000000000000028152600401808373ffffffffffffffffffffffffffffffffffffffff1673ffffffffffffffffffffffffffffffffffffffff16815260200182815260200192505050602060405180830381600087803b1580156130f757600080fd5b505af115801561310b573d6000803e3d6000fd5b505050506040513d602081101561312157600080fd5b8101908080519060200190929190505050151561313d57600080fd5b73feedfeedfeedfeedfeedfeedfeedfeedfeedfeed73ffffffffffffffffffffffffffffffffffffffff1663ccce5a43600154898873ffffffffffffffffffffffffffffffffffffffff1663534db0e26040518163ffffffff167c0100000000000000000000000000000000000000000000000000000000028152600401602060405180830381600087803b1580156131d557600080fd5b505af11580156131e9573d6000803e3d6000fd5b505050506040513d60208110156131ff57600080fd5b8101908080519060200190929190505050876040518563ffffffff167c0100000000000000000000000000000000000000000000000000000000028152600401808581526020018481526020018373ffffffffffffffffffffffffffffffffffffffff1673ffffffffffffffffffffffffffffffffffffffff168152602001828152602001945050505050600060405180830381600087803b1580156132a457600080fd5b505af11580156132b8573d6000803e3d6000fd5b505050505b8473ffffffffffffffffffffffffffffffffffffffff166387f4ab31876040518263ffffffff167c0100000000000000000000000000000000000000000000000000000000028152600401808273ffffffffffffffffffffffffffffffffffffffff1673ffffffffffffffffffffffffffffffffffffffff168152602001915050602060405180830381600087803b15801561335857600080fd5b505af115801561336c573d6000803e3d6000fd5b505050506040513d602081101561338257600080fd5b8101908080519060200190929190505050925060008311156135bf5773deaddeaddeaddeaddeaddeaddeaddeaddeaddead73ffffffffffffffffffffffffffffffffffffffff1663a9059cbb6000809054906101000a900473ffffffffffffffffffffffffffffffffffffffff16856040518363ffffffff167c0100000000000000000000000000000000000000000000000000000000028152600401808373ffffffffffffffffffffffffffffffffffffffff1673ffffffffffffffffffffffffffffffffffffffff16815260200182815260200192505050602060405180830381600087803b15801561347657600080fd5b505af115801561348a573d6000803e3d6000fd5b505050506040513d60208110156134a057600080fd5b810190808051906020019092919050505015156134bc57600080fd5b73feedfeedfeedfeedfeedfeedfeedfeedfeedfeed73ffffffffffffffffffffffffffffffffffffffff166359247c26600154896000809054906101000a900473ffffffffffffffffffffffffffffffffffffffff16876040518563ffffffff167c0100000000000000000000000000000000000000000000000000000000028152600401808581526020018481526020018373ffffffffffffffffffffffffffffffffffffffff1673ffffffffffffffffffffffffffffffffffffffff168152602001828152602001945050505050600060405180830381600087803b1580156135a657600080fd5b505af11580156135ba573d6000803e3d6000fd5b505050505b8473ffffffffffffffffffffffffffffffffffffffff1663f6884261876040518263ffffffff167c0100000000000000000000000000000000000000000000000000000000028152600401808273ffffffffffffffffffffffffffffffffffffffff1673ffffffffffffffffffffffffffffffffffffffff168152602001915050602060405180830381600087803b15801561365a57600080fd5b505af115801561366e573d6000803e3d6000fd5b505050506040513d602081101561368457600080fd5b8101908080519060200190929190505050915060008211156138835773deaddeaddeaddeaddeaddeaddeaddeaddeaddead73ffffffffffffffffffffffffffffffffffffffff1663a9059cbb87846040518363ffffffff167c0100000000000000000000000000000000000000000000000000000000028152600401808373ffffffffffffffffffffffffffffffffffffffff1673ffffffffffffffffffffffffffffffffffffffff16815260200182815260200192505050602060405180830381600087803b15801561375757600080fd5b505af115801561376b573d6000803e3d6000fd5b505050506040513d602081101561378157600080fd5b8101908080519060200190929190505050151561379d57600080fd5b73feedfeedfeedfeedfeedfeedfeedfeedfeedfeed73ffffffffffffffffffffffffffffffffffffffff16632ae0099f6001548989866040518563ffffffff167c0100000000000000000000000000000000000000000000000000000000028152600401808581526020018481526020018373ffffffffffffffffffffffffffffffffffffffff1673ffffffffffffffffffffffffffffffffffffffff168152602001828152602001945050505050600060405180830381600087803b15801561386657600080fd5b505af115801561387a573d6000803e3d6000fd5b50505050613b44565b8473ffffffffffffffffffffffffffffffffffffffff16631d188416876040518263ffffffff167c0100000000000000000000000000000000000000000000000000000000028152600401808273ffffffffffffffffffffffffffffffffffffffff1673ffffffffffffffffffffffffffffffffffffffff168152602001915050602060405180830381600087803b15801561391e57600080fd5b505af1158015613932573d6000803e3d6000fd5b505050506040513d602081101561394857600080fd5b810190808051906020019092919050505090506000811115613b435773deaddeaddeaddeaddeaddeaddeaddeaddeaddead73ffffffffffffffffffffffffffffffffffffffff1663a9059cbb87836040518363ffffffff167c0100000000000000000000000000000000000000000000000000000000028152600401808373ffffffffffffffffffffffffffffffffffffffff1673ffffffffffffffffffffffffffffffffffffffff16815260200182815260200192505050602060405180830381600087803b158015613a1b57600080fd5b505af1158015613a2f573d6000803e3d6000fd5b505050506040513d6020811015613a4557600080fd5b81019080805190602001909291905050501515613a6157600080fd5b73feedfeedfeedfeedfeedfeedfeedfeedfeedfeed73ffffffffffffffffffffffffffffffffffffffff1663e65ebf0a6001548989856040518563ffffffff167c0100000000000000000000000000000000000000000000000000000000028152600401808581526020018481526020018373ffffffffffffffffffffffffffffffffffffffff1673ffffffffffffffffffffffffffffffffffffffff168152602001828152602001945050505050600060405180830381600087803b158015613b2a57600080fd5b505af1158015613b3e573d6000803e3d6000fd5b505050505b5b50505050505050565b600080600080600080600073feedfeedfeedfeedfeedfeedfeedfeedfeedfeed73ffffffffffffffffffffffffffffffffffffffff16635f9e8f826040518163ffffffff167c0100000000000000000000000000000000000000000000000000000000028152600401602060405180830381600087803b158015613bd057600080fd5b505af1158015613be4573d6000803e3d6000fd5b505050506040513d6020811015613bfa57600080fd5b8101908080519060200190929190505050151515613c1757600080fd5b60008973ffffffffffffffffffffffffffffffffffffffff1614151515613c3d57600080fd5b613c45614edd565b1515613c5057600080fd5b73deaddeaddeaddeaddeaddeaddeaddeaddeaddead73ffffffffffffffffffffffffffffffffffffffff166323b872dd8a306002546040518463ffffffff167c0100000000000000000000000000000000000000000000000000000000028152600401808473ffffffffffffffffffffffffffffffffffffffff1673ffffffffffffffffffffffffffffffffffffffff1681526020018373ffffffffffffffffffffffffffffffffffffffff1673ffffffffffffffffffffffffffffffffffffffff1681526020018281526020019350505050602060405180830381600087803b158015613d3d57600080fd5b505af1158015613d51573d6000803e3d6000fd5b505050506040513d6020811015613d6757600080fd5b81019080805190602001909291905050501515613d8357600080fd5b73feedfeedfeedfeedfeedfeedfeedfeedfeedfeed73ffffffffffffffffffffffffffffffffffffffff16634d655aff6040518163ffffffff167c0100000000000000000000000000000000000000000000000000000000028152600401602060405180830381600087803b158015613dfb57600080fd5b505af1158015613e0f573d6000803e3d6000fd5b505050506040513d6020811015613e2557600080fd5b810190808051906020019092919050505073ffffffffffffffffffffffffffffffffffffffff1663bdc963d873feedfeedfeedfeedfeedfeedfeedfeedfeedfeed73ffffffffffffffffffffffffffffffffffffffff1663799fcaae6040518163ffffffff167c0100000000000000000000000000000000000000000000000000000000028152600401602060405180830381600087803b158015613ec957600080fd5b505af1158015613edd573d6000803e3d6000fd5b505050506040513d6020811015613ef357600080fd5b81019080805190602001909291905050506040518263ffffffff167c0100000000000000000000000000000000000000000000000000000000028152600401808260001916600019168152602001915050602060405180830381600087803b158015613f5e57600080fd5b505af1158015613f72573d6000803e3d6000fd5b505050506040513d6020811015613f8857600080fd5b8101908080519060200190929190505050965073feedfeedfeedfeedfeedfeedfeedfeedfeedfeed73ffffffffffffffffffffffffffffffffffffffff16634d655aff6040518163ffffffff167c0100000000000000000000000000000000000000000000000000000000028152600401602060405180830381600087803b15801561401357600080fd5b505af1158015614027573d6000803e3d6000fd5b505050506040513d602081101561403d57600080fd5b810190808051906020019092919050505073ffffffffffffffffffffffffffffffffffffffff1663bdc963d873feedfeedfeedfeedfeedfeedfeedfeedfeedfeed73ffffffffffffffffffffffffffffffffffffffff16636009e5626040518163ffffffff167c0100000000000000000000000000000000000000000000000000000000028152600401602060405180830381600087803b1580156140e157600080fd5b505af11580156140f5573d6000803e3d6000fd5b505050506040513d602081101561410b57600080fd5b81019080805190602001909291905050506040518263ffffffff167c0100000000000000000000000000000000000000000000000000000000028152600401808260001916600019168152602001915050602060405180830381600087803b15801561417657600080fd5b505af115801561418a573d6000803e3d6000fd5b505050506040513d60208110156141a057600080fd5b810190808051906020019092919050505095506141c687426149c290919063ffffffff16565b94506141db86866149c290919063ffffffff16565b9350606461440c60025473feedfeedfeedfeedfeedfeedfeedfeedfeedfeed73ffffffffffffffffffffffffffffffffffffffff16634d655aff6040518163ffffffff167c0100000000000000000000000000000000000000000000000000000000028152600401602060405180830381600087803b15801561425d57600080fd5b505af1158015614271573d6000803e3d6000fd5b505050506040513d602081101561428757600080fd5b810190808051906020019092919050505073ffffffffffffffffffffffffffffffffffffffff1663bdc963d873feedfeedfeedfeedfeedfeedfeedfeedfeedfeed73ffffffffffffffffffffffffffffffffffffffff1663018714f56040518163ffffffff167c0100000000000000000000000000000000000000000000000000000000028152600401602060405180830381600087803b15801561432b57600080fd5b505af115801561433f573d6000803e3d6000fd5b505050506040513d602081101561435557600080fd5b81019080805190602001909291905050506040518263ffffffff167c0100000000000000000000000000000000000000000000000000000000028152600401808260001916600019168152602001915050602060405180830381600087803b1580156143c057600080fd5b505af11580156143d4573d6000803e3d6000fd5b505050506040513d60208110156143ea57600080fd5b810190808051906020019092919050505060640361500590919063ffffffff16565b81151561441557fe5b04925073feedfeedfeedfeedfeedfeedfeedfeedfeedfeed73ffffffffffffffffffffffffffffffffffffffff16634d655aff6040518163ffffffff167c0100000000000000000000000000000000000000000000000000000000028152600401602060405180830381600087803b15801561449057600080fd5b505af11580156144a4573d6000803e3d6000fd5b505050506040513d60208110156144ba57600080fd5b810190808051906020019092919050505073ffffffffffffffffffffffffffffffffffffffff1663bdc963d873feedfeedfeedfeedfeedfeedfeedfeedfeedfeed73ffffffffffffffffffffffffffffffffffffffff1663ee31e7b06040518163ffffffff167c0100000000000000000000000000000000000000000000000000000000028152600401602060405180830381600087803b15801561455e57600080fd5b505af1158015614572573d6000803e3d6000fd5b505050506040513d602081101561458857600080fd5b81019080805190602001909291905050506040518263ffffffff167c0100000000000000000000000000000000000000000000000000000000028152600401808260001916600019168152602001915050602060405180830381600087803b1580156145f357600080fd5b505af1158015614607573d6000803e3d6000fd5b505050506040513d602081101561461d57600080fd5b810190808051906020019092919050505091506146386151b4565b604051809103906000f080158015614654573d6000803e3d6000fd5b5090508073ffffffffffffffffffffffffffffffffffffffff166398bb9a6b308b8b6003548a8a8a8a6040518963ffffffff167c0100000000000000000000000000000000000000000000000000000000028152600401808973ffffffffffffffffffffffffffffffffffffffff1673ffffffffffffffffffffffffffffffffffffffff1681526020018873ffffffffffffffffffffffffffffffffffffffff1673ffffffffffffffffffffffffffffffffffffffff16815260200180602001878152602001868152602001858152602001848152602001838152602001828103825288818151815260200191508051906020019080838360005b8381101561476a57808201518184015260208101905061474f565b50505050905090810190601f1680156147975780820380516001836020036101000a031916815260200191505b509950505050505050505050600060405180830381600087803b1580156147bd57600080fd5b505af11580156147d1573d6000803e3d6000fd5b5050505060048190806001815401808255809150509060018203906000526020600020016000909192909190916101000a81548173ffffffffffffffffffffffffffffffffffffffff021916908373ffffffffffffffffffffffffffffffffffffffff1602179055505073feedfeedfeedfeedfeedfeedfeedfeedfeedfeed73ffffffffffffffffffffffffffffffffffffffff16637fe378936001546148766128ab565b8c8989898f6040518863ffffffff167c0100000000000000000000000000000000000000000000000000000000028152600401808881526020018781526020018673ffffffffffffffffffffffffffffffffffffffff1673ffffffffffffffffffffffffffffffffffffffff16815260200185815260200184815260200183815260200180602001828103825283818151815260200191508051906020019080838360005b8381101561493657808201518184015260208101905061491b565b50505050905090810190601f1680156149635780820380516001836020036101000a031916815260200191505b5098505050505050505050600060405180830381600087803b15801561498857600080fd5b505af115801561499c573d6000803e3d6000fd5b50505050505050505050505050565b60006149bd6149b86128ab565b614fc2565b905090565b6000808284019050838110156040805190810160405280601181526020017f4d4154485f4144445f4f564552464c4f57000000000000000000000000000000815250901515614aac576040517f08c379a00000000000000000000000000000000000000000000000000000000081526004018080602001828103825283818151815260200191508051906020019080838360005b83811015614a71578082015181840152602081019050614a56565b50505050905090810190601f168015614a9e5780820380516001836020036101000a031916815260200191505b509250505060405180910390fd5b508091505092915050565b600080600073feedfeedfeedfeedfeedfeedfeedfeedfeedfeed73ffffffffffffffffffffffffffffffffffffffff16635f9e8f826040518163ffffffff167c0100000000000000000000000000000000000000000000000000000000028152600401602060405180830381600087803b158015614b3457600080fd5b505af1158015614b48573d6000803e3d6000fd5b505050506040513d6020811015614b5e57600080fd5b8101908080519060200190929190505050151515614b7b57600080fd5b339250614b8786614fc2565b91508173ffffffffffffffffffffffffffffffffffffffff1663803f5b7f8487876040518463ffffffff167c0100000000000000000000000000000000000000000000000000000000028152600401808473ffffffffffffffffffffffffffffffffffffffff1673ffffffffffffffffffffffffffffffffffffffff168152602001836002811115614c1557fe5b60ff16815260200180602001828103825283818151815260200191508051906020019080838360005b83811015614c59578082015181840152602081019050614c3e565b50505050905090810190601f168015614c865780820380516001836020036101000a031916815260200191505b50945050505050602060405180830381600087803b158015614ca757600080fd5b505af1158015614cbb573d6000803e3d6000fd5b505050506040513d6020811015614cd157600080fd5b8101908080519060200190929190505050905073deaddeaddeaddeaddeaddeaddeaddeaddeaddead73ffffffffffffffffffffffffffffffffffffffff1663a9059cbb84836040518363ffffffff167c0100000000000000000000000000000000000000000000000000000000028152600401808373ffffffffffffffffffffffffffffffffffffffff1673ffffffffffffffffffffffffffffffffffffffff16815260200182815260200192505050602060405180830381600087803b158015614d9b57600080fd5b505af1158015614daf573d6000803e3d6000fd5b505050506040513d6020811015614dc557600080fd5b81019080805190602001909291905050501515614de157600080fd5b73feedfeedfeedfeedfeedfeedfeedfeedfeedfeed73ffffffffffffffffffffffffffffffffffffffff1663570e39236001548886896002811115614e2257fe5b866040518663ffffffff167c0100000000000000000000000000000000000000000000000000000000028152600401808681526020018581526020018473ffffffffffffffffffffffffffffffffffffffff1673ffffffffffffffffffffffffffffffffffffffff16815260200183815260200182815260200195505050505050600060405180830381600087803b158015614ebd57600080fd5b505af1158015614ed1573d6000803e3d6000fd5b50505050505050505050565b6000614ee7615117565b8015614fbd575060006004805490501480614fbc5750600480811115614f0957fe5b614f116149ab565b73ffffffffffffffffffffffffffffffffffffffff1663200d2ed26040518163ffffffff167c0100000000000000000000000000000000000000000000000000000000028152600401602060405180830381600087803b158015614f7457600080fd5b505af1158015614f88573d6000803e3d6000fd5b505050506040513d6020811015614f9e57600080fd5b81019080805190602001909291905050506004811115614fba57fe5b145b5b905090565b6000600482815481101515614fd357fe5b9060005260206000200160009054906101000a900473ffffffffffffffffffffffffffffffffffffffff169050919050565b600080600084141561501a5760009150615110565b828402905082848281151561502b57fe5b04146040805190810160405280601181526020017f4d4154485f4d554c5f4f564552464c4f5700000000000000000000000000000081525090151561510b576040517f08c379a00000000000000000000000000000000000000000000000000000000081526004018080602001828103825283818151815260200191508051906020019080838360005b838110156150d05780820151818401526020810190506150b5565b50505050905090810190601f1680156150fd5780820380516001836020036101000a031916815260200191505b509250505060405180910390fd5b508091505b5092915050565b6000600354421115905090565b6040516101a0806151ea83390190565b828054600181600116156101000203166002900490600052602060002090601f016020900481019282601f1061517557805160ff19168380011785556151a3565b828001600101855582156151a3579182015b828111156151a2578251825591602001919060010190615187565b5b5090506151b091906151c4565b5090565b6040516101a08061538a83390190565b6151e691905b808211156151e25760008160009055506001016151ca565b5090565b905600608060405234801561001057600080fd5b50610180806100206000396000f300608060405260043610610041576000357c0100000000000000000000000000000000000000000000000000000000900463ffffffff168063d4b8399214610094575b61009273feebfeebfeebfeebfeebfeebfeebfeebfeebfeeb6000368080601f0160208091040260200160405190810160405280939291908181526020018383808284378201915050505050506100eb565b005b3480156100a057600080fd5b506100a9610129565b604051808273ffffffffffffffffffffffffffffffffffffffff1673ffffffffffffffffffffffffffffffffffffffff16815260200191505060405180910390f35b6100f482610141565b15156100ff57600080fd5b600080825160208401856127105a03f43d604051816000823e8260008114610125578282f35b8282fd5b73feebfeebfeebfeebfeebfeebfeebfeebfeebfeeb81565b600080823b9050600081119150509190505600a165627a7a72305820798f0fef82b2e3556befb5c6b15ee14a05fc9e6de19e45f8d4dbad1b6a4d7a7f0029608060405234801561001057600080fd5b50610180806100206000396000f300608060405260043610610041576000357c0100000000000000000000000000000000000000000000000000000000900463ffffffff168063d4b8399214610094575b61009273beefbeefbeefbeefbeefbeefbeefbeefbeefbeef6000368080601f0160208091040260200160405190810160405280939291908181526020018383808284378201915050505050506100eb565b005b3480156100a057600080fd5b506100a9610129565b604051808273ffffffffffffffffffffffffffffffffffffffff1673ffffffffffffffffffffffffffffffffffffffff16815260200191505060405180910390f35b6100f482610141565b15156100ff57600080fd5b600080825160208401856127105a03f43d604051816000823e8260008114610125578282f35b8282fd5b73beefbeefbeefbeefbeefbeefbeefbeefbeefbeef81565b600080823b9050600081119150509190505600a165627a7a72305820144734fcc804b3f034561533e7ca0d5369ac068ed4a8b28637ca6be1140288870029a165627a7a7230582046aa3f72a1aeb0bcb7641b267892dd4ced732a731ed15028fe8321ab7ec5f48a0029",
  "source": "pragma solidity ^0.4.24;\n\nimport \"./RegistryEntry.sol\";\nimport \"./StakeBank.sol\";\nimport \"./proxy/Forwarder2.sol\";\nimport \"./DistrictChallenge.sol\";\nimport \"./KitDistrict.sol\";\n\n\n/**\n * @title Contract created for each submitted District into the DistrictFactory TCR.\n *\n * @dev It extends base RegistryEntry with additional state for storing IPFS hashes for a district data.\n * Full copy of this contract is NOT deployed with each submission in order to save gas. Only forwarder contracts\n * pointing into single intance of it.\n */\n\ncontract District is RegistryEntry {\n\n  StakeBank public stakeBank;\n  KitDistrict public constant kitDistrict = KitDistrict(0xaAaAaAaaAaAaAaaAaAAAAAAAAaaaAaAaAaaAaaAa);\n\n  /**\n   * @dev IPFS hash of file that contains all data from form fields\n   */\n  bytes public metaHash;\n\n  /**\n   * @dev Constructor for this contract.\n   * Native constructor is not used, because users create only forwarders pointing into single instance of this contract,\n   * therefore constructor must be called explicitly.\n\n   * @param _creator Creator of a district\n   * @param _version Version of District contract\n   * @param _metaHash IPFS hash of data related to a district\n   */\n  function construct(\n    address _creator,\n    uint _version,\n    bytes _metaHash,\n    uint32 _dntWeight,\n    string _aragonId\n  )\n    public\n  {\n    super.construct(_creator, _version);\n    stakeBank = StakeBank(new Forwarder2());\n    stakeBank.construct(_dntWeight);\n    challengePeriodEnd = ~uint(0);\n    metaHash = _metaHash;\n    Kernel aragonDao = kitDistrict.createDAO(_aragonId, MiniMeToken(stakeBank), _creator);\n    registry.fireDistrictConstructedEvent(version, creator, metaHash, deposit, challengePeriodEnd, _dntWeight, address(aragonDao), _aragonId);\n  }\n\n  function setMetaHash(bytes _metaHash)\n    public\n  {\n    require(msg.sender == creator);\n    require(isChallengeable());\n    metaHash = _metaHash;\n    registry.fireDistrictMetaHashChangedEvent(version, _metaHash);\n  }\n\n\n  function createChallenge(\n    address _challenger,\n    bytes _challengeMetaHash\n  )\n  public\n  notEmergency\n  {\n    super.createChallenge(_challenger, _challengeMetaHash);\n    DistrictChallenge(currentChallenge()).setStakeBank(stakeBank);\n  }\n\n\n  /// @param _owner The address that's balance is being requested\n  /// @return The balance of `_owner` at the current block\n  function balanceOf(address _owner)\n    public constant returns (uint256 balance)\n  {\n    return stakeBank.balanceOf(_owner);\n  }\n\n  /// @notice Stakes a certain amount of tokens for another user.\n  /// @param _user Address of the user to stake for.\n  /// @param _amount Amount of tokens to stake.\n  function stakeFor(address _user, uint _amount)\n    public\n  {\n    require(registryToken.transferFrom(_user, address(this), _amount));\n    stakeBank.stakeFor(_user, _amount);\n    maybeAdjustStakeDelta(_user, int(_amount));\n    registry.fireDistrictStakeChangedEvent(\n      version,\n      stakeBank.totalStaked(),\n      stakeBank.totalSupply(),\n      _user,\n      stakeBank.totalStakedFor(_user),\n      stakeBank.balanceOf(_user),\n      _amount,\n      false\n    );\n  }\n\n  /// @notice Unstakes a certain amount of tokens.\n  /// @param _amount Amount of tokens to unstake.\n  function unstake(uint _amount)\n    public\n  {\n    stakeBank.unstake(msg.sender, _amount);\n    maybeAdjustStakeDelta(msg.sender, int(_amount) * -1);\n    registry.fireDistrictStakeChangedEvent(\n      version,\n      stakeBank.totalStaked(),\n      stakeBank.totalSupply(),\n      msg.sender,\n      stakeBank.totalStakedFor(msg.sender),\n      stakeBank.balanceOf(msg.sender),\n      _amount,\n      true\n    );\n  }\n\n  function maybeAdjustStakeDelta(\n    address _voter,\n    int _amount\n  )\n    private\n  {\n    if (challenges.length != 0 && currentChallenge().isVoteCommitPeriodActive()) {\n      DistrictChallenge(currentChallenge()).adjustStakeDelta(_voter, _amount);\n    }\n  }\n\n  function isChallengeable()\n    internal view returns (bool) {\n    return isChallengePeriodActive() &&\n      (challenges.length == 0 ||\n       currentChallenge().status() == Challenge.Status.Whitelisted);\n  }\n\n}\n",
  "sourcePath": "/Users/matus/www/district0x/district-registry/contracts/District.sol",
  "compiler": {
    "name": "solc",
    "version": "0.4.24+commit.e67f0147.Emscripten.clang"
  },
  "schemaVersion": "3.0.10",
  "updatedAt": "2019-07-02T16:11:40.536Z",
  "devdoc": {
    "methods": {
      "balanceOf(address)": {
        "params": {
          "_owner": "The address that's balance is being requested"
        },
        "return": "The balance of `_owner` at the current block"
      },
      "construct(address,uint256)": {
        "details": "Constructor for this contract. Native constructor is not used, because users create only forwarders into single instance of this contract, therefore constructor must be called explicitly. Must NOT be callable multiple times Transfers TCR entry token deposit from sender into this contract",
        "params": {
          "_creator": "Creator of a district",
          "_version": "Version of District contract"
        }
      },
      "construct(address,uint256,bytes,uint32,string)": {
        "details": "Constructor for this contract. Native constructor is not used, because users create only forwarders pointing into single instance of this contract, therefore constructor must be called explicitly.",
        "params": {
          "_creator": "Creator of a district",
          "_metaHash": "IPFS hash of data related to a district",
          "_version": "Version of District contract"
        }
      },
      "receiveApproval(address,uint256,address,bytes)": {
        "details": "Function called by MiniMeToken when somebody calls approveAndCall on it. This way token can be transferred to a recipient in a single transaction together with execution of additional logic",
        "params": {
          "_amount": "Amount of approved tokens to transfer",
          "_data": "Bytecode of a function and passed parameters, that should be called after token approval",
          "_from": "Sender of transaction approval",
          "_token": "Token that received the approval"
        }
      },
      "stakeFor(address,uint256)": {
        "params": {
          "_amount": "Amount of tokens to stake.",
          "_user": "Address of the user to stake for."
        }
      },
      "unstake(uint256)": {
        "params": {
          "_amount": "Amount of tokens to unstake."
        }
      }
    },
    "title": "Contract created for each submitted District into the DistrictFactory TCR."
  },
  "userdoc": {
    "methods": {
      "stakeFor(address,uint256)": {
        "notice": "Stakes a certain amount of tokens for another user."
      },
      "unstake(uint256)": {
        "notice": "Unstakes a certain amount of tokens."
      }
    }
  }
}