{
  "contractName": "DistrictChallenge_copy",
  "abi": [
    {
      "constant": true,
      "inputs": [],
      "name": "wasChallenged",
      "outputs": [
        {
          "name": "",
          "type": "bool"
        }
      ],
      "payable": false,
      "stateMutability": "view",
      "type": "function"
    },
    {
      "constant": true,
      "inputs": [
        {
          "name": "_voter",
          "type": "address"
        }
      ],
      "name": "hasVoted",
      "outputs": [
        {
          "name": "",
          "type": "bool"
        }
      ],
      "payable": false,
      "stateMutability": "view",
      "type": "function"
    },
    {
      "constant": true,
      "inputs": [
        {
          "name": "_voter",
          "type": "address"
        }
      ],
      "name": "voteOptionExcludeVoterAmount",
      "outputs": [
        {
          "name": "",
          "type": "uint256"
        }
      ],
      "payable": false,
      "stateMutability": "view",
      "type": "function"
    },
    {
      "constant": true,
      "inputs": [
        {
          "name": "_voter",
          "type": "address"
        }
      ],
      "name": "voteReward",
      "outputs": [
        {
          "name": "",
          "type": "uint256"
        }
      ],
      "payable": false,
      "stateMutability": "view",
      "type": "function"
    },
    {
      "constant": true,
      "inputs": [],
      "name": "creationBlock",
      "outputs": [
        {
          "name": "",
          "type": "uint256"
        }
      ],
      "payable": false,
      "stateMutability": "view",
      "type": "function"
    },
    {
      "constant": true,
      "inputs": [],
      "name": "votesExclude",
      "outputs": [
        {
          "name": "",
          "type": "uint256"
        }
      ],
      "payable": false,
      "stateMutability": "view",
      "type": "function"
    },
    {
      "constant": true,
      "inputs": [],
      "name": "commitPeriodEnd",
      "outputs": [
        {
          "name": "",
          "type": "uint256"
        }
      ],
      "payable": false,
      "stateMutability": "view",
      "type": "function"
    },
    {
      "constant": false,
      "inputs": [
        {
          "name": "_voter",
          "type": "address"
        }
      ],
      "name": "safeReclaimVotes",
      "outputs": [
        {
          "name": "",
          "type": "uint256"
        }
      ],
      "payable": false,
      "stateMutability": "nonpayable",
      "type": "function"
    },
    {
      "constant": true,
      "inputs": [],
      "name": "status",
      "outputs": [
        {
          "name": "",
          "type": "uint8"
        }
      ],
      "payable": false,
      "stateMutability": "view",
      "type": "function"
    },
    {
      "constant": true,
      "inputs": [],
      "name": "isWinningOptionInclude",
      "outputs": [
        {
          "name": "",
          "type": "bool"
        }
      ],
      "payable": false,
      "stateMutability": "view",
      "type": "function"
    },
    {
      "constant": true,
      "inputs": [
        {
          "name": "",
          "type": "address"
        }
      ],
      "name": "stakeDeltasFor",
      "outputs": [
        {
          "name": "",
          "type": "int256"
        }
      ],
      "payable": false,
      "stateMutability": "view",
      "type": "function"
    },
    {
      "constant": false,
      "inputs": [
        {
          "name": "_voter",
          "type": "address"
        },
        {
          "name": "_amount",
          "type": "uint256"
        },
        {
          "name": "_secretHash",
          "type": "bytes32"
        }
      ],
      "name": "commitVote",
      "outputs": [],
      "payable": false,
      "stateMutability": "nonpayable",
      "type": "function"
    },
    {
      "constant": true,
      "inputs": [
        {
          "name": "_voter",
          "type": "address"
        }
      ],
      "name": "areVotesReclaimed",
      "outputs": [
        {
          "name": "",
          "type": "bool"
        }
      ],
      "payable": false,
      "stateMutability": "view",
      "type": "function"
    },
    {
      "constant": true,
      "inputs": [],
      "name": "registryEntry",
      "outputs": [
        {
          "name": "",
          "type": "address"
        }
      ],
      "payable": false,
      "stateMutability": "view",
      "type": "function"
    },
    {
      "constant": true,
      "inputs": [],
      "name": "isChallengePeriodActive",
      "outputs": [
        {
          "name": "",
          "type": "bool"
        }
      ],
      "payable": false,
      "stateMutability": "view",
      "type": "function"
    },
    {
      "constant": true,
      "inputs": [],
      "name": "isChallengeRewardClaimed",
      "outputs": [
        {
          "name": "",
          "type": "bool"
        }
      ],
      "payable": false,
      "stateMutability": "view",
      "type": "function"
    },
    {
      "constant": true,
      "inputs": [],
      "name": "challengerRewardClaimedOn",
      "outputs": [
        {
          "name": "",
          "type": "uint256"
        }
      ],
      "payable": false,
      "stateMutability": "view",
      "type": "function"
    },
    {
      "constant": true,
      "inputs": [],
      "name": "isVoteRevealPeriodActive",
      "outputs": [
        {
          "name": "",
          "type": "bool"
        }
      ],
      "payable": false,
      "stateMutability": "view",
      "type": "function"
    },
    {
      "constant": true,
      "inputs": [],
      "name": "voteQuorum",
      "outputs": [
        {
          "name": "",
          "type": "uint256"
        }
      ],
      "payable": false,
      "stateMutability": "view",
      "type": "function"
    },
    {
      "constant": true,
      "inputs": [],
      "name": "challenger",
      "outputs": [
        {
          "name": "",
          "type": "address"
        }
      ],
      "payable": false,
      "stateMutability": "view",
      "type": "function"
    },
    {
      "constant": true,
      "inputs": [],
      "name": "winningVoteOption",
      "outputs": [
        {
          "name": "",
          "type": "uint8"
        }
      ],
      "payable": false,
      "stateMutability": "view",
      "type": "function"
    },
    {
      "constant": true,
      "inputs": [],
      "name": "isWhitelisted",
      "outputs": [
        {
          "name": "",
          "type": "bool"
        }
      ],
      "payable": false,
      "stateMutability": "view",
      "type": "function"
    },
    {
      "constant": true,
      "inputs": [],
      "name": "rewardPool",
      "outputs": [
        {
          "name": "",
          "type": "uint256"
        }
      ],
      "payable": false,
      "stateMutability": "view",
      "type": "function"
    },
    {
      "constant": true,
      "inputs": [],
      "name": "challengePeriodEnd",
      "outputs": [
        {
          "name": "",
          "type": "uint256"
        }
      ],
      "payable": false,
      "stateMutability": "view",
      "type": "function"
    },
    {
      "constant": true,
      "inputs": [
        {
          "name": "_voter",
          "type": "address"
        }
      ],
      "name": "isVoteRewardClaimed",
      "outputs": [
        {
          "name": "",
          "type": "bool"
        }
      ],
      "payable": false,
      "stateMutability": "view",
      "type": "function"
    },
    {
      "constant": false,
      "inputs": [],
      "name": "renounceOwnership",
      "outputs": [],
      "payable": false,
      "stateMutability": "nonpayable",
      "type": "function"
    },
    {
      "constant": true,
      "inputs": [],
      "name": "registryToken",
      "outputs": [
        {
          "name": "",
          "type": "address"
        }
      ],
      "payable": false,
      "stateMutability": "view",
      "type": "function"
    },
    {
      "constant": false,
      "inputs": [
        {
          "name": "_voter",
          "type": "address"
        },
        {
          "name": "_voteOption",
          "type": "uint8"
        },
        {
          "name": "_salt",
          "type": "string"
        }
      ],
      "name": "revealVote",
      "outputs": [
        {
          "name": "",
          "type": "uint256"
        }
      ],
      "payable": false,
      "stateMutability": "nonpayable",
      "type": "function"
    },
    {
      "constant": true,
      "inputs": [],
      "name": "challengerReward",
      "outputs": [
        {
          "name": "",
          "type": "uint256"
        }
      ],
      "payable": false,
      "stateMutability": "view",
      "type": "function"
    },
    {
      "constant": true,
      "inputs": [],
      "name": "metaHash",
      "outputs": [
        {
          "name": "",
          "type": "bytes"
        }
      ],
      "payable": false,
      "stateMutability": "view",
      "type": "function"
    },
    {
      "constant": true,
      "inputs": [],
      "name": "revealPeriodEnd",
      "outputs": [
        {
          "name": "",
          "type": "uint256"
        }
      ],
      "payable": false,
      "stateMutability": "view",
      "type": "function"
    },
    {
      "constant": false,
      "inputs": [
        {
          "name": "_user",
          "type": "address"
        }
      ],
      "name": "safeClaimCreatorReward",
      "outputs": [
        {
          "name": "",
          "type": "uint256"
        }
      ],
      "payable": false,
      "stateMutability": "nonpayable",
      "type": "function"
    },
    {
      "constant": true,
      "inputs": [],
      "name": "owner",
      "outputs": [
        {
          "name": "",
          "type": "address"
        }
      ],
      "payable": false,
      "stateMutability": "view",
      "type": "function"
    },
    {
      "constant": true,
      "inputs": [],
      "name": "isVoteRevealPeriodOver",
      "outputs": [
        {
          "name": "",
          "type": "bool"
        }
      ],
      "payable": false,
      "stateMutability": "view",
      "type": "function"
    },
    {
      "constant": false,
      "inputs": [
        {
          "name": "_registryEntry",
          "type": "address"
        },
        {
          "name": "_challenger",
          "type": "address"
        },
        {
          "name": "_metaHash",
          "type": "bytes"
        },
        {
          "name": "_challengePeriodEnd",
          "type": "uint256"
        },
        {
          "name": "_commitPeriodEnd",
          "type": "uint256"
        },
        {
          "name": "_revealPeriodEnd",
          "type": "uint256"
        },
        {
          "name": "_rewardPool",
          "type": "uint256"
        },
        {
          "name": "_voteQuorum",
          "type": "uint256"
        }
      ],
      "name": "construct",
      "outputs": [],
      "payable": false,
      "stateMutability": "nonpayable",
      "type": "function"
    },
    {
      "constant": true,
      "inputs": [],
      "name": "isBlacklisted",
      "outputs": [
        {
          "name": "",
          "type": "bool"
        }
      ],
      "payable": false,
      "stateMutability": "view",
      "type": "function"
    },
    {
      "constant": true,
      "inputs": [],
      "name": "votesInclude",
      "outputs": [
        {
          "name": "",
          "type": "uint256"
        }
      ],
      "payable": false,
      "stateMutability": "view",
      "type": "function"
    },
    {
      "constant": false,
      "inputs": [
        {
          "name": "_user",
          "type": "address"
        }
      ],
      "name": "safeClaimChallengerReward",
      "outputs": [
        {
          "name": "",
          "type": "uint256"
        }
      ],
      "payable": false,
      "stateMutability": "nonpayable",
      "type": "function"
    },
    {
      "constant": true,
      "inputs": [],
      "name": "winningVoteOptionAmount",
      "outputs": [
        {
          "name": "",
          "type": "uint256"
        }
      ],
      "payable": false,
      "stateMutability": "view",
      "type": "function"
    },
    {
      "constant": true,
      "inputs": [],
      "name": "voteOptionExcludeAmount",
      "outputs": [
        {
          "name": "",
          "type": "uint256"
        }
      ],
      "payable": false,
      "stateMutability": "view",
      "type": "function"
    },
    {
      "constant": true,
      "inputs": [
        {
          "name": "_voter",
          "type": "address"
        }
      ],
      "name": "isVoteRevealed",
      "outputs": [
        {
          "name": "",
          "type": "bool"
        }
      ],
      "payable": false,
      "stateMutability": "view",
      "type": "function"
    },
    {
      "constant": true,
      "inputs": [],
      "name": "creatorRewardClaimedOn",
      "outputs": [
        {
          "name": "",
          "type": "uint256"
        }
      ],
      "payable": false,
      "stateMutability": "view",
      "type": "function"
    },
    {
      "constant": true,
      "inputs": [],
      "name": "isCreatorRewardClaimed",
      "outputs": [
        {
          "name": "",
          "type": "bool"
        }
      ],
      "payable": false,
      "stateMutability": "view",
      "type": "function"
    },
    {
      "constant": true,
      "inputs": [],
      "name": "stakeBank",
      "outputs": [
        {
          "name": "",
          "type": "address"
        }
      ],
      "payable": false,
      "stateMutability": "view",
      "type": "function"
    },
    {
      "constant": true,
      "inputs": [
        {
          "name": "",
          "type": "address"
        }
      ],
      "name": "votes",
      "outputs": [
        {
          "name": "secretHash",
          "type": "bytes32"
        },
        {
          "name": "option",
          "type": "uint8"
        },
        {
          "name": "amount",
          "type": "uint256"
        },
        {
          "name": "revealedOn",
          "type": "uint256"
        },
        {
          "name": "claimedRewardOn",
          "type": "uint256"
        },
        {
          "name": "reclaimedVotesOn",
          "type": "uint256"
        }
      ],
      "payable": false,
      "stateMutability": "view",
      "type": "function"
    },
    {
      "constant": true,
      "inputs": [],
      "name": "creatorReward",
      "outputs": [
        {
          "name": "",
          "type": "uint256"
        }
      ],
      "payable": false,
      "stateMutability": "view",
      "type": "function"
    },
    {
      "constant": true,
      "inputs": [],
      "name": "isVoteCommitPeriodActive",
      "outputs": [
        {
          "name": "",
          "type": "bool"
        }
      ],
      "payable": false,
      "stateMutability": "view",
      "type": "function"
    },
    {
      "constant": false,
      "inputs": [
        {
          "name": "_newOwner",
          "type": "address"
        }
      ],
      "name": "transferOwnership",
      "outputs": [],
      "payable": false,
      "stateMutability": "nonpayable",
      "type": "function"
    },
    {
      "constant": false,
      "inputs": [
        {
          "name": "_voter",
          "type": "address"
        }
      ],
      "name": "safeClaimVoteReward",
      "outputs": [
        {
          "name": "",
          "type": "uint256"
        }
      ],
      "payable": false,
      "stateMutability": "nonpayable",
      "type": "function"
    },
    {
      "constant": true,
      "inputs": [],
      "name": "stakeDelta",
      "outputs": [
        {
          "name": "",
          "type": "int256"
        }
      ],
      "payable": false,
      "stateMutability": "view",
      "type": "function"
    },
    {
      "anonymous": false,
      "inputs": [
        {
          "indexed": true,
          "name": "previousOwner",
          "type": "address"
        }
      ],
      "name": "OwnershipRenounced",
      "type": "event"
    },
    {
      "anonymous": false,
      "inputs": [
        {
          "indexed": true,
          "name": "previousOwner",
          "type": "address"
        },
        {
          "indexed": true,
          "name": "newOwner",
          "type": "address"
        }
      ],
      "name": "OwnershipTransferred",
      "type": "event"
    },
    {
      "constant": false,
      "inputs": [
        {
          "name": "_stakeBank",
          "type": "address"
        }
      ],
      "name": "setStakeBank",
      "outputs": [],
      "payable": false,
      "stateMutability": "nonpayable",
      "type": "function"
    },
    {
      "constant": true,
      "inputs": [],
      "name": "voteOptionIncludeAmount",
      "outputs": [
        {
          "name": "",
          "type": "uint256"
        }
      ],
      "payable": false,
      "stateMutability": "view",
      "type": "function"
    },
    {
      "constant": true,
      "inputs": [
        {
          "name": "_voter",
          "type": "address"
        }
      ],
      "name": "votedWinningVoteOption",
      "outputs": [
        {
          "name": "",
          "type": "bool"
        }
      ],
      "payable": false,
      "stateMutability": "view",
      "type": "function"
    },
    {
      "constant": true,
      "inputs": [
        {
          "name": "_voter",
          "type": "address"
        }
      ],
      "name": "voteOptionIncludeVoterAmount",
      "outputs": [
        {
          "name": "",
          "type": "uint256"
        }
      ],
      "payable": false,
      "stateMutability": "view",
      "type": "function"
    },
    {
      "constant": true,
      "inputs": [
        {
          "name": "_address",
          "type": "address"
        }
      ],
      "name": "totalStakedForAtChallengeCreation",
      "outputs": [
        {
          "name": "",
          "type": "uint256"
        }
      ],
      "payable": false,
      "stateMutability": "view",
      "type": "function"
    },
    {
      "constant": true,
      "inputs": [],
      "name": "totalStakedAtChallengeCreation",
      "outputs": [
        {
          "name": "",
          "type": "uint256"
        }
      ],
      "payable": false,
      "stateMutability": "view",
      "type": "function"
    },
    {
      "constant": false,
      "inputs": [
        {
          "name": "_voter",
          "type": "address"
        },
        {
          "name": "_amount",
          "type": "int256"
        }
      ],
      "name": "adjustStakeDelta",
      "outputs": [],
      "payable": false,
      "stateMutability": "nonpayable",
      "type": "function"
    }
  ],
  "bytecode": "0x6080604052336000806101000a81548173ffffffffffffffffffffffffffffffffffffffff021916908373ffffffffffffffffffffffffffffffffffffffff16021790555061326b806100536000396000f3006080604052600436106102a9576000357c0100000000000000000000000000000000000000000000000000000000900463ffffffff16806302fd8d4d146102ae57806309eef43e146102dd578063122109bb146103385780631412f49e1461038f578063159c7012146103ba578063176345141461041157806318cac24c1461043c5780631a0a3aaa146104675780631d188416146104925780631dd63713146104e9578063200d2ed21461051457806320aa54f41461054d578063271946161461057c57806327f429d8146105d35780632836a1ba1461062e5780632ba8d6eb1461068957806331f0ef75146106e0578063384e52061461070f5780633c7e3c7a1461073e57806348b4cd4b146107695780634c73ed14146107b65780634d421401146107e55780634d9c392f1461081057806351cbffd31461086b578063534db0e2146108c257806360f8eeeb14610919578063611b40951461095257806366666aa914610981578063671f08e3146109ac5780636afdc33a146109d7578063715018a614610a325780637792957d14610a49578063803f5b7f14610aa0578063810ff7bd14610b1c578063827c62fb14610b4757806387eb297314610bd757806387f4ab3114610c025780638da5cb5b14610c595780638db79b6514610cb05780639071150514610cdf57806398bb9a6b14610d36578063a3e69cd314610e11578063a94d881114610e54578063af5f47bf14610e83578063b39c760014610eae578063b66bd25114610f05578063b72b4eca14610f30578063c45da4fc14610f5b578063c7153b9114610fb6578063c7ac52ec14610fe1578063d6edcd8114611010578063d8bff5a514611067578063d8fd1ed9146110f7578063e8c934fe14611122578063f2fde38b14611151578063f688426114611194578063f93a6c39146111eb575b600080fd5b3480156102ba57600080fd5b506102c3611216565b604051808215151515815260200191505060405180910390f35b3480156102e957600080fd5b5061031e600480360381019080803573ffffffffffffffffffffffffffffffffffffffff169060200190929190505050611259565b604051808215151515815260200191505060405180910390f35b34801561034457600080fd5b50610379600480360381019080803573ffffffffffffffffffffffffffffffffffffffff1690602001909291905050506112a8565b6040518082815260200191505060405180910390f35b34801561039b57600080fd5b506103a461136b565b6040518082815260200191505060405180910390f35b3480156103c657600080fd5b506103fb600480360381019080803573ffffffffffffffffffffffffffffffffffffffff169060200190929190505050611440565b6040518082815260200191505060405180910390f35b34801561041d57600080fd5b506104266114d3565b6040518082815260200191505060405180910390f35b34801561044857600080fd5b506104516114d9565b6040518082815260200191505060405180910390f35b34801561047357600080fd5b5061047c6114df565b6040518082815260200191505060405180910390f35b34801561049e57600080fd5b506104d3600480360381019080803573ffffffffffffffffffffffffffffffffffffffff1690602001909291905050506114e5565b6040518082815260200191505060405180910390f35b3480156104f557600080fd5b506104fe61161f565b6040518082815260200191505060405180910390f35b34801561052057600080fd5b50610529611636565b6040518082600481111561053957fe5b60ff16815260200191505060405180910390f35b34801561055957600080fd5b506105626116bf565b604051808215151515815260200191505060405180910390f35b34801561058857600080fd5b506105bd600480360381019080803573ffffffffffffffffffffffffffffffffffffffff1690602001909291905050506116e7565b6040518082815260200191505060405180910390f35b3480156105df57600080fd5b5061062c600480360381019080803573ffffffffffffffffffffffffffffffffffffffff1690602001909291908035906020019092919080356000191690602001909291905050506116ff565b005b34801561063a57600080fd5b5061066f600480360381019080803573ffffffffffffffffffffffffffffffffffffffff169060200190929190505050611828565b604051808215151515815260200191505060405180910390f35b34801561069557600080fd5b5061069e611876565b604051808273ffffffffffffffffffffffffffffffffffffffff1673ffffffffffffffffffffffffffffffffffffffff16815260200191505060405180910390f35b3480156106ec57600080fd5b506106f561189c565b604051808215151515815260200191505060405180910390f35b34801561071b57600080fd5b506107246118a9565b604051808215151515815260200191505060405180910390f35b34801561074a57600080fd5b506107536118b5565b6040518082815260200191505060405180910390f35b34801561077557600080fd5b506107b4600480360381019080803573ffffffffffffffffffffffffffffffffffffffff169060200190929190803590602001909291905050506118bb565b005b3480156107c257600080fd5b506107cb611977565b604051808215151515815260200191505060405180910390f35b3480156107f157600080fd5b506107fa611995565b6040518082815260200191505060405180910390f35b34801561081c57600080fd5b50610851600480360381019080803573ffffffffffffffffffffffffffffffffffffffff16906020019092919050505061199b565b604051808215151515815260200191505060405180910390f35b34801561087757600080fd5b506108ac600480360381019080803573ffffffffffffffffffffffffffffffffffffffff1690602001909291905050506119e9565b6040518082815260200191505060405180910390f35b3480156108ce57600080fd5b506108d7611a46565b604051808273ffffffffffffffffffffffffffffffffffffffff1673ffffffffffffffffffffffffffffffffffffffff16815260200191505060405180910390f35b34801561092557600080fd5b5061092e611a6c565b6040518082600281111561093e57fe5b60ff16815260200191505060405180910390f35b34801561095e57600080fd5b50610967611ae5565b604051808215151515815260200191505060405180910390f35b34801561098d57600080fd5b50610996611b0c565b6040518082815260200191505060405180910390f35b3480156109b857600080fd5b506109c1611b12565b6040518082815260200191505060405180910390f35b3480156109e357600080fd5b50610a18600480360381019080803573ffffffffffffffffffffffffffffffffffffffff169060200190929190505050611b18565b604051808215151515815260200191505060405180910390f35b348015610a3e57600080fd5b50610a47611b66565b005b348015610a5557600080fd5b50610a5e611c68565b604051808273ffffffffffffffffffffffffffffffffffffffff1673ffffffffffffffffffffffffffffffffffffffff16815260200191505060405180910390f35b348015610aac57600080fd5b50610b06600480360381019080803573ffffffffffffffffffffffffffffffffffffffff169060200190929190803560ff169060200190929190803590602001908201803590602001919091929391929390505050611c80565b6040518082815260200191505060405180910390f35b348015610b2857600080fd5b50610b31611f77565b6040518082815260200191505060405180910390f35b348015610b5357600080fd5b50610b5c61206a565b6040518080602001828103825283818151815260200191508051906020019080838360005b83811015610b9c578082015181840152602081019050610b81565b50505050905090810190601f168015610bc95780820380516001836020036101000a031916815260200191505b509250505060405180910390f35b348015610be357600080fd5b50610bec612108565b6040518082815260200191505060405180910390f35b348015610c0e57600080fd5b50610c43600480360381019080803573ffffffffffffffffffffffffffffffffffffffff16906020019092919050505061210e565b6040518082815260200191505060405180910390f35b348015610c6557600080fd5b50610c6e6122b0565b604051808273ffffffffffffffffffffffffffffffffffffffff1673ffffffffffffffffffffffffffffffffffffffff16815260200191505060405180910390f35b348015610cbc57600080fd5b50610cc56122d5565b604051808215151515815260200191505060405180910390f35b348015610ceb57600080fd5b50610d20600480360381019080803573ffffffffffffffffffffffffffffffffffffffff1690602001909291905050506122ee565b6040518082815260200191505060405180910390f35b348015610d4257600080fd5b50610e0f600480360381019080803573ffffffffffffffffffffffffffffffffffffffff169060200190929190803573ffffffffffffffffffffffffffffffffffffffff169060200190929190803590602001908201803590602001908080601f016020809104026020016040519081016040528093929190818152602001838380828437820191505050505050919291929080359060200190929190803590602001909291908035906020019092919080359060200190929190803590602001909291905050506123f9565b005b348015610e1d57600080fd5b50610e52600480360381019080803573ffffffffffffffffffffffffffffffffffffffff169060200190929190505050612562565b005b348015610e6057600080fd5b50610e6961269a565b604051808215151515815260200191505060405180910390f35b348015610e8f57600080fd5b50610e986126c2565b6040518082815260200191505060405180910390f35b348015610eba57600080fd5b50610eef600480360381019080803573ffffffffffffffffffffffffffffffffffffffff1690602001909291905050506126c8565b6040518082815260200191505060405180910390f35b348015610f1157600080fd5b50610f1a6127cd565b6040518082815260200191505060405180910390f35b348015610f3c57600080fd5b50610f4561283e565b6040518082815260200191505060405180910390f35b348015610f6757600080fd5b50610f9c600480360381019080803573ffffffffffffffffffffffffffffffffffffffff169060200190929190505050612848565b604051808215151515815260200191505060405180910390f35b348015610fc257600080fd5b50610fcb612896565b6040518082815260200191505060405180910390f35b348015610fed57600080fd5b50610ff661289c565b604051808215151515815260200191505060405180910390f35b34801561101c57600080fd5b506110256128a8565b604051808273ffffffffffffffffffffffffffffffffffffffff1673ffffffffffffffffffffffffffffffffffffffff16815260200191505060405180910390f35b34801561107357600080fd5b506110a8600480360381019080803573ffffffffffffffffffffffffffffffffffffffff1690602001909291905050506128ce565b6040518087600019166000191681526020018660028111156110c657fe5b60ff168152602001858152602001848152602001838152602001828152602001965050505050505060405180910390f35b34801561110357600080fd5b5061110c612917565b6040518082815260200191505060405180910390f35b34801561112e57600080fd5b506111376129f8565b604051808215151515815260200191505060405180910390f35b34801561115d57600080fd5b50611192600480360381019080803573ffffffffffffffffffffffffffffffffffffffff169060200190929190505050612a05565b005b3480156111a057600080fd5b506111d5600480360381019080803573ffffffffffffffffffffffffffffffffffffffff169060200190929190505050612a6c565b6040518082815260200191505060405180910390f35b3480156111f757600080fd5b50611200612b64565b6040518082815260200191505060405180910390f35b600080600260009054906101000a900473ffffffffffffffffffffffffffffffffffffffff1673ffffffffffffffffffffffffffffffffffffffff161415905090565b600080600e60008473ffffffffffffffffffffffffffffffffffffffff1673ffffffffffffffffffffffffffffffffffffffff1681526020019081526020016000206002015414159050919050565b600080600090506002808111156112bb57fe5b600e60008573ffffffffffffffffffffffffffffffffffffffff1673ffffffffffffffffffffffffffffffffffffffff16815260200190815260200160002060010160009054906101000a900460ff16600281111561131657fe5b141561136257600e60008473ffffffffffffffffffffffffffffffffffffffff1673ffffffffffffffffffffffffffffffffffffffff1681526020019081526020016000206002015490505b80915050919050565b6000600f60009054906101000a900473ffffffffffffffffffffffffffffffffffffffff1673ffffffffffffffffffffffffffffffffffffffff1663c9c532326006546040518263ffffffff167c010000000000000000000000000000000000000000000000000000000002815260040180828152602001915050602060405180830381600087803b15801561140057600080fd5b505af1158015611414573d6000803e3d6000fd5b505050506040513d602081101561142a57600080fd5b8101908080519060200190929190505050905090565b600080600061144d6127cd565b91506114588461199b565b151561146757600092506114cc565b61146f6116bf565b156114845761147d846119e9565b9050611490565b61148d846112a8565b90505b60008111156114c7576114c0826114b260085484612b6a90919063ffffffff16565b612c7c90919063ffffffff16565b92506114cc565b600092505b5050919050565b60065481565b600b5481565b60055481565b6000806000809054906101000a900473ffffffffffffffffffffffffffffffffffffffff1673ffffffffffffffffffffffffffffffffffffffff163373ffffffffffffffffffffffffffffffffffffffff1614151561154357600080fd5b6000905061154f6122d5565b8015611561575061155f83612848565b155b8015611573575061157183611828565b155b8015611584575061158383611259565b5b156116165742600e60008573ffffffffffffffffffffffffffffffffffffffff1673ffffffffffffffffffffffffffffffffffffffff16815260200190815260200160002060050181905550600e60008473ffffffffffffffffffffffffffffffffffffffff1673ffffffffffffffffffffffffffffffffffffffff1681526020019081526020016000206002015490505b80915050919050565b6000600a5460105461162f61136b565b0101905090565b600061164061189c565b8015611651575061164f611216565b155b1561165f57600090506116bc565b6116676129f8565b1561167557600190506116bc565b61167d611977565b1561168b57600290506116bc565b6116936122d5565b156116b7576116a06116bf565b156116ae57600490506116bc565b600390506116bc565b600490505b90565b6000600160028111156116ce57fe5b6116d6611a6c565b60028111156116e157fe5b14905090565b60116020528060005260406000206000915090505481565b6000809054906101000a900473ffffffffffffffffffffffffffffffffffffffff1673ffffffffffffffffffffffffffffffffffffffff163373ffffffffffffffffffffffffffffffffffffffff1614151561175a57600080fd5b6117626129f8565b151561176d57600080fd5b60008211151561177c57600080fd5b61178583611259565b15151561179157600080fd5b80600e60008573ffffffffffffffffffffffffffffffffffffffff1673ffffffffffffffffffffffffffffffffffffffff168152602001908152602001600020600001816000191690555081600e60008573ffffffffffffffffffffffffffffffffffffffff1673ffffffffffffffffffffffffffffffffffffffff16815260200190815260200160002060020181905550505050565b600080600e60008473ffffffffffffffffffffffffffffffffffffffff1673ffffffffffffffffffffffffffffffffffffffff16815260200190815260200160002060050154119050919050565b600160009054906101000a900473ffffffffffffffffffffffffffffffffffffffff1681565b6000600454421115905090565b600080600c5411905090565b600c5481565b6000809054906101000a900473ffffffffffffffffffffffffffffffffffffffff1673ffffffffffffffffffffffffffffffffffffffff163373ffffffffffffffffffffffffffffffffffffffff1614151561191657600080fd5b8060106000828254019250508190555080601160008473ffffffffffffffffffffffffffffffffffffffff1673ffffffffffffffffffffffffffffffffffffffff168152602001908152602001600020600082825401925050819055505050565b60006119816129f8565b15801561199057506007544211155b905090565b60095481565b60006119a682612d7a565b806119e25750600160028111156119b957fe5b6119c1611a6c565b60028111156119cc57fe5b1480156119e1575060006119df836119e9565b115b5b9050919050565b60006119f482612df2565b601160008473ffffffffffffffffffffffffffffffffffffffff1673ffffffffffffffffffffffffffffffffffffffff16815260200190815260200160002054611a3d846122ee565b01019050919050565b600260009054906101000a900473ffffffffffffffffffffffffffffffffffffffff1681565b600080611a776122d5565b1515611a865760009150611ae1565b611a8e61161f565b9050611ab9611aa8600b5483612eb690919063ffffffff16565b600954612b6a90919063ffffffff16565b611acd606483612b6a90919063ffffffff16565b1115611adc5760019150611ae1565b600291505b5090565b6000600480811115611af357fe5b611afb611636565b6004811115611b0657fe5b14905090565b60085481565b60045481565b600080600e60008473ffffffffffffffffffffffffffffffffffffffff1673ffffffffffffffffffffffffffffffffffffffff16815260200190815260200160002060040154119050919050565b6000809054906101000a900473ffffffffffffffffffffffffffffffffffffffff1673ffffffffffffffffffffffffffffffffffffffff163373ffffffffffffffffffffffffffffffffffffffff16141515611bc157600080fd5b6000809054906101000a900473ffffffffffffffffffffffffffffffffffffffff1673ffffffffffffffffffffffffffffffffffffffff167ff8df31144d9c2f0f6b59d69b8b98abd5459d07f2742c4df920b25aae33c6482060405160405180910390a260008060006101000a81548173ffffffffffffffffffffffffffffffffffffffff021916908373ffffffffffffffffffffffffffffffffffffffff160217905550565b739182b0f5017BC15fB37437eEC1b9cD74B89E3A0081565b6000806000809054906101000a900473ffffffffffffffffffffffffffffffffffffffff1673ffffffffffffffffffffffffffffffffffffffff163373ffffffffffffffffffffffffffffffffffffffff16141515611cde57600080fd5b611ce6611977565b1515611cf157600080fd5b600e60008773ffffffffffffffffffffffffffffffffffffffff1673ffffffffffffffffffffffffffffffffffffffff1681526020019081526020016000206000015460001916856002811115611d4457fe5b858560405160200180848152602001838380828437820191505093505050506040516020818303038152906040526040518082805190602001908083835b602083101515611da75780518252602082019150602081019050602083039250611d82565b6001836020036101000a038019825116818451168082178552505050505050905001915050604051809103902060001916141515611de457600080fd5b611ded86612848565b151515611df957600080fd5b42600e60008873ffffffffffffffffffffffffffffffffffffffff1673ffffffffffffffffffffffffffffffffffffffff16815260200190815260200160002060030181905550600e60008773ffffffffffffffffffffffffffffffffffffffff1673ffffffffffffffffffffffffffffffffffffffff16815260200190815260200160002060020154905084600e60008873ffffffffffffffffffffffffffffffffffffffff1673ffffffffffffffffffffffffffffffffffffffff16815260200190815260200160002060010160006101000a81548160ff02191690836002811115611ee357fe5b021790555060016002811115611ef557fe5b856002811115611f0157fe5b1415611f2757611f1c81600a54612eb690919063ffffffff16565b600a81905550611f6b565b600280811115611f3357fe5b856002811115611f3f57fe5b1415611f6557611f5a81600b54612eb690919063ffffffff16565b600b81905550611f6a565b600080fd5b5b80915050949350505050565b600080600160009054906101000a900473ffffffffffffffffffffffffffffffffffffffff1673ffffffffffffffffffffffffffffffffffffffff1663d0e30db06040518163ffffffff167c0100000000000000000000000000000000000000000000000000000000028152600401602060405180830381600087803b15801561200057600080fd5b505af1158015612014573d6000803e3d6000fd5b505050506040513d602081101561202a57600080fd5b8101908080519060200190929190505050905061206461205560085483612fab90919063ffffffff16565b82612eb690919063ffffffff16565b91505090565b60038054600181600116156101000203166002900480601f0160208091040260200160405190810160405280929190818152602001828054600181600116156101000203166002900480156121005780601f106120d557610100808354040283529160200191612100565b820191906000526020600020905b8154815290600101906020018083116120e357829003601f168201915b505050505081565b60075481565b6000806000809054906101000a900473ffffffffffffffffffffffffffffffffffffffff1673ffffffffffffffffffffffffffffffffffffffff163373ffffffffffffffffffffffffffffffffffffffff1614151561216c57600080fd5b600090506121786122d5565b8015612189575061218761289c565b155b801561219957506121986116bf565b5b801561229057508273ffffffffffffffffffffffffffffffffffffffff16600160009054906101000a900473ffffffffffffffffffffffffffffffffffffffff1673ffffffffffffffffffffffffffffffffffffffff166302d05d3f6040518163ffffffff167c0100000000000000000000000000000000000000000000000000000000028152600401602060405180830381600087803b15801561223d57600080fd5b505af1158015612251573d6000803e3d6000fd5b505050506040513d602081101561226757600080fd5b810190808051906020019092919050505073ffffffffffffffffffffffffffffffffffffffff16145b156122a75742600d819055506122a4612917565b90505b80915050919050565b6000809054906101000a900473ffffffffffffffffffffffffffffffffffffffff1681565b6000806007541180156122e9575060075442115b905090565b6000600f60009054906101000a900473ffffffffffffffffffffffffffffffffffffffff1673ffffffffffffffffffffffffffffffffffffffff1663ede38421836006546040518363ffffffff167c0100000000000000000000000000000000000000000000000000000000028152600401808373ffffffffffffffffffffffffffffffffffffffff1673ffffffffffffffffffffffffffffffffffffffff16815260200182815260200192505050602060405180830381600087803b1580156123b757600080fd5b505af11580156123cb573d6000803e3d6000fd5b505050506040513d60208110156123e157600080fd5b81019080805190602001909291905050509050919050565b600073ffffffffffffffffffffffffffffffffffffffff166000809054906101000a900473ffffffffffffffffffffffffffffffffffffffff1673ffffffffffffffffffffffffffffffffffffffff1614151561245557600080fd5b87600160006101000a81548173ffffffffffffffffffffffffffffffffffffffff021916908373ffffffffffffffffffffffffffffffffffffffff160217905550336000806101000a81548173ffffffffffffffffffffffffffffffffffffffff021916908373ffffffffffffffffffffffffffffffffffffffff16021790555086600260006101000a81548173ffffffffffffffffffffffffffffffffffffffff021916908373ffffffffffffffffffffffffffffffffffffffff160217905550856003908051906020019061252d92919061319a565b508460048190555083600581905550436006819055508260078190555081600881905550806009819055505050505050505050565b6000809054906101000a900473ffffffffffffffffffffffffffffffffffffffff1673ffffffffffffffffffffffffffffffffffffffff163373ffffffffffffffffffffffffffffffffffffffff161415156125bd57600080fd5b600073ffffffffffffffffffffffffffffffffffffffff168173ffffffffffffffffffffffffffffffffffffffff16141515156125f957600080fd5b600073ffffffffffffffffffffffffffffffffffffffff16600f60009054906101000a900473ffffffffffffffffffffffffffffffffffffffff1673ffffffffffffffffffffffffffffffffffffffff1614151561265657600080fd5b80600f60006101000a81548173ffffffffffffffffffffffffffffffffffffffff021916908373ffffffffffffffffffffffffffffffffffffffff16021790555050565b6000600360048111156126a957fe5b6126b1611636565b60048111156126bc57fe5b14905090565b600a5481565b6000806000809054906101000a900473ffffffffffffffffffffffffffffffffffffffff1673ffffffffffffffffffffffffffffffffffffffff163373ffffffffffffffffffffffffffffffffffffffff1614151561272657600080fd5b600090506127326122d5565b801561274357506127416118a9565b155b801561275457506127526116bf565b155b80156127ad57508273ffffffffffffffffffffffffffffffffffffffff16600260009054906101000a900473ffffffffffffffffffffffffffffffffffffffff1673ffffffffffffffffffffffffffffffffffffffff16145b156127c45742600c819055506127c1611f77565b90505b80915050919050565b6000806127d8611a6c565b9050600160028111156127e757fe5b8160028111156127f357fe5b14156128085761280161161f565b915061283a565b60028081111561281457fe5b81600281111561282057fe5b14156128355761282e61283e565b915061283a565b600091505b5090565b6000600b54905090565b600080600e60008473ffffffffffffffffffffffffffffffffffffffff1673ffffffffffffffffffffffffffffffffffffffff16815260200190815260200160002060030154119050919050565b600d5481565b600080600d5411905090565b600f60009054906101000a900473ffffffffffffffffffffffffffffffffffffffff1681565b600e6020528060005260406000206000915090508060000154908060010160009054906101000a900460ff16908060020154908060030154908060040154908060050154905086565b600080600160009054906101000a900473ffffffffffffffffffffffffffffffffffffffff1673ffffffffffffffffffffffffffffffffffffffff1663d0e30db06040518163ffffffff167c0100000000000000000000000000000000000000000000000000000000028152600401602060405180830381600087803b1580156129a057600080fd5b505af11580156129b4573d6000803e3d6000fd5b505050506040513d60208110156129ca57600080fd5b810190808051906020019092919050505090506129f260085482612fab90919063ffffffff16565b91505090565b6000600554421115905090565b6000809054906101000a900473ffffffffffffffffffffffffffffffffffffffff1673ffffffffffffffffffffffffffffffffffffffff163373ffffffffffffffffffffffffffffffffffffffff16141515612a6057600080fd5b612a69816130a0565b50565b6000806000809054906101000a900473ffffffffffffffffffffffffffffffffffffffff1673ffffffffffffffffffffffffffffffffffffffff163373ffffffffffffffffffffffffffffffffffffffff16141515612aca57600080fd5b60009050612ad66122d5565b8015612ae85750612ae683611b18565b155b8015612af95750612af88361199b565b5b15612b5b57612b0783611440565b90506000811115612b5a5742600e60008573ffffffffffffffffffffffffffffffffffffffff1673ffffffffffffffffffffffffffffffffffffffff168152602001908152602001600020600401819055505b5b80915050919050565b60105481565b6000806000841415612b7f5760009150612c75565b8284029050828482811515612b9057fe5b04146040805190810160405280601181526020017f4d4154485f4d554c5f4f564552464c4f57000000000000000000000000000000815250901515612c70576040517f08c379a00000000000000000000000000000000000000000000000000000000081526004018080602001828103825283818151815260200191508051906020019080838360005b83811015612c35578082015181840152602081019050612c1a565b50505050905090810190601f168015612c625780820380516001836020036101000a031916815260200191505b509250505060405180910390fd5b508091505b5092915050565b600080600083116040805190810160405280600d81526020017f4d4154485f4449565f5a45524f00000000000000000000000000000000000000815250901515612d61576040517f08c379a00000000000000000000000000000000000000000000000000000000081526004018080602001828103825283818151815260200191508051906020019080838360005b83811015612d26578082015181840152602081019050612d0b565b50505050905090810190601f168015612d535780820380516001836020036101000a031916815260200191505b509250505060405180910390fd5b508284811515612d6d57fe5b0490508091505092915050565b6000612d84611a6c565b6002811115612d8f57fe5b600e60008473ffffffffffffffffffffffffffffffffffffffff1673ffffffffffffffffffffffffffffffffffffffff16815260200190815260200160002060010160009054906101000a900460ff166002811115612dea57fe5b149050919050565b6000806000905060016002811115612e0657fe5b600e60008573ffffffffffffffffffffffffffffffffffffffff1673ffffffffffffffffffffffffffffffffffffffff16815260200190815260200160002060010160009054906101000a900460ff166002811115612e6157fe5b1415612ead57600e60008473ffffffffffffffffffffffffffffffffffffffff1673ffffffffffffffffffffffffffffffffffffffff1681526020019081526020016000206002015490505b80915050919050565b6000808284019050838110156040805190810160405280601181526020017f4d4154485f4144445f4f564552464c4f57000000000000000000000000000000815250901515612fa0576040517f08c379a00000000000000000000000000000000000000000000000000000000081526004018080602001828103825283818151815260200191508051906020019080838360005b83811015612f65578082015181840152602081019050612f4a565b50505050905090810190601f168015612f925780820380516001836020036101000a031916815260200191505b509250505060405180910390fd5b508091505092915050565b600080838311156040805190810160405280601281526020017f4d4154485f5355425f554e444552464c4f570000000000000000000000000000815250901515613090576040517f08c379a00000000000000000000000000000000000000000000000000000000081526004018080602001828103825283818151815260200191508051906020019080838360005b8381101561305557808201518184015260208101905061303a565b50505050905090810190601f1680156130825780820380516001836020036101000a031916815260200191505b509250505060405180910390fd5b5082840390508091505092915050565b600073ffffffffffffffffffffffffffffffffffffffff168173ffffffffffffffffffffffffffffffffffffffff16141515156130dc57600080fd5b8073ffffffffffffffffffffffffffffffffffffffff166000809054906101000a900473ffffffffffffffffffffffffffffffffffffffff1673ffffffffffffffffffffffffffffffffffffffff167f8be0079c531659141344cd1fd0a4f28419497f9722a3daafe3b4186f6b6457e060405160405180910390a3806000806101000a81548173ffffffffffffffffffffffffffffffffffffffff021916908373ffffffffffffffffffffffffffffffffffffffff16021790555050565b828054600181600116156101000203166002900490600052602060002090601f016020900481019282601f106131db57805160ff1916838001178555613209565b82800160010185558215613209579182015b828111156132085782518255916020019190600101906131ed565b5b509050613216919061321a565b5090565b61323c91905b80821115613238576000816000905550600101613220565b5090565b905600a165627a7a7230582045837dd389ed1664878f8f8b461ec042410729cf16a82bb2df557356ff9c56300029",
  "deployedBytecode": "0x6080604052600436106102a9576000357c0100000000000000000000000000000000000000000000000000000000900463ffffffff16806302fd8d4d146102ae57806309eef43e146102dd578063122109bb146103385780631412f49e1461038f578063159c7012146103ba578063176345141461041157806318cac24c1461043c5780631a0a3aaa146104675780631d188416146104925780631dd63713146104e9578063200d2ed21461051457806320aa54f41461054d578063271946161461057c57806327f429d8146105d35780632836a1ba1461062e5780632ba8d6eb1461068957806331f0ef75146106e0578063384e52061461070f5780633c7e3c7a1461073e57806348b4cd4b146107695780634c73ed14146107b65780634d421401146107e55780634d9c392f1461081057806351cbffd31461086b578063534db0e2146108c257806360f8eeeb14610919578063611b40951461095257806366666aa914610981578063671f08e3146109ac5780636afdc33a146109d7578063715018a614610a325780637792957d14610a49578063803f5b7f14610aa0578063810ff7bd14610b1c578063827c62fb14610b4757806387eb297314610bd757806387f4ab3114610c025780638da5cb5b14610c595780638db79b6514610cb05780639071150514610cdf57806398bb9a6b14610d36578063a3e69cd314610e11578063a94d881114610e54578063af5f47bf14610e83578063b39c760014610eae578063b66bd25114610f05578063b72b4eca14610f30578063c45da4fc14610f5b578063c7153b9114610fb6578063c7ac52ec14610fe1578063d6edcd8114611010578063d8bff5a514611067578063d8fd1ed9146110f7578063e8c934fe14611122578063f2fde38b14611151578063f688426114611194578063f93a6c39146111eb575b600080fd5b3480156102ba57600080fd5b506102c3611216565b604051808215151515815260200191505060405180910390f35b3480156102e957600080fd5b5061031e600480360381019080803573ffffffffffffffffffffffffffffffffffffffff169060200190929190505050611259565b604051808215151515815260200191505060405180910390f35b34801561034457600080fd5b50610379600480360381019080803573ffffffffffffffffffffffffffffffffffffffff1690602001909291905050506112a8565b6040518082815260200191505060405180910390f35b34801561039b57600080fd5b506103a461136b565b6040518082815260200191505060405180910390f35b3480156103c657600080fd5b506103fb600480360381019080803573ffffffffffffffffffffffffffffffffffffffff169060200190929190505050611440565b6040518082815260200191505060405180910390f35b34801561041d57600080fd5b506104266114d3565b6040518082815260200191505060405180910390f35b34801561044857600080fd5b506104516114d9565b6040518082815260200191505060405180910390f35b34801561047357600080fd5b5061047c6114df565b6040518082815260200191505060405180910390f35b34801561049e57600080fd5b506104d3600480360381019080803573ffffffffffffffffffffffffffffffffffffffff1690602001909291905050506114e5565b6040518082815260200191505060405180910390f35b3480156104f557600080fd5b506104fe61161f565b6040518082815260200191505060405180910390f35b34801561052057600080fd5b50610529611636565b6040518082600481111561053957fe5b60ff16815260200191505060405180910390f35b34801561055957600080fd5b506105626116bf565b604051808215151515815260200191505060405180910390f35b34801561058857600080fd5b506105bd600480360381019080803573ffffffffffffffffffffffffffffffffffffffff1690602001909291905050506116e7565b6040518082815260200191505060405180910390f35b3480156105df57600080fd5b5061062c600480360381019080803573ffffffffffffffffffffffffffffffffffffffff1690602001909291908035906020019092919080356000191690602001909291905050506116ff565b005b34801561063a57600080fd5b5061066f600480360381019080803573ffffffffffffffffffffffffffffffffffffffff169060200190929190505050611828565b604051808215151515815260200191505060405180910390f35b34801561069557600080fd5b5061069e611876565b604051808273ffffffffffffffffffffffffffffffffffffffff1673ffffffffffffffffffffffffffffffffffffffff16815260200191505060405180910390f35b3480156106ec57600080fd5b506106f561189c565b604051808215151515815260200191505060405180910390f35b34801561071b57600080fd5b506107246118a9565b604051808215151515815260200191505060405180910390f35b34801561074a57600080fd5b506107536118b5565b6040518082815260200191505060405180910390f35b34801561077557600080fd5b506107b4600480360381019080803573ffffffffffffffffffffffffffffffffffffffff169060200190929190803590602001909291905050506118bb565b005b3480156107c257600080fd5b506107cb611977565b604051808215151515815260200191505060405180910390f35b3480156107f157600080fd5b506107fa611995565b6040518082815260200191505060405180910390f35b34801561081c57600080fd5b50610851600480360381019080803573ffffffffffffffffffffffffffffffffffffffff16906020019092919050505061199b565b604051808215151515815260200191505060405180910390f35b34801561087757600080fd5b506108ac600480360381019080803573ffffffffffffffffffffffffffffffffffffffff1690602001909291905050506119e9565b6040518082815260200191505060405180910390f35b3480156108ce57600080fd5b506108d7611a46565b604051808273ffffffffffffffffffffffffffffffffffffffff1673ffffffffffffffffffffffffffffffffffffffff16815260200191505060405180910390f35b34801561092557600080fd5b5061092e611a6c565b6040518082600281111561093e57fe5b60ff16815260200191505060405180910390f35b34801561095e57600080fd5b50610967611ae5565b604051808215151515815260200191505060405180910390f35b34801561098d57600080fd5b50610996611b0c565b6040518082815260200191505060405180910390f35b3480156109b857600080fd5b506109c1611b12565b6040518082815260200191505060405180910390f35b3480156109e357600080fd5b50610a18600480360381019080803573ffffffffffffffffffffffffffffffffffffffff169060200190929190505050611b18565b604051808215151515815260200191505060405180910390f35b348015610a3e57600080fd5b50610a47611b66565b005b348015610a5557600080fd5b50610a5e611c68565b604051808273ffffffffffffffffffffffffffffffffffffffff1673ffffffffffffffffffffffffffffffffffffffff16815260200191505060405180910390f35b348015610aac57600080fd5b50610b06600480360381019080803573ffffffffffffffffffffffffffffffffffffffff169060200190929190803560ff169060200190929190803590602001908201803590602001919091929391929390505050611c80565b6040518082815260200191505060405180910390f35b348015610b2857600080fd5b50610b31611f77565b6040518082815260200191505060405180910390f35b348015610b5357600080fd5b50610b5c61206a565b6040518080602001828103825283818151815260200191508051906020019080838360005b83811015610b9c578082015181840152602081019050610b81565b50505050905090810190601f168015610bc95780820380516001836020036101000a031916815260200191505b509250505060405180910390f35b348015610be357600080fd5b50610bec612108565b6040518082815260200191505060405180910390f35b348015610c0e57600080fd5b50610c43600480360381019080803573ffffffffffffffffffffffffffffffffffffffff16906020019092919050505061210e565b6040518082815260200191505060405180910390f35b348015610c6557600080fd5b50610c6e6122b0565b604051808273ffffffffffffffffffffffffffffffffffffffff1673ffffffffffffffffffffffffffffffffffffffff16815260200191505060405180910390f35b348015610cbc57600080fd5b50610cc56122d5565b604051808215151515815260200191505060405180910390f35b348015610ceb57600080fd5b50610d20600480360381019080803573ffffffffffffffffffffffffffffffffffffffff1690602001909291905050506122ee565b6040518082815260200191505060405180910390f35b348015610d4257600080fd5b50610e0f600480360381019080803573ffffffffffffffffffffffffffffffffffffffff169060200190929190803573ffffffffffffffffffffffffffffffffffffffff169060200190929190803590602001908201803590602001908080601f016020809104026020016040519081016040528093929190818152602001838380828437820191505050505050919291929080359060200190929190803590602001909291908035906020019092919080359060200190929190803590602001909291905050506123f9565b005b348015610e1d57600080fd5b50610e52600480360381019080803573ffffffffffffffffffffffffffffffffffffffff169060200190929190505050612562565b005b348015610e6057600080fd5b50610e6961269a565b604051808215151515815260200191505060405180910390f35b348015610e8f57600080fd5b50610e986126c2565b6040518082815260200191505060405180910390f35b348015610eba57600080fd5b50610eef600480360381019080803573ffffffffffffffffffffffffffffffffffffffff1690602001909291905050506126c8565b6040518082815260200191505060405180910390f35b348015610f1157600080fd5b50610f1a6127cd565b6040518082815260200191505060405180910390f35b348015610f3c57600080fd5b50610f4561283e565b6040518082815260200191505060405180910390f35b348015610f6757600080fd5b50610f9c600480360381019080803573ffffffffffffffffffffffffffffffffffffffff169060200190929190505050612848565b604051808215151515815260200191505060405180910390f35b348015610fc257600080fd5b50610fcb612896565b6040518082815260200191505060405180910390f35b348015610fed57600080fd5b50610ff661289c565b604051808215151515815260200191505060405180910390f35b34801561101c57600080fd5b506110256128a8565b604051808273ffffffffffffffffffffffffffffffffffffffff1673ffffffffffffffffffffffffffffffffffffffff16815260200191505060405180910390f35b34801561107357600080fd5b506110a8600480360381019080803573ffffffffffffffffffffffffffffffffffffffff1690602001909291905050506128ce565b6040518087600019166000191681526020018660028111156110c657fe5b60ff168152602001858152602001848152602001838152602001828152602001965050505050505060405180910390f35b34801561110357600080fd5b5061110c612917565b6040518082815260200191505060405180910390f35b34801561112e57600080fd5b506111376129f8565b604051808215151515815260200191505060405180910390f35b34801561115d57600080fd5b50611192600480360381019080803573ffffffffffffffffffffffffffffffffffffffff169060200190929190505050612a05565b005b3480156111a057600080fd5b506111d5600480360381019080803573ffffffffffffffffffffffffffffffffffffffff169060200190929190505050612a6c565b6040518082815260200191505060405180910390f35b3480156111f757600080fd5b50611200612b64565b6040518082815260200191505060405180910390f35b600080600260009054906101000a900473ffffffffffffffffffffffffffffffffffffffff1673ffffffffffffffffffffffffffffffffffffffff161415905090565b600080600e60008473ffffffffffffffffffffffffffffffffffffffff1673ffffffffffffffffffffffffffffffffffffffff1681526020019081526020016000206002015414159050919050565b600080600090506002808111156112bb57fe5b600e60008573ffffffffffffffffffffffffffffffffffffffff1673ffffffffffffffffffffffffffffffffffffffff16815260200190815260200160002060010160009054906101000a900460ff16600281111561131657fe5b141561136257600e60008473ffffffffffffffffffffffffffffffffffffffff1673ffffffffffffffffffffffffffffffffffffffff1681526020019081526020016000206002015490505b80915050919050565b6000600f60009054906101000a900473ffffffffffffffffffffffffffffffffffffffff1673ffffffffffffffffffffffffffffffffffffffff1663c9c532326006546040518263ffffffff167c010000000000000000000000000000000000000000000000000000000002815260040180828152602001915050602060405180830381600087803b15801561140057600080fd5b505af1158015611414573d6000803e3d6000fd5b505050506040513d602081101561142a57600080fd5b8101908080519060200190929190505050905090565b600080600061144d6127cd565b91506114588461199b565b151561146757600092506114cc565b61146f6116bf565b156114845761147d846119e9565b9050611490565b61148d846112a8565b90505b60008111156114c7576114c0826114b260085484612b6a90919063ffffffff16565b612c7c90919063ffffffff16565b92506114cc565b600092505b5050919050565b60065481565b600b5481565b60055481565b6000806000809054906101000a900473ffffffffffffffffffffffffffffffffffffffff1673ffffffffffffffffffffffffffffffffffffffff163373ffffffffffffffffffffffffffffffffffffffff1614151561154357600080fd5b6000905061154f6122d5565b8015611561575061155f83612848565b155b8015611573575061157183611828565b155b8015611584575061158383611259565b5b156116165742600e60008573ffffffffffffffffffffffffffffffffffffffff1673ffffffffffffffffffffffffffffffffffffffff16815260200190815260200160002060050181905550600e60008473ffffffffffffffffffffffffffffffffffffffff1673ffffffffffffffffffffffffffffffffffffffff1681526020019081526020016000206002015490505b80915050919050565b6000600a5460105461162f61136b565b0101905090565b600061164061189c565b8015611651575061164f611216565b155b1561165f57600090506116bc565b6116676129f8565b1561167557600190506116bc565b61167d611977565b1561168b57600290506116bc565b6116936122d5565b156116b7576116a06116bf565b156116ae57600490506116bc565b600390506116bc565b600490505b90565b6000600160028111156116ce57fe5b6116d6611a6c565b60028111156116e157fe5b14905090565b60116020528060005260406000206000915090505481565b6000809054906101000a900473ffffffffffffffffffffffffffffffffffffffff1673ffffffffffffffffffffffffffffffffffffffff163373ffffffffffffffffffffffffffffffffffffffff1614151561175a57600080fd5b6117626129f8565b151561176d57600080fd5b60008211151561177c57600080fd5b61178583611259565b15151561179157600080fd5b80600e60008573ffffffffffffffffffffffffffffffffffffffff1673ffffffffffffffffffffffffffffffffffffffff168152602001908152602001600020600001816000191690555081600e60008573ffffffffffffffffffffffffffffffffffffffff1673ffffffffffffffffffffffffffffffffffffffff16815260200190815260200160002060020181905550505050565b600080600e60008473ffffffffffffffffffffffffffffffffffffffff1673ffffffffffffffffffffffffffffffffffffffff16815260200190815260200160002060050154119050919050565b600160009054906101000a900473ffffffffffffffffffffffffffffffffffffffff1681565b6000600454421115905090565b600080600c5411905090565b600c5481565b6000809054906101000a900473ffffffffffffffffffffffffffffffffffffffff1673ffffffffffffffffffffffffffffffffffffffff163373ffffffffffffffffffffffffffffffffffffffff1614151561191657600080fd5b8060106000828254019250508190555080601160008473ffffffffffffffffffffffffffffffffffffffff1673ffffffffffffffffffffffffffffffffffffffff168152602001908152602001600020600082825401925050819055505050565b60006119816129f8565b15801561199057506007544211155b905090565b60095481565b60006119a682612d7a565b806119e25750600160028111156119b957fe5b6119c1611a6c565b60028111156119cc57fe5b1480156119e1575060006119df836119e9565b115b5b9050919050565b60006119f482612df2565b601160008473ffffffffffffffffffffffffffffffffffffffff1673ffffffffffffffffffffffffffffffffffffffff16815260200190815260200160002054611a3d846122ee565b01019050919050565b600260009054906101000a900473ffffffffffffffffffffffffffffffffffffffff1681565b600080611a776122d5565b1515611a865760009150611ae1565b611a8e61161f565b9050611ab9611aa8600b5483612eb690919063ffffffff16565b600954612b6a90919063ffffffff16565b611acd606483612b6a90919063ffffffff16565b1115611adc5760019150611ae1565b600291505b5090565b6000600480811115611af357fe5b611afb611636565b6004811115611b0657fe5b14905090565b60085481565b60045481565b600080600e60008473ffffffffffffffffffffffffffffffffffffffff1673ffffffffffffffffffffffffffffffffffffffff16815260200190815260200160002060040154119050919050565b6000809054906101000a900473ffffffffffffffffffffffffffffffffffffffff1673ffffffffffffffffffffffffffffffffffffffff163373ffffffffffffffffffffffffffffffffffffffff16141515611bc157600080fd5b6000809054906101000a900473ffffffffffffffffffffffffffffffffffffffff1673ffffffffffffffffffffffffffffffffffffffff167ff8df31144d9c2f0f6b59d69b8b98abd5459d07f2742c4df920b25aae33c6482060405160405180910390a260008060006101000a81548173ffffffffffffffffffffffffffffffffffffffff021916908373ffffffffffffffffffffffffffffffffffffffff160217905550565b73deaddeaddeaddeaddeaddeaddeaddeaddeaddead81565b6000806000809054906101000a900473ffffffffffffffffffffffffffffffffffffffff1673ffffffffffffffffffffffffffffffffffffffff163373ffffffffffffffffffffffffffffffffffffffff16141515611cde57600080fd5b611ce6611977565b1515611cf157600080fd5b600e60008773ffffffffffffffffffffffffffffffffffffffff1673ffffffffffffffffffffffffffffffffffffffff1681526020019081526020016000206000015460001916856002811115611d4457fe5b858560405160200180848152602001838380828437820191505093505050506040516020818303038152906040526040518082805190602001908083835b602083101515611da75780518252602082019150602081019050602083039250611d82565b6001836020036101000a038019825116818451168082178552505050505050905001915050604051809103902060001916141515611de457600080fd5b611ded86612848565b151515611df957600080fd5b42600e60008873ffffffffffffffffffffffffffffffffffffffff1673ffffffffffffffffffffffffffffffffffffffff16815260200190815260200160002060030181905550600e60008773ffffffffffffffffffffffffffffffffffffffff1673ffffffffffffffffffffffffffffffffffffffff16815260200190815260200160002060020154905084600e60008873ffffffffffffffffffffffffffffffffffffffff1673ffffffffffffffffffffffffffffffffffffffff16815260200190815260200160002060010160006101000a81548160ff02191690836002811115611ee357fe5b021790555060016002811115611ef557fe5b856002811115611f0157fe5b1415611f2757611f1c81600a54612eb690919063ffffffff16565b600a81905550611f6b565b600280811115611f3357fe5b856002811115611f3f57fe5b1415611f6557611f5a81600b54612eb690919063ffffffff16565b600b81905550611f6a565b600080fd5b5b80915050949350505050565b600080600160009054906101000a900473ffffffffffffffffffffffffffffffffffffffff1673ffffffffffffffffffffffffffffffffffffffff1663d0e30db06040518163ffffffff167c0100000000000000000000000000000000000000000000000000000000028152600401602060405180830381600087803b15801561200057600080fd5b505af1158015612014573d6000803e3d6000fd5b505050506040513d602081101561202a57600080fd5b8101908080519060200190929190505050905061206461205560085483612fab90919063ffffffff16565b82612eb690919063ffffffff16565b91505090565b60038054600181600116156101000203166002900480601f0160208091040260200160405190810160405280929190818152602001828054600181600116156101000203166002900480156121005780601f106120d557610100808354040283529160200191612100565b820191906000526020600020905b8154815290600101906020018083116120e357829003601f168201915b505050505081565b60075481565b6000806000809054906101000a900473ffffffffffffffffffffffffffffffffffffffff1673ffffffffffffffffffffffffffffffffffffffff163373ffffffffffffffffffffffffffffffffffffffff1614151561216c57600080fd5b600090506121786122d5565b8015612189575061218761289c565b155b801561219957506121986116bf565b5b801561229057508273ffffffffffffffffffffffffffffffffffffffff16600160009054906101000a900473ffffffffffffffffffffffffffffffffffffffff1673ffffffffffffffffffffffffffffffffffffffff166302d05d3f6040518163ffffffff167c0100000000000000000000000000000000000000000000000000000000028152600401602060405180830381600087803b15801561223d57600080fd5b505af1158015612251573d6000803e3d6000fd5b505050506040513d602081101561226757600080fd5b810190808051906020019092919050505073ffffffffffffffffffffffffffffffffffffffff16145b156122a75742600d819055506122a4612917565b90505b80915050919050565b6000809054906101000a900473ffffffffffffffffffffffffffffffffffffffff1681565b6000806007541180156122e9575060075442115b905090565b6000600f60009054906101000a900473ffffffffffffffffffffffffffffffffffffffff1673ffffffffffffffffffffffffffffffffffffffff1663ede38421836006546040518363ffffffff167c0100000000000000000000000000000000000000000000000000000000028152600401808373ffffffffffffffffffffffffffffffffffffffff1673ffffffffffffffffffffffffffffffffffffffff16815260200182815260200192505050602060405180830381600087803b1580156123b757600080fd5b505af11580156123cb573d6000803e3d6000fd5b505050506040513d60208110156123e157600080fd5b81019080805190602001909291905050509050919050565b600073ffffffffffffffffffffffffffffffffffffffff166000809054906101000a900473ffffffffffffffffffffffffffffffffffffffff1673ffffffffffffffffffffffffffffffffffffffff1614151561245557600080fd5b87600160006101000a81548173ffffffffffffffffffffffffffffffffffffffff021916908373ffffffffffffffffffffffffffffffffffffffff160217905550336000806101000a81548173ffffffffffffffffffffffffffffffffffffffff021916908373ffffffffffffffffffffffffffffffffffffffff16021790555086600260006101000a81548173ffffffffffffffffffffffffffffffffffffffff021916908373ffffffffffffffffffffffffffffffffffffffff160217905550856003908051906020019061252d92919061319a565b508460048190555083600581905550436006819055508260078190555081600881905550806009819055505050505050505050565b6000809054906101000a900473ffffffffffffffffffffffffffffffffffffffff1673ffffffffffffffffffffffffffffffffffffffff163373ffffffffffffffffffffffffffffffffffffffff161415156125bd57600080fd5b600073ffffffffffffffffffffffffffffffffffffffff168173ffffffffffffffffffffffffffffffffffffffff16141515156125f957600080fd5b600073ffffffffffffffffffffffffffffffffffffffff16600f60009054906101000a900473ffffffffffffffffffffffffffffffffffffffff1673ffffffffffffffffffffffffffffffffffffffff1614151561265657600080fd5b80600f60006101000a81548173ffffffffffffffffffffffffffffffffffffffff021916908373ffffffffffffffffffffffffffffffffffffffff16021790555050565b6000600360048111156126a957fe5b6126b1611636565b60048111156126bc57fe5b14905090565b600a5481565b6000806000809054906101000a900473ffffffffffffffffffffffffffffffffffffffff1673ffffffffffffffffffffffffffffffffffffffff163373ffffffffffffffffffffffffffffffffffffffff1614151561272657600080fd5b600090506127326122d5565b801561274357506127416118a9565b155b801561275457506127526116bf565b155b80156127ad57508273ffffffffffffffffffffffffffffffffffffffff16600260009054906101000a900473ffffffffffffffffffffffffffffffffffffffff1673ffffffffffffffffffffffffffffffffffffffff16145b156127c45742600c819055506127c1611f77565b90505b80915050919050565b6000806127d8611a6c565b9050600160028111156127e757fe5b8160028111156127f357fe5b14156128085761280161161f565b915061283a565b60028081111561281457fe5b81600281111561282057fe5b14156128355761282e61283e565b915061283a565b600091505b5090565b6000600b54905090565b600080600e60008473ffffffffffffffffffffffffffffffffffffffff1673ffffffffffffffffffffffffffffffffffffffff16815260200190815260200160002060030154119050919050565b600d5481565b600080600d5411905090565b600f60009054906101000a900473ffffffffffffffffffffffffffffffffffffffff1681565b600e6020528060005260406000206000915090508060000154908060010160009054906101000a900460ff16908060020154908060030154908060040154908060050154905086565b600080600160009054906101000a900473ffffffffffffffffffffffffffffffffffffffff1673ffffffffffffffffffffffffffffffffffffffff1663d0e30db06040518163ffffffff167c0100000000000000000000000000000000000000000000000000000000028152600401602060405180830381600087803b1580156129a057600080fd5b505af11580156129b4573d6000803e3d6000fd5b505050506040513d60208110156129ca57600080fd5b810190808051906020019092919050505090506129f260085482612fab90919063ffffffff16565b91505090565b6000600554421115905090565b6000809054906101000a900473ffffffffffffffffffffffffffffffffffffffff1673ffffffffffffffffffffffffffffffffffffffff163373ffffffffffffffffffffffffffffffffffffffff16141515612a6057600080fd5b612a69816130a0565b50565b6000806000809054906101000a900473ffffffffffffffffffffffffffffffffffffffff1673ffffffffffffffffffffffffffffffffffffffff163373ffffffffffffffffffffffffffffffffffffffff16141515612aca57600080fd5b60009050612ad66122d5565b8015612ae85750612ae683611b18565b155b8015612af95750612af88361199b565b5b15612b5b57612b0783611440565b90506000811115612b5a5742600e60008573ffffffffffffffffffffffffffffffffffffffff1673ffffffffffffffffffffffffffffffffffffffff168152602001908152602001600020600401819055505b5b80915050919050565b60105481565b6000806000841415612b7f5760009150612c75565b8284029050828482811515612b9057fe5b04146040805190810160405280601181526020017f4d4154485f4d554c5f4f564552464c4f57000000000000000000000000000000815250901515612c70576040517f08c379a00000000000000000000000000000000000000000000000000000000081526004018080602001828103825283818151815260200191508051906020019080838360005b83811015612c35578082015181840152602081019050612c1a565b50505050905090810190601f168015612c625780820380516001836020036101000a031916815260200191505b509250505060405180910390fd5b508091505b5092915050565b600080600083116040805190810160405280600d81526020017f4d4154485f4449565f5a45524f00000000000000000000000000000000000000815250901515612d61576040517f08c379a00000000000000000000000000000000000000000000000000000000081526004018080602001828103825283818151815260200191508051906020019080838360005b83811015612d26578082015181840152602081019050612d0b565b50505050905090810190601f168015612d535780820380516001836020036101000a031916815260200191505b509250505060405180910390fd5b508284811515612d6d57fe5b0490508091505092915050565b6000612d84611a6c565b6002811115612d8f57fe5b600e60008473ffffffffffffffffffffffffffffffffffffffff1673ffffffffffffffffffffffffffffffffffffffff16815260200190815260200160002060010160009054906101000a900460ff166002811115612dea57fe5b149050919050565b6000806000905060016002811115612e0657fe5b600e60008573ffffffffffffffffffffffffffffffffffffffff1673ffffffffffffffffffffffffffffffffffffffff16815260200190815260200160002060010160009054906101000a900460ff166002811115612e6157fe5b1415612ead57600e60008473ffffffffffffffffffffffffffffffffffffffff1673ffffffffffffffffffffffffffffffffffffffff1681526020019081526020016000206002015490505b80915050919050565b6000808284019050838110156040805190810160405280601181526020017f4d4154485f4144445f4f564552464c4f57000000000000000000000000000000815250901515612fa0576040517f08c379a00000000000000000000000000000000000000000000000000000000081526004018080602001828103825283818151815260200191508051906020019080838360005b83811015612f65578082015181840152602081019050612f4a565b50505050905090810190601f168015612f925780820380516001836020036101000a031916815260200191505b509250505060405180910390fd5b508091505092915050565b600080838311156040805190810160405280601281526020017f4d4154485f5355425f554e444552464c4f570000000000000000000000000000815250901515613090576040517f08c379a00000000000000000000000000000000000000000000000000000000081526004018080602001828103825283818151815260200191508051906020019080838360005b8381101561305557808201518184015260208101905061303a565b50505050905090810190601f1680156130825780820380516001836020036101000a031916815260200191505b509250505060405180910390fd5b5082840390508091505092915050565b600073ffffffffffffffffffffffffffffffffffffffff168173ffffffffffffffffffffffffffffffffffffffff16141515156130dc57600080fd5b8073ffffffffffffffffffffffffffffffffffffffff166000809054906101000a900473ffffffffffffffffffffffffffffffffffffffff1673ffffffffffffffffffffffffffffffffffffffff167f8be0079c531659141344cd1fd0a4f28419497f9722a3daafe3b4186f6b6457e060405160405180910390a3806000806101000a81548173ffffffffffffffffffffffffffffffffffffffff021916908373ffffffffffffffffffffffffffffffffffffffff16021790555050565b828054600181600116156101000203166002900490600052602060002090601f016020900481019282601f106131db57805160ff1916838001178555613209565b82800160010185558215613209579182015b828111156132085782518255916020019190600101906131ed565b5b509050613216919061321a565b5090565b61323c91905b80821115613238576000816000905550600101613220565b5090565b905600a165627a7a7230582045837dd389ed1664878f8f8b461ec042410729cf16a82bb2df557356ff9c56300029",
  "source": "pragma solidity ^0.4.24;\n\nimport \"./Challenge.sol\";\nimport \"./StakeBank.sol\";\n\ncontract DistrictChallenge is Challenge {\n\n  StakeBank public stakeBank;\n\n  int public stakeDelta;\n  mapping(address => int) public stakeDeltasFor;\n\n  function setStakeBank(StakeBank _stakeBank)\n    public\n    onlyOwner\n  {\n    require(address(_stakeBank) != address(0));\n    require(address(stakeBank) == address(0));\n    stakeBank = _stakeBank;\n  }\n\n  function voteOptionIncludeAmount()\n    public\n    view\n    returns (uint)\n  {\n    return uint(int(totalStakedAtChallengeCreation()) + stakeDelta + int(votesInclude));\n  }\n\n  function votedWinningVoteOption(address _voter)\n    public\n    view\n    returns (bool) {\n\n    return\n      super.votedWinningVoteOption(_voter) ||\n      (winningVoteOption() == VoteOption.Include && voteOptionIncludeVoterAmount(_voter) > 0);\n  }\n\n  function voteOptionIncludeVoterAmount(address _voter)\n    public\n    view\n    returns (uint)\n  {\n    return\n      uint(\n        int(totalStakedForAtChallengeCreation(_voter)) +\n        stakeDeltasFor[_voter] +\n        int(super.voteOptionIncludeVoterAmount(_voter))\n      );\n  }\n\n  function totalStakedForAtChallengeCreation(address _address)\n    public\n    view\n    returns (uint256)\n  {\n    return stakeBank.totalStakedForAt(_address, creationBlock);\n  }\n\n  function totalStakedAtChallengeCreation()\n    public\n    view\n    returns (uint256)\n  {\n    return stakeBank.totalStakedAt(creationBlock);\n  }\n\n  function adjustStakeDelta(address _voter, int _amount)\n    public\n    onlyOwner\n  {\n    stakeDelta += _amount;\n    stakeDeltasFor[_voter] += _amount;\n  }\n\n\n}\n",
  "sourcePath": "/Users/matus/www/district0x/district-registry/contracts/DistrictChallenge.sol",
  "compiler": {
    "name": "solc",
    "version": "0.4.24+commit.e67f0147.Emscripten.clang"
  },
  "schemaVersion": "3.0.11",
  "updatedAt": "2019-07-23T10:27:47.220Z",
  "devdoc": {
    "methods": {
      "challengerReward()": {
        "details": "Returns token reward amount belonging to a challenger",
        "return": "Amount of token"
      },
      "isWinningOptionInclude()": {
        "details": "Returns whether Include is winning vote option",
        "return": "True if Include is winning option"
      },
      "renounceOwnership()": {
        "details": "Allows the current owner to relinquish control of the contract."
      },
      "status()": {
        "details": "Returns current status of a registry entry",
        "return": "Status"
      },
      "transferOwnership(address)": {
        "details": "Allows the current owner to transfer control of the contract to a newOwner.",
        "params": {
          "_newOwner": "The address to transfer ownership to."
        }
      },
      "voteReward(address)": {
        "details": "Returns token reward amount belonging to a voter for voting for a winning option",
        "params": {
          "_voter": "Address of a voter"
        },
        "return": "Amount of tokens"
      },
      "winningVoteOption()": {
        "details": "Returns winning vote option in held voting according to vote quorum If voteQuorum is 50, any majority of votes will win If voteQuorum is 24, only 25 votes out of 100 is enough for Include to be winning option",
        "return": "Winning vote option"
      },
      "winningVoteOptionAmount()": {
        "details": "Returns amount of votes for winning vote option",
        "return": "Amount of votes"
      }
    }
  },
  "userdoc": {
    "methods": {
      "renounceOwnership()": {
        "notice": "Renouncing to ownership will leave the contract without an owner. It will not be possible to call the functions with the `onlyOwner` modifier anymore."
      }
    }
  }
}