{
  "contractName": "DSGuard_copy",
  "abi": [
    {
      "constant": false,
      "inputs": [
        {
          "name": "owner_",
          "type": "address"
        }
      ],
      "name": "setOwner",
      "outputs": [],
      "payable": false,
      "stateMutability": "nonpayable",
      "type": "function"
    },
    {
      "constant": false,
      "inputs": [
        {
          "name": "authority_",
          "type": "address"
        }
      ],
      "name": "setAuthority",
      "outputs": [],
      "payable": false,
      "stateMutability": "nonpayable",
      "type": "function"
    },
    {
      "constant": true,
      "inputs": [],
      "name": "owner",
      "outputs": [
        {
          "name": "",
          "type": "address"
        }
      ],
      "payable": false,
      "stateMutability": "view",
      "type": "function"
    },
    {
      "constant": true,
      "inputs": [],
      "name": "ANY",
      "outputs": [
        {
          "name": "",
          "type": "bytes32"
        }
      ],
      "payable": false,
      "stateMutability": "view",
      "type": "function"
    },
    {
      "constant": true,
      "inputs": [],
      "name": "authority",
      "outputs": [
        {
          "name": "",
          "type": "address"
        }
      ],
      "payable": false,
      "stateMutability": "view",
      "type": "function"
    },
    {
      "anonymous": false,
      "inputs": [
        {
          "indexed": true,
          "name": "src",
          "type": "bytes32"
        },
        {
          "indexed": true,
          "name": "dst",
          "type": "bytes32"
        },
        {
          "indexed": true,
          "name": "sig",
          "type": "bytes32"
        }
      ],
      "name": "LogPermit",
      "type": "event"
    },
    {
      "anonymous": false,
      "inputs": [
        {
          "indexed": true,
          "name": "src",
          "type": "bytes32"
        },
        {
          "indexed": true,
          "name": "dst",
          "type": "bytes32"
        },
        {
          "indexed": true,
          "name": "sig",
          "type": "bytes32"
        }
      ],
      "name": "LogForbid",
      "type": "event"
    },
    {
      "anonymous": false,
      "inputs": [
        {
          "indexed": true,
          "name": "authority",
          "type": "address"
        }
      ],
      "name": "LogSetAuthority",
      "type": "event"
    },
    {
      "anonymous": false,
      "inputs": [
        {
          "indexed": true,
          "name": "owner",
          "type": "address"
        }
      ],
      "name": "LogSetOwner",
      "type": "event"
    },
    {
      "constant": true,
      "inputs": [
        {
          "name": "src_",
          "type": "address"
        },
        {
          "name": "dst_",
          "type": "address"
        },
        {
          "name": "sig",
          "type": "bytes4"
        }
      ],
      "name": "canCall",
      "outputs": [
        {
          "name": "",
          "type": "bool"
        }
      ],
      "payable": false,
      "stateMutability": "view",
      "type": "function"
    },
    {
      "constant": false,
      "inputs": [
        {
          "name": "src",
          "type": "bytes32"
        },
        {
          "name": "dst",
          "type": "bytes32"
        },
        {
          "name": "sig",
          "type": "bytes32"
        }
      ],
      "name": "permitBytes32",
      "outputs": [],
      "payable": false,
      "stateMutability": "nonpayable",
      "type": "function"
    },
    {
      "constant": false,
      "inputs": [
        {
          "name": "src",
          "type": "address"
        },
        {
          "name": "dst",
          "type": "address"
        },
        {
          "name": "sig",
          "type": "bytes32"
        }
      ],
      "name": "permit",
      "outputs": [],
      "payable": false,
      "stateMutability": "nonpayable",
      "type": "function"
    },
    {
      "constant": false,
      "inputs": [
        {
          "name": "src",
          "type": "address"
        },
        {
          "name": "dst",
          "type": "address"
        },
        {
          "name": "sig",
          "type": "bytes32"
        }
      ],
      "name": "forbid",
      "outputs": [],
      "payable": false,
      "stateMutability": "nonpayable",
      "type": "function"
    },
    {
      "constant": false,
      "inputs": [
        {
          "name": "src",
          "type": "bytes32"
        },
        {
          "name": "dst",
          "type": "bytes32"
        },
        {
          "name": "sig",
          "type": "bytes32"
        }
      ],
      "name": "forbid",
      "outputs": [],
      "payable": false,
      "stateMutability": "nonpayable",
      "type": "function"
    }
  ],
  "bytecode": "0x608060405233600160006101000a81548173ffffffffffffffffffffffffffffffffffffffff021916908373ffffffffffffffffffffffffffffffffffffffff1602179055503373ffffffffffffffffffffffffffffffffffffffff167fce241d7ca1f669fee44b6fc00b8eba2df3bb514eed0f6f668f8f89096e81ed9460405160405180910390a26110aa806100976000396000f3006080604052600436106100a4576000357c0100000000000000000000000000000000000000000000000000000000900463ffffffff16806313af4035146100a95780632bc3217d146100ec57806379d88d871461015d5780637a9e5e4b146101aa5780638da5cb5b146101ed578063a8542f6614610244578063b700961314610277578063bf7e214f1461031b578063c240fa0d14610372578063cbeea68c146103bf575b600080fd5b3480156100b557600080fd5b506100ea600480360381019080803573ffffffffffffffffffffffffffffffffffffffff169060200190929190505050610430565b005b3480156100f857600080fd5b5061015b600480360381019080803573ffffffffffffffffffffffffffffffffffffffff169060200190929190803573ffffffffffffffffffffffffffffffffffffffff1690602001909291908035600019169060200190929190505050610512565b005b34801561016957600080fd5b506101a8600480360381019080803560001916906020019092919080356000191690602001909291908035600019169060200190929190505050610554565b005b3480156101b657600080fd5b506101eb600480360381019080803573ffffffffffffffffffffffffffffffffffffffff169060200190929190505050610633565b005b3480156101f957600080fd5b50610202610713565b604051808273ffffffffffffffffffffffffffffffffffffffff1673ffffffffffffffffffffffffffffffffffffffff16815260200191505060405180910390f35b34801561025057600080fd5b50610259610739565b60405180826000191660001916815260200191505060405180910390f35b34801561028357600080fd5b50610301600480360381019080803573ffffffffffffffffffffffffffffffffffffffff169060200190929190803573ffffffffffffffffffffffffffffffffffffffff16906020019092919080357bffffffffffffffffffffffffffffffffffffffffffffffffffffffff19169060200190929190505050610760565b604051808215151515815260200191505060405180910390f35b34801561032757600080fd5b50610330610cc1565b604051808273ffffffffffffffffffffffffffffffffffffffff1673ffffffffffffffffffffffffffffffffffffffff16815260200191505060405180910390f35b34801561037e57600080fd5b506103bd600480360381019080803560001916906020019092919080356000191690602001909291908035600019169060200190929190505050610ce6565b005b3480156103cb57600080fd5b5061042e600480360381019080803573ffffffffffffffffffffffffffffffffffffffff169060200190929190803573ffffffffffffffffffffffffffffffffffffffff1690602001909291908035600019169060200190929190505050610dc5565b005b61045e336000357fffffffff0000000000000000000000000000000000000000000000000000000016610e07565b151561046957600080fd5b80600160006101000a81548173ffffffffffffffffffffffffffffffffffffffff021916908373ffffffffffffffffffffffffffffffffffffffff160217905550600160009054906101000a900473ffffffffffffffffffffffffffffffffffffffff1673ffffffffffffffffffffffffffffffffffffffff167fce241d7ca1f669fee44b6fc00b8eba2df3bb514eed0f6f668f8f89096e81ed9460405160405180910390a250565b61054f8373ffffffffffffffffffffffffffffffffffffffff166001028373ffffffffffffffffffffffffffffffffffffffff1660010283610554565b505050565b610582336000357fffffffff0000000000000000000000000000000000000000000000000000000016610e07565b151561058d57600080fd5b6000600260008560001916600019168152602001908152602001600020600084600019166000191681526020019081526020016000206000836000191660001916815260200190815260200160002060006101000a81548160ff0219169083151502179055508060001916826000191684600019167f95ba64c95d85e67ac83a0476c4a62ac2cf8ab2d0407545b8c9d79c3eefa6282960405160405180910390a4505050565b610661336000357fffffffff0000000000000000000000000000000000000000000000000000000016610e07565b151561066c57600080fd5b806000806101000a81548173ffffffffffffffffffffffffffffffffffffffff021916908373ffffffffffffffffffffffffffffffffffffffff1602179055506000809054906101000a900473ffffffffffffffffffffffffffffffffffffffff1673ffffffffffffffffffffffffffffffffffffffff167f1abebea81bfa2637f28358c371278fb15ede7ea8dd28d2e03b112ff6d936ada460405160405180910390a250565b600160009054906101000a900473ffffffffffffffffffffffffffffffffffffffff1681565b7fffffffffffffffffffffffffffffffffffffffffffffffffffffffffffffffff60010281565b60008060008573ffffffffffffffffffffffffffffffffffffffff1660010291508473ffffffffffffffffffffffffffffffffffffffff166001029050600260008360001916600019168152602001908152602001600020600082600019166000191681526020019081526020016000206000857bffffffffffffffffffffffffffffffffffffffffffffffffffffffff191660001916815260200190815260200160002060009054906101000a900460ff168061089857506002600083600019166000191681526020019081526020016000206000826000191660001916815260200190815260200160002060007fffffffffffffffffffffffffffffffffffffffffffffffffffffffffffffffff6001026000191660001916815260200190815260200160002060009054906101000a900460ff165b80610938575060026000836000191660001916815260200190815260200160002060007fffffffffffffffffffffffffffffffffffffffffffffffffffffffffffffffff600102600019166000191681526020019081526020016000206000857bffffffffffffffffffffffffffffffffffffffffffffffffffffffff191660001916815260200190815260200160002060009054906101000a900460ff165b806109e0575060026000836000191660001916815260200190815260200160002060007fffffffffffffffffffffffffffffffffffffffffffffffffffffffffffffffff6001026000191660001916815260200190815260200160002060007fffffffffffffffffffffffffffffffffffffffffffffffffffffffffffffffff6001026000191660001916815260200190815260200160002060009054906101000a900460ff165b80610a805750600260007fffffffffffffffffffffffffffffffffffffffffffffffffffffffffffffffff60010260001916600019168152602001908152602001600020600082600019166000191681526020019081526020016000206000857bffffffffffffffffffffffffffffffffffffffffffffffffffffffff191660001916815260200190815260200160002060009054906101000a900460ff165b80610b285750600260007fffffffffffffffffffffffffffffffffffffffffffffffffffffffffffffffff600102600019166000191681526020019081526020016000206000826000191660001916815260200190815260200160002060007fffffffffffffffffffffffffffffffffffffffffffffffffffffffffffffffff6001026000191660001916815260200190815260200160002060009054906101000a900460ff165b80610beb5750600260007fffffffffffffffffffffffffffffffffffffffffffffffffffffffffffffffff6001026000191660001916815260200190815260200160002060007fffffffffffffffffffffffffffffffffffffffffffffffffffffffffffffffff600102600019166000191681526020019081526020016000206000857bffffffffffffffffffffffffffffffffffffffffffffffffffffffff191660001916815260200190815260200160002060009054906101000a900460ff165b80610cb65750600260007fffffffffffffffffffffffffffffffffffffffffffffffffffffffffffffffff6001026000191660001916815260200190815260200160002060007fffffffffffffffffffffffffffffffffffffffffffffffffffffffffffffffff6001026000191660001916815260200190815260200160002060007fffffffffffffffffffffffffffffffffffffffffffffffffffffffffffffffff6001026000191660001916815260200190815260200160002060009054906101000a900460ff165b925050509392505050565b6000809054906101000a900473ffffffffffffffffffffffffffffffffffffffff1681565b610d14336000357fffffffff0000000000000000000000000000000000000000000000000000000016610e07565b1515610d1f57600080fd5b6001600260008560001916600019168152602001908152602001600020600084600019166000191681526020019081526020016000206000836000191660001916815260200190815260200160002060006101000a81548160ff0219169083151502179055508060001916826000191684600019167f6f50375045128971c5469d343039ba7b8e30a5b190453737b28bda6f7a30677160405160405180910390a4505050565b610e028373ffffffffffffffffffffffffffffffffffffffff166001028373ffffffffffffffffffffffffffffffffffffffff1660010283610ce6565b505050565b60003073ffffffffffffffffffffffffffffffffffffffff168373ffffffffffffffffffffffffffffffffffffffff161415610e465760019050611078565b600160009054906101000a900473ffffffffffffffffffffffffffffffffffffffff1673ffffffffffffffffffffffffffffffffffffffff168373ffffffffffffffffffffffffffffffffffffffff161415610ea55760019050611078565b600073ffffffffffffffffffffffffffffffffffffffff166000809054906101000a900473ffffffffffffffffffffffffffffffffffffffff1673ffffffffffffffffffffffffffffffffffffffff161415610f045760009050611078565b6000809054906101000a900473ffffffffffffffffffffffffffffffffffffffff1673ffffffffffffffffffffffffffffffffffffffff1663b70096138430856040518463ffffffff167c0100000000000000000000000000000000000000000000000000000000028152600401808473ffffffffffffffffffffffffffffffffffffffff1673ffffffffffffffffffffffffffffffffffffffff1681526020018373ffffffffffffffffffffffffffffffffffffffff1673ffffffffffffffffffffffffffffffffffffffff168152602001827bffffffffffffffffffffffffffffffffffffffffffffffffffffffff19167bffffffffffffffffffffffffffffffffffffffffffffffffffffffff191681526020019350505050602060405180830381600087803b15801561103a57600080fd5b505af115801561104e573d6000803e3d6000fd5b505050506040513d602081101561106457600080fd5b810190808051906020019092919050505090505b929150505600a165627a7a723058200e1fb59eb50304792c418a6db82c38d8617f74bf9e2c170f0905da8ebc9ac3000029",
  "source": "// guard.sol -- simple whitelist implementation of DSAuthority\n\n// Copyright (C) 2017  DappHub, LLC\n\n// This program is free software: you can redistribute it and/or modify\n// it under the terms of the GNU General Public License as published by\n// the Free Software Foundation, either version 3 of the License, or\n// (at your option) any later version.\n\n// This program is distributed in the hope that it will be useful,\n// but WITHOUT ANY WARRANTY; without even the implied warranty of\n// MERCHANTABILITY or FITNESS FOR A PARTICULAR PURPOSE.  See the\n// GNU General Public License for more details.\n\n// You should have received a copy of the GNU General Public License\n// along with this program.  If not, see <http://www.gnu.org/licenses/>.\n\npragma solidity ^0.4.13;\n\nimport \"../auth/DSAuth.sol\";\n\ncontract DSGuardEvents {\n  event LogPermit(\n    bytes32 indexed src,\n    bytes32 indexed dst,\n    bytes32 indexed sig\n  );\n  event LogForbid(\n    bytes32 indexed src,\n    bytes32 indexed dst,\n    bytes32 indexed sig\n  );\n}\n\ncontract DSGuard is DSAuth, DSAuthority, DSGuardEvents {\n  bytes32 constant public ANY = bytes32(uint(- 1));\n  mapping(bytes32 => mapping(bytes32 => mapping(bytes32 => bool))) acl;\n\n  function canCall(\n    address src_, address dst_, bytes4 sig\n  ) public view returns (bool) {\n    bytes32 src = bytes32(src_);\n    bytes32 dst = bytes32(dst_);\n\n    return acl[src][dst][sig]\n    || acl[src][dst][ANY]\n    || acl[src][ANY][sig]\n    || acl[src][ANY][ANY]\n    || acl[ANY][dst][sig]\n    || acl[ANY][dst][ANY]\n    || acl[ANY][ANY][sig]\n    || acl[ANY][ANY][ANY];\n  }\n\n  // This function was renamed from permit into permitBytes32, since web3 wasn't converting\n  // address into bytes32 same way as solidity\n  function permitBytes32(bytes32 src, bytes32 dst, bytes32 sig) public auth {\n    acl[src][dst][sig] = true;\n    emit LogPermit(src, dst, sig);\n  }\n\n  function forbid(bytes32 src, bytes32 dst, bytes32 sig) public auth {\n    acl[src][dst][sig] = false;\n    emit LogForbid(src, dst, sig);\n  }\n\n  function permit(address src, address dst, bytes32 sig) public {\n    permitBytes32(bytes32(src), bytes32(dst), sig);\n  }\n\n  function forbid(address src, address dst, bytes32 sig) public {\n    forbid(bytes32(src), bytes32(dst), sig);\n  }\n}\n\ncontract DSGuardFactory {\n  mapping(address => bool)  public  isGuard;\n\n  function newGuard() public returns (DSGuard guard) {\n    guard = new DSGuard();\n    guard.setOwner(msg.sender);\n    isGuard[guard] = true;\n  }\n}\n",
  "sourcePath": "/Users/matus/www/district0x/district-registry/contracts/auth/DSGuard.sol",
  "compiler": {
    "name": "solc",
    "version": "0.4.24+commit.e67f0147.Emscripten.clang"
  },
  "schemaVersion": "3.0.11",
  "updatedAt": "2019-07-23T10:27:47.114Z",
  "devdoc": {
    "methods": {}
  },
  "userdoc": {
    "methods": {}
  }
}