{
  "contractName": "ENSSubdomainRegistrar",
  "abi": [
    {
      "constant": true,
      "inputs": [],
      "name": "hasInitialized",
      "outputs": [
        {
          "name": "",
          "type": "bool"
        }
      ],
      "payable": false,
      "stateMutability": "view",
      "type": "function"
    },
    {
      "constant": true,
      "inputs": [
        {
          "name": "_script",
          "type": "bytes"
        }
      ],
      "name": "getEVMScriptExecutor",
      "outputs": [
        {
          "name": "",
          "type": "address"
        }
      ],
      "payable": false,
      "stateMutability": "view",
      "type": "function"
    },
    {
      "constant": true,
      "inputs": [],
      "name": "POINT_ROOTNODE_ROLE",
      "outputs": [
        {
          "name": "",
          "type": "bytes32"
        }
      ],
      "payable": false,
      "stateMutability": "view",
      "type": "function"
    },
    {
      "constant": true,
      "inputs": [],
      "name": "getRecoveryVault",
      "outputs": [
        {
          "name": "",
          "type": "address"
        }
      ],
      "payable": false,
      "stateMutability": "view",
      "type": "function"
    },
    {
      "constant": true,
      "inputs": [],
      "name": "ens",
      "outputs": [
        {
          "name": "",
          "type": "address"
        }
      ],
      "payable": false,
      "stateMutability": "view",
      "type": "function"
    },
    {
      "constant": true,
      "inputs": [
        {
          "name": "token",
          "type": "address"
        }
      ],
      "name": "allowRecoverability",
      "outputs": [
        {
          "name": "",
          "type": "bool"
        }
      ],
      "payable": false,
      "stateMutability": "view",
      "type": "function"
    },
    {
      "constant": true,
      "inputs": [],
      "name": "appId",
      "outputs": [
        {
          "name": "",
          "type": "bytes32"
        }
      ],
      "payable": false,
      "stateMutability": "view",
      "type": "function"
    },
    {
      "constant": true,
      "inputs": [],
      "name": "getInitializationBlock",
      "outputs": [
        {
          "name": "",
          "type": "uint256"
        }
      ],
      "payable": false,
      "stateMutability": "view",
      "type": "function"
    },
    {
      "constant": false,
      "inputs": [
        {
          "name": "_token",
          "type": "address"
        }
      ],
      "name": "transferToVault",
      "outputs": [],
      "payable": false,
      "stateMutability": "nonpayable",
      "type": "function"
    },
    {
      "constant": true,
      "inputs": [
        {
          "name": "_sender",
          "type": "address"
        },
        {
          "name": "_role",
          "type": "bytes32"
        },
        {
          "name": "_params",
          "type": "uint256[]"
        }
      ],
      "name": "canPerform",
      "outputs": [
        {
          "name": "",
          "type": "bool"
        }
      ],
      "payable": false,
      "stateMutability": "view",
      "type": "function"
    },
    {
      "constant": true,
      "inputs": [],
      "name": "getEVMScriptRegistry",
      "outputs": [
        {
          "name": "",
          "type": "address"
        }
      ],
      "payable": false,
      "stateMutability": "view",
      "type": "function"
    },
    {
      "constant": true,
      "inputs": [],
      "name": "DELETE_NAME_ROLE",
      "outputs": [
        {
          "name": "",
          "type": "bytes32"
        }
      ],
      "payable": false,
      "stateMutability": "view",
      "type": "function"
    },
    {
      "constant": true,
      "inputs": [],
      "name": "kernel",
      "outputs": [
        {
          "name": "",
          "type": "address"
        }
      ],
      "payable": false,
      "stateMutability": "view",
      "type": "function"
    },
    {
      "constant": true,
      "inputs": [],
      "name": "isPetrified",
      "outputs": [
        {
          "name": "",
          "type": "bool"
        }
      ],
      "payable": false,
      "stateMutability": "view",
      "type": "function"
    },
    {
      "constant": true,
      "inputs": [],
      "name": "rootNode",
      "outputs": [
        {
          "name": "",
          "type": "bytes32"
        }
      ],
      "payable": false,
      "stateMutability": "view",
      "type": "function"
    },
    {
      "constant": true,
      "inputs": [],
      "name": "CREATE_NAME_ROLE",
      "outputs": [
        {
          "name": "",
          "type": "bytes32"
        }
      ],
      "payable": false,
      "stateMutability": "view",
      "type": "function"
    },
    {
      "anonymous": false,
      "inputs": [
        {
          "indexed": true,
          "name": "node",
          "type": "bytes32"
        },
        {
          "indexed": true,
          "name": "label",
          "type": "bytes32"
        }
      ],
      "name": "NewName",
      "type": "event"
    },
    {
      "anonymous": false,
      "inputs": [
        {
          "indexed": true,
          "name": "node",
          "type": "bytes32"
        },
        {
          "indexed": true,
          "name": "label",
          "type": "bytes32"
        }
      ],
      "name": "DeleteName",
      "type": "event"
    },
    {
      "anonymous": false,
      "inputs": [
        {
          "indexed": true,
          "name": "executor",
          "type": "address"
        },
        {
          "indexed": false,
          "name": "script",
          "type": "bytes"
        },
        {
          "indexed": false,
          "name": "input",
          "type": "bytes"
        },
        {
          "indexed": false,
          "name": "returnData",
          "type": "bytes"
        }
      ],
      "name": "ScriptResult",
      "type": "event"
    },
    {
      "anonymous": false,
      "inputs": [
        {
          "indexed": true,
          "name": "vault",
          "type": "address"
        },
        {
          "indexed": true,
          "name": "token",
          "type": "address"
        },
        {
          "indexed": false,
          "name": "amount",
          "type": "uint256"
        }
      ],
      "name": "RecoverToVault",
      "type": "event"
    },
    {
      "constant": false,
      "inputs": [
        {
          "name": "_ens",
          "type": "address"
        },
        {
          "name": "_rootNode",
          "type": "bytes32"
        }
      ],
      "name": "initialize",
      "outputs": [],
      "payable": false,
      "stateMutability": "nonpayable",
      "type": "function"
    },
    {
      "constant": false,
      "inputs": [
        {
          "name": "_label",
          "type": "bytes32"
        },
        {
          "name": "_owner",
          "type": "address"
        }
      ],
      "name": "createName",
      "outputs": [
        {
          "name": "node",
          "type": "bytes32"
        }
      ],
      "payable": false,
      "stateMutability": "nonpayable",
      "type": "function"
    },
    {
      "constant": false,
      "inputs": [
        {
          "name": "_label",
          "type": "bytes32"
        },
        {
          "name": "_target",
          "type": "address"
        }
      ],
      "name": "createNameAndPoint",
      "outputs": [
        {
          "name": "node",
          "type": "bytes32"
        }
      ],
      "payable": false,
      "stateMutability": "nonpayable",
      "type": "function"
    },
    {
      "constant": false,
      "inputs": [
        {
          "name": "_label",
          "type": "bytes32"
        }
      ],
      "name": "deleteName",
      "outputs": [],
      "payable": false,
      "stateMutability": "nonpayable",
      "type": "function"
    },
    {
      "constant": false,
      "inputs": [
        {
          "name": "_target",
          "type": "address"
        }
      ],
      "name": "pointRootNode",
      "outputs": [],
      "payable": false,
      "stateMutability": "nonpayable",
      "type": "function"
    }
  ],
  "bytecode": "0x60806040526200001d62000023640100000000026401000000009004565b62000309565b60006200003e6200015e640100000000026401000000009004565b146040805190810160405280601881526020017f494e49545f414c52454144595f494e495449414c495a4544000000000000000081525090151562000121576040517f08c379a00000000000000000000000000000000000000000000000000000000081526004018080602001828103825283818151815260200191508051906020019080838360005b83811015620000e5578082015181840152602081019050620000c8565b50505050905090810190601f168015620001135780820380516001836020036101000a031916815260200191505b509250505060405180910390fd5b506200015c7fffffffffffffffffffffffffffffffffffffffffffffffffffffffffffffffff620001ab640100000000026401000000009004565b565b6000620001a67febb05b386a8d34882b8711d156f463690983dc47815980fb82aeeff1aa43579e60010260001916620002f764010000000002620024b8176401000000009004565b905090565b6000620001c66200015e640100000000026401000000009004565b146040805190810160405280601881526020017f494e49545f414c52454144595f494e495449414c495a45440000000000000000815250901515620002a9576040517f08c379a00000000000000000000000000000000000000000000000000000000081526004018080602001828103825283818151815260200191508051906020019080838360005b838110156200026d57808201518184015260208101905062000250565b50505050905090810190601f1680156200029b5780820380516001836020036101000a031916815260200191505b509250505060405180910390fd5b50620002f4817febb05b386a8d34882b8711d156f463690983dc47815980fb82aeeff1aa43579e60010260001916620003026401000000000262002bdc179091906401000000009004565b50565b600081549050919050565b8082555050565b612c0f80620003196000396000f30060806040526004361061011d576000357c0100000000000000000000000000000000000000000000000000000000900463ffffffff1680630803fac0146101225780632914b9bd14610151578063307482cf146101fa57806332f0a3b51461022d5780633f15457f1461028457806365b0bc85146102db5780636b62cb1b146103485780637e7db6e1146103b557806380afdea8146104105780638b3dd749146104435780639d4941d81461046e578063a1658fad146104b1578063a479e5081461055d578063bdbf7d4c146105b4578063be13f47c146105e7578063d4aae0c414610638578063db6069311461068f578063dc371e54146106d2578063de4796ed14610703578063faff50a814610732578063fef47e3814610765575b600080fd5b34801561012e57600080fd5b50610137610798565b604051808215151515815260200191505060405180910390f35b34801561015d57600080fd5b506101b8600480360381019080803590602001908201803590602001908080601f01602080910402602001604051908101604052809392919081815260200183838082843782019150505050505091929192905050506107c3565b604051808273ffffffffffffffffffffffffffffffffffffffff1673ffffffffffffffffffffffffffffffffffffffff16815260200191505060405180910390f35b34801561020657600080fd5b5061020f6108e2565b60405180826000191660001916815260200191505060405180910390f35b34801561023957600080fd5b50610242610909565b604051808273ffffffffffffffffffffffffffffffffffffffff1673ffffffffffffffffffffffffffffffffffffffff16815260200191505060405180910390f35b34801561029057600080fd5b506102996109b6565b604051808273ffffffffffffffffffffffffffffffffffffffff1673ffffffffffffffffffffffffffffffffffffffff16815260200191505060405180910390f35b3480156102e757600080fd5b5061032a6004803603810190808035600019169060200190929190803573ffffffffffffffffffffffffffffffffffffffff1690602001909291905050506109db565b60405180826000191660001916815260200191505060405180910390f35b34801561035457600080fd5b506103976004803603810190808035600019169060200190929190803573ffffffffffffffffffffffffffffffffffffffff169060200190929190505050610b38565b60405180826000191660001916815260200191505060405180910390f35b3480156103c157600080fd5b506103f6600480360381019080803573ffffffffffffffffffffffffffffffffffffffff169060200190929190505050610c8b565b604051808215151515815260200191505060405180910390f35b34801561041c57600080fd5b50610425610c96565b60405180826000191660001916815260200191505060405180910390f35b34801561044f57600080fd5b50610458610ccd565b6040518082815260200191505060405180910390f35b34801561047a57600080fd5b506104af600480360381019080803573ffffffffffffffffffffffffffffffffffffffff169060200190929190505050610d04565b005b3480156104bd57600080fd5b50610543600480360381019080803573ffffffffffffffffffffffffffffffffffffffff169060200190929190803560001916906020019092919080359060200190820180359060200190808060200260200160405190810160405280939291908181526020018383602002808284378201915050505050509192919290505050611122565b604051808215151515815260200191505060405180910390f35b34801561056957600080fd5b5061057261131e565b604051808273ffffffffffffffffffffffffffffffffffffffff1673ffffffffffffffffffffffffffffffffffffffff16815260200191505060405180910390f35b3480156105c057600080fd5b506105c9611439565b60405180826000191660001916815260200191505060405180910390f35b3480156105f357600080fd5b50610636600480360381019080803573ffffffffffffffffffffffffffffffffffffffff1690602001909291908035600019169060200190929190505050611460565b005b34801561064457600080fd5b5061064d611760565b604051808273ffffffffffffffffffffffffffffffffffffffff1673ffffffffffffffffffffffffffffffffffffffff16815260200191505060405180910390f35b34801561069b57600080fd5b506106d0600480360381019080803573ffffffffffffffffffffffffffffffffffffffff169060200190929190505050611797565b005b3480156106de57600080fd5b5061070160048036038101908080356000191690602001909291905050506118e5565b005b34801561070f57600080fd5b50610718611f48565b604051808215151515815260200191505060405180910390f35b34801561073e57600080fd5b50610747611f79565b60405180826000191660001916815260200191505060405180910390f35b34801561077157600080fd5b5061077a611f7f565b60405180826000191660001916815260200191505060405180910390f35b6000806107a3610ccd565b9050600081141580156107bd5750806107ba611fa6565b10155b91505090565b60006107cd61131e565b73ffffffffffffffffffffffffffffffffffffffff166304bf2a7f836040518263ffffffff167c01000000000000000000000000000000000000000000000000000000000281526004018080602001828103825283818151815260200191508051906020019080838360005b83811015610854578082015181840152602081019050610839565b50505050905090810190601f1680156108815780820380516001836020036101000a031916815260200191505b5092505050602060405180830381600087803b1580156108a057600080fd5b505af11580156108b4573d6000803e3d6000fd5b505050506040513d60208110156108ca57600080fd5b81019080805190602001909291905050509050919050565b7f9ecd0e7bddb2e241c41b595a436c4ea4fd33c9fa0caa8056acf084fc3aa3bfbe60010281565b6000610913611760565b73ffffffffffffffffffffffffffffffffffffffff166332f0a3b56040518163ffffffff167c0100000000000000000000000000000000000000000000000000000000028152600401602060405180830381600087803b15801561097657600080fd5b505af115801561098a573d6000803e3d6000fd5b505050506040513d60208110156109a057600080fd5b8101908080519060200190929190505050905090565b6000809054906101000a900473ffffffffffffffffffffffffffffffffffffffff1681565b60007ff86bc2abe0919ab91ef714b2bec7c148d94f61fdb069b91a6cfe9ecdee1799ba600102610a3c33826000604051908082528060200260200182016040528015610a365781602001602082028038833980820191505090505b50611122565b6040805190810160405280600f81526020017f4150505f415554485f4641494c45440000000000000000000000000000000000815250901515610b1a576040517f08c379a00000000000000000000000000000000000000000000000000000000081526004018080602001828103825283818151815260200191508051906020019080838360005b83811015610adf578082015181840152602081019050610ac4565b50505050905090810190601f168015610b0c5780820380516001836020036101000a031916815260200191505b509250505060405180910390fd5b50610b258430611fae565b9150610b3182846122d1565b5092915050565b60007ff86bc2abe0919ab91ef714b2bec7c148d94f61fdb069b91a6cfe9ecdee1799ba600102610b9933826000604051908082528060200260200182016040528015610b935781602001602082028038833980820191505090505b50611122565b6040805190810160405280600f81526020017f4150505f415554485f4641494c45440000000000000000000000000000000000815250901515610c77576040517f08c379a00000000000000000000000000000000000000000000000000000000081526004018080602001828103825283818151815260200191508051906020019080838360005b83811015610c3c578082015181840152602081019050610c21565b50505050905090810190601f168015610c695780820380516001836020036101000a031916815260200191505b509250505060405180910390fd5b50610c828484611fae565b91505092915050565b600060019050919050565b6000610cc87fd625496217aa6a3453eecb9c3489dc5a53e6c67b444329ea2b2cbc9ff547639b600102600019166124ad565b905090565b6000610cff7febb05b386a8d34882b8711d156f463690983dc47815980fb82aeeff1aa43579e600102600019166124b8565b905090565b6000806000610d1284610c8b565b6040805190810160405280601281526020017f5245434f5645525f444953414c4c4f5745440000000000000000000000000000815250901515610df0576040517f08c379a00000000000000000000000000000000000000000000000000000000081526004018080602001828103825283818151815260200191508051906020019080838360005b83811015610db5578082015181840152602081019050610d9a565b50505050905090810190601f168015610de25780820380516001836020036101000a031916815260200191505b509250505060405180910390fd5b50610df9610909565b9250610e04836124c3565b6040805190810160405280601a81526020017f5245434f5645525f5641554c545f4e4f545f434f4e5452414354000000000000815250901515610ee2576040517f08c379a00000000000000000000000000000000000000000000000000000000081526004018080602001828103825283818151815260200191508051906020019080838360005b83811015610ea7578082015181840152602081019050610e8c565b50505050905090810190601f168015610ed45780820380516001836020036101000a031916815260200191505b509250505060405180910390fd5b50600073ffffffffffffffffffffffffffffffffffffffff168473ffffffffffffffffffffffffffffffffffffffff161415610f7e573073ffffffffffffffffffffffffffffffffffffffff163191508273ffffffffffffffffffffffffffffffffffffffff166108fc839081150290604051600060405180830381858888f19350505050158015610f78573d6000803e3d6000fd5b506110b7565b839050610faa308273ffffffffffffffffffffffffffffffffffffffff1661251590919063ffffffff16565b9150610fd783838373ffffffffffffffffffffffffffffffffffffffff166126ef9092919063ffffffff16565b6040805190810160405280601d81526020017f5245434f5645525f544f4b454e5f5452414e534645525f4641494c45440000008152509015156110b5576040517f08c379a00000000000000000000000000000000000000000000000000000000081526004018080602001828103825283818151815260200191508051906020019080838360005b8381101561107a57808201518184015260208101905061105f565b50505050905090810190601f1680156110a75780820380516001836020036101000a031916815260200191505b509250505060405180910390fd5b505b8373ffffffffffffffffffffffffffffffffffffffff168373ffffffffffffffffffffffffffffffffffffffff167f596caf56044b55fb8c4ca640089bbc2b63cae3e978b851f5745cbb7c5b288e02846040518082815260200191505060405180910390a350505050565b60008061112d610798565b151561113c5760009150611316565b611144611760565b9050600073ffffffffffffffffffffffffffffffffffffffff168173ffffffffffffffffffffffffffffffffffffffff1614156111845760009150611316565b8073ffffffffffffffffffffffffffffffffffffffff1663fdef91068630876111ac886127cf565b6040518563ffffffff167c0100000000000000000000000000000000000000000000000000000000028152600401808573ffffffffffffffffffffffffffffffffffffffff1673ffffffffffffffffffffffffffffffffffffffff1681526020018473ffffffffffffffffffffffffffffffffffffffff1673ffffffffffffffffffffffffffffffffffffffff168152602001836000191660001916815260200180602001828103825283818151815260200191508051906020019080838360005b8381101561128957808201518184015260208101905061126e565b50505050905090810190601f1680156112b65780820380516001836020036101000a031916815260200191505b5095505050505050602060405180830381600087803b1580156112d857600080fd5b505af11580156112ec573d6000803e3d6000fd5b505050506040513d602081101561130257600080fd5b810190808051906020019092919050505091505b509392505050565b600080611329611760565b73ffffffffffffffffffffffffffffffffffffffff1663be00bbd87fd6f028ca0e8edb4a8c9757ca4fdccab25fa1e0317da1188108f7d2dee14902fb6001027fddbcfd564f642ab5627cf68b9b7d374fb4f8a36e941a75d89c87998cef03bd616001026040518363ffffffff167c0100000000000000000000000000000000000000000000000000000000028152600401808360001916600019168152602001826000191660001916815260200192505050602060405180830381600087803b1580156113f557600080fd5b505af1158015611409573d6000803e3d6000fd5b505050506040513d602081101561141f57600080fd5b810190808051906020019092919050505090508091505090565b7f03d74c8724218ad4a99859bcb2d846d39999449fd18013dd8d69096627e6862260010281565b600061146a610ccd565b146040805190810160405280601881526020017f494e49545f414c52454144595f494e495449414c495a45440000000000000000815250901515611549576040517f08c379a00000000000000000000000000000000000000000000000000000000081526004018080602001828103825283818151815260200191508051906020019080838360005b8381101561150e5780820151818401526020810190506114f3565b50505050905090810190601f16801561153b5780820380516001836020036101000a031916815260200191505b509250505060405180910390fd5b506115526127e6565b3073ffffffffffffffffffffffffffffffffffffffff168273ffffffffffffffffffffffffffffffffffffffff166302571be3836040518263ffffffff167c0100000000000000000000000000000000000000000000000000000000028152600401808260001916600019168152602001915050602060405180830381600087803b1580156115e057600080fd5b505af11580156115f4573d6000803e3d6000fd5b505050506040513d602081101561160a57600080fd5b810190808051906020019092919050505073ffffffffffffffffffffffffffffffffffffffff16146040805190810160405280601881526020017f454e535355425f4e4f5f4e4f44455f4f574e4552534849500000000000000000815250901515611710576040517f08c379a00000000000000000000000000000000000000000000000000000000081526004018080602001828103825283818151815260200191508051906020019080838360005b838110156116d55780820151818401526020810190506116ba565b50505050905090810190601f1680156117025780820380516001836020036101000a031916815260200191505b509250505060405180910390fd5b50816000806101000a81548173ffffffffffffffffffffffffffffffffffffffff021916908373ffffffffffffffffffffffffffffffffffffffff16021790555080600181600019169055505050565b60006117927f4172f0f7d2289153072b0a6ca36959e0cbe2efc3afe50fc81636caa96338137b60010260001916612913565b905090565b7f9ecd0e7bddb2e241c41b595a436c4ea4fd33c9fa0caa8056acf084fc3aa3bfbe6001026117f6338260006040519080825280602002602001820160405280156117f05781602001602082028038833980820191505090505b50611122565b6040805190810160405280600f81526020017f4150505f415554485f4641494c454400000000000000000000000000000000008152509015156118d4576040517f08c379a00000000000000000000000000000000000000000000000000000000081526004018080602001828103825283818151815260200191508051906020019080838360005b8381101561189957808201518184015260208101905061187e565b50505050905090810190601f1680156118c65780820380516001836020036101000a031916815260200191505b509250505060405180910390fd5b506118e1600154836122d1565b5050565b6000807f03d74c8724218ad4a99859bcb2d846d39999449fd18013dd8d69096627e68622600102611947338260006040519080825280602002602001820160405280156119415781602001602082028038833980820191505090505b50611122565b6040805190810160405280600f81526020017f4150505f415554485f4641494c45440000000000000000000000000000000000815250901515611a25576040517f08c379a00000000000000000000000000000000000000000000000000000000081526004018080602001828103825283818151815260200191508051906020019080838360005b838110156119ea5780820151818401526020810190506119cf565b50505050905090810190601f168015611a175780820380516001836020036101000a031916815260200191505b509250505060405180910390fd5b50611a2f8461291e565b92506000809054906101000a900473ffffffffffffffffffffffffffffffffffffffff1673ffffffffffffffffffffffffffffffffffffffff166302571be3846040518263ffffffff167c0100000000000000000000000000000000000000000000000000000000028152600401808260001916600019168152602001915050602060405180830381600087803b158015611ac957600080fd5b505af1158015611add573d6000803e3d6000fd5b505050506040513d6020811015611af357600080fd5b81019080805190602001909291905050509150600073ffffffffffffffffffffffffffffffffffffffff168273ffffffffffffffffffffffffffffffffffffffff1614156040805190810160405280601381526020017f454e535355425f444f45534e545f455849535400000000000000000000000000815250901515611c15576040517f08c379a00000000000000000000000000000000000000000000000000000000081526004018080602001828103825283818151815260200191508051906020019080838360005b83811015611bda578082015181840152602081019050611bbf565b50505050905090810190601f168015611c075780820380516001836020036101000a031916815260200191505b509250505060405180910390fd5b503073ffffffffffffffffffffffffffffffffffffffff168273ffffffffffffffffffffffffffffffffffffffff16141515611d42576000809054906101000a900473ffffffffffffffffffffffffffffffffffffffff1673ffffffffffffffffffffffffffffffffffffffff166306ab592360015486306040518463ffffffff167c010000000000000000000000000000000000000000000000000000000002815260040180846000191660001916815260200183600019166000191681526020018273ffffffffffffffffffffffffffffffffffffffff1673ffffffffffffffffffffffffffffffffffffffff1681526020019350505050600060405180830381600087803b158015611d2957600080fd5b505af1158015611d3d573d6000803e3d6000fd5b505050505b6000809054906101000a900473ffffffffffffffffffffffffffffffffffffffff1673ffffffffffffffffffffffffffffffffffffffff16631896f70a8460006040518363ffffffff167c01000000000000000000000000000000000000000000000000000000000281526004018083600019166000191681526020018273ffffffffffffffffffffffffffffffffffffffff1673ffffffffffffffffffffffffffffffffffffffff16815260200192505050600060405180830381600087803b158015611e0f57600080fd5b505af1158015611e23573d6000803e3d6000fd5b505050506000809054906101000a900473ffffffffffffffffffffffffffffffffffffffff1673ffffffffffffffffffffffffffffffffffffffff16635b0fc9c38460006040518363ffffffff167c01000000000000000000000000000000000000000000000000000000000281526004018083600019166000191681526020018273ffffffffffffffffffffffffffffffffffffffff1673ffffffffffffffffffffffffffffffffffffffff16815260200192505050600060405180830381600087803b158015611ef457600080fd5b505af1158015611f08573d6000803e3d6000fd5b50505050836000191683600019167f49a4cd9bb38e10e402c44a680c5e13f710666ed683cb9cbbc131f7dc9f8b9d6060405160405180910390a350505050565b60007fffffffffffffffffffffffffffffffffffffffffffffffffffffffffffffffff611f73610ccd565b14905090565b60015481565b7ff86bc2abe0919ab91ef714b2bec7c148d94f61fdb069b91a6cfe9ecdee1799ba60010281565b600043905090565b6000611fb98361291e565b9050600073ffffffffffffffffffffffffffffffffffffffff166000809054906101000a900473ffffffffffffffffffffffffffffffffffffffff1673ffffffffffffffffffffffffffffffffffffffff166302571be3836040518263ffffffff167c0100000000000000000000000000000000000000000000000000000000028152600401808260001916600019168152602001915050602060405180830381600087803b15801561206b57600080fd5b505af115801561207f573d6000803e3d6000fd5b505050506040513d602081101561209557600080fd5b810190808051906020019092919050505073ffffffffffffffffffffffffffffffffffffffff16146040805190810160405280601281526020017f454e535355425f4e414d455f455849535453000000000000000000000000000081525090151561219b576040517f08c379a00000000000000000000000000000000000000000000000000000000081526004018080602001828103825283818151815260200191508051906020019080838360005b83811015612160578082015181840152602081019050612145565b50505050905090810190601f16801561218d5780820380516001836020036101000a031916815260200191505b509250505060405180910390fd5b506000809054906101000a900473ffffffffffffffffffffffffffffffffffffffff1673ffffffffffffffffffffffffffffffffffffffff166306ab592360015485856040518463ffffffff167c010000000000000000000000000000000000000000000000000000000002815260040180846000191660001916815260200183600019166000191681526020018273ffffffffffffffffffffffffffffffffffffffff1673ffffffffffffffffffffffffffffffffffffffff1681526020019350505050600060405180830381600087803b15801561227a57600080fd5b505af115801561228e573d6000803e3d6000fd5b50505050826000191681600019167f8f858576a6066f5ecb4d2f49d40fac9db317ff8d5f7610d58b616b657d7044cf60405160405180910390a380905092915050565b60006122ff7ffdd5d5de6dd63db72bbc2d487944ba13bf775b50a80805fe6fcaba9b0fba88f56001026129c3565b90506000809054906101000a900473ffffffffffffffffffffffffffffffffffffffff1673ffffffffffffffffffffffffffffffffffffffff16631896f70a84836040518363ffffffff167c01000000000000000000000000000000000000000000000000000000000281526004018083600019166000191681526020018273ffffffffffffffffffffffffffffffffffffffff1673ffffffffffffffffffffffffffffffffffffffff16815260200192505050600060405180830381600087803b1580156123cd57600080fd5b505af11580156123e1573d6000803e3d6000fd5b505050508073ffffffffffffffffffffffffffffffffffffffff1663d5fa2b0084846040518363ffffffff167c01000000000000000000000000000000000000000000000000000000000281526004018083600019166000191681526020018273ffffffffffffffffffffffffffffffffffffffff1673ffffffffffffffffffffffffffffffffffffffff16815260200192505050600060405180830381600087803b15801561249057600080fd5b505af11580156124a4573d6000803e3d6000fd5b50505050505050565b600081549050919050565b600081549050919050565b600080600073ffffffffffffffffffffffffffffffffffffffff168373ffffffffffffffffffffffffffffffffffffffff161415612504576000915061250f565b823b90506000811191505b50919050565b600060606000808573ffffffffffffffffffffffffffffffffffffffff166370a0823190507c01000000000000000000000000000000000000000000000000000000000285604051602401808273ffffffffffffffffffffffffffffffffffffffff1673ffffffffffffffffffffffffffffffffffffffff168152602001915050604051602081830303815290604052907bffffffffffffffffffffffffffffffffffffffffffffffffffffffff19166020820180517bffffffffffffffffffffffffffffffffffffffffffffffffffffffff838183161783525050505092506125ff8684612b55565b91509150816040805190810160405280601c81526020017f534146455f4552435f32305f42414c414e43455f5245564552544544000000008152509015156126e2576040517f08c379a00000000000000000000000000000000000000000000000000000000081526004018080602001828103825283818151815260200191508051906020019080838360005b838110156126a757808201518184015260208101905061268c565b50505050905090810190601f1680156126d45780820380516001836020036101000a031916815260200191505b509250505060405180910390fd5b5080935050505092915050565b6000606063a9059cbb7c0100000000000000000000000000000000000000000000000000000000028484604051602401808373ffffffffffffffffffffffffffffffffffffffff1673ffffffffffffffffffffffffffffffffffffffff16815260200182815260200192505050604051602081830303815290604052907bffffffffffffffffffffffffffffffffffffffffffffffffffffffff19166020820180517bffffffffffffffffffffffffffffffffffffffffffffffffffffffff838183161783525050505090506127c58582612b8a565b9150509392505050565b606060006020835102905082915080825250919050565b60006127f0610ccd565b146040805190810160405280601881526020017f494e49545f414c52454144595f494e495449414c495a454400000000000000008152509015156128cf576040517f08c379a00000000000000000000000000000000000000000000000000000000081526004018080602001828103825283818151815260200191508051906020019080838360005b83811015612894578082015181840152602081019050612879565b50505050905090810190601f1680156128c15780820380516001836020036101000a031916815260200191505b509250505060405180910390fd5b506129116128db611fa6565b7febb05b386a8d34882b8711d156f463690983dc47815980fb82aeeff1aa43579e60010260001916612bdc90919063ffffffff16565b565b600081549050919050565b6000600154826040516020018083600019166000191681526020018260001916600019168152602001925050506040516020818303038152906040526040518082805190602001908083835b60208310151561298f578051825260208201915060208101905060208303925061296a565b6001836020036101000a03801982511681845116808217855250505050505090500191505060405180910390209050919050565b6000806000809054906101000a900473ffffffffffffffffffffffffffffffffffffffff1673ffffffffffffffffffffffffffffffffffffffff16630178b8bf846040518263ffffffff167c0100000000000000000000000000000000000000000000000000000000028152600401808260001916600019168152602001915050602060405180830381600087803b158015612a5e57600080fd5b505af1158015612a72573d6000803e3d6000fd5b505050506040513d6020811015612a8857600080fd5b810190808051906020019092919050505090508073ffffffffffffffffffffffffffffffffffffffff16633b3b57de846040518263ffffffff167c0100000000000000000000000000000000000000000000000000000000028152600401808260001916600019168152602001915050602060405180830381600087803b158015612b1257600080fd5b505af1158015612b26573d6000803e3d6000fd5b505050506040513d6020811015612b3c57600080fd5b8101908080519060200190929190505050915050919050565b6000806000806040516020818751602089018a5afa92506000831115612b7a57805191505b5081819350935050509250929050565b6000806040516020818551602087016000895af16000811115612bd0573d60008114612bbd5760208114612bc657612bce565b60019350612bce565b600183511493505b505b50508091505092915050565b80825550505600a165627a7a72305820a1442aec8490f7eb4832fc175ccaac66aa996a47b0c52d0edbf0bcb380eb9aef0029",
  "source": "pragma solidity 0.4.24;\n\nimport \"../lib/ens/AbstractENS.sol\";\nimport \"../lib/ens/PublicResolver.sol\";\nimport \"./ENSConstants.sol\";\n\nimport \"../apps/AragonApp.sol\";\n\n\n/* solium-disable function-order */\n// Allow public initialize() to be first\ncontract ENSSubdomainRegistrar is AragonApp, ENSConstants {\n    /* Hardcoded constants to save gas\n    bytes32 public constant CREATE_NAME_ROLE = keccak256(\"CREATE_NAME_ROLE\");\n    bytes32 public constant DELETE_NAME_ROLE = keccak256(\"DELETE_NAME_ROLE\");\n    bytes32 public constant POINT_ROOTNODE_ROLE = keccak256(\"POINT_ROOTNODE_ROLE\");\n    */\n    bytes32 public constant CREATE_NAME_ROLE = 0xf86bc2abe0919ab91ef714b2bec7c148d94f61fdb069b91a6cfe9ecdee1799ba;\n    bytes32 public constant DELETE_NAME_ROLE = 0x03d74c8724218ad4a99859bcb2d846d39999449fd18013dd8d69096627e68622;\n    bytes32 public constant POINT_ROOTNODE_ROLE = 0x9ecd0e7bddb2e241c41b595a436c4ea4fd33c9fa0caa8056acf084fc3aa3bfbe;\n\n    string private constant ERROR_NO_NODE_OWNERSHIP = \"ENSSUB_NO_NODE_OWNERSHIP\";\n    string private constant ERROR_NAME_EXISTS = \"ENSSUB_NAME_EXISTS\";\n    string private constant ERROR_NAME_DOESNT_EXIST = \"ENSSUB_DOESNT_EXIST\";\n\n    AbstractENS public ens;\n    bytes32 public rootNode;\n\n    event NewName(bytes32 indexed node, bytes32 indexed label);\n    event DeleteName(bytes32 indexed node, bytes32 indexed label);\n\n    /**\n    * @dev Initialize can only be called once. It saves the block number in which it was initialized. This contract must be the owner of the `_rootNode` node so that it can create subdomains.\n    * @notice Initialize this ENSSubdomainRegistrar instance with `_ens` as the root ENS registry and `_rootNode` as the node to allocate subdomains under\n    * @param _ens Address of ENS registry\n    * @param _rootNode Node to allocate subdomains under\n    */\n    function initialize(AbstractENS _ens, bytes32 _rootNode) public onlyInit {\n        initialized();\n\n        // We need ownership to create subnodes\n        require(_ens.owner(_rootNode) == address(this), ERROR_NO_NODE_OWNERSHIP);\n\n        ens = _ens;\n        rootNode = _rootNode;\n    }\n\n    /**\n    * @notice Create a new ENS subdomain record for `_label` and assign ownership to `_owner`\n    * @param _label Label of new subdomain\n    * @param _owner Owner of new subdomain\n    * @return node Hash of created node\n    */\n    function createName(bytes32 _label, address _owner) external auth(CREATE_NAME_ROLE) returns (bytes32 node) {\n        return _createName(_label, _owner);\n    }\n\n    /**\n    * @notice Create a new ENS subdomain record for `_label` that resolves to `_target` and is owned by this ENSSubdomainRegistrar\n    * @param _label Label of new subdomain\n    * @param _target Ethereum address this new subdomain label will point to\n    * @return node Hash of created node\n    */\n    function createNameAndPoint(bytes32 _label, address _target) external auth(CREATE_NAME_ROLE) returns (bytes32 node) {\n        node = _createName(_label, this);\n        _pointToResolverAndResolve(node, _target);\n    }\n\n    /**\n    * @notice Deregister ENS subdomain record for `_label`\n    * @param _label Label of subdomain to deregister\n    */\n    function deleteName(bytes32 _label) external auth(DELETE_NAME_ROLE) {\n        bytes32 node = getNodeForLabel(_label);\n\n        address currentOwner = ens.owner(node);\n\n        require(currentOwner != address(0), ERROR_NAME_DOESNT_EXIST); // fail if deleting unset name\n\n        if (currentOwner != address(this)) { // needs to reclaim ownership so it can set resolver\n            ens.setSubnodeOwner(rootNode, _label, this);\n        }\n\n        ens.setResolver(node, address(0)); // remove resolver so it ends resolving\n        ens.setOwner(node, address(0));\n\n        emit DeleteName(node, _label);\n    }\n\n    /**\n    * @notice Resolve this ENSSubdomainRegistrar's root node to `_target`\n    * @param _target Ethereum address root node will point to\n    */\n    function pointRootNode(address _target) external auth(POINT_ROOTNODE_ROLE) {\n        _pointToResolverAndResolve(rootNode, _target);\n    }\n\n    function _createName(bytes32 _label, address _owner) internal returns (bytes32 node) {\n        node = getNodeForLabel(_label);\n        require(ens.owner(node) == address(0), ERROR_NAME_EXISTS); // avoid name reset\n\n        ens.setSubnodeOwner(rootNode, _label, _owner);\n\n        emit NewName(node, _label);\n\n        return node;\n    }\n\n    function _pointToResolverAndResolve(bytes32 _node, address _target) internal {\n        address publicResolver = getAddr(PUBLIC_RESOLVER_NODE);\n        ens.setResolver(_node, publicResolver);\n\n        PublicResolver(publicResolver).setAddr(_node, _target);\n    }\n\n    function getAddr(bytes32 node) internal view returns (address) {\n        address resolver = ens.resolver(node);\n        return PublicResolver(resolver).addr(node);\n    }\n\n    function getNodeForLabel(bytes32 _label) internal view returns (bytes32) {\n        return keccak256(abi.encodePacked(rootNode, _label));\n    }\n}\n",
  "sourcePath": "@aragon/os/contracts/ens/ENSSubdomainRegistrar.sol",
  "compiler": {
    "name": "solc",
    "version": "0.4.24+commit.e67f0147.Emscripten.clang"
  },
  "schemaVersion": "3.0.11",
  "updatedAt": "2019-07-23T10:27:47.321Z",
  "devdoc": {
    "methods": {
      "allowRecoverability(address)": {
        "details": "By default deriving from AragonApp makes it recoverable",
        "params": {
          "token": "Token address that would be recovered"
        },
        "return": "bool whether the app allows the recovery"
      },
      "canPerform(address,bytes32,uint256[])": {
        "details": "Check whether an action can be performed by a sender for a particular role on this app",
        "params": {
          "_params": "Permission params for the role",
          "_role": "Role on this app",
          "_sender": "Sender of the call"
        },
        "return": "Boolean indicating whether the sender has the permissions to perform the action.        Always returns false if the app hasn't been initialized yet."
      },
      "createName(bytes32,address)": {
        "params": {
          "_label": "Label of new subdomain",
          "_owner": "Owner of new subdomain"
        },
        "return": "node Hash of created node"
      },
      "createNameAndPoint(bytes32,address)": {
        "params": {
          "_label": "Label of new subdomain",
          "_target": "Ethereum address this new subdomain label will point to"
        },
        "return": "node Hash of created node"
      },
      "deleteName(bytes32)": {
        "params": {
          "_label": "Label of subdomain to deregister"
        }
      },
      "getInitializationBlock()": {
        "return": "Block number in which the contract was initialized"
      },
      "getRecoveryVault()": {
        "details": "Get the recovery vault for the app",
        "return": "Recovery vault address for the app"
      },
      "hasInitialized()": {
        "return": "Whether the contract has been initialized by the time of the current block"
      },
      "initialize(address,bytes32)": {
        "details": "Initialize can only be called once. It saves the block number in which it was initialized. This contract must be the owner of the `_rootNode` node so that it can create subdomains.",
        "params": {
          "_ens": "Address of ENS registry",
          "_rootNode": "Node to allocate subdomains under"
        }
      },
      "pointRootNode(address)": {
        "params": {
          "_target": "Ethereum address root node will point to"
        }
      },
      "transferToVault(address)": {
        "params": {
          "_token": "Token balance to be sent to recovery vault."
        }
      }
    }
  },
  "userdoc": {
    "methods": {
      "createName(bytes32,address)": {
        "notice": "Create a new ENS subdomain record for `_label` and assign ownership to `_owner`"
      },
      "createNameAndPoint(bytes32,address)": {
        "notice": "Create a new ENS subdomain record for `_label` that resolves to `_target` and is owned by this ENSSubdomainRegistrar"
      },
      "deleteName(bytes32)": {
        "notice": "Deregister ENS subdomain record for `_label`"
      },
      "initialize(address,bytes32)": {
        "notice": "Initialize this ENSSubdomainRegistrar instance with `_ens` as the root ENS registry and `_rootNode` as the node to allocate subdomains under"
      },
      "pointRootNode(address)": {
        "notice": "Resolve this ENSSubdomainRegistrar's root node to `_target`"
      },
      "transferToVault(address)": {
        "notice": "Send funds to recovery Vault. This contract should never receive funds,        but in case it does, this function allows one to recover them."
      }
    }
  }
}