{
  "contractName": "EVMScriptRegistryFactory",
  "abi": [
    {
      "constant": true,
      "inputs": [],
      "name": "baseReg",
      "outputs": [
        {
          "name": "",
          "type": "address"
        }
      ],
      "payable": false,
      "stateMutability": "view",
      "type": "function"
    },
    {
      "constant": true,
      "inputs": [],
      "name": "baseCallScript",
      "outputs": [
        {
          "name": "",
          "type": "address"
        }
      ],
      "payable": false,
      "stateMutability": "view",
      "type": "function"
    },
    {
      "inputs": [],
      "payable": false,
      "stateMutability": "nonpayable",
      "type": "constructor"
    },
    {
      "constant": false,
      "inputs": [
        {
          "name": "_dao",
          "type": "address"
        }
      ],
      "name": "newEVMScriptRegistry",
      "outputs": [
        {
          "name": "reg",
          "type": "address"
        }
      ],
      "payable": false,
      "stateMutability": "nonpayable",
      "type": "function"
    }
  ],
  "bytecode": "0x608060405234801561001057600080fd5b506100196100df565b604051809103906000f080158015610035573d6000803e3d6000fd5b506000806101000a81548173ffffffffffffffffffffffffffffffffffffffff021916908373ffffffffffffffffffffffffffffffffffffffff16021790555061007d6100ef565b604051809103906000f080158015610099573d6000803e3d6000fd5b50600160006101000a81548173ffffffffffffffffffffffffffffffffffffffff021916908373ffffffffffffffffffffffffffffffffffffffff1602179055506100ff565b6040516125c980610bc383390190565b604051610d088061318c83390190565b610ab58061010e6000396000f300608060405260043610610057576000357c0100000000000000000000000000000000000000000000000000000000900463ffffffff168063127d679c1461005c57806333404143146100b35780634de50a3a14610136575b600080fd5b34801561006857600080fd5b5061007161018d565b604051808273ffffffffffffffffffffffffffffffffffffffff1673ffffffffffffffffffffffffffffffffffffffff16815260200191505060405180910390f35b3480156100bf57600080fd5b506100f4600480360381019080803573ffffffffffffffffffffffffffffffffffffffff1690602001909291905050506101b2565b604051808273ffffffffffffffffffffffffffffffffffffffff1673ffffffffffffffffffffffffffffffffffffffff16815260200191505060405180910390f35b34801561014257600080fd5b5061014b610a63565b604051808273ffffffffffffffffffffffffffffffffffffffff1673ffffffffffffffffffffffffffffffffffffffff16815260200191505060405180910390f35b6000809054906101000a900473ffffffffffffffffffffffffffffffffffffffff1681565b6000606060008273ffffffffffffffffffffffffffffffffffffffff16638129fc1c90507c010000000000000000000000000000000000000000000000000000000002604051602401604051602081830303815290604052907bffffffffffffffffffffffffffffffffffffffffffffffffffffffff19166020820180517bffffffffffffffffffffffffffffffffffffffffffffffffffffffff838183161783525050505091508373ffffffffffffffffffffffffffffffffffffffff1663c050a7a67fddbcfd564f642ab5627cf68b9b7d374fb4f8a36e941a75d89c87998cef03bd616001026000809054906101000a900473ffffffffffffffffffffffffffffffffffffffff168560016040518563ffffffff167c01000000000000000000000000000000000000000000000000000000000281526004018085600019166000191681526020018473ffffffffffffffffffffffffffffffffffffffff1673ffffffffffffffffffffffffffffffffffffffff1681526020018060200183151515158152602001828103825284818151815260200191508051906020019080838360005b83811015610374578082015181840152602081019050610359565b50505050905090810190601f1680156103a15780820380516001836020036101000a031916815260200191505b5095505050505050602060405180830381600087803b1580156103c357600080fd5b505af11580156103d7573d6000803e3d6000fd5b505050506040513d60208110156103ed57600080fd5b810190808051906020019092919050505092508373ffffffffffffffffffffffffffffffffffffffff1663de2873596040518163ffffffff167c0100000000000000000000000000000000000000000000000000000000028152600401602060405180830381600087803b15801561046457600080fd5b505af1158015610478573d6000803e3d6000fd5b505050506040513d602081101561048e57600080fd5b810190808051906020019092919050505090508073ffffffffffffffffffffffffffffffffffffffff1663be03847830858673ffffffffffffffffffffffffffffffffffffffff166319f3d10f6040518163ffffffff167c0100000000000000000000000000000000000000000000000000000000028152600401602060405180830381600087803b15801561052357600080fd5b505af1158015610537573d6000803e3d6000fd5b505050506040513d602081101561054d57600080fd5b8101908080519060200190929190505050306040518563ffffffff167c0100000000000000000000000000000000000000000000000000000000028152600401808573ffffffffffffffffffffffffffffffffffffffff1673ffffffffffffffffffffffffffffffffffffffff1681526020018473ffffffffffffffffffffffffffffffffffffffff1673ffffffffffffffffffffffffffffffffffffffff16815260200183600019166000191681526020018273ffffffffffffffffffffffffffffffffffffffff1673ffffffffffffffffffffffffffffffffffffffff168152602001945050505050600060405180830381600087803b15801561065257600080fd5b505af1158015610666573d6000803e3d6000fd5b505050508273ffffffffffffffffffffffffffffffffffffffff166387a16f12600160009054906101000a900473ffffffffffffffffffffffffffffffffffffffff166040518263ffffffff167c0100000000000000000000000000000000000000000000000000000000028152600401808273ffffffffffffffffffffffffffffffffffffffff1673ffffffffffffffffffffffffffffffffffffffff168152602001915050602060405180830381600087803b15801561072757600080fd5b505af115801561073b573d6000803e3d6000fd5b505050506040513d602081101561075157600080fd5b8101908080519060200190929190505050508073ffffffffffffffffffffffffffffffffffffffff16639d0effdb30858673ffffffffffffffffffffffffffffffffffffffff166319f3d10f6040518163ffffffff167c0100000000000000000000000000000000000000000000000000000000028152600401602060405180830381600087803b1580156107e557600080fd5b505af11580156107f9573d6000803e3d6000fd5b505050506040513d602081101561080f57600080fd5b81019080805190602001909291905050506040518463ffffffff167c0100000000000000000000000000000000000000000000000000000000028152600401808473ffffffffffffffffffffffffffffffffffffffff1673ffffffffffffffffffffffffffffffffffffffff1681526020018373ffffffffffffffffffffffffffffffffffffffff1673ffffffffffffffffffffffffffffffffffffffff16815260200182600019166000191681526020019350505050600060405180830381600087803b1580156108e057600080fd5b505af11580156108f4573d6000803e3d6000fd5b505050508073ffffffffffffffffffffffffffffffffffffffff1663a885508a848573ffffffffffffffffffffffffffffffffffffffff166319f3d10f6040518163ffffffff167c0100000000000000000000000000000000000000000000000000000000028152600401602060405180830381600087803b15801561097957600080fd5b505af115801561098d573d6000803e3d6000fd5b505050506040513d60208110156109a357600080fd5b81019080805190602001909291905050506040518363ffffffff167c0100000000000000000000000000000000000000000000000000000000028152600401808373ffffffffffffffffffffffffffffffffffffffff1673ffffffffffffffffffffffffffffffffffffffff168152602001826000191660001916815260200192505050600060405180830381600087803b158015610a4157600080fd5b505af1158015610a55573d6000803e3d6000fd5b505050508292505050919050565b600160009054906101000a900473ffffffffffffffffffffffffffffffffffffffff16815600a165627a7a72305820d8ff56000d8fa4c809d78d5fb8c5f93cccbe1d6d001bd4de3985661b2350731a002960806040526200001d62000023640100000000026401000000009004565b62000309565b60006200003e6200015e640100000000026401000000009004565b146040805190810160405280601881526020017f494e49545f414c52454144595f494e495449414c495a4544000000000000000081525090151562000121576040517f08c379a00000000000000000000000000000000000000000000000000000000081526004018080602001828103825283818151815260200191508051906020019080838360005b83811015620000e5578082015181840152602081019050620000c8565b50505050905090810190601f168015620001135780820380516001836020036101000a031916815260200191505b509250505060405180910390fd5b506200015c7fffffffffffffffffffffffffffffffffffffffffffffffffffffffffffffffff620001ab640100000000026401000000009004565b565b6000620001a67febb05b386a8d34882b8711d156f463690983dc47815980fb82aeeff1aa43579e60010260001916620002f76401000000000262001e52176401000000009004565b905090565b6000620001c66200015e640100000000026401000000009004565b146040805190810160405280601881526020017f494e49545f414c52454144595f494e495449414c495a45440000000000000000815250901515620002a9576040517f08c379a00000000000000000000000000000000000000000000000000000000081526004018080602001828103825283818151815260200191508051906020019080838360005b838110156200026d57808201518184015260208101905062000250565b50505050905090810190601f1680156200029b5780820380516001836020036101000a031916815260200191505b509250505060405180910390fd5b50620002f4817febb05b386a8d34882b8711d156f463690983dc47815980fb82aeeff1aa43579e600102600019166200030264010000000002620021e5179091906401000000009004565b50565b600081549050919050565b8082555050565b6122b080620003196000396000f300608060405260043610610107576000357c0100000000000000000000000000000000000000000000000000000000900463ffffffff16806304bf2a7f1461010c5780630803fac0146101b557806319f3d10f146101e45780632914b9bd1461021757806332f0a3b5146102c05780635ca4d4bb146103175780637e7db6e11461034457806380afdea81461039f5780638129fc1c146103d257806387a16f12146103e95780638b3dd749146104405780639d4941d81461046b578063a1658fad146104ae578063a479e5081461055a578063bd8fde1c146105b1578063cff606a0146105e4578063d4aae0c414610611578063de4796ed14610668578063f97a05df14610697575b600080fd5b34801561011857600080fd5b50610173600480360381019080803590602001908201803590602001908080601f016020809104026020016040519081016040528093929190818152602001838380828437820191505050505050919291929050505061070f565b604051808273ffffffffffffffffffffffffffffffffffffffff1673ffffffffffffffffffffffffffffffffffffffff16815260200191505060405180910390f35b3480156101c157600080fd5b506101ca61086b565b604051808215151515815260200191505060405180910390f35b3480156101f057600080fd5b506101f9610896565b60405180826000191660001916815260200191505060405180910390f35b34801561022357600080fd5b5061027e600480360381019080803590602001908201803590602001908080601f01602080910402602001604051908101604052809392919081815260200183838082843782019150505050505091929192905050506108bd565b604051808273ffffffffffffffffffffffffffffffffffffffff1673ffffffffffffffffffffffffffffffffffffffff16815260200191505060405180910390f35b3480156102cc57600080fd5b506102d56109dc565b604051808273ffffffffffffffffffffffffffffffffffffffff1673ffffffffffffffffffffffffffffffffffffffff16815260200191505060405180910390f35b34801561032357600080fd5b5061034260048036038101908080359060200190929190505050610a89565b005b34801561035057600080fd5b50610385600480360381019080803573ffffffffffffffffffffffffffffffffffffffff169060200190929190505050610d33565b604051808215151515815260200191505060405180910390f35b3480156103ab57600080fd5b506103b4610d3e565b60405180826000191660001916815260200191505060405180910390f35b3480156103de57600080fd5b506103e7610d75565b005b3480156103f557600080fd5b5061042a600480360381019080803573ffffffffffffffffffffffffffffffffffffffff169060200190929190505050610e71565b6040518082815260200191505060405180910390f35b34801561044c57600080fd5b506104556110bd565b6040518082815260200191505060405180910390f35b34801561047757600080fd5b506104ac600480360381019080803573ffffffffffffffffffffffffffffffffffffffff1690602001909291905050506110f4565b005b3480156104ba57600080fd5b50610540600480360381019080803573ffffffffffffffffffffffffffffffffffffffff169060200190929190803560001916906020019092919080359060200190820180359060200190808060200260200160405190810160405280939291908181526020018383602002808284378201915050505050509192919290505050611512565b604051808215151515815260200191505060405180910390f35b34801561056657600080fd5b5061056f61170e565b604051808273ffffffffffffffffffffffffffffffffffffffff1673ffffffffffffffffffffffffffffffffffffffff16815260200191505060405180910390f35b3480156105bd57600080fd5b506105c6611829565b60405180826000191660001916815260200191505060405180910390f35b3480156105f057600080fd5b5061060f60048036038101908080359060200190929190505050611850565b005b34801561061d57600080fd5b50610626611bed565b604051808273ffffffffffffffffffffffffffffffffffffffff1673ffffffffffffffffffffffffffffffffffffffff16815260200191505060405180910390f35b34801561067457600080fd5b5061067d611c24565b604051808215151515815260200191505060405180910390f35b3480156106a357600080fd5b506106c260048036038101908080359060200190929190505050611c55565b604051808373ffffffffffffffffffffffffffffffffffffffff1673ffffffffffffffffffffffffffffffffffffffff168152602001821515151581526020019250505060405180910390f35b60008060006004845110156040805190810160405280601e81526020017f45564d5245475f5343524950545f4c454e4754485f544f4f5f53484f525400008152509015156107f8576040517f08c379a00000000000000000000000000000000000000000000000000000000081526004018080602001828103825283818151815260200191508051906020019080838360005b838110156107bd5780820151818401526020810190506107a2565b50505050905090810190601f1680156107ea5780820380516001836020036101000a031916815260200191505b509250505060405180910390fd5b5061080284611ca6565b63ffffffff1691506001600083815260200190815260200160002090508060000160149054906101000a900460ff1661083c576000610862565b8060000160009054906101000a900473ffffffffffffffffffffffffffffffffffffffff165b92505050919050565b6000806108766110bd565b90506000811415801561089057508061088d611cba565b10155b91505090565b7fc4e90f38eea8c4212a009ca7b8947943ba4d4a58d19b683417f65291d1cd9ed260010281565b60006108c761170e565b73ffffffffffffffffffffffffffffffffffffffff166304bf2a7f836040518263ffffffff167c01000000000000000000000000000000000000000000000000000000000281526004018080602001828103825283818151815260200191508051906020019080838360005b8381101561094e578082015181840152602081019050610933565b50505050905090810190601f16801561097b5780820380516001836020036101000a031916815260200191505b5092505050602060405180830381600087803b15801561099a57600080fd5b505af11580156109ae573d6000803e3d6000fd5b505050506040513d60208110156109c457600080fd5b81019080805190602001909291905050509050919050565b60006109e6611bed565b73ffffffffffffffffffffffffffffffffffffffff166332f0a3b56040518163ffffffff167c0100000000000000000000000000000000000000000000000000000000028152600401602060405180830381600087803b158015610a4957600080fd5b505af1158015610a5d573d6000803e3d6000fd5b505050506040513d6020811015610a7357600080fd5b8101908080519060200190929190505050905090565b60007ff7a450ef335e1892cb42c8ca72e7242359d7711924b75db5717410da3f614aa3600102610ab883611cc2565b610ac3338383611512565b6040805190810160405280600f81526020017f4150505f415554485f4641494c45440000000000000000000000000000000000815250901515610ba1576040517f08c379a00000000000000000000000000000000000000000000000000000000081526004018080602001828103825283818151815260200191508051906020019080838360005b83811015610b66578082015181840152602081019050610b4b565b50505050905090810190601f168015610b935780820380516001836020036101000a031916815260200191505b509250505060405180910390fd5b506001600085815260200190815260200160002092508260000160149054906101000a900460ff166040805190810160405280601881526020017f45564d5245475f4558454355544f525f44495341424c45440000000000000000815250901515610ca7576040517f08c379a00000000000000000000000000000000000000000000000000000000081526004018080602001828103825283818151815260200191508051906020019080838360005b83811015610c6c578082015181840152602081019050610c51565b50505050905090810190601f168015610c995780820380516001836020036101000a031916815260200191505b509250505060405180910390fd5b5060008360000160146101000a81548160ff0219169083151502179055508260000160009054906101000a900473ffffffffffffffffffffffffffffffffffffffff1673ffffffffffffffffffffffffffffffffffffffff16847fc13cd9238f8ab1e5ab1f95cde77e89288fe5c328d04739adffd57b144b408fd160405160405180910390a350505050565b600060019050919050565b6000610d707fd625496217aa6a3453eecb9c3489dc5a53e6c67b444329ea2b2cbc9ff547639b60010260001916611d1a565b905090565b6000610d7f6110bd565b146040805190810160405280601881526020017f494e49545f414c52454144595f494e495449414c495a45440000000000000000815250901515610e5e576040517f08c379a00000000000000000000000000000000000000000000000000000000081526004018080602001828103825283818151815260200191508051906020019080838360005b83811015610e23578082015181840152602081019050610e08565b50505050905090810190601f168015610e505780820380516001836020036101000a031916815260200191505b509250505060405180910390fd5b50610e67611d25565b6001600081905550565b6000807fc4e90f38eea8c4212a009ca7b8947943ba4d4a58d19b683417f65291d1cd9ed2600102610ed333826000604051908082528060200260200182016040528015610ecd5781602001602082028038833980820191505090505b50611512565b6040805190810160405280600f81526020017f4150505f415554485f4641494c45440000000000000000000000000000000000815250901515610fb1576040517f08c379a00000000000000000000000000000000000000000000000000000000081526004018080602001828103825283818151815260200191508051906020019080838360005b83811015610f76578082015181840152602081019050610f5b565b50505050905090810190601f168015610fa35780820380516001836020036101000a031916815260200191505b509250505060405180910390fd5b5060008081548092919060010191905055915060408051908101604052808573ffffffffffffffffffffffffffffffffffffffff168152602001600115158152506001600084815260200190815260200160002060008201518160000160006101000a81548173ffffffffffffffffffffffffffffffffffffffff021916908373ffffffffffffffffffffffffffffffffffffffff16021790555060208201518160000160146101000a81548160ff0219169083151502179055509050508373ffffffffffffffffffffffffffffffffffffffff16827f7697fa3288629310075a63816e294207c84f3cfc18ccf8e18eb917ec0bb5669960405160405180910390a38192505050919050565b60006110ef7febb05b386a8d34882b8711d156f463690983dc47815980fb82aeeff1aa43579e60010260001916611e52565b905090565b600080600061110284610d33565b6040805190810160405280601281526020017f5245434f5645525f444953414c4c4f57454400000000000000000000000000008152509015156111e0576040517f08c379a00000000000000000000000000000000000000000000000000000000081526004018080602001828103825283818151815260200191508051906020019080838360005b838110156111a557808201518184015260208101905061118a565b50505050905090810190601f1680156111d25780820380516001836020036101000a031916815260200191505b509250505060405180910390fd5b506111e96109dc565b92506111f483611e5d565b6040805190810160405280601a81526020017f5245434f5645525f5641554c545f4e4f545f434f4e54524143540000000000008152509015156112d2576040517f08c379a00000000000000000000000000000000000000000000000000000000081526004018080602001828103825283818151815260200191508051906020019080838360005b8381101561129757808201518184015260208101905061127c565b50505050905090810190601f1680156112c45780820380516001836020036101000a031916815260200191505b509250505060405180910390fd5b50600073ffffffffffffffffffffffffffffffffffffffff168473ffffffffffffffffffffffffffffffffffffffff16141561136e573073ffffffffffffffffffffffffffffffffffffffff163191508273ffffffffffffffffffffffffffffffffffffffff166108fc839081150290604051600060405180830381858888f19350505050158015611368573d6000803e3d6000fd5b506114a7565b83905061139a308273ffffffffffffffffffffffffffffffffffffffff16611eaf90919063ffffffff16565b91506113c783838373ffffffffffffffffffffffffffffffffffffffff166120899092919063ffffffff16565b6040805190810160405280601d81526020017f5245434f5645525f544f4b454e5f5452414e534645525f4641494c45440000008152509015156114a5576040517f08c379a00000000000000000000000000000000000000000000000000000000081526004018080602001828103825283818151815260200191508051906020019080838360005b8381101561146a57808201518184015260208101905061144f565b50505050905090810190601f1680156114975780820380516001836020036101000a031916815260200191505b509250505060405180910390fd5b505b8373ffffffffffffffffffffffffffffffffffffffff168373ffffffffffffffffffffffffffffffffffffffff167f596caf56044b55fb8c4ca640089bbc2b63cae3e978b851f5745cbb7c5b288e02846040518082815260200191505060405180910390a350505050565b60008061151d61086b565b151561152c5760009150611706565b611534611bed565b9050600073ffffffffffffffffffffffffffffffffffffffff168173ffffffffffffffffffffffffffffffffffffffff1614156115745760009150611706565b8073ffffffffffffffffffffffffffffffffffffffff1663fdef910686308761159c88612169565b6040518563ffffffff167c0100000000000000000000000000000000000000000000000000000000028152600401808573ffffffffffffffffffffffffffffffffffffffff1673ffffffffffffffffffffffffffffffffffffffff1681526020018473ffffffffffffffffffffffffffffffffffffffff1673ffffffffffffffffffffffffffffffffffffffff168152602001836000191660001916815260200180602001828103825283818151815260200191508051906020019080838360005b8381101561167957808201518184015260208101905061165e565b50505050905090810190601f1680156116a65780820380516001836020036101000a031916815260200191505b5095505050505050602060405180830381600087803b1580156116c857600080fd5b505af11580156116dc573d6000803e3d6000fd5b505050506040513d60208110156116f257600080fd5b810190808051906020019092919050505091505b509392505050565b600080611719611bed565b73ffffffffffffffffffffffffffffffffffffffff1663be00bbd87fd6f028ca0e8edb4a8c9757ca4fdccab25fa1e0317da1188108f7d2dee14902fb6001027fddbcfd564f642ab5627cf68b9b7d374fb4f8a36e941a75d89c87998cef03bd616001026040518363ffffffff167c0100000000000000000000000000000000000000000000000000000000028152600401808360001916600019168152602001826000191660001916815260200192505050602060405180830381600087803b1580156117e557600080fd5b505af11580156117f9573d6000803e3d6000fd5b505050506040513d602081101561180f57600080fd5b810190808051906020019092919050505090508091505090565b7ff7a450ef335e1892cb42c8ca72e7242359d7711924b75db5717410da3f614aa360010281565b60007ff7a450ef335e1892cb42c8ca72e7242359d7711924b75db5717410da3f614aa360010261187f83611cc2565b61188a338383611512565b6040805190810160405280600f81526020017f4150505f415554485f4641494c45440000000000000000000000000000000000815250901515611968576040517f08c379a00000000000000000000000000000000000000000000000000000000081526004018080602001828103825283818151815260200191508051906020019080838360005b8381101561192d578082015181840152602081019050611912565b50505050905090810190601f16801561195a5780820380516001836020036101000a031916815260200191505b509250505060405180910390fd5b508360008111801561197b575060005481105b6040805190810160405280601a81526020017f45564d5245475f494e4558495354454e545f4558454355544f52000000000000815250901515611a59576040517f08c379a00000000000000000000000000000000000000000000000000000000081526004018080602001828103825283818151815260200191508051906020019080838360005b83811015611a1e578082015181840152602081019050611a03565b50505050905090810190601f168015611a4b5780820380516001836020036101000a031916815260200191505b509250505060405180910390fd5b506001600086815260200190815260200160002093508360000160149054906101000a900460ff16156040805190810160405280601781526020017f45564d5245475f4558454355544f525f454e41424c4544000000000000000000815250901515611b60576040517f08c379a00000000000000000000000000000000000000000000000000000000081526004018080602001828103825283818151815260200191508051906020019080838360005b83811015611b25578082015181840152602081019050611b0a565b50505050905090810190601f168015611b525780820380516001836020036101000a031916815260200191505b509250505060405180910390fd5b5060018460000160146101000a81548160ff0219169083151502179055508360000160009054906101000a900473ffffffffffffffffffffffffffffffffffffffff1673ffffffffffffffffffffffffffffffffffffffff16857f7697fa3288629310075a63816e294207c84f3cfc18ccf8e18eb917ec0bb5669960405160405180910390a35050505050565b6000611c1f7f4172f0f7d2289153072b0a6ca36959e0cbe2efc3afe50fc81636caa96338137b60010260001916612180565b905090565b60007fffffffffffffffffffffffffffffffffffffffffffffffffffffffffffffffff611c4f6110bd565b14905090565b60016020528060005260406000206000915090508060000160009054906101000a900473ffffffffffffffffffffffffffffffffffffffff16908060000160149054906101000a900460ff16905082565b6000611cb382600061218b565b9050919050565b600043905090565b60606001604051908082528060200260200182016040528015611cf45781602001602082028038833980820191505090505b50905081816000815181101515611d0757fe5b9060200190602002018181525050919050565b600081549050919050565b6000611d2f6110bd565b146040805190810160405280601881526020017f494e49545f414c52454144595f494e495449414c495a45440000000000000000815250901515611e0e576040517f08c379a00000000000000000000000000000000000000000000000000000000081526004018080602001828103825283818151815260200191508051906020019080838360005b83811015611dd3578082015181840152602081019050611db8565b50505050905090810190601f168015611e005780820380516001836020036101000a031916815260200191505b509250505060405180910390fd5b50611e50611e1a611cba565b7febb05b386a8d34882b8711d156f463690983dc47815980fb82aeeff1aa43579e600102600019166121e590919063ffffffff16565b565b600081549050919050565b600080600073ffffffffffffffffffffffffffffffffffffffff168373ffffffffffffffffffffffffffffffffffffffff161415611e9e5760009150611ea9565b823b90506000811191505b50919050565b600060606000808573ffffffffffffffffffffffffffffffffffffffff166370a0823190507c01000000000000000000000000000000000000000000000000000000000285604051602401808273ffffffffffffffffffffffffffffffffffffffff1673ffffffffffffffffffffffffffffffffffffffff168152602001915050604051602081830303815290604052907bffffffffffffffffffffffffffffffffffffffffffffffffffffffff19166020820180517bffffffffffffffffffffffffffffffffffffffffffffffffffffffff83818316178352505050509250611f9986846121ec565b91509150816040805190810160405280601c81526020017f534146455f4552435f32305f42414c414e43455f52455645525445440000000081525090151561207c576040517f08c379a00000000000000000000000000000000000000000000000000000000081526004018080602001828103825283818151815260200191508051906020019080838360005b83811015612041578082015181840152602081019050612026565b50505050905090810190601f16801561206e5780820380516001836020036101000a031916815260200191505b509250505060405180910390fd5b5080935050505092915050565b6000606063a9059cbb7c0100000000000000000000000000000000000000000000000000000000028484604051602401808373ffffffffffffffffffffffffffffffffffffffff1673ffffffffffffffffffffffffffffffffffffffff16815260200182815260200192505050604051602081830303815290604052907bffffffffffffffffffffffffffffffffffffffffffffffffffffffff19166020820180517bffffffffffffffffffffffffffffffffffffffffffffffffffffffff8381831617835250505050905061215f8582612221565b9150509392505050565b606060006020835102905082915080825250919050565b600081549050919050565b6000806121988484612273565b90507c01000000000000000000000000000000000000000000000000000000007fffffffff0000000000000000000000000000000000000000000000000000000082160491505092915050565b8082555050565b6000806000806040516020818751602089018a5afa9250600083111561221157805191505b5081819350935050509250929050565b6000806040516020818551602087016000895af16000811115612267573d60008114612254576020811461225d57612265565b60019350612265565b600183511493505b505b50508091505092915050565b6000816020018301519050929150505600a165627a7a723058208fc2ccd9155ee22306ba43de3d280ecd6472ff51e5eba026d055de64371d40c20029608060405261001b610020640100000000026401000000009004565b6102f2565b6000610039610153640100000000026401000000009004565b146040805190810160405280601881526020017f494e49545f414c52454144595f494e495449414c495a45440000000000000000815250901515610118576040517f08c379a00000000000000000000000000000000000000000000000000000000081526004018080602001828103825283818151815260200191508051906020019080838360005b838110156100dd5780820151818401526020810190506100c2565b50505050905090810190601f16801561010a5780820380516001836020036101000a031916815260200191505b509250505060405180910390fd5b506101517fffffffffffffffffffffffffffffffffffffffffffffffffffffffffffffffff61019d640100000000026401000000009004565b565b60006101987febb05b386a8d34882b8711d156f463690983dc47815980fb82aeeff1aa43579e600102600019166102e0640100000000026109b8176401000000009004565b905090565b60006101b6610153640100000000026401000000009004565b146040805190810160405280601881526020017f494e49545f414c52454144595f494e495449414c495a45440000000000000000815250901515610295576040517f08c379a00000000000000000000000000000000000000000000000000000000081526004018080602001828103825283818151815260200191508051906020019080838360005b8381101561025a57808201518184015260208101905061023f565b50505050905090810190601f1680156102875780820380516001836020036101000a031916815260200191505b509250505060405180910390fd5b506102dd817febb05b386a8d34882b8711d156f463690983dc47815980fb82aeeff1aa43579e600102600019166102eb640100000000026109d4179091906401000000009004565b50565b600081549050919050565b8082555050565b610a07806103016000396000f30060806040526004361061006d576000357c0100000000000000000000000000000000000000000000000000000000900463ffffffff1680630803fac014610072578063279cea35146100a15780638333d9b2146101855780638b3dd749146101b8578063de4796ed146101e3575b600080fd5b34801561007e57600080fd5b50610087610212565b604051808215151515815260200191505060405180910390f35b3480156100ad57600080fd5b5061010a60048036038101908080359060200190820180359060200191909192939192939080359060200190820180359060200191909192939192939080359060200190820180359060200191909192939192939050505061023d565b6040518080602001828103825283818151815260200191508051906020019080838360005b8381101561014a57808201518184015260208101905061012f565b50505050905090810190601f1680156101775780820380516001836020036101000a031916815260200191505b509250505060405180910390f35b34801561019157600080fd5b5061019a610869565b60405180826000191660001916815260200191505060405180910390f35b3480156101c457600080fd5b506101cd610894565b6040518082815260200191505060405180910390f35b3480156101ef57600080fd5b506101f86108cb565b604051808215151515815260200191505060405180910390f35b60008061021d610894565b9050600081141580156102375750806102346108fc565b10155b91505090565b60606000806000806000806000610252610212565b6040805190810160405280601481526020017f494e49545f4e4f545f494e495449414c495a4544000000000000000000000000815250901515610330576040517f08c379a00000000000000000000000000000000000000000000000000000000081526004018080602001828103825283818151815260200191508051906020019080838360005b838110156102f55780820151818401526020810190506102da565b50505050905090810190601f1680156103225780820380516001836020036101000a031916815260200191505b509250505060405180910390fd5b50600496505b8d8d9050871015610858576018878f8f90500310156040805190810160405280601781526020017f45564d43414c4c535f494e56414c49445f4c454e475448000000000000000000815250901515610429576040517f08c379a00000000000000000000000000000000000000000000000000000000081526004018080602001828103825283818151815260200191508051906020019080838360005b838110156103ee5780820151818401526020810190506103d3565b50505050905090810190601f16801561041b5780820380516001836020036101000a031916815260200191505b509250505060405180910390fd5b5061046f878f8f8080601f01602080910402602001604051908101604052809392919081815260200183838082843782019150505050505061090490919063ffffffff16565b9550600094505b898990508510156105c757898986818110151561048f57fe5b9050602002013573ffffffffffffffffffffffffffffffffffffffff1673ffffffffffffffffffffffffffffffffffffffff168673ffffffffffffffffffffffffffffffffffffffff1614156040805190810160405280601981526020017f45564d43414c4c535f424c41434b4c49535445445f43414c4c000000000000008152509015156105b9576040517f08c379a00000000000000000000000000000000000000000000000000000000081526004018080602001828103825283818151815260200191508051906020019080838360005b8381101561057e578082015181840152602081019050610563565b50505050905090810190601f1680156105ab5780820380516001836020036101000a031916815260200191505b509250505060405180910390fd5b508480600101955050610476565b8573ffffffffffffffffffffffffffffffffffffffff163073ffffffffffffffffffffffffffffffffffffffff163373ffffffffffffffffffffffffffffffffffffffff167f9dcff9d94fbfdb4622d11edb383005f95e78efb446c72d92f8e615c6025c470360405160405180910390a4610680601488018f8f8080601f01602080910402602001604051908101604052809392919081815260200183838082843782019150505050505061094e90919063ffffffff16565b63ffffffff1693506004601488010192506106d6838f8f8080601f0160208091040260200160405190810160405280939291908181526020018383808284378201915050505050506109a890919063ffffffff16565b915083830196508d8d90508711156040805190810160405280601781526020017f45564d43414c4c535f494e56414c49445f4c454e4754480000000000000000008152509015156107c2576040517f08c379a00000000000000000000000000000000000000000000000000000000081526004018080602001828103825283818151815260200191508051906020019080838360005b8381101561078757808201518184015260208101905061076c565b50505050905090810190601f1680156107b45780820380516001836020036101000a031916815260200191505b509250505060405180910390fd5b50600080858460008a6113885a03f1905080600081146107e157610852565b6040513d600081146107f6573d6000833e3d82fd5b7f08c379a000000000000000000000000000000000000000000000000000000000825260206004830152601660248301527f45564d43414c4c535f43414c4c5f5245564552544544000000000000000000006044830152606482fd5b50610336565b505050505050509695505050505050565b60007f2dc858a00f3e417be1394b87c07158e989ec681ce8cc68a9093680ac1a870302600102905090565b60006108c67febb05b386a8d34882b8711d156f463690983dc47815980fb82aeeff1aa43579e600102600019166109b8565b905090565b60007fffffffffffffffffffffffffffffffffffffffffffffffffffffffffffffffff6108f6610894565b14905090565b600043905090565b60008061091184846109c3565b90506c010000000000000000000000007fffffffffffffffffffffffffffffffffffffffff00000000000000000000000082160491505092915050565b60008061095b84846109c3565b90507c01000000000000000000000000000000000000000000000000000000007fffffffff0000000000000000000000000000000000000000000000000000000082160491505092915050565b6000816020018301905092915050565b600081549050919050565b600081602001830151905092915050565b80825550505600a165627a7a7230582060b45fbac781929c34d9ee002ea468b542729135959cae386661aa1cda0ae4680029",
  "source": "pragma solidity 0.4.24;\n\nimport \"../evmscript/IEVMScriptExecutor.sol\";\nimport \"../evmscript/EVMScriptRegistry.sol\";\n\nimport \"../evmscript/executors/CallsScript.sol\";\n\nimport \"../kernel/Kernel.sol\";\nimport \"../acl/ACL.sol\";\n\n\ncontract EVMScriptRegistryFactory is EVMScriptRegistryConstants {\n    EVMScriptRegistry public baseReg;\n    IEVMScriptExecutor public baseCallScript;\n\n    /**\n    * @notice Create a new EVMScriptRegistryFactory.\n    */\n    constructor() public {\n        baseReg = new EVMScriptRegistry();\n        baseCallScript = IEVMScriptExecutor(new CallsScript());\n    }\n\n    /**\n    * @notice Install a new pinned instance of EVMScriptRegistry on `_dao`.\n    * @param _dao Kernel\n    * @return Installed EVMScriptRegistry\n    */\n    function newEVMScriptRegistry(Kernel _dao) public returns (EVMScriptRegistry reg) {\n        bytes memory initPayload = abi.encodeWithSelector(reg.initialize.selector);\n        reg = EVMScriptRegistry(_dao.newPinnedAppInstance(EVMSCRIPT_REGISTRY_APP_ID, baseReg, initPayload, true));\n\n        ACL acl = ACL(_dao.acl());\n\n        acl.createPermission(this, reg, reg.REGISTRY_ADD_EXECUTOR_ROLE(), this);\n\n        reg.addScriptExecutor(baseCallScript);     // spec 1 = CallsScript\n\n        // Clean up the permissions\n        acl.revokePermission(this, reg, reg.REGISTRY_ADD_EXECUTOR_ROLE());\n        acl.removePermissionManager(reg, reg.REGISTRY_ADD_EXECUTOR_ROLE());\n\n        return reg;\n    }\n}\n",
  "sourcePath": "@aragon/os/contracts/factory/EVMScriptRegistryFactory.sol",
  "compiler": {
    "name": "solc",
    "version": "0.4.24+commit.e67f0147.Emscripten.clang"
  },
  "schemaVersion": "3.0.11",
  "updatedAt": "2019-07-23T10:27:47.271Z",
  "devdoc": {
    "methods": {
      "newEVMScriptRegistry(address)": {
        "params": {
          "_dao": "Kernel"
        },
        "return": "Installed EVMScriptRegistry"
      }
    }
  },
  "userdoc": {
    "methods": {
      "newEVMScriptRegistry(address)": {
        "notice": "Install a new pinned instance of EVMScriptRegistry on `_dao`."
      }
    }
  }
}