{
  "contractName": "FIFSResolvingRegistrar",
  "abi": [
    {
      "constant": true,
      "inputs": [],
      "name": "rootNode",
      "outputs": [
        {
          "name": "",
          "type": "bytes32"
        }
      ],
      "payable": false,
      "stateMutability": "view",
      "type": "function"
    },
    {
      "inputs": [
        {
          "name": "_ensAddr",
          "type": "address"
        },
        {
          "name": "_defaultResolver",
          "type": "address"
        },
        {
          "name": "_node",
          "type": "bytes32"
        }
      ],
      "payable": false,
      "stateMutability": "nonpayable",
      "type": "constructor"
    },
    {
      "anonymous": false,
      "inputs": [
        {
          "indexed": true,
          "name": "subnode",
          "type": "bytes32"
        },
        {
          "indexed": true,
          "name": "owner",
          "type": "address"
        },
        {
          "indexed": true,
          "name": "resolver",
          "type": "address"
        }
      ],
      "name": "ClaimSubdomain",
      "type": "event"
    },
    {
      "constant": false,
      "inputs": [
        {
          "name": "_subnode",
          "type": "bytes32"
        },
        {
          "name": "_owner",
          "type": "address"
        }
      ],
      "name": "register",
      "outputs": [],
      "payable": false,
      "stateMutability": "nonpayable",
      "type": "function"
    },
    {
      "constant": false,
      "inputs": [
        {
          "name": "_subnode",
          "type": "bytes32"
        },
        {
          "name": "_owner",
          "type": "address"
        },
        {
          "name": "_resolver",
          "type": "address"
        }
      ],
      "name": "registerWithResolver",
      "outputs": [],
      "payable": false,
      "stateMutability": "nonpayable",
      "type": "function"
    }
  ],
  "bytecode": "0x608060405234801561001057600080fd5b506040516060806108db83398101806040528101908080519060200190929190805190602001909291908051906020019092919050505082600160006101000a81548173ffffffffffffffffffffffffffffffffffffffff021916908373ffffffffffffffffffffffffffffffffffffffff16021790555081600260006101000a81548173ffffffffffffffffffffffffffffffffffffffff021916908373ffffffffffffffffffffffffffffffffffffffff16021790555080600081600019169055505050506107f5806100e66000396000f300608060405260043610610057576000357c0100000000000000000000000000000000000000000000000000000000900463ffffffff168063d22057a91461005c578063f858fc0b146100ad578063faff50a81461011e575b600080fd5b34801561006857600080fd5b506100ab6004803603810190808035600019169060200190929190803573ffffffffffffffffffffffffffffffffffffffff169060200190929190505050610151565b005b3480156100b957600080fd5b5061011c6004803603810190808035600019169060200190929190803573ffffffffffffffffffffffffffffffffffffffff169060200190929190803573ffffffffffffffffffffffffffffffffffffffff169060200190929190505050610182565b005b34801561012a57600080fd5b506101336107c3565b60405180826000191660001916815260200191505060405180910390f35b61017e8282600260009054906101000a900473ffffffffffffffffffffffffffffffffffffffff16610182565b5050565b6000806000548560405180836000191660001916815260200182600019166000191681526020019250505060405180910390209150600160009054906101000a900473ffffffffffffffffffffffffffffffffffffffff1673ffffffffffffffffffffffffffffffffffffffff166302571be3836040518263ffffffff167c0100000000000000000000000000000000000000000000000000000000028152600401808260001916600019168152602001915050602060405180830381600087803b15801561025057600080fd5b505af1158015610264573d6000803e3d6000fd5b505050506040513d602081101561027a57600080fd5b81019080805190602001909291905050509050600073ffffffffffffffffffffffffffffffffffffffff168173ffffffffffffffffffffffffffffffffffffffff161415156102c857600080fd5b600160009054906101000a900473ffffffffffffffffffffffffffffffffffffffff1673ffffffffffffffffffffffffffffffffffffffff166306ab592360005487306040518463ffffffff167c010000000000000000000000000000000000000000000000000000000002815260040180846000191660001916815260200183600019166000191681526020018273ffffffffffffffffffffffffffffffffffffffff1673ffffffffffffffffffffffffffffffffffffffff1681526020019350505050600060405180830381600087803b1580156103a757600080fd5b505af11580156103bb573d6000803e3d6000fd5b50505050600160009054906101000a900473ffffffffffffffffffffffffffffffffffffffff1673ffffffffffffffffffffffffffffffffffffffff16631896f70a83856040518363ffffffff167c01000000000000000000000000000000000000000000000000000000000281526004018083600019166000191681526020018273ffffffffffffffffffffffffffffffffffffffff1673ffffffffffffffffffffffffffffffffffffffff16815260200192505050600060405180830381600087803b15801561048c57600080fd5b505af11580156104a0573d6000803e3d6000fd5b505050508273ffffffffffffffffffffffffffffffffffffffff166301ffc9a7633b3b57de7c0100000000000000000000000000000000000000000000000000000000026040518263ffffffff167c010000000000000000000000000000000000000000000000000000000002815260040180827bffffffffffffffffffffffffffffffffffffffffffffffffffffffff19167bffffffffffffffffffffffffffffffffffffffffffffffffffffffff19168152602001915050602060405180830381600087803b15801561057457600080fd5b505af1158015610588573d6000803e3d6000fd5b505050506040513d602081101561059e57600080fd5b810190808051906020019092919050505015610678578273ffffffffffffffffffffffffffffffffffffffff1663d5fa2b0083866040518363ffffffff167c01000000000000000000000000000000000000000000000000000000000281526004018083600019166000191681526020018273ffffffffffffffffffffffffffffffffffffffff1673ffffffffffffffffffffffffffffffffffffffff16815260200192505050600060405180830381600087803b15801561065f57600080fd5b505af1158015610673573d6000803e3d6000fd5b505050505b600160009054906101000a900473ffffffffffffffffffffffffffffffffffffffff1673ffffffffffffffffffffffffffffffffffffffff16635b0fc9c383866040518363ffffffff167c01000000000000000000000000000000000000000000000000000000000281526004018083600019166000191681526020018273ffffffffffffffffffffffffffffffffffffffff1673ffffffffffffffffffffffffffffffffffffffff16815260200192505050600060405180830381600087803b15801561074557600080fd5b505af1158015610759573d6000803e3d6000fd5b505050508273ffffffffffffffffffffffffffffffffffffffff168473ffffffffffffffffffffffffffffffffffffffff1686600019167fe27a5a369e0d2c5056ccfcbd5f83f145f43350142d42aaf46ff9a9e461d543df60405160405180910390a45050505050565b600054815600a165627a7a72305820215decabfbc397de23b6761be91a9c1b7689812c5619575c63b4b3702c230e0d0029",
  "source": "pragma solidity 0.4.24;\n\nimport \"@aragon/os/contracts/lib/ens/AbstractENS.sol\";\nimport \"./ens/IPublicResolver.sol\";\nimport \"./IFIFSResolvingRegistrar.sol\";\n\n\n/**\n * A registrar that allocates subdomains and sets resolvers to the first person to claim them.\n *\n * Adapted from ENS' FIFSRegistrar:\n *   https://github.com/ethereum/ens/blob/master/contracts/FIFSRegistrar.sol\n */\ncontract FIFSResolvingRegistrar is IFIFSResolvingRegistrar {\n    bytes32 public rootNode;\n    AbstractENS internal ens;\n    IPublicResolver internal defaultResolver;\n\n    bytes4 private constant ADDR_INTERFACE_ID = 0x3b3b57de;\n\n    event ClaimSubdomain(bytes32 indexed subnode, address indexed owner, address indexed resolver);\n\n    /**\n     * Constructor.\n     * @param _ensAddr The address of the ENS registry.\n     * @param _defaultResolver The address of the default resolver to use for subdomains.\n     * @param _node The node that this registrar administers.\n     */\n    constructor(AbstractENS _ensAddr, IPublicResolver _defaultResolver, bytes32 _node)\n        public\n    {\n        ens = _ensAddr;\n        defaultResolver = _defaultResolver;\n        rootNode = _node;\n    }\n\n    /**\n     * Register a subdomain with the default resolver if it hasn't been claimed yet.\n     * @param _subnode The hash of the label to register.\n     * @param _owner The address of the new owner.\n     */\n    function register(bytes32 _subnode, address _owner) external {\n        registerWithResolver(_subnode, _owner, defaultResolver);\n    }\n\n    /**\n     * Register a subdomain if it hasn't been claimed yet.\n     * @param _subnode The hash of the label to register.\n     * @param _owner The address of the new owner.\n     * @param _resolver The address of the resolver.\n     *                  If the resolver supports the address interface, the subdomain's address will\n     *                  be set to the new owner.\n     */\n    function registerWithResolver(bytes32 _subnode, address _owner, IPublicResolver _resolver) public {\n        bytes32 node = keccak256(rootNode, _subnode);\n        address currentOwner = ens.owner(node);\n        require(currentOwner == address(0));\n\n        ens.setSubnodeOwner(rootNode, _subnode, address(this));\n        ens.setResolver(node, _resolver);\n        if (_resolver.supportsInterface(ADDR_INTERFACE_ID)) {\n            _resolver.setAddr(node, _owner);\n        }\n\n        // Give ownership to the claimer\n        ens.setOwner(node, _owner);\n\n        emit ClaimSubdomain(_subnode, _owner, address(_resolver));\n    }\n}\n",
  "sourcePath": "@aragon/id/contracts/FIFSResolvingRegistrar.sol",
  "compiler": {
    "name": "solc",
    "version": "0.4.24+commit.e67f0147.Emscripten.clang"
  },
  "schemaVersion": "3.0.10",
  "updatedAt": "2019-07-01T12:48:23.466Z",
  "devdoc": {
    "methods": {
      "register(bytes32,address)": {
        "params": {
          "_owner": "The address of the new owner.",
          "_subnode": "The hash of the label to register."
        }
      },
      "registerWithResolver(bytes32,address,address)": {
        "params": {
          "_owner": "The address of the new owner.",
          "_resolver": "The address of the resolver.                 If the resolver supports the address interface, the subdomain's address will                 be set to the new owner.",
          "_subnode": "The hash of the label to register."
        }
      }
    }
  },
  "userdoc": {
    "methods": {
      "register(bytes32,address)": {
        "notice": "Register a subdomain with the default resolver if it hasn't been claimed yet."
      },
      "registerWithResolver(bytes32,address,address)": {
        "notice": "Register a subdomain if it hasn't been claimed yet."
      }
    }
  }
}