{
  "contractName": "Forwarder1",
  "abi": [
    {
      "constant": true,
      "inputs": [],
      "name": "target",
      "outputs": [
        {
          "name": "",
          "type": "address"
        }
      ],
      "payable": false,
      "stateMutability": "view",
      "type": "function"
    },
    {
      "payable": true,
      "stateMutability": "payable",
      "type": "fallback"
    }
  ],
  "bytecode": "0x608060405234801561001057600080fd5b50610180806100206000396000f300608060405260043610610041576000357c0100000000000000000000000000000000000000000000000000000000900463ffffffff168063d4b8399214610094575b61009273beefbeefbeefbeefbeefbeefbeefbeefbeefbeef6000368080601f0160208091040260200160405190810160405280939291908181526020018383808284378201915050505050506100eb565b005b3480156100a057600080fd5b506100a9610129565b604051808273ffffffffffffffffffffffffffffffffffffffff1673ffffffffffffffffffffffffffffffffffffffff16815260200191505060405180910390f35b6100f482610141565b15156100ff57600080fd5b600080825160208401856127105a03f43d604051816000823e8260008114610125578282f35b8282fd5b73beefbeefbeefbeefbeefbeefbeefbeefbeefbeef81565b600080823b9050600081119150509190505600a165627a7a72305820144734fcc804b3f034561533e7ca0d5369ac068ed4a8b28637ca6be1140288870029",
  "source": "pragma solidity ^0.4.18;\n\nimport  \"./ForwarderDelegateProxy.sol\";\n\ncontract Forwarder1 is ForwarderDelegateProxy {\n  // After compiling contract, `beefbeef...` is replaced in the bytecode by the real target address\n  address public constant target = 0xBEeFbeefbEefbeEFbeEfbEEfBEeFbeEfBeEfBeef; // checksumed to silence warning\n\n  /*\n  * @dev Forwards all calls to target\n  */\n  function() public payable {\n    delegatedFwd(target, msg.data);\n  }\n}",
  "sourcePath": "/Users/matus/www/district0x/district-registry/contracts/proxy/Forwarder1.sol",
  "compiler": {
    "name": "solc",
    "version": "0.4.24+commit.e67f0147.Emscripten.clang"
  },
  "schemaVersion": "3.0.11",
  "updatedAt": "2019-07-16T10:53:50.780Z",
  "devdoc": {
    "methods": {}
  },
  "userdoc": {
    "methods": {}
  }
}