{
  "contractName": "KitDistrict",
  "abi": [
    {
      "constant": true,
      "inputs": [],
      "name": "votingSupportRequiredPct",
      "outputs": [
        {
          "name": "",
          "type": "uint64"
        }
      ],
      "payable": false,
      "stateMutability": "view",
      "type": "function"
    },
    {
      "constant": false,
      "inputs": [
        {
          "name": "owner_",
          "type": "address"
        }
      ],
      "name": "setOwner",
      "outputs": [],
      "payable": false,
      "stateMutability": "nonpayable",
      "type": "function"
    },
    {
      "constant": true,
      "inputs": [],
      "name": "votingVoteTime",
      "outputs": [
        {
          "name": "",
          "type": "uint64"
        }
      ],
      "payable": false,
      "stateMutability": "view",
      "type": "function"
    },
    {
      "constant": true,
      "inputs": [],
      "name": "ens",
      "outputs": [
        {
          "name": "",
          "type": "address"
        }
      ],
      "payable": false,
      "stateMutability": "view",
      "type": "function"
    },
    {
      "constant": true,
      "inputs": [
        {
          "name": "",
          "type": "uint8"
        }
      ],
      "name": "includeApp",
      "outputs": [
        {
          "name": "",
          "type": "bool"
        }
      ],
      "payable": false,
      "stateMutability": "view",
      "type": "function"
    },
    {
      "constant": true,
      "inputs": [],
      "name": "financePeriodDuration",
      "outputs": [
        {
          "name": "",
          "type": "uint64"
        }
      ],
      "payable": false,
      "stateMutability": "view",
      "type": "function"
    },
    {
      "constant": false,
      "inputs": [
        {
          "name": "authority_",
          "type": "address"
        }
      ],
      "name": "setAuthority",
      "outputs": [],
      "payable": false,
      "stateMutability": "nonpayable",
      "type": "function"
    },
    {
      "constant": true,
      "inputs": [],
      "name": "owner",
      "outputs": [
        {
          "name": "",
          "type": "address"
        }
      ],
      "payable": false,
      "stateMutability": "view",
      "type": "function"
    },
    {
      "constant": true,
      "inputs": [],
      "name": "authority",
      "outputs": [
        {
          "name": "",
          "type": "address"
        }
      ],
      "payable": false,
      "stateMutability": "view",
      "type": "function"
    },
    {
      "constant": true,
      "inputs": [],
      "name": "fac",
      "outputs": [
        {
          "name": "",
          "type": "address"
        }
      ],
      "payable": false,
      "stateMutability": "view",
      "type": "function"
    },
    {
      "constant": true,
      "inputs": [
        {
          "name": "appId",
          "type": "bytes32"
        }
      ],
      "name": "latestVersionAppBase",
      "outputs": [
        {
          "name": "base",
          "type": "address"
        }
      ],
      "payable": false,
      "stateMutability": "view",
      "type": "function"
    },
    {
      "constant": true,
      "inputs": [],
      "name": "aragonID",
      "outputs": [
        {
          "name": "",
          "type": "address"
        }
      ],
      "payable": false,
      "stateMutability": "view",
      "type": "function"
    },
    {
      "constant": true,
      "inputs": [
        {
          "name": "",
          "type": "uint256"
        }
      ],
      "name": "appIds",
      "outputs": [
        {
          "name": "",
          "type": "bytes32"
        }
      ],
      "payable": false,
      "stateMutability": "view",
      "type": "function"
    },
    {
      "constant": true,
      "inputs": [],
      "name": "votingMinAcceptQuorumPct",
      "outputs": [
        {
          "name": "",
          "type": "uint64"
        }
      ],
      "payable": false,
      "stateMutability": "view",
      "type": "function"
    },
    {
      "inputs": [
        {
          "name": "_fac",
          "type": "address"
        },
        {
          "name": "_ens",
          "type": "address"
        },
        {
          "name": "_aragonID",
          "type": "address"
        },
        {
          "name": "_includeApps",
          "type": "uint8[]"
        }
      ],
      "payable": false,
      "stateMutability": "nonpayable",
      "type": "constructor"
    },
    {
      "anonymous": false,
      "inputs": [
        {
          "indexed": true,
          "name": "authority",
          "type": "address"
        }
      ],
      "name": "LogSetAuthority",
      "type": "event"
    },
    {
      "anonymous": false,
      "inputs": [
        {
          "indexed": true,
          "name": "owner",
          "type": "address"
        }
      ],
      "name": "LogSetOwner",
      "type": "event"
    },
    {
      "anonymous": false,
      "inputs": [
        {
          "indexed": false,
          "name": "dao",
          "type": "address"
        }
      ],
      "name": "DeployInstance",
      "type": "event"
    },
    {
      "anonymous": false,
      "inputs": [
        {
          "indexed": false,
          "name": "appProxy",
          "type": "address"
        },
        {
          "indexed": false,
          "name": "appId",
          "type": "bytes32"
        }
      ],
      "name": "InstalledApp",
      "type": "event"
    },
    {
      "constant": false,
      "inputs": [
        {
          "name": "_aragonId",
          "type": "string"
        },
        {
          "name": "_token",
          "type": "address"
        },
        {
          "name": "_creator",
          "type": "address"
        }
      ],
      "name": "createDAO",
      "outputs": [
        {
          "name": "dao",
          "type": "address"
        }
      ],
      "payable": false,
      "stateMutability": "nonpayable",
      "type": "function"
    },
    {
      "constant": false,
      "inputs": [
        {
          "name": "_votingSupportRequiredPct",
          "type": "uint64"
        }
      ],
      "name": "setVotingSupportRequiredPct",
      "outputs": [],
      "payable": false,
      "stateMutability": "nonpayable",
      "type": "function"
    },
    {
      "constant": false,
      "inputs": [
        {
          "name": "_votingMinAcceptQuorumPct",
          "type": "uint64"
        }
      ],
      "name": "setVotingMinAcceptQuorumPct",
      "outputs": [],
      "payable": false,
      "stateMutability": "nonpayable",
      "type": "function"
    },
    {
      "constant": false,
      "inputs": [
        {
          "name": "_votingVoteTime",
          "type": "uint64"
        }
      ],
      "name": "setVotingVoteTime",
      "outputs": [],
      "payable": false,
      "stateMutability": "nonpayable",
      "type": "function"
    },
    {
      "constant": false,
      "inputs": [
        {
          "name": "_financePeriodDuration",
          "type": "uint64"
        }
      ],
      "name": "setFinancePeriodDuration",
      "outputs": [],
      "payable": false,
      "stateMutability": "nonpayable",
      "type": "function"
    },
    {
      "constant": false,
      "inputs": [
        {
          "name": "_includeApps",
          "type": "uint8[]"
        },
        {
          "name": "_isIncluded",
          "type": "bool[]"
        }
      ],
      "name": "setAppsIncluded",
      "outputs": [],
      "payable": false,
      "stateMutability": "nonpayable",
      "type": "function"
    },
    {
      "constant": false,
      "inputs": [
        {
          "name": "_app",
          "type": "uint8"
        },
        {
          "name": "_isIncluded",
          "type": "bool"
        }
      ],
      "name": "setAppIncluded",
      "outputs": [],
      "payable": false,
      "stateMutability": "nonpayable",
      "type": "function"
    },
    {
      "constant": true,
      "inputs": [
        {
          "name": "_app",
          "type": "uint8"
        }
      ],
      "name": "isAppIncluded",
      "outputs": [
        {
          "name": "",
          "type": "bool"
        }
      ],
      "payable": false,
      "stateMutability": "view",
      "type": "function"
    }
  ],
  "bytecode": "0x60806040526022600860006101000a81548167ffffffffffffffff021916908367ffffffffffffffff16021790555060088060086101000a81548167ffffffffffffffff021916908367ffffffffffffffff1602179055506203f480600860106101000a81548167ffffffffffffffff021916908367ffffffffffffffff16021790555062278d00600860186101000a81548167ffffffffffffffff021916908367ffffffffffffffff160217905550348015620000bc57600080fd5b506040516200467638038062004676833981018060405281019080805190602001909291908051906020019092919080519060200190929190805182019291905050506000848481600160006101000a81548173ffffffffffffffffffffffffffffffffffffffff021916908373ffffffffffffffffffffffffffffffffffffffff160217905550806000806101000a81548173ffffffffffffffffffffffffffffffffffffffff021916908373ffffffffffffffffffffffffffffffffffffffff160217905550505033600360006101000a81548173ffffffffffffffffffffffffffffffffffffffff021916908373ffffffffffffffffffffffffffffffffffffffff1602179055503373ffffffffffffffffffffffffffffffffffffffff167fce241d7ca1f669fee44b6fc00b8eba2df3bb514eed0f6f668f8f89096e81ed9460405160405180910390a2620002c58573ffffffffffffffffffffffffffffffffffffffff1663656362b56040518163ffffffff167c0100000000000000000000000000000000000000000000000000000000028152600401602060405180830381600087803b1580156200027357600080fd5b505af115801562000288573d6000803e3d6000fd5b505050506040513d60208110156200029f57600080fd5b8101908080519060200190929190505050620004d1640100000000026401000000009004565b1515620002d157600080fd5b82600460006101000a81548173ffffffffffffffffffffffffffffffffffffffff021916908373ffffffffffffffffffffffffffffffffffffffff160217905550620003616040805190810160405280600681526020017f766f74696e67000000000000000000000000000000000000000000000000000081525062000525640100000000026401000000009004565b6005600060028111156200037157fe5b60ff166003811015156200038157fe5b018160001916905550620003d96040805190810160405280600581526020017f7661756c7400000000000000000000000000000000000000000000000000000081525062000525640100000000026401000000009004565b600560016002811115620003e957fe5b60ff16600381101515620003f957fe5b018160001916905550620004516040805190810160405280600781526020017f66696e616e63650000000000000000000000000000000000000000000000000081525062000525640100000000026401000000009004565b60056002808111156200046057fe5b60ff166003811015156200047057fe5b0181600019169055505b8151811015620004c657620004b882828151811015156200049757fe5b90602001906020020151600162000651640100000000026401000000009004565b80806001019150506200047a565b50505050506200095f565b600080600073ffffffffffffffffffffffffffffffffffffffff168373ffffffffffffffffffffffffffffffffffffffff1614156200051457600091506200051f565b823b90506000811191505b50919050565b60007f9065c3e7f7b7ef1ef4e53d2d0b8e0cef02874ab020c1ece79d5f0d3d0111c0ba600102826040518082805190602001908083835b6020831015156200058357805182526020820191506020810190506020830392506200055c565b6001836020036101000a03801982511681845116808217855250505050505090500191505060405180910390206040516020018083600019166000191681526020018260001916600019168152602001925050506040516020818303038152906040526040518082805190602001908083835b6020831015156200061d5780518252602082019150602081019050602083039250620005f6565b6001836020036101000a03801982511681845116808217855250505050505090500191505060405180910390209050919050565b62000690336000357fffffffff0000000000000000000000000000000000000000000000000000000016620006dd640100000000026401000000009004565b15156200069c57600080fd5b8060096000846002811115620006ae57fe5b60ff1660ff16815260200190815260200160002060006101000a81548160ff0219169083151502179055505050565b60003073ffffffffffffffffffffffffffffffffffffffff168373ffffffffffffffffffffffffffffffffffffffff1614156200071e576001905062000959565b600360009054906101000a900473ffffffffffffffffffffffffffffffffffffffff1673ffffffffffffffffffffffffffffffffffffffff168373ffffffffffffffffffffffffffffffffffffffff1614156200077f576001905062000959565b600073ffffffffffffffffffffffffffffffffffffffff16600260009054906101000a900473ffffffffffffffffffffffffffffffffffffffff1673ffffffffffffffffffffffffffffffffffffffff161415620007e1576000905062000959565b600260009054906101000a900473ffffffffffffffffffffffffffffffffffffffff1673ffffffffffffffffffffffffffffffffffffffff1663b70096138430856040518463ffffffff167c0100000000000000000000000000000000000000000000000000000000028152600401808473ffffffffffffffffffffffffffffffffffffffff1673ffffffffffffffffffffffffffffffffffffffff1681526020018373ffffffffffffffffffffffffffffffffffffffff1673ffffffffffffffffffffffffffffffffffffffff168152602001827bffffffffffffffffffffffffffffffffffffffffffffffffffffffff19167bffffffffffffffffffffffffffffffffffffffffffffffffffffffff191681526020019350505050602060405180830381600087803b1580156200091957600080fd5b505af11580156200092e573d6000803e3d6000fd5b505050506040513d60208110156200094557600080fd5b810190808051906020019092919050505090505b92915050565b613d07806200096f6000396000f300608060405260043610610128576000357c0100000000000000000000000000000000000000000000000000000000900463ffffffff168063055ae9531461012d57806313321a83146101d657806313af4035146102155780631bdba13814610258578063311f7d4c146102975780633f15457f146102df5780634abb0ee9146103365780634ae5d4c8146103725780635ae15645146103a957806362fd8efc146103f1578063650d110b146104da578063747f9f7c146105195780637a9e5e4b146105505780638da5cb5b14610593578063907d4721146105ea578063bf7e214f14610621578063c3b3147214610678578063c6d2c717146106cf578063d165603f14610740578063ef41afcd14610797578063fac3b5eb146107e0578063fc5f259a1461081f575b600080fd5b34801561013957600080fd5b506101d46004803603810190808035906020019082018035906020019080806020026020016040519081016040528093929190818152602001838360200280828437820191505050505050919291929080359060200190820180359060200190808060200260200160405190810160405280939291908181526020018383602002808284378201915050505050509192919290505050610856565b005b3480156101e257600080fd5b506101eb6108f5565b604051808267ffffffffffffffff1667ffffffffffffffff16815260200191505060405180910390f35b34801561022157600080fd5b50610256600480360381019080803573ffffffffffffffffffffffffffffffffffffffff16906020019092919050505061090f565b005b34801561026457600080fd5b5061026d6109f1565b604051808267ffffffffffffffff1667ffffffffffffffff16815260200191505060405180910390f35b3480156102a357600080fd5b506102c5600480360381019080803560ff169060200190929190505050610a0b565b604051808215151515815260200191505060405180910390f35b3480156102eb57600080fd5b506102f4610a46565b604051808273ffffffffffffffffffffffffffffffffffffffff1673ffffffffffffffffffffffffffffffffffffffff16815260200191505060405180910390f35b34801561034257600080fd5b50610370600480360381019080803560ff169060200190929190803515159060200190929190505050610a6b565b005b34801561037e57600080fd5b506103a7600480360381019080803567ffffffffffffffff169060200190929190505050610ae4565b005b3480156103b557600080fd5b506103d7600480360381019080803560ff169060200190929190505050610b48565b604051808215151515815260200191505060405180910390f35b3480156103fd57600080fd5b50610498600480360381019080803590602001908201803590602001908080601f0160208091040260200160405190810160405280939291908181526020018383808284378201915050505050509192919290803573ffffffffffffffffffffffffffffffffffffffff169060200190929190803573ffffffffffffffffffffffffffffffffffffffff169060200190929190505050610b68565b604051808273ffffffffffffffffffffffffffffffffffffffff1673ffffffffffffffffffffffffffffffffffffffff16815260200191505060405180910390f35b3480156104e657600080fd5b506104ef61302b565b604051808267ffffffffffffffff1667ffffffffffffffff16815260200191505060405180910390f35b34801561052557600080fd5b5061054e600480360381019080803567ffffffffffffffff169060200190929190505050613045565b005b34801561055c57600080fd5b50610591600480360381019080803573ffffffffffffffffffffffffffffffffffffffff1690602001909291905050506130aa565b005b34801561059f57600080fd5b506105a861318c565b604051808273ffffffffffffffffffffffffffffffffffffffff1673ffffffffffffffffffffffffffffffffffffffff16815260200191505060405180910390f35b3480156105f657600080fd5b5061061f600480360381019080803567ffffffffffffffff1690602001909291905050506131b2565b005b34801561062d57600080fd5b50610636613217565b604051808273ffffffffffffffffffffffffffffffffffffffff1673ffffffffffffffffffffffffffffffffffffffff16815260200191505060405180910390f35b34801561068457600080fd5b5061068d61323d565b604051808273ffffffffffffffffffffffffffffffffffffffff1673ffffffffffffffffffffffffffffffffffffffff16815260200191505060405180910390f35b3480156106db57600080fd5b506106fe6004803603810190808035600019169060200190929190505050613263565b604051808273ffffffffffffffffffffffffffffffffffffffff1673ffffffffffffffffffffffffffffffffffffffff16815260200191505060405180910390f35b34801561074c57600080fd5b50610755613502565b604051808273ffffffffffffffffffffffffffffffffffffffff1673ffffffffffffffffffffffffffffffffffffffff16815260200191505060405180910390f35b3480156107a357600080fd5b506107c260048036038101908080359060200190929190505050613528565b60405180826000191660001916815260200191505060405180910390f35b3480156107ec57600080fd5b506107f5613542565b604051808267ffffffffffffffff1667ffffffffffffffff16815260200191505060405180910390f35b34801561082b57600080fd5b50610854600480360381019080803567ffffffffffffffff16906020019092919050505061355b565b005b6000610886336000357fffffffff00000000000000000000000000000000000000000000000000000000166135c0565b151561089157600080fd5b815183511415156108a157600080fd5b5b82518110156108f0576108e383828151811015156108bc57fe5b9060200190602002015183838151811015156108d457fe5b90602001906020020151610a6b565b80806001019150506108a2565b505050565b600860009054906101000a900467ffffffffffffffff1681565b61093d336000357fffffffff00000000000000000000000000000000000000000000000000000000166135c0565b151561094857600080fd5b80600360006101000a81548173ffffffffffffffffffffffffffffffffffffffff021916908373ffffffffffffffffffffffffffffffffffffffff160217905550600360009054906101000a900473ffffffffffffffffffffffffffffffffffffffff1673ffffffffffffffffffffffffffffffffffffffff167fce241d7ca1f669fee44b6fc00b8eba2df3bb514eed0f6f668f8f89096e81ed9460405160405180910390a250565b600860109054906101000a900467ffffffffffffffff1681565b600060096000836002811115610a1d57fe5b60ff1660ff16815260200190815260200160002060009054906101000a900460ff169050919050565b6000809054906101000a900473ffffffffffffffffffffffffffffffffffffffff1681565b610a99336000357fffffffff00000000000000000000000000000000000000000000000000000000166135c0565b1515610aa457600080fd5b8060096000846002811115610ab557fe5b60ff1660ff16815260200190815260200160002060006101000a81548160ff0219169083151502179055505050565b610b12336000357fffffffff00000000000000000000000000000000000000000000000000000000166135c0565b1515610b1d57600080fd5b806008806101000a81548167ffffffffffffffff021916908367ffffffffffffffff16021790555050565b60096020528060005260406000206000915054906101000a900460ff1681565b6000806000806000806000600160009054906101000a900473ffffffffffffffffffffffffffffffffffffffff1673ffffffffffffffffffffffffffffffffffffffff166321687444306040518263ffffffff167c0100000000000000000000000000000000000000000000000000000000028152600401808273ffffffffffffffffffffffffffffffffffffffff1673ffffffffffffffffffffffffffffffffffffffff168152602001915050602060405180830381600087803b158015610c3057600080fd5b505af1158015610c44573d6000803e3d6000fd5b505050506040513d6020811015610c5a57600080fd5b810190808051906020019092919050505096508673ffffffffffffffffffffffffffffffffffffffff1663de2873596040518163ffffffff167c0100000000000000000000000000000000000000000000000000000000028152600401602060405180830381600087803b158015610cd157600080fd5b505af1158015610ce5573d6000803e3d6000fd5b505050506040513d6020811015610cfb57600080fd5b810190808051906020019092919050505095508573ffffffffffffffffffffffffffffffffffffffff1663be03847830898a73ffffffffffffffffffffffffffffffffffffffff16638ea8dc9d6040518163ffffffff167c0100000000000000000000000000000000000000000000000000000000028152600401602060405180830381600087803b158015610d9057600080fd5b505af1158015610da4573d6000803e3d6000fd5b505050506040513d6020811015610dba57600080fd5b8101908080519060200190929190505050306040518563ffffffff167c0100000000000000000000000000000000000000000000000000000000028152600401808573ffffffffffffffffffffffffffffffffffffffff1673ffffffffffffffffffffffffffffffffffffffff1681526020018473ffffffffffffffffffffffffffffffffffffffff1673ffffffffffffffffffffffffffffffffffffffff16815260200183600019166000191681526020018273ffffffffffffffffffffffffffffffffffffffff1673ffffffffffffffffffffffffffffffffffffffff168152602001945050505050600060405180830381600087803b158015610ebf57600080fd5b505af1158015610ed3573d6000803e3d6000fd5b50505050610ee16000610a0b565b156110a7578673ffffffffffffffffffffffffffffffffffffffff1663958fde82600560006002811115610f1157fe5b60ff16600381101515610f2057fe5b0154610f4a600560006002811115610f3457fe5b60ff16600381101515610f4357fe5b0154613263565b6040518363ffffffff167c01000000000000000000000000000000000000000000000000000000000281526004018083600019166000191681526020018273ffffffffffffffffffffffffffffffffffffffff1673ffffffffffffffffffffffffffffffffffffffff16815260200192505050602060405180830381600087803b158015610fd757600080fd5b505af1158015610feb573d6000803e3d6000fd5b505050506040513d602081101561100157600080fd5b810190808051906020019092919050505094507f2b183a501d4b1bbd30e6611ebac40ab18a00390e6c6bed324bf92a265c9ce6e38560056000600281111561104557fe5b60ff1660038110151561105457fe5b0154604051808373ffffffffffffffffffffffffffffffffffffffff1673ffffffffffffffffffffffffffffffffffffffff16815260200182600019166000191681526020019250505060405180910390a15b6110b16001610a0b565b806110c257506110c16002610a0b565b5b15611336578673ffffffffffffffffffffffffffffffffffffffff1663c050a7a66005600160028111156110f257fe5b60ff1660038110151561110157fe5b015461112b60056001600281111561111557fe5b60ff1660038110151561112457fe5b0154613263565b60006040519080825280601f01601f19166020018201604052801561115f5781602001602082028038833980820191505090505b5060016040518563ffffffff167c01000000000000000000000000000000000000000000000000000000000281526004018085600019166000191681526020018473ffffffffffffffffffffffffffffffffffffffff1673ffffffffffffffffffffffffffffffffffffffff1681526020018060200183151515158152602001828103825284818151815260200191508051906020019080838360005b838110156112175780820151818401526020810190506111fc565b50505050905090810190601f1680156112445780820380516001836020036101000a031916815260200191505b5095505050505050602060405180830381600087803b15801561126657600080fd5b505af115801561127a573d6000803e3d6000fd5b505050506040513d602081101561129057600080fd5b810190808051906020019092919050505093507f2b183a501d4b1bbd30e6611ebac40ab18a00390e6c6bed324bf92a265c9ce6e3846005600160028111156112d457fe5b60ff166003811015156112e357fe5b0154604051808373ffffffffffffffffffffffffffffffffffffffff1673ffffffffffffffffffffffffffffffffffffffff16815260200182600019166000191681526020019250505060405180910390a15b6113406002610a0b565b15611503578673ffffffffffffffffffffffffffffffffffffffff1663958fde82600560028081111561136f57fe5b60ff1660038110151561137e57fe5b01546113a7600560028081111561139157fe5b60ff166003811015156113a057fe5b0154613263565b6040518363ffffffff167c01000000000000000000000000000000000000000000000000000000000281526004018083600019166000191681526020018273ffffffffffffffffffffffffffffffffffffffff1673ffffffffffffffffffffffffffffffffffffffff16815260200192505050602060405180830381600087803b15801561143457600080fd5b505af1158015611448573d6000803e3d6000fd5b505050506040513d602081101561145e57600080fd5b810190808051906020019092919050505092507f2b183a501d4b1bbd30e6611ebac40ab18a00390e6c6bed324bf92a265c9ce6e38360056002808111156114a157fe5b60ff166003811015156114b057fe5b0154604051808373ffffffffffffffffffffffffffffffffffffffff1673ffffffffffffffffffffffffffffffffffffffff16815260200182600019166000191681526020019250505060405180910390a15b61150d6000610a0b565b15611a6e578573ffffffffffffffffffffffffffffffffffffffff1663be03847886878873ffffffffffffffffffffffffffffffffffffffff16633c624c756040518163ffffffff167c0100000000000000000000000000000000000000000000000000000000028152600401602060405180830381600087803b15801561159457600080fd5b505af11580156115a8573d6000803e3d6000fd5b505050506040513d60208110156115be57600080fd5b8101908080519060200190929190505050896040518563ffffffff167c0100000000000000000000000000000000000000000000000000000000028152600401808573ffffffffffffffffffffffffffffffffffffffff1673ffffffffffffffffffffffffffffffffffffffff1681526020018473ffffffffffffffffffffffffffffffffffffffff1673ffffffffffffffffffffffffffffffffffffffff16815260200183600019166000191681526020018273ffffffffffffffffffffffffffffffffffffffff1673ffffffffffffffffffffffffffffffffffffffff168152602001945050505050600060405180830381600087803b1580156116c357600080fd5b505af11580156116d7573d6000803e3d6000fd5b505050508573ffffffffffffffffffffffffffffffffffffffff1663be03847886878873ffffffffffffffffffffffffffffffffffffffff166362de7e5a6040518163ffffffff167c0100000000000000000000000000000000000000000000000000000000028152600401602060405180830381600087803b15801561175d57600080fd5b505af1158015611771573d6000803e3d6000fd5b505050506040513d602081101561178757600080fd5b8101908080519060200190929190505050896040518563ffffffff167c0100000000000000000000000000000000000000000000000000000000028152600401808573ffffffffffffffffffffffffffffffffffffffff1673ffffffffffffffffffffffffffffffffffffffff1681526020018473ffffffffffffffffffffffffffffffffffffffff1673ffffffffffffffffffffffffffffffffffffffff16815260200183600019166000191681526020018273ffffffffffffffffffffffffffffffffffffffff1673ffffffffffffffffffffffffffffffffffffffff168152602001945050505050600060405180830381600087803b15801561188c57600080fd5b505af11580156118a0573d6000803e3d6000fd5b505050508573ffffffffffffffffffffffffffffffffffffffff1663be03847889878873ffffffffffffffffffffffffffffffffffffffff1663be2c64d46040518163ffffffff167c0100000000000000000000000000000000000000000000000000000000028152600401602060405180830381600087803b15801561192657600080fd5b505af115801561193a573d6000803e3d6000fd5b505050506040513d602081101561195057600080fd5b81019080805190602001909291905050508c6040518563ffffffff167c0100000000000000000000000000000000000000000000000000000000028152600401808573ffffffffffffffffffffffffffffffffffffffff1673ffffffffffffffffffffffffffffffffffffffff1681526020018473ffffffffffffffffffffffffffffffffffffffff1673ffffffffffffffffffffffffffffffffffffffff16815260200183600019166000191681526020018273ffffffffffffffffffffffffffffffffffffffff1673ffffffffffffffffffffffffffffffffffffffff168152602001945050505050600060405180830381600087803b158015611a5557600080fd5b505af1158015611a69573d6000803e3d6000fd5b505050505b611a786000610a0b565b8015611a8a5750611a896002610a0b565b5b156121b4578573ffffffffffffffffffffffffffffffffffffffff1663be03847884868773ffffffffffffffffffffffffffffffffffffffff1663206b60f96040518163ffffffff167c0100000000000000000000000000000000000000000000000000000000028152600401602060405180830381600087803b158015611b1157600080fd5b505af1158015611b25573d6000803e3d6000fd5b505050506040513d6020811015611b3b57600080fd5b8101908080519060200190929190505050896040518563ffffffff167c0100000000000000000000000000000000000000000000000000000000028152600401808573ffffffffffffffffffffffffffffffffffffffff1673ffffffffffffffffffffffffffffffffffffffff1681526020018473ffffffffffffffffffffffffffffffffffffffff1673ffffffffffffffffffffffffffffffffffffffff16815260200183600019166000191681526020018273ffffffffffffffffffffffffffffffffffffffff1673ffffffffffffffffffffffffffffffffffffffff168152602001945050505050600060405180830381600087803b158015611c4057600080fd5b505af1158015611c54573d6000803e3d6000fd5b505050508573ffffffffffffffffffffffffffffffffffffffff1663be03847886858673ffffffffffffffffffffffffffffffffffffffff16630842ace46040518163ffffffff167c0100000000000000000000000000000000000000000000000000000000028152600401602060405180830381600087803b158015611cda57600080fd5b505af1158015611cee573d6000803e3d6000fd5b505050506040513d6020811015611d0457600080fd5b8101908080519060200190929190505050896040518563ffffffff167c0100000000000000000000000000000000000000000000000000000000028152600401808573ffffffffffffffffffffffffffffffffffffffff1673ffffffffffffffffffffffffffffffffffffffff1681526020018473ffffffffffffffffffffffffffffffffffffffff1673ffffffffffffffffffffffffffffffffffffffff16815260200183600019166000191681526020018273ffffffffffffffffffffffffffffffffffffffff1673ffffffffffffffffffffffffffffffffffffffff168152602001945050505050600060405180830381600087803b158015611e0957600080fd5b505af1158015611e1d573d6000803e3d6000fd5b505050508573ffffffffffffffffffffffffffffffffffffffff1663be03847886858673ffffffffffffffffffffffffffffffffffffffff1663981cc3426040518163ffffffff167c0100000000000000000000000000000000000000000000000000000000028152600401602060405180830381600087803b158015611ea357600080fd5b505af1158015611eb7573d6000803e3d6000fd5b505050506040513d6020811015611ecd57600080fd5b8101908080519060200190929190505050896040518563ffffffff167c0100000000000000000000000000000000000000000000000000000000028152600401808573ffffffffffffffffffffffffffffffffffffffff1673ffffffffffffffffffffffffffffffffffffffff1681526020018473ffffffffffffffffffffffffffffffffffffffff1673ffffffffffffffffffffffffffffffffffffffff16815260200183600019166000191681526020018273ffffffffffffffffffffffffffffffffffffffff1673ffffffffffffffffffffffffffffffffffffffff168152602001945050505050600060405180830381600087803b158015611fd257600080fd5b505af1158015611fe6573d6000803e3d6000fd5b505050508573ffffffffffffffffffffffffffffffffffffffff1663be03847886858673ffffffffffffffffffffffffffffffffffffffff1663e94ebac56040518163ffffffff167c0100000000000000000000000000000000000000000000000000000000028152600401602060405180830381600087803b15801561206c57600080fd5b505af1158015612080573d6000803e3d6000fd5b505050506040513d602081101561209657600080fd5b8101908080519060200190929190505050896040518563ffffffff167c0100000000000000000000000000000000000000000000000000000000028152600401808573ffffffffffffffffffffffffffffffffffffffff1673ffffffffffffffffffffffffffffffffffffffff1681526020018473ffffffffffffffffffffffffffffffffffffffff1673ffffffffffffffffffffffffffffffffffffffff16815260200183600019166000191681526020018273ffffffffffffffffffffffffffffffffffffffff1673ffffffffffffffffffffffffffffffffffffffff168152602001945050505050600060405180830381600087803b15801561219b57600080fd5b505af11580156121af573d6000803e3d6000fd5b505050505b6121be6001610a0b565b806121cf57506121ce6002610a0b565b5b15612251578373ffffffffffffffffffffffffffffffffffffffff16638129fc1c6040518163ffffffff167c0100000000000000000000000000000000000000000000000000000000028152600401600060405180830381600087803b15801561223857600080fd5b505af115801561224c573d6000803e3d6000fd5b505050505b61225b6002610a0b565b15612346578273ffffffffffffffffffffffffffffffffffffffff16631798de8185600860189054906101000a900467ffffffffffffffff166040518363ffffffff167c0100000000000000000000000000000000000000000000000000000000028152600401808373ffffffffffffffffffffffffffffffffffffffff1673ffffffffffffffffffffffffffffffffffffffff1681526020018267ffffffffffffffff1667ffffffffffffffff16815260200192505050600060405180830381600087803b15801561232d57600080fd5b505af1158015612341573d6000803e3d6000fd5b505050505b6123506000610a0b565b156128d1578473ffffffffffffffffffffffffffffffffffffffff1663df3d33058a600860009054906101000a900467ffffffffffffffff166008809054906101000a900467ffffffffffffffff16600860109054906101000a900467ffffffffffffffff166040518563ffffffff167c0100000000000000000000000000000000000000000000000000000000028152600401808573ffffffffffffffffffffffffffffffffffffffff1673ffffffffffffffffffffffffffffffffffffffff1681526020018467ffffffffffffffff1667ffffffffffffffff1681526020018367ffffffffffffffff1667ffffffffffffffff1681526020018267ffffffffffffffff1667ffffffffffffffff168152602001945050505050600060405180830381600087803b15801561248557600080fd5b505af1158015612499573d6000803e3d6000fd5b505050508573ffffffffffffffffffffffffffffffffffffffff1663a479e5086040518163ffffffff167c0100000000000000000000000000000000000000000000000000000000028152600401602060405180830381600087803b15801561250157600080fd5b505af1158015612515573d6000803e3d6000fd5b505050506040513d602081101561252b57600080fd5b810190808051906020019092919050505091508573ffffffffffffffffffffffffffffffffffffffff1663be03847886848573ffffffffffffffffffffffffffffffffffffffff166319f3d10f6040518163ffffffff167c0100000000000000000000000000000000000000000000000000000000028152600401602060405180830381600087803b1580156125c057600080fd5b505af11580156125d4573d6000803e3d6000fd5b505050506040513d60208110156125ea57600080fd5b8101908080519060200190929190505050896040518563ffffffff167c0100000000000000000000000000000000000000000000000000000000028152600401808573ffffffffffffffffffffffffffffffffffffffff1673ffffffffffffffffffffffffffffffffffffffff1681526020018473ffffffffffffffffffffffffffffffffffffffff1673ffffffffffffffffffffffffffffffffffffffff16815260200183600019166000191681526020018273ffffffffffffffffffffffffffffffffffffffff1673ffffffffffffffffffffffffffffffffffffffff168152602001945050505050600060405180830381600087803b1580156126ef57600080fd5b505af1158015612703573d6000803e3d6000fd5b505050508573ffffffffffffffffffffffffffffffffffffffff1663be03847886848573ffffffffffffffffffffffffffffffffffffffff1663bd8fde1c6040518163ffffffff167c0100000000000000000000000000000000000000000000000000000000028152600401602060405180830381600087803b15801561278957600080fd5b505af115801561279d573d6000803e3d6000fd5b505050506040513d60208110156127b357600080fd5b8101908080519060200190929190505050896040518563ffffffff167c0100000000000000000000000000000000000000000000000000000000028152600401808573ffffffffffffffffffffffffffffffffffffffff1673ffffffffffffffffffffffffffffffffffffffff1681526020018473ffffffffffffffffffffffffffffffffffffffff1673ffffffffffffffffffffffffffffffffffffffff16815260200183600019166000191681526020018273ffffffffffffffffffffffffffffffffffffffff1673ffffffffffffffffffffffffffffffffffffffff168152602001945050505050600060405180830381600087803b1580156128b857600080fd5b505af11580156128cc573d6000803e3d6000fd5b505050505b8573ffffffffffffffffffffffffffffffffffffffff16633d6ab68f6040518163ffffffff167c0100000000000000000000000000000000000000000000000000000000028152600401602060405180830381600087803b15801561293557600080fd5b505af1158015612949573d6000803e3d6000fd5b505050506040513d602081101561295f57600080fd5b810190808051906020019092919050505090508573ffffffffffffffffffffffffffffffffffffffff16639d0effdb3088846040518463ffffffff167c0100000000000000000000000000000000000000000000000000000000028152600401808473ffffffffffffffffffffffffffffffffffffffff1673ffffffffffffffffffffffffffffffffffffffff1681526020018373ffffffffffffffffffffffffffffffffffffffff1673ffffffffffffffffffffffffffffffffffffffff16815260200182600019166000191681526020019350505050600060405180830381600087803b158015612a5157600080fd5b505af1158015612a65573d6000803e3d6000fd5b50505050612a736000610a0b565b15612d1557612b228686898a73ffffffffffffffffffffffffffffffffffffffff16638ea8dc9d6040518163ffffffff167c0100000000000000000000000000000000000000000000000000000000028152600401602060405180830381600087803b158015612ae257600080fd5b505af1158015612af6573d6000803e3d6000fd5b505050506040513d6020811015612b0c57600080fd5b8101908080519060200190929190505050613839565b8573ffffffffffffffffffffffffffffffffffffffff16630a8ed3db8688846040518463ffffffff167c0100000000000000000000000000000000000000000000000000000000028152600401808473ffffffffffffffffffffffffffffffffffffffff1673ffffffffffffffffffffffffffffffffffffffff1681526020018373ffffffffffffffffffffffffffffffffffffffff1673ffffffffffffffffffffffffffffffffffffffff16815260200182600019166000191681526020019350505050600060405180830381600087803b158015612c0157600080fd5b505af1158015612c15573d6000803e3d6000fd5b505050508573ffffffffffffffffffffffffffffffffffffffff1663afd925df8688846040518463ffffffff167c0100000000000000000000000000000000000000000000000000000000028152600401808473ffffffffffffffffffffffffffffffffffffffff1673ffffffffffffffffffffffffffffffffffffffff1681526020018373ffffffffffffffffffffffffffffffffffffffff1673ffffffffffffffffffffffffffffffffffffffff16815260200182600019166000191681526020019350505050600060405180830381600087803b158015612cf857600080fd5b505af1158015612d0c573d6000803e3d6000fd5b50505050612fae565b612dbf8689898a73ffffffffffffffffffffffffffffffffffffffff16638ea8dc9d6040518163ffffffff167c0100000000000000000000000000000000000000000000000000000000028152600401602060405180830381600087803b158015612d7f57600080fd5b505af1158015612d93573d6000803e3d6000fd5b505050506040513d6020811015612da957600080fd5b8101908080519060200190929190505050613839565b8573ffffffffffffffffffffffffffffffffffffffff16630a8ed3db8988846040518463ffffffff167c0100000000000000000000000000000000000000000000000000000000028152600401808473ffffffffffffffffffffffffffffffffffffffff1673ffffffffffffffffffffffffffffffffffffffff1681526020018373ffffffffffffffffffffffffffffffffffffffff1673ffffffffffffffffffffffffffffffffffffffff16815260200182600019166000191681526020019350505050600060405180830381600087803b158015612e9e57600080fd5b505af1158015612eb2573d6000803e3d6000fd5b505050508573ffffffffffffffffffffffffffffffffffffffff1663afd925df8988846040518463ffffffff167c0100000000000000000000000000000000000000000000000000000000028152600401808473ffffffffffffffffffffffffffffffffffffffff1673ffffffffffffffffffffffffffffffffffffffff1681526020018373ffffffffffffffffffffffffffffffffffffffff1673ffffffffffffffffffffffffffffffffffffffff16815260200182600019166000191681526020019350505050600060405180830381600087803b158015612f9557600080fd5b505af1158015612fa9573d6000803e3d6000fd5b505050505b612fb88a88613b24565b7f8f42a14c9fe9e09f4fe8eeee69ae878731c838b6497425d4c30e1d09336cf34b87604051808273ffffffffffffffffffffffffffffffffffffffff1673ffffffffffffffffffffffffffffffffffffffff16815260200191505060405180910390a18696505050505050509392505050565b600860189054906101000a900467ffffffffffffffff1681565b613073336000357fffffffff00000000000000000000000000000000000000000000000000000000166135c0565b151561307e57600080fd5b80600860006101000a81548167ffffffffffffffff021916908367ffffffffffffffff16021790555050565b6130d8336000357fffffffff00000000000000000000000000000000000000000000000000000000166135c0565b15156130e357600080fd5b80600260006101000a81548173ffffffffffffffffffffffffffffffffffffffff021916908373ffffffffffffffffffffffffffffffffffffffff160217905550600260009054906101000a900473ffffffffffffffffffffffffffffffffffffffff1673ffffffffffffffffffffffffffffffffffffffff167f1abebea81bfa2637f28358c371278fb15ede7ea8dd28d2e03b112ff6d936ada460405160405180910390a250565b600360009054906101000a900473ffffffffffffffffffffffffffffffffffffffff1681565b6131e0336000357fffffffff00000000000000000000000000000000000000000000000000000000166135c0565b15156131eb57600080fd5b80600860186101000a81548167ffffffffffffffff021916908367ffffffffffffffff16021790555050565b600260009054906101000a900473ffffffffffffffffffffffffffffffffffffffff1681565b600160009054906101000a900473ffffffffffffffffffffffffffffffffffffffff1681565b6000806000809054906101000a900473ffffffffffffffffffffffffffffffffffffffff1673ffffffffffffffffffffffffffffffffffffffff16630178b8bf846040518263ffffffff167c0100000000000000000000000000000000000000000000000000000000028152600401808260001916600019168152602001915050602060405180830381600087803b1580156132fe57600080fd5b505af1158015613312573d6000803e3d6000fd5b505050506040513d602081101561332857600080fd5b810190808051906020019092919050505073ffffffffffffffffffffffffffffffffffffffff16633b3b57de846040518263ffffffff167c0100000000000000000000000000000000000000000000000000000000028152600401808260001916600019168152602001915050602060405180830381600087803b1580156133af57600080fd5b505af11580156133c3573d6000803e3d6000fd5b505050506040513d60208110156133d957600080fd5b810190808051906020019092919050505090508073ffffffffffffffffffffffffffffffffffffffff1663c36af4606040518163ffffffff167c0100000000000000000000000000000000000000000000000000000000028152600401600060405180830381600087803b15801561345057600080fd5b505af1158015613464573d6000803e3d6000fd5b505050506040513d6000823e3d601f19601f8201168201806040525060a081101561348e57600080fd5b810190809190826060018051906020019092919080516401000000008111156134b657600080fd5b828101905060208101848111156134cc57600080fd5b81518560018202830111640100000000821117156134e957600080fd5b5050929190505050909150508092505081915050919050565b600460009054906101000a900473ffffffffffffffffffffffffffffffffffffffff1681565b60058160038110151561353757fe5b016000915090505481565b6008809054906101000a900467ffffffffffffffff1681565b613589336000357fffffffff00000000000000000000000000000000000000000000000000000000166135c0565b151561359457600080fd5b80600860106101000a81548167ffffffffffffffff021916908367ffffffffffffffff16021790555050565b60003073ffffffffffffffffffffffffffffffffffffffff168373ffffffffffffffffffffffffffffffffffffffff1614156135ff5760019050613833565b600360009054906101000a900473ffffffffffffffffffffffffffffffffffffffff1673ffffffffffffffffffffffffffffffffffffffff168373ffffffffffffffffffffffffffffffffffffffff16141561365e5760019050613833565b600073ffffffffffffffffffffffffffffffffffffffff16600260009054906101000a900473ffffffffffffffffffffffffffffffffffffffff1673ffffffffffffffffffffffffffffffffffffffff1614156136be5760009050613833565b600260009054906101000a900473ffffffffffffffffffffffffffffffffffffffff1673ffffffffffffffffffffffffffffffffffffffff1663b70096138430856040518463ffffffff167c0100000000000000000000000000000000000000000000000000000000028152600401808473ffffffffffffffffffffffffffffffffffffffff1673ffffffffffffffffffffffffffffffffffffffff1681526020018373ffffffffffffffffffffffffffffffffffffffff1673ffffffffffffffffffffffffffffffffffffffff168152602001827bffffffffffffffffffffffffffffffffffffffffffffffffffffffff19167bffffffffffffffffffffffffffffffffffffffffffffffffffffffff191681526020019350505050602060405180830381600087803b1580156137f557600080fd5b505af1158015613809573d6000803e3d6000fd5b505050506040513d602081101561381f57600080fd5b810190808051906020019092919050505090505b92915050565b8373ffffffffffffffffffffffffffffffffffffffff16630a8ed3db8484846040518463ffffffff167c0100000000000000000000000000000000000000000000000000000000028152600401808473ffffffffffffffffffffffffffffffffffffffff1673ffffffffffffffffffffffffffffffffffffffff1681526020018373ffffffffffffffffffffffffffffffffffffffff1673ffffffffffffffffffffffffffffffffffffffff16815260200182600019166000191681526020019350505050600060405180830381600087803b15801561391857600080fd5b505af115801561392c573d6000803e3d6000fd5b505050508373ffffffffffffffffffffffffffffffffffffffff16639d0effdb3084846040518463ffffffff167c0100000000000000000000000000000000000000000000000000000000028152600401808473ffffffffffffffffffffffffffffffffffffffff1673ffffffffffffffffffffffffffffffffffffffff1681526020018373ffffffffffffffffffffffffffffffffffffffff1673ffffffffffffffffffffffffffffffffffffffff16815260200182600019166000191681526020019350505050600060405180830381600087803b158015613a0f57600080fd5b505af1158015613a23573d6000803e3d6000fd5b505050508373ffffffffffffffffffffffffffffffffffffffff1663afd925df8484846040518463ffffffff167c0100000000000000000000000000000000000000000000000000000000028152600401808473ffffffffffffffffffffffffffffffffffffffff1673ffffffffffffffffffffffffffffffffffffffff1681526020018373ffffffffffffffffffffffffffffffffffffffff1673ffffffffffffffffffffffffffffffffffffffff16815260200182600019166000191681526020019350505050600060405180830381600087803b158015613b0657600080fd5b505af1158015613b1a573d6000803e3d6000fd5b5050505050505050565b600460009054906101000a900473ffffffffffffffffffffffffffffffffffffffff1673ffffffffffffffffffffffffffffffffffffffff1663d22057a9836040516020018082805190602001908083835b602083101515613b9b5780518252602082019150602081019050602083039250613b76565b6001836020036101000a0380198251168184511680821785525050505050509050019150506040516020818303038152906040526040518082805190602001908083835b602083101515613c045780518252602082019150602081019050602083039250613bdf565b6001836020036101000a0380198251168184511680821785525050505050509050019150506040518091039020836040518363ffffffff167c01000000000000000000000000000000000000000000000000000000000281526004018083600019166000191681526020018273ffffffffffffffffffffffffffffffffffffffff1673ffffffffffffffffffffffffffffffffffffffff16815260200192505050600060405180830381600087803b158015613cbf57600080fd5b505af1158015613cd3573d6000803e3d6000fd5b5050505050505600a165627a7a7230582068b1a5e148ff3108c096c819405ca1a014c5847f2bb0551305d60801ecdba79b0029",
  "source": "pragma solidity ^0.4.24;\n\nimport \"./auth/DSAuth.sol\";\n\nimport \"@aragon/os/contracts/common/IsContract.sol\";\nimport \"@aragon/kits-base/contracts/KitBase.sol\";\nimport \"@aragon/id/contracts/FIFSResolvingRegistrar.sol\";\nimport \"@aragon/os/contracts/apm/APMNamehash.sol\";\n\nimport \"@aragon/apps-voting/contracts/Voting.sol\";\nimport \"@aragon/apps-vault/contracts/Vault.sol\";\nimport \"@aragon/apps-finance/contracts/Finance.sol\";\n\n// These are not really required, just to make truffle find artifacts\nimport \"@aragon/os/contracts/factory/APMRegistryFactory.sol\";\nimport \"@aragon/os/contracts/lib/ens/PublicResolver.sol\";\n\ncontract KitDistrict is KitBase, IsContract, APMNamehash, DSAuth {\n  FIFSResolvingRegistrar public aragonID;\n  bytes32[3] public appIds;\n\n  enum Apps {Voting, Vault, Finance}\n\n  uint64 public votingSupportRequiredPct = 51 ^ 17; // 51%\n  uint64 public votingMinAcceptQuorumPct = 25 ^ 17; // 25%\n  uint64 public votingVoteTime = 3 days;\n  uint64 public financePeriodDuration = 30 days;\n\n  mapping(uint8 => bool) public includeApp;\n\n  constructor(\n    DAOFactory _fac,\n    ENS _ens,\n    FIFSResolvingRegistrar _aragonID,\n    Apps[] _includeApps\n  )\n  KitBase(_fac, _ens)\n  public\n  {\n    require(isContract(address(_fac.regFactory())));\n\n    aragonID = _aragonID;\n    appIds[uint8(Apps.Voting)] = apmNamehash(\"voting\");\n    appIds[uint8(Apps.Vault)] = apmNamehash(\"vault\");\n    appIds[uint8(Apps.Finance)] = apmNamehash(\"finance\");\n    for (uint i; i < _includeApps.length; i++) {\n      setAppIncluded(_includeApps[i], true);\n    }\n  }\n\n  function createDAO(\n    string _aragonId,\n    MiniMeToken _token,\n    address _creator\n  )\n  public\n  returns (\n    Kernel dao\n  )\n  {\n    dao = fac.newDAO(this);\n\n    ACL acl = ACL(dao.acl());\n\n    acl.createPermission(this, dao, dao.APP_MANAGER_ROLE(), this);\n\n    Voting voting;\n    Vault vault;\n    Finance finance;\n\n    if (isAppIncluded(Apps.Voting)) {\n      voting = Voting(\n        dao.newPinnedAppInstance(\n          appIds[uint8(Apps.Voting)],\n          latestVersionAppBase(appIds[uint8(Apps.Voting)])\n        )\n      );\n      emit InstalledApp(voting, appIds[uint8(Apps.Voting)]);\n    }\n\n    if (isAppIncluded(Apps.Vault) || isAppIncluded(Apps.Finance)) {\n      vault = Vault(\n        dao.newPinnedAppInstance(\n          appIds[uint8(Apps.Vault)],\n          latestVersionAppBase(appIds[uint8(Apps.Vault)]),\n          new bytes(0),\n          true\n        )\n      );\n      emit InstalledApp(vault, appIds[uint8(Apps.Vault)]);\n    }\n\n    if (isAppIncluded(Apps.Finance)) {\n      finance = Finance(\n        dao.newPinnedAppInstance(\n          appIds[uint8(Apps.Finance)],\n          latestVersionAppBase(appIds[uint8(Apps.Finance)])\n        )\n      );\n      emit InstalledApp(finance, appIds[uint8(Apps.Finance)]);\n    }\n\n    if (isAppIncluded(Apps.Voting)) {\n      acl.createPermission(voting, voting, voting.MODIFY_QUORUM_ROLE(), voting);\n      acl.createPermission(voting, voting, voting.MODIFY_SUPPORT_ROLE(), voting);\n      acl.createPermission(_creator, voting, voting.CREATE_VOTES_ROLE(), _creator);\n    }\n\n    if (isAppIncluded(Apps.Voting) && isAppIncluded(Apps.Finance)) {\n      acl.createPermission(finance, vault, vault.TRANSFER_ROLE(), voting);\n      acl.createPermission(voting, finance, finance.CREATE_PAYMENTS_ROLE(), voting);\n      acl.createPermission(voting, finance, finance.EXECUTE_PAYMENTS_ROLE(), voting);\n      acl.createPermission(voting, finance, finance.MANAGE_PAYMENTS_ROLE(), voting);\n    }\n\n    // App inits\n\n    if (isAppIncluded(Apps.Vault) || isAppIncluded(Apps.Finance)) {\n      vault.initialize();\n    }\n\n    if (isAppIncluded(Apps.Finance)) {\n      finance.initialize(vault, financePeriodDuration);\n    }\n\n    if (isAppIncluded(Apps.Voting)) {\n      voting.initialize(_token, votingSupportRequiredPct, votingMinAcceptQuorumPct, votingVoteTime);\n      EVMScriptRegistry reg = EVMScriptRegistry(acl.getEVMScriptRegistry());\n      acl.createPermission(voting, reg, reg.REGISTRY_ADD_EXECUTOR_ROLE(), voting);\n      acl.createPermission(voting, reg, reg.REGISTRY_MANAGER_ROLE(), voting);\n    }\n\n    bytes32 permRole = acl.CREATE_PERMISSIONS_ROLE();\n\n    acl.revokePermission(this, acl, permRole);\n\n    if (isAppIncluded(Apps.Voting)) {\n      cleanupPermission(acl, voting, dao, dao.APP_MANAGER_ROLE());\n      acl.grantPermission(voting, acl, permRole);\n      acl.setPermissionManager(voting, acl, permRole);\n    } else {\n      cleanupPermission(acl, _creator, dao, dao.APP_MANAGER_ROLE());\n      acl.grantPermission(_creator, acl, permRole);\n      acl.setPermissionManager(_creator, acl, permRole);\n    }\n\n    registerAragonID(_aragonId, dao);\n    emit DeployInstance(dao);\n\n    return dao;\n  }\n\n  function registerAragonID(string name, address owner) internal {\n    aragonID.register(keccak256(abi.encodePacked(name)), owner);\n  }\n\n  function setVotingSupportRequiredPct(uint64 _votingSupportRequiredPct) public auth {\n    votingSupportRequiredPct = _votingSupportRequiredPct;\n  }\n\n  function setVotingMinAcceptQuorumPct(uint64 _votingMinAcceptQuorumPct) public auth {\n    votingMinAcceptQuorumPct = _votingMinAcceptQuorumPct;\n  }\n\n  function setVotingVoteTime(uint64 _votingVoteTime) public auth {\n    votingVoteTime = _votingVoteTime;\n  }\n\n  function setFinancePeriodDuration(uint64 _financePeriodDuration) public auth {\n    financePeriodDuration = _financePeriodDuration;\n  }\n\n  function setAppsIncluded(Apps[] _includeApps, bool[] _isIncluded) public auth {\n    require(_includeApps.length == _isIncluded.length);\n    for (uint i; i < _includeApps.length; i++) {\n      setAppIncluded(_includeApps[i], _isIncluded[i]);\n    }\n  }\n\n  function setAppIncluded(Apps _app, bool _isIncluded) public auth {\n    includeApp[uint8(_app)] = _isIncluded;\n  }\n\n  function isAppIncluded(Apps _app) public view returns(bool){\n    return includeApp[uint8(_app)];\n  }\n\n\n}",
  "sourcePath": "/Users/matus/www/district0x/district-registry/contracts/KitDistrict.sol",
  "compiler": {
    "name": "solc",
    "version": "0.4.24+commit.e67f0147.Emscripten.clang"
  },
  "schemaVersion": "3.0.10",
  "updatedAt": "2019-07-01T15:53:02.370Z",
  "devdoc": {
    "methods": {}
  },
  "userdoc": {
    "methods": {}
  }
}