{
  "contractName": "MiniMeTokenProxyTarget",
  "abi": [
    {
      "constant": true,
      "inputs": [],
      "name": "name",
      "outputs": [
        {
          "name": "",
          "type": "string"
        }
      ],
      "payable": false,
      "stateMutability": "view",
      "type": "function"
    },
    {
      "constant": true,
      "inputs": [],
      "name": "creationBlock",
      "outputs": [
        {
          "name": "",
          "type": "uint256"
        }
      ],
      "payable": false,
      "stateMutability": "view",
      "type": "function"
    },
    {
      "constant": true,
      "inputs": [],
      "name": "decimals",
      "outputs": [
        {
          "name": "",
          "type": "uint8"
        }
      ],
      "payable": false,
      "stateMutability": "view",
      "type": "function"
    },
    {
      "constant": false,
      "inputs": [
        {
          "name": "_newController",
          "type": "address"
        }
      ],
      "name": "changeController",
      "outputs": [],
      "payable": false,
      "stateMutability": "nonpayable",
      "type": "function"
    },
    {
      "constant": true,
      "inputs": [],
      "name": "version",
      "outputs": [
        {
          "name": "",
          "type": "string"
        }
      ],
      "payable": false,
      "stateMutability": "view",
      "type": "function"
    },
    {
      "constant": true,
      "inputs": [],
      "name": "parentToken",
      "outputs": [
        {
          "name": "",
          "type": "address"
        }
      ],
      "payable": false,
      "stateMutability": "view",
      "type": "function"
    },
    {
      "constant": true,
      "inputs": [],
      "name": "symbol",
      "outputs": [
        {
          "name": "",
          "type": "string"
        }
      ],
      "payable": false,
      "stateMutability": "view",
      "type": "function"
    },
    {
      "constant": true,
      "inputs": [],
      "name": "transfersEnabled",
      "outputs": [
        {
          "name": "",
          "type": "bool"
        }
      ],
      "payable": false,
      "stateMutability": "view",
      "type": "function"
    },
    {
      "constant": true,
      "inputs": [],
      "name": "parentSnapShotBlock",
      "outputs": [
        {
          "name": "",
          "type": "uint256"
        }
      ],
      "payable": false,
      "stateMutability": "view",
      "type": "function"
    },
    {
      "constant": true,
      "inputs": [],
      "name": "tokenFactory",
      "outputs": [
        {
          "name": "",
          "type": "address"
        }
      ],
      "payable": false,
      "stateMutability": "view",
      "type": "function"
    },
    {
      "constant": true,
      "inputs": [],
      "name": "controller",
      "outputs": [
        {
          "name": "",
          "type": "address"
        }
      ],
      "payable": false,
      "stateMutability": "view",
      "type": "function"
    },
    {
      "payable": true,
      "stateMutability": "payable",
      "type": "fallback"
    },
    {
      "anonymous": false,
      "inputs": [
        {
          "indexed": true,
          "name": "_token",
          "type": "address"
        },
        {
          "indexed": true,
          "name": "_controller",
          "type": "address"
        },
        {
          "indexed": false,
          "name": "_amount",
          "type": "uint256"
        }
      ],
      "name": "ClaimedTokens",
      "type": "event"
    },
    {
      "anonymous": false,
      "inputs": [
        {
          "indexed": true,
          "name": "_from",
          "type": "address"
        },
        {
          "indexed": true,
          "name": "_to",
          "type": "address"
        },
        {
          "indexed": false,
          "name": "_amount",
          "type": "uint256"
        }
      ],
      "name": "Transfer",
      "type": "event"
    },
    {
      "anonymous": false,
      "inputs": [
        {
          "indexed": true,
          "name": "_cloneToken",
          "type": "address"
        },
        {
          "indexed": false,
          "name": "_snapshotBlock",
          "type": "uint256"
        }
      ],
      "name": "NewCloneToken",
      "type": "event"
    },
    {
      "anonymous": false,
      "inputs": [
        {
          "indexed": true,
          "name": "_owner",
          "type": "address"
        },
        {
          "indexed": true,
          "name": "_spender",
          "type": "address"
        },
        {
          "indexed": false,
          "name": "_amount",
          "type": "uint256"
        }
      ],
      "name": "Approval",
      "type": "event"
    },
    {
      "constant": false,
      "inputs": [
        {
          "name": "_tokenFactory",
          "type": "address"
        },
        {
          "name": "_parentToken",
          "type": "address"
        },
        {
          "name": "_parentSnapShotBlock",
          "type": "uint256"
        },
        {
          "name": "_tokenName",
          "type": "string"
        },
        {
          "name": "_decimalUnits",
          "type": "uint8"
        },
        {
          "name": "_tokenSymbol",
          "type": "string"
        },
        {
          "name": "_transfersEnabled",
          "type": "bool"
        }
      ],
      "name": "construct",
      "outputs": [],
      "payable": false,
      "stateMutability": "nonpayable",
      "type": "function"
    },
    {
      "constant": false,
      "inputs": [
        {
          "name": "_to",
          "type": "address"
        },
        {
          "name": "_amount",
          "type": "uint256"
        }
      ],
      "name": "transfer",
      "outputs": [
        {
          "name": "success",
          "type": "bool"
        }
      ],
      "payable": false,
      "stateMutability": "nonpayable",
      "type": "function"
    },
    {
      "constant": false,
      "inputs": [
        {
          "name": "_from",
          "type": "address"
        },
        {
          "name": "_to",
          "type": "address"
        },
        {
          "name": "_amount",
          "type": "uint256"
        }
      ],
      "name": "transferFrom",
      "outputs": [
        {
          "name": "success",
          "type": "bool"
        }
      ],
      "payable": false,
      "stateMutability": "nonpayable",
      "type": "function"
    },
    {
      "constant": true,
      "inputs": [
        {
          "name": "_owner",
          "type": "address"
        }
      ],
      "name": "balanceOf",
      "outputs": [
        {
          "name": "balance",
          "type": "uint256"
        }
      ],
      "payable": false,
      "stateMutability": "view",
      "type": "function"
    },
    {
      "constant": false,
      "inputs": [
        {
          "name": "_spender",
          "type": "address"
        },
        {
          "name": "_amount",
          "type": "uint256"
        }
      ],
      "name": "approve",
      "outputs": [
        {
          "name": "success",
          "type": "bool"
        }
      ],
      "payable": false,
      "stateMutability": "nonpayable",
      "type": "function"
    },
    {
      "constant": true,
      "inputs": [
        {
          "name": "_owner",
          "type": "address"
        },
        {
          "name": "_spender",
          "type": "address"
        }
      ],
      "name": "allowance",
      "outputs": [
        {
          "name": "remaining",
          "type": "uint256"
        }
      ],
      "payable": false,
      "stateMutability": "view",
      "type": "function"
    },
    {
      "constant": false,
      "inputs": [
        {
          "name": "_spender",
          "type": "address"
        },
        {
          "name": "_amount",
          "type": "uint256"
        },
        {
          "name": "_extraData",
          "type": "bytes"
        }
      ],
      "name": "approveAndCall",
      "outputs": [
        {
          "name": "success",
          "type": "bool"
        }
      ],
      "payable": false,
      "stateMutability": "nonpayable",
      "type": "function"
    },
    {
      "constant": true,
      "inputs": [],
      "name": "totalSupply",
      "outputs": [
        {
          "name": "",
          "type": "uint256"
        }
      ],
      "payable": false,
      "stateMutability": "view",
      "type": "function"
    },
    {
      "constant": true,
      "inputs": [
        {
          "name": "_owner",
          "type": "address"
        },
        {
          "name": "_blockNumber",
          "type": "uint256"
        }
      ],
      "name": "balanceOfAt",
      "outputs": [
        {
          "name": "",
          "type": "uint256"
        }
      ],
      "payable": false,
      "stateMutability": "view",
      "type": "function"
    },
    {
      "constant": true,
      "inputs": [
        {
          "name": "_blockNumber",
          "type": "uint256"
        }
      ],
      "name": "totalSupplyAt",
      "outputs": [
        {
          "name": "",
          "type": "uint256"
        }
      ],
      "payable": false,
      "stateMutability": "view",
      "type": "function"
    },
    {
      "constant": false,
      "inputs": [
        {
          "name": "_cloneTokenName",
          "type": "string"
        },
        {
          "name": "_cloneDecimalUnits",
          "type": "uint8"
        },
        {
          "name": "_cloneTokenSymbol",
          "type": "string"
        },
        {
          "name": "_snapshotBlock",
          "type": "uint256"
        },
        {
          "name": "_transfersEnabled",
          "type": "bool"
        }
      ],
      "name": "createCloneToken",
      "outputs": [
        {
          "name": "",
          "type": "address"
        }
      ],
      "payable": false,
      "stateMutability": "nonpayable",
      "type": "function"
    },
    {
      "constant": false,
      "inputs": [
        {
          "name": "_owner",
          "type": "address"
        },
        {
          "name": "_amount",
          "type": "uint256"
        }
      ],
      "name": "generateTokens",
      "outputs": [
        {
          "name": "",
          "type": "bool"
        }
      ],
      "payable": false,
      "stateMutability": "nonpayable",
      "type": "function"
    },
    {
      "constant": false,
      "inputs": [
        {
          "name": "_owner",
          "type": "address"
        },
        {
          "name": "_amount",
          "type": "uint256"
        }
      ],
      "name": "destroyTokens",
      "outputs": [
        {
          "name": "",
          "type": "bool"
        }
      ],
      "payable": false,
      "stateMutability": "nonpayable",
      "type": "function"
    },
    {
      "constant": false,
      "inputs": [
        {
          "name": "_transfersEnabled",
          "type": "bool"
        }
      ],
      "name": "enableTransfers",
      "outputs": [],
      "payable": false,
      "stateMutability": "nonpayable",
      "type": "function"
    },
    {
      "constant": false,
      "inputs": [
        {
          "name": "_token",
          "type": "address"
        }
      ],
      "name": "claimTokens",
      "outputs": [],
      "payable": false,
      "stateMutability": "nonpayable",
      "type": "function"
    }
  ],
  "bytecode": "0x6080604052336000806101000a81548173ffffffffffffffffffffffffffffffffffffffff021916908373ffffffffffffffffffffffffffffffffffffffff160217905550612f64806100536000396000f300608060405260043610610154576000357c0100000000000000000000000000000000000000000000000000000000900463ffffffff16806306fdde031461028e578063095ea7b31461031e578063176345141461038357806318160ddd146103ae57806323b872dd146103d9578063313ce5671461045e5780633cebb8231461048f5780634bbb7124146104d25780634ee2cd7e146105e457806354fd4d50146106455780636638c087146106d557806370a08231146107e757806380a540011461083e578063827f32c01461089557806395d89b41146108fa578063981b24d01461098a578063a9059cbb146109cb578063bef97c8714610a30578063c5bcc4f114610a5f578063cae9ca5114610a8a578063d3ce77fe14610b35578063dd62ed3e14610b9a578063df8de3e714610c11578063e77772fe14610c54578063f41e60c514610cab578063f77c479114610cda575b61017e6000809054906101000a900473ffffffffffffffffffffffffffffffffffffffff16610d31565b151561018957600080fd5b6000809054906101000a900473ffffffffffffffffffffffffffffffffffffffff1673ffffffffffffffffffffffffffffffffffffffff1663f48c305434336040518363ffffffff167c0100000000000000000000000000000000000000000000000000000000028152600401808273ffffffffffffffffffffffffffffffffffffffff1673ffffffffffffffffffffffffffffffffffffffff1681526020019150506020604051808303818588803b15801561024557600080fd5b505af1158015610259573d6000803e3d6000fd5b50505050506040513d602081101561027057600080fd5b8101908080519060200190929190505050151561028c57600080fd5b005b34801561029a57600080fd5b506102a3610d6d565b6040518080602001828103825283818151815260200191508051906020019080838360005b838110156102e35780820151818401526020810190506102c8565b50505050905090810190601f1680156103105780820380516001836020036101000a031916815260200191505b509250505060405180910390f35b34801561032a57600080fd5b50610369600480360381019080803573ffffffffffffffffffffffffffffffffffffffff16906020019092919080359060200190929190505050610e0b565b604051808215151515815260200191505060405180910390f35b34801561038f57600080fd5b5061039861111c565b6040518082815260200191505060405180910390f35b3480156103ba57600080fd5b506103c3611122565b6040518082815260200191505060405180910390f35b3480156103e557600080fd5b50610444600480360381019080803573ffffffffffffffffffffffffffffffffffffffff169060200190929190803573ffffffffffffffffffffffffffffffffffffffff16906020019092919080359060200190929190505050611132565b604051808215151515815260200191505060405180910390f35b34801561046a57600080fd5b506104736112d1565b604051808260ff1660ff16815260200191505060405180910390f35b34801561049b57600080fd5b506104d0600480360381019080803573ffffffffffffffffffffffffffffffffffffffff1690602001909291905050506112e4565b005b3480156104de57600080fd5b506105e2600480360381019080803573ffffffffffffffffffffffffffffffffffffffff169060200190929190803573ffffffffffffffffffffffffffffffffffffffff16906020019092919080359060200190929190803590602001908201803590602001908080601f0160208091040260200160405190810160405280939291908181526020018383808284378201915050505050509192919290803560ff169060200190929190803590602001908201803590602001908080601f0160208091040260200160405190810160405280939291908181526020018383808284378201915050505050509192919290803515159060200190929190505050611382565b005b3480156105f057600080fd5b5061062f600480360381019080803573ffffffffffffffffffffffffffffffffffffffff1690602001909291908035906020019092919050505061151b565b6040518082815260200191505060405180910390f35b34801561065157600080fd5b5061065a6117a7565b6040518080602001828103825283818151815260200191508051906020019080838360005b8381101561069a57808201518184015260208101905061067f565b50505050905090810190601f1680156106c75780820380516001836020036101000a031916815260200191505b509250505060405180910390f35b3480156106e157600080fd5b506107a5600480360381019080803590602001908201803590602001908080601f0160208091040260200160405190810160405280939291908181526020018383808284378201915050505050509192919290803560ff169060200190929190803590602001908201803590602001908080601f016020809104026020016040519081016040528093929190818152602001838380828437820191505050505050919291929080359060200190929190803515159060200190929190505050611845565b604051808273ffffffffffffffffffffffffffffffffffffffff1673ffffffffffffffffffffffffffffffffffffffff16815260200191505060405180910390f35b3480156107f357600080fd5b50610828600480360381019080803573ffffffffffffffffffffffffffffffffffffffff169060200190929190505050611b59565b6040518082815260200191505060405180910390f35b34801561084a57600080fd5b50610853611b6c565b604051808273ffffffffffffffffffffffffffffffffffffffff1673ffffffffffffffffffffffffffffffffffffffff16815260200191505060405180910390f35b3480156108a157600080fd5b506108e0600480360381019080803573ffffffffffffffffffffffffffffffffffffffff16906020019092919080359060200190929190505050611b92565b604051808215151515815260200191505060405180910390f35b34801561090657600080fd5b5061090f611cdc565b6040518080602001828103825283818151815260200191508051906020019080838360005b8381101561094f578082015181840152602081019050610934565b50505050905090810190601f16801561097c5780820380516001836020036101000a031916815260200191505b509250505060405180910390f35b34801561099657600080fd5b506109b560048036038101908080359060200190929190505050611d7a565b6040518082815260200191505060405180910390f35b3480156109d757600080fd5b50610a16600480360381019080803573ffffffffffffffffffffffffffffffffffffffff16906020019092919080359060200190929190505050611f1a565b604051808215151515815260200191505060405180910390f35b348015610a3c57600080fd5b50610a45611f4c565b604051808215151515815260200191505060405180910390f35b348015610a6b57600080fd5b50610a74611f5f565b6040518082815260200191505060405180910390f35b348015610a9657600080fd5b50610b1b600480360381019080803573ffffffffffffffffffffffffffffffffffffffff16906020019092919080359060200190929190803590602001908201803590602001908080601f0160208091040260200160405190810160405280939291908181526020018383808284378201915050505050509192919290505050611f65565b604051808215151515815260200191505060405180910390f35b348015610b4157600080fd5b50610b80600480360381019080803573ffffffffffffffffffffffffffffffffffffffff169060200190929190803590602001909291905050506120e3565b604051808215151515815260200191505060405180910390f35b348015610ba657600080fd5b50610bfb600480360381019080803573ffffffffffffffffffffffffffffffffffffffff169060200190929190803573ffffffffffffffffffffffffffffffffffffffff169060200190929190505050612229565b6040518082815260200191505060405180910390f35b348015610c1d57600080fd5b50610c52600480360381019080803573ffffffffffffffffffffffffffffffffffffffff1690602001909291905050506122b0565b005b348015610c6057600080fd5b50610c69612618565b604051808273ffffffffffffffffffffffffffffffffffffffff1673ffffffffffffffffffffffffffffffffffffffff16815260200191505060405180910390f35b348015610cb757600080fd5b50610cd860048036038101908080351515906020019092919050505061263e565b005b348015610ce657600080fd5b50610cef6126b6565b604051808273ffffffffffffffffffffffffffffffffffffffff1673ffffffffffffffffffffffffffffffffffffffff16815260200191505060405180910390f35b60008060008373ffffffffffffffffffffffffffffffffffffffff161415610d5c5760009150610d67565b823b90506000811191505b50919050565b60018054600181600116156101000203166002900480601f016020809104026020016040519081016040528092919081815260200182805460018160011615610100020316600290048015610e035780601f10610dd857610100808354040283529160200191610e03565b820191906000526020600020905b815481529060010190602001808311610de657829003601f168201915b505050505081565b6000600b60009054906101000a900460ff161515610e2857600080fd5b6000821480610eb357506000600960003373ffffffffffffffffffffffffffffffffffffffff1673ffffffffffffffffffffffffffffffffffffffff16815260200190815260200160002060008573ffffffffffffffffffffffffffffffffffffffff1673ffffffffffffffffffffffffffffffffffffffff16815260200190815260200160002054145b1515610ebe57600080fd5b610ee86000809054906101000a900473ffffffffffffffffffffffffffffffffffffffff16610d31565b1561102c576000809054906101000a900473ffffffffffffffffffffffffffffffffffffffff1673ffffffffffffffffffffffffffffffffffffffff1663da682aeb3385856040518463ffffffff167c0100000000000000000000000000000000000000000000000000000000028152600401808473ffffffffffffffffffffffffffffffffffffffff1673ffffffffffffffffffffffffffffffffffffffff1681526020018373ffffffffffffffffffffffffffffffffffffffff1673ffffffffffffffffffffffffffffffffffffffff1681526020018281526020019350505050602060405180830381600087803b158015610fe557600080fd5b505af1158015610ff9573d6000803e3d6000fd5b505050506040513d602081101561100f57600080fd5b8101908080519060200190929190505050151561102b57600080fd5b5b81600960003373ffffffffffffffffffffffffffffffffffffffff1673ffffffffffffffffffffffffffffffffffffffff16815260200190815260200160002060008573ffffffffffffffffffffffffffffffffffffffff1673ffffffffffffffffffffffffffffffffffffffff168152602001908152602001600020819055508273ffffffffffffffffffffffffffffffffffffffff163373ffffffffffffffffffffffffffffffffffffffff167f8c5be1e5ebec7d5bd14f71427d1e84f3dd0314c0f7b2291e5b200ac8c7c3b925846040518082815260200191505060405180910390a36001905092915050565b60075481565b600061112d43611d7a565b905090565b60008060009054906101000a900473ffffffffffffffffffffffffffffffffffffffff1673ffffffffffffffffffffffffffffffffffffffff163373ffffffffffffffffffffffffffffffffffffffff161415156112bb57600b60009054906101000a900460ff1615156111a557600080fd5b81600960008673ffffffffffffffffffffffffffffffffffffffff1673ffffffffffffffffffffffffffffffffffffffff16815260200190815260200160002060003373ffffffffffffffffffffffffffffffffffffffff1673ffffffffffffffffffffffffffffffffffffffff168152602001908152602001600020541015151561123057600080fd5b81600960008673ffffffffffffffffffffffffffffffffffffffff1673ffffffffffffffffffffffffffffffffffffffff16815260200190815260200160002060003373ffffffffffffffffffffffffffffffffffffffff1673ffffffffffffffffffffffffffffffffffffffff168152602001908152602001600020600082825403925050819055505b6112c68484846126db565b600190509392505050565b600260009054906101000a900460ff1681565b6000809054906101000a900473ffffffffffffffffffffffffffffffffffffffff1673ffffffffffffffffffffffffffffffffffffffff163373ffffffffffffffffffffffffffffffffffffffff1614151561133f57600080fd5b806000806101000a81548173ffffffffffffffffffffffffffffffffffffffff021916908373ffffffffffffffffffffffffffffffffffffffff16021790555050565b600060075414151561139357600080fd5b6040805190810160405280600781526020017f4d4d545f302e3200000000000000000000000000000000000000000000000000815250600490805190602001906113de929190612e02565b5086600b60016101000a81548173ffffffffffffffffffffffffffffffffffffffff021916908373ffffffffffffffffffffffffffffffffffffffff1602179055508360019080519060200190611436929190612e02565b5082600260006101000a81548160ff021916908360ff1602179055508160039080519060200190611468929190612e02565b5085600560006101000a81548173ffffffffffffffffffffffffffffffffffffffff021916908373ffffffffffffffffffffffffffffffffffffffff1602179055508460068190555080600b60006101000a81548160ff02191690831515021790555043600781905550336000806101000a81548173ffffffffffffffffffffffffffffffffffffffff021916908373ffffffffffffffffffffffffffffffffffffffff16021790555050505050505050565b600080600860008573ffffffffffffffffffffffffffffffffffffffff1673ffffffffffffffffffffffffffffffffffffffff1681526020019081526020016000208054905014806115f4575081600860008573ffffffffffffffffffffffffffffffffffffffff1673ffffffffffffffffffffffffffffffffffffffff16815260200190815260200160002060008154811015156115b657fe5b9060005260206000200160000160009054906101000a90046fffffffffffffffffffffffffffffffff166fffffffffffffffffffffffffffffffff16115b15611756576000600560009054906101000a900473ffffffffffffffffffffffffffffffffffffffff1673ffffffffffffffffffffffffffffffffffffffff1614151561174d57600560009054906101000a900473ffffffffffffffffffffffffffffffffffffffff1673ffffffffffffffffffffffffffffffffffffffff16634ee2cd7e8461168685600654612a66565b6040518363ffffffff167c0100000000000000000000000000000000000000000000000000000000028152600401808373ffffffffffffffffffffffffffffffffffffffff1673ffffffffffffffffffffffffffffffffffffffff16815260200182815260200192505050602060405180830381600087803b15801561170b57600080fd5b505af115801561171f573d6000803e3d6000fd5b505050506040513d602081101561173557600080fd5b810190808051906020019092919050505090506117a1565b600090506117a1565b61179e600860008573ffffffffffffffffffffffffffffffffffffffff1673ffffffffffffffffffffffffffffffffffffffff16815260200190815260200160002083612a7f565b90505b92915050565b60048054600181600116156101000203166002900480601f01602080910402602001604051908101604052809291908181526020018280546001816001161561010002031660029004801561183d5780601f106118125761010080835404028352916020019161183d565b820191906000526020600020905b81548152906001019060200180831161182057829003601f168201915b505050505081565b6000806000841415611855574393505b600b60019054906101000a900473ffffffffffffffffffffffffffffffffffffffff1673ffffffffffffffffffffffffffffffffffffffff16635b7b72c130868a8a8a896040518763ffffffff167c0100000000000000000000000000000000000000000000000000000000028152600401808773ffffffffffffffffffffffffffffffffffffffff1673ffffffffffffffffffffffffffffffffffffffff168152602001868152602001806020018560ff1660ff1681526020018060200184151515158152602001838103835287818151815260200191508051906020019080838360005b8381101561195657808201518184015260208101905061193b565b50505050905090810190601f1680156119835780820380516001836020036101000a031916815260200191505b50838103825285818151815260200191508051906020019080838360005b838110156119bc5780820151818401526020810190506119a1565b50505050905090810190601f1680156119e95780820380516001836020036101000a031916815260200191505b5098505050505050505050602060405180830381600087803b158015611a0e57600080fd5b505af1158015611a22573d6000803e3d6000fd5b505050506040513d6020811015611a3857600080fd5b810190808051906020019092919050505090508073ffffffffffffffffffffffffffffffffffffffff16633cebb823336040518263ffffffff167c0100000000000000000000000000000000000000000000000000000000028152600401808273ffffffffffffffffffffffffffffffffffffffff1673ffffffffffffffffffffffffffffffffffffffff168152602001915050600060405180830381600087803b158015611ae657600080fd5b505af1158015611afa573d6000803e3d6000fd5b505050508073ffffffffffffffffffffffffffffffffffffffff167f086c875b377f900b07ce03575813022f05dd10ed7640b5282cf6d3c3fc352ade856040518082815260200191505060405180910390a28091505095945050505050565b6000611b65824361151b565b9050919050565b600560009054906101000a900473ffffffffffffffffffffffffffffffffffffffff1681565b60008060008060009054906101000a900473ffffffffffffffffffffffffffffffffffffffff1673ffffffffffffffffffffffffffffffffffffffff163373ffffffffffffffffffffffffffffffffffffffff16141515611bf257600080fd5b611bfa611122565b91508184830110151515611c0d57600080fd5b611c1685611b59565b90508084820110151515611c2957600080fd5b611c36600a858401612c8e565b611c80600860008773ffffffffffffffffffffffffffffffffffffffff1673ffffffffffffffffffffffffffffffffffffffff168152602001908152602001600020858301612c8e565b8473ffffffffffffffffffffffffffffffffffffffff1660007fddf252ad1be2c89b69c2b068fc378daa952ba7f163c4a11628f55a4df523b3ef866040518082815260200191505060405180910390a360019250505092915050565b60038054600181600116156101000203166002900480601f016020809104026020016040519081016040528092919081815260200182805460018160011615610100020316600290048015611d725780601f10611d4757610100808354040283529160200191611d72565b820191906000526020600020905b815481529060010190602001808311611d5557829003601f168201915b505050505081565b600080600a805490501480611dd9575081600a6000815481101515611d9b57fe5b9060005260206000200160000160009054906101000a90046fffffffffffffffffffffffffffffffff166fffffffffffffffffffffffffffffffff16115b15611f07576000600560009054906101000a900473ffffffffffffffffffffffffffffffffffffffff1673ffffffffffffffffffffffffffffffffffffffff16141515611efe57600560009054906101000a900473ffffffffffffffffffffffffffffffffffffffff1673ffffffffffffffffffffffffffffffffffffffff1663981b24d0611e6a84600654612a66565b6040518263ffffffff167c010000000000000000000000000000000000000000000000000000000002815260040180828152602001915050602060405180830381600087803b158015611ebc57600080fd5b505af1158015611ed0573d6000803e3d6000fd5b505050506040513d6020811015611ee657600080fd5b81019080805190602001909291905050509050611f15565b60009050611f15565b611f12600a83612a7f565b90505b919050565b6000600b60009054906101000a900460ff161515611f3757600080fd5b611f423384846126db565b6001905092915050565b600b60009054906101000a900460ff1681565b60065481565b6000611f718484610e0b565b1515611f7c57600080fd5b8373ffffffffffffffffffffffffffffffffffffffff16638f4ffcb1338530866040518563ffffffff167c0100000000000000000000000000000000000000000000000000000000028152600401808573ffffffffffffffffffffffffffffffffffffffff1673ffffffffffffffffffffffffffffffffffffffff1681526020018481526020018373ffffffffffffffffffffffffffffffffffffffff1673ffffffffffffffffffffffffffffffffffffffff16815260200180602001828103825283818151815260200191508051906020019080838360005b83811015612071578082015181840152602081019050612056565b50505050905090810190601f16801561209e5780820380516001836020036101000a031916815260200191505b5095505050505050600060405180830381600087803b1580156120c057600080fd5b505af11580156120d4573d6000803e3d6000fd5b50505050600190509392505050565b60008060008060009054906101000a900473ffffffffffffffffffffffffffffffffffffffff1673ffffffffffffffffffffffffffffffffffffffff163373ffffffffffffffffffffffffffffffffffffffff1614151561214357600080fd5b61214b611122565b915083821015151561215c57600080fd5b61216585611b59565b905083811015151561217657600080fd5b612183600a858403612c8e565b6121cd600860008773ffffffffffffffffffffffffffffffffffffffff1673ffffffffffffffffffffffffffffffffffffffff168152602001908152602001600020858303612c8e565b60008573ffffffffffffffffffffffffffffffffffffffff167fddf252ad1be2c89b69c2b068fc378daa952ba7f163c4a11628f55a4df523b3ef866040518082815260200191505060405180910390a360019250505092915050565b6000600960008473ffffffffffffffffffffffffffffffffffffffff1673ffffffffffffffffffffffffffffffffffffffff16815260200190815260200160002060008373ffffffffffffffffffffffffffffffffffffffff1673ffffffffffffffffffffffffffffffffffffffff16815260200190815260200160002054905092915050565b6000806000809054906101000a900473ffffffffffffffffffffffffffffffffffffffff1673ffffffffffffffffffffffffffffffffffffffff163373ffffffffffffffffffffffffffffffffffffffff1614151561230e57600080fd5b60008373ffffffffffffffffffffffffffffffffffffffff1614156123b1576000809054906101000a900473ffffffffffffffffffffffffffffffffffffffff1673ffffffffffffffffffffffffffffffffffffffff166108fc3073ffffffffffffffffffffffffffffffffffffffff16319081150290604051600060405180830381858888f193505050501580156123ab573d6000803e3d6000fd5b50612613565b8291508173ffffffffffffffffffffffffffffffffffffffff166370a08231306040518263ffffffff167c0100000000000000000000000000000000000000000000000000000000028152600401808273ffffffffffffffffffffffffffffffffffffffff1673ffffffffffffffffffffffffffffffffffffffff168152602001915050602060405180830381600087803b15801561244f57600080fd5b505af1158015612463573d6000803e3d6000fd5b505050506040513d602081101561247957600080fd5b810190808051906020019092919050505090508173ffffffffffffffffffffffffffffffffffffffff1663a9059cbb6000809054906101000a900473ffffffffffffffffffffffffffffffffffffffff16836040518363ffffffff167c0100000000000000000000000000000000000000000000000000000000028152600401808373ffffffffffffffffffffffffffffffffffffffff1673ffffffffffffffffffffffffffffffffffffffff16815260200182815260200192505050602060405180830381600087803b15801561255057600080fd5b505af1158015612564573d6000803e3d6000fd5b505050506040513d602081101561257a57600080fd5b8101908080519060200190929190505050506000809054906101000a900473ffffffffffffffffffffffffffffffffffffffff1673ffffffffffffffffffffffffffffffffffffffff168373ffffffffffffffffffffffffffffffffffffffff167ff931edb47c50b4b4104c187b5814a9aef5f709e17e2ecf9617e860cacade929c836040518082815260200191505060405180910390a35b505050565b600b60019054906101000a900473ffffffffffffffffffffffffffffffffffffffff1681565b6000809054906101000a900473ffffffffffffffffffffffffffffffffffffffff1673ffffffffffffffffffffffffffffffffffffffff163373ffffffffffffffffffffffffffffffffffffffff1614151561269957600080fd5b80600b60006101000a81548160ff02191690831515021790555050565b6000809054906101000a900473ffffffffffffffffffffffffffffffffffffffff1681565b6000806000831415612751578373ffffffffffffffffffffffffffffffffffffffff168573ffffffffffffffffffffffffffffffffffffffff167fddf252ad1be2c89b69c2b068fc378daa952ba7f163c4a11628f55a4df523b3ef856040518082815260200191505060405180910390a3612a5f565b4360065410151561276157600080fd5b60008473ffffffffffffffffffffffffffffffffffffffff16141580156127b457503073ffffffffffffffffffffffffffffffffffffffff168473ffffffffffffffffffffffffffffffffffffffff1614155b15156127bf57600080fd5b6127c9854361151b565b91508282101515156127da57600080fd5b6128046000809054906101000a900473ffffffffffffffffffffffffffffffffffffffff16610d31565b15612948576000809054906101000a900473ffffffffffffffffffffffffffffffffffffffff1673ffffffffffffffffffffffffffffffffffffffff16634a3931498686866040518463ffffffff167c0100000000000000000000000000000000000000000000000000000000028152600401808473ffffffffffffffffffffffffffffffffffffffff1673ffffffffffffffffffffffffffffffffffffffff1681526020018373ffffffffffffffffffffffffffffffffffffffff1673ffffffffffffffffffffffffffffffffffffffff1681526020018281526020019350505050602060405180830381600087803b15801561290157600080fd5b505af1158015612915573d6000803e3d6000fd5b505050506040513d602081101561292b57600080fd5b8101908080519060200190929190505050151561294757600080fd5b5b612992600860008773ffffffffffffffffffffffffffffffffffffffff1673ffffffffffffffffffffffffffffffffffffffff168152602001908152602001600020848403612c8e565b61299c844361151b565b905080838201101515156129af57600080fd5b6129f9600860008673ffffffffffffffffffffffffffffffffffffffff1673ffffffffffffffffffffffffffffffffffffffff168152602001908152602001600020848301612c8e565b8373ffffffffffffffffffffffffffffffffffffffff168573ffffffffffffffffffffffffffffffffffffffff167fddf252ad1be2c89b69c2b068fc378daa952ba7f163c4a11628f55a4df523b3ef856040518082815260200191505060405180910390a35b5050505050565b6000818310612a755781612a77565b825b905092915050565b600080600080600086805490501415612a9b5760009350612c85565b856001878054905003815481101515612ab057fe5b9060005260206000200160000160009054906101000a90046fffffffffffffffffffffffffffffffff166fffffffffffffffffffffffffffffffff1685101515612b4c57856001878054905003815481101515612b0957fe5b9060005260206000200160000160109054906101000a90046fffffffffffffffffffffffffffffffff166fffffffffffffffffffffffffffffffff169350612c85565b856000815481101515612b5b57fe5b9060005260206000200160000160009054906101000a90046fffffffffffffffffffffffffffffffff166fffffffffffffffffffffffffffffffff16851015612ba75760009350612c85565b60009250600186805490500391505b82821115612c38576002600184840101811515612bcf57fe5b049050848682815481101515612be157fe5b9060005260206000200160000160009054906101000a90046fffffffffffffffffffffffffffffffff166fffffffffffffffffffffffffffffffff16111515612c2c57809250612c33565b6001810391505b612bb6565b8583815481101515612c4657fe5b9060005260206000200160000160109054906101000a90046fffffffffffffffffffffffffffffffff166fffffffffffffffffffffffffffffffff1693505b50505092915050565b600080600084805490501480612cf3575043846001868054905003815481101515612cb557fe5b9060005260206000200160000160009054906101000a90046fffffffffffffffffffffffffffffffff166fffffffffffffffffffffffffffffffff16105b15612d9f5783848054809190600101612d0c9190612e82565b815481101515612d1857fe5b906000526020600020019150438260000160006101000a8154816fffffffffffffffffffffffffffffffff02191690836fffffffffffffffffffffffffffffffff160217905550828260000160106101000a8154816fffffffffffffffffffffffffffffffff02191690836fffffffffffffffffffffffffffffffff160217905550612dfc565b836001858054905003815481101515612db457fe5b906000526020600020019050828160000160106101000a8154816fffffffffffffffffffffffffffffffff02191690836fffffffffffffffffffffffffffffffff1602179055505b50505050565b828054600181600116156101000203166002900490600052602060002090601f016020900481019282601f10612e4357805160ff1916838001178555612e71565b82800160010185558215612e71579182015b82811115612e70578251825591602001919060010190612e55565b5b509050612e7e9190612eae565b5090565b815481835581811115612ea957818360005260206000209182019101612ea89190612ed3565b5b505050565b612ed091905b80821115612ecc576000816000905550600101612eb4565b5090565b90565b612f3591905b80821115612f3157600080820160006101000a8154906fffffffffffffffffffffffffffffffff02191690556000820160106101000a8154906fffffffffffffffffffffffffffffffff021916905550600101612ed9565b5090565b905600a165627a7a723058207ae20c285b64c843c4a64743432d92aac9594e33e72ad0a0028af235ae5013860029",
  "source": "pragma solidity ^0.4.18;\n\n/*\n    Copyright 2016, Jordi Baylina\n\n    This program is free software: you can redistribute it and/or modify\n    it under the terms of the GNU General Public License as published by\n    the Free Software Foundation, either version 3 of the License, or\n    (at your option) any later version.\n\n    This program is distributed in the hope that it will be useful,\n    but WITHOUT ANY WARRANTY; without even the implied warranty of\n    MERCHANTABILITY or FITNESS FOR A PARTICULAR PURPOSE.  See the\n    GNU General Public License for more details.\n\n    You should have received a copy of the GNU General Public License\n    along with this program.  If not, see <http://www.gnu.org/licenses/>.\n */\n\n/// @title MiniMeToken Contract\n/// @author Jordi Baylina\n/// @dev This token contract's goal is to make it easy for anyone to clone this\n///  token using the token distribution at a given block, this will allow DAO's\n///  and DApps to upgrade their features in a decentralized manner without\n///  affecting the original token\n/// @dev It is ERC20 compliant, but still needs to under go further testing.\n\nimport \"@aragon/apps-shared-minime/contracts/MiniMeToken.sol\";\n\n/// @dev The actual token contract, the default controller is the msg.sender\n///  that deploys the contract, so usually this token will be deployed by a\n///  token controller contract, which Giveth will call a \"Campaign\"\ncontract MiniMeTokenProxyTarget is Controlled {\n\n  string public name;                //The Token's name: e.g. DigixDAO Tokens\n  uint8 public decimals;             //Number of decimals of the smallest unit\n  string public symbol;              //An identifier: e.g. REP\n  string public version;             //An arbitrary versioning scheme\n\n\n  /// @dev `Checkpoint` is the structure that attaches a block number to a\n  ///  given value, the block number attached is the one that last changed the\n  ///  value\n  struct  Checkpoint {\n\n    // `fromBlock` is the block number that the value was generated from\n    uint128 fromBlock;\n\n    // `value` is the amount of tokens at a specific block number\n    uint128 value;\n  }\n\n  // `parentToken` is the Token address that was cloned to produce this token;\n  //  it will be 0x0 for a token that was not cloned\n  MiniMeToken public parentToken;\n\n  // `parentSnapShotBlock` is the block number from the Parent Token that was\n  //  used to determine the initial distribution of the Clone Token\n  uint public parentSnapShotBlock;\n\n  // `creationBlock` is the block number that the Clone Token was created\n  uint public creationBlock;\n\n  // `balances` is the map that tracks the balance of each address, in this\n  //  contract when the balance changes the block number that the change\n  //  occurred is also included in the map\n  mapping (address => Checkpoint[]) balances;\n\n  // `allowed` tracks any extra transfer rights as in all ERC20 tokens\n  mapping (address => mapping (address => uint256)) allowed;\n\n  // Tracks the history of the `totalSupply` of the token\n  Checkpoint[] totalSupplyHistory;\n\n  // Flag that determines if the token is transferable or not.\n  bool public transfersEnabled;\n\n  // The factory used to create new clone tokens\n  MiniMeTokenFactory public tokenFactory;\n\n  ////////////////\n  // Constructor\n  ////////////////\n\n  /// @notice Constructor to create a MiniMeToken\n  /// @param _tokenFactory The address of the MiniMeTokenFactory contract that\n  ///  will create the Clone token contracts, the token factory needs to be\n  ///  deployed first\n  /// @param _parentToken Address of the parent token, set to 0x0 if it is a\n  ///  new token\n  /// @param _parentSnapShotBlock Block of the parent token that will\n  ///  determine the initial distribution of the clone token, set to 0 if it\n  ///  is a new token\n  /// @param _tokenName Name of the new token\n  /// @param _decimalUnits Number of decimals of the new token\n  /// @param _tokenSymbol Token Symbol for the new token\n  /// @param _transfersEnabled If true, tokens will be able to be transferred\n  function construct(\n    address _tokenFactory,\n    address _parentToken,\n    uint _parentSnapShotBlock,\n    string _tokenName,\n    uint8 _decimalUnits,\n    string _tokenSymbol,\n    bool _transfersEnabled\n  ) public {\n    require(creationBlock == 0);\n    version = 'MMT_0.2';\n    tokenFactory = MiniMeTokenFactory(_tokenFactory);\n    name = _tokenName;                                 // Set the name\n    decimals = _decimalUnits;                          // Set the decimals\n    symbol = _tokenSymbol;                             // Set the symbol\n    parentToken = MiniMeToken(_parentToken);\n    parentSnapShotBlock = _parentSnapShotBlock;\n    transfersEnabled = _transfersEnabled;\n    creationBlock = block.number;\n    controller = msg.sender;\n  }\n\n\n  ///////////////////\n  // ERC20 Methods\n  ///////////////////\n\n  /// @notice Send `_amount` tokens to `_to` from `msg.sender`\n  /// @param _to The address of the recipient\n  /// @param _amount The amount of tokens to be transferred\n  /// @return Whether the transfer was successful or not\n  function transfer(address _to, uint256 _amount) public returns (bool success) {\n    require(transfersEnabled);\n    doTransfer(msg.sender, _to, _amount);\n    return true;\n  }\n\n  /// @notice Send `_amount` tokens to `_to` from `_from` on the condition it\n  ///  is approved by `_from`\n  /// @param _from The address holding the tokens being transferred\n  /// @param _to The address of the recipient\n  /// @param _amount The amount of tokens to be transferred\n  /// @return True if the transfer was successful\n  function transferFrom(address _from, address _to, uint256 _amount\n  ) public returns (bool success) {\n\n    // The controller of this contract can move tokens around at will,\n    //  this is important to recognize! Confirm that you trust the\n    //  controller of this contract, which in most situations should be\n    //  another open source smart contract or 0x0\n    if (msg.sender != controller) {\n      require(transfersEnabled);\n\n      // The standard ERC 20 transferFrom functionality\n      require(allowed[_from][msg.sender] >= _amount);\n      allowed[_from][msg.sender] -= _amount;\n    }\n    doTransfer(_from, _to, _amount);\n    return true;\n  }\n\n  /// @dev This is the actual transfer function in the token contract, it can\n  ///  only be called by other functions in this contract.\n  /// @param _from The address holding the tokens being transferred\n  /// @param _to The address of the recipient\n  /// @param _amount The amount of tokens to be transferred\n  /// @return True if the transfer was successful\n  function doTransfer(address _from, address _to, uint _amount\n  ) internal {\n\n    if (_amount == 0) {\n      Transfer(_from, _to, _amount);    // Follow the spec to louch the event when transfer 0\n      return;\n    }\n\n    require(parentSnapShotBlock < block.number);\n\n    // Do not allow transfer to 0x0 or the token contract itself\n    require((_to != 0) && (_to != address(this)));\n\n    // If the amount being transfered is more than the balance of the\n    //  account the transfer throws\n    var previousBalanceFrom = balanceOfAt(_from, block.number);\n\n    require(previousBalanceFrom >= _amount);\n\n    // Alerts the token controller of the transfer\n    if (isContract(controller)) {\n      require(ITokenController(controller).onTransfer(_from, _to, _amount));\n    }\n\n    // First update the balance array with the new value for the address\n    //  sending the tokens\n    updateValueAtNow(balances[_from], previousBalanceFrom - _amount);\n\n    // Then update the balance array with the new value for the address\n    //  receiving the tokens\n    var previousBalanceTo = balanceOfAt(_to, block.number);\n    require(previousBalanceTo + _amount >= previousBalanceTo); // Check for overflow\n    updateValueAtNow(balances[_to], previousBalanceTo + _amount);\n\n    // An event to make the transfer easy to find on the blockchain\n    Transfer(_from, _to, _amount);\n\n  }\n\n  /// @param _owner The address that's balance is being requested\n  /// @return The balance of `_owner` at the current block\n  function balanceOf(address _owner) public constant returns (uint256 balance) {\n    return balanceOfAt(_owner, block.number);\n  }\n\n  /// @notice `msg.sender` approves `_spender` to spend `_amount` tokens on\n  ///  its behalf. This is a modified version of the ERC20 approve function\n  ///  to be a little bit safer\n  /// @param _spender The address of the account able to transfer the tokens\n  /// @param _amount The amount of tokens to be approved for transfer\n  /// @return True if the approval was successful\n  function approve(address _spender, uint256 _amount) public returns (bool success) {\n    require(transfersEnabled);\n\n    // To change the approve amount you first have to reduce the addresses`\n    //  allowance to zero by calling `approve(_spender,0)` if it is not\n    //  already 0 to mitigate the race condition described here:\n    //  https://github.com/ethereum/EIPs/issues/20#issuecomment-263524729\n    require((_amount == 0) || (allowed[msg.sender][_spender] == 0));\n\n    // Alerts the token controller of the approve function call\n    if (isContract(controller)) {\n      require(ITokenController(controller).onApprove(msg.sender, _spender, _amount));\n    }\n\n    allowed[msg.sender][_spender] = _amount;\n    Approval(msg.sender, _spender, _amount);\n    return true;\n  }\n\n  /// @dev This function makes it easy to read the `allowed[]` map\n  /// @param _owner The address of the account that owns the token\n  /// @param _spender The address of the account able to transfer the tokens\n  /// @return Amount of remaining tokens of _owner that _spender is allowed\n  ///  to spend\n  function allowance(address _owner, address _spender\n  ) public constant returns (uint256 remaining) {\n    return allowed[_owner][_spender];\n  }\n\n  /// @notice `msg.sender` approves `_spender` to send `_amount` tokens on\n  ///  its behalf, and then a function is triggered in the contract that is\n  ///  being approved, `_spender`. This allows users to use their tokens to\n  ///  interact with contracts in one function call instead of two\n  /// @param _spender The address of the contract able to transfer the tokens\n  /// @param _amount The amount of tokens to be approved for transfer\n  /// @return True if the function call was successful\n  function approveAndCall(address _spender, uint256 _amount, bytes _extraData\n  ) public returns (bool success) {\n    require(approve(_spender, _amount));\n\n    ApproveAndCallFallBack(_spender).receiveApproval(\n      msg.sender,\n      _amount,\n      this,\n      _extraData\n    );\n\n    return true;\n  }\n\n  /// @dev This function makes it easy to get the total number of tokens\n  /// @return The total number of tokens\n  function totalSupply() public constant returns (uint) {\n    return totalSupplyAt(block.number);\n  }\n\n\n  ////////////////\n  // Query balance and totalSupply in History\n  ////////////////\n\n  /// @dev Queries the balance of `_owner` at a specific `_blockNumber`\n  /// @param _owner The address from which the balance will be retrieved\n  /// @param _blockNumber The block number when the balance is queried\n  /// @return The balance at `_blockNumber`\n  function balanceOfAt(address _owner, uint _blockNumber) public constant\n  returns (uint) {\n\n    // These next few lines are used when the balance of the token is\n    //  requested before a check point was ever created for this token, it\n    //  requires that the `parentToken.balanceOfAt` be queried at the\n    //  genesis block for that token as this contains initial balance of\n    //  this token\n    if ((balances[_owner].length == 0)\n      || (balances[_owner][0].fromBlock > _blockNumber)) {\n      if (address(parentToken) != 0) {\n        return parentToken.balanceOfAt(_owner, min(_blockNumber, parentSnapShotBlock));\n      } else {\n        // Has no parent\n        return 0;\n      }\n\n      // This will return the expected balance during normal situations\n    } else {\n      return getValueAt(balances[_owner], _blockNumber);\n    }\n  }\n\n  /// @notice Total amount of tokens at a specific `_blockNumber`.\n  /// @param _blockNumber The block number when the totalSupply is queried\n  /// @return The total amount of tokens at `_blockNumber`\n  function totalSupplyAt(uint _blockNumber) public constant returns(uint) {\n\n    // These next few lines are used when the totalSupply of the token is\n    //  requested before a check point was ever created for this token, it\n    //  requires that the `parentToken.totalSupplyAt` be queried at the\n    //  genesis block for this token as that contains totalSupply of this\n    //  token at this block number.\n    if ((totalSupplyHistory.length == 0)\n      || (totalSupplyHistory[0].fromBlock > _blockNumber)) {\n      if (address(parentToken) != 0) {\n        return parentToken.totalSupplyAt(min(_blockNumber, parentSnapShotBlock));\n      } else {\n        return 0;\n      }\n\n      // This will return the expected totalSupply during normal situations\n    } else {\n      return getValueAt(totalSupplyHistory, _blockNumber);\n    }\n  }\n\n  ////////////////\n  // Clone Token Method\n  ////////////////\n\n  /// @notice Creates a new clone token with the initial distribution being\n  ///  this token at `_snapshotBlock`\n  /// @param _cloneTokenName Name of the clone token\n  /// @param _cloneDecimalUnits Number of decimals of the smallest unit\n  /// @param _cloneTokenSymbol Symbol of the clone token\n  /// @param _snapshotBlock Block when the distribution of the parent token is\n  ///  copied to set the initial distribution of the new clone token;\n  ///  if the block is zero than the actual block, the current block is used\n  /// @param _transfersEnabled True if transfers are allowed in the clone\n  /// @return The address of the new MiniMeToken Contract\n  function createCloneToken(\n    string _cloneTokenName,\n    uint8 _cloneDecimalUnits,\n    string _cloneTokenSymbol,\n    uint _snapshotBlock,\n    bool _transfersEnabled\n  ) public returns(address) {\n    if (_snapshotBlock == 0) _snapshotBlock = block.number;\n    MiniMeToken cloneToken = tokenFactory.createCloneToken(\n      MiniMeToken(this),\n      _snapshotBlock,\n      _cloneTokenName,\n      _cloneDecimalUnits,\n      _cloneTokenSymbol,\n      _transfersEnabled\n    );\n\n    cloneToken.changeController(msg.sender);\n\n    // An event to make the token easy to find on the blockchain\n    NewCloneToken(address(cloneToken), _snapshotBlock);\n    return address(cloneToken);\n  }\n\n  ////////////////\n  // Generate and destroy tokens\n  ////////////////\n\n  /// @notice Generates `_amount` tokens that are assigned to `_owner`\n  /// @param _owner The address that will be assigned the new tokens\n  /// @param _amount The quantity of tokens generated\n  /// @return True if the tokens are generated correctly\n  function generateTokens(address _owner, uint _amount\n  ) public onlyController returns (bool) {\n    uint curTotalSupply = totalSupply();\n    require(curTotalSupply + _amount >= curTotalSupply); // Check for overflow\n    uint previousBalanceTo = balanceOf(_owner);\n    require(previousBalanceTo + _amount >= previousBalanceTo); // Check for overflow\n    updateValueAtNow(totalSupplyHistory, curTotalSupply + _amount);\n    updateValueAtNow(balances[_owner], previousBalanceTo + _amount);\n    Transfer(0, _owner, _amount);\n    return true;\n  }\n\n\n  /// @notice Burns `_amount` tokens from `_owner`\n  /// @param _owner The address that will lose the tokens\n  /// @param _amount The quantity of tokens to burn\n  /// @return True if the tokens are burned correctly\n  function destroyTokens(address _owner, uint _amount\n  ) onlyController public returns (bool) {\n    uint curTotalSupply = totalSupply();\n    require(curTotalSupply >= _amount);\n    uint previousBalanceFrom = balanceOf(_owner);\n    require(previousBalanceFrom >= _amount);\n    updateValueAtNow(totalSupplyHistory, curTotalSupply - _amount);\n    updateValueAtNow(balances[_owner], previousBalanceFrom - _amount);\n    Transfer(_owner, 0, _amount);\n    return true;\n  }\n\n  ////////////////\n  // Enable tokens transfers\n  ////////////////\n\n\n  /// @notice Enables token holders to transfer their tokens freely if true\n  /// @param _transfersEnabled True if transfers are allowed in the clone\n  function enableTransfers(bool _transfersEnabled) public onlyController {\n    transfersEnabled = _transfersEnabled;\n  }\n\n  ////////////////\n  // Internal helper functions to query and set a value in a snapshot array\n  ////////////////\n\n  /// @dev `getValueAt` retrieves the number of tokens at a given block number\n  /// @param checkpoints The history of values being queried\n  /// @param _block The block number to retrieve the value at\n  /// @return The number of tokens being queried\n  function getValueAt(Checkpoint[] storage checkpoints, uint _block\n  ) constant internal returns (uint) {\n    if (checkpoints.length == 0) return 0;\n\n    // Shortcut for the actual value\n    if (_block >= checkpoints[checkpoints.length-1].fromBlock)\n      return checkpoints[checkpoints.length-1].value;\n    if (_block < checkpoints[0].fromBlock) return 0;\n\n    // Binary search of the value in the array\n    uint min = 0;\n    uint max = checkpoints.length-1;\n    while (max > min) {\n      uint mid = (max + min + 1)/ 2;\n      if (checkpoints[mid].fromBlock<=_block) {\n        min = mid;\n      } else {\n        max = mid-1;\n      }\n    }\n    return checkpoints[min].value;\n  }\n\n  /// @dev `updateValueAtNow` used to update the `balances` map and the\n  ///  `totalSupplyHistory`\n  /// @param checkpoints The history of data being updated\n  /// @param _value The new number of tokens\n  function updateValueAtNow(Checkpoint[] storage checkpoints, uint _value\n  ) internal  {\n    if ((checkpoints.length == 0)\n      || (checkpoints[checkpoints.length -1].fromBlock < block.number)) {\n      Checkpoint storage newCheckPoint = checkpoints[ checkpoints.length++ ];\n      newCheckPoint.fromBlock =  uint128(block.number);\n      newCheckPoint.value = uint128(_value);\n    } else {\n      Checkpoint storage oldCheckPoint = checkpoints[checkpoints.length-1];\n      oldCheckPoint.value = uint128(_value);\n    }\n  }\n\n  /// @dev Internal function to determine if an address is a contract\n  /// @param _addr The address being queried\n  /// @return True if `_addr` is a contract\n  function isContract(address _addr) constant internal returns(bool) {\n    uint size;\n    if (_addr == 0) return false;\n    assembly {\n      size := extcodesize(_addr)\n    }\n    return size>0;\n  }\n\n  /// @dev Helper function to return a min betwen the two uints\n  function min(uint a, uint b) pure internal returns (uint) {\n    return a < b ? a : b;\n  }\n\n  /// @notice The fallback function: If the contract's controller has not been\n  ///  set to 0, then the `proxyPayment` method is called which relays the\n  ///  ether and creates tokens as described in the token controller contract\n  function () public payable {\n    require(isContract(controller));\n    require(ITokenController(controller).proxyPayment.value(msg.value)(msg.sender));\n  }\n\n  //////////\n  // Safety Methods\n  //////////\n\n  /// @notice This method can be used by the controller to extract mistakenly\n  ///  sent tokens to this contract.\n  /// @param _token The address of the token contract that you want to recover\n  ///  set to 0 in case you want to extract ether.\n  function claimTokens(address _token) public onlyController {\n    if (_token == 0x0) {\n      controller.transfer(this.balance);\n      return;\n    }\n\n    MiniMeToken token = MiniMeToken(_token);\n    uint balance = token.balanceOf(this);\n    token.transfer(controller, balance);\n    ClaimedTokens(_token, controller, balance);\n  }\n\n  ////////////////\n  // Events\n  ////////////////\n  event ClaimedTokens(address indexed _token, address indexed _controller, uint _amount);\n  event Transfer(address indexed _from, address indexed _to, uint256 _amount);\n  event NewCloneToken(address indexed _cloneToken, uint _snapshotBlock);\n  event Approval(\n    address indexed _owner,\n    address indexed _spender,\n    uint256 _amount\n  );\n\n}",
  "sourcePath": "/Users/matus/www/district0x/district-registry/contracts/minime/MiniMeTokenProxyTarget.sol",
  "compiler": {
    "name": "solc",
    "version": "0.4.24+commit.e67f0147.Emscripten.clang"
  },
  "schemaVersion": "3.0.10",
  "updatedAt": "2019-06-29T10:51:09.392Z",
  "devdoc": {
    "methods": {
      "allowance(address,address)": {
        "details": "This function makes it easy to read the `allowed[]` map",
        "params": {
          "_owner": "The address of the account that owns the token",
          "_spender": "The address of the account able to transfer the tokens"
        },
        "return": "Amount of remaining tokens of _owner that _spender is allowed  to spend"
      },
      "approve(address,uint256)": {
        "params": {
          "_amount": "The amount of tokens to be approved for transfer",
          "_spender": "The address of the account able to transfer the tokens"
        },
        "return": "True if the approval was successful"
      },
      "approveAndCall(address,uint256,bytes)": {
        "params": {
          "_amount": "The amount of tokens to be approved for transfer",
          "_spender": "The address of the contract able to transfer the tokens"
        },
        "return": "True if the function call was successful"
      },
      "balanceOf(address)": {
        "params": {
          "_owner": "The address that's balance is being requested"
        },
        "return": "The balance of `_owner` at the current block"
      },
      "balanceOfAt(address,uint256)": {
        "details": "Queries the balance of `_owner` at a specific `_blockNumber`",
        "params": {
          "_blockNumber": "The block number when the balance is queried",
          "_owner": "The address from which the balance will be retrieved"
        },
        "return": "The balance at `_blockNumber`"
      },
      "changeController(address)": {
        "params": {
          "_newController": "The new controller of the contract"
        }
      },
      "claimTokens(address)": {
        "params": {
          "_token": "The address of the token contract that you want to recover  set to 0 in case you want to extract ether."
        }
      },
      "construct(address,address,uint256,string,uint8,string,bool)": {
        "params": {
          "_decimalUnits": "Number of decimals of the new token",
          "_parentSnapShotBlock": "Block of the parent token that will  determine the initial distribution of the clone token, set to 0 if it  is a new token",
          "_parentToken": "Address of the parent token, set to 0x0 if it is a  new token",
          "_tokenFactory": "The address of the MiniMeTokenFactory contract that  will create the Clone token contracts, the token factory needs to be  deployed first",
          "_tokenName": "Name of the new token",
          "_tokenSymbol": "Token Symbol for the new token",
          "_transfersEnabled": "If true, tokens will be able to be transferred"
        }
      },
      "createCloneToken(string,uint8,string,uint256,bool)": {
        "params": {
          "_cloneDecimalUnits": "Number of decimals of the smallest unit",
          "_cloneTokenName": "Name of the clone token",
          "_cloneTokenSymbol": "Symbol of the clone token",
          "_snapshotBlock": "Block when the distribution of the parent token is  copied to set the initial distribution of the new clone token;  if the block is zero than the actual block, the current block is used",
          "_transfersEnabled": "True if transfers are allowed in the clone"
        },
        "return": "The address of the new MiniMeToken Contract"
      },
      "destroyTokens(address,uint256)": {
        "params": {
          "_amount": "The quantity of tokens to burn",
          "_owner": "The address that will lose the tokens"
        },
        "return": "True if the tokens are burned correctly"
      },
      "enableTransfers(bool)": {
        "params": {
          "_transfersEnabled": "True if transfers are allowed in the clone"
        }
      },
      "generateTokens(address,uint256)": {
        "params": {
          "_amount": "The quantity of tokens generated",
          "_owner": "The address that will be assigned the new tokens"
        },
        "return": "True if the tokens are generated correctly"
      },
      "totalSupply()": {
        "details": "This function makes it easy to get the total number of tokens",
        "return": "The total number of tokens"
      },
      "totalSupplyAt(uint256)": {
        "params": {
          "_blockNumber": "The block number when the totalSupply is queried"
        },
        "return": "The total amount of tokens at `_blockNumber`"
      },
      "transfer(address,uint256)": {
        "params": {
          "_amount": "The amount of tokens to be transferred",
          "_to": "The address of the recipient"
        },
        "return": "Whether the transfer was successful or not"
      },
      "transferFrom(address,address,uint256)": {
        "params": {
          "_amount": "The amount of tokens to be transferred",
          "_from": "The address holding the tokens being transferred",
          "_to": "The address of the recipient"
        },
        "return": "True if the transfer was successful"
      }
    }
  },
  "userdoc": {
    "methods": {
      "approve(address,uint256)": {
        "notice": "`msg.sender` approves `_spender` to spend `_amount` tokens on  its behalf. This is a modified version of the ERC20 approve function  to be a little bit safer"
      },
      "approveAndCall(address,uint256,bytes)": {
        "notice": "`msg.sender` approves `_spender` to send `_amount` tokens on  its behalf, and then a function is triggered in the contract that is  being approved, `_spender`. This allows users to use their tokens to  interact with contracts in one function call instead of two"
      },
      "balanceOfAt(address,uint256)": {
        "notice": "/////////////"
      },
      "changeController(address)": {
        "notice": "Changes the controller of the contract"
      },
      "claimTokens(address)": {
        "notice": "///////This method can be used by the controller to extract mistakenly  sent tokens to this contract."
      },
      "construct(address,address,uint256,string,uint8,string,bool)": {
        "notice": "/////////////Constructor to create a MiniMeToken"
      },
      "createCloneToken(string,uint8,string,uint256,bool)": {
        "notice": "/////////////Creates a new clone token with the initial distribution being  this token at `_snapshotBlock`"
      },
      "destroyTokens(address,uint256)": {
        "notice": "Burns `_amount` tokens from `_owner`"
      },
      "enableTransfers(bool)": {
        "notice": "/////////////Enables token holders to transfer their tokens freely if true"
      },
      "generateTokens(address,uint256)": {
        "notice": "/////////////Generates `_amount` tokens that are assigned to `_owner`"
      },
      "totalSupplyAt(uint256)": {
        "notice": "Total amount of tokens at a specific `_blockNumber`."
      },
      "transfer(address,uint256)": {
        "notice": "////////////////Send `_amount` tokens to `_to` from `msg.sender`"
      },
      "transferFrom(address,address,uint256)": {
        "notice": "Send `_amount` tokens to `_to` from `_from` on the condition it  is approved by `_from`"
      }
    }
  }
}