{
  "contractName": "ParamChange_copy",
  "abi": [
    {
      "constant": true,
      "inputs": [],
      "name": "creator",
      "outputs": [
        {
          "name": "",
          "type": "address"
        }
      ],
      "payable": false,
      "stateMutability": "view",
      "type": "function"
    },
    {
      "constant": false,
      "inputs": [
        {
          "name": "_voter",
          "type": "address"
        },
        {
          "name": "_amount",
          "type": "uint256"
        },
        {
          "name": "_secretHash",
          "type": "bytes32"
        }
      ],
      "name": "commitVote",
      "outputs": [],
      "payable": false,
      "stateMutability": "nonpayable",
      "type": "function"
    },
    {
      "constant": true,
      "inputs": [],
      "name": "db",
      "outputs": [
        {
          "name": "",
          "type": "address"
        }
      ],
      "payable": false,
      "stateMutability": "view",
      "type": "function"
    },
    {
      "constant": true,
      "inputs": [],
      "name": "version",
      "outputs": [
        {
          "name": "",
          "type": "uint256"
        }
      ],
      "payable": false,
      "stateMutability": "view",
      "type": "function"
    },
    {
      "constant": true,
      "inputs": [],
      "name": "challengePeriodEnd",
      "outputs": [
        {
          "name": "",
          "type": "uint256"
        }
      ],
      "payable": false,
      "stateMutability": "view",
      "type": "function"
    },
    {
      "constant": true,
      "inputs": [],
      "name": "registryToken",
      "outputs": [
        {
          "name": "",
          "type": "address"
        }
      ],
      "payable": false,
      "stateMutability": "view",
      "type": "function"
    },
    {
      "constant": true,
      "inputs": [],
      "name": "registry",
      "outputs": [
        {
          "name": "",
          "type": "address"
        }
      ],
      "payable": false,
      "stateMutability": "view",
      "type": "function"
    },
    {
      "constant": false,
      "inputs": [
        {
          "name": "_challengeIndex",
          "type": "uint256"
        },
        {
          "name": "_user",
          "type": "address"
        }
      ],
      "name": "claimRewardForChallenge",
      "outputs": [],
      "payable": false,
      "stateMutability": "nonpayable",
      "type": "function"
    },
    {
      "constant": false,
      "inputs": [
        {
          "name": "_challenger",
          "type": "address"
        },
        {
          "name": "_challengeMetaHash",
          "type": "bytes"
        }
      ],
      "name": "createChallenge",
      "outputs": [],
      "payable": false,
      "stateMutability": "nonpayable",
      "type": "function"
    },
    {
      "constant": true,
      "inputs": [
        {
          "name": "",
          "type": "uint256"
        }
      ],
      "name": "challenges",
      "outputs": [
        {
          "name": "",
          "type": "address"
        }
      ],
      "payable": false,
      "stateMutability": "view",
      "type": "function"
    },
    {
      "constant": false,
      "inputs": [
        {
          "name": "_from",
          "type": "address"
        },
        {
          "name": "_amount",
          "type": "uint256"
        },
        {
          "name": "_token",
          "type": "address"
        },
        {
          "name": "_data",
          "type": "bytes"
        }
      ],
      "name": "receiveApproval",
      "outputs": [],
      "payable": false,
      "stateMutability": "nonpayable",
      "type": "function"
    },
    {
      "constant": false,
      "inputs": [
        {
          "name": "_challengeIndex",
          "type": "uint256"
        },
        {
          "name": "_voter",
          "type": "address"
        },
        {
          "name": "_amount",
          "type": "uint256"
        },
        {
          "name": "_secretHash",
          "type": "bytes32"
        }
      ],
      "name": "commitVoteForChallenge",
      "outputs": [],
      "payable": false,
      "stateMutability": "nonpayable",
      "type": "function"
    },
    {
      "constant": false,
      "inputs": [
        {
          "name": "_voteOption",
          "type": "uint8"
        },
        {
          "name": "_salt",
          "type": "string"
        }
      ],
      "name": "revealVote",
      "outputs": [],
      "payable": false,
      "stateMutability": "nonpayable",
      "type": "function"
    },
    {
      "constant": true,
      "inputs": [],
      "name": "deposit",
      "outputs": [
        {
          "name": "",
          "type": "uint256"
        }
      ],
      "payable": false,
      "stateMutability": "view",
      "type": "function"
    },
    {
      "constant": false,
      "inputs": [
        {
          "name": "_user",
          "type": "address"
        }
      ],
      "name": "claimReward",
      "outputs": [],
      "payable": false,
      "stateMutability": "nonpayable",
      "type": "function"
    },
    {
      "constant": false,
      "inputs": [
        {
          "name": "_challengeIndex",
          "type": "uint256"
        },
        {
          "name": "_voteOption",
          "type": "uint8"
        },
        {
          "name": "_salt",
          "type": "string"
        }
      ],
      "name": "revealVoteForChallenge",
      "outputs": [],
      "payable": false,
      "stateMutability": "nonpayable",
      "type": "function"
    },
    {
      "constant": false,
      "inputs": [
        {
          "name": "_creator",
          "type": "address"
        },
        {
          "name": "_version",
          "type": "uint256"
        },
        {
          "name": "_db",
          "type": "address"
        },
        {
          "name": "_key",
          "type": "string"
        },
        {
          "name": "_value",
          "type": "uint256"
        }
      ],
      "name": "construct",
      "outputs": [],
      "payable": false,
      "stateMutability": "nonpayable",
      "type": "function"
    },
    {
      "constant": false,
      "inputs": [
        {
          "name": "_creator",
          "type": "address"
        },
        {
          "name": "_version",
          "type": "uint256"
        }
      ],
      "name": "construct",
      "outputs": [],
      "payable": false,
      "stateMutability": "nonpayable",
      "type": "function"
    },
    {
      "constant": false,
      "inputs": [],
      "name": "applyChange",
      "outputs": [],
      "payable": false,
      "stateMutability": "nonpayable",
      "type": "function"
    }
  ],
  "bytecode": "0x608060405234801561001057600080fd5b5061475a806100206000396000f300608060405260043610610107576000357c0100000000000000000000000000000000000000000000000000000000900463ffffffff16806302d05d3f1461010c57806327f429d8146101635780634d655aff146101be5780634e65037e1461021557806354fd4d501461022c578063671f08e3146102575780637792957d146102825780637b103999146102d95780637b1c91cc146103305780637faa6e8c146103bf57806387dfc3eb1461040c5780638f1d3776146104955780638f4ffcb114610502578063a9624b6f146105b5578063ab5310311461061a578063c8cfe15314610667578063d0e30db0146106af578063d279c191146106da578063e71ae0f11461071d575b600080fd5b34801561011857600080fd5b5061012161076f565b604051808273ffffffffffffffffffffffffffffffffffffffff1673ffffffffffffffffffffffffffffffffffffffff16815260200191505060405180910390f35b34801561016f57600080fd5b506101bc600480360381019080803573ffffffffffffffffffffffffffffffffffffffff169060200190929190803590602001909291908035600019169060200190929190505050610794565b005b3480156101ca57600080fd5b506101d36107ac565b604051808273ffffffffffffffffffffffffffffffffffffffff1673ffffffffffffffffffffffffffffffffffffffff16815260200191505060405180910390f35b34801561022157600080fd5b5061022a6107d2565b005b34801561023857600080fd5b50610241610e61565b6040518082815260200191505060405180910390f35b34801561026357600080fd5b5061026c610e67565b6040518082815260200191505060405180910390f35b34801561028e57600080fd5b50610297610e6d565b604051808273ffffffffffffffffffffffffffffffffffffffff1673ffffffffffffffffffffffffffffffffffffffff16815260200191505060405180910390f35b3480156102e557600080fd5b506102ee610e85565b604051808273ffffffffffffffffffffffffffffffffffffffff1673ffffffffffffffffffffffffffffffffffffffff16815260200191505060405180910390f35b34801561033c57600080fd5b506103bd600480360381019080803573ffffffffffffffffffffffffffffffffffffffff16906020019092919080359060200190929190803573ffffffffffffffffffffffffffffffffffffffff16906020019092919080359060200190820180359060200191909192939192939080359060200190929190505050610e9d565b005b3480156103cb57600080fd5b5061040a60048036038101908080359060200190929190803573ffffffffffffffffffffffffffffffffffffffff169060200190929190505050611226565b005b34801561041857600080fd5b50610493600480360381019080803573ffffffffffffffffffffffffffffffffffffffff169060200190929190803590602001908201803590602001908080601f0160208091040260200160405190810160405280939291908181526020018383808284378201915050505050509192919290505050611234565b005b3480156104a157600080fd5b506104c060048036038101908080359060200190929190505050612092565b604051808273ffffffffffffffffffffffffffffffffffffffff1673ffffffffffffffffffffffffffffffffffffffff16815260200191505060405180910390f35b34801561050e57600080fd5b506105b3600480360381019080803573ffffffffffffffffffffffffffffffffffffffff16906020019092919080359060200190929190803573ffffffffffffffffffffffffffffffffffffffff169060200190929190803590602001908201803590602001908080601f01602080910402602001604051908101604052809392919081815260200183838082843782019150505050505091929192905050506120d0565b005b3480156105c157600080fd5b5061061860048036038101908080359060200190929190803573ffffffffffffffffffffffffffffffffffffffff169060200190929190803590602001909291908035600019169060200190929190505050612168565b005b34801561062657600080fd5b50610665600480360381019080803573ffffffffffffffffffffffffffffffffffffffff1690602001909291908035906020019092919050505061217a565b005b34801561067357600080fd5b506106ad600480360381019080803560ff169060200190929190803590602001908201803590602001919091929391929390505050612753565b005b3480156106bb57600080fd5b506106c461279c565b6040518082815260200191505060405180910390f35b3480156106e657600080fd5b5061071b600480360381019080803573ffffffffffffffffffffffffffffffffffffffff1690602001909291905050506127a2565b005b34801561072957600080fd5b5061076d60048036038101908080359060200190929190803560ff1690602001909291908035906020019082018035906020019190919293919293905050506127b6565b005b6000809054906101000a900473ffffffffffffffffffffffffffffffffffffffff1681565b6107a761079f6127f9565b848484612809565b505050565b600560009054906101000a900473ffffffffffffffffffffffffffffffffffffffff1681565b734C28b3a3b2b6C2aE7e440b0BE161A38f72039A3973ffffffffffffffffffffffffffffffffffffffff16635f9e8f826040518163ffffffff167c0100000000000000000000000000000000000000000000000000000000028152600401602060405180830381600087803b15801561084a57600080fd5b505af115801561085e573d6000803e3d6000fd5b505050506040513d602081101561087457600080fd5b810190808051906020019092919050505015151561089157600080fd5b600954600560009054906101000a900473ffffffffffffffffffffffffffffffffffffffff1673ffffffffffffffffffffffffffffffffffffffff1663bdc963d8600660405160200180828054600181600116156101000203166002900480156109325780601f10610910576101008083540402835291820191610932565b820191906000526020600020905b81548152906001019060200180831161091e575b50509150506040516020818303038152906040526040518082805190602001908083835b60208310151561097b5780518252602082019150602081019050602083039250610956565b6001836020036101000a03801982511681845116808217855250505050505090500191505060405180910390206040518263ffffffff167c0100000000000000000000000000000000000000000000000000000000028152600401808260001916600019168152602001915050602060405180830381600087803b158015610a0257600080fd5b505af1158015610a16573d6000803e3d6000fd5b505050506040513d6020811015610a2c57600080fd5b8101908080519060200190929190505050141515610a4957600080fd5b6000600a54101515610a5a57600080fd5b610a62612bb9565b73ffffffffffffffffffffffffffffffffffffffff1663611b40956040518163ffffffff167c0100000000000000000000000000000000000000000000000000000000028152600401602060405180830381600087803b158015610ac557600080fd5b505af1158015610ad9573d6000803e3d6000fd5b505050506040513d6020811015610aef57600080fd5b81019080805190602001909291905050501515610b0b57600080fd5b73E450dcDe6C059339A35EEC0FaCbe62751ccA6e8a73ffffffffffffffffffffffffffffffffffffffff1663a9059cbb6000809054906101000a900473ffffffffffffffffffffffffffffffffffffffff166002546040518363ffffffff167c0100000000000000000000000000000000000000000000000000000000028152600401808373ffffffffffffffffffffffffffffffffffffffff1673ffffffffffffffffffffffffffffffffffffffff16815260200182815260200192505050602060405180830381600087803b158015610be557600080fd5b505af1158015610bf9573d6000803e3d6000fd5b505050506040513d6020811015610c0f57600080fd5b81019080805190602001909291905050501515610c2b57600080fd5b600560009054906101000a900473ffffffffffffffffffffffffffffffffffffffff1673ffffffffffffffffffffffffffffffffffffffff16633562fd2060066040516020018082805460018160011615610100020316600290048015610cc95780601f10610ca7576101008083540402835291820191610cc9565b820191906000526020600020905b815481529060010190602001808311610cb5575b50509150506040516020818303038152906040526040518082805190602001908083835b602083101515610d125780518252602082019150602081019050602083039250610ced565b6001836020036101000a03801982511681845116808217855250505050505090500191505060405180910390206008546040518363ffffffff167c010000000000000000000000000000000000000000000000000000000002815260040180836000191660001916815260200182815260200192505050600060405180830381600087803b158015610da357600080fd5b505af1158015610db7573d6000803e3d6000fd5b5050505042600a81905550734C28b3a3b2b6C2aE7e440b0BE161A38f72039A3973ffffffffffffffffffffffffffffffffffffffff16635c58046c6001546040518263ffffffff167c010000000000000000000000000000000000000000000000000000000002815260040180828152602001915050600060405180830381600087803b158015610e4757600080fd5b505af1158015610e5b573d6000803e3d6000fd5b50505050565b60015481565b60035481565b73E450dcDe6C059339A35EEC0FaCbe62751ccA6e8a81565b734C28b3a3b2b6C2aE7e440b0BE161A38f72039A3981565b60008383604051602001808383808284378201915050925050506040516020818303038152906040526040518082805190602001908083835b602083101515610efb5780518252602082019150602081019050602083039250610ed6565b6001836020036101000a03801982511681845116808217855250505050505090500191505060405180910390209050610f49734C28b3a3b2b6C2aE7e440b0BE161A38f72039A398284612bd0565b1515610f5457600080fd5b610f5e878761217a565b84600560006101000a81548173ffffffffffffffffffffffffffffffffffffffff021916908373ffffffffffffffffffffffffffffffffffffffff160217905550838360069190610fb09291906144d9565b50816008819055506000600760006101000a81548160ff02191690836006811115610fd757fe5b0217905550600560009054906101000a900473ffffffffffffffffffffffffffffffffffffffff1673ffffffffffffffffffffffffffffffffffffffff1663bdc963d8826040518263ffffffff167c0100000000000000000000000000000000000000000000000000000000028152600401808260001916600019168152602001915050602060405180830381600087803b15801561107557600080fd5b505af1158015611089573d6000803e3d6000fd5b505050506040513d602081101561109f57600080fd5b8101908080519060200190929190505050600981905550734C28b3a3b2b6C2aE7e440b0BE161A38f72039A3973ffffffffffffffffffffffffffffffffffffffff166352df042260015489600560009054906101000a900473ffffffffffffffffffffffffffffffffffffffff1688886008546002546003546040518963ffffffff167c0100000000000000000000000000000000000000000000000000000000028152600401808981526020018873ffffffffffffffffffffffffffffffffffffffff1673ffffffffffffffffffffffffffffffffffffffff1681526020018773ffffffffffffffffffffffffffffffffffffffff1673ffffffffffffffffffffffffffffffffffffffff16815260200180602001858152602001848152602001838152602001828103825287878281815260200192508082843782019150509950505050505050505050600060405180830381600087803b15801561120557600080fd5b505af1158015611219573d6000803e3d6000fd5b5050505050505050505050565b61123082826130de565b5050565b6000806000806000806000734C28b3a3b2b6C2aE7e440b0BE161A38f72039A3973ffffffffffffffffffffffffffffffffffffffff16635f9e8f826040518163ffffffff167c0100000000000000000000000000000000000000000000000000000000028152600401602060405180830381600087803b1580156112b757600080fd5b505af11580156112cb573d6000803e3d6000fd5b505050506040513d60208110156112e157600080fd5b81019080805190602001909291905050501515156112fe57600080fd5b60008973ffffffffffffffffffffffffffffffffffffffff161415151561132457600080fd5b61132c613e3c565b151561133757600080fd5b73E450dcDe6C059339A35EEC0FaCbe62751ccA6e8a73ffffffffffffffffffffffffffffffffffffffff166323b872dd8a306002546040518463ffffffff167c0100000000000000000000000000000000000000000000000000000000028152600401808473ffffffffffffffffffffffffffffffffffffffff1673ffffffffffffffffffffffffffffffffffffffff1681526020018373ffffffffffffffffffffffffffffffffffffffff1673ffffffffffffffffffffffffffffffffffffffff1681526020018281526020019350505050602060405180830381600087803b15801561142457600080fd5b505af1158015611438573d6000803e3d6000fd5b505050506040513d602081101561144e57600080fd5b8101908080519060200190929190505050151561146a57600080fd5b734C28b3a3b2b6C2aE7e440b0BE161A38f72039A3973ffffffffffffffffffffffffffffffffffffffff16634d655aff6040518163ffffffff167c0100000000000000000000000000000000000000000000000000000000028152600401602060405180830381600087803b1580156114e257600080fd5b505af11580156114f6573d6000803e3d6000fd5b505050506040513d602081101561150c57600080fd5b810190808051906020019092919050505073ffffffffffffffffffffffffffffffffffffffff1663bdc963d8734C28b3a3b2b6C2aE7e440b0BE161A38f72039A3973ffffffffffffffffffffffffffffffffffffffff1663799fcaae6040518163ffffffff167c0100000000000000000000000000000000000000000000000000000000028152600401602060405180830381600087803b1580156115b057600080fd5b505af11580156115c4573d6000803e3d6000fd5b505050506040513d60208110156115da57600080fd5b81019080805190602001909291905050506040518263ffffffff167c0100000000000000000000000000000000000000000000000000000000028152600401808260001916600019168152602001915050602060405180830381600087803b15801561164557600080fd5b505af1158015611659573d6000803e3d6000fd5b505050506040513d602081101561166f57600080fd5b81019080805190602001909291905050509650734C28b3a3b2b6C2aE7e440b0BE161A38f72039A3973ffffffffffffffffffffffffffffffffffffffff16634d655aff6040518163ffffffff167c0100000000000000000000000000000000000000000000000000000000028152600401602060405180830381600087803b1580156116fa57600080fd5b505af115801561170e573d6000803e3d6000fd5b505050506040513d602081101561172457600080fd5b810190808051906020019092919050505073ffffffffffffffffffffffffffffffffffffffff1663bdc963d8734C28b3a3b2b6C2aE7e440b0BE161A38f72039A3973ffffffffffffffffffffffffffffffffffffffff16636009e5626040518163ffffffff167c0100000000000000000000000000000000000000000000000000000000028152600401602060405180830381600087803b1580156117c857600080fd5b505af11580156117dc573d6000803e3d6000fd5b505050506040513d60208110156117f257600080fd5b81019080805190602001909291905050506040518263ffffffff167c0100000000000000000000000000000000000000000000000000000000028152600401808260001916600019168152602001915050602060405180830381600087803b15801561185d57600080fd5b505af1158015611871573d6000803e3d6000fd5b505050506040513d602081101561188757600080fd5b810190808051906020019092919050505095506118ad8742613e5c90919063ffffffff16565b94506118c28686613e5c90919063ffffffff16565b93506064611af3600254734C28b3a3b2b6C2aE7e440b0BE161A38f72039A3973ffffffffffffffffffffffffffffffffffffffff16634d655aff6040518163ffffffff167c0100000000000000000000000000000000000000000000000000000000028152600401602060405180830381600087803b15801561194457600080fd5b505af1158015611958573d6000803e3d6000fd5b505050506040513d602081101561196e57600080fd5b810190808051906020019092919050505073ffffffffffffffffffffffffffffffffffffffff1663bdc963d8734C28b3a3b2b6C2aE7e440b0BE161A38f72039A3973ffffffffffffffffffffffffffffffffffffffff1663018714f56040518163ffffffff167c0100000000000000000000000000000000000000000000000000000000028152600401602060405180830381600087803b158015611a1257600080fd5b505af1158015611a26573d6000803e3d6000fd5b505050506040513d6020811015611a3c57600080fd5b81019080805190602001909291905050506040518263ffffffff167c0100000000000000000000000000000000000000000000000000000000028152600401808260001916600019168152602001915050602060405180830381600087803b158015611aa757600080fd5b505af1158015611abb573d6000803e3d6000fd5b505050506040513d6020811015611ad157600080fd5b8101908080519060200190929190505050606403613f5190919063ffffffff16565b811515611afc57fe5b049250734C28b3a3b2b6C2aE7e440b0BE161A38f72039A3973ffffffffffffffffffffffffffffffffffffffff16634d655aff6040518163ffffffff167c0100000000000000000000000000000000000000000000000000000000028152600401602060405180830381600087803b158015611b7757600080fd5b505af1158015611b8b573d6000803e3d6000fd5b505050506040513d6020811015611ba157600080fd5b810190808051906020019092919050505073ffffffffffffffffffffffffffffffffffffffff1663bdc963d8734C28b3a3b2b6C2aE7e440b0BE161A38f72039A3973ffffffffffffffffffffffffffffffffffffffff1663ee31e7b06040518163ffffffff167c0100000000000000000000000000000000000000000000000000000000028152600401602060405180830381600087803b158015611c4557600080fd5b505af1158015611c59573d6000803e3d6000fd5b505050506040513d6020811015611c6f57600080fd5b81019080805190602001909291905050506040518263ffffffff167c0100000000000000000000000000000000000000000000000000000000028152600401808260001916600019168152602001915050602060405180830381600087803b158015611cda57600080fd5b505af1158015611cee573d6000803e3d6000fd5b505050506040513d6020811015611d0457600080fd5b81019080805190602001909291905050509150611d1f614559565b604051809103906000f080158015611d3b573d6000803e3d6000fd5b5090508073ffffffffffffffffffffffffffffffffffffffff166398bb9a6b308b8b6003548a8a8a8a6040518963ffffffff167c0100000000000000000000000000000000000000000000000000000000028152600401808973ffffffffffffffffffffffffffffffffffffffff1673ffffffffffffffffffffffffffffffffffffffff1681526020018873ffffffffffffffffffffffffffffffffffffffff1673ffffffffffffffffffffffffffffffffffffffff16815260200180602001878152602001868152602001858152602001848152602001838152602001828103825288818151815260200191508051906020019080838360005b83811015611e51578082015181840152602081019050611e36565b50505050905090810190601f168015611e7e5780820380516001836020036101000a031916815260200191505b509950505050505050505050600060405180830381600087803b158015611ea457600080fd5b505af1158015611eb8573d6000803e3d6000fd5b5050505060048190806001815401808255809150509060018203906000526020600020016000909192909190916101000a81548173ffffffffffffffffffffffffffffffffffffffff021916908373ffffffffffffffffffffffffffffffffffffffff16021790555050734C28b3a3b2b6C2aE7e440b0BE161A38f72039A3973ffffffffffffffffffffffffffffffffffffffff16637fe37893600154611f5d6127f9565b8c8989898f6040518863ffffffff167c0100000000000000000000000000000000000000000000000000000000028152600401808881526020018781526020018673ffffffffffffffffffffffffffffffffffffffff1673ffffffffffffffffffffffffffffffffffffffff16815260200185815260200184815260200183815260200180602001828103825283818151815260200191508051906020019080838360005b8381101561201d578082015181840152602081019050612002565b50505050905090810190601f16801561204a5780820380516001836020036101000a031916815260200191505b5098505050505050505050600060405180830381600087803b15801561206f57600080fd5b505af1158015612083573d6000803e3d6000fd5b50505050505050505050505050565b6004818154811015156120a157fe5b906000526020600020016000915054906101000a900473ffffffffffffffffffffffffffffffffffffffff1681565b3073ffffffffffffffffffffffffffffffffffffffff168160405180828051906020019080838360005b838110156121155780820151818401526020810190506120fa565b50505050905090810190601f1680156121425780820380516001836020036101000a031916815260200191505b509150506000604051808303816000865af1915050151561216257600080fd5b50505050565b61217484848484612809565b50505050565b600060035414151561218b57600080fd5b734C28b3a3b2b6C2aE7e440b0BE161A38f72039A3973ffffffffffffffffffffffffffffffffffffffff16634d655aff6040518163ffffffff167c0100000000000000000000000000000000000000000000000000000000028152600401602060405180830381600087803b15801561220357600080fd5b505af1158015612217573d6000803e3d6000fd5b505050506040513d602081101561222d57600080fd5b810190808051906020019092919050505073ffffffffffffffffffffffffffffffffffffffff1663bdc963d8734C28b3a3b2b6C2aE7e440b0BE161A38f72039A3973ffffffffffffffffffffffffffffffffffffffff16630c380fdb6040518163ffffffff167c0100000000000000000000000000000000000000000000000000000000028152600401602060405180830381600087803b1580156122d157600080fd5b505af11580156122e5573d6000803e3d6000fd5b505050506040513d60208110156122fb57600080fd5b81019080805190602001909291905050506040518263ffffffff167c0100000000000000000000000000000000000000000000000000000000028152600401808260001916600019168152602001915050602060405180830381600087803b15801561236657600080fd5b505af115801561237a573d6000803e3d6000fd5b505050506040513d602081101561239057600080fd5b810190808051906020019092919050505060028190555073E450dcDe6C059339A35EEC0FaCbe62751ccA6e8a73ffffffffffffffffffffffffffffffffffffffff166323b872dd33306002546040518463ffffffff167c0100000000000000000000000000000000000000000000000000000000028152600401808473ffffffffffffffffffffffffffffffffffffffff1673ffffffffffffffffffffffffffffffffffffffff1681526020018373ffffffffffffffffffffffffffffffffffffffff1673ffffffffffffffffffffffffffffffffffffffff1681526020018281526020019350505050602060405180830381600087803b15801561249457600080fd5b505af11580156124a8573d6000803e3d6000fd5b505050506040513d60208110156124be57600080fd5b810190808051906020019092919050505015156124da57600080fd5b612702734C28b3a3b2b6C2aE7e440b0BE161A38f72039A3973ffffffffffffffffffffffffffffffffffffffff16634d655aff6040518163ffffffff167c0100000000000000000000000000000000000000000000000000000000028152600401602060405180830381600087803b15801561255557600080fd5b505af1158015612569573d6000803e3d6000fd5b505050506040513d602081101561257f57600080fd5b810190808051906020019092919050505073ffffffffffffffffffffffffffffffffffffffff1663bdc963d8734C28b3a3b2b6C2aE7e440b0BE161A38f72039A3973ffffffffffffffffffffffffffffffffffffffff16636dc50caa6040518163ffffffff167c0100000000000000000000000000000000000000000000000000000000028152600401602060405180830381600087803b15801561262357600080fd5b505af1158015612637573d6000803e3d6000fd5b505050506040513d602081101561264d57600080fd5b81019080805190602001909291905050506040518263ffffffff167c0100000000000000000000000000000000000000000000000000000000028152600401808260001916600019168152602001915050602060405180830381600087803b1580156126b857600080fd5b505af11580156126cc573d6000803e3d6000fd5b505050506040513d60208110156126e257600080fd5b810190808051906020019092919050505042613e5c90919063ffffffff16565b600381905550816000806101000a81548173ffffffffffffffffffffffffffffffffffffffff021916908373ffffffffffffffffffffffffffffffffffffffff160217905550806001819055505050565b61279761275e6127f9565b8484848080601f016020809104026020016040519081016040528093929190818152602001838380828437820191505050505050614063565b505050565b60025481565b6127b36127ad6127f9565b826130de565b50565b6127f3848484848080601f016020809104026020016040519081016040528093929190818152602001838380828437820191505050505050614063565b50505050565b6000600160048054905003905090565b6000734C28b3a3b2b6C2aE7e440b0BE161A38f72039A3973ffffffffffffffffffffffffffffffffffffffff16635f9e8f826040518163ffffffff167c0100000000000000000000000000000000000000000000000000000000028152600401602060405180830381600087803b15801561288357600080fd5b505af1158015612897573d6000803e3d6000fd5b505050506040513d60208110156128ad57600080fd5b81019080805190602001909291905050501515156128ca57600080fd5b73E450dcDe6C059339A35EEC0FaCbe62751ccA6e8a73ffffffffffffffffffffffffffffffffffffffff166323b872dd8530866040518463ffffffff167c0100000000000000000000000000000000000000000000000000000000028152600401808473ffffffffffffffffffffffffffffffffffffffff1673ffffffffffffffffffffffffffffffffffffffff1681526020018373ffffffffffffffffffffffffffffffffffffffff1673ffffffffffffffffffffffffffffffffffffffff1681526020018281526020019350505050602060405180830381600087803b1580156129b557600080fd5b505af11580156129c9573d6000803e3d6000fd5b505050506040513d60208110156129df57600080fd5b810190808051906020019092919050505015156129fb57600080fd5b612a0485614489565b90508073ffffffffffffffffffffffffffffffffffffffff166327f429d88585856040518463ffffffff167c0100000000000000000000000000000000000000000000000000000000028152600401808473ffffffffffffffffffffffffffffffffffffffff1673ffffffffffffffffffffffffffffffffffffffff16815260200183815260200182600019166000191681526020019350505050600060405180830381600087803b158015612ab957600080fd5b505af1158015612acd573d6000803e3d6000fd5b50505050734C28b3a3b2b6C2aE7e440b0BE161A38f72039A3973ffffffffffffffffffffffffffffffffffffffff1663543b8dd46001548787876040518563ffffffff167c0100000000000000000000000000000000000000000000000000000000028152600401808581526020018481526020018373ffffffffffffffffffffffffffffffffffffffff1673ffffffffffffffffffffffffffffffffffffffff168152602001828152602001945050505050600060405180830381600087803b158015612b9a57600080fd5b505af1158015612bae573d6000803e3d6000fd5b505050505050505050565b6000612bcb612bc66127f9565b614489565b905090565b60008373ffffffffffffffffffffffffffffffffffffffff16636dc50caa6040518163ffffffff167c0100000000000000000000000000000000000000000000000000000000028152600401602060405180830381600087803b158015612c3657600080fd5b505af1158015612c4a573d6000803e3d6000fd5b505050506040513d6020811015612c6057600080fd5b81019080805190602001909291905050506000191683600019161480612d2b57508373ffffffffffffffffffffffffffffffffffffffff1663799fcaae6040518163ffffffff167c0100000000000000000000000000000000000000000000000000000000028152600401602060405180830381600087803b158015612ce557600080fd5b505af1158015612cf9573d6000803e3d6000fd5b505050506040513d6020811015612d0f57600080fd5b8101908080519060200190929190505050600019168360001916145b80612ddb57508373ffffffffffffffffffffffffffffffffffffffff16636009e5626040518163ffffffff167c0100000000000000000000000000000000000000000000000000000000028152600401602060405180830381600087803b158015612d9557600080fd5b505af1158015612da9573d6000803e3d6000fd5b505050506040513d6020811015612dbf57600080fd5b8101908080519060200190929190505050600019168360001916145b80612e8b57508373ffffffffffffffffffffffffffffffffffffffff16630c380fdb6040518163ffffffff167c0100000000000000000000000000000000000000000000000000000000028152600401602060405180830381600087803b158015612e4557600080fd5b505af1158015612e59573d6000803e3d6000fd5b505050506040513d6020811015612e6f57600080fd5b8101908080519060200190929190505050600019168360001916145b15612ea3576000821115612ea257600190506130d7565b5b8373ffffffffffffffffffffffffffffffffffffffff1663018714f56040518163ffffffff167c0100000000000000000000000000000000000000000000000000000000028152600401602060405180830381600087803b158015612f0757600080fd5b505af1158015612f1b573d6000803e3d6000fd5b505050506040513d6020811015612f3157600080fd5b81019080805190602001909291905050506000191683600019161480612ffc57508373ffffffffffffffffffffffffffffffffffffffff1663ee31e7b06040518163ffffffff167c0100000000000000000000000000000000000000000000000000000000028152600401602060405180830381600087803b158015612fb657600080fd5b505af1158015612fca573d6000803e3d6000fd5b505050506040513d6020811015612fe057600080fd5b8101908080519060200190929190505050600019168360001916145b806130ac57508373ffffffffffffffffffffffffffffffffffffffff1663e998ed786040518163ffffffff167c0100000000000000000000000000000000000000000000000000000000028152600401602060405180830381600087803b15801561306657600080fd5b505af115801561307a573d6000803e3d6000fd5b505050506040513d602081101561309057600080fd5b8101908080519060200190929190505050600019168360001916145b156130d257600082101580156130c3575060648211155b156130d157600190506130d7565b5b600090505b9392505050565b6000806000806000734C28b3a3b2b6C2aE7e440b0BE161A38f72039A3973ffffffffffffffffffffffffffffffffffffffff16635f9e8f826040518163ffffffff167c0100000000000000000000000000000000000000000000000000000000028152600401602060405180830381600087803b15801561315e57600080fd5b505af1158015613172573d6000803e3d6000fd5b505050506040513d602081101561318857600080fd5b81019080805190602001909291905050501515156131a557600080fd5b6131ae87614489565b94508473ffffffffffffffffffffffffffffffffffffffff1663b39c7600876040518263ffffffff167c0100000000000000000000000000000000000000000000000000000000028152600401808273ffffffffffffffffffffffffffffffffffffffff1673ffffffffffffffffffffffffffffffffffffffff168152602001915050602060405180830381600087803b15801561324b57600080fd5b505af115801561325f573d6000803e3d6000fd5b505050506040513d602081101561327557600080fd5b8101908080519060200190929190505050935060008411156135ac5773E450dcDe6C059339A35EEC0FaCbe62751ccA6e8a73ffffffffffffffffffffffffffffffffffffffff1663a9059cbb8673ffffffffffffffffffffffffffffffffffffffff1663534db0e26040518163ffffffff167c0100000000000000000000000000000000000000000000000000000000028152600401602060405180830381600087803b15801561332557600080fd5b505af1158015613339573d6000803e3d6000fd5b505050506040513d602081101561334f57600080fd5b8101908080519060200190929190505050866040518363ffffffff167c0100000000000000000000000000000000000000000000000000000000028152600401808373ffffffffffffffffffffffffffffffffffffffff1673ffffffffffffffffffffffffffffffffffffffff16815260200182815260200192505050602060405180830381600087803b1580156133e657600080fd5b505af11580156133fa573d6000803e3d6000fd5b505050506040513d602081101561341057600080fd5b8101908080519060200190929190505050151561342c57600080fd5b734C28b3a3b2b6C2aE7e440b0BE161A38f72039A3973ffffffffffffffffffffffffffffffffffffffff1663ccce5a43600154898873ffffffffffffffffffffffffffffffffffffffff1663534db0e26040518163ffffffff167c0100000000000000000000000000000000000000000000000000000000028152600401602060405180830381600087803b1580156134c457600080fd5b505af11580156134d8573d6000803e3d6000fd5b505050506040513d60208110156134ee57600080fd5b8101908080519060200190929190505050876040518563ffffffff167c0100000000000000000000000000000000000000000000000000000000028152600401808581526020018481526020018373ffffffffffffffffffffffffffffffffffffffff1673ffffffffffffffffffffffffffffffffffffffff168152602001828152602001945050505050600060405180830381600087803b15801561359357600080fd5b505af11580156135a7573d6000803e3d6000fd5b505050505b8473ffffffffffffffffffffffffffffffffffffffff166387f4ab31876040518263ffffffff167c0100000000000000000000000000000000000000000000000000000000028152600401808273ffffffffffffffffffffffffffffffffffffffff1673ffffffffffffffffffffffffffffffffffffffff168152602001915050602060405180830381600087803b15801561364757600080fd5b505af115801561365b573d6000803e3d6000fd5b505050506040513d602081101561367157600080fd5b8101908080519060200190929190505050925060008311156138ae5773E450dcDe6C059339A35EEC0FaCbe62751ccA6e8a73ffffffffffffffffffffffffffffffffffffffff1663a9059cbb6000809054906101000a900473ffffffffffffffffffffffffffffffffffffffff16856040518363ffffffff167c0100000000000000000000000000000000000000000000000000000000028152600401808373ffffffffffffffffffffffffffffffffffffffff1673ffffffffffffffffffffffffffffffffffffffff16815260200182815260200192505050602060405180830381600087803b15801561376557600080fd5b505af1158015613779573d6000803e3d6000fd5b505050506040513d602081101561378f57600080fd5b810190808051906020019092919050505015156137ab57600080fd5b734C28b3a3b2b6C2aE7e440b0BE161A38f72039A3973ffffffffffffffffffffffffffffffffffffffff166359247c26600154896000809054906101000a900473ffffffffffffffffffffffffffffffffffffffff16876040518563ffffffff167c0100000000000000000000000000000000000000000000000000000000028152600401808581526020018481526020018373ffffffffffffffffffffffffffffffffffffffff1673ffffffffffffffffffffffffffffffffffffffff168152602001828152602001945050505050600060405180830381600087803b15801561389557600080fd5b505af11580156138a9573d6000803e3d6000fd5b505050505b8473ffffffffffffffffffffffffffffffffffffffff1663f6884261876040518263ffffffff167c0100000000000000000000000000000000000000000000000000000000028152600401808273ffffffffffffffffffffffffffffffffffffffff1673ffffffffffffffffffffffffffffffffffffffff168152602001915050602060405180830381600087803b15801561394957600080fd5b505af115801561395d573d6000803e3d6000fd5b505050506040513d602081101561397357600080fd5b810190808051906020019092919050505091506000821115613b725773E450dcDe6C059339A35EEC0FaCbe62751ccA6e8a73ffffffffffffffffffffffffffffffffffffffff1663a9059cbb87846040518363ffffffff167c0100000000000000000000000000000000000000000000000000000000028152600401808373ffffffffffffffffffffffffffffffffffffffff1673ffffffffffffffffffffffffffffffffffffffff16815260200182815260200192505050602060405180830381600087803b158015613a4657600080fd5b505af1158015613a5a573d6000803e3d6000fd5b505050506040513d6020811015613a7057600080fd5b81019080805190602001909291905050501515613a8c57600080fd5b734C28b3a3b2b6C2aE7e440b0BE161A38f72039A3973ffffffffffffffffffffffffffffffffffffffff16632ae0099f6001548989866040518563ffffffff167c0100000000000000000000000000000000000000000000000000000000028152600401808581526020018481526020018373ffffffffffffffffffffffffffffffffffffffff1673ffffffffffffffffffffffffffffffffffffffff168152602001828152602001945050505050600060405180830381600087803b158015613b5557600080fd5b505af1158015613b69573d6000803e3d6000fd5b50505050613e33565b8473ffffffffffffffffffffffffffffffffffffffff16631d188416876040518263ffffffff167c0100000000000000000000000000000000000000000000000000000000028152600401808273ffffffffffffffffffffffffffffffffffffffff1673ffffffffffffffffffffffffffffffffffffffff168152602001915050602060405180830381600087803b158015613c0d57600080fd5b505af1158015613c21573d6000803e3d6000fd5b505050506040513d6020811015613c3757600080fd5b810190808051906020019092919050505090506000811115613e325773E450dcDe6C059339A35EEC0FaCbe62751ccA6e8a73ffffffffffffffffffffffffffffffffffffffff1663a9059cbb87836040518363ffffffff167c0100000000000000000000000000000000000000000000000000000000028152600401808373ffffffffffffffffffffffffffffffffffffffff1673ffffffffffffffffffffffffffffffffffffffff16815260200182815260200192505050602060405180830381600087803b158015613d0a57600080fd5b505af1158015613d1e573d6000803e3d6000fd5b505050506040513d6020811015613d3457600080fd5b81019080805190602001909291905050501515613d5057600080fd5b734C28b3a3b2b6C2aE7e440b0BE161A38f72039A3973ffffffffffffffffffffffffffffffffffffffff1663e65ebf0a6001548989856040518563ffffffff167c0100000000000000000000000000000000000000000000000000000000028152600401808581526020018481526020018373ffffffffffffffffffffffffffffffffffffffff1673ffffffffffffffffffffffffffffffffffffffff168152602001828152602001945050505050600060405180830381600087803b158015613e1957600080fd5b505af1158015613e2d573d6000803e3d6000fd5b505050505b5b50505050505050565b6000613e466144cc565b8015613e5757506000600480549050145b905090565b6000808284019050838110156040805190810160405280601181526020017f4d4154485f4144445f4f564552464c4f57000000000000000000000000000000815250901515613f46576040517f08c379a00000000000000000000000000000000000000000000000000000000081526004018080602001828103825283818151815260200191508051906020019080838360005b83811015613f0b578082015181840152602081019050613ef0565b50505050905090810190601f168015613f385780820380516001836020036101000a031916815260200191505b509250505060405180910390fd5b508091505092915050565b6000806000841415613f66576000915061405c565b8284029050828482811515613f7757fe5b04146040805190810160405280601181526020017f4d4154485f4d554c5f4f564552464c4f57000000000000000000000000000000815250901515614057576040517f08c379a00000000000000000000000000000000000000000000000000000000081526004018080602001828103825283818151815260200191508051906020019080838360005b8381101561401c578082015181840152602081019050614001565b50505050905090810190601f1680156140495780820380516001836020036101000a031916815260200191505b509250505060405180910390fd5b508091505b5092915050565b6000806000734C28b3a3b2b6C2aE7e440b0BE161A38f72039A3973ffffffffffffffffffffffffffffffffffffffff16635f9e8f826040518163ffffffff167c0100000000000000000000000000000000000000000000000000000000028152600401602060405180830381600087803b1580156140e057600080fd5b505af11580156140f4573d6000803e3d6000fd5b505050506040513d602081101561410a57600080fd5b810190808051906020019092919050505015151561412757600080fd5b33925061413386614489565b91508173ffffffffffffffffffffffffffffffffffffffff1663803f5b7f8487876040518463ffffffff167c0100000000000000000000000000000000000000000000000000000000028152600401808473ffffffffffffffffffffffffffffffffffffffff1673ffffffffffffffffffffffffffffffffffffffff1681526020018360028111156141c157fe5b60ff16815260200180602001828103825283818151815260200191508051906020019080838360005b838110156142055780820151818401526020810190506141ea565b50505050905090810190601f1680156142325780820380516001836020036101000a031916815260200191505b50945050505050602060405180830381600087803b15801561425357600080fd5b505af1158015614267573d6000803e3d6000fd5b505050506040513d602081101561427d57600080fd5b8101908080519060200190929190505050905073E450dcDe6C059339A35EEC0FaCbe62751ccA6e8a73ffffffffffffffffffffffffffffffffffffffff1663a9059cbb84836040518363ffffffff167c0100000000000000000000000000000000000000000000000000000000028152600401808373ffffffffffffffffffffffffffffffffffffffff1673ffffffffffffffffffffffffffffffffffffffff16815260200182815260200192505050602060405180830381600087803b15801561434757600080fd5b505af115801561435b573d6000803e3d6000fd5b505050506040513d602081101561437157600080fd5b8101908080519060200190929190505050151561438d57600080fd5b734C28b3a3b2b6C2aE7e440b0BE161A38f72039A3973ffffffffffffffffffffffffffffffffffffffff1663570e392360015488868960028111156143ce57fe5b866040518663ffffffff167c0100000000000000000000000000000000000000000000000000000000028152600401808681526020018581526020018473ffffffffffffffffffffffffffffffffffffffff1673ffffffffffffffffffffffffffffffffffffffff16815260200183815260200182815260200195505050505050600060405180830381600087803b15801561446957600080fd5b505af115801561447d573d6000803e3d6000fd5b50505050505050505050565b600060048281548110151561449a57fe5b9060005260206000200160009054906101000a900473ffffffffffffffffffffffffffffffffffffffff169050919050565b6000600354421115905090565b828054600181600116156101000203166002900490600052602060002090601f016020900481019282601f1061451a57803560ff1916838001178555614548565b82800160010185558215614548579182015b8281111561454757823582559160200191906001019061452c565b5b5090506145559190614569565b5090565b6040516101a08061458f83390190565b61458b91905b8082111561458757600081600090555060010161456f565b5090565b905600608060405234801561001057600080fd5b50610180806100206000396000f300608060405260043610610041576000357c0100000000000000000000000000000000000000000000000000000000900463ffffffff168063d4b8399214610094575b610092734D923d956fb5C4c499e309761596146847d999306000368080601f0160208091040260200160405190810160405280939291908181526020018383808284378201915050505050506100eb565b005b3480156100a057600080fd5b506100a9610129565b604051808273ffffffffffffffffffffffffffffffffffffffff1673ffffffffffffffffffffffffffffffffffffffff16815260200191505060405180910390f35b6100f482610141565b15156100ff57600080fd5b600080825160208401856127105a03f43d604051816000823e8260008114610125578282f35b8282fd5b734D923d956fb5C4c499e309761596146847d9993081565b600080823b9050600081119150509190505600a165627a7a72305820144734fcc804b3f034561533e7ca0d5369ac068ed4a8b28637ca6be1140288870029a165627a7a72305820595e343677e1bc702d18d0d99f2e17d29b4957adbf5502b49cc92e8e45dc686d0029",
  "deployedBytecode": "0x608060405260043610610107576000357c0100000000000000000000000000000000000000000000000000000000900463ffffffff16806302d05d3f1461010c57806327f429d8146101635780634d655aff146101be5780634e65037e1461021557806354fd4d501461022c578063671f08e3146102575780637792957d146102825780637b103999146102d95780637b1c91cc146103305780637faa6e8c146103bf57806387dfc3eb1461040c5780638f1d3776146104955780638f4ffcb114610502578063a9624b6f146105b5578063ab5310311461061a578063c8cfe15314610667578063d0e30db0146106af578063d279c191146106da578063e71ae0f11461071d575b600080fd5b34801561011857600080fd5b5061012161076f565b604051808273ffffffffffffffffffffffffffffffffffffffff1673ffffffffffffffffffffffffffffffffffffffff16815260200191505060405180910390f35b34801561016f57600080fd5b506101bc600480360381019080803573ffffffffffffffffffffffffffffffffffffffff169060200190929190803590602001909291908035600019169060200190929190505050610794565b005b3480156101ca57600080fd5b506101d36107ac565b604051808273ffffffffffffffffffffffffffffffffffffffff1673ffffffffffffffffffffffffffffffffffffffff16815260200191505060405180910390f35b34801561022157600080fd5b5061022a6107d2565b005b34801561023857600080fd5b50610241610e61565b6040518082815260200191505060405180910390f35b34801561026357600080fd5b5061026c610e67565b6040518082815260200191505060405180910390f35b34801561028e57600080fd5b50610297610e6d565b604051808273ffffffffffffffffffffffffffffffffffffffff1673ffffffffffffffffffffffffffffffffffffffff16815260200191505060405180910390f35b3480156102e557600080fd5b506102ee610e85565b604051808273ffffffffffffffffffffffffffffffffffffffff1673ffffffffffffffffffffffffffffffffffffffff16815260200191505060405180910390f35b34801561033c57600080fd5b506103bd600480360381019080803573ffffffffffffffffffffffffffffffffffffffff16906020019092919080359060200190929190803573ffffffffffffffffffffffffffffffffffffffff16906020019092919080359060200190820180359060200191909192939192939080359060200190929190505050610e9d565b005b3480156103cb57600080fd5b5061040a60048036038101908080359060200190929190803573ffffffffffffffffffffffffffffffffffffffff169060200190929190505050611226565b005b34801561041857600080fd5b50610493600480360381019080803573ffffffffffffffffffffffffffffffffffffffff169060200190929190803590602001908201803590602001908080601f0160208091040260200160405190810160405280939291908181526020018383808284378201915050505050509192919290505050611234565b005b3480156104a157600080fd5b506104c060048036038101908080359060200190929190505050612092565b604051808273ffffffffffffffffffffffffffffffffffffffff1673ffffffffffffffffffffffffffffffffffffffff16815260200191505060405180910390f35b34801561050e57600080fd5b506105b3600480360381019080803573ffffffffffffffffffffffffffffffffffffffff16906020019092919080359060200190929190803573ffffffffffffffffffffffffffffffffffffffff169060200190929190803590602001908201803590602001908080601f01602080910402602001604051908101604052809392919081815260200183838082843782019150505050505091929192905050506120d0565b005b3480156105c157600080fd5b5061061860048036038101908080359060200190929190803573ffffffffffffffffffffffffffffffffffffffff169060200190929190803590602001909291908035600019169060200190929190505050612168565b005b34801561062657600080fd5b50610665600480360381019080803573ffffffffffffffffffffffffffffffffffffffff1690602001909291908035906020019092919050505061217a565b005b34801561067357600080fd5b506106ad600480360381019080803560ff169060200190929190803590602001908201803590602001919091929391929390505050612753565b005b3480156106bb57600080fd5b506106c461279c565b6040518082815260200191505060405180910390f35b3480156106e657600080fd5b5061071b600480360381019080803573ffffffffffffffffffffffffffffffffffffffff1690602001909291905050506127a2565b005b34801561072957600080fd5b5061076d60048036038101908080359060200190929190803560ff1690602001909291908035906020019082018035906020019190919293919293905050506127b6565b005b6000809054906101000a900473ffffffffffffffffffffffffffffffffffffffff1681565b6107a761079f6127f9565b848484612809565b505050565b600560009054906101000a900473ffffffffffffffffffffffffffffffffffffffff1681565b73feedfeedfeedfeedfeedfeedfeedfeedfeedfeed73ffffffffffffffffffffffffffffffffffffffff16635f9e8f826040518163ffffffff167c0100000000000000000000000000000000000000000000000000000000028152600401602060405180830381600087803b15801561084a57600080fd5b505af115801561085e573d6000803e3d6000fd5b505050506040513d602081101561087457600080fd5b810190808051906020019092919050505015151561089157600080fd5b600954600560009054906101000a900473ffffffffffffffffffffffffffffffffffffffff1673ffffffffffffffffffffffffffffffffffffffff1663bdc963d8600660405160200180828054600181600116156101000203166002900480156109325780601f10610910576101008083540402835291820191610932565b820191906000526020600020905b81548152906001019060200180831161091e575b50509150506040516020818303038152906040526040518082805190602001908083835b60208310151561097b5780518252602082019150602081019050602083039250610956565b6001836020036101000a03801982511681845116808217855250505050505090500191505060405180910390206040518263ffffffff167c0100000000000000000000000000000000000000000000000000000000028152600401808260001916600019168152602001915050602060405180830381600087803b158015610a0257600080fd5b505af1158015610a16573d6000803e3d6000fd5b505050506040513d6020811015610a2c57600080fd5b8101908080519060200190929190505050141515610a4957600080fd5b6000600a54101515610a5a57600080fd5b610a62612bb9565b73ffffffffffffffffffffffffffffffffffffffff1663611b40956040518163ffffffff167c0100000000000000000000000000000000000000000000000000000000028152600401602060405180830381600087803b158015610ac557600080fd5b505af1158015610ad9573d6000803e3d6000fd5b505050506040513d6020811015610aef57600080fd5b81019080805190602001909291905050501515610b0b57600080fd5b73deaddeaddeaddeaddeaddeaddeaddeaddeaddead73ffffffffffffffffffffffffffffffffffffffff1663a9059cbb6000809054906101000a900473ffffffffffffffffffffffffffffffffffffffff166002546040518363ffffffff167c0100000000000000000000000000000000000000000000000000000000028152600401808373ffffffffffffffffffffffffffffffffffffffff1673ffffffffffffffffffffffffffffffffffffffff16815260200182815260200192505050602060405180830381600087803b158015610be557600080fd5b505af1158015610bf9573d6000803e3d6000fd5b505050506040513d6020811015610c0f57600080fd5b81019080805190602001909291905050501515610c2b57600080fd5b600560009054906101000a900473ffffffffffffffffffffffffffffffffffffffff1673ffffffffffffffffffffffffffffffffffffffff16633562fd2060066040516020018082805460018160011615610100020316600290048015610cc95780601f10610ca7576101008083540402835291820191610cc9565b820191906000526020600020905b815481529060010190602001808311610cb5575b50509150506040516020818303038152906040526040518082805190602001908083835b602083101515610d125780518252602082019150602081019050602083039250610ced565b6001836020036101000a03801982511681845116808217855250505050505090500191505060405180910390206008546040518363ffffffff167c010000000000000000000000000000000000000000000000000000000002815260040180836000191660001916815260200182815260200192505050600060405180830381600087803b158015610da357600080fd5b505af1158015610db7573d6000803e3d6000fd5b5050505042600a8190555073feedfeedfeedfeedfeedfeedfeedfeedfeedfeed73ffffffffffffffffffffffffffffffffffffffff16635c58046c6001546040518263ffffffff167c010000000000000000000000000000000000000000000000000000000002815260040180828152602001915050600060405180830381600087803b158015610e4757600080fd5b505af1158015610e5b573d6000803e3d6000fd5b50505050565b60015481565b60035481565b73deaddeaddeaddeaddeaddeaddeaddeaddeaddead81565b73feedfeedfeedfeedfeedfeedfeedfeedfeedfeed81565b60008383604051602001808383808284378201915050925050506040516020818303038152906040526040518082805190602001908083835b602083101515610efb5780518252602082019150602081019050602083039250610ed6565b6001836020036101000a03801982511681845116808217855250505050505090500191505060405180910390209050610f4973feedfeedfeedfeedfeedfeedfeedfeedfeedfeed8284612bd0565b1515610f5457600080fd5b610f5e878761217a565b84600560006101000a81548173ffffffffffffffffffffffffffffffffffffffff021916908373ffffffffffffffffffffffffffffffffffffffff160217905550838360069190610fb09291906144d9565b50816008819055506000600760006101000a81548160ff02191690836006811115610fd757fe5b0217905550600560009054906101000a900473ffffffffffffffffffffffffffffffffffffffff1673ffffffffffffffffffffffffffffffffffffffff1663bdc963d8826040518263ffffffff167c0100000000000000000000000000000000000000000000000000000000028152600401808260001916600019168152602001915050602060405180830381600087803b15801561107557600080fd5b505af1158015611089573d6000803e3d6000fd5b505050506040513d602081101561109f57600080fd5b810190808051906020019092919050505060098190555073feedfeedfeedfeedfeedfeedfeedfeedfeedfeed73ffffffffffffffffffffffffffffffffffffffff166352df042260015489600560009054906101000a900473ffffffffffffffffffffffffffffffffffffffff1688886008546002546003546040518963ffffffff167c0100000000000000000000000000000000000000000000000000000000028152600401808981526020018873ffffffffffffffffffffffffffffffffffffffff1673ffffffffffffffffffffffffffffffffffffffff1681526020018773ffffffffffffffffffffffffffffffffffffffff1673ffffffffffffffffffffffffffffffffffffffff16815260200180602001858152602001848152602001838152602001828103825287878281815260200192508082843782019150509950505050505050505050600060405180830381600087803b15801561120557600080fd5b505af1158015611219573d6000803e3d6000fd5b5050505050505050505050565b61123082826130de565b5050565b600080600080600080600073feedfeedfeedfeedfeedfeedfeedfeedfeedfeed73ffffffffffffffffffffffffffffffffffffffff16635f9e8f826040518163ffffffff167c0100000000000000000000000000000000000000000000000000000000028152600401602060405180830381600087803b1580156112b757600080fd5b505af11580156112cb573d6000803e3d6000fd5b505050506040513d60208110156112e157600080fd5b81019080805190602001909291905050501515156112fe57600080fd5b60008973ffffffffffffffffffffffffffffffffffffffff161415151561132457600080fd5b61132c613e3c565b151561133757600080fd5b73deaddeaddeaddeaddeaddeaddeaddeaddeaddead73ffffffffffffffffffffffffffffffffffffffff166323b872dd8a306002546040518463ffffffff167c0100000000000000000000000000000000000000000000000000000000028152600401808473ffffffffffffffffffffffffffffffffffffffff1673ffffffffffffffffffffffffffffffffffffffff1681526020018373ffffffffffffffffffffffffffffffffffffffff1673ffffffffffffffffffffffffffffffffffffffff1681526020018281526020019350505050602060405180830381600087803b15801561142457600080fd5b505af1158015611438573d6000803e3d6000fd5b505050506040513d602081101561144e57600080fd5b8101908080519060200190929190505050151561146a57600080fd5b73feedfeedfeedfeedfeedfeedfeedfeedfeedfeed73ffffffffffffffffffffffffffffffffffffffff16634d655aff6040518163ffffffff167c0100000000000000000000000000000000000000000000000000000000028152600401602060405180830381600087803b1580156114e257600080fd5b505af11580156114f6573d6000803e3d6000fd5b505050506040513d602081101561150c57600080fd5b810190808051906020019092919050505073ffffffffffffffffffffffffffffffffffffffff1663bdc963d873feedfeedfeedfeedfeedfeedfeedfeedfeedfeed73ffffffffffffffffffffffffffffffffffffffff1663799fcaae6040518163ffffffff167c0100000000000000000000000000000000000000000000000000000000028152600401602060405180830381600087803b1580156115b057600080fd5b505af11580156115c4573d6000803e3d6000fd5b505050506040513d60208110156115da57600080fd5b81019080805190602001909291905050506040518263ffffffff167c0100000000000000000000000000000000000000000000000000000000028152600401808260001916600019168152602001915050602060405180830381600087803b15801561164557600080fd5b505af1158015611659573d6000803e3d6000fd5b505050506040513d602081101561166f57600080fd5b8101908080519060200190929190505050965073feedfeedfeedfeedfeedfeedfeedfeedfeedfeed73ffffffffffffffffffffffffffffffffffffffff16634d655aff6040518163ffffffff167c0100000000000000000000000000000000000000000000000000000000028152600401602060405180830381600087803b1580156116fa57600080fd5b505af115801561170e573d6000803e3d6000fd5b505050506040513d602081101561172457600080fd5b810190808051906020019092919050505073ffffffffffffffffffffffffffffffffffffffff1663bdc963d873feedfeedfeedfeedfeedfeedfeedfeedfeedfeed73ffffffffffffffffffffffffffffffffffffffff16636009e5626040518163ffffffff167c0100000000000000000000000000000000000000000000000000000000028152600401602060405180830381600087803b1580156117c857600080fd5b505af11580156117dc573d6000803e3d6000fd5b505050506040513d60208110156117f257600080fd5b81019080805190602001909291905050506040518263ffffffff167c0100000000000000000000000000000000000000000000000000000000028152600401808260001916600019168152602001915050602060405180830381600087803b15801561185d57600080fd5b505af1158015611871573d6000803e3d6000fd5b505050506040513d602081101561188757600080fd5b810190808051906020019092919050505095506118ad8742613e5c90919063ffffffff16565b94506118c28686613e5c90919063ffffffff16565b93506064611af360025473feedfeedfeedfeedfeedfeedfeedfeedfeedfeed73ffffffffffffffffffffffffffffffffffffffff16634d655aff6040518163ffffffff167c0100000000000000000000000000000000000000000000000000000000028152600401602060405180830381600087803b15801561194457600080fd5b505af1158015611958573d6000803e3d6000fd5b505050506040513d602081101561196e57600080fd5b810190808051906020019092919050505073ffffffffffffffffffffffffffffffffffffffff1663bdc963d873feedfeedfeedfeedfeedfeedfeedfeedfeedfeed73ffffffffffffffffffffffffffffffffffffffff1663018714f56040518163ffffffff167c0100000000000000000000000000000000000000000000000000000000028152600401602060405180830381600087803b158015611a1257600080fd5b505af1158015611a26573d6000803e3d6000fd5b505050506040513d6020811015611a3c57600080fd5b81019080805190602001909291905050506040518263ffffffff167c0100000000000000000000000000000000000000000000000000000000028152600401808260001916600019168152602001915050602060405180830381600087803b158015611aa757600080fd5b505af1158015611abb573d6000803e3d6000fd5b505050506040513d6020811015611ad157600080fd5b8101908080519060200190929190505050606403613f5190919063ffffffff16565b811515611afc57fe5b04925073feedfeedfeedfeedfeedfeedfeedfeedfeedfeed73ffffffffffffffffffffffffffffffffffffffff16634d655aff6040518163ffffffff167c0100000000000000000000000000000000000000000000000000000000028152600401602060405180830381600087803b158015611b7757600080fd5b505af1158015611b8b573d6000803e3d6000fd5b505050506040513d6020811015611ba157600080fd5b810190808051906020019092919050505073ffffffffffffffffffffffffffffffffffffffff1663bdc963d873feedfeedfeedfeedfeedfeedfeedfeedfeedfeed73ffffffffffffffffffffffffffffffffffffffff1663ee31e7b06040518163ffffffff167c0100000000000000000000000000000000000000000000000000000000028152600401602060405180830381600087803b158015611c4557600080fd5b505af1158015611c59573d6000803e3d6000fd5b505050506040513d6020811015611c6f57600080fd5b81019080805190602001909291905050506040518263ffffffff167c0100000000000000000000000000000000000000000000000000000000028152600401808260001916600019168152602001915050602060405180830381600087803b158015611cda57600080fd5b505af1158015611cee573d6000803e3d6000fd5b505050506040513d6020811015611d0457600080fd5b81019080805190602001909291905050509150611d1f614559565b604051809103906000f080158015611d3b573d6000803e3d6000fd5b5090508073ffffffffffffffffffffffffffffffffffffffff166398bb9a6b308b8b6003548a8a8a8a6040518963ffffffff167c0100000000000000000000000000000000000000000000000000000000028152600401808973ffffffffffffffffffffffffffffffffffffffff1673ffffffffffffffffffffffffffffffffffffffff1681526020018873ffffffffffffffffffffffffffffffffffffffff1673ffffffffffffffffffffffffffffffffffffffff16815260200180602001878152602001868152602001858152602001848152602001838152602001828103825288818151815260200191508051906020019080838360005b83811015611e51578082015181840152602081019050611e36565b50505050905090810190601f168015611e7e5780820380516001836020036101000a031916815260200191505b509950505050505050505050600060405180830381600087803b158015611ea457600080fd5b505af1158015611eb8573d6000803e3d6000fd5b5050505060048190806001815401808255809150509060018203906000526020600020016000909192909190916101000a81548173ffffffffffffffffffffffffffffffffffffffff021916908373ffffffffffffffffffffffffffffffffffffffff1602179055505073feedfeedfeedfeedfeedfeedfeedfeedfeedfeed73ffffffffffffffffffffffffffffffffffffffff16637fe37893600154611f5d6127f9565b8c8989898f6040518863ffffffff167c0100000000000000000000000000000000000000000000000000000000028152600401808881526020018781526020018673ffffffffffffffffffffffffffffffffffffffff1673ffffffffffffffffffffffffffffffffffffffff16815260200185815260200184815260200183815260200180602001828103825283818151815260200191508051906020019080838360005b8381101561201d578082015181840152602081019050612002565b50505050905090810190601f16801561204a5780820380516001836020036101000a031916815260200191505b5098505050505050505050600060405180830381600087803b15801561206f57600080fd5b505af1158015612083573d6000803e3d6000fd5b50505050505050505050505050565b6004818154811015156120a157fe5b906000526020600020016000915054906101000a900473ffffffffffffffffffffffffffffffffffffffff1681565b3073ffffffffffffffffffffffffffffffffffffffff168160405180828051906020019080838360005b838110156121155780820151818401526020810190506120fa565b50505050905090810190601f1680156121425780820380516001836020036101000a031916815260200191505b509150506000604051808303816000865af1915050151561216257600080fd5b50505050565b61217484848484612809565b50505050565b600060035414151561218b57600080fd5b73feedfeedfeedfeedfeedfeedfeedfeedfeedfeed73ffffffffffffffffffffffffffffffffffffffff16634d655aff6040518163ffffffff167c0100000000000000000000000000000000000000000000000000000000028152600401602060405180830381600087803b15801561220357600080fd5b505af1158015612217573d6000803e3d6000fd5b505050506040513d602081101561222d57600080fd5b810190808051906020019092919050505073ffffffffffffffffffffffffffffffffffffffff1663bdc963d873feedfeedfeedfeedfeedfeedfeedfeedfeedfeed73ffffffffffffffffffffffffffffffffffffffff16630c380fdb6040518163ffffffff167c0100000000000000000000000000000000000000000000000000000000028152600401602060405180830381600087803b1580156122d157600080fd5b505af11580156122e5573d6000803e3d6000fd5b505050506040513d60208110156122fb57600080fd5b81019080805190602001909291905050506040518263ffffffff167c0100000000000000000000000000000000000000000000000000000000028152600401808260001916600019168152602001915050602060405180830381600087803b15801561236657600080fd5b505af115801561237a573d6000803e3d6000fd5b505050506040513d602081101561239057600080fd5b810190808051906020019092919050505060028190555073deaddeaddeaddeaddeaddeaddeaddeaddeaddead73ffffffffffffffffffffffffffffffffffffffff166323b872dd33306002546040518463ffffffff167c0100000000000000000000000000000000000000000000000000000000028152600401808473ffffffffffffffffffffffffffffffffffffffff1673ffffffffffffffffffffffffffffffffffffffff1681526020018373ffffffffffffffffffffffffffffffffffffffff1673ffffffffffffffffffffffffffffffffffffffff1681526020018281526020019350505050602060405180830381600087803b15801561249457600080fd5b505af11580156124a8573d6000803e3d6000fd5b505050506040513d60208110156124be57600080fd5b810190808051906020019092919050505015156124da57600080fd5b61270273feedfeedfeedfeedfeedfeedfeedfeedfeedfeed73ffffffffffffffffffffffffffffffffffffffff16634d655aff6040518163ffffffff167c0100000000000000000000000000000000000000000000000000000000028152600401602060405180830381600087803b15801561255557600080fd5b505af1158015612569573d6000803e3d6000fd5b505050506040513d602081101561257f57600080fd5b810190808051906020019092919050505073ffffffffffffffffffffffffffffffffffffffff1663bdc963d873feedfeedfeedfeedfeedfeedfeedfeedfeedfeed73ffffffffffffffffffffffffffffffffffffffff16636dc50caa6040518163ffffffff167c0100000000000000000000000000000000000000000000000000000000028152600401602060405180830381600087803b15801561262357600080fd5b505af1158015612637573d6000803e3d6000fd5b505050506040513d602081101561264d57600080fd5b81019080805190602001909291905050506040518263ffffffff167c0100000000000000000000000000000000000000000000000000000000028152600401808260001916600019168152602001915050602060405180830381600087803b1580156126b857600080fd5b505af11580156126cc573d6000803e3d6000fd5b505050506040513d60208110156126e257600080fd5b810190808051906020019092919050505042613e5c90919063ffffffff16565b600381905550816000806101000a81548173ffffffffffffffffffffffffffffffffffffffff021916908373ffffffffffffffffffffffffffffffffffffffff160217905550806001819055505050565b61279761275e6127f9565b8484848080601f016020809104026020016040519081016040528093929190818152602001838380828437820191505050505050614063565b505050565b60025481565b6127b36127ad6127f9565b826130de565b50565b6127f3848484848080601f016020809104026020016040519081016040528093929190818152602001838380828437820191505050505050614063565b50505050565b6000600160048054905003905090565b600073feedfeedfeedfeedfeedfeedfeedfeedfeedfeed73ffffffffffffffffffffffffffffffffffffffff16635f9e8f826040518163ffffffff167c0100000000000000000000000000000000000000000000000000000000028152600401602060405180830381600087803b15801561288357600080fd5b505af1158015612897573d6000803e3d6000fd5b505050506040513d60208110156128ad57600080fd5b81019080805190602001909291905050501515156128ca57600080fd5b73deaddeaddeaddeaddeaddeaddeaddeaddeaddead73ffffffffffffffffffffffffffffffffffffffff166323b872dd8530866040518463ffffffff167c0100000000000000000000000000000000000000000000000000000000028152600401808473ffffffffffffffffffffffffffffffffffffffff1673ffffffffffffffffffffffffffffffffffffffff1681526020018373ffffffffffffffffffffffffffffffffffffffff1673ffffffffffffffffffffffffffffffffffffffff1681526020018281526020019350505050602060405180830381600087803b1580156129b557600080fd5b505af11580156129c9573d6000803e3d6000fd5b505050506040513d60208110156129df57600080fd5b810190808051906020019092919050505015156129fb57600080fd5b612a0485614489565b90508073ffffffffffffffffffffffffffffffffffffffff166327f429d88585856040518463ffffffff167c0100000000000000000000000000000000000000000000000000000000028152600401808473ffffffffffffffffffffffffffffffffffffffff1673ffffffffffffffffffffffffffffffffffffffff16815260200183815260200182600019166000191681526020019350505050600060405180830381600087803b158015612ab957600080fd5b505af1158015612acd573d6000803e3d6000fd5b5050505073feedfeedfeedfeedfeedfeedfeedfeedfeedfeed73ffffffffffffffffffffffffffffffffffffffff1663543b8dd46001548787876040518563ffffffff167c0100000000000000000000000000000000000000000000000000000000028152600401808581526020018481526020018373ffffffffffffffffffffffffffffffffffffffff1673ffffffffffffffffffffffffffffffffffffffff168152602001828152602001945050505050600060405180830381600087803b158015612b9a57600080fd5b505af1158015612bae573d6000803e3d6000fd5b505050505050505050565b6000612bcb612bc66127f9565b614489565b905090565b60008373ffffffffffffffffffffffffffffffffffffffff16636dc50caa6040518163ffffffff167c0100000000000000000000000000000000000000000000000000000000028152600401602060405180830381600087803b158015612c3657600080fd5b505af1158015612c4a573d6000803e3d6000fd5b505050506040513d6020811015612c6057600080fd5b81019080805190602001909291905050506000191683600019161480612d2b57508373ffffffffffffffffffffffffffffffffffffffff1663799fcaae6040518163ffffffff167c0100000000000000000000000000000000000000000000000000000000028152600401602060405180830381600087803b158015612ce557600080fd5b505af1158015612cf9573d6000803e3d6000fd5b505050506040513d6020811015612d0f57600080fd5b8101908080519060200190929190505050600019168360001916145b80612ddb57508373ffffffffffffffffffffffffffffffffffffffff16636009e5626040518163ffffffff167c0100000000000000000000000000000000000000000000000000000000028152600401602060405180830381600087803b158015612d9557600080fd5b505af1158015612da9573d6000803e3d6000fd5b505050506040513d6020811015612dbf57600080fd5b8101908080519060200190929190505050600019168360001916145b80612e8b57508373ffffffffffffffffffffffffffffffffffffffff16630c380fdb6040518163ffffffff167c0100000000000000000000000000000000000000000000000000000000028152600401602060405180830381600087803b158015612e4557600080fd5b505af1158015612e59573d6000803e3d6000fd5b505050506040513d6020811015612e6f57600080fd5b8101908080519060200190929190505050600019168360001916145b15612ea3576000821115612ea257600190506130d7565b5b8373ffffffffffffffffffffffffffffffffffffffff1663018714f56040518163ffffffff167c0100000000000000000000000000000000000000000000000000000000028152600401602060405180830381600087803b158015612f0757600080fd5b505af1158015612f1b573d6000803e3d6000fd5b505050506040513d6020811015612f3157600080fd5b81019080805190602001909291905050506000191683600019161480612ffc57508373ffffffffffffffffffffffffffffffffffffffff1663ee31e7b06040518163ffffffff167c0100000000000000000000000000000000000000000000000000000000028152600401602060405180830381600087803b158015612fb657600080fd5b505af1158015612fca573d6000803e3d6000fd5b505050506040513d6020811015612fe057600080fd5b8101908080519060200190929190505050600019168360001916145b806130ac57508373ffffffffffffffffffffffffffffffffffffffff1663e998ed786040518163ffffffff167c0100000000000000000000000000000000000000000000000000000000028152600401602060405180830381600087803b15801561306657600080fd5b505af115801561307a573d6000803e3d6000fd5b505050506040513d602081101561309057600080fd5b8101908080519060200190929190505050600019168360001916145b156130d257600082101580156130c3575060648211155b156130d157600190506130d7565b5b600090505b9392505050565b600080600080600073feedfeedfeedfeedfeedfeedfeedfeedfeedfeed73ffffffffffffffffffffffffffffffffffffffff16635f9e8f826040518163ffffffff167c0100000000000000000000000000000000000000000000000000000000028152600401602060405180830381600087803b15801561315e57600080fd5b505af1158015613172573d6000803e3d6000fd5b505050506040513d602081101561318857600080fd5b81019080805190602001909291905050501515156131a557600080fd5b6131ae87614489565b94508473ffffffffffffffffffffffffffffffffffffffff1663b39c7600876040518263ffffffff167c0100000000000000000000000000000000000000000000000000000000028152600401808273ffffffffffffffffffffffffffffffffffffffff1673ffffffffffffffffffffffffffffffffffffffff168152602001915050602060405180830381600087803b15801561324b57600080fd5b505af115801561325f573d6000803e3d6000fd5b505050506040513d602081101561327557600080fd5b8101908080519060200190929190505050935060008411156135ac5773deaddeaddeaddeaddeaddeaddeaddeaddeaddead73ffffffffffffffffffffffffffffffffffffffff1663a9059cbb8673ffffffffffffffffffffffffffffffffffffffff1663534db0e26040518163ffffffff167c0100000000000000000000000000000000000000000000000000000000028152600401602060405180830381600087803b15801561332557600080fd5b505af1158015613339573d6000803e3d6000fd5b505050506040513d602081101561334f57600080fd5b8101908080519060200190929190505050866040518363ffffffff167c0100000000000000000000000000000000000000000000000000000000028152600401808373ffffffffffffffffffffffffffffffffffffffff1673ffffffffffffffffffffffffffffffffffffffff16815260200182815260200192505050602060405180830381600087803b1580156133e657600080fd5b505af11580156133fa573d6000803e3d6000fd5b505050506040513d602081101561341057600080fd5b8101908080519060200190929190505050151561342c57600080fd5b73feedfeedfeedfeedfeedfeedfeedfeedfeedfeed73ffffffffffffffffffffffffffffffffffffffff1663ccce5a43600154898873ffffffffffffffffffffffffffffffffffffffff1663534db0e26040518163ffffffff167c0100000000000000000000000000000000000000000000000000000000028152600401602060405180830381600087803b1580156134c457600080fd5b505af11580156134d8573d6000803e3d6000fd5b505050506040513d60208110156134ee57600080fd5b8101908080519060200190929190505050876040518563ffffffff167c0100000000000000000000000000000000000000000000000000000000028152600401808581526020018481526020018373ffffffffffffffffffffffffffffffffffffffff1673ffffffffffffffffffffffffffffffffffffffff168152602001828152602001945050505050600060405180830381600087803b15801561359357600080fd5b505af11580156135a7573d6000803e3d6000fd5b505050505b8473ffffffffffffffffffffffffffffffffffffffff166387f4ab31876040518263ffffffff167c0100000000000000000000000000000000000000000000000000000000028152600401808273ffffffffffffffffffffffffffffffffffffffff1673ffffffffffffffffffffffffffffffffffffffff168152602001915050602060405180830381600087803b15801561364757600080fd5b505af115801561365b573d6000803e3d6000fd5b505050506040513d602081101561367157600080fd5b8101908080519060200190929190505050925060008311156138ae5773deaddeaddeaddeaddeaddeaddeaddeaddeaddead73ffffffffffffffffffffffffffffffffffffffff1663a9059cbb6000809054906101000a900473ffffffffffffffffffffffffffffffffffffffff16856040518363ffffffff167c0100000000000000000000000000000000000000000000000000000000028152600401808373ffffffffffffffffffffffffffffffffffffffff1673ffffffffffffffffffffffffffffffffffffffff16815260200182815260200192505050602060405180830381600087803b15801561376557600080fd5b505af1158015613779573d6000803e3d6000fd5b505050506040513d602081101561378f57600080fd5b810190808051906020019092919050505015156137ab57600080fd5b73feedfeedfeedfeedfeedfeedfeedfeedfeedfeed73ffffffffffffffffffffffffffffffffffffffff166359247c26600154896000809054906101000a900473ffffffffffffffffffffffffffffffffffffffff16876040518563ffffffff167c0100000000000000000000000000000000000000000000000000000000028152600401808581526020018481526020018373ffffffffffffffffffffffffffffffffffffffff1673ffffffffffffffffffffffffffffffffffffffff168152602001828152602001945050505050600060405180830381600087803b15801561389557600080fd5b505af11580156138a9573d6000803e3d6000fd5b505050505b8473ffffffffffffffffffffffffffffffffffffffff1663f6884261876040518263ffffffff167c0100000000000000000000000000000000000000000000000000000000028152600401808273ffffffffffffffffffffffffffffffffffffffff1673ffffffffffffffffffffffffffffffffffffffff168152602001915050602060405180830381600087803b15801561394957600080fd5b505af115801561395d573d6000803e3d6000fd5b505050506040513d602081101561397357600080fd5b810190808051906020019092919050505091506000821115613b725773deaddeaddeaddeaddeaddeaddeaddeaddeaddead73ffffffffffffffffffffffffffffffffffffffff1663a9059cbb87846040518363ffffffff167c0100000000000000000000000000000000000000000000000000000000028152600401808373ffffffffffffffffffffffffffffffffffffffff1673ffffffffffffffffffffffffffffffffffffffff16815260200182815260200192505050602060405180830381600087803b158015613a4657600080fd5b505af1158015613a5a573d6000803e3d6000fd5b505050506040513d6020811015613a7057600080fd5b81019080805190602001909291905050501515613a8c57600080fd5b73feedfeedfeedfeedfeedfeedfeedfeedfeedfeed73ffffffffffffffffffffffffffffffffffffffff16632ae0099f6001548989866040518563ffffffff167c0100000000000000000000000000000000000000000000000000000000028152600401808581526020018481526020018373ffffffffffffffffffffffffffffffffffffffff1673ffffffffffffffffffffffffffffffffffffffff168152602001828152602001945050505050600060405180830381600087803b158015613b5557600080fd5b505af1158015613b69573d6000803e3d6000fd5b50505050613e33565b8473ffffffffffffffffffffffffffffffffffffffff16631d188416876040518263ffffffff167c0100000000000000000000000000000000000000000000000000000000028152600401808273ffffffffffffffffffffffffffffffffffffffff1673ffffffffffffffffffffffffffffffffffffffff168152602001915050602060405180830381600087803b158015613c0d57600080fd5b505af1158015613c21573d6000803e3d6000fd5b505050506040513d6020811015613c3757600080fd5b810190808051906020019092919050505090506000811115613e325773deaddeaddeaddeaddeaddeaddeaddeaddeaddead73ffffffffffffffffffffffffffffffffffffffff1663a9059cbb87836040518363ffffffff167c0100000000000000000000000000000000000000000000000000000000028152600401808373ffffffffffffffffffffffffffffffffffffffff1673ffffffffffffffffffffffffffffffffffffffff16815260200182815260200192505050602060405180830381600087803b158015613d0a57600080fd5b505af1158015613d1e573d6000803e3d6000fd5b505050506040513d6020811015613d3457600080fd5b81019080805190602001909291905050501515613d5057600080fd5b73feedfeedfeedfeedfeedfeedfeedfeedfeedfeed73ffffffffffffffffffffffffffffffffffffffff1663e65ebf0a6001548989856040518563ffffffff167c0100000000000000000000000000000000000000000000000000000000028152600401808581526020018481526020018373ffffffffffffffffffffffffffffffffffffffff1673ffffffffffffffffffffffffffffffffffffffff168152602001828152602001945050505050600060405180830381600087803b158015613e1957600080fd5b505af1158015613e2d573d6000803e3d6000fd5b505050505b5b50505050505050565b6000613e466144cc565b8015613e5757506000600480549050145b905090565b6000808284019050838110156040805190810160405280601181526020017f4d4154485f4144445f4f564552464c4f57000000000000000000000000000000815250901515613f46576040517f08c379a00000000000000000000000000000000000000000000000000000000081526004018080602001828103825283818151815260200191508051906020019080838360005b83811015613f0b578082015181840152602081019050613ef0565b50505050905090810190601f168015613f385780820380516001836020036101000a031916815260200191505b509250505060405180910390fd5b508091505092915050565b6000806000841415613f66576000915061405c565b8284029050828482811515613f7757fe5b04146040805190810160405280601181526020017f4d4154485f4d554c5f4f564552464c4f57000000000000000000000000000000815250901515614057576040517f08c379a00000000000000000000000000000000000000000000000000000000081526004018080602001828103825283818151815260200191508051906020019080838360005b8381101561401c578082015181840152602081019050614001565b50505050905090810190601f1680156140495780820380516001836020036101000a031916815260200191505b509250505060405180910390fd5b508091505b5092915050565b600080600073feedfeedfeedfeedfeedfeedfeedfeedfeedfeed73ffffffffffffffffffffffffffffffffffffffff16635f9e8f826040518163ffffffff167c0100000000000000000000000000000000000000000000000000000000028152600401602060405180830381600087803b1580156140e057600080fd5b505af11580156140f4573d6000803e3d6000fd5b505050506040513d602081101561410a57600080fd5b810190808051906020019092919050505015151561412757600080fd5b33925061413386614489565b91508173ffffffffffffffffffffffffffffffffffffffff1663803f5b7f8487876040518463ffffffff167c0100000000000000000000000000000000000000000000000000000000028152600401808473ffffffffffffffffffffffffffffffffffffffff1673ffffffffffffffffffffffffffffffffffffffff1681526020018360028111156141c157fe5b60ff16815260200180602001828103825283818151815260200191508051906020019080838360005b838110156142055780820151818401526020810190506141ea565b50505050905090810190601f1680156142325780820380516001836020036101000a031916815260200191505b50945050505050602060405180830381600087803b15801561425357600080fd5b505af1158015614267573d6000803e3d6000fd5b505050506040513d602081101561427d57600080fd5b8101908080519060200190929190505050905073deaddeaddeaddeaddeaddeaddeaddeaddeaddead73ffffffffffffffffffffffffffffffffffffffff1663a9059cbb84836040518363ffffffff167c0100000000000000000000000000000000000000000000000000000000028152600401808373ffffffffffffffffffffffffffffffffffffffff1673ffffffffffffffffffffffffffffffffffffffff16815260200182815260200192505050602060405180830381600087803b15801561434757600080fd5b505af115801561435b573d6000803e3d6000fd5b505050506040513d602081101561437157600080fd5b8101908080519060200190929190505050151561438d57600080fd5b73feedfeedfeedfeedfeedfeedfeedfeedfeedfeed73ffffffffffffffffffffffffffffffffffffffff1663570e392360015488868960028111156143ce57fe5b866040518663ffffffff167c0100000000000000000000000000000000000000000000000000000000028152600401808681526020018581526020018473ffffffffffffffffffffffffffffffffffffffff1673ffffffffffffffffffffffffffffffffffffffff16815260200183815260200182815260200195505050505050600060405180830381600087803b15801561446957600080fd5b505af115801561447d573d6000803e3d6000fd5b50505050505050505050565b600060048281548110151561449a57fe5b9060005260206000200160009054906101000a900473ffffffffffffffffffffffffffffffffffffffff169050919050565b6000600354421115905090565b828054600181600116156101000203166002900490600052602060002090601f016020900481019282601f1061451a57803560ff1916838001178555614548565b82800160010185558215614548579182015b8281111561454757823582559160200191906001019061452c565b5b5090506145559190614569565b5090565b6040516101a08061458f83390190565b61458b91905b8082111561458757600081600090555060010161456f565b5090565b905600608060405234801561001057600080fd5b50610180806100206000396000f300608060405260043610610041576000357c0100000000000000000000000000000000000000000000000000000000900463ffffffff168063d4b8399214610094575b61009273beefbeefbeefbeefbeefbeefbeefbeefbeefbeef6000368080601f0160208091040260200160405190810160405280939291908181526020018383808284378201915050505050506100eb565b005b3480156100a057600080fd5b506100a9610129565b604051808273ffffffffffffffffffffffffffffffffffffffff1673ffffffffffffffffffffffffffffffffffffffff16815260200191505060405180910390f35b6100f482610141565b15156100ff57600080fd5b600080825160208401856127105a03f43d604051816000823e8260008114610125578282f35b8282fd5b73beefbeefbeefbeefbeefbeefbeefbeefbeefbeef81565b600080823b9050600081119150509190505600a165627a7a72305820144734fcc804b3f034561533e7ca0d5369ac068ed4a8b28637ca6be1140288870029a165627a7a72305820595e343677e1bc702d18d0d99f2e17d29b4957adbf5502b49cc92e8e45dc686d0029",
  "source": "pragma solidity ^0.4.24;\n\nimport \"./RegistryEntry.sol\";\nimport \"./db/EternalDb.sol\";\nimport \"./ParamChangeRegistry.sol\";\n\n/**\n * @title Contract created for each submitted TCR parameter change.\n *\n * @dev It extends base RegistryEntry with additional state for storing information related to the change.\n * It also contains logic for applying accepted changes.\n * Full copy of this contract is NOT deployed with each submission in order to save gas. Only forwarder contracts\n * pointing into single intance of it.\n */\n\ncontract ParamChange is RegistryEntry {\n\n  ParamChangeRegistry internal constant registry = ParamChangeRegistry(0xfEEDFEEDfeEDFEedFEEdFEEDFeEdfEEdFeEdFEEd);\n  EternalDb public db;\n  string private key;\n  EternalDb.Types private valueType;\n  uint private value;\n  uint private originalValue;\n  uint private appliedOn;\n\n  function isChangeAllowed(ParamChangeRegistry registry, bytes32 record, uint _value)\n    private\n    constant\n    returns (bool) {\n\n    if(record == registry.challengePeriodDurationKey() || record == registry.commitPeriodDurationKey() ||\n       record == registry.revealPeriodDurationKey() || record == registry.depositKey()) {\n      if(_value > 0) {\n        return true;\n      }\n    }\n\n    if(record == registry.challengeDispensationKey() || record == registry.voteQuorumKey() ||\n       record == registry.maxTotalSupplyKey()) {\n      if (_value >= 0 && _value <= 100) {\n        return true;\n      }\n    }\n\n    return false;\n  }\n\n  /**\n   * @dev Constructor for this contract.\n   * Native constructor is not used, because users create only forwarders into single instance of this contract,\n   * therefore constructor must be called explicitly.\n   * Can only be called if the parameter value is within its allowed domain.\n\n   * @param _creator Creator of a district\n   * @param _version Version of District contract\n   * @param _db EternalDb change will be applied to\n   * @param _key Key of a changed parameter\n   * @param _value New value of a parameter\n   */\n  function construct(\n    address _creator,\n    uint _version,\n    address _db,\n    string _key,\n    uint _value\n  )\n    external\n  {\n    bytes32 record = keccak256(abi.encodePacked(_key));\n    require(isChangeAllowed(registry, record, _value));\n    super.construct(_creator, _version);\n    db = EternalDb(_db);\n    key = _key;\n    value = _value;\n    valueType = EternalDb.Types.UInt;\n    originalValue = db.getUIntValue(record);\n    registry.fireParamChangeConstructedEvent(\n      version,\n      _creator,\n      db,\n      _key,\n      value,\n      deposit,\n      challengePeriodEnd\n    );\n  }\n\n  /**\n   * @dev Applies the parameter change into EternalDb\n   * To be able to make change into a EternalDb, this contract must be given temporary permission to make the change\n   * This permission is given by ParamChangeRegistry, which holds permanent permission to make changes into the db\n   * Cannot be called when change was already applied\n   * Can be called only for whitelisted registry entries\n   * Can be called only when original value is still current value\n   * Creator gets deposit back\n   */\n  function applyChange()\n    external\n    notEmergency\n  {\n    require(db.getUIntValue(keccak256(abi.encodePacked(key))) == originalValue);\n    require(appliedOn < 0);\n    require(currentChallenge().isWhitelisted());\n    require(registryToken.transfer(creator, deposit));\n\n    db.setUIntValue(keccak256(abi.encodePacked(key)), value);\n    appliedOn = now;\n\n    registry.fireParamChangeAppliedEvent(version);\n  }\n\n}\n\n",
  "sourcePath": "/Users/matus/www/district0x/district-registry/contracts/ParamChange.sol",
  "compiler": {
    "name": "solc",
    "version": "0.4.24+commit.e67f0147.Emscripten.clang"
  },
  "schemaVersion": "3.0.10",
  "updatedAt": "2019-07-01T12:48:23.179Z",
  "devdoc": {
    "methods": {
      "applyChange()": {
        "details": "Applies the parameter change into EternalDb To be able to make change into a EternalDb, this contract must be given temporary permission to make the change This permission is given by ParamChangeRegistry, which holds permanent permission to make changes into the db Cannot be called when change was already applied Can be called only for whitelisted registry entries Can be called only when original value is still current value Creator gets deposit back"
      },
      "construct(address,uint256)": {
        "details": "Constructor for this contract. Native constructor is not used, because users create only forwarders into single instance of this contract, therefore constructor must be called explicitly. Must NOT be callable multiple times Transfers TCR entry token deposit from sender into this contract",
        "params": {
          "_creator": "Creator of a district",
          "_version": "Version of District contract"
        }
      },
      "construct(address,uint256,address,string,uint256)": {
        "details": "Constructor for this contract. Native constructor is not used, because users create only forwarders into single instance of this contract, therefore constructor must be called explicitly. Can only be called if the parameter value is within its allowed domain.",
        "params": {
          "_creator": "Creator of a district",
          "_db": "EternalDb change will be applied to",
          "_key": "Key of a changed parameter",
          "_value": "New value of a parameter",
          "_version": "Version of District contract"
        }
      },
      "createChallenge(address,bytes)": {
        "details": "Creates a challenge for this TCR entry Must be within challenge period Entry can be challenged only once Transfers token deposit from challenger into this contract Forks registry token (DankToken) in order to create single purpose voting token to vote about this challenge",
        "params": {
          "_challengeMetaHash": "IPFS hash of meta data related to this challenge",
          "_challenger": "Address of a challenger"
        }
      },
      "receiveApproval(address,uint256,address,bytes)": {
        "details": "Function called by MiniMeToken when somebody calls approveAndCall on it. This way token can be transferred to a recipient in a single transaction together with execution of additional logic",
        "params": {
          "_amount": "Amount of approved tokens to transfer",
          "_data": "Bytecode of a function and passed parameters, that should be called after token approval",
          "_from": "Sender of transaction approval",
          "_token": "Token that received the approval"
        }
      }
    },
    "title": "Contract created for each submitted TCR parameter change."
  },
  "userdoc": {
    "methods": {}
  }
}