{
  "contractName": "ParamChangeRegistry",
  "abi": [
    {
      "constant": true,
      "inputs": [],
      "name": "challengeDispensationKey",
      "outputs": [
        {
          "name": "",
          "type": "bytes32"
        }
      ],
      "payable": false,
      "stateMutability": "view",
      "type": "function"
    },
    {
      "constant": false,
      "inputs": [
        {
          "name": "_isEmergency",
          "type": "bool"
        }
      ],
      "name": "setEmergency",
      "outputs": [],
      "payable": false,
      "stateMutability": "nonpayable",
      "type": "function"
    },
    {
      "constant": true,
      "inputs": [],
      "name": "depositKey",
      "outputs": [
        {
          "name": "",
          "type": "bytes32"
        }
      ],
      "payable": false,
      "stateMutability": "view",
      "type": "function"
    },
    {
      "constant": true,
      "inputs": [
        {
          "name": "factory",
          "type": "address"
        }
      ],
      "name": "isFactory",
      "outputs": [
        {
          "name": "",
          "type": "bool"
        }
      ],
      "payable": false,
      "stateMutability": "view",
      "type": "function"
    },
    {
      "constant": false,
      "inputs": [
        {
          "name": "version",
          "type": "uint256"
        },
        {
          "name": "dntTotalStaked",
          "type": "uint256"
        },
        {
          "name": "votingTokenTotalSupply",
          "type": "uint256"
        },
        {
          "name": "staker",
          "type": "address"
        },
        {
          "name": "stakerDntStaked",
          "type": "uint256"
        },
        {
          "name": "stakerVotingTokenBalance",
          "type": "uint256"
        },
        {
          "name": "stakedAmount",
          "type": "uint256"
        },
        {
          "name": "isUnstake",
          "type": "bool"
        }
      ],
      "name": "fireDistrictStakeChangedEvent",
      "outputs": [],
      "payable": false,
      "stateMutability": "nonpayable",
      "type": "function"
    },
    {
      "constant": false,
      "inputs": [
        {
          "name": "owner_",
          "type": "address"
        }
      ],
      "name": "setOwner",
      "outputs": [],
      "payable": false,
      "stateMutability": "nonpayable",
      "type": "function"
    },
    {
      "constant": true,
      "inputs": [],
      "name": "maxAuctionDurationKey",
      "outputs": [
        {
          "name": "",
          "type": "bytes32"
        }
      ],
      "payable": false,
      "stateMutability": "view",
      "type": "function"
    },
    {
      "constant": false,
      "inputs": [
        {
          "name": "version",
          "type": "uint256"
        },
        {
          "name": "index",
          "type": "uint256"
        },
        {
          "name": "voter",
          "type": "address"
        },
        {
          "name": "amount",
          "type": "uint256"
        }
      ],
      "name": "fireVoteRewardClaimedEvent",
      "outputs": [],
      "payable": false,
      "stateMutability": "nonpayable",
      "type": "function"
    },
    {
      "constant": true,
      "inputs": [],
      "name": "db",
      "outputs": [
        {
          "name": "",
          "type": "address"
        }
      ],
      "payable": false,
      "stateMutability": "view",
      "type": "function"
    },
    {
      "constant": false,
      "inputs": [
        {
          "name": "version",
          "type": "uint256"
        },
        {
          "name": "index",
          "type": "uint256"
        },
        {
          "name": "voter",
          "type": "address"
        },
        {
          "name": "amount",
          "type": "uint256"
        }
      ],
      "name": "fireVoteCommittedEvent",
      "outputs": [],
      "payable": false,
      "stateMutability": "nonpayable",
      "type": "function"
    },
    {
      "constant": false,
      "inputs": [
        {
          "name": "version",
          "type": "uint256"
        },
        {
          "name": "index",
          "type": "uint256"
        },
        {
          "name": "voter",
          "type": "address"
        },
        {
          "name": "option",
          "type": "uint256"
        },
        {
          "name": "amount",
          "type": "uint256"
        }
      ],
      "name": "fireVoteRevealedEvent",
      "outputs": [],
      "payable": false,
      "stateMutability": "nonpayable",
      "type": "function"
    },
    {
      "constant": false,
      "inputs": [
        {
          "name": "version",
          "type": "uint256"
        },
        {
          "name": "index",
          "type": "uint256"
        },
        {
          "name": "creator",
          "type": "address"
        },
        {
          "name": "amount",
          "type": "uint256"
        }
      ],
      "name": "fireCreatorRewardClaimedEvent",
      "outputs": [],
      "payable": false,
      "stateMutability": "nonpayable",
      "type": "function"
    },
    {
      "constant": true,
      "inputs": [],
      "name": "isEmergency",
      "outputs": [
        {
          "name": "",
          "type": "bool"
        }
      ],
      "payable": false,
      "stateMutability": "view",
      "type": "function"
    },
    {
      "constant": true,
      "inputs": [],
      "name": "revealPeriodDurationKey",
      "outputs": [
        {
          "name": "",
          "type": "bytes32"
        }
      ],
      "payable": false,
      "stateMutability": "view",
      "type": "function"
    },
    {
      "constant": true,
      "inputs": [],
      "name": "challengePeriodDurationKey",
      "outputs": [
        {
          "name": "",
          "type": "bytes32"
        }
      ],
      "payable": false,
      "stateMutability": "view",
      "type": "function"
    },
    {
      "constant": true,
      "inputs": [
        {
          "name": "registryEntry",
          "type": "address"
        }
      ],
      "name": "isRegistryEntry",
      "outputs": [
        {
          "name": "",
          "type": "bool"
        }
      ],
      "payable": false,
      "stateMutability": "view",
      "type": "function"
    },
    {
      "constant": false,
      "inputs": [
        {
          "name": "_factory",
          "type": "address"
        },
        {
          "name": "_isFactory",
          "type": "bool"
        }
      ],
      "name": "setFactory",
      "outputs": [],
      "payable": false,
      "stateMutability": "nonpayable",
      "type": "function"
    },
    {
      "constant": false,
      "inputs": [
        {
          "name": "_registryEntry",
          "type": "address"
        }
      ],
      "name": "addRegistryEntry",
      "outputs": [],
      "payable": false,
      "stateMutability": "nonpayable",
      "type": "function"
    },
    {
      "constant": true,
      "inputs": [],
      "name": "commitPeriodDurationKey",
      "outputs": [
        {
          "name": "",
          "type": "bytes32"
        }
      ],
      "payable": false,
      "stateMutability": "view",
      "type": "function"
    },
    {
      "constant": false,
      "inputs": [
        {
          "name": "authority_",
          "type": "address"
        }
      ],
      "name": "setAuthority",
      "outputs": [],
      "payable": false,
      "stateMutability": "nonpayable",
      "type": "function"
    },
    {
      "constant": false,
      "inputs": [
        {
          "name": "version",
          "type": "uint256"
        },
        {
          "name": "index",
          "type": "uint256"
        },
        {
          "name": "challenger",
          "type": "address"
        },
        {
          "name": "commitPeriodEnd",
          "type": "uint256"
        },
        {
          "name": "revealPeriodEnd",
          "type": "uint256"
        },
        {
          "name": "rewardPool",
          "type": "uint256"
        },
        {
          "name": "metaHash",
          "type": "bytes"
        }
      ],
      "name": "fireChallengeCreatedEvent",
      "outputs": [],
      "payable": false,
      "stateMutability": "nonpayable",
      "type": "function"
    },
    {
      "constant": true,
      "inputs": [],
      "name": "owner",
      "outputs": [
        {
          "name": "",
          "type": "address"
        }
      ],
      "payable": false,
      "stateMutability": "view",
      "type": "function"
    },
    {
      "constant": false,
      "inputs": [
        {
          "name": "version",
          "type": "uint256"
        },
        {
          "name": "creator",
          "type": "address"
        },
        {
          "name": "metaHash",
          "type": "bytes"
        },
        {
          "name": "deposit",
          "type": "uint256"
        },
        {
          "name": "challengePeriodEnd",
          "type": "uint256"
        },
        {
          "name": "dntWeight",
          "type": "uint32"
        },
        {
          "name": "aragonDao",
          "type": "address"
        },
        {
          "name": "aragonId",
          "type": "string"
        }
      ],
      "name": "fireDistrictConstructedEvent",
      "outputs": [],
      "payable": false,
      "stateMutability": "nonpayable",
      "type": "function"
    },
    {
      "constant": false,
      "inputs": [
        {
          "name": "version",
          "type": "uint256"
        },
        {
          "name": "metahash",
          "type": "bytes"
        }
      ],
      "name": "fireDistrictMetaHashChangedEvent",
      "outputs": [],
      "payable": false,
      "stateMutability": "nonpayable",
      "type": "function"
    },
    {
      "constant": true,
      "inputs": [],
      "name": "authority",
      "outputs": [
        {
          "name": "",
          "type": "address"
        }
      ],
      "payable": false,
      "stateMutability": "view",
      "type": "function"
    },
    {
      "constant": false,
      "inputs": [
        {
          "name": "version",
          "type": "uint256"
        },
        {
          "name": "index",
          "type": "uint256"
        },
        {
          "name": "challenger",
          "type": "address"
        },
        {
          "name": "amount",
          "type": "uint256"
        }
      ],
      "name": "fireChallengerRewardClaimedEvent",
      "outputs": [],
      "payable": false,
      "stateMutability": "nonpayable",
      "type": "function"
    },
    {
      "constant": false,
      "inputs": [
        {
          "name": "version",
          "type": "uint256"
        },
        {
          "name": "index",
          "type": "uint256"
        },
        {
          "name": "voter",
          "type": "address"
        },
        {
          "name": "amount",
          "type": "uint256"
        }
      ],
      "name": "fireVotesReclaimedEvent",
      "outputs": [],
      "payable": false,
      "stateMutability": "nonpayable",
      "type": "function"
    },
    {
      "constant": true,
      "inputs": [],
      "name": "maxTotalSupplyKey",
      "outputs": [
        {
          "name": "",
          "type": "bytes32"
        }
      ],
      "payable": false,
      "stateMutability": "view",
      "type": "function"
    },
    {
      "constant": true,
      "inputs": [],
      "name": "voteQuorumKey",
      "outputs": [
        {
          "name": "",
          "type": "bytes32"
        }
      ],
      "payable": false,
      "stateMutability": "view",
      "type": "function"
    },
    {
      "constant": false,
      "inputs": [
        {
          "name": "_db",
          "type": "address"
        }
      ],
      "name": "construct",
      "outputs": [],
      "payable": false,
      "stateMutability": "nonpayable",
      "type": "function"
    },
    {
      "anonymous": false,
      "inputs": [
        {
          "indexed": false,
          "name": "registryEntry",
          "type": "address"
        },
        {
          "indexed": false,
          "name": "version",
          "type": "uint256"
        },
        {
          "indexed": false,
          "name": "creator",
          "type": "address"
        },
        {
          "indexed": false,
          "name": "db",
          "type": "address"
        },
        {
          "indexed": false,
          "name": "key",
          "type": "string"
        },
        {
          "indexed": false,
          "name": "value",
          "type": "uint256"
        },
        {
          "indexed": false,
          "name": "deposit",
          "type": "uint256"
        },
        {
          "indexed": false,
          "name": "challengePeriodEnd",
          "type": "uint256"
        }
      ],
      "name": "ParamChangeConstructedEvent",
      "type": "event"
    },
    {
      "anonymous": false,
      "inputs": [
        {
          "indexed": false,
          "name": "registryEntry",
          "type": "address"
        },
        {
          "indexed": false,
          "name": "version",
          "type": "uint256"
        }
      ],
      "name": "ParamChangeAppliedEvent",
      "type": "event"
    },
    {
      "anonymous": false,
      "inputs": [
        {
          "indexed": false,
          "name": "registryEntry",
          "type": "address"
        },
        {
          "indexed": false,
          "name": "version",
          "type": "uint256"
        },
        {
          "indexed": false,
          "name": "index",
          "type": "uint256"
        },
        {
          "indexed": false,
          "name": "challenger",
          "type": "address"
        },
        {
          "indexed": false,
          "name": "commitPeriodEnd",
          "type": "uint256"
        },
        {
          "indexed": false,
          "name": "revealPeriodEnd",
          "type": "uint256"
        },
        {
          "indexed": false,
          "name": "rewardPool",
          "type": "uint256"
        },
        {
          "indexed": false,
          "name": "metaHash",
          "type": "bytes"
        },
        {
          "indexed": false,
          "name": "timestamp",
          "type": "uint256"
        }
      ],
      "name": "ChallengeCreatedEvent",
      "type": "event"
    },
    {
      "anonymous": false,
      "inputs": [
        {
          "indexed": false,
          "name": "registryEntry",
          "type": "address"
        },
        {
          "indexed": false,
          "name": "version",
          "type": "uint256"
        },
        {
          "indexed": false,
          "name": "index",
          "type": "uint256"
        },
        {
          "indexed": false,
          "name": "challenger",
          "type": "address"
        },
        {
          "indexed": false,
          "name": "amount",
          "type": "uint256"
        },
        {
          "indexed": false,
          "name": "timestamp",
          "type": "uint256"
        }
      ],
      "name": "ChallengerRewardClaimedEvent",
      "type": "event"
    },
    {
      "anonymous": false,
      "inputs": [
        {
          "indexed": false,
          "name": "registryEntry",
          "type": "address"
        },
        {
          "indexed": false,
          "name": "version",
          "type": "uint256"
        },
        {
          "indexed": false,
          "name": "index",
          "type": "uint256"
        },
        {
          "indexed": false,
          "name": "creator",
          "type": "address"
        },
        {
          "indexed": false,
          "name": "amount",
          "type": "uint256"
        },
        {
          "indexed": false,
          "name": "timestamp",
          "type": "uint256"
        }
      ],
      "name": "CreatorRewardClaimedEvent",
      "type": "event"
    },
    {
      "anonymous": false,
      "inputs": [
        {
          "indexed": false,
          "name": "registryEntry",
          "type": "address"
        },
        {
          "indexed": false,
          "name": "version",
          "type": "uint256"
        },
        {
          "indexed": false,
          "name": "creator",
          "type": "address"
        },
        {
          "indexed": false,
          "name": "metaHash",
          "type": "bytes"
        },
        {
          "indexed": false,
          "name": "deposit",
          "type": "uint256"
        },
        {
          "indexed": false,
          "name": "challengePeriodEnd",
          "type": "uint256"
        },
        {
          "indexed": false,
          "name": "dntWeight",
          "type": "uint32"
        },
        {
          "indexed": false,
          "name": "aragonDao",
          "type": "address"
        },
        {
          "indexed": false,
          "name": "aragonId",
          "type": "string"
        },
        {
          "indexed": false,
          "name": "timestamp",
          "type": "uint256"
        }
      ],
      "name": "DistrictConstructedEvent",
      "type": "event"
    },
    {
      "anonymous": false,
      "inputs": [
        {
          "indexed": false,
          "name": "registryEntry",
          "type": "address"
        },
        {
          "indexed": false,
          "name": "version",
          "type": "uint256"
        },
        {
          "indexed": false,
          "name": "dntTotalStaked",
          "type": "uint256"
        },
        {
          "indexed": false,
          "name": "votingTokenTotalSupply",
          "type": "uint256"
        },
        {
          "indexed": false,
          "name": "staker",
          "type": "address"
        },
        {
          "indexed": false,
          "name": "stakerDntStaked",
          "type": "uint256"
        },
        {
          "indexed": false,
          "name": "stakerVotingTokenBalance",
          "type": "uint256"
        },
        {
          "indexed": false,
          "name": "stakedAmount",
          "type": "uint256"
        },
        {
          "indexed": false,
          "name": "isUnstake",
          "type": "bool"
        },
        {
          "indexed": false,
          "name": "timestamp",
          "type": "uint256"
        }
      ],
      "name": "DistrictStakeChangedEvent",
      "type": "event"
    },
    {
      "anonymous": false,
      "inputs": [
        {
          "indexed": false,
          "name": "registryEntry",
          "type": "address"
        },
        {
          "indexed": false,
          "name": "version",
          "type": "uint256"
        },
        {
          "indexed": false,
          "name": "metaHash",
          "type": "bytes"
        },
        {
          "indexed": false,
          "name": "timestamp",
          "type": "uint256"
        }
      ],
      "name": "DistrictMetaHashChangedEvent",
      "type": "event"
    },
    {
      "anonymous": false,
      "inputs": [
        {
          "indexed": false,
          "name": "registryEntry",
          "type": "address"
        },
        {
          "indexed": false,
          "name": "version",
          "type": "uint256"
        },
        {
          "indexed": false,
          "name": "index",
          "type": "uint256"
        },
        {
          "indexed": false,
          "name": "voter",
          "type": "address"
        },
        {
          "indexed": false,
          "name": "amount",
          "type": "uint256"
        },
        {
          "indexed": false,
          "name": "timestamp",
          "type": "uint256"
        }
      ],
      "name": "VotesReclaimedEvent",
      "type": "event"
    },
    {
      "anonymous": false,
      "inputs": [
        {
          "indexed": false,
          "name": "registryEntry",
          "type": "address"
        },
        {
          "indexed": false,
          "name": "version",
          "type": "uint256"
        },
        {
          "indexed": false,
          "name": "index",
          "type": "uint256"
        },
        {
          "indexed": false,
          "name": "voter",
          "type": "address"
        },
        {
          "indexed": false,
          "name": "amount",
          "type": "uint256"
        },
        {
          "indexed": false,
          "name": "timestamp",
          "type": "uint256"
        }
      ],
      "name": "VoteCommittedEvent",
      "type": "event"
    },
    {
      "anonymous": false,
      "inputs": [
        {
          "indexed": false,
          "name": "registryEntry",
          "type": "address"
        },
        {
          "indexed": false,
          "name": "version",
          "type": "uint256"
        },
        {
          "indexed": false,
          "name": "index",
          "type": "uint256"
        },
        {
          "indexed": false,
          "name": "voter",
          "type": "address"
        },
        {
          "indexed": false,
          "name": "option",
          "type": "uint256"
        },
        {
          "indexed": false,
          "name": "amount",
          "type": "uint256"
        },
        {
          "indexed": false,
          "name": "timestamp",
          "type": "uint256"
        }
      ],
      "name": "VoteRevealedEvent",
      "type": "event"
    },
    {
      "anonymous": false,
      "inputs": [
        {
          "indexed": false,
          "name": "registryEntry",
          "type": "address"
        },
        {
          "indexed": false,
          "name": "version",
          "type": "uint256"
        },
        {
          "indexed": false,
          "name": "index",
          "type": "uint256"
        },
        {
          "indexed": false,
          "name": "voter",
          "type": "address"
        },
        {
          "indexed": false,
          "name": "amount",
          "type": "uint256"
        },
        {
          "indexed": false,
          "name": "timestamp",
          "type": "uint256"
        }
      ],
      "name": "VoteRewardClaimedEvent",
      "type": "event"
    },
    {
      "anonymous": false,
      "inputs": [
        {
          "indexed": true,
          "name": "authority",
          "type": "address"
        }
      ],
      "name": "LogSetAuthority",
      "type": "event"
    },
    {
      "anonymous": false,
      "inputs": [
        {
          "indexed": true,
          "name": "owner",
          "type": "address"
        }
      ],
      "name": "LogSetOwner",
      "type": "event"
    },
    {
      "constant": false,
      "inputs": [
        {
          "name": "_paramChange",
          "type": "address"
        }
      ],
      "name": "applyParamChange",
      "outputs": [],
      "payable": false,
      "stateMutability": "nonpayable",
      "type": "function"
    },
    {
      "constant": false,
      "inputs": [
        {
          "name": "version",
          "type": "uint256"
        },
        {
          "name": "creator",
          "type": "address"
        },
        {
          "name": "_db",
          "type": "address"
        },
        {
          "name": "key",
          "type": "string"
        },
        {
          "name": "value",
          "type": "uint256"
        },
        {
          "name": "deposit",
          "type": "uint256"
        },
        {
          "name": "challengePeriodEnd",
          "type": "uint256"
        }
      ],
      "name": "fireParamChangeConstructedEvent",
      "outputs": [],
      "payable": false,
      "stateMutability": "nonpayable",
      "type": "function"
    },
    {
      "constant": false,
      "inputs": [
        {
          "name": "version",
          "type": "uint256"
        }
      ],
      "name": "fireParamChangeAppliedEvent",
      "outputs": [],
      "payable": false,
      "stateMutability": "nonpayable",
      "type": "function"
    }
  ],
  "bytecode": "0x608060405233600160006101000a81548173ffffffffffffffffffffffffffffffffffffffff021916908373ffffffffffffffffffffffffffffffffffffffff1602179055503373ffffffffffffffffffffffffffffffffffffffff167fce241d7ca1f669fee44b6fc00b8eba2df3bb514eed0f6f668f8f89096e81ed9460405160405180910390a2613843806100976000396000f3006080604052600436106101a1576000357c0100000000000000000000000000000000000000000000000000000000900463ffffffff168063018714f5146101a65780630501d556146101d95780630c380fdb146102085780630f04ba671461023b578063129704f61461029657806313af4035146103215780631a79dc23146103645780632ae0099f146103975780634d655aff146103f857806352df04221461044f578063543b8dd414610520578063570e39231461058157806359247c26146105ec5780635c58046c1461064d5780635f9e8f821461067a5780636009e562146106a95780636dc50caa146106dc57806370aeb1671461070f57806371013c101461076a57806372a5f32c146107b9578063799fcaae146107fc5780637a9e5e4b1461082f5780637fe37893146108725780638da5cb5b1461092d5780639f8bfcba14610984578063a3b6c1b514610aa1578063b82f2ce114610b14578063bf7e214f14610b57578063ccce5a4314610bae578063e65ebf0a14610c0f578063e998ed7814610c70578063ee31e7b014610ca3578063f812033f14610cd6575b600080fd5b3480156101b257600080fd5b506101bb610d19565b60405180826000191660001916815260200191505060405180910390f35b3480156101e557600080fd5b50610206600480360381019080803515159060200190929190505050610d52565b005b34801561021457600080fd5b5061021d610e63565b60405180826000191660001916815260200191505060405180910390f35b34801561024757600080fd5b5061027c600480360381019080803573ffffffffffffffffffffffffffffffffffffffff169060200190929190505050610e9c565b604051808215151515815260200191505060405180910390f35b3480156102a257600080fd5b5061031f600480360381019080803590602001909291908035906020019092919080359060200190929190803573ffffffffffffffffffffffffffffffffffffffff16906020019092919080359060200190929190803590602001909291908035906020019092919080351515906020019092919050505061105d565b005b34801561032d57600080fd5b50610362600480360381019080803573ffffffffffffffffffffffffffffffffffffffff1690602001909291905050506111e5565b005b34801561037057600080fd5b506103796112c7565b60405180826000191660001916815260200191505060405180910390f35b3480156103a357600080fd5b506103f66004803603810190808035906020019092919080359060200190929190803573ffffffffffffffffffffffffffffffffffffffff16906020019092919080359060200190929190505050611300565b005b34801561040457600080fd5b5061040d611460565b604051808273ffffffffffffffffffffffffffffffffffffffff1673ffffffffffffffffffffffffffffffffffffffff16815260200191505060405180910390f35b34801561045b57600080fd5b5061051e60048036038101908080359060200190929190803573ffffffffffffffffffffffffffffffffffffffff169060200190929190803573ffffffffffffffffffffffffffffffffffffffff169060200190929190803590602001908201803590602001908080601f0160208091040260200160405190810160405280939291908181526020018383808284378201915050505050509192919290803590602001909291908035906020019092919080359060200190929190505050611486565b005b34801561052c57600080fd5b5061057f6004803603810190808035906020019092919080359060200190929190803573ffffffffffffffffffffffffffffffffffffffff1690602001909291908035906020019092919050505061168a565b005b34801561058d57600080fd5b506105ea6004803603810190808035906020019092919080359060200190929190803573ffffffffffffffffffffffffffffffffffffffff16906020019092919080359060200190929190803590602001909291905050506117ea565b005b3480156105f857600080fd5b5061064b6004803603810190808035906020019092919080359060200190929190803573ffffffffffffffffffffffffffffffffffffffff16906020019092919080359060200190929190505050611953565b005b34801561065957600080fd5b5061067860048036038101908080359060200190929190505050611ab3565b005b34801561068657600080fd5b5061068f611bc4565b604051808215151515815260200191505060405180910390f35b3480156106b557600080fd5b506106be611cb7565b60405180826000191660001916815260200191505060405180910390f35b3480156106e857600080fd5b506106f1611cf0565b60405180826000191660001916815260200191505060405180910390f35b34801561071b57600080fd5b50610750600480360381019080803573ffffffffffffffffffffffffffffffffffffffff169060200190929190505050611d29565b604051808215151515815260200191505060405180910390f35b34801561077657600080fd5b506107b7600480360381019080803573ffffffffffffffffffffffffffffffffffffffff169060200190929190803515159060200190929190505050611eea565b005b3480156107c557600080fd5b506107fa600480360381019080803573ffffffffffffffffffffffffffffffffffffffff1690602001909291905050506120c8565b005b34801561080857600080fd5b506108116123b3565b60405180826000191660001916815260200191505060405180910390f35b34801561083b57600080fd5b50610870600480360381019080803573ffffffffffffffffffffffffffffffffffffffff1690602001909291905050506123ec565b005b34801561087e57600080fd5b5061092b6004803603810190808035906020019092919080359060200190929190803573ffffffffffffffffffffffffffffffffffffffff169060200190929190803590602001909291908035906020019092919080359060200190929190803590602001908201803590602001908080601f01602080910402602001604051908101604052809392919081815260200183838082843782019150505050505091929192905050506124cc565b005b34801561093957600080fd5b506109426126ac565b604051808273ffffffffffffffffffffffffffffffffffffffff1673ffffffffffffffffffffffffffffffffffffffff16815260200191505060405180910390f35b34801561099057600080fd5b50610a9f60048036038101908080359060200190929190803573ffffffffffffffffffffffffffffffffffffffff169060200190929190803590602001908201803590602001908080601f01602080910402602001604051908101604052809392919081815260200183838082843782019150505050505091929192908035906020019092919080359060200190929190803563ffffffff169060200190929190803573ffffffffffffffffffffffffffffffffffffffff169060200190929190803590602001908201803590602001908080601f01602080910402602001604051908101604052809392919081815260200183838082843782019150505050505091929192905050506126d2565b005b348015610aad57600080fd5b50610b1260048036038101908080359060200190929190803590602001908201803590602001908080601f0160208091040260200160405190810160405280939291908181526020018383808284378201915050505050509192919290505050612958565b005b348015610b2057600080fd5b50610b55600480360381019080803573ffffffffffffffffffffffffffffffffffffffff169060200190929190505050612adf565b005b348015610b6357600080fd5b50610b6c61311a565b604051808273ffffffffffffffffffffffffffffffffffffffff1673ffffffffffffffffffffffffffffffffffffffff16815260200191505060405180910390f35b348015610bba57600080fd5b50610c0d6004803603810190808035906020019092919080359060200190929190803573ffffffffffffffffffffffffffffffffffffffff1690602001909291908035906020019092919050505061313f565b005b348015610c1b57600080fd5b50610c6e6004803603810190808035906020019092919080359060200190929190803573ffffffffffffffffffffffffffffffffffffffff1690602001909291908035906020019092919050505061329f565b005b348015610c7c57600080fd5b50610c856133ff565b60405180826000191660001916815260200191505060405180910390f35b348015610caf57600080fd5b50610cb8613438565b60405180826000191660001916815260200191505060405180910390f35b348015610ce257600080fd5b50610d17600480360381019080803573ffffffffffffffffffffffffffffffffffffffff169060200190929190505050613471565b005b60405180807f6368616c6c656e676544697370656e736174696f6e00000000000000000000008152506015019050604051809103902081565b610d80336000357fffffffff00000000000000000000000000000000000000000000000000000000166135a0565b1515610d8b57600080fd5b600360009054906101000a900473ffffffffffffffffffffffffffffffffffffffff1673ffffffffffffffffffffffffffffffffffffffff16633eba9ed2826040518263ffffffff167c010000000000000000000000000000000000000000000000000000000002815260040180807f6973456d657267656e637900000000000000000000000000000000000000000081525060200182151515158152602001915050600060405180830381600087803b158015610e4857600080fd5b505af1158015610e5c573d6000803e3d6000fd5b5050505050565b60405180807f6465706f736974000000000000000000000000000000000000000000000000008152506007019050604051809103902081565b6000600360009054906101000a900473ffffffffffffffffffffffffffffffffffffffff1673ffffffffffffffffffffffffffffffffffffffff166317e7dd228360405160200180807f6973466163746f727900000000000000000000000000000000000000000000008152506009018273ffffffffffffffffffffffffffffffffffffffff1673ffffffffffffffffffffffffffffffffffffffff166c010000000000000000000000000281526014019150506040516020818303038152906040526040518082805190602001908083835b602083101515610f945780518252602082019150602081019050602083039250610f6f565b6001836020036101000a03801982511681845116808217855250505050505090500191505060405180910390206040518263ffffffff167c0100000000000000000000000000000000000000000000000000000000028152600401808260001916600019168152602001915050602060405180830381600087803b15801561101b57600080fd5b505af115801561102f573d6000803e3d6000fd5b505050506040513d602081101561104557600080fd5b81019080805190602001909291905050509050919050565b61106633611d29565b1515611100576040517f08c379a00000000000000000000000000000000000000000000000000000000081526004018080602001828103825260268152602001807f52656769737472793a2053656e6465722073686f756c6420726567697374727981526020017f20656e747279000000000000000000000000000000000000000000000000000081525060400191505060405180910390fd5b7fc01f9492c0f5794625a7a8c256f129acd73a88185b7893ea43c6b839ad4b7af633898989898989898942604051808b73ffffffffffffffffffffffffffffffffffffffff1673ffffffffffffffffffffffffffffffffffffffff1681526020018a81526020018981526020018881526020018773ffffffffffffffffffffffffffffffffffffffff1673ffffffffffffffffffffffffffffffffffffffff168152602001868152602001858152602001848152602001831515151581526020018281526020019a505050505050505050505060405180910390a15050505050505050565b611213336000357fffffffff00000000000000000000000000000000000000000000000000000000166135a0565b151561121e57600080fd5b80600160006101000a81548173ffffffffffffffffffffffffffffffffffffffff021916908373ffffffffffffffffffffffffffffffffffffffff160217905550600160009054906101000a900473ffffffffffffffffffffffffffffffffffffffff1673ffffffffffffffffffffffffffffffffffffffff167fce241d7ca1f669fee44b6fc00b8eba2df3bb514eed0f6f668f8f89096e81ed9460405160405180910390a250565b60405180807f6d617841756374696f6e4475726174696f6e00000000000000000000000000008152506012019050604051809103902081565b61130933611d29565b15156113a3576040517f08c379a00000000000000000000000000000000000000000000000000000000081526004018080602001828103825260268152602001807f52656769737472793a2053656e6465722073686f756c6420726567697374727981526020017f20656e747279000000000000000000000000000000000000000000000000000081525060400191505060405180910390fd5b7f6d401853b513916a083b5579cdf37bd716df5819a54209915b7f83864841a17f338585858542604051808773ffffffffffffffffffffffffffffffffffffffff1673ffffffffffffffffffffffffffffffffffffffff1681526020018681526020018581526020018473ffffffffffffffffffffffffffffffffffffffff1673ffffffffffffffffffffffffffffffffffffffff168152602001838152602001828152602001965050505050505060405180910390a150505050565b600360009054906101000a900473ffffffffffffffffffffffffffffffffffffffff1681565b61148f33611d29565b1515611529576040517f08c379a00000000000000000000000000000000000000000000000000000000081526004018080602001828103825260268152602001807f52656769737472793a2053656e6465722073686f756c6420726567697374727981526020017f20656e747279000000000000000000000000000000000000000000000000000081525060400191505060405180910390fd5b7f3d8e28674c11075366444dff401572914c4a3929bdef02c7ef9ad2a9bd0e48063388888888888888604051808973ffffffffffffffffffffffffffffffffffffffff1673ffffffffffffffffffffffffffffffffffffffff1681526020018881526020018773ffffffffffffffffffffffffffffffffffffffff1673ffffffffffffffffffffffffffffffffffffffff1681526020018673ffffffffffffffffffffffffffffffffffffffff1673ffffffffffffffffffffffffffffffffffffffff16815260200180602001858152602001848152602001838152602001828103825286818151815260200191508051906020019080838360005b83811015611640578082015181840152602081019050611625565b50505050905090810190601f16801561166d5780820380516001836020036101000a031916815260200191505b50995050505050505050505060405180910390a150505050505050565b61169333611d29565b151561172d576040517f08c379a00000000000000000000000000000000000000000000000000000000081526004018080602001828103825260268152602001807f52656769737472793a2053656e6465722073686f756c6420726567697374727981526020017f20656e747279000000000000000000000000000000000000000000000000000081525060400191505060405180910390fd5b7fae42043c2dfd51a43b41a33527cc8c774026e07b44e5811be3fe6584a9eba4bb338585858542604051808773ffffffffffffffffffffffffffffffffffffffff1673ffffffffffffffffffffffffffffffffffffffff1681526020018681526020018581526020018473ffffffffffffffffffffffffffffffffffffffff1673ffffffffffffffffffffffffffffffffffffffff168152602001838152602001828152602001965050505050505060405180910390a150505050565b6117f333611d29565b151561188d576040517f08c379a00000000000000000000000000000000000000000000000000000000081526004018080602001828103825260268152602001807f52656769737472793a2053656e6465722073686f756c6420726567697374727981526020017f20656e747279000000000000000000000000000000000000000000000000000081525060400191505060405180910390fd5b7f46e4ce9c527616b079a3d7d6d1333acb96bdc94a7b044bee3a714d6d08e65d5e33868686868642604051808873ffffffffffffffffffffffffffffffffffffffff1673ffffffffffffffffffffffffffffffffffffffff1681526020018781526020018681526020018573ffffffffffffffffffffffffffffffffffffffff1673ffffffffffffffffffffffffffffffffffffffff16815260200184815260200183815260200182815260200197505050505050505060405180910390a15050505050565b61195c33611d29565b15156119f6576040517f08c379a00000000000000000000000000000000000000000000000000000000081526004018080602001828103825260268152602001807f52656769737472793a2053656e6465722073686f756c6420726567697374727981526020017f20656e747279000000000000000000000000000000000000000000000000000081525060400191505060405180910390fd5b7f025effe439585090d26b1642d43d9b9e1e5477de8b3dcd676b1bc91f8358ee5b338585858542604051808773ffffffffffffffffffffffffffffffffffffffff1673ffffffffffffffffffffffffffffffffffffffff1681526020018681526020018581526020018473ffffffffffffffffffffffffffffffffffffffff1673ffffffffffffffffffffffffffffffffffffffff168152602001838152602001828152602001965050505050505060405180910390a150505050565b611abc33611d29565b1515611b56576040517f08c379a00000000000000000000000000000000000000000000000000000000081526004018080602001828103825260268152602001807f52656769737472793a2053656e6465722073686f756c6420726567697374727981526020017f20656e747279000000000000000000000000000000000000000000000000000081525060400191505060405180910390fd5b7f42a1e9fea2a08a93c7c181ec5e174a53b09ea5f88a75b6d1e5c992dbf9342f483382604051808373ffffffffffffffffffffffffffffffffffffffff1673ffffffffffffffffffffffffffffffffffffffff1681526020018281526020019250505060405180910390a150565b6000600360009054906101000a900473ffffffffffffffffffffffffffffffffffffffff1673ffffffffffffffffffffffffffffffffffffffff166317e7dd226040518163ffffffff167c010000000000000000000000000000000000000000000000000000000002815260040180807f6973456d657267656e63790000000000000000000000000000000000000000008152506020019050602060405180830381600087803b158015611c7757600080fd5b505af1158015611c8b573d6000803e3d6000fd5b505050506040513d6020811015611ca157600080fd5b8101908080519060200190929190505050905090565b60405180807f72657665616c506572696f644475726174696f6e0000000000000000000000008152506014019050604051809103902081565b60405180807f6368616c6c656e6765506572696f644475726174696f6e0000000000000000008152506017019050604051809103902081565b6000600360009054906101000a900473ffffffffffffffffffffffffffffffffffffffff1673ffffffffffffffffffffffffffffffffffffffff166317e7dd228360405160200180807f69735265676973747279456e7472790000000000000000000000000000000000815250600f018273ffffffffffffffffffffffffffffffffffffffff1673ffffffffffffffffffffffffffffffffffffffff166c010000000000000000000000000281526014019150506040516020818303038152906040526040518082805190602001908083835b602083101515611e215780518252602082019150602081019050602083039250611dfc565b6001836020036101000a03801982511681845116808217855250505050505090500191505060405180910390206040518263ffffffff167c0100000000000000000000000000000000000000000000000000000000028152600401808260001916600019168152602001915050602060405180830381600087803b158015611ea857600080fd5b505af1158015611ebc573d6000803e3d6000fd5b505050506040513d6020811015611ed257600080fd5b81019080805190602001909291905050509050919050565b611f18336000357fffffffff00000000000000000000000000000000000000000000000000000000166135a0565b1515611f2357600080fd5b600360009054906101000a900473ffffffffffffffffffffffffffffffffffffffff1673ffffffffffffffffffffffffffffffffffffffff16633eba9ed28360405160200180807f6973466163746f727900000000000000000000000000000000000000000000008152506009018273ffffffffffffffffffffffffffffffffffffffff1673ffffffffffffffffffffffffffffffffffffffff166c010000000000000000000000000281526014019150506040516020818303038152906040526040518082805190602001908083835b6020831015156120195780518252602082019150602081019050602083039250611ff4565b6001836020036101000a0380198251168184511680821785525050505050509050019150506040518091039020836040518363ffffffff167c01000000000000000000000000000000000000000000000000000000000281526004018083600019166000191681526020018215151515815260200192505050600060405180830381600087803b1580156120ac57600080fd5b505af11580156120c0573d6000803e3d6000fd5b505050505050565b6120d133610e9c565b151561216b576040517f08c379a00000000000000000000000000000000000000000000000000000000081526004018080602001828103825260228152602001807f52656769737472793a2053656e6465722073686f756c6420626520666163746f81526020017f727900000000000000000000000000000000000000000000000000000000000081525060400191505060405180910390fd5b612173611bc4565b15151561220e576040517f08c379a00000000000000000000000000000000000000000000000000000000081526004018080602001828103825260228152602001807f52656769737472793a20456d657267656e6379206d6f646520697320656e616281526020017f6c6500000000000000000000000000000000000000000000000000000000000081525060400191505060405180910390fd5b600360009054906101000a900473ffffffffffffffffffffffffffffffffffffffff1673ffffffffffffffffffffffffffffffffffffffff16633eba9ed28260405160200180807f69735265676973747279456e7472790000000000000000000000000000000000815250600f018273ffffffffffffffffffffffffffffffffffffffff1673ffffffffffffffffffffffffffffffffffffffff166c010000000000000000000000000281526014019150506040516020818303038152906040526040518082805190602001908083835b60208310151561230457805182526020820191506020810190506020830392506122df565b6001836020036101000a038019825116818451168082178552505050505050905001915050604051809103902060016040518363ffffffff167c01000000000000000000000000000000000000000000000000000000000281526004018083600019166000191681526020018215151515815260200192505050600060405180830381600087803b15801561239857600080fd5b505af11580156123ac573d6000803e3d6000fd5b5050505050565b60405180807f636f6d6d6974506572696f644475726174696f6e0000000000000000000000008152506014019050604051809103902081565b61241a336000357fffffffff00000000000000000000000000000000000000000000000000000000166135a0565b151561242557600080fd5b806000806101000a81548173ffffffffffffffffffffffffffffffffffffffff021916908373ffffffffffffffffffffffffffffffffffffffff1602179055506000809054906101000a900473ffffffffffffffffffffffffffffffffffffffff1673ffffffffffffffffffffffffffffffffffffffff167f1abebea81bfa2637f28358c371278fb15ede7ea8dd28d2e03b112ff6d936ada460405160405180910390a250565b6124d533611d29565b151561256f576040517f08c379a00000000000000000000000000000000000000000000000000000000081526004018080602001828103825260268152602001807f52656769737472793a2053656e6465722073686f756c6420726567697374727981526020017f20656e747279000000000000000000000000000000000000000000000000000081525060400191505060405180910390fd5b7f4572b45b2053987b7aad03fa60bd1fd240c77d4bae6ada0bf09e0bdd4f6c6a36338888888888888842604051808a73ffffffffffffffffffffffffffffffffffffffff1673ffffffffffffffffffffffffffffffffffffffff1681526020018981526020018881526020018773ffffffffffffffffffffffffffffffffffffffff1673ffffffffffffffffffffffffffffffffffffffff16815260200186815260200185815260200184815260200180602001838152602001828103825284818151815260200191508051906020019080838360005b83811015612661578082015181840152602081019050612646565b50505050905090810190601f16801561268e5780820380516001836020036101000a031916815260200191505b509a505050505050505050505060405180910390a150505050505050565b600160009054906101000a900473ffffffffffffffffffffffffffffffffffffffff1681565b6126db33611d29565b1515612775576040517f08c379a00000000000000000000000000000000000000000000000000000000081526004018080602001828103825260268152602001807f52656769737472793a2053656e6465722073686f756c6420726567697374727981526020017f20656e747279000000000000000000000000000000000000000000000000000081525060400191505060405180910390fd5b7f60aed22a8db0dfebd217059ff24c4b910b09b543bdef68df1b8735a4eba74d9f33898989898989898942604051808b73ffffffffffffffffffffffffffffffffffffffff1673ffffffffffffffffffffffffffffffffffffffff1681526020018a81526020018973ffffffffffffffffffffffffffffffffffffffff1673ffffffffffffffffffffffffffffffffffffffff168152602001806020018881526020018781526020018663ffffffff1663ffffffff1681526020018573ffffffffffffffffffffffffffffffffffffffff1673ffffffffffffffffffffffffffffffffffffffff1681526020018060200184815260200183810383528a818151815260200191508051906020019080838360005b838110156128a4578082015181840152602081019050612889565b50505050905090810190601f1680156128d15780820380516001836020036101000a031916815260200191505b50838103825285818151815260200191508051906020019080838360005b8381101561290a5780820151818401526020810190506128ef565b50505050905090810190601f1680156129375780820380516001836020036101000a031916815260200191505b509c5050505050505050505050505060405180910390a15050505050505050565b61296133611d29565b15156129fb576040517f08c379a00000000000000000000000000000000000000000000000000000000081526004018080602001828103825260268152602001807f52656769737472793a2053656e6465722073686f756c6420726567697374727981526020017f20656e747279000000000000000000000000000000000000000000000000000081525060400191505060405180910390fd5b7f8336cd85606dfd3fe1fcc14cab0ea3fa615484000989ac426fa74bd82218cb1033838342604051808573ffffffffffffffffffffffffffffffffffffffff1673ffffffffffffffffffffffffffffffffffffffff16815260200184815260200180602001838152602001828103825284818151815260200191508051906020019080838360005b83811015612a9e578082015181840152602081019050612a83565b50505050905090810190601f168015612acb5780820380516001836020036101000a031916815260200191505b509550505050505060405180910390a15050565b6000612aea82611d29565b1515612af557600080fd5b8173ffffffffffffffffffffffffffffffffffffffff16634d655aff6040518163ffffffff167c0100000000000000000000000000000000000000000000000000000000028152600401602060405180830381600087803b158015612b5957600080fd5b505af1158015612b6d573d6000803e3d6000fd5b505050506040513d6020811015612b8357600080fd5b810190808051906020019092919050505073ffffffffffffffffffffffffffffffffffffffff1663bf7e214f6040518163ffffffff167c0100000000000000000000000000000000000000000000000000000000028152600401602060405180830381600087803b158015612bf757600080fd5b505af1158015612c0b573d6000803e3d6000fd5b505050506040513d6020811015612c2157600080fd5b810190808051906020019092919050505090508073ffffffffffffffffffffffffffffffffffffffff1663cbeea68c838473ffffffffffffffffffffffffffffffffffffffff16634d655aff6040518163ffffffff167c0100000000000000000000000000000000000000000000000000000000028152600401602060405180830381600087803b158015612cb557600080fd5b505af1158015612cc9573d6000803e3d6000fd5b505050506040513d6020811015612cdf57600080fd5b81019080805190602001909291905050508473ffffffffffffffffffffffffffffffffffffffff1663a8542f666040518163ffffffff167c0100000000000000000000000000000000000000000000000000000000028152600401602060405180830381600087803b158015612d5457600080fd5b505af1158015612d68573d6000803e3d6000fd5b505050506040513d6020811015612d7e57600080fd5b81019080805190602001909291905050506040518463ffffffff167c0100000000000000000000000000000000000000000000000000000000028152600401808473ffffffffffffffffffffffffffffffffffffffff1673ffffffffffffffffffffffffffffffffffffffff1681526020018373ffffffffffffffffffffffffffffffffffffffff1673ffffffffffffffffffffffffffffffffffffffff16815260200182600019166000191681526020019350505050600060405180830381600087803b158015612e4f57600080fd5b505af1158015612e63573d6000803e3d6000fd5b505050508173ffffffffffffffffffffffffffffffffffffffff16634e65037e6040518163ffffffff167c0100000000000000000000000000000000000000000000000000000000028152600401600060405180830381600087803b158015612ecb57600080fd5b505af1158015612edf573d6000803e3d6000fd5b505050508073ffffffffffffffffffffffffffffffffffffffff16632bc3217d838473ffffffffffffffffffffffffffffffffffffffff16634d655aff6040518163ffffffff167c0100000000000000000000000000000000000000000000000000000000028152600401602060405180830381600087803b158015612f6457600080fd5b505af1158015612f78573d6000803e3d6000fd5b505050506040513d6020811015612f8e57600080fd5b81019080805190602001909291905050508473ffffffffffffffffffffffffffffffffffffffff1663a8542f666040518163ffffffff167c0100000000000000000000000000000000000000000000000000000000028152600401602060405180830381600087803b15801561300357600080fd5b505af1158015613017573d6000803e3d6000fd5b505050506040513d602081101561302d57600080fd5b81019080805190602001909291905050506040518463ffffffff167c0100000000000000000000000000000000000000000000000000000000028152600401808473ffffffffffffffffffffffffffffffffffffffff1673ffffffffffffffffffffffffffffffffffffffff1681526020018373ffffffffffffffffffffffffffffffffffffffff1673ffffffffffffffffffffffffffffffffffffffff16815260200182600019166000191681526020019350505050600060405180830381600087803b1580156130fe57600080fd5b505af1158015613112573d6000803e3d6000fd5b505050505050565b6000809054906101000a900473ffffffffffffffffffffffffffffffffffffffff1681565b61314833611d29565b15156131e2576040517f08c379a00000000000000000000000000000000000000000000000000000000081526004018080602001828103825260268152602001807f52656769737472793a2053656e6465722073686f756c6420726567697374727981526020017f20656e747279000000000000000000000000000000000000000000000000000081525060400191505060405180910390fd5b7f53869cd507374f538d78e527c7e824a177dc9fa09279f3e6105d98b5a507aaca338585858542604051808773ffffffffffffffffffffffffffffffffffffffff1673ffffffffffffffffffffffffffffffffffffffff1681526020018681526020018581526020018473ffffffffffffffffffffffffffffffffffffffff1673ffffffffffffffffffffffffffffffffffffffff168152602001838152602001828152602001965050505050505060405180910390a150505050565b6132a833611d29565b1515613342576040517f08c379a00000000000000000000000000000000000000000000000000000000081526004018080602001828103825260268152602001807f52656769737472793a2053656e6465722073686f756c6420726567697374727981526020017f20656e747279000000000000000000000000000000000000000000000000000081525060400191505060405180910390fd5b7f0af92a3d08fd3ea517a8317bac63fb801b89fb5c0ef124135176a311e4280fc6338585858542604051808773ffffffffffffffffffffffffffffffffffffffff1673ffffffffffffffffffffffffffffffffffffffff1681526020018681526020018581526020018473ffffffffffffffffffffffffffffffffffffffff1673ffffffffffffffffffffffffffffffffffffffff168152602001838152602001828152602001965050505050505060405180910390a150505050565b60405180807f6d6178546f74616c537570706c79000000000000000000000000000000000000815250600e019050604051809103902081565b60405180807f766f746551756f72756d00000000000000000000000000000000000000000000815250600a019050604051809103902081565b60008173ffffffffffffffffffffffffffffffffffffffff1614151515613500576040517f08c379a000000000000000000000000000000000000000000000000000000000815260040180806020018281038252601e8152602001807f52656769737472793a20416464726573732063616e277420626520307830000081525060200191505060405180910390fd5b80600360006101000a81548173ffffffffffffffffffffffffffffffffffffffff021916908373ffffffffffffffffffffffffffffffffffffffff1602179055506001600360146101000a81548160ff02191690831515021790555033600160006101000a81548173ffffffffffffffffffffffffffffffffffffffff021916908373ffffffffffffffffffffffffffffffffffffffff16021790555050565b60003073ffffffffffffffffffffffffffffffffffffffff168373ffffffffffffffffffffffffffffffffffffffff1614156135df5760019050613811565b600160009054906101000a900473ffffffffffffffffffffffffffffffffffffffff1673ffffffffffffffffffffffffffffffffffffffff168373ffffffffffffffffffffffffffffffffffffffff16141561363e5760019050613811565b600073ffffffffffffffffffffffffffffffffffffffff166000809054906101000a900473ffffffffffffffffffffffffffffffffffffffff1673ffffffffffffffffffffffffffffffffffffffff16141561369d5760009050613811565b6000809054906101000a900473ffffffffffffffffffffffffffffffffffffffff1673ffffffffffffffffffffffffffffffffffffffff1663b70096138430856040518463ffffffff167c0100000000000000000000000000000000000000000000000000000000028152600401808473ffffffffffffffffffffffffffffffffffffffff1673ffffffffffffffffffffffffffffffffffffffff1681526020018373ffffffffffffffffffffffffffffffffffffffff1673ffffffffffffffffffffffffffffffffffffffff168152602001827bffffffffffffffffffffffffffffffffffffffffffffffffffffffff19167bffffffffffffffffffffffffffffffffffffffffffffffffffffffff191681526020019350505050602060405180830381600087803b1580156137d357600080fd5b505af11580156137e7573d6000803e3d6000fd5b505050506040513d60208110156137fd57600080fd5b810190808051906020019092919050505090505b929150505600a165627a7a72305820206dbf8cddd86dd886068fc3f8ca7168ff7964490360116636c600d7faa8cb920029",
  "source": "pragma solidity ^0.4.18;\n\nimport \"./Registry.sol\";\nimport \"./ParamChange.sol\";\nimport \"./auth/DSGuard.sol\";\n\n/**\n * @title Central contract for TCR parameter change registry\n *\n * @dev Extends Registry contract with additional logic for applying parameter change into a registry EternalDb.\n */\n\ncontract ParamChangeRegistry is Registry {\n\n  event ParamChangeConstructedEvent(address registryEntry, uint version, address creator, address db, string key, uint value, uint deposit, uint challengePeriodEnd);\n  event ParamChangeAppliedEvent(address registryEntry, uint version);\n\n  /**\n   * @dev Gives ParamChange contract temporary permission to apply its parameter changes into EthernalDb\n   * Only address of valid ParamChange contract can be passed\n   * Permission must be taken back right after applying the change\n\n   * @param _paramChange Address of ParamChange contract\n   */\n\n  function applyParamChange(ParamChange _paramChange) public {\n    require(isRegistryEntry(_paramChange));\n    DSGuard guard = DSGuard(_paramChange.db().authority());\n    guard.permit(_paramChange, _paramChange.db(), guard.ANY());\n    _paramChange.applyChange();\n    guard.forbid(_paramChange, _paramChange.db(), guard.ANY());\n  }\n\n\n  function fireParamChangeConstructedEvent(\n    uint version,\n    address creator,\n    address _db,\n    string key,\n    uint value,\n    uint deposit,\n    uint challengePeriodEnd\n  )\n    public\n    onlyRegistryEntry\n  {\n    emit ParamChangeConstructedEvent(msg.sender, version, creator, _db, key, value, deposit, challengePeriodEnd);\n  }\n\n  function fireParamChangeAppliedEvent(uint version)\n    public\n    onlyRegistryEntry\n  {\n    emit ParamChangeAppliedEvent(msg.sender, version);\n  }\n}\n\n",
  "sourcePath": "/Users/matus/www/district0x/district-registry/contracts/ParamChangeRegistry.sol",
  "compiler": {
    "name": "solc",
    "version": "0.4.24+commit.e67f0147.Emscripten.clang"
  },
  "schemaVersion": "3.0.10",
  "updatedAt": "2019-06-29T10:51:09.328Z",
  "devdoc": {
    "methods": {
      "addRegistryEntry(address)": {
        "details": "Adds address as valid registry entry into the Registry Must be callable only by allowed factory contract",
        "params": {
          "_registryEntry": "Address of new registry entry"
        }
      },
      "applyParamChange(address)": {
        "details": "Gives ParamChange contract temporary permission to apply its parameter changes into EthernalDb Only address of valid ParamChange contract can be passed Permission must be taken back right after applying the change",
        "params": {
          "_paramChange": "Address of ParamChange contract"
        }
      },
      "construct(address)": {
        "details": "Constructor for this contract. Native constructor is not used, because we use a forwarder pointing to single instance of this contract, therefore constructor must be called explicitly.",
        "params": {
          "_db": "Address of EternalDb related to this registry"
        }
      },
      "isEmergency()": {
        "details": "Returns whether emergency stop is happening",
        "return": "True if emergency is happening"
      },
      "isFactory(address)": {
        "details": "Returns whether address is valid registry entry factory",
        "return": "True if address is factory"
      },
      "isRegistryEntry(address)": {
        "details": "Returns whether address is valid registry entry",
        "return": "True if address is registry entry"
      },
      "setEmergency(bool)": {
        "details": "Sets emergency state to pause all trading operations Must be callable only by authenticated user",
        "params": {
          "_isEmergency": "True if emergency is happening"
        }
      },
      "setFactory(address,bool)": {
        "details": "Sets whether address is factory allowed to add registry entries into registry Must be callable only by authenticated user",
        "params": {
          "_factory": "Address of a factory contract",
          "_isFactory": "Whether the address is allowed factory"
        }
      }
    },
    "title": "Central contract for TCR parameter change registry"
  },
  "userdoc": {
    "methods": {}
  }
}