{
  "contractName": "ParamChangeRegistry",
  "abi": [
    {
      "constant": true,
      "inputs": [],
      "name": "challengeDispensationKey",
      "outputs": [
        {
          "name": "",
          "type": "bytes32"
        }
      ],
      "payable": false,
      "stateMutability": "view",
      "type": "function"
    },
    {
      "constant": false,
      "inputs": [
        {
          "name": "_isEmergency",
          "type": "bool"
        }
      ],
      "name": "setEmergency",
      "outputs": [],
      "payable": false,
      "stateMutability": "nonpayable",
      "type": "function"
    },
    {
      "constant": false,
      "inputs": [
        {
          "name": "version",
          "type": "uint256"
        },
        {
          "name": "index",
          "type": "uint256"
        },
        {
          "name": "voter",
          "type": "address"
        },
        {
          "name": "option",
          "type": "uint256"
        },
        {
          "name": "amount",
          "type": "uint256"
        },
        {
          "name": "revealPeriodEnd",
          "type": "uint256"
        }
      ],
      "name": "fireVoteRevealedEvent",
      "outputs": [],
      "payable": false,
      "stateMutability": "nonpayable",
      "type": "function"
    },
    {
      "constant": true,
      "inputs": [],
      "name": "depositKey",
      "outputs": [
        {
          "name": "",
          "type": "bytes32"
        }
      ],
      "payable": false,
      "stateMutability": "view",
      "type": "function"
    },
    {
      "constant": true,
      "inputs": [
        {
          "name": "factory",
          "type": "address"
        }
      ],
      "name": "isFactory",
      "outputs": [
        {
          "name": "",
          "type": "bool"
        }
      ],
      "payable": false,
      "stateMutability": "view",
      "type": "function"
    },
    {
      "constant": false,
      "inputs": [
        {
          "name": "version",
          "type": "uint256"
        },
        {
          "name": "dntTotalStaked",
          "type": "uint256"
        },
        {
          "name": "votingTokenTotalSupply",
          "type": "uint256"
        },
        {
          "name": "staker",
          "type": "address"
        },
        {
          "name": "stakerDntStaked",
          "type": "uint256"
        },
        {
          "name": "stakerVotingTokenBalance",
          "type": "uint256"
        },
        {
          "name": "stakedAmount",
          "type": "uint256"
        },
        {
          "name": "isUnstake",
          "type": "bool"
        }
      ],
      "name": "fireDistrictStakeChangedEvent",
      "outputs": [],
      "payable": false,
      "stateMutability": "nonpayable",
      "type": "function"
    },
    {
      "constant": false,
      "inputs": [
        {
          "name": "owner_",
          "type": "address"
        }
      ],
      "name": "setOwner",
      "outputs": [],
      "payable": false,
      "stateMutability": "nonpayable",
      "type": "function"
    },
    {
      "constant": true,
      "inputs": [],
      "name": "maxAuctionDurationKey",
      "outputs": [
        {
          "name": "",
          "type": "bytes32"
        }
      ],
      "payable": false,
      "stateMutability": "view",
      "type": "function"
    },
    {
      "constant": false,
      "inputs": [
        {
          "name": "version",
          "type": "uint256"
        },
        {
          "name": "index",
          "type": "uint256"
        },
        {
          "name": "voter",
          "type": "address"
        },
        {
          "name": "amount",
          "type": "uint256"
        }
      ],
      "name": "fireVoteRewardClaimedEvent",
      "outputs": [],
      "payable": false,
      "stateMutability": "nonpayable",
      "type": "function"
    },
    {
      "constant": true,
      "inputs": [],
      "name": "db",
      "outputs": [
        {
          "name": "",
          "type": "address"
        }
      ],
      "payable": false,
      "stateMutability": "view",
      "type": "function"
    },
    {
      "constant": false,
      "inputs": [
        {
          "name": "version",
          "type": "uint256"
        },
        {
          "name": "index",
          "type": "uint256"
        },
        {
          "name": "voter",
          "type": "address"
        },
        {
          "name": "amount",
          "type": "uint256"
        },
        {
          "name": "commitPeriodEnd",
          "type": "uint256"
        }
      ],
      "name": "fireVoteCommittedEvent",
      "outputs": [],
      "payable": false,
      "stateMutability": "nonpayable",
      "type": "function"
    },
    {
      "constant": false,
      "inputs": [
        {
          "name": "version",
          "type": "uint256"
        },
        {
          "name": "index",
          "type": "uint256"
        },
        {
          "name": "creator",
          "type": "address"
        },
        {
          "name": "amount",
          "type": "uint256"
        }
      ],
      "name": "fireCreatorRewardClaimedEvent",
      "outputs": [],
      "payable": false,
      "stateMutability": "nonpayable",
      "type": "function"
    },
    {
      "constant": true,
      "inputs": [],
      "name": "isEmergency",
      "outputs": [
        {
          "name": "",
          "type": "bool"
        }
      ],
      "payable": false,
      "stateMutability": "view",
      "type": "function"
    },
    {
      "constant": true,
      "inputs": [],
      "name": "revealPeriodDurationKey",
      "outputs": [
        {
          "name": "",
          "type": "bytes32"
        }
      ],
      "payable": false,
      "stateMutability": "view",
      "type": "function"
    },
    {
      "constant": true,
      "inputs": [],
      "name": "challengePeriodDurationKey",
      "outputs": [
        {
          "name": "",
          "type": "bytes32"
        }
      ],
      "payable": false,
      "stateMutability": "view",
      "type": "function"
    },
    {
      "constant": true,
      "inputs": [
        {
          "name": "registryEntry",
          "type": "address"
        }
      ],
      "name": "isRegistryEntry",
      "outputs": [
        {
          "name": "",
          "type": "bool"
        }
      ],
      "payable": false,
      "stateMutability": "view",
      "type": "function"
    },
    {
      "constant": false,
      "inputs": [
        {
          "name": "_factory",
          "type": "address"
        },
        {
          "name": "_isFactory",
          "type": "bool"
        }
      ],
      "name": "setFactory",
      "outputs": [],
      "payable": false,
      "stateMutability": "nonpayable",
      "type": "function"
    },
    {
      "constant": false,
      "inputs": [
        {
          "name": "_registryEntry",
          "type": "address"
        }
      ],
      "name": "addRegistryEntry",
      "outputs": [],
      "payable": false,
      "stateMutability": "nonpayable",
      "type": "function"
    },
    {
      "constant": true,
      "inputs": [],
      "name": "commitPeriodDurationKey",
      "outputs": [
        {
          "name": "",
          "type": "bytes32"
        }
      ],
      "payable": false,
      "stateMutability": "view",
      "type": "function"
    },
    {
      "constant": false,
      "inputs": [
        {
          "name": "authority_",
          "type": "address"
        }
      ],
      "name": "setAuthority",
      "outputs": [],
      "payable": false,
      "stateMutability": "nonpayable",
      "type": "function"
    },
    {
      "constant": false,
      "inputs": [
        {
          "name": "version",
          "type": "uint256"
        },
        {
          "name": "index",
          "type": "uint256"
        },
        {
          "name": "challenger",
          "type": "address"
        },
        {
          "name": "commitPeriodEnd",
          "type": "uint256"
        },
        {
          "name": "revealPeriodEnd",
          "type": "uint256"
        },
        {
          "name": "rewardPool",
          "type": "uint256"
        },
        {
          "name": "metaHash",
          "type": "bytes"
        }
      ],
      "name": "fireChallengeCreatedEvent",
      "outputs": [],
      "payable": false,
      "stateMutability": "nonpayable",
      "type": "function"
    },
    {
      "constant": true,
      "inputs": [],
      "name": "owner",
      "outputs": [
        {
          "name": "",
          "type": "address"
        }
      ],
      "payable": false,
      "stateMutability": "view",
      "type": "function"
    },
    {
      "constant": false,
      "inputs": [
        {
          "name": "version",
          "type": "uint256"
        },
        {
          "name": "creator",
          "type": "address"
        },
        {
          "name": "metaHash",
          "type": "bytes"
        },
        {
          "name": "deposit",
          "type": "uint256"
        },
        {
          "name": "challengePeriodEnd",
          "type": "uint256"
        },
        {
          "name": "dntWeight",
          "type": "uint32"
        },
        {
          "name": "aragonDao",
          "type": "address"
        },
        {
          "name": "aragonId",
          "type": "string"
        }
      ],
      "name": "fireDistrictConstructedEvent",
      "outputs": [],
      "payable": false,
      "stateMutability": "nonpayable",
      "type": "function"
    },
    {
      "constant": false,
      "inputs": [
        {
          "name": "version",
          "type": "uint256"
        },
        {
          "name": "metahash",
          "type": "bytes"
        }
      ],
      "name": "fireDistrictMetaHashChangedEvent",
      "outputs": [],
      "payable": false,
      "stateMutability": "nonpayable",
      "type": "function"
    },
    {
      "constant": true,
      "inputs": [],
      "name": "authority",
      "outputs": [
        {
          "name": "",
          "type": "address"
        }
      ],
      "payable": false,
      "stateMutability": "view",
      "type": "function"
    },
    {
      "constant": false,
      "inputs": [
        {
          "name": "version",
          "type": "uint256"
        },
        {
          "name": "index",
          "type": "uint256"
        },
        {
          "name": "challenger",
          "type": "address"
        },
        {
          "name": "amount",
          "type": "uint256"
        }
      ],
      "name": "fireChallengerRewardClaimedEvent",
      "outputs": [],
      "payable": false,
      "stateMutability": "nonpayable",
      "type": "function"
    },
    {
      "constant": false,
      "inputs": [
        {
          "name": "version",
          "type": "uint256"
        },
        {
          "name": "index",
          "type": "uint256"
        },
        {
          "name": "voter",
          "type": "address"
        },
        {
          "name": "amount",
          "type": "uint256"
        }
      ],
      "name": "fireVotesReclaimedEvent",
      "outputs": [],
      "payable": false,
      "stateMutability": "nonpayable",
      "type": "function"
    },
    {
      "constant": true,
      "inputs": [],
      "name": "maxTotalSupplyKey",
      "outputs": [
        {
          "name": "",
          "type": "bytes32"
        }
      ],
      "payable": false,
      "stateMutability": "view",
      "type": "function"
    },
    {
      "constant": true,
      "inputs": [],
      "name": "voteQuorumKey",
      "outputs": [
        {
          "name": "",
          "type": "bytes32"
        }
      ],
      "payable": false,
      "stateMutability": "view",
      "type": "function"
    },
    {
      "constant": false,
      "inputs": [
        {
          "name": "_db",
          "type": "address"
        }
      ],
      "name": "construct",
      "outputs": [],
      "payable": false,
      "stateMutability": "nonpayable",
      "type": "function"
    },
    {
      "anonymous": false,
      "inputs": [
        {
          "indexed": false,
          "name": "registryEntry",
          "type": "address"
        },
        {
          "indexed": false,
          "name": "version",
          "type": "uint256"
        },
        {
          "indexed": false,
          "name": "creator",
          "type": "address"
        },
        {
          "indexed": false,
          "name": "db",
          "type": "address"
        },
        {
          "indexed": false,
          "name": "key",
          "type": "string"
        },
        {
          "indexed": false,
          "name": "value",
          "type": "uint256"
        },
        {
          "indexed": false,
          "name": "deposit",
          "type": "uint256"
        },
        {
          "indexed": false,
          "name": "challengePeriodEnd",
          "type": "uint256"
        }
      ],
      "name": "ParamChangeConstructedEvent",
      "type": "event"
    },
    {
      "anonymous": false,
      "inputs": [
        {
          "indexed": false,
          "name": "registryEntry",
          "type": "address"
        },
        {
          "indexed": false,
          "name": "version",
          "type": "uint256"
        }
      ],
      "name": "ParamChangeAppliedEvent",
      "type": "event"
    },
    {
      "anonymous": false,
      "inputs": [
        {
          "indexed": false,
          "name": "registryEntry",
          "type": "address"
        },
        {
          "indexed": false,
          "name": "version",
          "type": "uint256"
        },
        {
          "indexed": false,
          "name": "index",
          "type": "uint256"
        },
        {
          "indexed": false,
          "name": "challenger",
          "type": "address"
        },
        {
          "indexed": false,
          "name": "commitPeriodEnd",
          "type": "uint256"
        },
        {
          "indexed": false,
          "name": "revealPeriodEnd",
          "type": "uint256"
        },
        {
          "indexed": false,
          "name": "rewardPool",
          "type": "uint256"
        },
        {
          "indexed": false,
          "name": "metaHash",
          "type": "bytes"
        },
        {
          "indexed": false,
          "name": "timestamp",
          "type": "uint256"
        }
      ],
      "name": "ChallengeCreatedEvent",
      "type": "event"
    },
    {
      "anonymous": false,
      "inputs": [
        {
          "indexed": false,
          "name": "registryEntry",
          "type": "address"
        },
        {
          "indexed": false,
          "name": "version",
          "type": "uint256"
        },
        {
          "indexed": false,
          "name": "index",
          "type": "uint256"
        },
        {
          "indexed": false,
          "name": "challenger",
          "type": "address"
        },
        {
          "indexed": false,
          "name": "amount",
          "type": "uint256"
        },
        {
          "indexed": false,
          "name": "timestamp",
          "type": "uint256"
        }
      ],
      "name": "ChallengerRewardClaimedEvent",
      "type": "event"
    },
    {
      "anonymous": false,
      "inputs": [
        {
          "indexed": false,
          "name": "registryEntry",
          "type": "address"
        },
        {
          "indexed": false,
          "name": "version",
          "type": "uint256"
        },
        {
          "indexed": false,
          "name": "index",
          "type": "uint256"
        },
        {
          "indexed": false,
          "name": "creator",
          "type": "address"
        },
        {
          "indexed": false,
          "name": "amount",
          "type": "uint256"
        },
        {
          "indexed": false,
          "name": "timestamp",
          "type": "uint256"
        }
      ],
      "name": "CreatorRewardClaimedEvent",
      "type": "event"
    },
    {
      "anonymous": false,
      "inputs": [
        {
          "indexed": false,
          "name": "registryEntry",
          "type": "address"
        },
        {
          "indexed": false,
          "name": "version",
          "type": "uint256"
        },
        {
          "indexed": false,
          "name": "creator",
          "type": "address"
        },
        {
          "indexed": false,
          "name": "metaHash",
          "type": "bytes"
        },
        {
          "indexed": false,
          "name": "deposit",
          "type": "uint256"
        },
        {
          "indexed": false,
          "name": "challengePeriodEnd",
          "type": "uint256"
        },
        {
          "indexed": false,
          "name": "dntWeight",
          "type": "uint32"
        },
        {
          "indexed": false,
          "name": "aragonDao",
          "type": "address"
        },
        {
          "indexed": false,
          "name": "aragonId",
          "type": "string"
        },
        {
          "indexed": false,
          "name": "timestamp",
          "type": "uint256"
        }
      ],
      "name": "DistrictConstructedEvent",
      "type": "event"
    },
    {
      "anonymous": false,
      "inputs": [
        {
          "indexed": false,
          "name": "registryEntry",
          "type": "address"
        },
        {
          "indexed": false,
          "name": "version",
          "type": "uint256"
        },
        {
          "indexed": false,
          "name": "dntTotalStaked",
          "type": "uint256"
        },
        {
          "indexed": false,
          "name": "votingTokenTotalSupply",
          "type": "uint256"
        },
        {
          "indexed": false,
          "name": "staker",
          "type": "address"
        },
        {
          "indexed": false,
          "name": "stakerDntStaked",
          "type": "uint256"
        },
        {
          "indexed": false,
          "name": "stakerVotingTokenBalance",
          "type": "uint256"
        },
        {
          "indexed": false,
          "name": "stakedAmount",
          "type": "uint256"
        },
        {
          "indexed": false,
          "name": "isUnstake",
          "type": "bool"
        },
        {
          "indexed": false,
          "name": "timestamp",
          "type": "uint256"
        }
      ],
      "name": "DistrictStakeChangedEvent",
      "type": "event"
    },
    {
      "anonymous": false,
      "inputs": [
        {
          "indexed": false,
          "name": "registryEntry",
          "type": "address"
        },
        {
          "indexed": false,
          "name": "version",
          "type": "uint256"
        },
        {
          "indexed": false,
          "name": "metaHash",
          "type": "bytes"
        },
        {
          "indexed": false,
          "name": "timestamp",
          "type": "uint256"
        }
      ],
      "name": "DistrictMetaHashChangedEvent",
      "type": "event"
    },
    {
      "anonymous": false,
      "inputs": [
        {
          "indexed": false,
          "name": "registryEntry",
          "type": "address"
        },
        {
          "indexed": false,
          "name": "version",
          "type": "uint256"
        },
        {
          "indexed": false,
          "name": "index",
          "type": "uint256"
        },
        {
          "indexed": false,
          "name": "voter",
          "type": "address"
        },
        {
          "indexed": false,
          "name": "amount",
          "type": "uint256"
        },
        {
          "indexed": false,
          "name": "timestamp",
          "type": "uint256"
        }
      ],
      "name": "VotesReclaimedEvent",
      "type": "event"
    },
    {
      "anonymous": false,
      "inputs": [
        {
          "indexed": false,
          "name": "registryEntry",
          "type": "address"
        },
        {
          "indexed": false,
          "name": "version",
          "type": "uint256"
        },
        {
          "indexed": false,
          "name": "index",
          "type": "uint256"
        },
        {
          "indexed": false,
          "name": "voter",
          "type": "address"
        },
        {
          "indexed": false,
          "name": "amount",
          "type": "uint256"
        },
        {
          "indexed": false,
          "name": "commitPeriodEnd",
          "type": "uint256"
        },
        {
          "indexed": false,
          "name": "timestamp",
          "type": "uint256"
        }
      ],
      "name": "VoteCommittedEvent",
      "type": "event"
    },
    {
      "anonymous": false,
      "inputs": [
        {
          "indexed": false,
          "name": "registryEntry",
          "type": "address"
        },
        {
          "indexed": false,
          "name": "version",
          "type": "uint256"
        },
        {
          "indexed": false,
          "name": "index",
          "type": "uint256"
        },
        {
          "indexed": false,
          "name": "voter",
          "type": "address"
        },
        {
          "indexed": false,
          "name": "option",
          "type": "uint256"
        },
        {
          "indexed": false,
          "name": "amount",
          "type": "uint256"
        },
        {
          "indexed": false,
          "name": "revealPeriodEnd",
          "type": "uint256"
        },
        {
          "indexed": false,
          "name": "timestamp",
          "type": "uint256"
        }
      ],
      "name": "VoteRevealedEvent",
      "type": "event"
    },
    {
      "anonymous": false,
      "inputs": [
        {
          "indexed": false,
          "name": "registryEntry",
          "type": "address"
        },
        {
          "indexed": false,
          "name": "version",
          "type": "uint256"
        },
        {
          "indexed": false,
          "name": "index",
          "type": "uint256"
        },
        {
          "indexed": false,
          "name": "voter",
          "type": "address"
        },
        {
          "indexed": false,
          "name": "amount",
          "type": "uint256"
        },
        {
          "indexed": false,
          "name": "timestamp",
          "type": "uint256"
        }
      ],
      "name": "VoteRewardClaimedEvent",
      "type": "event"
    },
    {
      "anonymous": false,
      "inputs": [
        {
          "indexed": true,
          "name": "authority",
          "type": "address"
        }
      ],
      "name": "LogSetAuthority",
      "type": "event"
    },
    {
      "anonymous": false,
      "inputs": [
        {
          "indexed": true,
          "name": "owner",
          "type": "address"
        }
      ],
      "name": "LogSetOwner",
      "type": "event"
    },
    {
      "constant": false,
      "inputs": [
        {
          "name": "_paramChange",
          "type": "address"
        }
      ],
      "name": "applyParamChange",
      "outputs": [],
      "payable": false,
      "stateMutability": "nonpayable",
      "type": "function"
    },
    {
      "constant": false,
      "inputs": [
        {
          "name": "version",
          "type": "uint256"
        },
        {
          "name": "creator",
          "type": "address"
        },
        {
          "name": "_db",
          "type": "address"
        },
        {
          "name": "key",
          "type": "string"
        },
        {
          "name": "value",
          "type": "uint256"
        },
        {
          "name": "deposit",
          "type": "uint256"
        },
        {
          "name": "challengePeriodEnd",
          "type": "uint256"
        }
      ],
      "name": "fireParamChangeConstructedEvent",
      "outputs": [],
      "payable": false,
      "stateMutability": "nonpayable",
      "type": "function"
    },
    {
      "constant": false,
      "inputs": [
        {
          "name": "version",
          "type": "uint256"
        }
      ],
      "name": "fireParamChangeAppliedEvent",
      "outputs": [],
      "payable": false,
      "stateMutability": "nonpayable",
      "type": "function"
    }
  ],
  "bytecode": "0x608060405233600160006101000a81548173ffffffffffffffffffffffffffffffffffffffff021916908373ffffffffffffffffffffffffffffffffffffffff1602179055503373ffffffffffffffffffffffffffffffffffffffff167fce241d7ca1f669fee44b6fc00b8eba2df3bb514eed0f6f668f8f89096e81ed9460405160405180910390a2613869806100976000396000f3006080604052600436106101a1576000357c0100000000000000000000000000000000000000000000000000000000900463ffffffff168063018714f5146101a65780630501d556146101d957806306289a87146102085780630c380fdb1461027d5780630f04ba67146102b0578063129704f61461030b57806313af4035146103965780631a79dc23146103d95780632ae0099f1461040c5780634d655aff1461046d57806352df0422146104c457806357ffc7db1461059557806359247c26146106005780635c58046c146106615780635f9e8f821461068e5780636009e562146106bd5780636dc50caa146106f057806370aeb1671461072357806371013c101461077e57806372a5f32c146107cd578063799fcaae146108105780637a9e5e4b146108435780637fe37893146108865780638da5cb5b146109415780639f8bfcba14610998578063a3b6c1b514610ab5578063b82f2ce114610b28578063bf7e214f14610b6b578063ccce5a4314610bc2578063e65ebf0a14610c23578063e998ed7814610c84578063ee31e7b014610cb7578063f812033f14610cea575b600080fd5b3480156101b257600080fd5b506101bb610d2d565b60405180826000191660001916815260200191505060405180910390f35b3480156101e557600080fd5b50610206600480360381019080803515159060200190929190505050610d66565b005b34801561021457600080fd5b5061027b6004803603810190808035906020019092919080359060200190929190803573ffffffffffffffffffffffffffffffffffffffff169060200190929190803590602001909291908035906020019092919080359060200190929190505050610e77565b005b34801561028957600080fd5b50610292610fe9565b60405180826000191660001916815260200191505060405180910390f35b3480156102bc57600080fd5b506102f1600480360381019080803573ffffffffffffffffffffffffffffffffffffffff169060200190929190505050611022565b604051808215151515815260200191505060405180910390f35b34801561031757600080fd5b50610394600480360381019080803590602001909291908035906020019092919080359060200190929190803573ffffffffffffffffffffffffffffffffffffffff1690602001909291908035906020019092919080359060200190929190803590602001909291908035151590602001909291905050506111e3565b005b3480156103a257600080fd5b506103d7600480360381019080803573ffffffffffffffffffffffffffffffffffffffff16906020019092919050505061136b565b005b3480156103e557600080fd5b506103ee61144d565b60405180826000191660001916815260200191505060405180910390f35b34801561041857600080fd5b5061046b6004803603810190808035906020019092919080359060200190929190803573ffffffffffffffffffffffffffffffffffffffff16906020019092919080359060200190929190505050611486565b005b34801561047957600080fd5b506104826115e6565b604051808273ffffffffffffffffffffffffffffffffffffffff1673ffffffffffffffffffffffffffffffffffffffff16815260200191505060405180910390f35b3480156104d057600080fd5b5061059360048036038101908080359060200190929190803573ffffffffffffffffffffffffffffffffffffffff169060200190929190803573ffffffffffffffffffffffffffffffffffffffff169060200190929190803590602001908201803590602001908080601f016020809104026020016040519081016040528093929190818152602001838380828437820191505050505050919291929080359060200190929190803590602001909291908035906020019092919050505061160c565b005b3480156105a157600080fd5b506105fe6004803603810190808035906020019092919080359060200190929190803573ffffffffffffffffffffffffffffffffffffffff1690602001909291908035906020019092919080359060200190929190505050611810565b005b34801561060c57600080fd5b5061065f6004803603810190808035906020019092919080359060200190929190803573ffffffffffffffffffffffffffffffffffffffff16906020019092919080359060200190929190505050611979565b005b34801561066d57600080fd5b5061068c60048036038101908080359060200190929190505050611ad9565b005b34801561069a57600080fd5b506106a3611bea565b604051808215151515815260200191505060405180910390f35b3480156106c957600080fd5b506106d2611cdd565b60405180826000191660001916815260200191505060405180910390f35b3480156106fc57600080fd5b50610705611d16565b60405180826000191660001916815260200191505060405180910390f35b34801561072f57600080fd5b50610764600480360381019080803573ffffffffffffffffffffffffffffffffffffffff169060200190929190505050611d4f565b604051808215151515815260200191505060405180910390f35b34801561078a57600080fd5b506107cb600480360381019080803573ffffffffffffffffffffffffffffffffffffffff169060200190929190803515159060200190929190505050611f10565b005b3480156107d957600080fd5b5061080e600480360381019080803573ffffffffffffffffffffffffffffffffffffffff1690602001909291905050506120ee565b005b34801561081c57600080fd5b506108256123d9565b60405180826000191660001916815260200191505060405180910390f35b34801561084f57600080fd5b50610884600480360381019080803573ffffffffffffffffffffffffffffffffffffffff169060200190929190505050612412565b005b34801561089257600080fd5b5061093f6004803603810190808035906020019092919080359060200190929190803573ffffffffffffffffffffffffffffffffffffffff169060200190929190803590602001909291908035906020019092919080359060200190929190803590602001908201803590602001908080601f01602080910402602001604051908101604052809392919081815260200183838082843782019150505050505091929192905050506124f2565b005b34801561094d57600080fd5b506109566126d2565b604051808273ffffffffffffffffffffffffffffffffffffffff1673ffffffffffffffffffffffffffffffffffffffff16815260200191505060405180910390f35b3480156109a457600080fd5b50610ab360048036038101908080359060200190929190803573ffffffffffffffffffffffffffffffffffffffff169060200190929190803590602001908201803590602001908080601f01602080910402602001604051908101604052809392919081815260200183838082843782019150505050505091929192908035906020019092919080359060200190929190803563ffffffff169060200190929190803573ffffffffffffffffffffffffffffffffffffffff169060200190929190803590602001908201803590602001908080601f01602080910402602001604051908101604052809392919081815260200183838082843782019150505050505091929192905050506126f8565b005b348015610ac157600080fd5b50610b2660048036038101908080359060200190929190803590602001908201803590602001908080601f016020809104026020016040519081016040528093929190818152602001838380828437820191505050505050919291929050505061297e565b005b348015610b3457600080fd5b50610b69600480360381019080803573ffffffffffffffffffffffffffffffffffffffff169060200190929190505050612b05565b005b348015610b7757600080fd5b50610b80613140565b604051808273ffffffffffffffffffffffffffffffffffffffff1673ffffffffffffffffffffffffffffffffffffffff16815260200191505060405180910390f35b348015610bce57600080fd5b50610c216004803603810190808035906020019092919080359060200190929190803573ffffffffffffffffffffffffffffffffffffffff16906020019092919080359060200190929190505050613165565b005b348015610c2f57600080fd5b50610c826004803603810190808035906020019092919080359060200190929190803573ffffffffffffffffffffffffffffffffffffffff169060200190929190803590602001909291905050506132c5565b005b348015610c9057600080fd5b50610c99613425565b60405180826000191660001916815260200191505060405180910390f35b348015610cc357600080fd5b50610ccc61345e565b60405180826000191660001916815260200191505060405180910390f35b348015610cf657600080fd5b50610d2b600480360381019080803573ffffffffffffffffffffffffffffffffffffffff169060200190929190505050613497565b005b60405180807f6368616c6c656e676544697370656e736174696f6e00000000000000000000008152506015019050604051809103902081565b610d94336000357fffffffff00000000000000000000000000000000000000000000000000000000166135c6565b1515610d9f57600080fd5b600360009054906101000a900473ffffffffffffffffffffffffffffffffffffffff1673ffffffffffffffffffffffffffffffffffffffff16633eba9ed2826040518263ffffffff167c010000000000000000000000000000000000000000000000000000000002815260040180807f6973456d657267656e637900000000000000000000000000000000000000000081525060200182151515158152602001915050600060405180830381600087803b158015610e5c57600080fd5b505af1158015610e70573d6000803e3d6000fd5b5050505050565b610e8033611d4f565b1515610f1a576040517f08c379a00000000000000000000000000000000000000000000000000000000081526004018080602001828103825260268152602001807f52656769737472793a2053656e6465722073686f756c6420726567697374727981526020017f20656e747279000000000000000000000000000000000000000000000000000081525060400191505060405180910390fd5b7fe95160b634d1d3e79c39928251c13b8917c6d68605c7539c8547f81a48b0f1233387878787878742604051808973ffffffffffffffffffffffffffffffffffffffff1673ffffffffffffffffffffffffffffffffffffffff1681526020018881526020018781526020018673ffffffffffffffffffffffffffffffffffffffff1673ffffffffffffffffffffffffffffffffffffffff1681526020018581526020018481526020018381526020018281526020019850505050505050505060405180910390a1505050505050565b60405180807f6465706f736974000000000000000000000000000000000000000000000000008152506007019050604051809103902081565b6000600360009054906101000a900473ffffffffffffffffffffffffffffffffffffffff1673ffffffffffffffffffffffffffffffffffffffff166317e7dd228360405160200180807f6973466163746f727900000000000000000000000000000000000000000000008152506009018273ffffffffffffffffffffffffffffffffffffffff1673ffffffffffffffffffffffffffffffffffffffff166c010000000000000000000000000281526014019150506040516020818303038152906040526040518082805190602001908083835b60208310151561111a57805182526020820191506020810190506020830392506110f5565b6001836020036101000a03801982511681845116808217855250505050505090500191505060405180910390206040518263ffffffff167c0100000000000000000000000000000000000000000000000000000000028152600401808260001916600019168152602001915050602060405180830381600087803b1580156111a157600080fd5b505af11580156111b5573d6000803e3d6000fd5b505050506040513d60208110156111cb57600080fd5b81019080805190602001909291905050509050919050565b6111ec33611d4f565b1515611286576040517f08c379a00000000000000000000000000000000000000000000000000000000081526004018080602001828103825260268152602001807f52656769737472793a2053656e6465722073686f756c6420726567697374727981526020017f20656e747279000000000000000000000000000000000000000000000000000081525060400191505060405180910390fd5b7fc01f9492c0f5794625a7a8c256f129acd73a88185b7893ea43c6b839ad4b7af633898989898989898942604051808b73ffffffffffffffffffffffffffffffffffffffff1673ffffffffffffffffffffffffffffffffffffffff1681526020018a81526020018981526020018881526020018773ffffffffffffffffffffffffffffffffffffffff1673ffffffffffffffffffffffffffffffffffffffff168152602001868152602001858152602001848152602001831515151581526020018281526020019a505050505050505050505060405180910390a15050505050505050565b611399336000357fffffffff00000000000000000000000000000000000000000000000000000000166135c6565b15156113a457600080fd5b80600160006101000a81548173ffffffffffffffffffffffffffffffffffffffff021916908373ffffffffffffffffffffffffffffffffffffffff160217905550600160009054906101000a900473ffffffffffffffffffffffffffffffffffffffff1673ffffffffffffffffffffffffffffffffffffffff167fce241d7ca1f669fee44b6fc00b8eba2df3bb514eed0f6f668f8f89096e81ed9460405160405180910390a250565b60405180807f6d617841756374696f6e4475726174696f6e00000000000000000000000000008152506012019050604051809103902081565b61148f33611d4f565b1515611529576040517f08c379a00000000000000000000000000000000000000000000000000000000081526004018080602001828103825260268152602001807f52656769737472793a2053656e6465722073686f756c6420726567697374727981526020017f20656e747279000000000000000000000000000000000000000000000000000081525060400191505060405180910390fd5b7f6d401853b513916a083b5579cdf37bd716df5819a54209915b7f83864841a17f338585858542604051808773ffffffffffffffffffffffffffffffffffffffff1673ffffffffffffffffffffffffffffffffffffffff1681526020018681526020018581526020018473ffffffffffffffffffffffffffffffffffffffff1673ffffffffffffffffffffffffffffffffffffffff168152602001838152602001828152602001965050505050505060405180910390a150505050565b600360009054906101000a900473ffffffffffffffffffffffffffffffffffffffff1681565b61161533611d4f565b15156116af576040517f08c379a00000000000000000000000000000000000000000000000000000000081526004018080602001828103825260268152602001807f52656769737472793a2053656e6465722073686f756c6420726567697374727981526020017f20656e747279000000000000000000000000000000000000000000000000000081525060400191505060405180910390fd5b7f3d8e28674c11075366444dff401572914c4a3929bdef02c7ef9ad2a9bd0e48063388888888888888604051808973ffffffffffffffffffffffffffffffffffffffff1673ffffffffffffffffffffffffffffffffffffffff1681526020018881526020018773ffffffffffffffffffffffffffffffffffffffff1673ffffffffffffffffffffffffffffffffffffffff1681526020018673ffffffffffffffffffffffffffffffffffffffff1673ffffffffffffffffffffffffffffffffffffffff16815260200180602001858152602001848152602001838152602001828103825286818151815260200191508051906020019080838360005b838110156117c65780820151818401526020810190506117ab565b50505050905090810190601f1680156117f35780820380516001836020036101000a031916815260200191505b50995050505050505050505060405180910390a150505050505050565b61181933611d4f565b15156118b3576040517f08c379a00000000000000000000000000000000000000000000000000000000081526004018080602001828103825260268152602001807f52656769737472793a2053656e6465722073686f756c6420726567697374727981526020017f20656e747279000000000000000000000000000000000000000000000000000081525060400191505060405180910390fd5b7ff2a84c930ae6933f45f0c6cfbeee14c0b924576e52295b56415f21f864cbd21d33868686868642604051808873ffffffffffffffffffffffffffffffffffffffff1673ffffffffffffffffffffffffffffffffffffffff1681526020018781526020018681526020018573ffffffffffffffffffffffffffffffffffffffff1673ffffffffffffffffffffffffffffffffffffffff16815260200184815260200183815260200182815260200197505050505050505060405180910390a15050505050565b61198233611d4f565b1515611a1c576040517f08c379a00000000000000000000000000000000000000000000000000000000081526004018080602001828103825260268152602001807f52656769737472793a2053656e6465722073686f756c6420726567697374727981526020017f20656e747279000000000000000000000000000000000000000000000000000081525060400191505060405180910390fd5b7f025effe439585090d26b1642d43d9b9e1e5477de8b3dcd676b1bc91f8358ee5b338585858542604051808773ffffffffffffffffffffffffffffffffffffffff1673ffffffffffffffffffffffffffffffffffffffff1681526020018681526020018581526020018473ffffffffffffffffffffffffffffffffffffffff1673ffffffffffffffffffffffffffffffffffffffff168152602001838152602001828152602001965050505050505060405180910390a150505050565b611ae233611d4f565b1515611b7c576040517f08c379a00000000000000000000000000000000000000000000000000000000081526004018080602001828103825260268152602001807f52656769737472793a2053656e6465722073686f756c6420726567697374727981526020017f20656e747279000000000000000000000000000000000000000000000000000081525060400191505060405180910390fd5b7f42a1e9fea2a08a93c7c181ec5e174a53b09ea5f88a75b6d1e5c992dbf9342f483382604051808373ffffffffffffffffffffffffffffffffffffffff1673ffffffffffffffffffffffffffffffffffffffff1681526020018281526020019250505060405180910390a150565b6000600360009054906101000a900473ffffffffffffffffffffffffffffffffffffffff1673ffffffffffffffffffffffffffffffffffffffff166317e7dd226040518163ffffffff167c010000000000000000000000000000000000000000000000000000000002815260040180807f6973456d657267656e63790000000000000000000000000000000000000000008152506020019050602060405180830381600087803b158015611c9d57600080fd5b505af1158015611cb1573d6000803e3d6000fd5b505050506040513d6020811015611cc757600080fd5b8101908080519060200190929190505050905090565b60405180807f72657665616c506572696f644475726174696f6e0000000000000000000000008152506014019050604051809103902081565b60405180807f6368616c6c656e6765506572696f644475726174696f6e0000000000000000008152506017019050604051809103902081565b6000600360009054906101000a900473ffffffffffffffffffffffffffffffffffffffff1673ffffffffffffffffffffffffffffffffffffffff166317e7dd228360405160200180807f69735265676973747279456e7472790000000000000000000000000000000000815250600f018273ffffffffffffffffffffffffffffffffffffffff1673ffffffffffffffffffffffffffffffffffffffff166c010000000000000000000000000281526014019150506040516020818303038152906040526040518082805190602001908083835b602083101515611e475780518252602082019150602081019050602083039250611e22565b6001836020036101000a03801982511681845116808217855250505050505090500191505060405180910390206040518263ffffffff167c0100000000000000000000000000000000000000000000000000000000028152600401808260001916600019168152602001915050602060405180830381600087803b158015611ece57600080fd5b505af1158015611ee2573d6000803e3d6000fd5b505050506040513d6020811015611ef857600080fd5b81019080805190602001909291905050509050919050565b611f3e336000357fffffffff00000000000000000000000000000000000000000000000000000000166135c6565b1515611f4957600080fd5b600360009054906101000a900473ffffffffffffffffffffffffffffffffffffffff1673ffffffffffffffffffffffffffffffffffffffff16633eba9ed28360405160200180807f6973466163746f727900000000000000000000000000000000000000000000008152506009018273ffffffffffffffffffffffffffffffffffffffff1673ffffffffffffffffffffffffffffffffffffffff166c010000000000000000000000000281526014019150506040516020818303038152906040526040518082805190602001908083835b60208310151561203f578051825260208201915060208101905060208303925061201a565b6001836020036101000a0380198251168184511680821785525050505050509050019150506040518091039020836040518363ffffffff167c01000000000000000000000000000000000000000000000000000000000281526004018083600019166000191681526020018215151515815260200192505050600060405180830381600087803b1580156120d257600080fd5b505af11580156120e6573d6000803e3d6000fd5b505050505050565b6120f733611022565b1515612191576040517f08c379a00000000000000000000000000000000000000000000000000000000081526004018080602001828103825260228152602001807f52656769737472793a2053656e6465722073686f756c6420626520666163746f81526020017f727900000000000000000000000000000000000000000000000000000000000081525060400191505060405180910390fd5b612199611bea565b151515612234576040517f08c379a00000000000000000000000000000000000000000000000000000000081526004018080602001828103825260228152602001807f52656769737472793a20456d657267656e6379206d6f646520697320656e616281526020017f6c6500000000000000000000000000000000000000000000000000000000000081525060400191505060405180910390fd5b600360009054906101000a900473ffffffffffffffffffffffffffffffffffffffff1673ffffffffffffffffffffffffffffffffffffffff16633eba9ed28260405160200180807f69735265676973747279456e7472790000000000000000000000000000000000815250600f018273ffffffffffffffffffffffffffffffffffffffff1673ffffffffffffffffffffffffffffffffffffffff166c010000000000000000000000000281526014019150506040516020818303038152906040526040518082805190602001908083835b60208310151561232a5780518252602082019150602081019050602083039250612305565b6001836020036101000a038019825116818451168082178552505050505050905001915050604051809103902060016040518363ffffffff167c01000000000000000000000000000000000000000000000000000000000281526004018083600019166000191681526020018215151515815260200192505050600060405180830381600087803b1580156123be57600080fd5b505af11580156123d2573d6000803e3d6000fd5b5050505050565b60405180807f636f6d6d6974506572696f644475726174696f6e0000000000000000000000008152506014019050604051809103902081565b612440336000357fffffffff00000000000000000000000000000000000000000000000000000000166135c6565b151561244b57600080fd5b806000806101000a81548173ffffffffffffffffffffffffffffffffffffffff021916908373ffffffffffffffffffffffffffffffffffffffff1602179055506000809054906101000a900473ffffffffffffffffffffffffffffffffffffffff1673ffffffffffffffffffffffffffffffffffffffff167f1abebea81bfa2637f28358c371278fb15ede7ea8dd28d2e03b112ff6d936ada460405160405180910390a250565b6124fb33611d4f565b1515612595576040517f08c379a00000000000000000000000000000000000000000000000000000000081526004018080602001828103825260268152602001807f52656769737472793a2053656e6465722073686f756c6420726567697374727981526020017f20656e747279000000000000000000000000000000000000000000000000000081525060400191505060405180910390fd5b7f4572b45b2053987b7aad03fa60bd1fd240c77d4bae6ada0bf09e0bdd4f6c6a36338888888888888842604051808a73ffffffffffffffffffffffffffffffffffffffff1673ffffffffffffffffffffffffffffffffffffffff1681526020018981526020018881526020018773ffffffffffffffffffffffffffffffffffffffff1673ffffffffffffffffffffffffffffffffffffffff16815260200186815260200185815260200184815260200180602001838152602001828103825284818151815260200191508051906020019080838360005b8381101561268757808201518184015260208101905061266c565b50505050905090810190601f1680156126b45780820380516001836020036101000a031916815260200191505b509a505050505050505050505060405180910390a150505050505050565b600160009054906101000a900473ffffffffffffffffffffffffffffffffffffffff1681565b61270133611d4f565b151561279b576040517f08c379a00000000000000000000000000000000000000000000000000000000081526004018080602001828103825260268152602001807f52656769737472793a2053656e6465722073686f756c6420726567697374727981526020017f20656e747279000000000000000000000000000000000000000000000000000081525060400191505060405180910390fd5b7f60aed22a8db0dfebd217059ff24c4b910b09b543bdef68df1b8735a4eba74d9f33898989898989898942604051808b73ffffffffffffffffffffffffffffffffffffffff1673ffffffffffffffffffffffffffffffffffffffff1681526020018a81526020018973ffffffffffffffffffffffffffffffffffffffff1673ffffffffffffffffffffffffffffffffffffffff168152602001806020018881526020018781526020018663ffffffff1663ffffffff1681526020018573ffffffffffffffffffffffffffffffffffffffff1673ffffffffffffffffffffffffffffffffffffffff1681526020018060200184815260200183810383528a818151815260200191508051906020019080838360005b838110156128ca5780820151818401526020810190506128af565b50505050905090810190601f1680156128f75780820380516001836020036101000a031916815260200191505b50838103825285818151815260200191508051906020019080838360005b83811015612930578082015181840152602081019050612915565b50505050905090810190601f16801561295d5780820380516001836020036101000a031916815260200191505b509c5050505050505050505050505060405180910390a15050505050505050565b61298733611d4f565b1515612a21576040517f08c379a00000000000000000000000000000000000000000000000000000000081526004018080602001828103825260268152602001807f52656769737472793a2053656e6465722073686f756c6420726567697374727981526020017f20656e747279000000000000000000000000000000000000000000000000000081525060400191505060405180910390fd5b7f8336cd85606dfd3fe1fcc14cab0ea3fa615484000989ac426fa74bd82218cb1033838342604051808573ffffffffffffffffffffffffffffffffffffffff1673ffffffffffffffffffffffffffffffffffffffff16815260200184815260200180602001838152602001828103825284818151815260200191508051906020019080838360005b83811015612ac4578082015181840152602081019050612aa9565b50505050905090810190601f168015612af15780820380516001836020036101000a031916815260200191505b509550505050505060405180910390a15050565b6000612b1082611d4f565b1515612b1b57600080fd5b8173ffffffffffffffffffffffffffffffffffffffff16634d655aff6040518163ffffffff167c0100000000000000000000000000000000000000000000000000000000028152600401602060405180830381600087803b158015612b7f57600080fd5b505af1158015612b93573d6000803e3d6000fd5b505050506040513d6020811015612ba957600080fd5b810190808051906020019092919050505073ffffffffffffffffffffffffffffffffffffffff1663bf7e214f6040518163ffffffff167c0100000000000000000000000000000000000000000000000000000000028152600401602060405180830381600087803b158015612c1d57600080fd5b505af1158015612c31573d6000803e3d6000fd5b505050506040513d6020811015612c4757600080fd5b810190808051906020019092919050505090508073ffffffffffffffffffffffffffffffffffffffff1663cbeea68c838473ffffffffffffffffffffffffffffffffffffffff16634d655aff6040518163ffffffff167c0100000000000000000000000000000000000000000000000000000000028152600401602060405180830381600087803b158015612cdb57600080fd5b505af1158015612cef573d6000803e3d6000fd5b505050506040513d6020811015612d0557600080fd5b81019080805190602001909291905050508473ffffffffffffffffffffffffffffffffffffffff1663a8542f666040518163ffffffff167c0100000000000000000000000000000000000000000000000000000000028152600401602060405180830381600087803b158015612d7a57600080fd5b505af1158015612d8e573d6000803e3d6000fd5b505050506040513d6020811015612da457600080fd5b81019080805190602001909291905050506040518463ffffffff167c0100000000000000000000000000000000000000000000000000000000028152600401808473ffffffffffffffffffffffffffffffffffffffff1673ffffffffffffffffffffffffffffffffffffffff1681526020018373ffffffffffffffffffffffffffffffffffffffff1673ffffffffffffffffffffffffffffffffffffffff16815260200182600019166000191681526020019350505050600060405180830381600087803b158015612e7557600080fd5b505af1158015612e89573d6000803e3d6000fd5b505050508173ffffffffffffffffffffffffffffffffffffffff16634e65037e6040518163ffffffff167c0100000000000000000000000000000000000000000000000000000000028152600401600060405180830381600087803b158015612ef157600080fd5b505af1158015612f05573d6000803e3d6000fd5b505050508073ffffffffffffffffffffffffffffffffffffffff16632bc3217d838473ffffffffffffffffffffffffffffffffffffffff16634d655aff6040518163ffffffff167c0100000000000000000000000000000000000000000000000000000000028152600401602060405180830381600087803b158015612f8a57600080fd5b505af1158015612f9e573d6000803e3d6000fd5b505050506040513d6020811015612fb457600080fd5b81019080805190602001909291905050508473ffffffffffffffffffffffffffffffffffffffff1663a8542f666040518163ffffffff167c0100000000000000000000000000000000000000000000000000000000028152600401602060405180830381600087803b15801561302957600080fd5b505af115801561303d573d6000803e3d6000fd5b505050506040513d602081101561305357600080fd5b81019080805190602001909291905050506040518463ffffffff167c0100000000000000000000000000000000000000000000000000000000028152600401808473ffffffffffffffffffffffffffffffffffffffff1673ffffffffffffffffffffffffffffffffffffffff1681526020018373ffffffffffffffffffffffffffffffffffffffff1673ffffffffffffffffffffffffffffffffffffffff16815260200182600019166000191681526020019350505050600060405180830381600087803b15801561312457600080fd5b505af1158015613138573d6000803e3d6000fd5b505050505050565b6000809054906101000a900473ffffffffffffffffffffffffffffffffffffffff1681565b61316e33611d4f565b1515613208576040517f08c379a00000000000000000000000000000000000000000000000000000000081526004018080602001828103825260268152602001807f52656769737472793a2053656e6465722073686f756c6420726567697374727981526020017f20656e747279000000000000000000000000000000000000000000000000000081525060400191505060405180910390fd5b7f53869cd507374f538d78e527c7e824a177dc9fa09279f3e6105d98b5a507aaca338585858542604051808773ffffffffffffffffffffffffffffffffffffffff1673ffffffffffffffffffffffffffffffffffffffff1681526020018681526020018581526020018473ffffffffffffffffffffffffffffffffffffffff1673ffffffffffffffffffffffffffffffffffffffff168152602001838152602001828152602001965050505050505060405180910390a150505050565b6132ce33611d4f565b1515613368576040517f08c379a00000000000000000000000000000000000000000000000000000000081526004018080602001828103825260268152602001807f52656769737472793a2053656e6465722073686f756c6420726567697374727981526020017f20656e747279000000000000000000000000000000000000000000000000000081525060400191505060405180910390fd5b7f0af92a3d08fd3ea517a8317bac63fb801b89fb5c0ef124135176a311e4280fc6338585858542604051808773ffffffffffffffffffffffffffffffffffffffff1673ffffffffffffffffffffffffffffffffffffffff1681526020018681526020018581526020018473ffffffffffffffffffffffffffffffffffffffff1673ffffffffffffffffffffffffffffffffffffffff168152602001838152602001828152602001965050505050505060405180910390a150505050565b60405180807f6d6178546f74616c537570706c79000000000000000000000000000000000000815250600e019050604051809103902081565b60405180807f766f746551756f72756d00000000000000000000000000000000000000000000815250600a019050604051809103902081565b60008173ffffffffffffffffffffffffffffffffffffffff1614151515613526576040517f08c379a000000000000000000000000000000000000000000000000000000000815260040180806020018281038252601e8152602001807f52656769737472793a20416464726573732063616e277420626520307830000081525060200191505060405180910390fd5b80600360006101000a81548173ffffffffffffffffffffffffffffffffffffffff021916908373ffffffffffffffffffffffffffffffffffffffff1602179055506001600360146101000a81548160ff02191690831515021790555033600160006101000a81548173ffffffffffffffffffffffffffffffffffffffff021916908373ffffffffffffffffffffffffffffffffffffffff16021790555050565b60003073ffffffffffffffffffffffffffffffffffffffff168373ffffffffffffffffffffffffffffffffffffffff1614156136055760019050613837565b600160009054906101000a900473ffffffffffffffffffffffffffffffffffffffff1673ffffffffffffffffffffffffffffffffffffffff168373ffffffffffffffffffffffffffffffffffffffff1614156136645760019050613837565b600073ffffffffffffffffffffffffffffffffffffffff166000809054906101000a900473ffffffffffffffffffffffffffffffffffffffff1673ffffffffffffffffffffffffffffffffffffffff1614156136c35760009050613837565b6000809054906101000a900473ffffffffffffffffffffffffffffffffffffffff1673ffffffffffffffffffffffffffffffffffffffff1663b70096138430856040518463ffffffff167c0100000000000000000000000000000000000000000000000000000000028152600401808473ffffffffffffffffffffffffffffffffffffffff1673ffffffffffffffffffffffffffffffffffffffff1681526020018373ffffffffffffffffffffffffffffffffffffffff1673ffffffffffffffffffffffffffffffffffffffff168152602001827bffffffffffffffffffffffffffffffffffffffffffffffffffffffff19167bffffffffffffffffffffffffffffffffffffffffffffffffffffffff191681526020019350505050602060405180830381600087803b1580156137f957600080fd5b505af115801561380d573d6000803e3d6000fd5b505050506040513d602081101561382357600080fd5b810190808051906020019092919050505090505b929150505600a165627a7a72305820e52000f61a70ac9db71355e9e8b1bf9e505e7fa9a0485a746df1e735cc7c078e0029",
  "source": "pragma solidity ^0.4.18;\n\nimport \"./Registry.sol\";\nimport \"./ParamChange.sol\";\nimport \"./auth/DSGuard.sol\";\n\n/**\n * @title Central contract for TCR parameter change registry\n *\n * @dev Extends Registry contract with additional logic for applying parameter change into a registry EternalDb.\n */\n\ncontract ParamChangeRegistry is Registry {\n\n  event ParamChangeConstructedEvent(address registryEntry, uint version, address creator, address db, string key, uint value, uint deposit, uint challengePeriodEnd);\n  event ParamChangeAppliedEvent(address registryEntry, uint version);\n\n  /**\n   * @dev Gives ParamChange contract temporary permission to apply its parameter changes into EthernalDb\n   * Only address of valid ParamChange contract can be passed\n   * Permission must be taken back right after applying the change\n\n   * @param _paramChange Address of ParamChange contract\n   */\n\n  function applyParamChange(ParamChange _paramChange) public {\n    require(isRegistryEntry(_paramChange));\n    DSGuard guard = DSGuard(_paramChange.db().authority());\n    guard.permit(_paramChange, _paramChange.db(), guard.ANY());\n    _paramChange.applyChange();\n    guard.forbid(_paramChange, _paramChange.db(), guard.ANY());\n  }\n\n\n  function fireParamChangeConstructedEvent(\n    uint version,\n    address creator,\n    address _db,\n    string key,\n    uint value,\n    uint deposit,\n    uint challengePeriodEnd\n  )\n    public\n    onlyRegistryEntry\n  {\n    emit ParamChangeConstructedEvent(msg.sender, version, creator, _db, key, value, deposit, challengePeriodEnd);\n  }\n\n  function fireParamChangeAppliedEvent(uint version)\n    public\n    onlyRegistryEntry\n  {\n    emit ParamChangeAppliedEvent(msg.sender, version);\n  }\n}\n\n",
  "sourcePath": "/Users/matus/www/district0x/district-registry/contracts/ParamChangeRegistry.sol",
  "compiler": {
    "name": "solc",
    "version": "0.4.24+commit.e67f0147.Emscripten.clang"
  },
  "schemaVersion": "3.0.11",
  "updatedAt": "2019-07-23T10:27:14.505Z",
  "devdoc": {
    "methods": {
      "addRegistryEntry(address)": {
        "details": "Adds address as valid registry entry into the Registry Must be callable only by allowed factory contract",
        "params": {
          "_registryEntry": "Address of new registry entry"
        }
      },
      "applyParamChange(address)": {
        "details": "Gives ParamChange contract temporary permission to apply its parameter changes into EthernalDb Only address of valid ParamChange contract can be passed Permission must be taken back right after applying the change",
        "params": {
          "_paramChange": "Address of ParamChange contract"
        }
      },
      "construct(address)": {
        "details": "Constructor for this contract. Native constructor is not used, because we use a forwarder pointing to single instance of this contract, therefore constructor must be called explicitly.",
        "params": {
          "_db": "Address of EternalDb related to this registry"
        }
      },
      "isEmergency()": {
        "details": "Returns whether emergency stop is happening",
        "return": "True if emergency is happening"
      },
      "isFactory(address)": {
        "details": "Returns whether address is valid registry entry factory",
        "return": "True if address is factory"
      },
      "isRegistryEntry(address)": {
        "details": "Returns whether address is valid registry entry",
        "return": "True if address is registry entry"
      },
      "setEmergency(bool)": {
        "details": "Sets emergency state to pause all trading operations Must be callable only by authenticated user",
        "params": {
          "_isEmergency": "True if emergency is happening"
        }
      },
      "setFactory(address,bool)": {
        "details": "Sets whether address is factory allowed to add registry entries into registry Must be callable only by authenticated user",
        "params": {
          "_factory": "Address of a factory contract",
          "_isFactory": "Whether the address is allowed factory"
        }
      }
    },
    "title": "Central contract for TCR parameter change registry"
  },
  "userdoc": {
    "methods": {}
  }
}