{
  "contractName": "RegistryEntryFactory",
  "abi": [
    {
      "constant": true,
      "inputs": [],
      "name": "depositKey",
      "outputs": [
        {
          "name": "",
          "type": "bytes32"
        }
      ],
      "payable": false,
      "stateMutability": "view",
      "type": "function"
    },
    {
      "constant": true,
      "inputs": [],
      "name": "registryToken",
      "outputs": [
        {
          "name": "",
          "type": "address"
        }
      ],
      "payable": false,
      "stateMutability": "view",
      "type": "function"
    },
    {
      "constant": true,
      "inputs": [],
      "name": "registry",
      "outputs": [
        {
          "name": "",
          "type": "address"
        }
      ],
      "payable": false,
      "stateMutability": "view",
      "type": "function"
    },
    {
      "inputs": [
        {
          "name": "_registry",
          "type": "address"
        },
        {
          "name": "_registryToken",
          "type": "address"
        }
      ],
      "payable": false,
      "stateMutability": "nonpayable",
      "type": "constructor"
    },
    {
      "constant": false,
      "inputs": [
        {
          "name": "_from",
          "type": "address"
        },
        {
          "name": "_amount",
          "type": "uint256"
        },
        {
          "name": "_token",
          "type": "address"
        },
        {
          "name": "_data",
          "type": "bytes"
        }
      ],
      "name": "receiveApproval",
      "outputs": [],
      "payable": false,
      "stateMutability": "nonpayable",
      "type": "function"
    }
  ],
  "bytecode": "0x608060405234801561001057600080fd5b506040516040806104128339810180604052810190808051906020019092919080519060200190929190505050816000806101000a81548173ffffffffffffffffffffffffffffffffffffffff021916908373ffffffffffffffffffffffffffffffffffffffff16021790555080600160006101000a81548173ffffffffffffffffffffffffffffffffffffffff021916908373ffffffffffffffffffffffffffffffffffffffff1602179055505050610343806100cf6000396000f300608060405260043610610062576000357c0100000000000000000000000000000000000000000000000000000000900463ffffffff1680630c380fdb146100675780637792957d1461009a5780637b103999146100f15780638f4ffcb114610148575b600080fd5b34801561007357600080fd5b5061007c6101fb565b60405180826000191660001916815260200191505060405180910390f35b3480156100a657600080fd5b506100af610234565b604051808273ffffffffffffffffffffffffffffffffffffffff1673ffffffffffffffffffffffffffffffffffffffff16815260200191505060405180910390f35b3480156100fd57600080fd5b5061010661025a565b604051808273ffffffffffffffffffffffffffffffffffffffff1673ffffffffffffffffffffffffffffffffffffffff16815260200191505060405180910390f35b34801561015457600080fd5b506101f9600480360381019080803573ffffffffffffffffffffffffffffffffffffffff16906020019092919080359060200190929190803573ffffffffffffffffffffffffffffffffffffffff169060200190929190803590602001908201803590602001908080601f016020809104026020016040519081016040528093929190818152602001838380828437820191505050505050919291929050505061027f565b005b60405180807f6465706f736974000000000000000000000000000000000000000000000000008152506007019050604051809103902081565b600160009054906101000a900473ffffffffffffffffffffffffffffffffffffffff1681565b6000809054906101000a900473ffffffffffffffffffffffffffffffffffffffff1681565b3073ffffffffffffffffffffffffffffffffffffffff168160405180828051906020019080838360005b838110156102c45780820151818401526020810190506102a9565b50505050905090810190601f1680156102f15780820380516001836020036101000a031916815260200191505b509150506000604051808303816000865af1915050151561031157600080fd5b505050505600a165627a7a7230582028493dbc9e280d10478cef4702058852cccb36356b2882c25065c44e4577d9c60029",
  "source": "pragma solidity ^0.4.18;\n\nimport \"./Registry.sol\";\nimport \"./proxy/Forwarder1.sol\";\nimport \"@aragon/apps-shared-minime/contracts/MiniMeToken.sol\";\n\n/**\n * @title Base Factory contract for creating RegistryEntry contracts\n *\n * @dev This contract is meant to be extended by other factory contracts\n */\n\ncontract RegistryEntryFactory is ApproveAndCallFallBack {\n  Registry public registry;\n  MiniMeToken public registryToken;\n  bytes32 public constant depositKey = keccak256(\"deposit\");\n\n  constructor(Registry _registry, MiniMeToken _registryToken) public {\n    registry = _registry;\n    registryToken = _registryToken;\n  }\n\n  /**\n   * @dev Creates new forwarder contract as registry entry\n   * Transfers required deposit from creator into this contract\n   * Approves new registry entry address to transfer deposit to itself\n   * Adds new registry entry address into the registry\n\n   * @param _creator Creator of registry entry\n   * @return Address of a new registry entry forwarder contract\n   */\n  function createRegistryEntry(address _creator) internal returns (address) {\n    uint deposit = registry.db().getUIntValue(depositKey);\n    address regEntry = new Forwarder1();\n    require(registryToken.transferFrom(_creator, this, deposit));\n    require(registryToken.approve(regEntry, deposit));\n    registry.addRegistryEntry(regEntry);\n    return regEntry;\n  }\n\n  /**\n   * @dev Function called by MiniMeToken when somebody calls approveAndCall on it.\n   * This way token can be transferred to a recipient in a single transaction together with execution\n   * of additional logic\n\n   * @param _from Sender of transaction approval\n   * @param _amount Amount of approved tokens to transfer\n   * @param _token Token that received the approval\n   * @param _data Bytecode of a function and passed parameters, that should be called after token approval\n   */\n  function receiveApproval(\n    address _from,\n    uint256 _amount,\n    address _token,\n    bytes _data)\n  public\n  {\n    _from;\n    _amount;\n    _token;\n    require(address(this).call(_data));\n  }\n}",
  "sourcePath": "/Users/matus/www/district0x/district-registry/contracts/RegistryEntryFactory.sol",
  "compiler": {
    "name": "solc",
    "version": "0.4.24+commit.e67f0147.Emscripten.clang"
  },
  "schemaVersion": "3.0.11",
  "updatedAt": "2019-07-23T07:44:56.060Z",
  "devdoc": {
    "methods": {
      "receiveApproval(address,uint256,address,bytes)": {
        "details": "Function called by MiniMeToken when somebody calls approveAndCall on it. This way token can be transferred to a recipient in a single transaction together with execution of additional logic",
        "params": {
          "_amount": "Amount of approved tokens to transfer",
          "_data": "Bytecode of a function and passed parameters, that should be called after token approval",
          "_from": "Sender of transaction approval",
          "_token": "Token that received the approval"
        }
      }
    },
    "title": "Base Factory contract for creating RegistryEntry contracts"
  },
  "userdoc": {
    "methods": {}
  }
}