{
  "contractName": "RegistryEntry",
  "abi": [
    {
      "constant": true,
      "inputs": [],
      "name": "creator",
      "outputs": [
        {
          "name": "",
          "type": "address"
        }
      ],
      "payable": false,
      "stateMutability": "view",
      "type": "function"
    },
    {
      "constant": true,
      "inputs": [],
      "name": "version",
      "outputs": [
        {
          "name": "",
          "type": "uint256"
        }
      ],
      "payable": false,
      "stateMutability": "view",
      "type": "function"
    },
    {
      "constant": true,
      "inputs": [],
      "name": "challengePeriodEnd",
      "outputs": [
        {
          "name": "",
          "type": "uint256"
        }
      ],
      "payable": false,
      "stateMutability": "view",
      "type": "function"
    },
    {
      "constant": true,
      "inputs": [],
      "name": "registryToken",
      "outputs": [
        {
          "name": "",
          "type": "address"
        }
      ],
      "payable": false,
      "stateMutability": "view",
      "type": "function"
    },
    {
      "constant": true,
      "inputs": [],
      "name": "registry",
      "outputs": [
        {
          "name": "",
          "type": "address"
        }
      ],
      "payable": false,
      "stateMutability": "view",
      "type": "function"
    },
    {
      "constant": true,
      "inputs": [
        {
          "name": "",
          "type": "uint256"
        }
      ],
      "name": "challenges",
      "outputs": [
        {
          "name": "",
          "type": "address"
        }
      ],
      "payable": false,
      "stateMutability": "view",
      "type": "function"
    },
    {
      "constant": true,
      "inputs": [],
      "name": "deposit",
      "outputs": [
        {
          "name": "",
          "type": "uint256"
        }
      ],
      "payable": false,
      "stateMutability": "view",
      "type": "function"
    },
    {
      "constant": false,
      "inputs": [
        {
          "name": "_creator",
          "type": "address"
        },
        {
          "name": "_version",
          "type": "uint256"
        }
      ],
      "name": "construct",
      "outputs": [],
      "payable": false,
      "stateMutability": "nonpayable",
      "type": "function"
    },
    {
      "constant": false,
      "inputs": [
        {
          "name": "_challenger",
          "type": "address"
        },
        {
          "name": "_challengeMetaHash",
          "type": "bytes"
        }
      ],
      "name": "createChallenge",
      "outputs": [],
      "payable": false,
      "stateMutability": "nonpayable",
      "type": "function"
    },
    {
      "constant": false,
      "inputs": [
        {
          "name": "_challengeIndex",
          "type": "uint256"
        },
        {
          "name": "_voter",
          "type": "address"
        },
        {
          "name": "_amount",
          "type": "uint256"
        },
        {
          "name": "_secretHash",
          "type": "bytes32"
        }
      ],
      "name": "commitVoteForChallenge",
      "outputs": [],
      "payable": false,
      "stateMutability": "nonpayable",
      "type": "function"
    },
    {
      "constant": false,
      "inputs": [
        {
          "name": "_voter",
          "type": "address"
        },
        {
          "name": "_amount",
          "type": "uint256"
        },
        {
          "name": "_secretHash",
          "type": "bytes32"
        }
      ],
      "name": "commitVote",
      "outputs": [],
      "payable": false,
      "stateMutability": "nonpayable",
      "type": "function"
    },
    {
      "constant": false,
      "inputs": [
        {
          "name": "_challengeIndex",
          "type": "uint256"
        },
        {
          "name": "_voteOption",
          "type": "uint8"
        },
        {
          "name": "_salt",
          "type": "string"
        }
      ],
      "name": "revealVoteForChallenge",
      "outputs": [],
      "payable": false,
      "stateMutability": "nonpayable",
      "type": "function"
    },
    {
      "constant": false,
      "inputs": [
        {
          "name": "_voteOption",
          "type": "uint8"
        },
        {
          "name": "_salt",
          "type": "string"
        }
      ],
      "name": "revealVote",
      "outputs": [],
      "payable": false,
      "stateMutability": "nonpayable",
      "type": "function"
    },
    {
      "constant": false,
      "inputs": [
        {
          "name": "_challengeIndex",
          "type": "uint256"
        },
        {
          "name": "_user",
          "type": "address"
        }
      ],
      "name": "claimRewardForChallenge",
      "outputs": [],
      "payable": false,
      "stateMutability": "nonpayable",
      "type": "function"
    },
    {
      "constant": false,
      "inputs": [
        {
          "name": "_user",
          "type": "address"
        }
      ],
      "name": "claimReward",
      "outputs": [],
      "payable": false,
      "stateMutability": "nonpayable",
      "type": "function"
    },
    {
      "constant": false,
      "inputs": [
        {
          "name": "_from",
          "type": "address"
        },
        {
          "name": "_amount",
          "type": "uint256"
        },
        {
          "name": "_token",
          "type": "address"
        },
        {
          "name": "_data",
          "type": "bytes"
        }
      ],
      "name": "receiveApproval",
      "outputs": [],
      "payable": false,
      "stateMutability": "nonpayable",
      "type": "function"
    }
  ],
  "bytecode": "0x608060405234801561001057600080fd5b50613634806100206000396000f3006080604052600436106100e6576000357c0100000000000000000000000000000000000000000000000000000000900463ffffffff16806302d05d3f146100eb57806327f429d81461014257806354fd4d501461019d578063671f08e3146101c85780637792957d146101f35780637b1039991461024a5780637faa6e8c146102a157806387dfc3eb146102ee5780638f1d3776146103775780638f4ffcb1146103e4578063a9624b6f14610497578063ab531031146104fc578063c8cfe15314610549578063d0e30db014610591578063d279c191146105bc578063e71ae0f1146105ff575b600080fd5b3480156100f757600080fd5b50610100610651565b604051808273ffffffffffffffffffffffffffffffffffffffff1673ffffffffffffffffffffffffffffffffffffffff16815260200191505060405180910390f35b34801561014e57600080fd5b5061019b600480360381019080803573ffffffffffffffffffffffffffffffffffffffff169060200190929190803590602001909291908035600019169060200190929190505050610676565b005b3480156101a957600080fd5b506101b261068e565b6040518082815260200191505060405180910390f35b3480156101d457600080fd5b506101dd610694565b6040518082815260200191505060405180910390f35b3480156101ff57600080fd5b5061020861069a565b604051808273ffffffffffffffffffffffffffffffffffffffff1673ffffffffffffffffffffffffffffffffffffffff16815260200191505060405180910390f35b34801561025657600080fd5b5061025f6106b2565b604051808273ffffffffffffffffffffffffffffffffffffffff1673ffffffffffffffffffffffffffffffffffffffff16815260200191505060405180910390f35b3480156102ad57600080fd5b506102ec60048036038101908080359060200190929190803573ffffffffffffffffffffffffffffffffffffffff1690602001909291905050506106ca565b005b3480156102fa57600080fd5b50610375600480360381019080803573ffffffffffffffffffffffffffffffffffffffff169060200190929190803590602001908201803590602001908080601f01602080910402602001604051908101604052809392919081815260200183838082843782019150505050505091929192905050506106d8565b005b34801561038357600080fd5b506103a260048036038101908080359060200190929190505050611536565b604051808273ffffffffffffffffffffffffffffffffffffffff1673ffffffffffffffffffffffffffffffffffffffff16815260200191505060405180910390f35b3480156103f057600080fd5b50610495600480360381019080803573ffffffffffffffffffffffffffffffffffffffff16906020019092919080359060200190929190803573ffffffffffffffffffffffffffffffffffffffff169060200190929190803590602001908201803590602001908080601f0160208091040260200160405190810160405280939291908181526020018383808284378201915050505050509192919290505050611574565b005b3480156104a357600080fd5b506104fa60048036038101908080359060200190929190803573ffffffffffffffffffffffffffffffffffffffff16906020019092919080359060200190929190803560001916906020019092919050505061160c565b005b34801561050857600080fd5b50610547600480360381019080803573ffffffffffffffffffffffffffffffffffffffff1690602001909291908035906020019092919050505061161e565b005b34801561055557600080fd5b5061058f600480360381019080803560ff169060200190929190803590602001908201803590602001919091929391929390505050611bf7565b005b34801561059d57600080fd5b506105a6611c40565b6040518082815260200191505060405180910390f35b3480156105c857600080fd5b506105fd600480360381019080803573ffffffffffffffffffffffffffffffffffffffff169060200190929190505050611c46565b005b34801561060b57600080fd5b5061064f60048036038101908080359060200190929190803560ff169060200190929190803590602001908201803590602001919091929391929390505050611c5a565b005b6000809054906101000a900473ffffffffffffffffffffffffffffffffffffffff1681565b610689610681611c9d565b848484611cad565b505050565b60015481565b60035481565b73deaddeaddeaddeaddeaddeaddeaddeaddeaddead81565b73feedfeedfeedfeedfeedfeedfeedfeedfeedfeed81565b6106d4828261205d565b5050565b600080600080600080600073feedfeedfeedfeedfeedfeedfeedfeedfeedfeed73ffffffffffffffffffffffffffffffffffffffff16635f9e8f826040518163ffffffff167c0100000000000000000000000000000000000000000000000000000000028152600401602060405180830381600087803b15801561075b57600080fd5b505af115801561076f573d6000803e3d6000fd5b505050506040513d602081101561078557600080fd5b81019080805190602001909291905050501515156107a257600080fd5b60008973ffffffffffffffffffffffffffffffffffffffff16141515156107c857600080fd5b6107d0612dbb565b15156107db57600080fd5b73deaddeaddeaddeaddeaddeaddeaddeaddeaddead73ffffffffffffffffffffffffffffffffffffffff166323b872dd8a306002546040518463ffffffff167c0100000000000000000000000000000000000000000000000000000000028152600401808473ffffffffffffffffffffffffffffffffffffffff1673ffffffffffffffffffffffffffffffffffffffff1681526020018373ffffffffffffffffffffffffffffffffffffffff1673ffffffffffffffffffffffffffffffffffffffff1681526020018281526020019350505050602060405180830381600087803b1580156108c857600080fd5b505af11580156108dc573d6000803e3d6000fd5b505050506040513d60208110156108f257600080fd5b8101908080519060200190929190505050151561090e57600080fd5b73feedfeedfeedfeedfeedfeedfeedfeedfeedfeed73ffffffffffffffffffffffffffffffffffffffff16634d655aff6040518163ffffffff167c0100000000000000000000000000000000000000000000000000000000028152600401602060405180830381600087803b15801561098657600080fd5b505af115801561099a573d6000803e3d6000fd5b505050506040513d60208110156109b057600080fd5b810190808051906020019092919050505073ffffffffffffffffffffffffffffffffffffffff1663bdc963d873feedfeedfeedfeedfeedfeedfeedfeedfeedfeed73ffffffffffffffffffffffffffffffffffffffff1663799fcaae6040518163ffffffff167c0100000000000000000000000000000000000000000000000000000000028152600401602060405180830381600087803b158015610a5457600080fd5b505af1158015610a68573d6000803e3d6000fd5b505050506040513d6020811015610a7e57600080fd5b81019080805190602001909291905050506040518263ffffffff167c0100000000000000000000000000000000000000000000000000000000028152600401808260001916600019168152602001915050602060405180830381600087803b158015610ae957600080fd5b505af1158015610afd573d6000803e3d6000fd5b505050506040513d6020811015610b1357600080fd5b8101908080519060200190929190505050965073feedfeedfeedfeedfeedfeedfeedfeedfeedfeed73ffffffffffffffffffffffffffffffffffffffff16634d655aff6040518163ffffffff167c0100000000000000000000000000000000000000000000000000000000028152600401602060405180830381600087803b158015610b9e57600080fd5b505af1158015610bb2573d6000803e3d6000fd5b505050506040513d6020811015610bc857600080fd5b810190808051906020019092919050505073ffffffffffffffffffffffffffffffffffffffff1663bdc963d873feedfeedfeedfeedfeedfeedfeedfeedfeedfeed73ffffffffffffffffffffffffffffffffffffffff16636009e5626040518163ffffffff167c0100000000000000000000000000000000000000000000000000000000028152600401602060405180830381600087803b158015610c6c57600080fd5b505af1158015610c80573d6000803e3d6000fd5b505050506040513d6020811015610c9657600080fd5b81019080805190602001909291905050506040518263ffffffff167c0100000000000000000000000000000000000000000000000000000000028152600401808260001916600019168152602001915050602060405180830381600087803b158015610d0157600080fd5b505af1158015610d15573d6000803e3d6000fd5b505050506040513d6020811015610d2b57600080fd5b81019080805190602001909291905050509550610d518742612ddb90919063ffffffff16565b9450610d668686612ddb90919063ffffffff16565b93506064610f9760025473feedfeedfeedfeedfeedfeedfeedfeedfeedfeed73ffffffffffffffffffffffffffffffffffffffff16634d655aff6040518163ffffffff167c0100000000000000000000000000000000000000000000000000000000028152600401602060405180830381600087803b158015610de857600080fd5b505af1158015610dfc573d6000803e3d6000fd5b505050506040513d6020811015610e1257600080fd5b810190808051906020019092919050505073ffffffffffffffffffffffffffffffffffffffff1663bdc963d873feedfeedfeedfeedfeedfeedfeedfeedfeedfeed73ffffffffffffffffffffffffffffffffffffffff1663018714f56040518163ffffffff167c0100000000000000000000000000000000000000000000000000000000028152600401602060405180830381600087803b158015610eb657600080fd5b505af1158015610eca573d6000803e3d6000fd5b505050506040513d6020811015610ee057600080fd5b81019080805190602001909291905050506040518263ffffffff167c0100000000000000000000000000000000000000000000000000000000028152600401808260001916600019168152602001915050602060405180830381600087803b158015610f4b57600080fd5b505af1158015610f5f573d6000803e3d6000fd5b505050506040513d6020811015610f7557600080fd5b8101908080519060200190929190505050606403612ed090919063ffffffff16565b811515610fa057fe5b04925073feedfeedfeedfeedfeedfeedfeedfeedfeedfeed73ffffffffffffffffffffffffffffffffffffffff16634d655aff6040518163ffffffff167c0100000000000000000000000000000000000000000000000000000000028152600401602060405180830381600087803b15801561101b57600080fd5b505af115801561102f573d6000803e3d6000fd5b505050506040513d602081101561104557600080fd5b810190808051906020019092919050505073ffffffffffffffffffffffffffffffffffffffff1663bdc963d873feedfeedfeedfeedfeedfeedfeedfeedfeedfeed73ffffffffffffffffffffffffffffffffffffffff1663ee31e7b06040518163ffffffff167c0100000000000000000000000000000000000000000000000000000000028152600401602060405180830381600087803b1580156110e957600080fd5b505af11580156110fd573d6000803e3d6000fd5b505050506040513d602081101561111357600080fd5b81019080805190602001909291905050506040518263ffffffff167c0100000000000000000000000000000000000000000000000000000000028152600401808260001916600019168152602001915050602060405180830381600087803b15801561117e57600080fd5b505af1158015611192573d6000803e3d6000fd5b505050506040513d60208110156111a857600080fd5b810190808051906020019092919050505091506111c3613458565b604051809103906000f0801580156111df573d6000803e3d6000fd5b5090508073ffffffffffffffffffffffffffffffffffffffff166398bb9a6b308b8b6003548a8a8a8a6040518963ffffffff167c0100000000000000000000000000000000000000000000000000000000028152600401808973ffffffffffffffffffffffffffffffffffffffff1673ffffffffffffffffffffffffffffffffffffffff1681526020018873ffffffffffffffffffffffffffffffffffffffff1673ffffffffffffffffffffffffffffffffffffffff16815260200180602001878152602001868152602001858152602001848152602001838152602001828103825288818151815260200191508051906020019080838360005b838110156112f55780820151818401526020810190506112da565b50505050905090810190601f1680156113225780820380516001836020036101000a031916815260200191505b509950505050505050505050600060405180830381600087803b15801561134857600080fd5b505af115801561135c573d6000803e3d6000fd5b5050505060048190806001815401808255809150509060018203906000526020600020016000909192909190916101000a81548173ffffffffffffffffffffffffffffffffffffffff021916908373ffffffffffffffffffffffffffffffffffffffff1602179055505073feedfeedfeedfeedfeedfeedfeedfeedfeedfeed73ffffffffffffffffffffffffffffffffffffffff16637fe37893600154611401611c9d565b8c8989898f6040518863ffffffff167c0100000000000000000000000000000000000000000000000000000000028152600401808881526020018781526020018673ffffffffffffffffffffffffffffffffffffffff1673ffffffffffffffffffffffffffffffffffffffff16815260200185815260200184815260200183815260200180602001828103825283818151815260200191508051906020019080838360005b838110156114c15780820151818401526020810190506114a6565b50505050905090810190601f1680156114ee5780820380516001836020036101000a031916815260200191505b5098505050505050505050600060405180830381600087803b15801561151357600080fd5b505af1158015611527573d6000803e3d6000fd5b50505050505050505050505050565b60048181548110151561154557fe5b906000526020600020016000915054906101000a900473ffffffffffffffffffffffffffffffffffffffff1681565b3073ffffffffffffffffffffffffffffffffffffffff168160405180828051906020019080838360005b838110156115b957808201518184015260208101905061159e565b50505050905090810190601f1680156115e65780820380516001836020036101000a031916815260200191505b509150506000604051808303816000865af1915050151561160657600080fd5b50505050565b61161884848484611cad565b50505050565b600060035414151561162f57600080fd5b73feedfeedfeedfeedfeedfeedfeedfeedfeedfeed73ffffffffffffffffffffffffffffffffffffffff16634d655aff6040518163ffffffff167c0100000000000000000000000000000000000000000000000000000000028152600401602060405180830381600087803b1580156116a757600080fd5b505af11580156116bb573d6000803e3d6000fd5b505050506040513d60208110156116d157600080fd5b810190808051906020019092919050505073ffffffffffffffffffffffffffffffffffffffff1663bdc963d873feedfeedfeedfeedfeedfeedfeedfeedfeedfeed73ffffffffffffffffffffffffffffffffffffffff16630c380fdb6040518163ffffffff167c0100000000000000000000000000000000000000000000000000000000028152600401602060405180830381600087803b15801561177557600080fd5b505af1158015611789573d6000803e3d6000fd5b505050506040513d602081101561179f57600080fd5b81019080805190602001909291905050506040518263ffffffff167c0100000000000000000000000000000000000000000000000000000000028152600401808260001916600019168152602001915050602060405180830381600087803b15801561180a57600080fd5b505af115801561181e573d6000803e3d6000fd5b505050506040513d602081101561183457600080fd5b810190808051906020019092919050505060028190555073deaddeaddeaddeaddeaddeaddeaddeaddeaddead73ffffffffffffffffffffffffffffffffffffffff166323b872dd33306002546040518463ffffffff167c0100000000000000000000000000000000000000000000000000000000028152600401808473ffffffffffffffffffffffffffffffffffffffff1673ffffffffffffffffffffffffffffffffffffffff1681526020018373ffffffffffffffffffffffffffffffffffffffff1673ffffffffffffffffffffffffffffffffffffffff1681526020018281526020019350505050602060405180830381600087803b15801561193857600080fd5b505af115801561194c573d6000803e3d6000fd5b505050506040513d602081101561196257600080fd5b8101908080519060200190929190505050151561197e57600080fd5b611ba673feedfeedfeedfeedfeedfeedfeedfeedfeedfeed73ffffffffffffffffffffffffffffffffffffffff16634d655aff6040518163ffffffff167c0100000000000000000000000000000000000000000000000000000000028152600401602060405180830381600087803b1580156119f957600080fd5b505af1158015611a0d573d6000803e3d6000fd5b505050506040513d6020811015611a2357600080fd5b810190808051906020019092919050505073ffffffffffffffffffffffffffffffffffffffff1663bdc963d873feedfeedfeedfeedfeedfeedfeedfeedfeedfeed73ffffffffffffffffffffffffffffffffffffffff16636dc50caa6040518163ffffffff167c0100000000000000000000000000000000000000000000000000000000028152600401602060405180830381600087803b158015611ac757600080fd5b505af1158015611adb573d6000803e3d6000fd5b505050506040513d6020811015611af157600080fd5b81019080805190602001909291905050506040518263ffffffff167c0100000000000000000000000000000000000000000000000000000000028152600401808260001916600019168152602001915050602060405180830381600087803b158015611b5c57600080fd5b505af1158015611b70573d6000803e3d6000fd5b505050506040513d6020811015611b8657600080fd5b810190808051906020019092919050505042612ddb90919063ffffffff16565b600381905550816000806101000a81548173ffffffffffffffffffffffffffffffffffffffff021916908373ffffffffffffffffffffffffffffffffffffffff160217905550806001819055505050565b611c3b611c02611c9d565b8484848080601f016020809104026020016040519081016040528093929190818152602001838380828437820191505050505050612fe2565b505050565b60025481565b611c57611c51611c9d565b8261205d565b50565b611c97848484848080601f016020809104026020016040519081016040528093929190818152602001838380828437820191505050505050612fe2565b50505050565b6000600160048054905003905090565b600073feedfeedfeedfeedfeedfeedfeedfeedfeedfeed73ffffffffffffffffffffffffffffffffffffffff16635f9e8f826040518163ffffffff167c0100000000000000000000000000000000000000000000000000000000028152600401602060405180830381600087803b158015611d2757600080fd5b505af1158015611d3b573d6000803e3d6000fd5b505050506040513d6020811015611d5157600080fd5b8101908080519060200190929190505050151515611d6e57600080fd5b73deaddeaddeaddeaddeaddeaddeaddeaddeaddead73ffffffffffffffffffffffffffffffffffffffff166323b872dd8530866040518463ffffffff167c0100000000000000000000000000000000000000000000000000000000028152600401808473ffffffffffffffffffffffffffffffffffffffff1673ffffffffffffffffffffffffffffffffffffffff1681526020018373ffffffffffffffffffffffffffffffffffffffff1673ffffffffffffffffffffffffffffffffffffffff1681526020018281526020019350505050602060405180830381600087803b158015611e5957600080fd5b505af1158015611e6d573d6000803e3d6000fd5b505050506040513d6020811015611e8357600080fd5b81019080805190602001909291905050501515611e9f57600080fd5b611ea885613408565b90508073ffffffffffffffffffffffffffffffffffffffff166327f429d88585856040518463ffffffff167c0100000000000000000000000000000000000000000000000000000000028152600401808473ffffffffffffffffffffffffffffffffffffffff1673ffffffffffffffffffffffffffffffffffffffff16815260200183815260200182600019166000191681526020019350505050600060405180830381600087803b158015611f5d57600080fd5b505af1158015611f71573d6000803e3d6000fd5b5050505073feedfeedfeedfeedfeedfeedfeedfeedfeedfeed73ffffffffffffffffffffffffffffffffffffffff1663543b8dd46001548787876040518563ffffffff167c0100000000000000000000000000000000000000000000000000000000028152600401808581526020018481526020018373ffffffffffffffffffffffffffffffffffffffff1673ffffffffffffffffffffffffffffffffffffffff168152602001828152602001945050505050600060405180830381600087803b15801561203e57600080fd5b505af1158015612052573d6000803e3d6000fd5b505050505050505050565b600080600080600073feedfeedfeedfeedfeedfeedfeedfeedfeedfeed73ffffffffffffffffffffffffffffffffffffffff16635f9e8f826040518163ffffffff167c0100000000000000000000000000000000000000000000000000000000028152600401602060405180830381600087803b1580156120dd57600080fd5b505af11580156120f1573d6000803e3d6000fd5b505050506040513d602081101561210757600080fd5b810190808051906020019092919050505015151561212457600080fd5b61212d87613408565b94508473ffffffffffffffffffffffffffffffffffffffff1663b39c7600876040518263ffffffff167c0100000000000000000000000000000000000000000000000000000000028152600401808273ffffffffffffffffffffffffffffffffffffffff1673ffffffffffffffffffffffffffffffffffffffff168152602001915050602060405180830381600087803b1580156121ca57600080fd5b505af11580156121de573d6000803e3d6000fd5b505050506040513d60208110156121f457600080fd5b81019080805190602001909291905050509350600084111561252b5773deaddeaddeaddeaddeaddeaddeaddeaddeaddead73ffffffffffffffffffffffffffffffffffffffff1663a9059cbb8673ffffffffffffffffffffffffffffffffffffffff1663534db0e26040518163ffffffff167c0100000000000000000000000000000000000000000000000000000000028152600401602060405180830381600087803b1580156122a457600080fd5b505af11580156122b8573d6000803e3d6000fd5b505050506040513d60208110156122ce57600080fd5b8101908080519060200190929190505050866040518363ffffffff167c0100000000000000000000000000000000000000000000000000000000028152600401808373ffffffffffffffffffffffffffffffffffffffff1673ffffffffffffffffffffffffffffffffffffffff16815260200182815260200192505050602060405180830381600087803b15801561236557600080fd5b505af1158015612379573d6000803e3d6000fd5b505050506040513d602081101561238f57600080fd5b810190808051906020019092919050505015156123ab57600080fd5b73feedfeedfeedfeedfeedfeedfeedfeedfeedfeed73ffffffffffffffffffffffffffffffffffffffff1663ccce5a43600154898873ffffffffffffffffffffffffffffffffffffffff1663534db0e26040518163ffffffff167c0100000000000000000000000000000000000000000000000000000000028152600401602060405180830381600087803b15801561244357600080fd5b505af1158015612457573d6000803e3d6000fd5b505050506040513d602081101561246d57600080fd5b8101908080519060200190929190505050876040518563ffffffff167c0100000000000000000000000000000000000000000000000000000000028152600401808581526020018481526020018373ffffffffffffffffffffffffffffffffffffffff1673ffffffffffffffffffffffffffffffffffffffff168152602001828152602001945050505050600060405180830381600087803b15801561251257600080fd5b505af1158015612526573d6000803e3d6000fd5b505050505b8473ffffffffffffffffffffffffffffffffffffffff166387f4ab31876040518263ffffffff167c0100000000000000000000000000000000000000000000000000000000028152600401808273ffffffffffffffffffffffffffffffffffffffff1673ffffffffffffffffffffffffffffffffffffffff168152602001915050602060405180830381600087803b1580156125c657600080fd5b505af11580156125da573d6000803e3d6000fd5b505050506040513d60208110156125f057600080fd5b81019080805190602001909291905050509250600083111561282d5773deaddeaddeaddeaddeaddeaddeaddeaddeaddead73ffffffffffffffffffffffffffffffffffffffff1663a9059cbb6000809054906101000a900473ffffffffffffffffffffffffffffffffffffffff16856040518363ffffffff167c0100000000000000000000000000000000000000000000000000000000028152600401808373ffffffffffffffffffffffffffffffffffffffff1673ffffffffffffffffffffffffffffffffffffffff16815260200182815260200192505050602060405180830381600087803b1580156126e457600080fd5b505af11580156126f8573d6000803e3d6000fd5b505050506040513d602081101561270e57600080fd5b8101908080519060200190929190505050151561272a57600080fd5b73feedfeedfeedfeedfeedfeedfeedfeedfeedfeed73ffffffffffffffffffffffffffffffffffffffff166359247c26600154896000809054906101000a900473ffffffffffffffffffffffffffffffffffffffff16876040518563ffffffff167c0100000000000000000000000000000000000000000000000000000000028152600401808581526020018481526020018373ffffffffffffffffffffffffffffffffffffffff1673ffffffffffffffffffffffffffffffffffffffff168152602001828152602001945050505050600060405180830381600087803b15801561281457600080fd5b505af1158015612828573d6000803e3d6000fd5b505050505b8473ffffffffffffffffffffffffffffffffffffffff1663f6884261876040518263ffffffff167c0100000000000000000000000000000000000000000000000000000000028152600401808273ffffffffffffffffffffffffffffffffffffffff1673ffffffffffffffffffffffffffffffffffffffff168152602001915050602060405180830381600087803b1580156128c857600080fd5b505af11580156128dc573d6000803e3d6000fd5b505050506040513d60208110156128f257600080fd5b810190808051906020019092919050505091506000821115612af15773deaddeaddeaddeaddeaddeaddeaddeaddeaddead73ffffffffffffffffffffffffffffffffffffffff1663a9059cbb87846040518363ffffffff167c0100000000000000000000000000000000000000000000000000000000028152600401808373ffffffffffffffffffffffffffffffffffffffff1673ffffffffffffffffffffffffffffffffffffffff16815260200182815260200192505050602060405180830381600087803b1580156129c557600080fd5b505af11580156129d9573d6000803e3d6000fd5b505050506040513d60208110156129ef57600080fd5b81019080805190602001909291905050501515612a0b57600080fd5b73feedfeedfeedfeedfeedfeedfeedfeedfeedfeed73ffffffffffffffffffffffffffffffffffffffff16632ae0099f6001548989866040518563ffffffff167c0100000000000000000000000000000000000000000000000000000000028152600401808581526020018481526020018373ffffffffffffffffffffffffffffffffffffffff1673ffffffffffffffffffffffffffffffffffffffff168152602001828152602001945050505050600060405180830381600087803b158015612ad457600080fd5b505af1158015612ae8573d6000803e3d6000fd5b50505050612db2565b8473ffffffffffffffffffffffffffffffffffffffff16631d188416876040518263ffffffff167c0100000000000000000000000000000000000000000000000000000000028152600401808273ffffffffffffffffffffffffffffffffffffffff1673ffffffffffffffffffffffffffffffffffffffff168152602001915050602060405180830381600087803b158015612b8c57600080fd5b505af1158015612ba0573d6000803e3d6000fd5b505050506040513d6020811015612bb657600080fd5b810190808051906020019092919050505090506000811115612db15773deaddeaddeaddeaddeaddeaddeaddeaddeaddead73ffffffffffffffffffffffffffffffffffffffff1663a9059cbb87836040518363ffffffff167c0100000000000000000000000000000000000000000000000000000000028152600401808373ffffffffffffffffffffffffffffffffffffffff1673ffffffffffffffffffffffffffffffffffffffff16815260200182815260200192505050602060405180830381600087803b158015612c8957600080fd5b505af1158015612c9d573d6000803e3d6000fd5b505050506040513d6020811015612cb357600080fd5b81019080805190602001909291905050501515612ccf57600080fd5b73feedfeedfeedfeedfeedfeedfeedfeedfeedfeed73ffffffffffffffffffffffffffffffffffffffff1663e65ebf0a6001548989856040518563ffffffff167c0100000000000000000000000000000000000000000000000000000000028152600401808581526020018481526020018373ffffffffffffffffffffffffffffffffffffffff1673ffffffffffffffffffffffffffffffffffffffff168152602001828152602001945050505050600060405180830381600087803b158015612d9857600080fd5b505af1158015612dac573d6000803e3d6000fd5b505050505b5b50505050505050565b6000612dc561344b565b8015612dd657506000600480549050145b905090565b6000808284019050838110156040805190810160405280601181526020017f4d4154485f4144445f4f564552464c4f57000000000000000000000000000000815250901515612ec5576040517f08c379a00000000000000000000000000000000000000000000000000000000081526004018080602001828103825283818151815260200191508051906020019080838360005b83811015612e8a578082015181840152602081019050612e6f565b50505050905090810190601f168015612eb75780820380516001836020036101000a031916815260200191505b509250505060405180910390fd5b508091505092915050565b6000806000841415612ee55760009150612fdb565b8284029050828482811515612ef657fe5b04146040805190810160405280601181526020017f4d4154485f4d554c5f4f564552464c4f57000000000000000000000000000000815250901515612fd6576040517f08c379a00000000000000000000000000000000000000000000000000000000081526004018080602001828103825283818151815260200191508051906020019080838360005b83811015612f9b578082015181840152602081019050612f80565b50505050905090810190601f168015612fc85780820380516001836020036101000a031916815260200191505b509250505060405180910390fd5b508091505b5092915050565b600080600073feedfeedfeedfeedfeedfeedfeedfeedfeedfeed73ffffffffffffffffffffffffffffffffffffffff16635f9e8f826040518163ffffffff167c0100000000000000000000000000000000000000000000000000000000028152600401602060405180830381600087803b15801561305f57600080fd5b505af1158015613073573d6000803e3d6000fd5b505050506040513d602081101561308957600080fd5b81019080805190602001909291905050501515156130a657600080fd5b3392506130b286613408565b91508173ffffffffffffffffffffffffffffffffffffffff1663803f5b7f8487876040518463ffffffff167c0100000000000000000000000000000000000000000000000000000000028152600401808473ffffffffffffffffffffffffffffffffffffffff1673ffffffffffffffffffffffffffffffffffffffff16815260200183600281111561314057fe5b60ff16815260200180602001828103825283818151815260200191508051906020019080838360005b83811015613184578082015181840152602081019050613169565b50505050905090810190601f1680156131b15780820380516001836020036101000a031916815260200191505b50945050505050602060405180830381600087803b1580156131d257600080fd5b505af11580156131e6573d6000803e3d6000fd5b505050506040513d60208110156131fc57600080fd5b8101908080519060200190929190505050905073deaddeaddeaddeaddeaddeaddeaddeaddeaddead73ffffffffffffffffffffffffffffffffffffffff1663a9059cbb84836040518363ffffffff167c0100000000000000000000000000000000000000000000000000000000028152600401808373ffffffffffffffffffffffffffffffffffffffff1673ffffffffffffffffffffffffffffffffffffffff16815260200182815260200192505050602060405180830381600087803b1580156132c657600080fd5b505af11580156132da573d6000803e3d6000fd5b505050506040513d60208110156132f057600080fd5b8101908080519060200190929190505050151561330c57600080fd5b73feedfeedfeedfeedfeedfeedfeedfeedfeedfeed73ffffffffffffffffffffffffffffffffffffffff1663570e3923600154888689600281111561334d57fe5b866040518663ffffffff167c0100000000000000000000000000000000000000000000000000000000028152600401808681526020018581526020018473ffffffffffffffffffffffffffffffffffffffff1673ffffffffffffffffffffffffffffffffffffffff16815260200183815260200182815260200195505050505050600060405180830381600087803b1580156133e857600080fd5b505af11580156133fc573d6000803e3d6000fd5b50505050505050505050565b600060048281548110151561341957fe5b9060005260206000200160009054906101000a900473ffffffffffffffffffffffffffffffffffffffff169050919050565b6000600354421115905090565b6040516101a080613469833901905600608060405234801561001057600080fd5b50610180806100206000396000f300608060405260043610610041576000357c0100000000000000000000000000000000000000000000000000000000900463ffffffff168063d4b8399214610094575b61009273beefbeefbeefbeefbeefbeefbeefbeefbeefbeef6000368080601f0160208091040260200160405190810160405280939291908181526020018383808284378201915050505050506100eb565b005b3480156100a057600080fd5b506100a9610129565b604051808273ffffffffffffffffffffffffffffffffffffffff1673ffffffffffffffffffffffffffffffffffffffff16815260200191505060405180910390f35b6100f482610141565b15156100ff57600080fd5b600080825160208401856127105a03f43d604051816000823e8260008114610125578282f35b8282fd5b73beefbeefbeefbeefbeefbeefbeefbeefbeefbeef81565b600080823b9050600081119150509190505600a165627a7a72305820144734fcc804b3f034561533e7ca0d5369ac068ed4a8b28637ca6be1140288870029a165627a7a72305820cf571030594ae58f7540e353832b9685c03767fc862a9d044e576f008b2472d30029",
  "source": "pragma solidity ^0.4.24;\n\nimport \"./Challenge.sol\";\nimport \"./Registry.sol\";\nimport \"@aragon/os/contracts/lib/math/SafeMath.sol\";\nimport \"@aragon/apps-shared-minime/contracts/MiniMeToken.sol\";\nimport \"./utils/AddressUtils.sol\";\nimport \"./proxy/Forwarder1.sol\";\n\n/**\n * @title Contract created with each submission to a TCR\n *\n * @dev It contains all state and logic related to TCR challenging and voting\n * Full copy of this contract is NOT deployed with each submission in order to save gas. Only forwarder contracts\n * pointing into single intance of it.\n * This contract is meant to be extended by domain specific registry entry contracts (District, ParamChange)\n */\n\ncontract RegistryEntry is ApproveAndCallFallBack {\n\n  using SafeMath for uint;\n\n  Registry public constant registry = Registry(0xfEEDFEEDfeEDFEedFEEdFEEDFeEdfEEdFeEdFEEd);\n  MiniMeToken public constant registryToken = MiniMeToken(0xdeaDDeADDEaDdeaDdEAddEADDEAdDeadDEADDEaD);\n\n  enum Status {ChallengePeriod, CommitPeriod, RevealPeriod, Blacklisted, Whitelisted}\n\n  address public creator;\n  uint public version;\n  uint public deposit;\n  uint public challengePeriodEnd;\n\n  address[] public challenges;\n\n  /**\n   * @dev Modifier that disables function if registry is in emergency state\n   */\n  modifier notEmergency() {\n    require(!registry.isEmergency());\n    _;\n  }\n\n  function isChallengePeriodActive()\n  internal\n  constant\n  returns (bool) {\n    return now <= challengePeriodEnd;\n  }\n\n  /**\n   * @dev Constructor for this contract.\n   * Native constructor is not used, because users create only forwarders into single instance of this contract,\n   * therefore constructor must be called explicitly.\n   * Must NOT be callable multiple times\n   * Transfers TCR entry token deposit from sender into this contract\n\n   * @param _creator Creator of a district\n   * @param _version Version of District contract\n   */\n  function construct(\n    address _creator,\n    uint _version\n  )\n  public\n  {\n    require(challengePeriodEnd == 0);\n    deposit = registry.db().getUIntValue(registry.depositKey());\n    require(registryToken.transferFrom(msg.sender, this, deposit));\n    challengePeriodEnd = now.add(registry.db().getUIntValue(registry.challengePeriodDurationKey()));\n    creator = _creator;\n    version = _version;\n  }\n\n  /**\n   * @dev Creates a challenge for this TCR entry\n   * Must be within challenge period\n   * Entry can be challenged only once\n   * Transfers token deposit from challenger into this contract\n   * Forks registry token (DankToken) in order to create single purpose voting token to vote about this challenge\n\n   * @param _challenger Address of a challenger\n   * @param _challengeMetaHash IPFS hash of meta data related to this challenge\n   */\n  function createChallenge(\n    address _challenger,\n    bytes _challengeMetaHash\n  )\n  public\n  notEmergency\n  {\n    require(_challenger != 0x0);\n    require(isChallengeable());\n    require(registryToken.transferFrom(_challenger, address(this), deposit));\n\n    uint commitDuration = registry.db().getUIntValue(registry.commitPeriodDurationKey());\n    uint revealDuration = registry.db().getUIntValue(registry.revealPeriodDurationKey());\n    uint commitPeriodEnd = now.add(commitDuration);\n    uint revealPeriodEnd = commitPeriodEnd.add(revealDuration);\n    uint rewardPool = ((100 - registry.db()\n    .getUIntValue(\n      registry.challengeDispensationKey()\n    )\n    ).mul(deposit)) / 100;\n    uint voteQuorum = registry.db().getUIntValue(registry.voteQuorumKey());\n\n    Challenge challenge = Challenge(new Forwarder1());\n\n    challenge.construct(\n      this,\n      _challenger,\n      _challengeMetaHash,\n      challengePeriodEnd,\n      commitPeriodEnd,\n      revealPeriodEnd,\n      rewardPool,\n      voteQuorum\n    );\n\n    challenges.push(address(challenge));\n\n    registry.fireChallengeCreatedEvent(\n      version,\n      currentChallengeIndex(),\n      _challenger,\n      commitPeriodEnd,\n      revealPeriodEnd,\n      rewardPool,\n      _challengeMetaHash\n    );\n  }\n\n  function isChallengeable() internal constant returns (bool) {\n    return isChallengePeriodActive() && challenges.length == 0;\n  }\n\n  function currentChallengeIndex() internal constant returns (uint) {\n    return challenges.length - 1;\n  }\n\n  function getChallenge(uint _challengeIndex) internal view returns (Challenge) {\n    return Challenge(challenges[_challengeIndex]);\n  }\n\n  function currentChallenge() internal view returns (Challenge) {\n    return getChallenge(currentChallengeIndex());\n  }\n\n\n  /**\n   * @dev Commits encrypted vote to challenged entry\n   * Locks voter's tokens in this contract. Returns when vote is revealed\n   * Must be within commit period\n   * Voting takes full balance of voter's voting token\n\n   * @param _voter Address of a voter\n   * @param _amount Amount of tokens to vote with\n   * @param _secretHash Encrypted vote option with salt. sha3(voteOption, salt)\n   */\n  function _commitVoteForChallenge(\n    uint _challengeIndex,\n    address _voter,\n    uint _amount,\n    bytes32 _secretHash\n  )\n  internal\n  notEmergency\n  {\n    require(registryToken.transferFrom(_voter, this, _amount));\n    Challenge challenge = getChallenge(_challengeIndex);\n    challenge.commitVote(_voter, _amount, _secretHash);\n    registry.fireVoteCommittedEvent(\n      version,\n      _challengeIndex,\n      _voter,\n      _amount\n    );\n  }\n\n  function commitVoteForChallenge(uint _challengeIndex, address _voter, uint _amount, bytes32 _secretHash) external {\n    _commitVoteForChallenge(_challengeIndex, _voter, _amount, _secretHash);\n  }\n\n  function commitVote(address _voter, uint _amount, bytes32 _secretHash) external {\n    _commitVoteForChallenge(currentChallengeIndex(), _voter, _amount, _secretHash);\n  }\n\n  /**\n   * @dev Reveals previously committed vote\n   * Returns registryToken back to the voter\n   * Must be within reveal period\n\n   * @param _voteOption Vote option voter previously voted with\n   * @param _salt Salt with which user previously encrypted his vote option\n   */\n  function _revealVoteForChallenge(\n    uint _challengeIndex,\n    Challenge.VoteOption _voteOption,\n    string _salt\n  )\n  internal\n  notEmergency\n  {\n    address _voter = msg.sender;\n\n    Challenge challenge = getChallenge(_challengeIndex);\n    uint amount = challenge.revealVote(_voter, _voteOption, _salt);\n\n    require(registryToken.transfer(_voter, amount));\n\n    registry.fireVoteRevealedEvent(\n      version,\n      _challengeIndex,\n      _voter,\n      uint(_voteOption),\n      amount\n    );\n  }\n\n  function revealVoteForChallenge(\n    uint _challengeIndex,\n    Challenge.VoteOption _voteOption,\n    string _salt\n  )\n  external\n  {\n    _revealVoteForChallenge(_challengeIndex, _voteOption, _salt);\n  }\n\n  function revealVote(Challenge.VoteOption _voteOption, string _salt) external {\n    _revealVoteForChallenge(currentChallengeIndex(), _voteOption, _salt);\n  }\n\n  function _claimRewardForChallenge(uint _challengeIndex, address _user)\n    internal\n    notEmergency\n  {\n    Challenge challenge = getChallenge(_challengeIndex);\n\n    uint challengerReward = challenge.safeClaimChallengerReward(_user);\n    if (challengerReward > 0) {\n      require(registryToken.transfer(challenge.challenger(), challengerReward));\n      registry.fireChallengerRewardClaimedEvent(version, _challengeIndex, challenge.challenger(), creatorReward);\n    }\n\n    uint creatorReward = challenge.safeClaimCreatorReward(_user);\n    if (creatorReward > 0) {\n      require(registryToken.transfer(creator, creatorReward));\n      registry.fireCreatorRewardClaimedEvent(version, _challengeIndex, creator, creatorReward);\n    }\n\n    uint voteReward = challenge.safeClaimVoteReward(_user);\n    if (voteReward > 0) {\n      require(registryToken.transfer(_user, voteReward));\n      registry.fireVoteRewardClaimedEvent(version, _challengeIndex, _user, voteReward);\n    } else {\n      uint reclaimableVotes = challenge.safeReclaimVotes(_user);\n      if (reclaimableVotes > 0) {\n        require(registryToken.transfer(_user, reclaimableVotes));\n        registry.fireVotesReclaimedEvent(version, _challengeIndex, _user, reclaimableVotes);\n      }\n    }\n  }\n\n  function claimRewardForChallenge(uint _challengeIndex, address  _user) external {\n    _claimRewardForChallenge(_challengeIndex, _user);\n  }\n\n  function claimReward(address _user) external {\n    _claimRewardForChallenge(currentChallengeIndex(), _user);\n  }\n\n  /**\n   * @dev Function called by MiniMeToken when somebody calls approveAndCall on it.\n   * This way token can be transferred to a recipient in a single transaction together with execution\n   * of additional logic\n   * @param _from Sender of transaction approval\n   * @param _amount Amount of approved tokens to transfer\n   * @param _token Token that received the approval\n   * @param _data Bytecode of a function and passed parameters, that should be called after token approval\n   */\n  function receiveApproval(\n    address _from,\n    uint256 _amount,\n    address _token,\n    bytes _data\n  )\n  public\n  {\n    _from;\n    _amount;\n    _token;\n    require(address(this).call(_data));\n  }\n}\n",
  "sourcePath": "/Users/matus/www/district0x/district-registry/contracts/RegistryEntry.sol",
  "compiler": {
    "name": "solc",
    "version": "0.4.24+commit.e67f0147.Emscripten.clang"
  },
  "schemaVersion": "3.0.10",
  "updatedAt": "2019-06-29T10:51:09.350Z",
  "devdoc": {
    "methods": {
      "construct(address,uint256)": {
        "details": "Constructor for this contract. Native constructor is not used, because users create only forwarders into single instance of this contract, therefore constructor must be called explicitly. Must NOT be callable multiple times Transfers TCR entry token deposit from sender into this contract",
        "params": {
          "_creator": "Creator of a district",
          "_version": "Version of District contract"
        }
      },
      "createChallenge(address,bytes)": {
        "details": "Creates a challenge for this TCR entry Must be within challenge period Entry can be challenged only once Transfers token deposit from challenger into this contract Forks registry token (DankToken) in order to create single purpose voting token to vote about this challenge",
        "params": {
          "_challengeMetaHash": "IPFS hash of meta data related to this challenge",
          "_challenger": "Address of a challenger"
        }
      },
      "receiveApproval(address,uint256,address,bytes)": {
        "details": "Function called by MiniMeToken when somebody calls approveAndCall on it. This way token can be transferred to a recipient in a single transaction together with execution of additional logic",
        "params": {
          "_amount": "Amount of approved tokens to transfer",
          "_data": "Bytecode of a function and passed parameters, that should be called after token approval",
          "_from": "Sender of transaction approval",
          "_token": "Token that received the approval"
        }
      }
    },
    "title": "Contract created with each submission to a TCR"
  },
  "userdoc": {
    "methods": {}
  }
}