{
  "contractName": "Registry",
  "abi": [
    {
      "constant": true,
      "inputs": [],
      "name": "challengeDispensationKey",
      "outputs": [
        {
          "name": "",
          "type": "bytes32"
        }
      ],
      "payable": false,
      "stateMutability": "view",
      "type": "function"
    },
    {
      "constant": true,
      "inputs": [],
      "name": "depositKey",
      "outputs": [
        {
          "name": "",
          "type": "bytes32"
        }
      ],
      "payable": false,
      "stateMutability": "view",
      "type": "function"
    },
    {
      "constant": false,
      "inputs": [
        {
          "name": "owner_",
          "type": "address"
        }
      ],
      "name": "setOwner",
      "outputs": [],
      "payable": false,
      "stateMutability": "nonpayable",
      "type": "function"
    },
    {
      "constant": true,
      "inputs": [],
      "name": "maxAuctionDurationKey",
      "outputs": [
        {
          "name": "",
          "type": "bytes32"
        }
      ],
      "payable": false,
      "stateMutability": "view",
      "type": "function"
    },
    {
      "constant": true,
      "inputs": [],
      "name": "db",
      "outputs": [
        {
          "name": "",
          "type": "address"
        }
      ],
      "payable": false,
      "stateMutability": "view",
      "type": "function"
    },
    {
      "constant": true,
      "inputs": [],
      "name": "revealPeriodDurationKey",
      "outputs": [
        {
          "name": "",
          "type": "bytes32"
        }
      ],
      "payable": false,
      "stateMutability": "view",
      "type": "function"
    },
    {
      "constant": true,
      "inputs": [],
      "name": "challengePeriodDurationKey",
      "outputs": [
        {
          "name": "",
          "type": "bytes32"
        }
      ],
      "payable": false,
      "stateMutability": "view",
      "type": "function"
    },
    {
      "constant": true,
      "inputs": [],
      "name": "commitPeriodDurationKey",
      "outputs": [
        {
          "name": "",
          "type": "bytes32"
        }
      ],
      "payable": false,
      "stateMutability": "view",
      "type": "function"
    },
    {
      "constant": false,
      "inputs": [
        {
          "name": "authority_",
          "type": "address"
        }
      ],
      "name": "setAuthority",
      "outputs": [],
      "payable": false,
      "stateMutability": "nonpayable",
      "type": "function"
    },
    {
      "constant": true,
      "inputs": [],
      "name": "owner",
      "outputs": [
        {
          "name": "",
          "type": "address"
        }
      ],
      "payable": false,
      "stateMutability": "view",
      "type": "function"
    },
    {
      "constant": true,
      "inputs": [],
      "name": "authority",
      "outputs": [
        {
          "name": "",
          "type": "address"
        }
      ],
      "payable": false,
      "stateMutability": "view",
      "type": "function"
    },
    {
      "constant": true,
      "inputs": [],
      "name": "maxTotalSupplyKey",
      "outputs": [
        {
          "name": "",
          "type": "bytes32"
        }
      ],
      "payable": false,
      "stateMutability": "view",
      "type": "function"
    },
    {
      "constant": true,
      "inputs": [],
      "name": "voteQuorumKey",
      "outputs": [
        {
          "name": "",
          "type": "bytes32"
        }
      ],
      "payable": false,
      "stateMutability": "view",
      "type": "function"
    },
    {
      "anonymous": false,
      "inputs": [
        {
          "indexed": false,
          "name": "registryEntry",
          "type": "address"
        },
        {
          "indexed": false,
          "name": "version",
          "type": "uint256"
        },
        {
          "indexed": false,
          "name": "index",
          "type": "uint256"
        },
        {
          "indexed": false,
          "name": "challenger",
          "type": "address"
        },
        {
          "indexed": false,
          "name": "commitPeriodEnd",
          "type": "uint256"
        },
        {
          "indexed": false,
          "name": "revealPeriodEnd",
          "type": "uint256"
        },
        {
          "indexed": false,
          "name": "rewardPool",
          "type": "uint256"
        },
        {
          "indexed": false,
          "name": "metaHash",
          "type": "bytes"
        },
        {
          "indexed": false,
          "name": "timestamp",
          "type": "uint256"
        }
      ],
      "name": "ChallengeCreatedEvent",
      "type": "event"
    },
    {
      "anonymous": false,
      "inputs": [
        {
          "indexed": false,
          "name": "registryEntry",
          "type": "address"
        },
        {
          "indexed": false,
          "name": "version",
          "type": "uint256"
        },
        {
          "indexed": false,
          "name": "index",
          "type": "uint256"
        },
        {
          "indexed": false,
          "name": "challenger",
          "type": "address"
        },
        {
          "indexed": false,
          "name": "amount",
          "type": "uint256"
        },
        {
          "indexed": false,
          "name": "timestamp",
          "type": "uint256"
        }
      ],
      "name": "ChallengerRewardClaimedEvent",
      "type": "event"
    },
    {
      "anonymous": false,
      "inputs": [
        {
          "indexed": false,
          "name": "registryEntry",
          "type": "address"
        },
        {
          "indexed": false,
          "name": "version",
          "type": "uint256"
        },
        {
          "indexed": false,
          "name": "index",
          "type": "uint256"
        },
        {
          "indexed": false,
          "name": "creator",
          "type": "address"
        },
        {
          "indexed": false,
          "name": "amount",
          "type": "uint256"
        },
        {
          "indexed": false,
          "name": "timestamp",
          "type": "uint256"
        }
      ],
      "name": "CreatorRewardClaimedEvent",
      "type": "event"
    },
    {
      "anonymous": false,
      "inputs": [
        {
          "indexed": false,
          "name": "registryEntry",
          "type": "address"
        },
        {
          "indexed": false,
          "name": "version",
          "type": "uint256"
        },
        {
          "indexed": false,
          "name": "creator",
          "type": "address"
        },
        {
          "indexed": false,
          "name": "metaHash",
          "type": "bytes"
        },
        {
          "indexed": false,
          "name": "deposit",
          "type": "uint256"
        },
        {
          "indexed": false,
          "name": "challengePeriodEnd",
          "type": "uint256"
        },
        {
          "indexed": false,
          "name": "dntWeight",
          "type": "uint32"
        },
        {
          "indexed": false,
          "name": "aragonDao",
          "type": "address"
        },
        {
          "indexed": false,
          "name": "aragonId",
          "type": "string"
        },
        {
          "indexed": false,
          "name": "timestamp",
          "type": "uint256"
        }
      ],
      "name": "DistrictConstructedEvent",
      "type": "event"
    },
    {
      "anonymous": false,
      "inputs": [
        {
          "indexed": false,
          "name": "registryEntry",
          "type": "address"
        },
        {
          "indexed": false,
          "name": "version",
          "type": "uint256"
        },
        {
          "indexed": false,
          "name": "dntTotalStaked",
          "type": "uint256"
        },
        {
          "indexed": false,
          "name": "votingTokenTotalSupply",
          "type": "uint256"
        },
        {
          "indexed": false,
          "name": "staker",
          "type": "address"
        },
        {
          "indexed": false,
          "name": "stakerDntStaked",
          "type": "uint256"
        },
        {
          "indexed": false,
          "name": "stakerVotingTokenBalance",
          "type": "uint256"
        },
        {
          "indexed": false,
          "name": "stakedAmount",
          "type": "uint256"
        },
        {
          "indexed": false,
          "name": "isUnstake",
          "type": "bool"
        },
        {
          "indexed": false,
          "name": "timestamp",
          "type": "uint256"
        }
      ],
      "name": "DistrictStakeChangedEvent",
      "type": "event"
    },
    {
      "anonymous": false,
      "inputs": [
        {
          "indexed": false,
          "name": "registryEntry",
          "type": "address"
        },
        {
          "indexed": false,
          "name": "version",
          "type": "uint256"
        },
        {
          "indexed": false,
          "name": "metaHash",
          "type": "bytes"
        },
        {
          "indexed": false,
          "name": "timestamp",
          "type": "uint256"
        }
      ],
      "name": "DistrictMetaHashChangedEvent",
      "type": "event"
    },
    {
      "anonymous": false,
      "inputs": [
        {
          "indexed": false,
          "name": "registryEntry",
          "type": "address"
        },
        {
          "indexed": false,
          "name": "version",
          "type": "uint256"
        },
        {
          "indexed": false,
          "name": "index",
          "type": "uint256"
        },
        {
          "indexed": false,
          "name": "voter",
          "type": "address"
        },
        {
          "indexed": false,
          "name": "amount",
          "type": "uint256"
        },
        {
          "indexed": false,
          "name": "timestamp",
          "type": "uint256"
        }
      ],
      "name": "VotesReclaimedEvent",
      "type": "event"
    },
    {
      "anonymous": false,
      "inputs": [
        {
          "indexed": false,
          "name": "registryEntry",
          "type": "address"
        },
        {
          "indexed": false,
          "name": "version",
          "type": "uint256"
        },
        {
          "indexed": false,
          "name": "index",
          "type": "uint256"
        },
        {
          "indexed": false,
          "name": "voter",
          "type": "address"
        },
        {
          "indexed": false,
          "name": "amount",
          "type": "uint256"
        },
        {
          "indexed": false,
          "name": "commitPeriodEnd",
          "type": "uint256"
        },
        {
          "indexed": false,
          "name": "timestamp",
          "type": "uint256"
        }
      ],
      "name": "VoteCommittedEvent",
      "type": "event"
    },
    {
      "anonymous": false,
      "inputs": [
        {
          "indexed": false,
          "name": "registryEntry",
          "type": "address"
        },
        {
          "indexed": false,
          "name": "version",
          "type": "uint256"
        },
        {
          "indexed": false,
          "name": "index",
          "type": "uint256"
        },
        {
          "indexed": false,
          "name": "voter",
          "type": "address"
        },
        {
          "indexed": false,
          "name": "option",
          "type": "uint256"
        },
        {
          "indexed": false,
          "name": "amount",
          "type": "uint256"
        },
        {
          "indexed": false,
          "name": "revealPeriodEnd",
          "type": "uint256"
        },
        {
          "indexed": false,
          "name": "timestamp",
          "type": "uint256"
        }
      ],
      "name": "VoteRevealedEvent",
      "type": "event"
    },
    {
      "anonymous": false,
      "inputs": [
        {
          "indexed": false,
          "name": "registryEntry",
          "type": "address"
        },
        {
          "indexed": false,
          "name": "version",
          "type": "uint256"
        },
        {
          "indexed": false,
          "name": "index",
          "type": "uint256"
        },
        {
          "indexed": false,
          "name": "voter",
          "type": "address"
        },
        {
          "indexed": false,
          "name": "amount",
          "type": "uint256"
        },
        {
          "indexed": false,
          "name": "timestamp",
          "type": "uint256"
        }
      ],
      "name": "VoteRewardClaimedEvent",
      "type": "event"
    },
    {
      "anonymous": false,
      "inputs": [
        {
          "indexed": true,
          "name": "authority",
          "type": "address"
        }
      ],
      "name": "LogSetAuthority",
      "type": "event"
    },
    {
      "anonymous": false,
      "inputs": [
        {
          "indexed": true,
          "name": "owner",
          "type": "address"
        }
      ],
      "name": "LogSetOwner",
      "type": "event"
    },
    {
      "constant": false,
      "inputs": [
        {
          "name": "_db",
          "type": "address"
        }
      ],
      "name": "construct",
      "outputs": [],
      "payable": false,
      "stateMutability": "nonpayable",
      "type": "function"
    },
    {
      "constant": false,
      "inputs": [
        {
          "name": "_factory",
          "type": "address"
        },
        {
          "name": "_isFactory",
          "type": "bool"
        }
      ],
      "name": "setFactory",
      "outputs": [],
      "payable": false,
      "stateMutability": "nonpayable",
      "type": "function"
    },
    {
      "constant": false,
      "inputs": [
        {
          "name": "_registryEntry",
          "type": "address"
        }
      ],
      "name": "addRegistryEntry",
      "outputs": [],
      "payable": false,
      "stateMutability": "nonpayable",
      "type": "function"
    },
    {
      "constant": false,
      "inputs": [
        {
          "name": "_isEmergency",
          "type": "bool"
        }
      ],
      "name": "setEmergency",
      "outputs": [],
      "payable": false,
      "stateMutability": "nonpayable",
      "type": "function"
    },
    {
      "constant": true,
      "inputs": [
        {
          "name": "factory",
          "type": "address"
        }
      ],
      "name": "isFactory",
      "outputs": [
        {
          "name": "",
          "type": "bool"
        }
      ],
      "payable": false,
      "stateMutability": "view",
      "type": "function"
    },
    {
      "constant": true,
      "inputs": [
        {
          "name": "registryEntry",
          "type": "address"
        }
      ],
      "name": "isRegistryEntry",
      "outputs": [
        {
          "name": "",
          "type": "bool"
        }
      ],
      "payable": false,
      "stateMutability": "view",
      "type": "function"
    },
    {
      "constant": true,
      "inputs": [],
      "name": "isEmergency",
      "outputs": [
        {
          "name": "",
          "type": "bool"
        }
      ],
      "payable": false,
      "stateMutability": "view",
      "type": "function"
    },
    {
      "constant": false,
      "inputs": [
        {
          "name": "version",
          "type": "uint256"
        },
        {
          "name": "creator",
          "type": "address"
        },
        {
          "name": "metaHash",
          "type": "bytes"
        },
        {
          "name": "deposit",
          "type": "uint256"
        },
        {
          "name": "challengePeriodEnd",
          "type": "uint256"
        },
        {
          "name": "dntWeight",
          "type": "uint32"
        },
        {
          "name": "aragonDao",
          "type": "address"
        },
        {
          "name": "aragonId",
          "type": "string"
        }
      ],
      "name": "fireDistrictConstructedEvent",
      "outputs": [],
      "payable": false,
      "stateMutability": "nonpayable",
      "type": "function"
    },
    {
      "constant": false,
      "inputs": [
        {
          "name": "version",
          "type": "uint256"
        },
        {
          "name": "dntTotalStaked",
          "type": "uint256"
        },
        {
          "name": "votingTokenTotalSupply",
          "type": "uint256"
        },
        {
          "name": "staker",
          "type": "address"
        },
        {
          "name": "stakerDntStaked",
          "type": "uint256"
        },
        {
          "name": "stakerVotingTokenBalance",
          "type": "uint256"
        },
        {
          "name": "stakedAmount",
          "type": "uint256"
        },
        {
          "name": "isUnstake",
          "type": "bool"
        }
      ],
      "name": "fireDistrictStakeChangedEvent",
      "outputs": [],
      "payable": false,
      "stateMutability": "nonpayable",
      "type": "function"
    },
    {
      "constant": false,
      "inputs": [
        {
          "name": "version",
          "type": "uint256"
        },
        {
          "name": "metahash",
          "type": "bytes"
        }
      ],
      "name": "fireDistrictMetaHashChangedEvent",
      "outputs": [],
      "payable": false,
      "stateMutability": "nonpayable",
      "type": "function"
    },
    {
      "constant": false,
      "inputs": [
        {
          "name": "version",
          "type": "uint256"
        },
        {
          "name": "index",
          "type": "uint256"
        },
        {
          "name": "challenger",
          "type": "address"
        },
        {
          "name": "commitPeriodEnd",
          "type": "uint256"
        },
        {
          "name": "revealPeriodEnd",
          "type": "uint256"
        },
        {
          "name": "rewardPool",
          "type": "uint256"
        },
        {
          "name": "metaHash",
          "type": "bytes"
        }
      ],
      "name": "fireChallengeCreatedEvent",
      "outputs": [],
      "payable": false,
      "stateMutability": "nonpayable",
      "type": "function"
    },
    {
      "constant": false,
      "inputs": [
        {
          "name": "version",
          "type": "uint256"
        },
        {
          "name": "index",
          "type": "uint256"
        },
        {
          "name": "voter",
          "type": "address"
        },
        {
          "name": "amount",
          "type": "uint256"
        },
        {
          "name": "commitPeriodEnd",
          "type": "uint256"
        }
      ],
      "name": "fireVoteCommittedEvent",
      "outputs": [],
      "payable": false,
      "stateMutability": "nonpayable",
      "type": "function"
    },
    {
      "constant": false,
      "inputs": [
        {
          "name": "version",
          "type": "uint256"
        },
        {
          "name": "index",
          "type": "uint256"
        },
        {
          "name": "voter",
          "type": "address"
        },
        {
          "name": "option",
          "type": "uint256"
        },
        {
          "name": "amount",
          "type": "uint256"
        },
        {
          "name": "revealPeriodEnd",
          "type": "uint256"
        }
      ],
      "name": "fireVoteRevealedEvent",
      "outputs": [],
      "payable": false,
      "stateMutability": "nonpayable",
      "type": "function"
    },
    {
      "constant": false,
      "inputs": [
        {
          "name": "version",
          "type": "uint256"
        },
        {
          "name": "index",
          "type": "uint256"
        },
        {
          "name": "voter",
          "type": "address"
        },
        {
          "name": "amount",
          "type": "uint256"
        }
      ],
      "name": "fireVotesReclaimedEvent",
      "outputs": [],
      "payable": false,
      "stateMutability": "nonpayable",
      "type": "function"
    },
    {
      "constant": false,
      "inputs": [
        {
          "name": "version",
          "type": "uint256"
        },
        {
          "name": "index",
          "type": "uint256"
        },
        {
          "name": "voter",
          "type": "address"
        },
        {
          "name": "amount",
          "type": "uint256"
        }
      ],
      "name": "fireVoteRewardClaimedEvent",
      "outputs": [],
      "payable": false,
      "stateMutability": "nonpayable",
      "type": "function"
    },
    {
      "constant": false,
      "inputs": [
        {
          "name": "version",
          "type": "uint256"
        },
        {
          "name": "index",
          "type": "uint256"
        },
        {
          "name": "challenger",
          "type": "address"
        },
        {
          "name": "amount",
          "type": "uint256"
        }
      ],
      "name": "fireChallengerRewardClaimedEvent",
      "outputs": [],
      "payable": false,
      "stateMutability": "nonpayable",
      "type": "function"
    },
    {
      "constant": false,
      "inputs": [
        {
          "name": "version",
          "type": "uint256"
        },
        {
          "name": "index",
          "type": "uint256"
        },
        {
          "name": "creator",
          "type": "address"
        },
        {
          "name": "amount",
          "type": "uint256"
        }
      ],
      "name": "fireCreatorRewardClaimedEvent",
      "outputs": [],
      "payable": false,
      "stateMutability": "nonpayable",
      "type": "function"
    }
  ],
  "bytecode": "0x608060405233600160006101000a81548173ffffffffffffffffffffffffffffffffffffffff021916908373ffffffffffffffffffffffffffffffffffffffff1602179055503373ffffffffffffffffffffffffffffffffffffffff167fce241d7ca1f669fee44b6fc00b8eba2df3bb514eed0f6f668f8f89096e81ed9460405160405180910390a2612db7806100976000396000f300608060405260043610610180576000357c0100000000000000000000000000000000000000000000000000000000900463ffffffff168063018714f5146101855780630501d556146101b857806306289a87146101e75780630c380fdb1461025c5780630f04ba671461028f578063129704f6146102ea57806313af4035146103755780631a79dc23146103b85780632ae0099f146103eb5780634d655aff1461044c57806357ffc7db146104a357806359247c261461050e5780635f9e8f821461056f5780636009e5621461059e5780636dc50caa146105d157806370aeb1671461060457806371013c101461065f57806372a5f32c146106ae578063799fcaae146106f15780637a9e5e4b146107245780637fe37893146107675780638da5cb5b146108225780639f8bfcba14610879578063a3b6c1b514610996578063bf7e214f14610a09578063ccce5a4314610a60578063e65ebf0a14610ac1578063e998ed7814610b22578063ee31e7b014610b55578063f812033f14610b88575b600080fd5b34801561019157600080fd5b5061019a610bcb565b60405180826000191660001916815260200191505060405180910390f35b3480156101c457600080fd5b506101e5600480360381019080803515159060200190929190505050610c04565b005b3480156101f357600080fd5b5061025a6004803603810190808035906020019092919080359060200190929190803573ffffffffffffffffffffffffffffffffffffffff169060200190929190803590602001909291908035906020019092919080359060200190929190505050610d15565b005b34801561026857600080fd5b50610271610e87565b60405180826000191660001916815260200191505060405180910390f35b34801561029b57600080fd5b506102d0600480360381019080803573ffffffffffffffffffffffffffffffffffffffff169060200190929190505050610ec0565b604051808215151515815260200191505060405180910390f35b3480156102f657600080fd5b50610373600480360381019080803590602001909291908035906020019092919080359060200190929190803573ffffffffffffffffffffffffffffffffffffffff169060200190929190803590602001909291908035906020019092919080359060200190929190803515159060200190929190505050611081565b005b34801561038157600080fd5b506103b6600480360381019080803573ffffffffffffffffffffffffffffffffffffffff169060200190929190505050611209565b005b3480156103c457600080fd5b506103cd6112eb565b60405180826000191660001916815260200191505060405180910390f35b3480156103f757600080fd5b5061044a6004803603810190808035906020019092919080359060200190929190803573ffffffffffffffffffffffffffffffffffffffff16906020019092919080359060200190929190505050611324565b005b34801561045857600080fd5b50610461611484565b604051808273ffffffffffffffffffffffffffffffffffffffff1673ffffffffffffffffffffffffffffffffffffffff16815260200191505060405180910390f35b3480156104af57600080fd5b5061050c6004803603810190808035906020019092919080359060200190929190803573ffffffffffffffffffffffffffffffffffffffff16906020019092919080359060200190929190803590602001909291905050506114aa565b005b34801561051a57600080fd5b5061056d6004803603810190808035906020019092919080359060200190929190803573ffffffffffffffffffffffffffffffffffffffff16906020019092919080359060200190929190505050611613565b005b34801561057b57600080fd5b50610584611773565b604051808215151515815260200191505060405180910390f35b3480156105aa57600080fd5b506105b3611866565b60405180826000191660001916815260200191505060405180910390f35b3480156105dd57600080fd5b506105e661189f565b60405180826000191660001916815260200191505060405180910390f35b34801561061057600080fd5b50610645600480360381019080803573ffffffffffffffffffffffffffffffffffffffff1690602001909291905050506118d8565b604051808215151515815260200191505060405180910390f35b34801561066b57600080fd5b506106ac600480360381019080803573ffffffffffffffffffffffffffffffffffffffff169060200190929190803515159060200190929190505050611a99565b005b3480156106ba57600080fd5b506106ef600480360381019080803573ffffffffffffffffffffffffffffffffffffffff169060200190929190505050611c77565b005b3480156106fd57600080fd5b50610706611f62565b60405180826000191660001916815260200191505060405180910390f35b34801561073057600080fd5b50610765600480360381019080803573ffffffffffffffffffffffffffffffffffffffff169060200190929190505050611f9b565b005b34801561077357600080fd5b506108206004803603810190808035906020019092919080359060200190929190803573ffffffffffffffffffffffffffffffffffffffff169060200190929190803590602001909291908035906020019092919080359060200190929190803590602001908201803590602001908080601f016020809104026020016040519081016040528093929190818152602001838380828437820191505050505050919291929050505061207b565b005b34801561082e57600080fd5b5061083761225b565b604051808273ffffffffffffffffffffffffffffffffffffffff1673ffffffffffffffffffffffffffffffffffffffff16815260200191505060405180910390f35b34801561088557600080fd5b5061099460048036038101908080359060200190929190803573ffffffffffffffffffffffffffffffffffffffff169060200190929190803590602001908201803590602001908080601f01602080910402602001604051908101604052809392919081815260200183838082843782019150505050505091929192908035906020019092919080359060200190929190803563ffffffff169060200190929190803573ffffffffffffffffffffffffffffffffffffffff169060200190929190803590602001908201803590602001908080601f0160208091040260200160405190810160405280939291908181526020018383808284378201915050505050509192919290505050612281565b005b3480156109a257600080fd5b50610a0760048036038101908080359060200190929190803590602001908201803590602001908080601f0160208091040260200160405190810160405280939291908181526020018383808284378201915050505050509192919290505050612507565b005b348015610a1557600080fd5b50610a1e61268e565b604051808273ffffffffffffffffffffffffffffffffffffffff1673ffffffffffffffffffffffffffffffffffffffff16815260200191505060405180910390f35b348015610a6c57600080fd5b50610abf6004803603810190808035906020019092919080359060200190929190803573ffffffffffffffffffffffffffffffffffffffff169060200190929190803590602001909291905050506126b3565b005b348015610acd57600080fd5b50610b206004803603810190808035906020019092919080359060200190929190803573ffffffffffffffffffffffffffffffffffffffff16906020019092919080359060200190929190505050612813565b005b348015610b2e57600080fd5b50610b37612973565b60405180826000191660001916815260200191505060405180910390f35b348015610b6157600080fd5b50610b6a6129ac565b60405180826000191660001916815260200191505060405180910390f35b348015610b9457600080fd5b50610bc9600480360381019080803573ffffffffffffffffffffffffffffffffffffffff1690602001909291905050506129e5565b005b60405180807f6368616c6c656e676544697370656e736174696f6e00000000000000000000008152506015019050604051809103902081565b610c32336000357fffffffff0000000000000000000000000000000000000000000000000000000016612b14565b1515610c3d57600080fd5b600360009054906101000a900473ffffffffffffffffffffffffffffffffffffffff1673ffffffffffffffffffffffffffffffffffffffff16633eba9ed2826040518263ffffffff167c010000000000000000000000000000000000000000000000000000000002815260040180807f6973456d657267656e637900000000000000000000000000000000000000000081525060200182151515158152602001915050600060405180830381600087803b158015610cfa57600080fd5b505af1158015610d0e573d6000803e3d6000fd5b5050505050565b610d1e336118d8565b1515610db8576040517f08c379a00000000000000000000000000000000000000000000000000000000081526004018080602001828103825260268152602001807f52656769737472793a2053656e6465722073686f756c6420726567697374727981526020017f20656e747279000000000000000000000000000000000000000000000000000081525060400191505060405180910390fd5b7fe95160b634d1d3e79c39928251c13b8917c6d68605c7539c8547f81a48b0f1233387878787878742604051808973ffffffffffffffffffffffffffffffffffffffff1673ffffffffffffffffffffffffffffffffffffffff1681526020018881526020018781526020018673ffffffffffffffffffffffffffffffffffffffff1673ffffffffffffffffffffffffffffffffffffffff1681526020018581526020018481526020018381526020018281526020019850505050505050505060405180910390a1505050505050565b60405180807f6465706f736974000000000000000000000000000000000000000000000000008152506007019050604051809103902081565b6000600360009054906101000a900473ffffffffffffffffffffffffffffffffffffffff1673ffffffffffffffffffffffffffffffffffffffff166317e7dd228360405160200180807f6973466163746f727900000000000000000000000000000000000000000000008152506009018273ffffffffffffffffffffffffffffffffffffffff1673ffffffffffffffffffffffffffffffffffffffff166c010000000000000000000000000281526014019150506040516020818303038152906040526040518082805190602001908083835b602083101515610fb85780518252602082019150602081019050602083039250610f93565b6001836020036101000a03801982511681845116808217855250505050505090500191505060405180910390206040518263ffffffff167c0100000000000000000000000000000000000000000000000000000000028152600401808260001916600019168152602001915050602060405180830381600087803b15801561103f57600080fd5b505af1158015611053573d6000803e3d6000fd5b505050506040513d602081101561106957600080fd5b81019080805190602001909291905050509050919050565b61108a336118d8565b1515611124576040517f08c379a00000000000000000000000000000000000000000000000000000000081526004018080602001828103825260268152602001807f52656769737472793a2053656e6465722073686f756c6420726567697374727981526020017f20656e747279000000000000000000000000000000000000000000000000000081525060400191505060405180910390fd5b7fc01f9492c0f5794625a7a8c256f129acd73a88185b7893ea43c6b839ad4b7af633898989898989898942604051808b73ffffffffffffffffffffffffffffffffffffffff1673ffffffffffffffffffffffffffffffffffffffff1681526020018a81526020018981526020018881526020018773ffffffffffffffffffffffffffffffffffffffff1673ffffffffffffffffffffffffffffffffffffffff168152602001868152602001858152602001848152602001831515151581526020018281526020019a505050505050505050505060405180910390a15050505050505050565b611237336000357fffffffff0000000000000000000000000000000000000000000000000000000016612b14565b151561124257600080fd5b80600160006101000a81548173ffffffffffffffffffffffffffffffffffffffff021916908373ffffffffffffffffffffffffffffffffffffffff160217905550600160009054906101000a900473ffffffffffffffffffffffffffffffffffffffff1673ffffffffffffffffffffffffffffffffffffffff167fce241d7ca1f669fee44b6fc00b8eba2df3bb514eed0f6f668f8f89096e81ed9460405160405180910390a250565b60405180807f6d617841756374696f6e4475726174696f6e00000000000000000000000000008152506012019050604051809103902081565b61132d336118d8565b15156113c7576040517f08c379a00000000000000000000000000000000000000000000000000000000081526004018080602001828103825260268152602001807f52656769737472793a2053656e6465722073686f756c6420726567697374727981526020017f20656e747279000000000000000000000000000000000000000000000000000081525060400191505060405180910390fd5b7f6d401853b513916a083b5579cdf37bd716df5819a54209915b7f83864841a17f338585858542604051808773ffffffffffffffffffffffffffffffffffffffff1673ffffffffffffffffffffffffffffffffffffffff1681526020018681526020018581526020018473ffffffffffffffffffffffffffffffffffffffff1673ffffffffffffffffffffffffffffffffffffffff168152602001838152602001828152602001965050505050505060405180910390a150505050565b600360009054906101000a900473ffffffffffffffffffffffffffffffffffffffff1681565b6114b3336118d8565b151561154d576040517f08c379a00000000000000000000000000000000000000000000000000000000081526004018080602001828103825260268152602001807f52656769737472793a2053656e6465722073686f756c6420726567697374727981526020017f20656e747279000000000000000000000000000000000000000000000000000081525060400191505060405180910390fd5b7ff2a84c930ae6933f45f0c6cfbeee14c0b924576e52295b56415f21f864cbd21d33868686868642604051808873ffffffffffffffffffffffffffffffffffffffff1673ffffffffffffffffffffffffffffffffffffffff1681526020018781526020018681526020018573ffffffffffffffffffffffffffffffffffffffff1673ffffffffffffffffffffffffffffffffffffffff16815260200184815260200183815260200182815260200197505050505050505060405180910390a15050505050565b61161c336118d8565b15156116b6576040517f08c379a00000000000000000000000000000000000000000000000000000000081526004018080602001828103825260268152602001807f52656769737472793a2053656e6465722073686f756c6420726567697374727981526020017f20656e747279000000000000000000000000000000000000000000000000000081525060400191505060405180910390fd5b7f025effe439585090d26b1642d43d9b9e1e5477de8b3dcd676b1bc91f8358ee5b338585858542604051808773ffffffffffffffffffffffffffffffffffffffff1673ffffffffffffffffffffffffffffffffffffffff1681526020018681526020018581526020018473ffffffffffffffffffffffffffffffffffffffff1673ffffffffffffffffffffffffffffffffffffffff168152602001838152602001828152602001965050505050505060405180910390a150505050565b6000600360009054906101000a900473ffffffffffffffffffffffffffffffffffffffff1673ffffffffffffffffffffffffffffffffffffffff166317e7dd226040518163ffffffff167c010000000000000000000000000000000000000000000000000000000002815260040180807f6973456d657267656e63790000000000000000000000000000000000000000008152506020019050602060405180830381600087803b15801561182657600080fd5b505af115801561183a573d6000803e3d6000fd5b505050506040513d602081101561185057600080fd5b8101908080519060200190929190505050905090565b60405180807f72657665616c506572696f644475726174696f6e0000000000000000000000008152506014019050604051809103902081565b60405180807f6368616c6c656e6765506572696f644475726174696f6e0000000000000000008152506017019050604051809103902081565b6000600360009054906101000a900473ffffffffffffffffffffffffffffffffffffffff1673ffffffffffffffffffffffffffffffffffffffff166317e7dd228360405160200180807f69735265676973747279456e7472790000000000000000000000000000000000815250600f018273ffffffffffffffffffffffffffffffffffffffff1673ffffffffffffffffffffffffffffffffffffffff166c010000000000000000000000000281526014019150506040516020818303038152906040526040518082805190602001908083835b6020831015156119d057805182526020820191506020810190506020830392506119ab565b6001836020036101000a03801982511681845116808217855250505050505090500191505060405180910390206040518263ffffffff167c0100000000000000000000000000000000000000000000000000000000028152600401808260001916600019168152602001915050602060405180830381600087803b158015611a5757600080fd5b505af1158015611a6b573d6000803e3d6000fd5b505050506040513d6020811015611a8157600080fd5b81019080805190602001909291905050509050919050565b611ac7336000357fffffffff0000000000000000000000000000000000000000000000000000000016612b14565b1515611ad257600080fd5b600360009054906101000a900473ffffffffffffffffffffffffffffffffffffffff1673ffffffffffffffffffffffffffffffffffffffff16633eba9ed28360405160200180807f6973466163746f727900000000000000000000000000000000000000000000008152506009018273ffffffffffffffffffffffffffffffffffffffff1673ffffffffffffffffffffffffffffffffffffffff166c010000000000000000000000000281526014019150506040516020818303038152906040526040518082805190602001908083835b602083101515611bc85780518252602082019150602081019050602083039250611ba3565b6001836020036101000a0380198251168184511680821785525050505050509050019150506040518091039020836040518363ffffffff167c01000000000000000000000000000000000000000000000000000000000281526004018083600019166000191681526020018215151515815260200192505050600060405180830381600087803b158015611c5b57600080fd5b505af1158015611c6f573d6000803e3d6000fd5b505050505050565b611c8033610ec0565b1515611d1a576040517f08c379a00000000000000000000000000000000000000000000000000000000081526004018080602001828103825260228152602001807f52656769737472793a2053656e6465722073686f756c6420626520666163746f81526020017f727900000000000000000000000000000000000000000000000000000000000081525060400191505060405180910390fd5b611d22611773565b151515611dbd576040517f08c379a00000000000000000000000000000000000000000000000000000000081526004018080602001828103825260228152602001807f52656769737472793a20456d657267656e6379206d6f646520697320656e616281526020017f6c6500000000000000000000000000000000000000000000000000000000000081525060400191505060405180910390fd5b600360009054906101000a900473ffffffffffffffffffffffffffffffffffffffff1673ffffffffffffffffffffffffffffffffffffffff16633eba9ed28260405160200180807f69735265676973747279456e7472790000000000000000000000000000000000815250600f018273ffffffffffffffffffffffffffffffffffffffff1673ffffffffffffffffffffffffffffffffffffffff166c010000000000000000000000000281526014019150506040516020818303038152906040526040518082805190602001908083835b602083101515611eb35780518252602082019150602081019050602083039250611e8e565b6001836020036101000a038019825116818451168082178552505050505050905001915050604051809103902060016040518363ffffffff167c01000000000000000000000000000000000000000000000000000000000281526004018083600019166000191681526020018215151515815260200192505050600060405180830381600087803b158015611f4757600080fd5b505af1158015611f5b573d6000803e3d6000fd5b5050505050565b60405180807f636f6d6d6974506572696f644475726174696f6e0000000000000000000000008152506014019050604051809103902081565b611fc9336000357fffffffff0000000000000000000000000000000000000000000000000000000016612b14565b1515611fd457600080fd5b806000806101000a81548173ffffffffffffffffffffffffffffffffffffffff021916908373ffffffffffffffffffffffffffffffffffffffff1602179055506000809054906101000a900473ffffffffffffffffffffffffffffffffffffffff1673ffffffffffffffffffffffffffffffffffffffff167f1abebea81bfa2637f28358c371278fb15ede7ea8dd28d2e03b112ff6d936ada460405160405180910390a250565b612084336118d8565b151561211e576040517f08c379a00000000000000000000000000000000000000000000000000000000081526004018080602001828103825260268152602001807f52656769737472793a2053656e6465722073686f756c6420726567697374727981526020017f20656e747279000000000000000000000000000000000000000000000000000081525060400191505060405180910390fd5b7f4572b45b2053987b7aad03fa60bd1fd240c77d4bae6ada0bf09e0bdd4f6c6a36338888888888888842604051808a73ffffffffffffffffffffffffffffffffffffffff1673ffffffffffffffffffffffffffffffffffffffff1681526020018981526020018881526020018773ffffffffffffffffffffffffffffffffffffffff1673ffffffffffffffffffffffffffffffffffffffff16815260200186815260200185815260200184815260200180602001838152602001828103825284818151815260200191508051906020019080838360005b838110156122105780820151818401526020810190506121f5565b50505050905090810190601f16801561223d5780820380516001836020036101000a031916815260200191505b509a505050505050505050505060405180910390a150505050505050565b600160009054906101000a900473ffffffffffffffffffffffffffffffffffffffff1681565b61228a336118d8565b1515612324576040517f08c379a00000000000000000000000000000000000000000000000000000000081526004018080602001828103825260268152602001807f52656769737472793a2053656e6465722073686f756c6420726567697374727981526020017f20656e747279000000000000000000000000000000000000000000000000000081525060400191505060405180910390fd5b7f60aed22a8db0dfebd217059ff24c4b910b09b543bdef68df1b8735a4eba74d9f33898989898989898942604051808b73ffffffffffffffffffffffffffffffffffffffff1673ffffffffffffffffffffffffffffffffffffffff1681526020018a81526020018973ffffffffffffffffffffffffffffffffffffffff1673ffffffffffffffffffffffffffffffffffffffff168152602001806020018881526020018781526020018663ffffffff1663ffffffff1681526020018573ffffffffffffffffffffffffffffffffffffffff1673ffffffffffffffffffffffffffffffffffffffff1681526020018060200184815260200183810383528a818151815260200191508051906020019080838360005b83811015612453578082015181840152602081019050612438565b50505050905090810190601f1680156124805780820380516001836020036101000a031916815260200191505b50838103825285818151815260200191508051906020019080838360005b838110156124b957808201518184015260208101905061249e565b50505050905090810190601f1680156124e65780820380516001836020036101000a031916815260200191505b509c5050505050505050505050505060405180910390a15050505050505050565b612510336118d8565b15156125aa576040517f08c379a00000000000000000000000000000000000000000000000000000000081526004018080602001828103825260268152602001807f52656769737472793a2053656e6465722073686f756c6420726567697374727981526020017f20656e747279000000000000000000000000000000000000000000000000000081525060400191505060405180910390fd5b7f8336cd85606dfd3fe1fcc14cab0ea3fa615484000989ac426fa74bd82218cb1033838342604051808573ffffffffffffffffffffffffffffffffffffffff1673ffffffffffffffffffffffffffffffffffffffff16815260200184815260200180602001838152602001828103825284818151815260200191508051906020019080838360005b8381101561264d578082015181840152602081019050612632565b50505050905090810190601f16801561267a5780820380516001836020036101000a031916815260200191505b509550505050505060405180910390a15050565b6000809054906101000a900473ffffffffffffffffffffffffffffffffffffffff1681565b6126bc336118d8565b1515612756576040517f08c379a00000000000000000000000000000000000000000000000000000000081526004018080602001828103825260268152602001807f52656769737472793a2053656e6465722073686f756c6420726567697374727981526020017f20656e747279000000000000000000000000000000000000000000000000000081525060400191505060405180910390fd5b7f53869cd507374f538d78e527c7e824a177dc9fa09279f3e6105d98b5a507aaca338585858542604051808773ffffffffffffffffffffffffffffffffffffffff1673ffffffffffffffffffffffffffffffffffffffff1681526020018681526020018581526020018473ffffffffffffffffffffffffffffffffffffffff1673ffffffffffffffffffffffffffffffffffffffff168152602001838152602001828152602001965050505050505060405180910390a150505050565b61281c336118d8565b15156128b6576040517f08c379a00000000000000000000000000000000000000000000000000000000081526004018080602001828103825260268152602001807f52656769737472793a2053656e6465722073686f756c6420726567697374727981526020017f20656e747279000000000000000000000000000000000000000000000000000081525060400191505060405180910390fd5b7f0af92a3d08fd3ea517a8317bac63fb801b89fb5c0ef124135176a311e4280fc6338585858542604051808773ffffffffffffffffffffffffffffffffffffffff1673ffffffffffffffffffffffffffffffffffffffff1681526020018681526020018581526020018473ffffffffffffffffffffffffffffffffffffffff1673ffffffffffffffffffffffffffffffffffffffff168152602001838152602001828152602001965050505050505060405180910390a150505050565b60405180807f6d6178546f74616c537570706c79000000000000000000000000000000000000815250600e019050604051809103902081565b60405180807f766f746551756f72756d00000000000000000000000000000000000000000000815250600a019050604051809103902081565b60008173ffffffffffffffffffffffffffffffffffffffff1614151515612a74576040517f08c379a000000000000000000000000000000000000000000000000000000000815260040180806020018281038252601e8152602001807f52656769737472793a20416464726573732063616e277420626520307830000081525060200191505060405180910390fd5b80600360006101000a81548173ffffffffffffffffffffffffffffffffffffffff021916908373ffffffffffffffffffffffffffffffffffffffff1602179055506001600360146101000a81548160ff02191690831515021790555033600160006101000a81548173ffffffffffffffffffffffffffffffffffffffff021916908373ffffffffffffffffffffffffffffffffffffffff16021790555050565b60003073ffffffffffffffffffffffffffffffffffffffff168373ffffffffffffffffffffffffffffffffffffffff161415612b535760019050612d85565b600160009054906101000a900473ffffffffffffffffffffffffffffffffffffffff1673ffffffffffffffffffffffffffffffffffffffff168373ffffffffffffffffffffffffffffffffffffffff161415612bb25760019050612d85565b600073ffffffffffffffffffffffffffffffffffffffff166000809054906101000a900473ffffffffffffffffffffffffffffffffffffffff1673ffffffffffffffffffffffffffffffffffffffff161415612c115760009050612d85565b6000809054906101000a900473ffffffffffffffffffffffffffffffffffffffff1673ffffffffffffffffffffffffffffffffffffffff1663b70096138430856040518463ffffffff167c0100000000000000000000000000000000000000000000000000000000028152600401808473ffffffffffffffffffffffffffffffffffffffff1673ffffffffffffffffffffffffffffffffffffffff1681526020018373ffffffffffffffffffffffffffffffffffffffff1673ffffffffffffffffffffffffffffffffffffffff168152602001827bffffffffffffffffffffffffffffffffffffffffffffffffffffffff19167bffffffffffffffffffffffffffffffffffffffffffffffffffffffff191681526020019350505050602060405180830381600087803b158015612d4757600080fd5b505af1158015612d5b573d6000803e3d6000fd5b505050506040513d6020811015612d7157600080fd5b810190808051906020019092919050505090505b929150505600a165627a7a723058208ee48b67aa3ab93308d7ed2ccdc9064c629f8960d5e257f20dcc6305a9d763c00029",
  "source": "pragma solidity ^0.4.24;\n\nimport \"./auth/DSAuth.sol\";\nimport \"./db/EternalDb.sol\";\nimport \"./proxy/MutableForwarder.sol\"; // Keep it included despite not being used (for compiler)\n\n/**\n * @title Central contract for TCR registry\n *\n * @dev Manages state about deployed registry entries and factories\n * Serves as a central point for firing all registry entry events\n * This contract is not accessed directly, but through MutableForwarder. See MutableForwarder.sol for more comments.\n */\n\ncontract Registry is DSAuth {\n\n  address private target; // Keep it here, because this contract is deployed as MutableForwarder\n\n  event ChallengeCreatedEvent(address registryEntry, uint version, uint index, address challenger, uint commitPeriodEnd, uint revealPeriodEnd, uint rewardPool, bytes metaHash, uint timestamp);\n  event ChallengerRewardClaimedEvent(address registryEntry, uint version, uint index, address challenger, uint amount, uint timestamp);\n  event CreatorRewardClaimedEvent(address registryEntry, uint version, uint index, address creator, uint amount, uint timestamp);\n  event DistrictConstructedEvent(address registryEntry, uint version, address creator, bytes metaHash, uint deposit, uint challengePeriodEnd, uint32 dntWeight, address aragonDao, string aragonId, uint timestamp);\n  event DistrictStakeChangedEvent(address registryEntry, uint version, uint dntTotalStaked, uint votingTokenTotalSupply, address staker, uint stakerDntStaked, uint stakerVotingTokenBalance, uint stakedAmount, bool isUnstake, uint timestamp);\n  event DistrictMetaHashChangedEvent(address registryEntry, uint version, bytes metaHash, uint timestamp);\n  event VotesReclaimedEvent(address registryEntry, uint version, uint index, address voter, uint amount, uint timestamp);\n  event VoteCommittedEvent(address registryEntry, uint version, uint index, address voter, uint amount, uint commitPeriodEnd, uint timestamp);\n  event VoteRevealedEvent(address registryEntry, uint version, uint index, address voter, uint option, uint amount, uint revealPeriodEnd, uint timestamp);\n  event VoteRewardClaimedEvent(address registryEntry, uint version, uint index, address voter, uint amount, uint timestamp);\n\n  bytes32 public constant challengeDispensationKey = keccak256(\"challengeDispensation\");\n  bytes32 public constant challengePeriodDurationKey = keccak256(\"challengePeriodDuration\");\n  bytes32 public constant commitPeriodDurationKey = keccak256(\"commitPeriodDuration\");\n  bytes32 public constant depositKey = keccak256(\"deposit\");\n  bytes32 public constant maxAuctionDurationKey = keccak256(\"maxAuctionDuration\");\n  bytes32 public constant maxTotalSupplyKey = keccak256(\"maxTotalSupply\");\n  bytes32 public constant revealPeriodDurationKey = keccak256(\"revealPeriodDuration\");\n  bytes32 public constant voteQuorumKey = keccak256(\"voteQuorum\");\n\n  EternalDb public db;\n  bool private wasConstructed;\n\n  /**\n   * @dev Constructor for this contract.\n   * Native constructor is not used, because we use a forwarder pointing to single instance of this contract,\n   * therefore constructor must be called explicitly.\n   * @param _db Address of EternalDb related to this registry\n   */\n  function construct(EternalDb _db) \n    external\n  {\n    require(address(_db) != 0x0, \"Registry: Address can't be 0x0\");\n    db = _db;\n    wasConstructed = true;\n    owner = msg.sender;\n  }\n\n  modifier onlyFactory() {\n    require(isFactory(msg.sender), \"Registry: Sender should be factory\");\n    _;\n  }\n\n  modifier onlyRegistryEntry() {\n    require(isRegistryEntry(msg.sender), \"Registry: Sender should registry entry\");\n    _;\n  }\n\n  modifier notEmergency() {\n    require(!isEmergency(),\"Registry: Emergency mode is enable\");\n    _;\n  }\n\n  /**\n   * @dev Sets whether address is factory allowed to add registry entries into registry\n   * Must be callable only by authenticated user\n   * @param _factory Address of a factory contract\n   * @param _isFactory Whether the address is allowed factory\n   */\n  function setFactory(address _factory, bool _isFactory)\n    external\n    auth\n  {\n    db.setBooleanValue(keccak256(abi.encodePacked(\"isFactory\", _factory)), _isFactory);\n  }\n\n  /**\n   * @dev Adds address as valid registry entry into the Registry\n   * Must be callable only by allowed factory contract\n   * @param _registryEntry Address of new registry entry\n   */\n  function addRegistryEntry(address _registryEntry)\n    external\n    onlyFactory\n    notEmergency\n  {\n    db.setBooleanValue(keccak256(abi.encodePacked(\"isRegistryEntry\", _registryEntry)), true);\n  }\n\n  /**\n   * @dev Sets emergency state to pause all trading operations\n   * Must be callable only by authenticated user\n   * @param _isEmergency True if emergency is happening\n   */\n  function setEmergency(bool _isEmergency)\n    external\n    auth\n  {\n    db.setBooleanValue(\"isEmergency\", _isEmergency);\n  }\n\n  /**\n   * @dev Returns whether address is valid registry entry factory\n\n   * @return True if address is factory\n   */\n  function isFactory(address factory)\n    public constant returns (bool)\n  {\n    return db.getBooleanValue(keccak256(abi.encodePacked(\"isFactory\", factory)));\n  }\n\n  /**\n   * @dev Returns whether address is valid registry entry\n   * @return True if address is registry entry\n   */\n  function isRegistryEntry(address registryEntry)\n    public constant returns (bool)\n  {\n    return db.getBooleanValue(keccak256(abi.encodePacked(\"isRegistryEntry\", registryEntry)));\n  }\n\n  /**\n   * @dev Returns whether emergency stop is happening\n\n   * @return True if emergency is happening\n   */\n  function isEmergency()\n    public constant returns (bool)\n  {\n    return db.getBooleanValue(\"isEmergency\");\n  }\n\n\n  function fireDistrictConstructedEvent(\n    uint version,\n    address creator,\n    bytes metaHash,\n    uint deposit,\n    uint challengePeriodEnd,\n    uint32 dntWeight,\n    address aragonDao,\n    string aragonId\n  )\n    public\n    onlyRegistryEntry\n  {\n    emit DistrictConstructedEvent(msg.sender, version, creator, metaHash, deposit, challengePeriodEnd, dntWeight, aragonDao, aragonId, now);\n  }\n  function fireDistrictStakeChangedEvent(uint version, uint dntTotalStaked, uint votingTokenTotalSupply, address staker, uint stakerDntStaked, uint stakerVotingTokenBalance, uint stakedAmount, bool isUnstake)\n    public\n    onlyRegistryEntry\n  {\n    emit DistrictStakeChangedEvent(msg.sender, version, dntTotalStaked, votingTokenTotalSupply, staker, stakerDntStaked, stakerVotingTokenBalance, stakedAmount, isUnstake, now);\n  }\n\n  function fireDistrictMetaHashChangedEvent(uint version, bytes metahash)\n    public\n    onlyRegistryEntry\n  {\n    emit DistrictMetaHashChangedEvent(msg.sender, version, metahash, now);\n  }\n\n  function fireChallengeCreatedEvent(\n    uint version,\n    uint index,\n    address challenger,\n    uint commitPeriodEnd,\n    uint revealPeriodEnd,\n    uint rewardPool,\n    bytes metaHash\n  )\n    public\n    onlyRegistryEntry\n  {\n    emit ChallengeCreatedEvent(msg.sender, version, index, challenger, commitPeriodEnd, revealPeriodEnd, rewardPool, metaHash, now);\n  }\n\n  function fireVoteCommittedEvent(uint version, uint index, address voter, uint amount, uint commitPeriodEnd)\n    public\n    onlyRegistryEntry\n  {\n    emit VoteCommittedEvent(msg.sender, version, index, voter, amount, commitPeriodEnd, now);\n  }\n\n  function fireVoteRevealedEvent(uint version, uint index, address voter, uint option, uint amount, uint revealPeriodEnd)\n    public\n    onlyRegistryEntry\n  {\n    emit VoteRevealedEvent(msg.sender, version, index, voter, option, amount, revealPeriodEnd, now);\n  }\n\n  function fireVotesReclaimedEvent(uint version, uint index, address voter, uint amount)\n    public\n    onlyRegistryEntry\n  {\n    emit VotesReclaimedEvent(msg.sender, version, index, voter, amount, now);\n  }\n\n  function fireVoteRewardClaimedEvent(uint version, uint index, address voter, uint amount)\n    public\n    onlyRegistryEntry\n  {\n    emit VoteRewardClaimedEvent(msg.sender, version, index, voter, amount, now);\n  }\n\n  function fireChallengerRewardClaimedEvent(uint version, uint index, address challenger, uint amount)\n    public\n    onlyRegistryEntry\n  {\n    emit ChallengerRewardClaimedEvent(msg.sender, version, index, challenger, amount, now);\n  }\n\n  function fireCreatorRewardClaimedEvent(uint version, uint index, address creator, uint amount)\n    public\n    onlyRegistryEntry\n  {\n    emit CreatorRewardClaimedEvent(msg.sender, version, index, creator, amount, now);\n  }\n\n}\n",
  "sourcePath": "/Users/matus/www/district0x/district-registry/contracts/Registry.sol",
  "compiler": {
    "name": "solc",
    "version": "0.4.24+commit.e67f0147.Emscripten.clang"
  },
  "schemaVersion": "3.0.11",
  "updatedAt": "2019-07-23T07:44:56.046Z",
  "devdoc": {
    "methods": {
      "addRegistryEntry(address)": {
        "details": "Adds address as valid registry entry into the Registry Must be callable only by allowed factory contract",
        "params": {
          "_registryEntry": "Address of new registry entry"
        }
      },
      "construct(address)": {
        "details": "Constructor for this contract. Native constructor is not used, because we use a forwarder pointing to single instance of this contract, therefore constructor must be called explicitly.",
        "params": {
          "_db": "Address of EternalDb related to this registry"
        }
      },
      "isEmergency()": {
        "details": "Returns whether emergency stop is happening",
        "return": "True if emergency is happening"
      },
      "isFactory(address)": {
        "details": "Returns whether address is valid registry entry factory",
        "return": "True if address is factory"
      },
      "isRegistryEntry(address)": {
        "details": "Returns whether address is valid registry entry",
        "return": "True if address is registry entry"
      },
      "setEmergency(bool)": {
        "details": "Sets emergency state to pause all trading operations Must be callable only by authenticated user",
        "params": {
          "_isEmergency": "True if emergency is happening"
        }
      },
      "setFactory(address,bool)": {
        "details": "Sets whether address is factory allowed to add registry entries into registry Must be callable only by authenticated user",
        "params": {
          "_factory": "Address of a factory contract",
          "_isFactory": "Whether the address is allowed factory"
        }
      }
    },
    "title": "Central contract for TCR registry"
  },
  "userdoc": {
    "methods": {}
  }
}