{
  "contractName": "StakeBank_copy",
  "abi": [
    {
      "constant": true,
      "inputs": [],
      "name": "name",
      "outputs": [
        {
          "name": "",
          "type": "string"
        }
      ],
      "payable": false,
      "stateMutability": "view",
      "type": "function"
    },
    {
      "constant": false,
      "inputs": [
        {
          "name": "_spender",
          "type": "address"
        },
        {
          "name": "_amount",
          "type": "uint256"
        }
      ],
      "name": "approve",
      "outputs": [
        {
          "name": "success",
          "type": "bool"
        }
      ],
      "payable": false,
      "stateMutability": "nonpayable",
      "type": "function"
    },
    {
      "constant": true,
      "inputs": [],
      "name": "creationBlock",
      "outputs": [
        {
          "name": "",
          "type": "uint256"
        }
      ],
      "payable": false,
      "stateMutability": "view",
      "type": "function"
    },
    {
      "constant": true,
      "inputs": [],
      "name": "totalSupply",
      "outputs": [
        {
          "name": "",
          "type": "uint256"
        }
      ],
      "payable": false,
      "stateMutability": "view",
      "type": "function"
    },
    {
      "constant": false,
      "inputs": [
        {
          "name": "_from",
          "type": "address"
        },
        {
          "name": "_to",
          "type": "address"
        },
        {
          "name": "_amount",
          "type": "uint256"
        }
      ],
      "name": "transferFrom",
      "outputs": [
        {
          "name": "success",
          "type": "bool"
        }
      ],
      "payable": false,
      "stateMutability": "nonpayable",
      "type": "function"
    },
    {
      "constant": true,
      "inputs": [],
      "name": "decimals",
      "outputs": [
        {
          "name": "",
          "type": "uint8"
        }
      ],
      "payable": false,
      "stateMutability": "view",
      "type": "function"
    },
    {
      "constant": false,
      "inputs": [
        {
          "name": "_newController",
          "type": "address"
        }
      ],
      "name": "changeController",
      "outputs": [],
      "payable": false,
      "stateMutability": "nonpayable",
      "type": "function"
    },
    {
      "constant": true,
      "inputs": [
        {
          "name": "_owner",
          "type": "address"
        },
        {
          "name": "_blockNumber",
          "type": "uint256"
        }
      ],
      "name": "balanceOfAt",
      "outputs": [
        {
          "name": "",
          "type": "uint256"
        }
      ],
      "payable": false,
      "stateMutability": "view",
      "type": "function"
    },
    {
      "constant": true,
      "inputs": [],
      "name": "version",
      "outputs": [
        {
          "name": "",
          "type": "string"
        }
      ],
      "payable": false,
      "stateMutability": "view",
      "type": "function"
    },
    {
      "constant": false,
      "inputs": [
        {
          "name": "_cloneTokenName",
          "type": "string"
        },
        {
          "name": "_cloneDecimalUnits",
          "type": "uint8"
        },
        {
          "name": "_cloneTokenSymbol",
          "type": "string"
        },
        {
          "name": "_snapshotBlock",
          "type": "uint256"
        },
        {
          "name": "_transfersEnabled",
          "type": "bool"
        }
      ],
      "name": "createCloneToken",
      "outputs": [
        {
          "name": "",
          "type": "address"
        }
      ],
      "payable": false,
      "stateMutability": "nonpayable",
      "type": "function"
    },
    {
      "constant": true,
      "inputs": [
        {
          "name": "_owner",
          "type": "address"
        }
      ],
      "name": "balanceOf",
      "outputs": [
        {
          "name": "balance",
          "type": "uint256"
        }
      ],
      "payable": false,
      "stateMutability": "view",
      "type": "function"
    },
    {
      "constant": false,
      "inputs": [],
      "name": "renounceOwnership",
      "outputs": [],
      "payable": false,
      "stateMutability": "nonpayable",
      "type": "function"
    },
    {
      "constant": true,
      "inputs": [],
      "name": "parentToken",
      "outputs": [
        {
          "name": "",
          "type": "address"
        }
      ],
      "payable": false,
      "stateMutability": "view",
      "type": "function"
    },
    {
      "constant": false,
      "inputs": [
        {
          "name": "_owner",
          "type": "address"
        },
        {
          "name": "_amount",
          "type": "uint256"
        }
      ],
      "name": "generateTokens",
      "outputs": [
        {
          "name": "",
          "type": "bool"
        }
      ],
      "payable": false,
      "stateMutability": "nonpayable",
      "type": "function"
    },
    {
      "constant": true,
      "inputs": [],
      "name": "owner",
      "outputs": [
        {
          "name": "",
          "type": "address"
        }
      ],
      "payable": false,
      "stateMutability": "view",
      "type": "function"
    },
    {
      "constant": true,
      "inputs": [],
      "name": "minimeTokenFactory",
      "outputs": [
        {
          "name": "",
          "type": "address"
        }
      ],
      "payable": false,
      "stateMutability": "view",
      "type": "function"
    },
    {
      "constant": true,
      "inputs": [],
      "name": "symbol",
      "outputs": [
        {
          "name": "",
          "type": "string"
        }
      ],
      "payable": false,
      "stateMutability": "view",
      "type": "function"
    },
    {
      "constant": true,
      "inputs": [
        {
          "name": "_blockNumber",
          "type": "uint256"
        }
      ],
      "name": "totalSupplyAt",
      "outputs": [
        {
          "name": "",
          "type": "uint256"
        }
      ],
      "payable": false,
      "stateMutability": "view",
      "type": "function"
    },
    {
      "constant": false,
      "inputs": [
        {
          "name": "_to",
          "type": "address"
        },
        {
          "name": "_amount",
          "type": "uint256"
        }
      ],
      "name": "transfer",
      "outputs": [
        {
          "name": "success",
          "type": "bool"
        }
      ],
      "payable": false,
      "stateMutability": "nonpayable",
      "type": "function"
    },
    {
      "constant": true,
      "inputs": [],
      "name": "transfersEnabled",
      "outputs": [
        {
          "name": "",
          "type": "bool"
        }
      ],
      "payable": false,
      "stateMutability": "view",
      "type": "function"
    },
    {
      "constant": true,
      "inputs": [],
      "name": "parentSnapShotBlock",
      "outputs": [
        {
          "name": "",
          "type": "uint256"
        }
      ],
      "payable": false,
      "stateMutability": "view",
      "type": "function"
    },
    {
      "constant": false,
      "inputs": [
        {
          "name": "_spender",
          "type": "address"
        },
        {
          "name": "_amount",
          "type": "uint256"
        },
        {
          "name": "_extraData",
          "type": "bytes"
        }
      ],
      "name": "approveAndCall",
      "outputs": [
        {
          "name": "success",
          "type": "bool"
        }
      ],
      "payable": false,
      "stateMutability": "nonpayable",
      "type": "function"
    },
    {
      "constant": false,
      "inputs": [
        {
          "name": "_owner",
          "type": "address"
        },
        {
          "name": "_amount",
          "type": "uint256"
        }
      ],
      "name": "destroyTokens",
      "outputs": [
        {
          "name": "",
          "type": "bool"
        }
      ],
      "payable": false,
      "stateMutability": "nonpayable",
      "type": "function"
    },
    {
      "constant": true,
      "inputs": [
        {
          "name": "_owner",
          "type": "address"
        },
        {
          "name": "_spender",
          "type": "address"
        }
      ],
      "name": "allowance",
      "outputs": [
        {
          "name": "remaining",
          "type": "uint256"
        }
      ],
      "payable": false,
      "stateMutability": "view",
      "type": "function"
    },
    {
      "constant": false,
      "inputs": [
        {
          "name": "_token",
          "type": "address"
        }
      ],
      "name": "claimTokens",
      "outputs": [],
      "payable": false,
      "stateMutability": "nonpayable",
      "type": "function"
    },
    {
      "constant": true,
      "inputs": [],
      "name": "MAX_WEIGHT",
      "outputs": [
        {
          "name": "",
          "type": "uint32"
        }
      ],
      "payable": false,
      "stateMutability": "view",
      "type": "function"
    },
    {
      "constant": true,
      "inputs": [],
      "name": "tokenFactory",
      "outputs": [
        {
          "name": "",
          "type": "address"
        }
      ],
      "payable": false,
      "stateMutability": "view",
      "type": "function"
    },
    {
      "constant": false,
      "inputs": [
        {
          "name": "_newOwner",
          "type": "address"
        }
      ],
      "name": "transferOwnership",
      "outputs": [],
      "payable": false,
      "stateMutability": "nonpayable",
      "type": "function"
    },
    {
      "constant": false,
      "inputs": [
        {
          "name": "_transfersEnabled",
          "type": "bool"
        }
      ],
      "name": "enableTransfers",
      "outputs": [],
      "payable": false,
      "stateMutability": "nonpayable",
      "type": "function"
    },
    {
      "constant": true,
      "inputs": [],
      "name": "controller",
      "outputs": [
        {
          "name": "",
          "type": "address"
        }
      ],
      "payable": false,
      "stateMutability": "view",
      "type": "function"
    },
    {
      "payable": true,
      "stateMutability": "payable",
      "type": "fallback"
    },
    {
      "anonymous": false,
      "inputs": [
        {
          "indexed": true,
          "name": "_token",
          "type": "address"
        },
        {
          "indexed": true,
          "name": "_controller",
          "type": "address"
        },
        {
          "indexed": false,
          "name": "_amount",
          "type": "uint256"
        }
      ],
      "name": "ClaimedTokens",
      "type": "event"
    },
    {
      "anonymous": false,
      "inputs": [
        {
          "indexed": true,
          "name": "_from",
          "type": "address"
        },
        {
          "indexed": true,
          "name": "_to",
          "type": "address"
        },
        {
          "indexed": false,
          "name": "_amount",
          "type": "uint256"
        }
      ],
      "name": "Transfer",
      "type": "event"
    },
    {
      "anonymous": false,
      "inputs": [
        {
          "indexed": true,
          "name": "_cloneToken",
          "type": "address"
        },
        {
          "indexed": false,
          "name": "_snapshotBlock",
          "type": "uint256"
        }
      ],
      "name": "NewCloneToken",
      "type": "event"
    },
    {
      "anonymous": false,
      "inputs": [
        {
          "indexed": true,
          "name": "_owner",
          "type": "address"
        },
        {
          "indexed": true,
          "name": "_spender",
          "type": "address"
        },
        {
          "indexed": false,
          "name": "_amount",
          "type": "uint256"
        }
      ],
      "name": "Approval",
      "type": "event"
    },
    {
      "anonymous": false,
      "inputs": [
        {
          "indexed": true,
          "name": "previousOwner",
          "type": "address"
        }
      ],
      "name": "OwnershipRenounced",
      "type": "event"
    },
    {
      "anonymous": false,
      "inputs": [
        {
          "indexed": true,
          "name": "previousOwner",
          "type": "address"
        },
        {
          "indexed": true,
          "name": "newOwner",
          "type": "address"
        }
      ],
      "name": "OwnershipTransferred",
      "type": "event"
    },
    {
      "constant": false,
      "inputs": [
        {
          "name": "_dntWeight",
          "type": "uint32"
        }
      ],
      "name": "construct",
      "outputs": [],
      "payable": false,
      "stateMutability": "nonpayable",
      "type": "function"
    },
    {
      "constant": false,
      "inputs": [
        {
          "name": "_tokenFactory",
          "type": "address"
        },
        {
          "name": "_parentToken",
          "type": "address"
        },
        {
          "name": "_parentSnapShotBlock",
          "type": "uint256"
        },
        {
          "name": "_tokenName",
          "type": "string"
        },
        {
          "name": "_decimalUnits",
          "type": "uint8"
        },
        {
          "name": "_tokenSymbol",
          "type": "string"
        },
        {
          "name": "_transfersEnabled",
          "type": "bool"
        }
      ],
      "name": "construct",
      "outputs": [],
      "payable": false,
      "stateMutability": "nonpayable",
      "type": "function"
    },
    {
      "constant": false,
      "inputs": [
        {
          "name": "user",
          "type": "address"
        },
        {
          "name": "amount",
          "type": "uint256"
        }
      ],
      "name": "stakeFor",
      "outputs": [
        {
          "name": "",
          "type": "uint256"
        }
      ],
      "payable": false,
      "stateMutability": "nonpayable",
      "type": "function"
    },
    {
      "constant": false,
      "inputs": [
        {
          "name": "user",
          "type": "address"
        },
        {
          "name": "amount",
          "type": "uint256"
        }
      ],
      "name": "unstake",
      "outputs": [
        {
          "name": "",
          "type": "uint256"
        }
      ],
      "payable": false,
      "stateMutability": "nonpayable",
      "type": "function"
    },
    {
      "constant": true,
      "inputs": [
        {
          "name": "addr",
          "type": "address"
        }
      ],
      "name": "totalStakedFor",
      "outputs": [
        {
          "name": "",
          "type": "uint256"
        }
      ],
      "payable": false,
      "stateMutability": "view",
      "type": "function"
    },
    {
      "constant": true,
      "inputs": [],
      "name": "totalStaked",
      "outputs": [
        {
          "name": "",
          "type": "uint256"
        }
      ],
      "payable": false,
      "stateMutability": "view",
      "type": "function"
    },
    {
      "constant": true,
      "inputs": [
        {
          "name": "addr",
          "type": "address"
        }
      ],
      "name": "lastStakedFor",
      "outputs": [
        {
          "name": "",
          "type": "uint256"
        }
      ],
      "payable": false,
      "stateMutability": "view",
      "type": "function"
    },
    {
      "constant": true,
      "inputs": [
        {
          "name": "addr",
          "type": "address"
        },
        {
          "name": "blockNumber",
          "type": "uint256"
        }
      ],
      "name": "totalStakedForAt",
      "outputs": [
        {
          "name": "",
          "type": "uint256"
        }
      ],
      "payable": false,
      "stateMutability": "view",
      "type": "function"
    },
    {
      "constant": true,
      "inputs": [
        {
          "name": "blockNumber",
          "type": "uint256"
        }
      ],
      "name": "totalStakedAt",
      "outputs": [
        {
          "name": "",
          "type": "uint256"
        }
      ],
      "payable": false,
      "stateMutability": "view",
      "type": "function"
    }
  ],
  "bytecode": "0x6080604052336000806101000a81548173ffffffffffffffffffffffffffffffffffffffff021916908373ffffffffffffffffffffffffffffffffffffffff16021790555033600160006101000a81548173ffffffffffffffffffffffffffffffffffffffff021916908373ffffffffffffffffffffffffffffffffffffffff1602179055506147c0806100946000396000f3006080604052600436106101e3576000357c0100000000000000000000000000000000000000000000000000000000900463ffffffff16806306fdde031461031f578063095ea7b3146103af578063176345141461041457806318160ddd1461043f578063233b74511461046a57806323b872dd146104c15780632ee4090814610546578063313ce567146105a75780633cebb823146105d85780633d1d878a1461061b5780634b341aed1461064e5780634bbb7124146106a55780634ee2cd7e146107b757806354fd4d50146108185780636638c087146108a857806370a08231146109ba578063715018a614610a1157806380a5400114610a28578063817b1cd214610a7f578063827f32c014610aaa5780638da5cb5b14610b0f5780639551210414610b6657806395d89b4114610bbd578063981b24d014610c4d578063a9059cbb14610c8e578063bef97c8714610cf3578063c2a672e014610d22578063c5bcc4f114610d83578063c9c5323214610dae578063cae9ca5114610def578063d3ce77fe14610e9a578063dd62ed3e14610eff578063df8de3e714610f76578063e4a28a5214610fb9578063e77772fe14610ff0578063ede3842114611047578063f2fde38b146110a8578063f41e60c5146110eb578063f77c47911461111a575b61020e600160009054906101000a900473ffffffffffffffffffffffffffffffffffffffff16611171565b151561021957600080fd5b600160009054906101000a900473ffffffffffffffffffffffffffffffffffffffff1673ffffffffffffffffffffffffffffffffffffffff1663f48c305434336040518363ffffffff167c0100000000000000000000000000000000000000000000000000000000028152600401808273ffffffffffffffffffffffffffffffffffffffff1673ffffffffffffffffffffffffffffffffffffffff1681526020019150506020604051808303818588803b1580156102d657600080fd5b505af11580156102ea573d6000803e3d6000fd5b50505050506040513d602081101561030157600080fd5b8101908080519060200190929190505050151561031d57600080fd5b005b34801561032b57600080fd5b506103346111ad565b6040518080602001828103825283818151815260200191508051906020019080838360005b83811015610374578082015181840152602081019050610359565b50505050905090810190601f1680156103a15780820380516001836020036101000a031916815260200191505b509250505060405180910390f35b3480156103bb57600080fd5b506103fa600480360381019080803573ffffffffffffffffffffffffffffffffffffffff1690602001909291908035906020019092919050505061124b565b604051808215151515815260200191505060405180910390f35b34801561042057600080fd5b5061042961155e565b6040518082815260200191505060405180910390f35b34801561044b57600080fd5b50610454611564565b6040518082815260200191505060405180910390f35b34801561047657600080fd5b506104ab600480360381019080803573ffffffffffffffffffffffffffffffffffffffff169060200190929190505050611574565b6040518082815260200191505060405180910390f35b3480156104cd57600080fd5b5061052c600480360381019080803573ffffffffffffffffffffffffffffffffffffffff169060200190929190803573ffffffffffffffffffffffffffffffffffffffff169060200190929190803590602001909291905050506115fe565b604051808215151515815260200191505060405180910390f35b34801561055257600080fd5b50610591600480360381019080803573ffffffffffffffffffffffffffffffffffffffff1690602001909291908035906020019092919050505061179e565b6040518082815260200191505060405180910390f35b3480156105b357600080fd5b506105bc611878565b604051808260ff1660ff16815260200191505060405180910390f35b3480156105e457600080fd5b50610619600480360381019080803573ffffffffffffffffffffffffffffffffffffffff16906020019092919050505061188b565b005b34801561062757600080fd5b5061064c600480360381019080803563ffffffff16906020019092919050505061192b565b005b34801561065a57600080fd5b5061068f600480360381019080803573ffffffffffffffffffffffffffffffffffffffff169060200190929190505050611bd7565b6040518082815260200191505060405180910390f35b3480156106b157600080fd5b506107b5600480360381019080803573ffffffffffffffffffffffffffffffffffffffff169060200190929190803573ffffffffffffffffffffffffffffffffffffffff16906020019092919080359060200190929190803590602001908201803590602001908080601f0160208091040260200160405190810160405280939291908181526020018383808284378201915050505050509192919290803560ff169060200190929190803590602001908201803590602001908080601f0160208091040260200160405190810160405280939291908181526020018383808284378201915050505050509192919290803515159060200190929190505050611c61565b005b3480156107c357600080fd5b50610802600480360381019080803573ffffffffffffffffffffffffffffffffffffffff16906020019092919080359060200190929190505050611dfb565b6040518082815260200191505060405180910390f35b34801561082457600080fd5b5061082d612087565b6040518080602001828103825283818151815260200191508051906020019080838360005b8381101561086d578082015181840152602081019050610852565b50505050905090810190601f16801561089a5780820380516001836020036101000a031916815260200191505b509250505060405180910390f35b3480156108b457600080fd5b50610978600480360381019080803590602001908201803590602001908080601f0160208091040260200160405190810160405280939291908181526020018383808284378201915050505050509192919290803560ff169060200190929190803590602001908201803590602001908080601f016020809104026020016040519081016040528093929190818152602001838380828437820191505050505050919291929080359060200190929190803515159060200190929190505050612125565b604051808273ffffffffffffffffffffffffffffffffffffffff1673ffffffffffffffffffffffffffffffffffffffff16815260200191505060405180910390f35b3480156109c657600080fd5b506109fb600480360381019080803573ffffffffffffffffffffffffffffffffffffffff169060200190929190505050612439565b6040518082815260200191505060405180910390f35b348015610a1d57600080fd5b50610a2661244c565b005b348015610a3457600080fd5b50610a3d61254e565b604051808273ffffffffffffffffffffffffffffffffffffffff1673ffffffffffffffffffffffffffffffffffffffff16815260200191505060405180910390f35b348015610a8b57600080fd5b50610a94612574565b6040518082815260200191505060405180910390f35b348015610ab657600080fd5b50610af5600480360381019080803573ffffffffffffffffffffffffffffffffffffffff16906020019092919080359060200190929190505050612584565b604051808215151515815260200191505060405180910390f35b348015610b1b57600080fd5b50610b246126cf565b604051808273ffffffffffffffffffffffffffffffffffffffff1673ffffffffffffffffffffffffffffffffffffffff16815260200191505060405180910390f35b348015610b7257600080fd5b50610b7b6126f4565b604051808273ffffffffffffffffffffffffffffffffffffffff1673ffffffffffffffffffffffffffffffffffffffff16815260200191505060405180910390f35b348015610bc957600080fd5b50610bd261270c565b6040518080602001828103825283818151815260200191508051906020019080838360005b83811015610c12578082015181840152602081019050610bf7565b50505050905090810190601f168015610c3f5780820380516001836020036101000a031916815260200191505b509250505060405180910390f35b348015610c5957600080fd5b50610c78600480360381019080803590602001909291905050506127aa565b6040518082815260200191505060405180910390f35b348015610c9a57600080fd5b50610cd9600480360381019080803573ffffffffffffffffffffffffffffffffffffffff1690602001909291908035906020019092919050505061294a565b604051808215151515815260200191505060405180910390f35b348015610cff57600080fd5b50610d0861297c565b604051808215151515815260200191505060405180910390f35b348015610d2e57600080fd5b50610d6d600480360381019080803573ffffffffffffffffffffffffffffffffffffffff1690602001909291908035906020019092919050505061298f565b6040518082815260200191505060405180910390f35b348015610d8f57600080fd5b50610d98612ae8565b6040518082815260200191505060405180910390f35b348015610dba57600080fd5b50610dd960048036038101908080359060200190929190505050612aee565b6040518082815260200191505060405180910390f35b348015610dfb57600080fd5b50610e80600480360381019080803573ffffffffffffffffffffffffffffffffffffffff16906020019092919080359060200190929190803590602001908201803590602001908080601f0160208091040260200160405190810160405280939291908181526020018383808284378201915050505050509192919290505050612b02565b604051808215151515815260200191505060405180910390f35b348015610ea657600080fd5b50610ee5600480360381019080803573ffffffffffffffffffffffffffffffffffffffff16906020019092919080359060200190929190505050612c80565b604051808215151515815260200191505060405180910390f35b348015610f0b57600080fd5b50610f60600480360381019080803573ffffffffffffffffffffffffffffffffffffffff169060200190929190803573ffffffffffffffffffffffffffffffffffffffff169060200190929190505050612dc7565b6040518082815260200191505060405180910390f35b348015610f8257600080fd5b50610fb7600480360381019080803573ffffffffffffffffffffffffffffffffffffffff169060200190929190505050612e4e565b005b348015610fc557600080fd5b50610fce6131ba565b604051808263ffffffff1663ffffffff16815260200191505060405180910390f35b348015610ffc57600080fd5b506110056131d0565b604051808273ffffffffffffffffffffffffffffffffffffffff1673ffffffffffffffffffffffffffffffffffffffff16815260200191505060405180910390f35b34801561105357600080fd5b50611092600480360381019080803573ffffffffffffffffffffffffffffffffffffffff169060200190929190803590602001909291905050506131f6565b6040518082815260200191505060405180910390f35b3480156110b457600080fd5b506110e9600480360381019080803573ffffffffffffffffffffffffffffffffffffffff169060200190929190505050613248565b005b3480156110f757600080fd5b506111186004803603810190808035151590602001909291905050506132af565b005b34801561112657600080fd5b5061112f613328565b604051808273ffffffffffffffffffffffffffffffffffffffff1673ffffffffffffffffffffffffffffffffffffffff16815260200191505060405180910390f35b60008060008373ffffffffffffffffffffffffffffffffffffffff16141561119c57600091506111a7565b823b90506000811191505b50919050565b60028054600181600116156101000203166002900480601f0160208091040260200160405190810160405280929190818152602001828054600181600116156101000203166002900480156112435780601f1061121857610100808354040283529160200191611243565b820191906000526020600020905b81548152906001019060200180831161122657829003601f168201915b505050505081565b6000600c60009054906101000a900460ff16151561126857600080fd5b60008214806112f357506000600a60003373ffffffffffffffffffffffffffffffffffffffff1673ffffffffffffffffffffffffffffffffffffffff16815260200190815260200160002060008573ffffffffffffffffffffffffffffffffffffffff1673ffffffffffffffffffffffffffffffffffffffff16815260200190815260200160002054145b15156112fe57600080fd5b611329600160009054906101000a900473ffffffffffffffffffffffffffffffffffffffff16611171565b1561146e57600160009054906101000a900473ffffffffffffffffffffffffffffffffffffffff1673ffffffffffffffffffffffffffffffffffffffff1663da682aeb3385856040518463ffffffff167c0100000000000000000000000000000000000000000000000000000000028152600401808473ffffffffffffffffffffffffffffffffffffffff1673ffffffffffffffffffffffffffffffffffffffff1681526020018373ffffffffffffffffffffffffffffffffffffffff1673ffffffffffffffffffffffffffffffffffffffff1681526020018281526020019350505050602060405180830381600087803b15801561142757600080fd5b505af115801561143b573d6000803e3d6000fd5b505050506040513d602081101561145157600080fd5b8101908080519060200190929190505050151561146d57600080fd5b5b81600a60003373ffffffffffffffffffffffffffffffffffffffff1673ffffffffffffffffffffffffffffffffffffffff16815260200190815260200160002060008573ffffffffffffffffffffffffffffffffffffffff1673ffffffffffffffffffffffffffffffffffffffff168152602001908152602001600020819055508273ffffffffffffffffffffffffffffffffffffffff163373ffffffffffffffffffffffffffffffffffffffff167f8c5be1e5ebec7d5bd14f71427d1e84f3dd0314c0f7b2291e5b200ac8c7c3b925846040518082815260200191505060405180910390a36001905092915050565b60085481565b600061156f436127aa565b905090565b600080608e60008473ffffffffffffffffffffffffffffffffffffffff1673ffffffffffffffffffffffffffffffffffffffff16815260200190815260200160002090506000818054905014156115ce57600091506115f8565b8060018280549050038154811015156115e357fe5b90600052602060002090600202016000015491505b50919050565b6000600160009054906101000a900473ffffffffffffffffffffffffffffffffffffffff1673ffffffffffffffffffffffffffffffffffffffff163373ffffffffffffffffffffffffffffffffffffffff1614151561178857600c60009054906101000a900460ff16151561167257600080fd5b81600a60008673ffffffffffffffffffffffffffffffffffffffff1673ffffffffffffffffffffffffffffffffffffffff16815260200190815260200160002060003373ffffffffffffffffffffffffffffffffffffffff1673ffffffffffffffffffffffffffffffffffffffff16815260200190815260200160002054101515156116fd57600080fd5b81600a60008673ffffffffffffffffffffffffffffffffffffffff1673ffffffffffffffffffffffffffffffffffffffff16815260200190815260200160002060003373ffffffffffffffffffffffffffffffffffffffff1673ffffffffffffffffffffffffffffffffffffffff168152602001908152602001600020600082825403925050819055505b61179384848461334e565b600190509392505050565b60008060009054906101000a900473ffffffffffffffffffffffffffffffffffffffff1673ffffffffffffffffffffffffffffffffffffffff163373ffffffffffffffffffffffffffffffffffffffff161415156117fb57600080fd5b611845608e60008573ffffffffffffffffffffffffffffffffffffffff1673ffffffffffffffffffffffffffffffffffffffff1681526020019081526020016000208360006136db565b611852608d8360006136db565b6118648361185f84613860565b612584565b151561186f57600080fd5b81905092915050565b600360009054906101000a900460ff1681565b600160009054906101000a900473ffffffffffffffffffffffffffffffffffffffff1673ffffffffffffffffffffffffffffffffffffffff163373ffffffffffffffffffffffffffffffffffffffff161415156118e757600080fd5b80600160006101000a81548173ffffffffffffffffffffffffffffffffffffffff021916908373ffffffffffffffffffffffffffffffffffffffff16021790555050565b6000600c60159054906101000a900463ffffffff1663ffffffff1614151561195257600080fd5b620f4240600c60156101000a81548163ffffffff021916908363ffffffff160217905550611a0673E58B672036629b83377141B2f9Af934B6bD1Bb516000806040805190810160405280601581526020017f446973747269637420566f74696e6720546f6b656e000000000000000000000081525060126040805190810160405280600381526020017f44565400000000000000000000000000000000000000000000000000000000008152506000611c61565b60018163ffffffff1610158015611a3b5750600c60159054906101000a900463ffffffff1663ffffffff168163ffffffff1611155b1515611a4657600080fd5b336000806101000a81548173ffffffffffffffffffffffffffffffffffffffff021916908373ffffffffffffffffffffffffffffffffffffffff160217905550611ab06000809054906101000a900473ffffffffffffffffffffffffffffffffffffffff1661188b565b80600c60196101000a81548163ffffffff021916908363ffffffff160217905550611ad96144ae565b604051809103906000f080158015611af5573d6000803e3d6000fd5b50608f60006101000a81548173ffffffffffffffffffffffffffffffffffffffff021916908373ffffffffffffffffffffffffffffffffffffffff160217905550608f60009054906101000a900473ffffffffffffffffffffffffffffffffffffffff1673ffffffffffffffffffffffffffffffffffffffff166394b91deb6040518163ffffffff167c0100000000000000000000000000000000000000000000000000000000028152600401600060405180830381600087803b158015611bbc57600080fd5b505af1158015611bd0573d6000803e3d6000fd5b5050505050565b600080608e60008473ffffffffffffffffffffffffffffffffffffffff1673ffffffffffffffffffffffffffffffffffffffff1681526020019081526020016000209050600081805490501415611c315760009150611c5b565b806001828054905003815481101515611c4657fe5b90600052602060002090600202016001015491505b50919050565b6000600854141515611c7257600080fd5b6040805190810160405280600781526020017f4d4d545f302e320000000000000000000000000000000000000000000000000081525060059080519060200190611cbd9291906144be565b5086600c60016101000a81548173ffffffffffffffffffffffffffffffffffffffff021916908373ffffffffffffffffffffffffffffffffffffffff1602179055508360029080519060200190611d159291906144be565b5082600360006101000a81548160ff021916908360ff1602179055508160049080519060200190611d479291906144be565b5085600660006101000a81548173ffffffffffffffffffffffffffffffffffffffff021916908373ffffffffffffffffffffffffffffffffffffffff1602179055508460078190555080600c60006101000a81548160ff0219169083151502179055504360088190555033600160006101000a81548173ffffffffffffffffffffffffffffffffffffffff021916908373ffffffffffffffffffffffffffffffffffffffff16021790555050505050505050565b600080600960008573ffffffffffffffffffffffffffffffffffffffff1673ffffffffffffffffffffffffffffffffffffffff168152602001908152602001600020805490501480611ed4575081600960008573ffffffffffffffffffffffffffffffffffffffff1673ffffffffffffffffffffffffffffffffffffffff1681526020019081526020016000206000815481101515611e9657fe5b9060005260206000200160000160009054906101000a90046fffffffffffffffffffffffffffffffff166fffffffffffffffffffffffffffffffff16115b15612036576000600660009054906101000a900473ffffffffffffffffffffffffffffffffffffffff1673ffffffffffffffffffffffffffffffffffffffff1614151561202d57600660009054906101000a900473ffffffffffffffffffffffffffffffffffffffff1673ffffffffffffffffffffffffffffffffffffffff16634ee2cd7e84611f66856007546138c7565b6040518363ffffffff167c0100000000000000000000000000000000000000000000000000000000028152600401808373ffffffffffffffffffffffffffffffffffffffff1673ffffffffffffffffffffffffffffffffffffffff16815260200182815260200192505050602060405180830381600087803b158015611feb57600080fd5b505af1158015611fff573d6000803e3d6000fd5b505050506040513d602081101561201557600080fd5b81019080805190602001909291905050509050612081565b60009050612081565b61207e600960008573ffffffffffffffffffffffffffffffffffffffff1673ffffffffffffffffffffffffffffffffffffffff168152602001908152602001600020836138e0565b90505b92915050565b60058054600181600116156101000203166002900480601f01602080910402602001604051908101604052809291908181526020018280546001816001161561010002031660029004801561211d5780601f106120f25761010080835404028352916020019161211d565b820191906000526020600020905b81548152906001019060200180831161210057829003601f168201915b505050505081565b6000806000841415612135574393505b600c60019054906101000a900473ffffffffffffffffffffffffffffffffffffffff1673ffffffffffffffffffffffffffffffffffffffff16635b7b72c130868a8a8a896040518763ffffffff167c0100000000000000000000000000000000000000000000000000000000028152600401808773ffffffffffffffffffffffffffffffffffffffff1673ffffffffffffffffffffffffffffffffffffffff168152602001868152602001806020018560ff1660ff1681526020018060200184151515158152602001838103835287818151815260200191508051906020019080838360005b8381101561223657808201518184015260208101905061221b565b50505050905090810190601f1680156122635780820380516001836020036101000a031916815260200191505b50838103825285818151815260200191508051906020019080838360005b8381101561229c578082015181840152602081019050612281565b50505050905090810190601f1680156122c95780820380516001836020036101000a031916815260200191505b5098505050505050505050602060405180830381600087803b1580156122ee57600080fd5b505af1158015612302573d6000803e3d6000fd5b505050506040513d602081101561231857600080fd5b810190808051906020019092919050505090508073ffffffffffffffffffffffffffffffffffffffff16633cebb823336040518263ffffffff167c0100000000000000000000000000000000000000000000000000000000028152600401808273ffffffffffffffffffffffffffffffffffffffff1673ffffffffffffffffffffffffffffffffffffffff168152602001915050600060405180830381600087803b1580156123c657600080fd5b505af11580156123da573d6000803e3d6000fd5b505050508073ffffffffffffffffffffffffffffffffffffffff167f086c875b377f900b07ce03575813022f05dd10ed7640b5282cf6d3c3fc352ade856040518082815260200191505060405180910390a28091505095945050505050565b60006124458243611dfb565b9050919050565b6000809054906101000a900473ffffffffffffffffffffffffffffffffffffffff1673ffffffffffffffffffffffffffffffffffffffff163373ffffffffffffffffffffffffffffffffffffffff161415156124a757600080fd5b6000809054906101000a900473ffffffffffffffffffffffffffffffffffffffff1673ffffffffffffffffffffffffffffffffffffffff167ff8df31144d9c2f0f6b59d69b8b98abd5459d07f2742c4df920b25aae33c6482060405160405180910390a260008060006101000a81548173ffffffffffffffffffffffffffffffffffffffff021916908373ffffffffffffffffffffffffffffffffffffffff160217905550565b600660009054906101000a900473ffffffffffffffffffffffffffffffffffffffff1681565b600061257f43612aee565b905090565b6000806000600160009054906101000a900473ffffffffffffffffffffffffffffffffffffffff1673ffffffffffffffffffffffffffffffffffffffff163373ffffffffffffffffffffffffffffffffffffffff161415156125e557600080fd5b6125ed611564565b9150818483011015151561260057600080fd5b61260985612439565b9050808482011015151561261c57600080fd5b612629600b858401613aef565b612673600960008773ffffffffffffffffffffffffffffffffffffffff1673ffffffffffffffffffffffffffffffffffffffff168152602001908152602001600020858301613aef565b8473ffffffffffffffffffffffffffffffffffffffff1660007fddf252ad1be2c89b69c2b068fc378daa952ba7f163c4a11628f55a4df523b3ef866040518082815260200191505060405180910390a360019250505092915050565b6000809054906101000a900473ffffffffffffffffffffffffffffffffffffffff1681565b73E58B672036629b83377141B2f9Af934B6bD1Bb5181565b60048054600181600116156101000203166002900480601f0160208091040260200160405190810160405280929190818152602001828054600181600116156101000203166002900480156127a25780601f10612777576101008083540402835291602001916127a2565b820191906000526020600020905b81548152906001019060200180831161278557829003601f168201915b505050505081565b600080600b805490501480612809575081600b60008154811015156127cb57fe5b9060005260206000200160000160009054906101000a90046fffffffffffffffffffffffffffffffff166fffffffffffffffffffffffffffffffff16115b15612937576000600660009054906101000a900473ffffffffffffffffffffffffffffffffffffffff1673ffffffffffffffffffffffffffffffffffffffff1614151561292e57600660009054906101000a900473ffffffffffffffffffffffffffffffffffffffff1673ffffffffffffffffffffffffffffffffffffffff1663981b24d061289a846007546138c7565b6040518263ffffffff167c010000000000000000000000000000000000000000000000000000000002815260040180828152602001915050602060405180830381600087803b1580156128ec57600080fd5b505af1158015612900573d6000803e3d6000fd5b505050506040513d602081101561291657600080fd5b81019080805190602001909291905050509050612945565b60009050612945565b612942600b836138e0565b90505b919050565b6000600c60009054906101000a900460ff16151561296757600080fd5b61297233848461334e565b6001905092915050565b600c60009054906101000a900460ff1681565b6000806000806000809054906101000a900473ffffffffffffffffffffffffffffffffffffffff1673ffffffffffffffffffffffffffffffffffffffff163373ffffffffffffffffffffffffffffffffffffffff161415156129f057600080fd5b6000851115156129ff57600080fd5b612a0886611bd7565b9250612a1386612439565b9150612a6e612a4586612a37670de0b6b3a764000087613c6390919063ffffffff16565b613d7590919063ffffffff16565b612a60670de0b6b3a764000085613c6390919063ffffffff16565b613d7590919063ffffffff16565b9050612a7a8682612c80565b1515612a8557600080fd5b612acf608e60008873ffffffffffffffffffffffffffffffffffffffff1673ffffffffffffffffffffffffffffffffffffffff1681526020019081526020016000208660016136db565b612adc608d8660016136db565b84935050505092915050565b60075481565b6000612afb608d83613e73565b9050919050565b6000612b0e848461124b565b1515612b1957600080fd5b8373ffffffffffffffffffffffffffffffffffffffff16638f4ffcb1338530866040518563ffffffff167c0100000000000000000000000000000000000000000000000000000000028152600401808573ffffffffffffffffffffffffffffffffffffffff1673ffffffffffffffffffffffffffffffffffffffff1681526020018481526020018373ffffffffffffffffffffffffffffffffffffffff1673ffffffffffffffffffffffffffffffffffffffff16815260200180602001828103825283818151815260200191508051906020019080838360005b83811015612c0e578082015181840152602081019050612bf3565b50505050905090810190601f168015612c3b5780820380516001836020036101000a031916815260200191505b5095505050505050600060405180830381600087803b158015612c5d57600080fd5b505af1158015612c71573d6000803e3d6000fd5b50505050600190509392505050565b6000806000600160009054906101000a900473ffffffffffffffffffffffffffffffffffffffff1673ffffffffffffffffffffffffffffffffffffffff163373ffffffffffffffffffffffffffffffffffffffff16141515612ce157600080fd5b612ce9611564565b9150838210151515612cfa57600080fd5b612d0385612439565b9050838110151515612d1457600080fd5b612d21600b858403613aef565b612d6b600960008773ffffffffffffffffffffffffffffffffffffffff1673ffffffffffffffffffffffffffffffffffffffff168152602001908152602001600020858303613aef565b60008573ffffffffffffffffffffffffffffffffffffffff167fddf252ad1be2c89b69c2b068fc378daa952ba7f163c4a11628f55a4df523b3ef866040518082815260200191505060405180910390a360019250505092915050565b6000600a60008473ffffffffffffffffffffffffffffffffffffffff1673ffffffffffffffffffffffffffffffffffffffff16815260200190815260200160002060008373ffffffffffffffffffffffffffffffffffffffff1673ffffffffffffffffffffffffffffffffffffffff16815260200190815260200160002054905092915050565b600080600160009054906101000a900473ffffffffffffffffffffffffffffffffffffffff1673ffffffffffffffffffffffffffffffffffffffff163373ffffffffffffffffffffffffffffffffffffffff16141515612ead57600080fd5b60008373ffffffffffffffffffffffffffffffffffffffff161415612f5157600160009054906101000a900473ffffffffffffffffffffffffffffffffffffffff1673ffffffffffffffffffffffffffffffffffffffff166108fc3073ffffffffffffffffffffffffffffffffffffffff16319081150290604051600060405180830381858888f19350505050158015612f4b573d6000803e3d6000fd5b506131b5565b8291508173ffffffffffffffffffffffffffffffffffffffff166370a08231306040518263ffffffff167c0100000000000000000000000000000000000000000000000000000000028152600401808273ffffffffffffffffffffffffffffffffffffffff1673ffffffffffffffffffffffffffffffffffffffff168152602001915050602060405180830381600087803b158015612fef57600080fd5b505af1158015613003573d6000803e3d6000fd5b505050506040513d602081101561301957600080fd5b810190808051906020019092919050505090508173ffffffffffffffffffffffffffffffffffffffff1663a9059cbb600160009054906101000a900473ffffffffffffffffffffffffffffffffffffffff16836040518363ffffffff167c0100000000000000000000000000000000000000000000000000000000028152600401808373ffffffffffffffffffffffffffffffffffffffff1673ffffffffffffffffffffffffffffffffffffffff16815260200182815260200192505050602060405180830381600087803b1580156130f157600080fd5b505af1158015613105573d6000803e3d6000fd5b505050506040513d602081101561311b57600080fd5b810190808051906020019092919050505050600160009054906101000a900473ffffffffffffffffffffffffffffffffffffffff1673ffffffffffffffffffffffffffffffffffffffff168373ffffffffffffffffffffffffffffffffffffffff167ff931edb47c50b4b4104c187b5814a9aef5f709e17e2ecf9617e860cacade929c836040518082815260200191505060405180910390a35b505050565b600c60159054906101000a900463ffffffff1681565b600c60019054906101000a900473ffffffffffffffffffffffffffffffffffffffff1681565b6000613240608e60008573ffffffffffffffffffffffffffffffffffffffff1673ffffffffffffffffffffffffffffffffffffffff16815260200190815260200160002083613e73565b905092915050565b6000809054906101000a900473ffffffffffffffffffffffffffffffffffffffff1673ffffffffffffffffffffffffffffffffffffffff163373ffffffffffffffffffffffffffffffffffffffff161415156132a357600080fd5b6132ac81613fa3565b50565b600160009054906101000a900473ffffffffffffffffffffffffffffffffffffffff1673ffffffffffffffffffffffffffffffffffffffff163373ffffffffffffffffffffffffffffffffffffffff1614151561330b57600080fd5b80600c60006101000a81548160ff02191690831515021790555050565b600160009054906101000a900473ffffffffffffffffffffffffffffffffffffffff1681565b60008060008314156133c4578373ffffffffffffffffffffffffffffffffffffffff168573ffffffffffffffffffffffffffffffffffffffff167fddf252ad1be2c89b69c2b068fc378daa952ba7f163c4a11628f55a4df523b3ef856040518082815260200191505060405180910390a36136d4565b436007541015156133d457600080fd5b60008473ffffffffffffffffffffffffffffffffffffffff161415801561342757503073ffffffffffffffffffffffffffffffffffffffff168473ffffffffffffffffffffffffffffffffffffffff1614155b151561343257600080fd5b61343c8543611dfb565b915082821015151561344d57600080fd5b613478600160009054906101000a900473ffffffffffffffffffffffffffffffffffffffff16611171565b156135bd57600160009054906101000a900473ffffffffffffffffffffffffffffffffffffffff1673ffffffffffffffffffffffffffffffffffffffff16634a3931498686866040518463ffffffff167c0100000000000000000000000000000000000000000000000000000000028152600401808473ffffffffffffffffffffffffffffffffffffffff1673ffffffffffffffffffffffffffffffffffffffff1681526020018373ffffffffffffffffffffffffffffffffffffffff1673ffffffffffffffffffffffffffffffffffffffff1681526020018281526020019350505050602060405180830381600087803b15801561357657600080fd5b505af115801561358a573d6000803e3d6000fd5b505050506040513d60208110156135a057600080fd5b810190808051906020019092919050505015156135bc57600080fd5b5b613607600960008773ffffffffffffffffffffffffffffffffffffffff1673ffffffffffffffffffffffffffffffffffffffff168152602001908152602001600020848403613aef565b6136118443611dfb565b9050808382011015151561362457600080fd5b61366e600960008673ffffffffffffffffffffffffffffffffffffffff1673ffffffffffffffffffffffffffffffffffffffff168152602001908152602001600020848301613aef565b8373ffffffffffffffffffffffffffffffffffffffff168573ffffffffffffffffffffffffffffffffffffffff167fddf252ad1be2c89b69c2b068fc378daa952ba7f163c4a11628f55a4df523b3ef856040518082815260200191505060405180910390a35b5050505050565b60008084805490509150600082141561374b5784604080519081016040528043815260200186815250908060018154018082558091505090600182039060005260206000209060020201600090919290919091506000820151816000015560208201518160010155505050613859565b43856001840381548110151561375d57fe5b90600052602060002090600202016000015410156137f057846040805190810160405280438152602001876001860381548110151561379857fe5b9060005260206000209060020201600101548152509080600181540180825580915050906001820390600052602060002090600202016000909192909190915060008201518160000155602082015181600101555050505b84828154811015156137fe57fe5b9060005260206000209060020201905082156138385761382b84826001015461409d90919063ffffffff16565b8160010181905550613858565b61384f84826001015461419290919063ffffffff16565b81600101819055505b5b5050505050565b60006138c0613887678ac7230489e80000613879611564565b61419290919063ffffffff16565b6138a7655af3107a4000613899612574565b61419290919063ffffffff16565b600c60199054906101000a900463ffffffff1685614287565b9050919050565b60008183106138d657816138d8565b825b905092915050565b6000806000806000868054905014156138fc5760009350613ae6565b85600187805490500381548110151561391157fe5b9060005260206000200160000160009054906101000a90046fffffffffffffffffffffffffffffffff166fffffffffffffffffffffffffffffffff16851015156139ad5785600187805490500381548110151561396a57fe5b9060005260206000200160000160109054906101000a90046fffffffffffffffffffffffffffffffff166fffffffffffffffffffffffffffffffff169350613ae6565b8560008154811015156139bc57fe5b9060005260206000200160000160009054906101000a90046fffffffffffffffffffffffffffffffff166fffffffffffffffffffffffffffffffff16851015613a085760009350613ae6565b60009250600186805490500391505b82821115613a99576002600184840101811515613a3057fe5b049050848682815481101515613a4257fe5b9060005260206000200160000160009054906101000a90046fffffffffffffffffffffffffffffffff166fffffffffffffffffffffffffffffffff16111515613a8d57809250613a94565b6001810391505b613a17565b8583815481101515613aa757fe5b9060005260206000200160000160109054906101000a90046fffffffffffffffffffffffffffffffff166fffffffffffffffffffffffffffffffff1693505b50505092915050565b600080600084805490501480613b54575043846001868054905003815481101515613b1657fe5b9060005260206000200160000160009054906101000a90046fffffffffffffffffffffffffffffffff166fffffffffffffffffffffffffffffffff16105b15613c005783848054809190600101613b6d919061453e565b815481101515613b7957fe5b906000526020600020019150438260000160006101000a8154816fffffffffffffffffffffffffffffffff02191690836fffffffffffffffffffffffffffffffff160217905550828260000160106101000a8154816fffffffffffffffffffffffffffffffff02191690836fffffffffffffffffffffffffffffffff160217905550613c5d565b836001858054905003815481101515613c1557fe5b906000526020600020019050828160000160106101000a8154816fffffffffffffffffffffffffffffffff02191690836fffffffffffffffffffffffffffffffff1602179055505b50505050565b6000806000841415613c785760009150613d6e565b8284029050828482811515613c8957fe5b04146040805190810160405280601181526020017f4d4154485f4d554c5f4f564552464c4f57000000000000000000000000000000815250901515613d69576040517f08c379a00000000000000000000000000000000000000000000000000000000081526004018080602001828103825283818151815260200191508051906020019080838360005b83811015613d2e578082015181840152602081019050613d13565b50505050905090810190601f168015613d5b5780820380516001836020036101000a031916815260200191505b509250505060405180910390fd5b508091505b5092915050565b600080600083116040805190810160405280600d81526020017f4d4154485f4449565f5a45524f00000000000000000000000000000000000000815250901515613e5a576040517f08c379a00000000000000000000000000000000000000000000000000000000081526004018080602001828103825283818151815260200191508051906020019080838360005b83811015613e1f578082015181840152602081019050613e04565b50505050905090810190601f168015613e4c5780820380516001836020036101000a031916815260200191505b509250505060405180910390fd5b508284811515613e6657fe5b0490508091505092915050565b6000806000806000868054905093506000841480613eb05750866000815481101515613e9b57fe5b90600052602060002090600202016000015486105b15613ebe5760009450613f99565b8660018503815481101515613ecf57fe5b90600052602060002090600202016000015486101515613f13578660018503815481101515613efa57fe5b9060005260206000209060020201600101549450613f99565b600092506001840391505b82821115613f76576002600184840101811515613f3757fe5b049050858782815481101515613f4957fe5b906000526020600020906002020160000154111515613f6a57809250613f71565b6001810391505b613f1e565b8683815481101515613f8457fe5b90600052602060002090600202016001015494505b5050505092915050565b600073ffffffffffffffffffffffffffffffffffffffff168173ffffffffffffffffffffffffffffffffffffffff1614151515613fdf57600080fd5b8073ffffffffffffffffffffffffffffffffffffffff166000809054906101000a900473ffffffffffffffffffffffffffffffffffffffff1673ffffffffffffffffffffffffffffffffffffffff167f8be0079c531659141344cd1fd0a4f28419497f9722a3daafe3b4186f6b6457e060405160405180910390a3806000806101000a81548173ffffffffffffffffffffffffffffffffffffffff021916908373ffffffffffffffffffffffffffffffffffffffff16021790555050565b600080838311156040805190810160405280601281526020017f4d4154485f5355425f554e444552464c4f570000000000000000000000000000815250901515614182576040517f08c379a00000000000000000000000000000000000000000000000000000000081526004018080602001828103825283818151815260200191508051906020019080838360005b8381101561414757808201518184015260208101905061412c565b50505050905090810190601f1680156141745780820380516001836020036101000a031916815260200191505b509250505060405180910390fd5b5082840390508091505092915050565b6000808284019050838110156040805190810160405280601181526020017f4d4154485f4144445f4f564552464c4f5700000000000000000000000000000081525090151561427c576040517f08c379a00000000000000000000000000000000000000000000000000000000081526004018080602001828103825283818151815260200191508051906020019080838360005b83811015614241578082015181840152602081019050614226565b50505050905090810190601f16801561426e5780820380516001836020036101000a031916815260200191505b509250505060405180910390fd5b508091505092915050565b6000806000806000808911801561429e5750600088115b80156142b0575060008763ffffffff16115b80156142da5750600c60159054906101000a900463ffffffff1663ffffffff168763ffffffff1611155b15156142e557600080fd5b60008614156142f757600094506144a2565b600c60159054906101000a900463ffffffff1663ffffffff168763ffffffff1614156143495761434288614334888c613c6390919063ffffffff16565b613d7590919063ffffffff16565b94506144a2565b61435c888761419290919063ffffffff16565b9150608f60009054906101000a900473ffffffffffffffffffffffffffffffffffffffff1673ffffffffffffffffffffffffffffffffffffffff166332833d51838a8a600c60159054906101000a900463ffffffff166040518563ffffffff167c0100000000000000000000000000000000000000000000000000000000028152600401808581526020018481526020018363ffffffff1663ffffffff1681526020018263ffffffff1663ffffffff1681526020019450505050506040805180830381600087803b15801561443057600080fd5b505af1158015614444573d6000803e3d6000fd5b505050506040513d604081101561445a57600080fd5b81019080805190602001909291908051906020019092919050505080945081955050508260ff16614494858b613c6390919063ffffffff16565b9060020a9004905088810394505b50505050949350505050565b6040516101a0806145f583390190565b828054600181600116156101000203166002900490600052602060002090601f016020900481019282601f106144ff57805160ff191683800117855561452d565b8280016001018555821561452d579182015b8281111561452c578251825591602001919060010190614511565b5b50905061453a919061456a565b5090565b81548183558181111561456557818360005260206000209182019101614564919061458f565b5b505050565b61458c91905b80821115614588576000816000905550600101614570565b5090565b90565b6145f191905b808211156145ed57600080820160006101000a8154906fffffffffffffffffffffffffffffffff02191690556000820160106101000a8154906fffffffffffffffffffffffffffffffff021916905550600101614595565b5090565b905600608060405234801561001057600080fd5b50610180806100206000396000f300608060405260043610610041576000357c0100000000000000000000000000000000000000000000000000000000900463ffffffff168063d4b8399214610094575b61009273e24E4a63197Bd6aA2Db9B56025E3D516Dc896E746000368080601f0160208091040260200160405190810160405280939291908181526020018383808284378201915050505050506100eb565b005b3480156100a057600080fd5b506100a9610129565b604051808273ffffffffffffffffffffffffffffffffffffffff1673ffffffffffffffffffffffffffffffffffffffff16815260200191505060405180910390f35b6100f482610141565b15156100ff57600080fd5b600080825160208401856127105a03f43d604051816000823e8260008114610125578282f35b8282fd5b73e24E4a63197Bd6aA2Db9B56025E3D516Dc896E7481565b600080823b9050600081119150509190505600a165627a7a72305820144734fcc804b3f034561533e7ca0d5369ac068ed4a8b28637ca6be1140288870029a165627a7a723058208cc871d08e6cf090414bf59df3b97973a73ca18f13978c0053a524e7c8c6f93b0029",
  "deployedBytecode": "0x6080604052600436106101e3576000357c0100000000000000000000000000000000000000000000000000000000900463ffffffff16806306fdde031461031f578063095ea7b3146103af578063176345141461041457806318160ddd1461043f578063233b74511461046a57806323b872dd146104c15780632ee4090814610546578063313ce567146105a75780633cebb823146105d85780633d1d878a1461061b5780634b341aed1461064e5780634bbb7124146106a55780634ee2cd7e146107b757806354fd4d50146108185780636638c087146108a857806370a08231146109ba578063715018a614610a1157806380a5400114610a28578063817b1cd214610a7f578063827f32c014610aaa5780638da5cb5b14610b0f5780639551210414610b6657806395d89b4114610bbd578063981b24d014610c4d578063a9059cbb14610c8e578063bef97c8714610cf3578063c2a672e014610d22578063c5bcc4f114610d83578063c9c5323214610dae578063cae9ca5114610def578063d3ce77fe14610e9a578063dd62ed3e14610eff578063df8de3e714610f76578063e4a28a5214610fb9578063e77772fe14610ff0578063ede3842114611047578063f2fde38b146110a8578063f41e60c5146110eb578063f77c47911461111a575b61020e600160009054906101000a900473ffffffffffffffffffffffffffffffffffffffff16611171565b151561021957600080fd5b600160009054906101000a900473ffffffffffffffffffffffffffffffffffffffff1673ffffffffffffffffffffffffffffffffffffffff1663f48c305434336040518363ffffffff167c0100000000000000000000000000000000000000000000000000000000028152600401808273ffffffffffffffffffffffffffffffffffffffff1673ffffffffffffffffffffffffffffffffffffffff1681526020019150506020604051808303818588803b1580156102d657600080fd5b505af11580156102ea573d6000803e3d6000fd5b50505050506040513d602081101561030157600080fd5b8101908080519060200190929190505050151561031d57600080fd5b005b34801561032b57600080fd5b506103346111ad565b6040518080602001828103825283818151815260200191508051906020019080838360005b83811015610374578082015181840152602081019050610359565b50505050905090810190601f1680156103a15780820380516001836020036101000a031916815260200191505b509250505060405180910390f35b3480156103bb57600080fd5b506103fa600480360381019080803573ffffffffffffffffffffffffffffffffffffffff1690602001909291908035906020019092919050505061124b565b604051808215151515815260200191505060405180910390f35b34801561042057600080fd5b5061042961155e565b6040518082815260200191505060405180910390f35b34801561044b57600080fd5b50610454611564565b6040518082815260200191505060405180910390f35b34801561047657600080fd5b506104ab600480360381019080803573ffffffffffffffffffffffffffffffffffffffff169060200190929190505050611574565b6040518082815260200191505060405180910390f35b3480156104cd57600080fd5b5061052c600480360381019080803573ffffffffffffffffffffffffffffffffffffffff169060200190929190803573ffffffffffffffffffffffffffffffffffffffff169060200190929190803590602001909291905050506115fe565b604051808215151515815260200191505060405180910390f35b34801561055257600080fd5b50610591600480360381019080803573ffffffffffffffffffffffffffffffffffffffff1690602001909291908035906020019092919050505061179e565b6040518082815260200191505060405180910390f35b3480156105b357600080fd5b506105bc611878565b604051808260ff1660ff16815260200191505060405180910390f35b3480156105e457600080fd5b50610619600480360381019080803573ffffffffffffffffffffffffffffffffffffffff16906020019092919050505061188b565b005b34801561062757600080fd5b5061064c600480360381019080803563ffffffff16906020019092919050505061192b565b005b34801561065a57600080fd5b5061068f600480360381019080803573ffffffffffffffffffffffffffffffffffffffff169060200190929190505050611bd7565b6040518082815260200191505060405180910390f35b3480156106b157600080fd5b506107b5600480360381019080803573ffffffffffffffffffffffffffffffffffffffff169060200190929190803573ffffffffffffffffffffffffffffffffffffffff16906020019092919080359060200190929190803590602001908201803590602001908080601f0160208091040260200160405190810160405280939291908181526020018383808284378201915050505050509192919290803560ff169060200190929190803590602001908201803590602001908080601f0160208091040260200160405190810160405280939291908181526020018383808284378201915050505050509192919290803515159060200190929190505050611c61565b005b3480156107c357600080fd5b50610802600480360381019080803573ffffffffffffffffffffffffffffffffffffffff16906020019092919080359060200190929190505050611dfb565b6040518082815260200191505060405180910390f35b34801561082457600080fd5b5061082d612087565b6040518080602001828103825283818151815260200191508051906020019080838360005b8381101561086d578082015181840152602081019050610852565b50505050905090810190601f16801561089a5780820380516001836020036101000a031916815260200191505b509250505060405180910390f35b3480156108b457600080fd5b50610978600480360381019080803590602001908201803590602001908080601f0160208091040260200160405190810160405280939291908181526020018383808284378201915050505050509192919290803560ff169060200190929190803590602001908201803590602001908080601f016020809104026020016040519081016040528093929190818152602001838380828437820191505050505050919291929080359060200190929190803515159060200190929190505050612125565b604051808273ffffffffffffffffffffffffffffffffffffffff1673ffffffffffffffffffffffffffffffffffffffff16815260200191505060405180910390f35b3480156109c657600080fd5b506109fb600480360381019080803573ffffffffffffffffffffffffffffffffffffffff169060200190929190505050612439565b6040518082815260200191505060405180910390f35b348015610a1d57600080fd5b50610a2661244c565b005b348015610a3457600080fd5b50610a3d61254e565b604051808273ffffffffffffffffffffffffffffffffffffffff1673ffffffffffffffffffffffffffffffffffffffff16815260200191505060405180910390f35b348015610a8b57600080fd5b50610a94612574565b6040518082815260200191505060405180910390f35b348015610ab657600080fd5b50610af5600480360381019080803573ffffffffffffffffffffffffffffffffffffffff16906020019092919080359060200190929190505050612584565b604051808215151515815260200191505060405180910390f35b348015610b1b57600080fd5b50610b246126cf565b604051808273ffffffffffffffffffffffffffffffffffffffff1673ffffffffffffffffffffffffffffffffffffffff16815260200191505060405180910390f35b348015610b7257600080fd5b50610b7b6126f4565b604051808273ffffffffffffffffffffffffffffffffffffffff1673ffffffffffffffffffffffffffffffffffffffff16815260200191505060405180910390f35b348015610bc957600080fd5b50610bd261270c565b6040518080602001828103825283818151815260200191508051906020019080838360005b83811015610c12578082015181840152602081019050610bf7565b50505050905090810190601f168015610c3f5780820380516001836020036101000a031916815260200191505b509250505060405180910390f35b348015610c5957600080fd5b50610c78600480360381019080803590602001909291905050506127aa565b6040518082815260200191505060405180910390f35b348015610c9a57600080fd5b50610cd9600480360381019080803573ffffffffffffffffffffffffffffffffffffffff1690602001909291908035906020019092919050505061294a565b604051808215151515815260200191505060405180910390f35b348015610cff57600080fd5b50610d0861297c565b604051808215151515815260200191505060405180910390f35b348015610d2e57600080fd5b50610d6d600480360381019080803573ffffffffffffffffffffffffffffffffffffffff1690602001909291908035906020019092919050505061298f565b6040518082815260200191505060405180910390f35b348015610d8f57600080fd5b50610d98612ae8565b6040518082815260200191505060405180910390f35b348015610dba57600080fd5b50610dd960048036038101908080359060200190929190505050612aee565b6040518082815260200191505060405180910390f35b348015610dfb57600080fd5b50610e80600480360381019080803573ffffffffffffffffffffffffffffffffffffffff16906020019092919080359060200190929190803590602001908201803590602001908080601f0160208091040260200160405190810160405280939291908181526020018383808284378201915050505050509192919290505050612b02565b604051808215151515815260200191505060405180910390f35b348015610ea657600080fd5b50610ee5600480360381019080803573ffffffffffffffffffffffffffffffffffffffff16906020019092919080359060200190929190505050612c80565b604051808215151515815260200191505060405180910390f35b348015610f0b57600080fd5b50610f60600480360381019080803573ffffffffffffffffffffffffffffffffffffffff169060200190929190803573ffffffffffffffffffffffffffffffffffffffff169060200190929190505050612dc7565b6040518082815260200191505060405180910390f35b348015610f8257600080fd5b50610fb7600480360381019080803573ffffffffffffffffffffffffffffffffffffffff169060200190929190505050612e4e565b005b348015610fc557600080fd5b50610fce6131ba565b604051808263ffffffff1663ffffffff16815260200191505060405180910390f35b348015610ffc57600080fd5b506110056131d0565b604051808273ffffffffffffffffffffffffffffffffffffffff1673ffffffffffffffffffffffffffffffffffffffff16815260200191505060405180910390f35b34801561105357600080fd5b50611092600480360381019080803573ffffffffffffffffffffffffffffffffffffffff169060200190929190803590602001909291905050506131f6565b6040518082815260200191505060405180910390f35b3480156110b457600080fd5b506110e9600480360381019080803573ffffffffffffffffffffffffffffffffffffffff169060200190929190505050613248565b005b3480156110f757600080fd5b506111186004803603810190808035151590602001909291905050506132af565b005b34801561112657600080fd5b5061112f613328565b604051808273ffffffffffffffffffffffffffffffffffffffff1673ffffffffffffffffffffffffffffffffffffffff16815260200191505060405180910390f35b60008060008373ffffffffffffffffffffffffffffffffffffffff16141561119c57600091506111a7565b823b90506000811191505b50919050565b60028054600181600116156101000203166002900480601f0160208091040260200160405190810160405280929190818152602001828054600181600116156101000203166002900480156112435780601f1061121857610100808354040283529160200191611243565b820191906000526020600020905b81548152906001019060200180831161122657829003601f168201915b505050505081565b6000600c60009054906101000a900460ff16151561126857600080fd5b60008214806112f357506000600a60003373ffffffffffffffffffffffffffffffffffffffff1673ffffffffffffffffffffffffffffffffffffffff16815260200190815260200160002060008573ffffffffffffffffffffffffffffffffffffffff1673ffffffffffffffffffffffffffffffffffffffff16815260200190815260200160002054145b15156112fe57600080fd5b611329600160009054906101000a900473ffffffffffffffffffffffffffffffffffffffff16611171565b1561146e57600160009054906101000a900473ffffffffffffffffffffffffffffffffffffffff1673ffffffffffffffffffffffffffffffffffffffff1663da682aeb3385856040518463ffffffff167c0100000000000000000000000000000000000000000000000000000000028152600401808473ffffffffffffffffffffffffffffffffffffffff1673ffffffffffffffffffffffffffffffffffffffff1681526020018373ffffffffffffffffffffffffffffffffffffffff1673ffffffffffffffffffffffffffffffffffffffff1681526020018281526020019350505050602060405180830381600087803b15801561142757600080fd5b505af115801561143b573d6000803e3d6000fd5b505050506040513d602081101561145157600080fd5b8101908080519060200190929190505050151561146d57600080fd5b5b81600a60003373ffffffffffffffffffffffffffffffffffffffff1673ffffffffffffffffffffffffffffffffffffffff16815260200190815260200160002060008573ffffffffffffffffffffffffffffffffffffffff1673ffffffffffffffffffffffffffffffffffffffff168152602001908152602001600020819055508273ffffffffffffffffffffffffffffffffffffffff163373ffffffffffffffffffffffffffffffffffffffff167f8c5be1e5ebec7d5bd14f71427d1e84f3dd0314c0f7b2291e5b200ac8c7c3b925846040518082815260200191505060405180910390a36001905092915050565b60085481565b600061156f436127aa565b905090565b600080608e60008473ffffffffffffffffffffffffffffffffffffffff1673ffffffffffffffffffffffffffffffffffffffff16815260200190815260200160002090506000818054905014156115ce57600091506115f8565b8060018280549050038154811015156115e357fe5b90600052602060002090600202016000015491505b50919050565b6000600160009054906101000a900473ffffffffffffffffffffffffffffffffffffffff1673ffffffffffffffffffffffffffffffffffffffff163373ffffffffffffffffffffffffffffffffffffffff1614151561178857600c60009054906101000a900460ff16151561167257600080fd5b81600a60008673ffffffffffffffffffffffffffffffffffffffff1673ffffffffffffffffffffffffffffffffffffffff16815260200190815260200160002060003373ffffffffffffffffffffffffffffffffffffffff1673ffffffffffffffffffffffffffffffffffffffff16815260200190815260200160002054101515156116fd57600080fd5b81600a60008673ffffffffffffffffffffffffffffffffffffffff1673ffffffffffffffffffffffffffffffffffffffff16815260200190815260200160002060003373ffffffffffffffffffffffffffffffffffffffff1673ffffffffffffffffffffffffffffffffffffffff168152602001908152602001600020600082825403925050819055505b61179384848461334e565b600190509392505050565b60008060009054906101000a900473ffffffffffffffffffffffffffffffffffffffff1673ffffffffffffffffffffffffffffffffffffffff163373ffffffffffffffffffffffffffffffffffffffff161415156117fb57600080fd5b611845608e60008573ffffffffffffffffffffffffffffffffffffffff1673ffffffffffffffffffffffffffffffffffffffff1681526020019081526020016000208360006136db565b611852608d8360006136db565b6118648361185f84613860565b612584565b151561186f57600080fd5b81905092915050565b600360009054906101000a900460ff1681565b600160009054906101000a900473ffffffffffffffffffffffffffffffffffffffff1673ffffffffffffffffffffffffffffffffffffffff163373ffffffffffffffffffffffffffffffffffffffff161415156118e757600080fd5b80600160006101000a81548173ffffffffffffffffffffffffffffffffffffffff021916908373ffffffffffffffffffffffffffffffffffffffff16021790555050565b6000600c60159054906101000a900463ffffffff1663ffffffff1614151561195257600080fd5b620f4240600c60156101000a81548163ffffffff021916908363ffffffff160217905550611a0673eeeeeeeeeeeeeeeeeeeeeeeeeeeeeeeeeeeeeeee6000806040805190810160405280601581526020017f446973747269637420566f74696e6720546f6b656e000000000000000000000081525060126040805190810160405280600381526020017f44565400000000000000000000000000000000000000000000000000000000008152506000611c61565b60018163ffffffff1610158015611a3b5750600c60159054906101000a900463ffffffff1663ffffffff168163ffffffff1611155b1515611a4657600080fd5b336000806101000a81548173ffffffffffffffffffffffffffffffffffffffff021916908373ffffffffffffffffffffffffffffffffffffffff160217905550611ab06000809054906101000a900473ffffffffffffffffffffffffffffffffffffffff1661188b565b80600c60196101000a81548163ffffffff021916908363ffffffff160217905550611ad96144ae565b604051809103906000f080158015611af5573d6000803e3d6000fd5b50608f60006101000a81548173ffffffffffffffffffffffffffffffffffffffff021916908373ffffffffffffffffffffffffffffffffffffffff160217905550608f60009054906101000a900473ffffffffffffffffffffffffffffffffffffffff1673ffffffffffffffffffffffffffffffffffffffff166394b91deb6040518163ffffffff167c0100000000000000000000000000000000000000000000000000000000028152600401600060405180830381600087803b158015611bbc57600080fd5b505af1158015611bd0573d6000803e3d6000fd5b5050505050565b600080608e60008473ffffffffffffffffffffffffffffffffffffffff1673ffffffffffffffffffffffffffffffffffffffff1681526020019081526020016000209050600081805490501415611c315760009150611c5b565b806001828054905003815481101515611c4657fe5b90600052602060002090600202016001015491505b50919050565b6000600854141515611c7257600080fd5b6040805190810160405280600781526020017f4d4d545f302e320000000000000000000000000000000000000000000000000081525060059080519060200190611cbd9291906144be565b5086600c60016101000a81548173ffffffffffffffffffffffffffffffffffffffff021916908373ffffffffffffffffffffffffffffffffffffffff1602179055508360029080519060200190611d159291906144be565b5082600360006101000a81548160ff021916908360ff1602179055508160049080519060200190611d479291906144be565b5085600660006101000a81548173ffffffffffffffffffffffffffffffffffffffff021916908373ffffffffffffffffffffffffffffffffffffffff1602179055508460078190555080600c60006101000a81548160ff0219169083151502179055504360088190555033600160006101000a81548173ffffffffffffffffffffffffffffffffffffffff021916908373ffffffffffffffffffffffffffffffffffffffff16021790555050505050505050565b600080600960008573ffffffffffffffffffffffffffffffffffffffff1673ffffffffffffffffffffffffffffffffffffffff168152602001908152602001600020805490501480611ed4575081600960008573ffffffffffffffffffffffffffffffffffffffff1673ffffffffffffffffffffffffffffffffffffffff1681526020019081526020016000206000815481101515611e9657fe5b9060005260206000200160000160009054906101000a90046fffffffffffffffffffffffffffffffff166fffffffffffffffffffffffffffffffff16115b15612036576000600660009054906101000a900473ffffffffffffffffffffffffffffffffffffffff1673ffffffffffffffffffffffffffffffffffffffff1614151561202d57600660009054906101000a900473ffffffffffffffffffffffffffffffffffffffff1673ffffffffffffffffffffffffffffffffffffffff16634ee2cd7e84611f66856007546138c7565b6040518363ffffffff167c0100000000000000000000000000000000000000000000000000000000028152600401808373ffffffffffffffffffffffffffffffffffffffff1673ffffffffffffffffffffffffffffffffffffffff16815260200182815260200192505050602060405180830381600087803b158015611feb57600080fd5b505af1158015611fff573d6000803e3d6000fd5b505050506040513d602081101561201557600080fd5b81019080805190602001909291905050509050612081565b60009050612081565b61207e600960008573ffffffffffffffffffffffffffffffffffffffff1673ffffffffffffffffffffffffffffffffffffffff168152602001908152602001600020836138e0565b90505b92915050565b60058054600181600116156101000203166002900480601f01602080910402602001604051908101604052809291908181526020018280546001816001161561010002031660029004801561211d5780601f106120f25761010080835404028352916020019161211d565b820191906000526020600020905b81548152906001019060200180831161210057829003601f168201915b505050505081565b6000806000841415612135574393505b600c60019054906101000a900473ffffffffffffffffffffffffffffffffffffffff1673ffffffffffffffffffffffffffffffffffffffff16635b7b72c130868a8a8a896040518763ffffffff167c0100000000000000000000000000000000000000000000000000000000028152600401808773ffffffffffffffffffffffffffffffffffffffff1673ffffffffffffffffffffffffffffffffffffffff168152602001868152602001806020018560ff1660ff1681526020018060200184151515158152602001838103835287818151815260200191508051906020019080838360005b8381101561223657808201518184015260208101905061221b565b50505050905090810190601f1680156122635780820380516001836020036101000a031916815260200191505b50838103825285818151815260200191508051906020019080838360005b8381101561229c578082015181840152602081019050612281565b50505050905090810190601f1680156122c95780820380516001836020036101000a031916815260200191505b5098505050505050505050602060405180830381600087803b1580156122ee57600080fd5b505af1158015612302573d6000803e3d6000fd5b505050506040513d602081101561231857600080fd5b810190808051906020019092919050505090508073ffffffffffffffffffffffffffffffffffffffff16633cebb823336040518263ffffffff167c0100000000000000000000000000000000000000000000000000000000028152600401808273ffffffffffffffffffffffffffffffffffffffff1673ffffffffffffffffffffffffffffffffffffffff168152602001915050600060405180830381600087803b1580156123c657600080fd5b505af11580156123da573d6000803e3d6000fd5b505050508073ffffffffffffffffffffffffffffffffffffffff167f086c875b377f900b07ce03575813022f05dd10ed7640b5282cf6d3c3fc352ade856040518082815260200191505060405180910390a28091505095945050505050565b60006124458243611dfb565b9050919050565b6000809054906101000a900473ffffffffffffffffffffffffffffffffffffffff1673ffffffffffffffffffffffffffffffffffffffff163373ffffffffffffffffffffffffffffffffffffffff161415156124a757600080fd5b6000809054906101000a900473ffffffffffffffffffffffffffffffffffffffff1673ffffffffffffffffffffffffffffffffffffffff167ff8df31144d9c2f0f6b59d69b8b98abd5459d07f2742c4df920b25aae33c6482060405160405180910390a260008060006101000a81548173ffffffffffffffffffffffffffffffffffffffff021916908373ffffffffffffffffffffffffffffffffffffffff160217905550565b600660009054906101000a900473ffffffffffffffffffffffffffffffffffffffff1681565b600061257f43612aee565b905090565b6000806000600160009054906101000a900473ffffffffffffffffffffffffffffffffffffffff1673ffffffffffffffffffffffffffffffffffffffff163373ffffffffffffffffffffffffffffffffffffffff161415156125e557600080fd5b6125ed611564565b9150818483011015151561260057600080fd5b61260985612439565b9050808482011015151561261c57600080fd5b612629600b858401613aef565b612673600960008773ffffffffffffffffffffffffffffffffffffffff1673ffffffffffffffffffffffffffffffffffffffff168152602001908152602001600020858301613aef565b8473ffffffffffffffffffffffffffffffffffffffff1660007fddf252ad1be2c89b69c2b068fc378daa952ba7f163c4a11628f55a4df523b3ef866040518082815260200191505060405180910390a360019250505092915050565b6000809054906101000a900473ffffffffffffffffffffffffffffffffffffffff1681565b73eeeeeeeeeeeeeeeeeeeeeeeeeeeeeeeeeeeeeeee81565b60048054600181600116156101000203166002900480601f0160208091040260200160405190810160405280929190818152602001828054600181600116156101000203166002900480156127a25780601f10612777576101008083540402835291602001916127a2565b820191906000526020600020905b81548152906001019060200180831161278557829003601f168201915b505050505081565b600080600b805490501480612809575081600b60008154811015156127cb57fe5b9060005260206000200160000160009054906101000a90046fffffffffffffffffffffffffffffffff166fffffffffffffffffffffffffffffffff16115b15612937576000600660009054906101000a900473ffffffffffffffffffffffffffffffffffffffff1673ffffffffffffffffffffffffffffffffffffffff1614151561292e57600660009054906101000a900473ffffffffffffffffffffffffffffffffffffffff1673ffffffffffffffffffffffffffffffffffffffff1663981b24d061289a846007546138c7565b6040518263ffffffff167c010000000000000000000000000000000000000000000000000000000002815260040180828152602001915050602060405180830381600087803b1580156128ec57600080fd5b505af1158015612900573d6000803e3d6000fd5b505050506040513d602081101561291657600080fd5b81019080805190602001909291905050509050612945565b60009050612945565b612942600b836138e0565b90505b919050565b6000600c60009054906101000a900460ff16151561296757600080fd5b61297233848461334e565b6001905092915050565b600c60009054906101000a900460ff1681565b6000806000806000809054906101000a900473ffffffffffffffffffffffffffffffffffffffff1673ffffffffffffffffffffffffffffffffffffffff163373ffffffffffffffffffffffffffffffffffffffff161415156129f057600080fd5b6000851115156129ff57600080fd5b612a0886611bd7565b9250612a1386612439565b9150612a6e612a4586612a37670de0b6b3a764000087613c6390919063ffffffff16565b613d7590919063ffffffff16565b612a60670de0b6b3a764000085613c6390919063ffffffff16565b613d7590919063ffffffff16565b9050612a7a8682612c80565b1515612a8557600080fd5b612acf608e60008873ffffffffffffffffffffffffffffffffffffffff1673ffffffffffffffffffffffffffffffffffffffff1681526020019081526020016000208660016136db565b612adc608d8660016136db565b84935050505092915050565b60075481565b6000612afb608d83613e73565b9050919050565b6000612b0e848461124b565b1515612b1957600080fd5b8373ffffffffffffffffffffffffffffffffffffffff16638f4ffcb1338530866040518563ffffffff167c0100000000000000000000000000000000000000000000000000000000028152600401808573ffffffffffffffffffffffffffffffffffffffff1673ffffffffffffffffffffffffffffffffffffffff1681526020018481526020018373ffffffffffffffffffffffffffffffffffffffff1673ffffffffffffffffffffffffffffffffffffffff16815260200180602001828103825283818151815260200191508051906020019080838360005b83811015612c0e578082015181840152602081019050612bf3565b50505050905090810190601f168015612c3b5780820380516001836020036101000a031916815260200191505b5095505050505050600060405180830381600087803b158015612c5d57600080fd5b505af1158015612c71573d6000803e3d6000fd5b50505050600190509392505050565b6000806000600160009054906101000a900473ffffffffffffffffffffffffffffffffffffffff1673ffffffffffffffffffffffffffffffffffffffff163373ffffffffffffffffffffffffffffffffffffffff16141515612ce157600080fd5b612ce9611564565b9150838210151515612cfa57600080fd5b612d0385612439565b9050838110151515612d1457600080fd5b612d21600b858403613aef565b612d6b600960008773ffffffffffffffffffffffffffffffffffffffff1673ffffffffffffffffffffffffffffffffffffffff168152602001908152602001600020858303613aef565b60008573ffffffffffffffffffffffffffffffffffffffff167fddf252ad1be2c89b69c2b068fc378daa952ba7f163c4a11628f55a4df523b3ef866040518082815260200191505060405180910390a360019250505092915050565b6000600a60008473ffffffffffffffffffffffffffffffffffffffff1673ffffffffffffffffffffffffffffffffffffffff16815260200190815260200160002060008373ffffffffffffffffffffffffffffffffffffffff1673ffffffffffffffffffffffffffffffffffffffff16815260200190815260200160002054905092915050565b600080600160009054906101000a900473ffffffffffffffffffffffffffffffffffffffff1673ffffffffffffffffffffffffffffffffffffffff163373ffffffffffffffffffffffffffffffffffffffff16141515612ead57600080fd5b60008373ffffffffffffffffffffffffffffffffffffffff161415612f5157600160009054906101000a900473ffffffffffffffffffffffffffffffffffffffff1673ffffffffffffffffffffffffffffffffffffffff166108fc3073ffffffffffffffffffffffffffffffffffffffff16319081150290604051600060405180830381858888f19350505050158015612f4b573d6000803e3d6000fd5b506131b5565b8291508173ffffffffffffffffffffffffffffffffffffffff166370a08231306040518263ffffffff167c0100000000000000000000000000000000000000000000000000000000028152600401808273ffffffffffffffffffffffffffffffffffffffff1673ffffffffffffffffffffffffffffffffffffffff168152602001915050602060405180830381600087803b158015612fef57600080fd5b505af1158015613003573d6000803e3d6000fd5b505050506040513d602081101561301957600080fd5b810190808051906020019092919050505090508173ffffffffffffffffffffffffffffffffffffffff1663a9059cbb600160009054906101000a900473ffffffffffffffffffffffffffffffffffffffff16836040518363ffffffff167c0100000000000000000000000000000000000000000000000000000000028152600401808373ffffffffffffffffffffffffffffffffffffffff1673ffffffffffffffffffffffffffffffffffffffff16815260200182815260200192505050602060405180830381600087803b1580156130f157600080fd5b505af1158015613105573d6000803e3d6000fd5b505050506040513d602081101561311b57600080fd5b810190808051906020019092919050505050600160009054906101000a900473ffffffffffffffffffffffffffffffffffffffff1673ffffffffffffffffffffffffffffffffffffffff168373ffffffffffffffffffffffffffffffffffffffff167ff931edb47c50b4b4104c187b5814a9aef5f709e17e2ecf9617e860cacade929c836040518082815260200191505060405180910390a35b505050565b600c60159054906101000a900463ffffffff1681565b600c60019054906101000a900473ffffffffffffffffffffffffffffffffffffffff1681565b6000613240608e60008573ffffffffffffffffffffffffffffffffffffffff1673ffffffffffffffffffffffffffffffffffffffff16815260200190815260200160002083613e73565b905092915050565b6000809054906101000a900473ffffffffffffffffffffffffffffffffffffffff1673ffffffffffffffffffffffffffffffffffffffff163373ffffffffffffffffffffffffffffffffffffffff161415156132a357600080fd5b6132ac81613fa3565b50565b600160009054906101000a900473ffffffffffffffffffffffffffffffffffffffff1673ffffffffffffffffffffffffffffffffffffffff163373ffffffffffffffffffffffffffffffffffffffff1614151561330b57600080fd5b80600c60006101000a81548160ff02191690831515021790555050565b600160009054906101000a900473ffffffffffffffffffffffffffffffffffffffff1681565b60008060008314156133c4578373ffffffffffffffffffffffffffffffffffffffff168573ffffffffffffffffffffffffffffffffffffffff167fddf252ad1be2c89b69c2b068fc378daa952ba7f163c4a11628f55a4df523b3ef856040518082815260200191505060405180910390a36136d4565b436007541015156133d457600080fd5b60008473ffffffffffffffffffffffffffffffffffffffff161415801561342757503073ffffffffffffffffffffffffffffffffffffffff168473ffffffffffffffffffffffffffffffffffffffff1614155b151561343257600080fd5b61343c8543611dfb565b915082821015151561344d57600080fd5b613478600160009054906101000a900473ffffffffffffffffffffffffffffffffffffffff16611171565b156135bd57600160009054906101000a900473ffffffffffffffffffffffffffffffffffffffff1673ffffffffffffffffffffffffffffffffffffffff16634a3931498686866040518463ffffffff167c0100000000000000000000000000000000000000000000000000000000028152600401808473ffffffffffffffffffffffffffffffffffffffff1673ffffffffffffffffffffffffffffffffffffffff1681526020018373ffffffffffffffffffffffffffffffffffffffff1673ffffffffffffffffffffffffffffffffffffffff1681526020018281526020019350505050602060405180830381600087803b15801561357657600080fd5b505af115801561358a573d6000803e3d6000fd5b505050506040513d60208110156135a057600080fd5b810190808051906020019092919050505015156135bc57600080fd5b5b613607600960008773ffffffffffffffffffffffffffffffffffffffff1673ffffffffffffffffffffffffffffffffffffffff168152602001908152602001600020848403613aef565b6136118443611dfb565b9050808382011015151561362457600080fd5b61366e600960008673ffffffffffffffffffffffffffffffffffffffff1673ffffffffffffffffffffffffffffffffffffffff168152602001908152602001600020848301613aef565b8373ffffffffffffffffffffffffffffffffffffffff168573ffffffffffffffffffffffffffffffffffffffff167fddf252ad1be2c89b69c2b068fc378daa952ba7f163c4a11628f55a4df523b3ef856040518082815260200191505060405180910390a35b5050505050565b60008084805490509150600082141561374b5784604080519081016040528043815260200186815250908060018154018082558091505090600182039060005260206000209060020201600090919290919091506000820151816000015560208201518160010155505050613859565b43856001840381548110151561375d57fe5b90600052602060002090600202016000015410156137f057846040805190810160405280438152602001876001860381548110151561379857fe5b9060005260206000209060020201600101548152509080600181540180825580915050906001820390600052602060002090600202016000909192909190915060008201518160000155602082015181600101555050505b84828154811015156137fe57fe5b9060005260206000209060020201905082156138385761382b84826001015461409d90919063ffffffff16565b8160010181905550613858565b61384f84826001015461419290919063ffffffff16565b81600101819055505b5b5050505050565b60006138c0613887678ac7230489e80000613879611564565b61419290919063ffffffff16565b6138a7655af3107a4000613899612574565b61419290919063ffffffff16565b600c60199054906101000a900463ffffffff1685614287565b9050919050565b60008183106138d657816138d8565b825b905092915050565b6000806000806000868054905014156138fc5760009350613ae6565b85600187805490500381548110151561391157fe5b9060005260206000200160000160009054906101000a90046fffffffffffffffffffffffffffffffff166fffffffffffffffffffffffffffffffff16851015156139ad5785600187805490500381548110151561396a57fe5b9060005260206000200160000160109054906101000a90046fffffffffffffffffffffffffffffffff166fffffffffffffffffffffffffffffffff169350613ae6565b8560008154811015156139bc57fe5b9060005260206000200160000160009054906101000a90046fffffffffffffffffffffffffffffffff166fffffffffffffffffffffffffffffffff16851015613a085760009350613ae6565b60009250600186805490500391505b82821115613a99576002600184840101811515613a3057fe5b049050848682815481101515613a4257fe5b9060005260206000200160000160009054906101000a90046fffffffffffffffffffffffffffffffff166fffffffffffffffffffffffffffffffff16111515613a8d57809250613a94565b6001810391505b613a17565b8583815481101515613aa757fe5b9060005260206000200160000160109054906101000a90046fffffffffffffffffffffffffffffffff166fffffffffffffffffffffffffffffffff1693505b50505092915050565b600080600084805490501480613b54575043846001868054905003815481101515613b1657fe5b9060005260206000200160000160009054906101000a90046fffffffffffffffffffffffffffffffff166fffffffffffffffffffffffffffffffff16105b15613c005783848054809190600101613b6d919061453e565b815481101515613b7957fe5b906000526020600020019150438260000160006101000a8154816fffffffffffffffffffffffffffffffff02191690836fffffffffffffffffffffffffffffffff160217905550828260000160106101000a8154816fffffffffffffffffffffffffffffffff02191690836fffffffffffffffffffffffffffffffff160217905550613c5d565b836001858054905003815481101515613c1557fe5b906000526020600020019050828160000160106101000a8154816fffffffffffffffffffffffffffffffff02191690836fffffffffffffffffffffffffffffffff1602179055505b50505050565b6000806000841415613c785760009150613d6e565b8284029050828482811515613c8957fe5b04146040805190810160405280601181526020017f4d4154485f4d554c5f4f564552464c4f57000000000000000000000000000000815250901515613d69576040517f08c379a00000000000000000000000000000000000000000000000000000000081526004018080602001828103825283818151815260200191508051906020019080838360005b83811015613d2e578082015181840152602081019050613d13565b50505050905090810190601f168015613d5b5780820380516001836020036101000a031916815260200191505b509250505060405180910390fd5b508091505b5092915050565b600080600083116040805190810160405280600d81526020017f4d4154485f4449565f5a45524f00000000000000000000000000000000000000815250901515613e5a576040517f08c379a00000000000000000000000000000000000000000000000000000000081526004018080602001828103825283818151815260200191508051906020019080838360005b83811015613e1f578082015181840152602081019050613e04565b50505050905090810190601f168015613e4c5780820380516001836020036101000a031916815260200191505b509250505060405180910390fd5b508284811515613e6657fe5b0490508091505092915050565b6000806000806000868054905093506000841480613eb05750866000815481101515613e9b57fe5b90600052602060002090600202016000015486105b15613ebe5760009450613f99565b8660018503815481101515613ecf57fe5b90600052602060002090600202016000015486101515613f13578660018503815481101515613efa57fe5b9060005260206000209060020201600101549450613f99565b600092506001840391505b82821115613f76576002600184840101811515613f3757fe5b049050858782815481101515613f4957fe5b906000526020600020906002020160000154111515613f6a57809250613f71565b6001810391505b613f1e565b8683815481101515613f8457fe5b90600052602060002090600202016001015494505b5050505092915050565b600073ffffffffffffffffffffffffffffffffffffffff168173ffffffffffffffffffffffffffffffffffffffff1614151515613fdf57600080fd5b8073ffffffffffffffffffffffffffffffffffffffff166000809054906101000a900473ffffffffffffffffffffffffffffffffffffffff1673ffffffffffffffffffffffffffffffffffffffff167f8be0079c531659141344cd1fd0a4f28419497f9722a3daafe3b4186f6b6457e060405160405180910390a3806000806101000a81548173ffffffffffffffffffffffffffffffffffffffff021916908373ffffffffffffffffffffffffffffffffffffffff16021790555050565b600080838311156040805190810160405280601281526020017f4d4154485f5355425f554e444552464c4f570000000000000000000000000000815250901515614182576040517f08c379a00000000000000000000000000000000000000000000000000000000081526004018080602001828103825283818151815260200191508051906020019080838360005b8381101561414757808201518184015260208101905061412c565b50505050905090810190601f1680156141745780820380516001836020036101000a031916815260200191505b509250505060405180910390fd5b5082840390508091505092915050565b6000808284019050838110156040805190810160405280601181526020017f4d4154485f4144445f4f564552464c4f5700000000000000000000000000000081525090151561427c576040517f08c379a00000000000000000000000000000000000000000000000000000000081526004018080602001828103825283818151815260200191508051906020019080838360005b83811015614241578082015181840152602081019050614226565b50505050905090810190601f16801561426e5780820380516001836020036101000a031916815260200191505b509250505060405180910390fd5b508091505092915050565b6000806000806000808911801561429e5750600088115b80156142b0575060008763ffffffff16115b80156142da5750600c60159054906101000a900463ffffffff1663ffffffff168763ffffffff1611155b15156142e557600080fd5b60008614156142f757600094506144a2565b600c60159054906101000a900463ffffffff1663ffffffff168763ffffffff1614156143495761434288614334888c613c6390919063ffffffff16565b613d7590919063ffffffff16565b94506144a2565b61435c888761419290919063ffffffff16565b9150608f60009054906101000a900473ffffffffffffffffffffffffffffffffffffffff1673ffffffffffffffffffffffffffffffffffffffff166332833d51838a8a600c60159054906101000a900463ffffffff166040518563ffffffff167c0100000000000000000000000000000000000000000000000000000000028152600401808581526020018481526020018363ffffffff1663ffffffff1681526020018263ffffffff1663ffffffff1681526020019450505050506040805180830381600087803b15801561443057600080fd5b505af1158015614444573d6000803e3d6000fd5b505050506040513d604081101561445a57600080fd5b81019080805190602001909291908051906020019092919050505080945081955050508260ff16614494858b613c6390919063ffffffff16565b9060020a9004905088810394505b50505050949350505050565b6040516101a0806145f583390190565b828054600181600116156101000203166002900490600052602060002090601f016020900481019282601f106144ff57805160ff191683800117855561452d565b8280016001018555821561452d579182015b8281111561452c578251825591602001919060010190614511565b5b50905061453a919061456a565b5090565b81548183558181111561456557818360005260206000209182019101614564919061458f565b5b505050565b61458c91905b80821115614588576000816000905550600101614570565b5090565b90565b6145f191905b808211156145ed57600080820160006101000a8154906fffffffffffffffffffffffffffffffff02191690556000820160106101000a8154906fffffffffffffffffffffffffffffffff021916905550600101614595565b5090565b905600608060405234801561001057600080fd5b50610180806100206000396000f300608060405260043610610041576000357c0100000000000000000000000000000000000000000000000000000000900463ffffffff168063d4b8399214610094575b61009273beefbeefbeefbeefbeefbeefbeefbeefbeefbeef6000368080601f0160208091040260200160405190810160405280939291908181526020018383808284378201915050505050506100eb565b005b3480156100a057600080fd5b506100a9610129565b604051808273ffffffffffffffffffffffffffffffffffffffff1673ffffffffffffffffffffffffffffffffffffffff16815260200191505060405180910390f35b6100f482610141565b15156100ff57600080fd5b600080825160208401856127105a03f43d604051816000823e8260008114610125578282f35b8282fd5b73beefbeefbeefbeefbeefbeefbeefbeefbeefbeef81565b600080823b9050600081119150509190505600a165627a7a72305820144734fcc804b3f034561533e7ca0d5369ac068ed4a8b28637ca6be1140288870029a165627a7a723058208cc871d08e6cf090414bf59df3b97973a73ca18f13978c0053a524e7c8c6f93b0029",
  "source": "pragma solidity ^0.4.24;\n\nimport \"./Power.sol\";\nimport \"@aragon/os/contracts/lib/math/SafeMath.sol\";\nimport \"./ownership/Ownable.sol\";\nimport \"./minime/MiniMeTokenProxyTarget.sol\";\nimport \"./proxy/Forwarder1.sol\";\n\ncontract StakeBank is Ownable, MiniMeTokenProxyTarget {\n\n  MiniMeTokenFactory public constant minimeTokenFactory = MiniMeTokenFactory(0xEeeeeEeeeEeEeeEeEeEeeEEEeeeeEeeeeeeeEEeE);\n  uint32 public MAX_WEIGHT;\n  using SafeMath for uint256;\n\n  /**\n   * @dev reserve ratio, represented in ppm, 1-1000000\n   * 1/3 corresponds to y= multiple * x^2\n   * 1/2 corresponds to y= multiple * x\n   * 2/3 corresponds to y= multiple * x^1/2\n   * multiple will depends on contract initialization,\n   * specificallytotalAmount and poolBalance parameters\n   * we might want to add an 'initialize' function that will allow\n   * the owner to send ether to the contract and mint a given amount of tokens\n   */\n  uint32 private dntWeight;\n\n  uint256[128] private maxExpArray;\n\n  StakeBankCheckpoint[] private stakeHistory;\n  mapping (address => StakeBankCheckpoint[]) private stakesFor;\n\n  Power private power;\n\n  struct StakeBankCheckpoint {\n    uint256 at;\n    uint256 amount;\n  }\n\n  function construct(\n    uint32 _dntWeight\n  )\n    public\n  {\n    require(MAX_WEIGHT == 0);\n    MAX_WEIGHT = 1000000;\n    super.construct(\n      address(minimeTokenFactory),\n      0x0,\n      0,\n      \"District Voting Token\",\n      18,\n      \"DVT\",\n      false\n    );\n\n    require(_dntWeight >= 1 && _dntWeight <= MAX_WEIGHT);\n    owner = msg.sender;\n    changeController(owner);\n    dntWeight = _dntWeight;\n    power = Power(new Forwarder1());\n    power.construct();\n  }\n\n  /**\n   * @dev given a token supply, connector balance, weight and a deposit amount (in the connector token),\n   * calculates the return for a given conversion (in the main token)\n   *\n   * Formula:\n   * Return = _supply * ((1 + _depositAmount / _connectorBalance) ^ (_connectorWeight / 1000000) - 1)\n   *\n   * @param _supply              token total supply\n   * @param _connectorBalance    total connector balance\n   * @param _connectorWeight     connector weight, represented in ppm, 1-1000000\n   * @param _depositAmount       deposit amount, in connector token\n   *\n   *  @return purchase return amount\n   */\n  function calculatePurchaseReturn(\n    uint256 _supply,\n    uint256 _connectorBalance,\n    uint32 _connectorWeight,\n    uint256 _depositAmount\n  )\n    private constant returns (uint256)\n  {\n    // validate input\n    require(_supply > 0 && _connectorBalance > 0 && _connectorWeight > 0 && _connectorWeight <= MAX_WEIGHT);\n    // special case for 0 deposit amount\n    if (_depositAmount == 0) {\n      return 0;\n    }\n    // special case if the weight = 100%\n    if (_connectorWeight == MAX_WEIGHT) {\n      return _supply.mul(_depositAmount).div(_connectorBalance);\n    }\n    uint256 result;\n    uint8 precision;\n    uint256 baseN = _depositAmount.add(_connectorBalance);\n    (result, precision) = power.power(baseN, _connectorBalance, _connectorWeight, MAX_WEIGHT);\n    uint256 temp = _supply.mul(result) >> precision;\n    return temp - _supply;\n  }\n\n  function estimateReturnForStake(uint _amount) private view returns (uint) {\n    return calculatePurchaseReturn(\n      totalSupply().add(1e19),\n      totalStaked().add(1e14),\n      dntWeight,\n      _amount\n    );\n  }\n\n  function stakeFor(address user, uint256 amount) public onlyOwner returns (uint) {\n    updateStakeBankCheckpointAtNow(stakesFor[user], amount, false);\n    updateStakeBankCheckpointAtNow(stakeHistory, amount, false);\n    require(generateTokens(user, estimateReturnForStake(amount)));\n    return amount;\n  }\n\n  function unstake(address user, uint256 amount) public onlyOwner returns (uint) {\n    require(amount > 0);\n    uint staked = totalStakedFor(user);\n    uint minted = balanceOf(user);\n    uint toDestroy = minted.mul(1000000000000000000).div(staked.mul(1000000000000000000).div(amount));\n    require(destroyTokens(user, toDestroy));\n    updateStakeBankCheckpointAtNow(stakesFor[user], amount, true);\n    updateStakeBankCheckpointAtNow(stakeHistory, amount, true);\n    return amount;\n  }\n\n  function totalStakedFor(address addr) public view returns (uint256) {\n    StakeBankCheckpoint[] storage stakes = stakesFor[addr];\n    if (stakes.length == 0) {\n      return 0;\n    }\n    return stakes[stakes.length-1].amount;\n  }\n\n  function totalStaked() public view returns (uint256) {\n    return totalStakedAt(block.number);\n  }\n\n  function lastStakedFor(address addr) public view returns (uint256) {\n    StakeBankCheckpoint[] storage stakes = stakesFor[addr];\n    if (stakes.length == 0) {\n      return 0;\n    }\n    return stakes[stakes.length-1].at;\n  }\n\n  function totalStakedForAt(address addr, uint256 blockNumber) public view returns (uint256) {\n    return stakedAt(stakesFor[addr], blockNumber);\n  }\n\n  function totalStakedAt(uint256 blockNumber) public view returns (uint256) {\n    return stakedAt(stakeHistory, blockNumber);\n  }\n\n  function updateStakeBankCheckpointAtNow(StakeBankCheckpoint[] storage history, uint256 amount, bool isUnstake) \n    private {\n    uint256 length = history.length;\n    if (length == 0) {\n      history.push(StakeBankCheckpoint({at: block.number, amount: amount}));\n      return;\n    }\n    if (history[length-1].at < block.number) {\n      history.push(StakeBankCheckpoint({at: block.number, amount: history[length-1].amount}));\n    }\n    StakeBankCheckpoint storage checkpoint = history[length];\n    if (isUnstake) {\n      checkpoint.amount = checkpoint.amount.sub(amount);\n    } else {\n      checkpoint.amount = checkpoint.amount.add(amount);\n    }\n  }\n\n  function stakedAt(StakeBankCheckpoint[] storage history, uint256 blockNumber) private view returns (uint256) {\n    uint256 length = history.length;\n    if (length == 0 || blockNumber < history[0].at) {\n      return 0;\n    }\n    if (blockNumber >= history[length-1].at) {\n      return history[length-1].amount;\n    }\n    uint min = 0;\n    uint max = length-1;\n    while (max > min) {\n      uint mid = (max + min + 1) / 2;\n      if (history[mid].at <= blockNumber) {\n        min = mid;\n      } else {\n        max = mid-1;\n      }\n    }\n    return history[min].amount;\n  }\n}\n",
  "sourcePath": "/Users/matus/www/district0x/district-registry/contracts/StakeBank.sol",
  "compiler": {
    "name": "solc",
    "version": "0.4.24+commit.e67f0147.Emscripten.clang"
  },
  "schemaVersion": "3.0.10",
  "updatedAt": "2019-07-02T16:11:40.636Z",
  "devdoc": {
    "methods": {
      "allowance(address,address)": {
        "details": "This function makes it easy to read the `allowed[]` map",
        "params": {
          "_owner": "The address of the account that owns the token",
          "_spender": "The address of the account able to transfer the tokens"
        },
        "return": "Amount of remaining tokens of _owner that _spender is allowed  to spend"
      },
      "approve(address,uint256)": {
        "params": {
          "_amount": "The amount of tokens to be approved for transfer",
          "_spender": "The address of the account able to transfer the tokens"
        },
        "return": "True if the approval was successful"
      },
      "approveAndCall(address,uint256,bytes)": {
        "params": {
          "_amount": "The amount of tokens to be approved for transfer",
          "_spender": "The address of the contract able to transfer the tokens"
        },
        "return": "True if the function call was successful"
      },
      "balanceOf(address)": {
        "params": {
          "_owner": "The address that's balance is being requested"
        },
        "return": "The balance of `_owner` at the current block"
      },
      "balanceOfAt(address,uint256)": {
        "details": "Queries the balance of `_owner` at a specific `_blockNumber`",
        "params": {
          "_blockNumber": "The block number when the balance is queried",
          "_owner": "The address from which the balance will be retrieved"
        },
        "return": "The balance at `_blockNumber`"
      },
      "changeController(address)": {
        "params": {
          "_newController": "The new controller of the contract"
        }
      },
      "claimTokens(address)": {
        "params": {
          "_token": "The address of the token contract that you want to recover  set to 0 in case you want to extract ether."
        }
      },
      "construct(address,address,uint256,string,uint8,string,bool)": {
        "params": {
          "_decimalUnits": "Number of decimals of the new token",
          "_parentSnapShotBlock": "Block of the parent token that will  determine the initial distribution of the clone token, set to 0 if it  is a new token",
          "_parentToken": "Address of the parent token, set to 0x0 if it is a  new token",
          "_tokenFactory": "The address of the MiniMeTokenFactory contract that  will create the Clone token contracts, the token factory needs to be  deployed first",
          "_tokenName": "Name of the new token",
          "_tokenSymbol": "Token Symbol for the new token",
          "_transfersEnabled": "If true, tokens will be able to be transferred"
        }
      },
      "createCloneToken(string,uint8,string,uint256,bool)": {
        "params": {
          "_cloneDecimalUnits": "Number of decimals of the smallest unit",
          "_cloneTokenName": "Name of the clone token",
          "_cloneTokenSymbol": "Symbol of the clone token",
          "_snapshotBlock": "Block when the distribution of the parent token is  copied to set the initial distribution of the new clone token;  if the block is zero than the actual block, the current block is used",
          "_transfersEnabled": "True if transfers are allowed in the clone"
        },
        "return": "The address of the new MiniMeToken Contract"
      },
      "destroyTokens(address,uint256)": {
        "params": {
          "_amount": "The quantity of tokens to burn",
          "_owner": "The address that will lose the tokens"
        },
        "return": "True if the tokens are burned correctly"
      },
      "enableTransfers(bool)": {
        "params": {
          "_transfersEnabled": "True if transfers are allowed in the clone"
        }
      },
      "generateTokens(address,uint256)": {
        "params": {
          "_amount": "The quantity of tokens generated",
          "_owner": "The address that will be assigned the new tokens"
        },
        "return": "True if the tokens are generated correctly"
      },
      "renounceOwnership()": {
        "details": "Allows the current owner to relinquish control of the contract."
      },
      "totalSupply()": {
        "details": "This function makes it easy to get the total number of tokens",
        "return": "The total number of tokens"
      },
      "totalSupplyAt(uint256)": {
        "params": {
          "_blockNumber": "The block number when the totalSupply is queried"
        },
        "return": "The total amount of tokens at `_blockNumber`"
      },
      "transfer(address,uint256)": {
        "params": {
          "_amount": "The amount of tokens to be transferred",
          "_to": "The address of the recipient"
        },
        "return": "Whether the transfer was successful or not"
      },
      "transferFrom(address,address,uint256)": {
        "params": {
          "_amount": "The amount of tokens to be transferred",
          "_from": "The address holding the tokens being transferred",
          "_to": "The address of the recipient"
        },
        "return": "True if the transfer was successful"
      },
      "transferOwnership(address)": {
        "details": "Allows the current owner to transfer control of the contract to a newOwner.",
        "params": {
          "_newOwner": "The address to transfer ownership to."
        }
      }
    }
  },
  "userdoc": {
    "methods": {
      "approve(address,uint256)": {
        "notice": "`msg.sender` approves `_spender` to spend `_amount` tokens on  its behalf. This is a modified version of the ERC20 approve function  to be a little bit safer"
      },
      "approveAndCall(address,uint256,bytes)": {
        "notice": "`msg.sender` approves `_spender` to send `_amount` tokens on  its behalf, and then a function is triggered in the contract that is  being approved, `_spender`. This allows users to use their tokens to  interact with contracts in one function call instead of two"
      },
      "balanceOfAt(address,uint256)": {
        "notice": "/////////////"
      },
      "changeController(address)": {
        "notice": "Changes the controller of the contract"
      },
      "claimTokens(address)": {
        "notice": "///////This method can be used by the controller to extract mistakenly  sent tokens to this contract."
      },
      "construct(address,address,uint256,string,uint8,string,bool)": {
        "notice": "/////////////Constructor to create a MiniMeToken"
      },
      "createCloneToken(string,uint8,string,uint256,bool)": {
        "notice": "/////////////Creates a new clone token with the initial distribution being  this token at `_snapshotBlock`"
      },
      "destroyTokens(address,uint256)": {
        "notice": "Burns `_amount` tokens from `_owner`"
      },
      "enableTransfers(bool)": {
        "notice": "/////////////Enables token holders to transfer their tokens freely if true"
      },
      "generateTokens(address,uint256)": {
        "notice": "/////////////Generates `_amount` tokens that are assigned to `_owner`"
      },
      "renounceOwnership()": {
        "notice": "Renouncing to ownership will leave the contract without an owner. It will not be possible to call the functions with the `onlyOwner` modifier anymore."
      },
      "totalSupplyAt(uint256)": {
        "notice": "Total amount of tokens at a specific `_blockNumber`."
      },
      "transfer(address,uint256)": {
        "notice": "////////////////Send `_amount` tokens to `_to` from `msg.sender`"
      },
      "transferFrom(address,address,uint256)": {
        "notice": "Send `_amount` tokens to `_to` from `_from` on the condition it  is approved by `_from`"
      }
    }
  }
}