{
  "contractName": "Vault",
  "abi": [
    {
      "constant": true,
      "inputs": [],
      "name": "hasInitialized",
      "outputs": [
        {
          "name": "",
          "type": "bool"
        }
      ],
      "payable": false,
      "stateMutability": "view",
      "type": "function"
    },
    {
      "constant": true,
      "inputs": [],
      "name": "TRANSFER_ROLE",
      "outputs": [
        {
          "name": "",
          "type": "bytes32"
        }
      ],
      "payable": false,
      "stateMutability": "view",
      "type": "function"
    },
    {
      "constant": true,
      "inputs": [
        {
          "name": "_script",
          "type": "bytes"
        }
      ],
      "name": "getEVMScriptExecutor",
      "outputs": [
        {
          "name": "",
          "type": "address"
        }
      ],
      "payable": false,
      "stateMutability": "view",
      "type": "function"
    },
    {
      "constant": true,
      "inputs": [],
      "name": "getRecoveryVault",
      "outputs": [
        {
          "name": "",
          "type": "address"
        }
      ],
      "payable": false,
      "stateMutability": "view",
      "type": "function"
    },
    {
      "constant": true,
      "inputs": [],
      "name": "isDepositable",
      "outputs": [
        {
          "name": "",
          "type": "bool"
        }
      ],
      "payable": false,
      "stateMutability": "view",
      "type": "function"
    },
    {
      "constant": true,
      "inputs": [],
      "name": "appId",
      "outputs": [
        {
          "name": "",
          "type": "bytes32"
        }
      ],
      "payable": false,
      "stateMutability": "view",
      "type": "function"
    },
    {
      "constant": true,
      "inputs": [],
      "name": "getInitializationBlock",
      "outputs": [
        {
          "name": "",
          "type": "uint256"
        }
      ],
      "payable": false,
      "stateMutability": "view",
      "type": "function"
    },
    {
      "constant": false,
      "inputs": [
        {
          "name": "_token",
          "type": "address"
        }
      ],
      "name": "transferToVault",
      "outputs": [],
      "payable": false,
      "stateMutability": "nonpayable",
      "type": "function"
    },
    {
      "constant": true,
      "inputs": [
        {
          "name": "_sender",
          "type": "address"
        },
        {
          "name": "_role",
          "type": "bytes32"
        },
        {
          "name": "_params",
          "type": "uint256[]"
        }
      ],
      "name": "canPerform",
      "outputs": [
        {
          "name": "",
          "type": "bool"
        }
      ],
      "payable": false,
      "stateMutability": "view",
      "type": "function"
    },
    {
      "constant": true,
      "inputs": [],
      "name": "getEVMScriptRegistry",
      "outputs": [
        {
          "name": "",
          "type": "address"
        }
      ],
      "payable": false,
      "stateMutability": "view",
      "type": "function"
    },
    {
      "constant": true,
      "inputs": [],
      "name": "kernel",
      "outputs": [
        {
          "name": "",
          "type": "address"
        }
      ],
      "payable": false,
      "stateMutability": "view",
      "type": "function"
    },
    {
      "constant": true,
      "inputs": [],
      "name": "isPetrified",
      "outputs": [
        {
          "name": "",
          "type": "bool"
        }
      ],
      "payable": false,
      "stateMutability": "view",
      "type": "function"
    },
    {
      "payable": true,
      "stateMutability": "payable",
      "type": "fallback"
    },
    {
      "anonymous": false,
      "inputs": [
        {
          "indexed": true,
          "name": "token",
          "type": "address"
        },
        {
          "indexed": true,
          "name": "to",
          "type": "address"
        },
        {
          "indexed": false,
          "name": "amount",
          "type": "uint256"
        }
      ],
      "name": "Transfer",
      "type": "event"
    },
    {
      "anonymous": false,
      "inputs": [
        {
          "indexed": true,
          "name": "token",
          "type": "address"
        },
        {
          "indexed": true,
          "name": "sender",
          "type": "address"
        },
        {
          "indexed": false,
          "name": "amount",
          "type": "uint256"
        }
      ],
      "name": "Deposit",
      "type": "event"
    },
    {
      "anonymous": false,
      "inputs": [
        {
          "indexed": true,
          "name": "executor",
          "type": "address"
        },
        {
          "indexed": false,
          "name": "script",
          "type": "bytes"
        },
        {
          "indexed": false,
          "name": "input",
          "type": "bytes"
        },
        {
          "indexed": false,
          "name": "returnData",
          "type": "bytes"
        }
      ],
      "name": "ScriptResult",
      "type": "event"
    },
    {
      "anonymous": false,
      "inputs": [
        {
          "indexed": true,
          "name": "vault",
          "type": "address"
        },
        {
          "indexed": true,
          "name": "token",
          "type": "address"
        },
        {
          "indexed": false,
          "name": "amount",
          "type": "uint256"
        }
      ],
      "name": "RecoverToVault",
      "type": "event"
    },
    {
      "constant": false,
      "inputs": [],
      "name": "initialize",
      "outputs": [],
      "payable": false,
      "stateMutability": "nonpayable",
      "type": "function"
    },
    {
      "constant": false,
      "inputs": [
        {
          "name": "_token",
          "type": "address"
        },
        {
          "name": "_value",
          "type": "uint256"
        }
      ],
      "name": "deposit",
      "outputs": [],
      "payable": true,
      "stateMutability": "payable",
      "type": "function"
    },
    {
      "constant": false,
      "inputs": [
        {
          "name": "_token",
          "type": "address"
        },
        {
          "name": "_to",
          "type": "address"
        },
        {
          "name": "_value",
          "type": "uint256"
        }
      ],
      "name": "transfer",
      "outputs": [],
      "payable": false,
      "stateMutability": "nonpayable",
      "type": "function"
    },
    {
      "constant": true,
      "inputs": [
        {
          "name": "_token",
          "type": "address"
        }
      ],
      "name": "balance",
      "outputs": [
        {
          "name": "",
          "type": "uint256"
        }
      ],
      "payable": false,
      "stateMutability": "view",
      "type": "function"
    },
    {
      "constant": true,
      "inputs": [
        {
          "name": "",
          "type": "address"
        }
      ],
      "name": "allowRecoverability",
      "outputs": [
        {
          "name": "",
          "type": "bool"
        }
      ],
      "payable": false,
      "stateMutability": "view",
      "type": "function"
    }
  ],
  "bytecode": "0x60806040526200001d62000023640100000000026401000000009004565b62000309565b60006200003e6200015e640100000000026401000000009004565b146040805190810160405280601881526020017f494e49545f414c52454144595f494e495449414c495a4544000000000000000081525090151562000121576040517f08c379a00000000000000000000000000000000000000000000000000000000081526004018080602001828103825283818151815260200191508051906020019080838360005b83811015620000e5578082015181840152602081019050620000c8565b50505050905090810190601f168015620001135780820380516001836020036101000a031916815260200191505b509250505060405180910390fd5b506200015c7fffffffffffffffffffffffffffffffffffffffffffffffffffffffffffffffff620001ab640100000000026401000000009004565b565b6000620001a67febb05b386a8d34882b8711d156f463690983dc47815980fb82aeeff1aa43579e60010260001916620002f764010000000002620021ed176401000000009004565b905090565b6000620001c66200015e640100000000026401000000009004565b146040805190810160405280601881526020017f494e49545f414c52454144595f494e495449414c495a45440000000000000000815250901515620002a9576040517f08c379a00000000000000000000000000000000000000000000000000000000081526004018080602001828103825283818151815260200191508051906020019080838360005b838110156200026d57808201518184015260208101905062000250565b50505050905090810190601f1680156200029b5780820380516001836020036101000a031916815260200191505b509250505060405180910390fd5b50620002f4817febb05b386a8d34882b8711d156f463690983dc47815980fb82aeeff1aa43579e60010260001916620003026401000000000262002568179091906401000000009004565b50565b600081549050919050565b8082555050565b6126bf80620003196000396000f3006080604052600436106100f1576000357c0100000000000000000000000000000000000000000000000000000000900463ffffffff1680630803fac0146102cb578063206b60f9146102fa5780632914b9bd1461032d57806332f0a3b5146103d657806347e7ef241461042d57806348a0c8dd1461046d5780637e7db6e11461049c57806380afdea8146104f75780638129fc1c1461052a5780638b3dd749146105415780639d4941d81461056c578063a1658fad146105af578063a479e5081461065b578063beabacc8146106b2578063d4aae0c41461071f578063de4796ed14610776578063e3d670d7146107a5575b6100f96107fc565b6040805190810160405280601481526020017f494e49545f4e4f545f494e495449414c495a45440000000000000000000000008152509015156101d7576040517f08c379a00000000000000000000000000000000000000000000000000000000081526004018080602001828103825283818151815260200191508051906020019080838360005b8381101561019c578082015181840152602081019050610181565b50505050905090810190601f1680156101c95780820380516001836020036101000a031916815260200191505b509250505060405180910390fd5b50600080369050146040805190810160405280601381526020017f5641554c545f444154415f4e4f4e5f5a45524f000000000000000000000000008152509015156102bd576040517f08c379a00000000000000000000000000000000000000000000000000000000081526004018080602001828103825283818151815260200191508051906020019080838360005b83811015610282578082015181840152602081019050610267565b50505050905090810190601f1680156102af5780820380516001836020036101000a031916815260200191505b509250505060405180910390fd5b506102c9600034610827565b005b3480156102d757600080fd5b506102e06107fc565b604051808215151515815260200191505060405180910390f35b34801561030657600080fd5b5061030f610d68565b60405180826000191660001916815260200191505060405180910390f35b34801561033957600080fd5b50610394600480360381019080803590602001908201803590602001908080601f0160208091040260200160405190810160405280939291908181526020018383808284378201915050505050509192919290505050610da1565b604051808273ffffffffffffffffffffffffffffffffffffffff1673ffffffffffffffffffffffffffffffffffffffff16815260200191505060405180910390f35b3480156103e257600080fd5b506103eb610ec0565b604051808273ffffffffffffffffffffffffffffffffffffffff1673ffffffffffffffffffffffffffffffffffffffff16815260200191505060405180910390f35b61046b600480360381019080803573ffffffffffffffffffffffffffffffffffffffff16906020019092919080359060200190929190505050610f6d565b005b34801561047957600080fd5b50610482611062565b604051808215151515815260200191505060405180910390f35b3480156104a857600080fd5b506104dd600480360381019080803573ffffffffffffffffffffffffffffffffffffffff169060200190929190505050611099565b604051808215151515815260200191505060405180910390f35b34801561050357600080fd5b5061050c6110a3565b60405180826000191660001916815260200191505060405180910390f35b34801561053657600080fd5b5061053f6110da565b005b34801561054d57600080fd5b506105566111d8565b6040518082815260200191505060405180910390f35b34801561057857600080fd5b506105ad600480360381019080803573ffffffffffffffffffffffffffffffffffffffff16906020019092919050505061120f565b005b3480156105bb57600080fd5b50610641600480360381019080803573ffffffffffffffffffffffffffffffffffffffff16906020019092919080356000191690602001909291908035906020019082018035906020019080806020026020016040519081016040528093929190818152602001838360200280828437820191505050505050919291929050505061162d565b604051808215151515815260200191505060405180910390f35b34801561066757600080fd5b50610670611829565b604051808273ffffffffffffffffffffffffffffffffffffffff1673ffffffffffffffffffffffffffffffffffffffff16815260200191505060405180910390f35b3480156106be57600080fd5b5061071d600480360381019080803573ffffffffffffffffffffffffffffffffffffffff169060200190929190803573ffffffffffffffffffffffffffffffffffffffff16906020019092919080359060200190929190505050611944565b005b34801561072b57600080fd5b50610734611eca565b604051808273ffffffffffffffffffffffffffffffffffffffff1673ffffffffffffffffffffffffffffffffffffffff16815260200191505060405180910390f35b34801561078257600080fd5b5061078b611f01565b604051808215151515815260200191505060405180910390f35b3480156107b157600080fd5b506107e6600480360381019080803573ffffffffffffffffffffffffffffffffffffffff169060200190929190505050611f32565b6040518082815260200191505060405180910390f35b6000806108076111d8565b90506000811415801561082157508061081e612065565b10155b91505090565b61082f611062565b6040805190810160405280601581526020017f5641554c545f4e4f545f4445504f53495441424c45000000000000000000000081525090151561090d576040517f08c379a00000000000000000000000000000000000000000000000000000000081526004018080602001828103825283818151815260200191508051906020019080838360005b838110156108d25780820151818401526020810190506108b7565b50505050905090810190601f1680156108ff5780820380516001836020036101000a031916815260200191505b509250505060405180910390fd5b50600081116040805190810160405280601881526020017f5641554c545f4445504f5349545f56414c55455f5a45524f00000000000000008152509015156109f0576040517f08c379a00000000000000000000000000000000000000000000000000000000081526004018080602001828103825283818151815260200191508051906020019080838360005b838110156109b557808201518184015260208101905061099a565b50505050905090810190601f1680156109e25780820380516001836020036101000a031916815260200191505b509250505060405180910390fd5b50600073ffffffffffffffffffffffffffffffffffffffff168273ffffffffffffffffffffffffffffffffffffffff161415610b0d578034146040805190810160405280601481526020017f5641554c545f56414c55455f4d49534d41544348000000000000000000000000815250901515610b07576040517f08c379a00000000000000000000000000000000000000000000000000000000081526004018080602001828103825283818151815260200191508051906020019080838360005b83811015610acc578082015181840152602081019050610ab1565b50505050905090810190601f168015610af95780820380516001836020036101000a031916815260200191505b509250505060405180910390fd5b50610cff565b8173ffffffffffffffffffffffffffffffffffffffff166323b872dd3330846040518463ffffffff167c0100000000000000000000000000000000000000000000000000000000028152600401808473ffffffffffffffffffffffffffffffffffffffff1673ffffffffffffffffffffffffffffffffffffffff1681526020018373ffffffffffffffffffffffffffffffffffffffff1673ffffffffffffffffffffffffffffffffffffffff1681526020018281526020019350505050602060405180830381600087803b158015610be457600080fd5b505af1158015610bf8573d6000803e3d6000fd5b505050506040513d6020811015610c0e57600080fd5b81019080805190602001909291905050506040805190810160405280602081526020017f5641554c545f544f4b454e5f5452414e534645525f46524f4d5f524556455254815250901515610cfd576040517f08c379a00000000000000000000000000000000000000000000000000000000081526004018080602001828103825283818151815260200191508051906020019080838360005b83811015610cc2578082015181840152602081019050610ca7565b50505050905090810190601f168015610cef5780820380516001836020036101000a031916815260200191505b509250505060405180910390fd5b505b3373ffffffffffffffffffffffffffffffffffffffff168273ffffffffffffffffffffffffffffffffffffffff167f5548c837ab068cf56a2c2479df0882a4922fd203edb7517321831d95078c5f62836040518082815260200191505060405180910390a35050565b60405180807f5452414e534645525f524f4c4500000000000000000000000000000000000000815250600d019050604051809103902081565b6000610dab611829565b73ffffffffffffffffffffffffffffffffffffffff166304bf2a7f836040518263ffffffff167c01000000000000000000000000000000000000000000000000000000000281526004018080602001828103825283818151815260200191508051906020019080838360005b83811015610e32578082015181840152602081019050610e17565b50505050905090810190601f168015610e5f5780820380516001836020036101000a031916815260200191505b5092505050602060405180830381600087803b158015610e7e57600080fd5b505af1158015610e92573d6000803e3d6000fd5b505050506040513d6020811015610ea857600080fd5b81019080805190602001909291905050509050919050565b6000610eca611eca565b73ffffffffffffffffffffffffffffffffffffffff166332f0a3b56040518163ffffffff167c0100000000000000000000000000000000000000000000000000000000028152600401602060405180830381600087803b158015610f2d57600080fd5b505af1158015610f41573d6000803e3d6000fd5b505050506040513d6020811015610f5757600080fd5b8101908080519060200190929190505050905090565b610f756107fc565b6040805190810160405280601481526020017f494e49545f4e4f545f494e495449414c495a4544000000000000000000000000815250901515611053576040517f08c379a00000000000000000000000000000000000000000000000000000000081526004018080602001828103825283818151815260200191508051906020019080838360005b83811015611018578082015181840152602081019050610ffd565b50505050905090810190601f1680156110455780820380516001836020036101000a031916815260200191505b509250505060405180910390fd5b5061105e8282610827565b5050565b60006110947f665fd576fbbe6f247aff98f5c94a561e3f71ec2d3c988d56f12d342396c50cea6001026000191661206d565b905090565b6000809050919050565b60006110d57fd625496217aa6a3453eecb9c3489dc5a53e6c67b444329ea2b2cbc9ff547639b60010260001916612078565b905090565b60006110e46111d8565b146040805190810160405280601881526020017f494e49545f414c52454144595f494e495449414c495a454400000000000000008152509015156111c3576040517f08c379a00000000000000000000000000000000000000000000000000000000081526004018080602001828103825283818151815260200191508051906020019080838360005b8381101561118857808201518184015260208101905061116d565b50505050905090810190601f1680156111b55780820380516001836020036101000a031916815260200191505b509250505060405180910390fd5b506111cc612083565b6111d660016121b0565b565b600061120a7febb05b386a8d34882b8711d156f463690983dc47815980fb82aeeff1aa43579e600102600019166121ed565b905090565b600080600061121d84611099565b6040805190810160405280601281526020017f5245434f5645525f444953414c4c4f57454400000000000000000000000000008152509015156112fb576040517f08c379a00000000000000000000000000000000000000000000000000000000081526004018080602001828103825283818151815260200191508051906020019080838360005b838110156112c05780820151818401526020810190506112a5565b50505050905090810190601f1680156112ed5780820380516001836020036101000a031916815260200191505b509250505060405180910390fd5b50611304610ec0565b925061130f836121f8565b6040805190810160405280601a81526020017f5245434f5645525f5641554c545f4e4f545f434f4e54524143540000000000008152509015156113ed576040517f08c379a00000000000000000000000000000000000000000000000000000000081526004018080602001828103825283818151815260200191508051906020019080838360005b838110156113b2578082015181840152602081019050611397565b50505050905090810190601f1680156113df5780820380516001836020036101000a031916815260200191505b509250505060405180910390fd5b50600073ffffffffffffffffffffffffffffffffffffffff168473ffffffffffffffffffffffffffffffffffffffff161415611489573073ffffffffffffffffffffffffffffffffffffffff163191508273ffffffffffffffffffffffffffffffffffffffff166108fc839081150290604051600060405180830381858888f19350505050158015611483573d6000803e3d6000fd5b506115c2565b8390506114b5308273ffffffffffffffffffffffffffffffffffffffff1661224a90919063ffffffff16565b91506114e283838373ffffffffffffffffffffffffffffffffffffffff166124249092919063ffffffff16565b6040805190810160405280601d81526020017f5245434f5645525f544f4b454e5f5452414e534645525f4641494c45440000008152509015156115c0576040517f08c379a00000000000000000000000000000000000000000000000000000000081526004018080602001828103825283818151815260200191508051906020019080838360005b8381101561158557808201518184015260208101905061156a565b50505050905090810190601f1680156115b25780820380516001836020036101000a031916815260200191505b509250505060405180910390fd5b505b8373ffffffffffffffffffffffffffffffffffffffff168373ffffffffffffffffffffffffffffffffffffffff167f596caf56044b55fb8c4ca640089bbc2b63cae3e978b851f5745cbb7c5b288e02846040518082815260200191505060405180910390a350505050565b6000806116386107fc565b15156116475760009150611821565b61164f611eca565b9050600073ffffffffffffffffffffffffffffffffffffffff168173ffffffffffffffffffffffffffffffffffffffff16141561168f5760009150611821565b8073ffffffffffffffffffffffffffffffffffffffff1663fdef91068630876116b788612504565b6040518563ffffffff167c0100000000000000000000000000000000000000000000000000000000028152600401808573ffffffffffffffffffffffffffffffffffffffff1673ffffffffffffffffffffffffffffffffffffffff1681526020018473ffffffffffffffffffffffffffffffffffffffff1673ffffffffffffffffffffffffffffffffffffffff168152602001836000191660001916815260200180602001828103825283818151815260200191508051906020019080838360005b83811015611794578082015181840152602081019050611779565b50505050905090810190601f1680156117c15780820380516001836020036101000a031916815260200191505b5095505050505050602060405180830381600087803b1580156117e357600080fd5b505af11580156117f7573d6000803e3d6000fd5b505050506040513d602081101561180d57600080fd5b810190808051906020019092919050505091505b509392505050565b600080611834611eca565b73ffffffffffffffffffffffffffffffffffffffff1663be00bbd87fd6f028ca0e8edb4a8c9757ca4fdccab25fa1e0317da1188108f7d2dee14902fb6001027fddbcfd564f642ab5627cf68b9b7d374fb4f8a36e941a75d89c87998cef03bd616001026040518363ffffffff167c0100000000000000000000000000000000000000000000000000000000028152600401808360001916600019168152602001826000191660001916815260200192505050602060405180830381600087803b15801561190057600080fd5b505af1158015611914573d6000803e3d6000fd5b505050506040513d602081101561192a57600080fd5b810190808051906020019092919050505090508091505090565b60405180807f5452414e534645525f524f4c4500000000000000000000000000000000000000815250600d019050604051809103902061198584848461251b565b61199033838361162d565b6040805190810160405280600f81526020017f4150505f415554485f4641494c45440000000000000000000000000000000000815250901515611a6e576040517f08c379a00000000000000000000000000000000000000000000000000000000081526004018080602001828103825283818151815260200191508051906020019080838360005b83811015611a33578082015181840152602081019050611a18565b50505050905090810190601f168015611a605780820380516001836020036101000a031916815260200191505b509250505060405180910390fd5b50600083116040805190810160405280601981526020017f5641554c545f5452414e534645525f56414c55455f5a45524f00000000000000815250901515611b51576040517f08c379a00000000000000000000000000000000000000000000000000000000081526004018080602001828103825283818151815260200191508051906020019080838360005b83811015611b16578082015181840152602081019050611afb565b50505050905090810190601f168015611b435780820380516001836020036101000a031916815260200191505b509250505060405180910390fd5b50600073ffffffffffffffffffffffffffffffffffffffff168573ffffffffffffffffffffffffffffffffffffffff161415611ca0578373ffffffffffffffffffffffffffffffffffffffff166108fc849081150290604051600060405180830381858888f193505050506040805190810160405280601381526020017f5641554c545f53454e445f524556455254454400000000000000000000000000815250901515611c9a576040517f08c379a00000000000000000000000000000000000000000000000000000000081526004018080602001828103825283818151815260200191508051906020019080838360005b83811015611c5f578082015181840152602081019050611c44565b50505050905090810190601f168015611c8c5780820380516001836020036101000a031916815260200191505b509250505060405180910390fd5b50611e5e565b8473ffffffffffffffffffffffffffffffffffffffff1663a9059cbb85856040518363ffffffff167c0100000000000000000000000000000000000000000000000000000000028152600401808373ffffffffffffffffffffffffffffffffffffffff1673ffffffffffffffffffffffffffffffffffffffff16815260200182815260200192505050602060405180830381600087803b158015611d4357600080fd5b505af1158015611d57573d6000803e3d6000fd5b505050506040513d6020811015611d6d57600080fd5b81019080805190602001909291905050506040805190810160405280601d81526020017f5641554c545f544f4b454e5f5452414e534645525f5245564552544544000000815250901515611e5c576040517f08c379a00000000000000000000000000000000000000000000000000000000081526004018080602001828103825283818151815260200191508051906020019080838360005b83811015611e21578082015181840152602081019050611e06565b50505050905090810190601f168015611e4e5780820380516001836020036101000a031916815260200191505b509250505060405180910390fd5b505b8373ffffffffffffffffffffffffffffffffffffffff168573ffffffffffffffffffffffffffffffffffffffff167fddf252ad1be2c89b69c2b068fc378daa952ba7f163c4a11628f55a4df523b3ef856040518082815260200191505060405180910390a35050505050565b6000611efc7f4172f0f7d2289153072b0a6ca36959e0cbe2efc3afe50fc81636caa96338137b6001026000191661255d565b905090565b60007fffffffffffffffffffffffffffffffffffffffffffffffffffffffffffffffff611f2c6111d8565b14905090565b60008073ffffffffffffffffffffffffffffffffffffffff168273ffffffffffffffffffffffffffffffffffffffff161415611f87573073ffffffffffffffffffffffffffffffffffffffff16319050612060565b8173ffffffffffffffffffffffffffffffffffffffff166370a08231306040518263ffffffff167c0100000000000000000000000000000000000000000000000000000000028152600401808273ffffffffffffffffffffffffffffffffffffffff1673ffffffffffffffffffffffffffffffffffffffff168152602001915050602060405180830381600087803b15801561202257600080fd5b505af1158015612036573d6000803e3d6000fd5b505050506040513d602081101561204c57600080fd5b810190808051906020019092919050505090505b919050565b600043905090565b600081549050919050565b600081549050919050565b600061208d6111d8565b146040805190810160405280601881526020017f494e49545f414c52454144595f494e495449414c495a4544000000000000000081525090151561216c576040517f08c379a00000000000000000000000000000000000000000000000000000000081526004018080602001828103825283818151815260200191508051906020019080838360005b83811015612131578082015181840152602081019050612116565b50505050905090810190601f16801561215e5780820380516001836020036101000a031916815260200191505b509250505060405180910390fd5b506121ae612178612065565b7febb05b386a8d34882b8711d156f463690983dc47815980fb82aeeff1aa43579e6001026000191661256890919063ffffffff16565b565b6121ea817f665fd576fbbe6f247aff98f5c94a561e3f71ec2d3c988d56f12d342396c50cea6001026000191661256f90919063ffffffff16565b50565b600081549050919050565b600080600073ffffffffffffffffffffffffffffffffffffffff168373ffffffffffffffffffffffffffffffffffffffff1614156122395760009150612244565b823b90506000811191505b50919050565b600060606000808573ffffffffffffffffffffffffffffffffffffffff166370a0823190507c01000000000000000000000000000000000000000000000000000000000285604051602401808273ffffffffffffffffffffffffffffffffffffffff1673ffffffffffffffffffffffffffffffffffffffff168152602001915050604051602081830303815290604052907bffffffffffffffffffffffffffffffffffffffffffffffffffffffff19166020820180517bffffffffffffffffffffffffffffffffffffffffffffffffffffffff838183161783525050505092506123348684612576565b91509150816040805190810160405280601c81526020017f534146455f4552435f32305f42414c414e43455f524556455254454400000000815250901515612417576040517f08c379a00000000000000000000000000000000000000000000000000000000081526004018080602001828103825283818151815260200191508051906020019080838360005b838110156123dc5780820151818401526020810190506123c1565b50505050905090810190601f1680156124095780820380516001836020036101000a031916815260200191505b509250505060405180910390fd5b5080935050505092915050565b6000606063a9059cbb7c0100000000000000000000000000000000000000000000000000000000028484604051602401808373ffffffffffffffffffffffffffffffffffffffff1673ffffffffffffffffffffffffffffffffffffffff16815260200182815260200192505050604051602081830303815290604052907bffffffffffffffffffffffffffffffffffffffffffffffffffffffff19166020820180517bffffffffffffffffffffffffffffffffffffffffffffffffffffffff838183161783525050505090506124fa85826125ab565b9150509392505050565b606060006020835102905082915080825250919050565b60606125548473ffffffffffffffffffffffffffffffffffffffff168473ffffffffffffffffffffffffffffffffffffffff16846125fd565b90509392505050565b600081549050919050565b8082555050565b8082555050565b6000806000806040516020818751602089018a5afa9250600083111561259b57805191505b5081819350935050509250929050565b6000806040516020818551602087016000895af160008111156125f1573d600081146125de57602081146125e7576125ef565b600193506125ef565b600183511493505b505b50508091505092915050565b6060600360405190808252806020026020018201604052801561262f5781602001602082028038833980820191505090505b5090508381600081518110151561264257fe5b90602001906020020181815250508281600181518110151561266057fe5b90602001906020020181815250508181600281518110151561267e57fe5b906020019060200201818152505093925050505600a165627a7a72305820fa461c560f15d4ee26c148d6483710c7ba84e218af0d2e59fec1c241231a11610029",
  "source": "pragma solidity 0.4.24;\n\nimport \"@aragon/os/contracts/apps/AragonApp.sol\";\nimport \"@aragon/os/contracts/common/DepositableStorage.sol\";\nimport \"@aragon/os/contracts/common/EtherTokenConstant.sol\";\nimport \"@aragon/os/contracts/lib/token/ERC20.sol\";\n\n\ncontract Vault is EtherTokenConstant, AragonApp, DepositableStorage {\n    bytes32 public constant TRANSFER_ROLE = keccak256(\"TRANSFER_ROLE\");\n\n    string private constant ERROR_DATA_NON_ZERO = \"VAULT_DATA_NON_ZERO\";\n    string private constant ERROR_NOT_DEPOSITABLE = \"VAULT_NOT_DEPOSITABLE\";\n    string private constant ERROR_DEPOSIT_VALUE_ZERO = \"VAULT_DEPOSIT_VALUE_ZERO\";\n    string private constant ERROR_TRANSFER_VALUE_ZERO = \"VAULT_TRANSFER_VALUE_ZERO\";\n    string private constant ERROR_SEND_REVERTED = \"VAULT_SEND_REVERTED\";\n    string private constant ERROR_VALUE_MISMATCH = \"VAULT_VALUE_MISMATCH\";\n    string private constant ERROR_TOKEN_TRANSFER_FROM_REVERTED = \"VAULT_TOKEN_TRANSFER_FROM_REVERT\";\n    string private constant ERROR_TOKEN_TRANSFER_REVERTED = \"VAULT_TOKEN_TRANSFER_REVERTED\";\n\n    event Transfer(address indexed token, address indexed to, uint256 amount);\n    event Deposit(address indexed token, address indexed sender, uint256 amount);\n\n    /**\n    * @dev On a normal send() or transfer() this fallback is never executed as it will be\n    *      intercepted by the Proxy (see aragonOS#281)\n    */\n    function () external payable isInitialized {\n        require(msg.data.length == 0, ERROR_DATA_NON_ZERO);\n        _deposit(ETH, msg.value);\n    }\n\n    /**\n    * @notice Initialize Vault app\n    * @dev As an AragonApp it needs to be initialized in order for roles (`auth` and `authP`) to work\n    */\n    function initialize() external onlyInit {\n        initialized();\n        setDepositable(true);\n    }\n\n    /**\n    * @notice Deposit `_value` `_token` to the vault\n    * @param _token Address of the token being transferred\n    * @param _value Amount of tokens being transferred\n    */\n    function deposit(address _token, uint256 _value) external payable isInitialized {\n        _deposit(_token, _value);\n    }\n\n    /**\n    * @notice Transfer `_value` `_token` from the Vault to `_to`\n    * @param _token Address of the token being transferred\n    * @param _to Address of the recipient of tokens\n    * @param _value Amount of tokens being transferred\n    */\n    /* solium-disable-next-line function-order */\n    function transfer(address _token, address _to, uint256 _value)\n        external\n        authP(TRANSFER_ROLE, arr(_token, _to, _value))\n    {\n        require(_value > 0, ERROR_TRANSFER_VALUE_ZERO);\n\n        if (_token == ETH) {\n            require(_to.send(_value), ERROR_SEND_REVERTED);\n        } else {\n            require(ERC20(_token).transfer(_to, _value), ERROR_TOKEN_TRANSFER_REVERTED);\n        }\n\n        emit Transfer(_token, _to, _value);\n    }\n\n    function balance(address _token) public view returns (uint256) {\n        if (_token == ETH) {\n            return address(this).balance;\n        } else {\n            return ERC20(_token).balanceOf(this);\n        }\n    }\n\n    /**\n    * @dev Disable recovery escape hatch, as it could be used\n    *      maliciously to transfer funds away from the vault\n    */\n    function allowRecoverability(address) public view returns (bool) {\n        return false;\n    }\n\n    function _deposit(address _token, uint256 _value) internal {\n        require(isDepositable(), ERROR_NOT_DEPOSITABLE);\n        require(_value > 0, ERROR_DEPOSIT_VALUE_ZERO);\n\n        if (_token == ETH) {\n            // Deposit is implicit in this case\n            require(msg.value == _value, ERROR_VALUE_MISMATCH);\n        } else {\n            require(ERC20(_token).transferFrom(msg.sender, this, _value), ERROR_TOKEN_TRANSFER_FROM_REVERTED);\n        }\n\n        emit Deposit(_token, msg.sender, _value);\n    }\n}\n",
  "sourcePath": "@aragon/apps-vault/contracts/Vault.sol",
  "compiler": {
    "name": "solc",
    "version": "0.4.24+commit.e67f0147.Emscripten.clang"
  },
  "schemaVersion": "3.0.10",
  "updatedAt": "2019-07-02T16:11:40.915Z",
  "devdoc": {
    "methods": {
      "allowRecoverability(address)": {
        "details": "Disable recovery escape hatch, as it could be used     maliciously to transfer funds away from the vault"
      },
      "canPerform(address,bytes32,uint256[])": {
        "details": "Check whether an action can be performed by a sender for a particular role on this app",
        "params": {
          "_params": "Permission params for the role",
          "_role": "Role on this app",
          "_sender": "Sender of the call"
        },
        "return": "Boolean indicating whether the sender has the permissions to perform the action.        Always returns false if the app hasn't been initialized yet."
      },
      "deposit(address,uint256)": {
        "params": {
          "_token": "Address of the token being transferred",
          "_value": "Amount of tokens being transferred"
        }
      },
      "getInitializationBlock()": {
        "return": "Block number in which the contract was initialized"
      },
      "getRecoveryVault()": {
        "details": "Get the recovery vault for the app",
        "return": "Recovery vault address for the app"
      },
      "hasInitialized()": {
        "return": "Whether the contract has been initialized by the time of the current block"
      },
      "initialize()": {
        "details": "As an AragonApp it needs to be initialized in order for roles (`auth` and `authP`) to work"
      },
      "transfer(address,address,uint256)": {
        "params": {
          "_to": "Address of the recipient of tokens",
          "_token": "Address of the token being transferred",
          "_value": "Amount of tokens being transferred"
        }
      },
      "transferToVault(address)": {
        "params": {
          "_token": "Token balance to be sent to recovery vault."
        }
      }
    }
  },
  "userdoc": {
    "methods": {
      "deposit(address,uint256)": {
        "notice": "Deposit `_value` `_token` to the vault"
      },
      "initialize()": {
        "notice": "Initialize Vault app"
      },
      "transfer(address,address,uint256)": {
        "notice": "Transfer `_value` `_token` from the Vault to `_to`"
      },
      "transferToVault(address)": {
        "notice": "Send funds to recovery Vault. This contract should never receive funds,        but in case it does, this function allows one to recover them."
      }
    }
  }
}